{
  "transactions": [
    {
      "hash": "0x26f4e1f6d99e4bfe0dc088bf8cc34639d699ad51b22ed914c7d2e956773ff878",
      "transactionType": "CALL",
      "contractName": null,
      "contractAddress": "0x23dd1aa37b5c81d64586c021330d61d3ad55aafb",
      "function": "postMessage((address,uint256,uint256)[])",
      "arguments": [
        "[(0x699BceEbD59a5b52bB586C737cD7ba636f3Fe602, 80002, 11100000000000000), (0x699BceEbD59a5b52bB586C737cD7ba636f3Fe602, 80002, 11200000000000000), (0x699BceEbD59a5b52bB586C737cD7ba636f3Fe602, 80002, 11300000000000000), (0x699BceEbD59a5b52bB586C737cD7ba636f3Fe602, 80002, 11400000000000000), (0x699BceEbD59a5b52bB586C737cD7ba636f3Fe602, 80002, 11500000000000000)]"
      ],
      "transaction": {
        "from": "0x699bceebd59a5b52bb586c737cd7ba636f3fe602",
        "to": "0x23dd1aa37b5c81d64586c021330d61d3ad55aafb",
        "gas": "0x30aa6",
        "value": "0xd529ae9e860000",
        "input": "0x42cbee8d00000000000000000000000000000000000000000000000000000000000000200000000000000000000000000000000000000000000000000000000000000005000000000000000000000000699bceebd59a5b52bb586c737cd7ba636f3fe602000000000000000000000000000000000000000000000000000000000001388200000000000000000000000000000000000000000000000000276f642501c000000000000000000000000000699bceebd59a5b52bb586c737cd7ba636f3fe60200000000000000000000000000000000000000000000000000000000000138820000000000000000000000000000000000000000000000000027ca57357c0000000000000000000000000000699bceebd59a5b52bb586c737cd7ba636f3fe60200000000000000000000000000000000000000000000000000000000000138820000000000000000000000000000000000000000000000000028254a45f64000000000000000000000000000699bceebd59a5b52bb586c737cd7ba636f3fe60200000000000000000000000000000000000000000000000000000000000138820000000000000000000000000000000000000000000000000028803d56708000000000000000000000000000699bceebd59a5b52bb586c737cd7ba636f3fe60200000000000000000000000000000000000000000000000000000000000138820000000000000000000000000000000000000000000000000028db3066eac000",
        "nonce": "0x162",
        "chainId": "0xaa36a7",
        "accessList": null,
        "type": null
      },
      "additionalContracts": [],
      "isFixedGasLimit": false
    }
  ],
  "receipts": [
    {
      "status": "0x1",
      "cumulativeGasUsed": "0xb6d298",
      "logs": [
        {
          "address": "0x23dd1aa37b5c81d64586c021330d61d3ad55aafb",
          "topics": [
            "0x9853b992610853aa2f058d95d0a4868ffcd37470b93a5e6634619467e0d4228c",
            "0x2148b7a8a5b90ae6d13870b0df9a0fc926bd0dcc0d4aaeadc02f24be1db0e616",
            "0x000000000000000000000000699bceebd59a5b52bb586c737cd7ba636f3fe602",
            "0x00000000000000000000000000000000000000000000000000276f642501c000"
          ],
          "data": "0x00000000000000000000000000000000000000000000000000000000662e86cc000000000000000000000000699bceebd59a5b52bb586c737cd7ba636f3fe60200000000000000000000000000000000000000000000000000000000000138820000000000000000000000000000000000000000000000a2a15d09519be000000000000000000000000000000000000000000000000000000de0b6b3a7640000",
          "blockHash": "0xccc3a238cce443a1fd16c4655ed1ab2686087330d87909d869a80b360e6e776d",
          "blockNumber": "0x587498",
          "transactionHash": "0x26f4e1f6d99e4bfe0dc088bf8cc34639d699ad51b22ed914c7d2e956773ff878",
          "transactionIndex": "0x2e",
          "logIndex": "0x7b",
          "removed": false
        },
        {
          "address": "0x23dd1aa37b5c81d64586c021330d61d3ad55aafb",
          "topics": [
            "0x9853b992610853aa2f058d95d0a4868ffcd37470b93a5e6634619467e0d4228c",
            "0x79a752efaf1dbbda363ab288cd0f806c011f57ecab32998f1fabac1082ff0a7c",
            "0x000000000000000000000000699bceebd59a5b52bb586c737cd7ba636f3fe602",
            "0x0000000000000000000000000000000000000000000000000027ca57357c0000"
          ],
          "data": "0x00000000000000000000000000000000000000000000000000000000662e86cc000000000000000000000000699bceebd59a5b52bb586c737cd7ba636f3fe60200000000000000000000000000000000000000000000000000000000000138820000000000000000000000000000000000000000000000a2a15d09519be000000000000000000000000000000000000000000000000000000de0b6b3a7640000",
          "blockHash": "0xccc3a238cce443a1fd16c4655ed1ab2686087330d87909d869a80b360e6e776d",
          "blockNumber": "0x587498",
          "transactionHash": "0x26f4e1f6d99e4bfe0dc088bf8cc34639d699ad51b22ed914c7d2e956773ff878",
          "transactionIndex": "0x2e",
          "logIndex": "0x7c",
          "removed": false
        },
        {
          "address": "0x23dd1aa37b5c81d64586c021330d61d3ad55aafb",
          "topics": [
            "0x9853b992610853aa2f058d95d0a4868ffcd37470b93a5e6634619467e0d4228c",
            "0x3eb99f1487eb6526d971dd9f2b3b0d06181deec1d30bd0ee9fe082b2ab3816df",
            "0x000000000000000000000000699bceebd59a5b52bb586c737cd7ba636f3fe602",
            "0x0000000000000000000000000000000000000000000000000028254a45f64000"
          ],
          "data": "0x00000000000000000000000000000000000000000000000000000000662e86cc000000000000000000000000699bceebd59a5b52bb586c737cd7ba636f3fe60200000000000000000000000000000000000000000000000000000000000138820000000000000000000000000000000000000000000000a2a15d09519be000000000000000000000000000000000000000000000000000000de0b6b3a7640000",
          "blockHash": "0xccc3a238cce443a1fd16c4655ed1ab2686087330d87909d869a80b360e6e776d",
          "blockNumber": "0x587498",
          "transactionHash": "0x26f4e1f6d99e4bfe0dc088bf8cc34639d699ad51b22ed914c7d2e956773ff878",
          "transactionIndex": "0x2e",
          "logIndex": "0x7d",
          "removed": false
        },
        {
          "address": "0x23dd1aa37b5c81d64586c021330d61d3ad55aafb",
          "topics": [
            "0x9853b992610853aa2f058d95d0a4868ffcd37470b93a5e6634619467e0d4228c",
            "0xb6c0547db6ae4b087ed9a1b7617481554bd6d21eeb74ac82d444c6e7d0fa500e",
            "0x000000000000000000000000699bceebd59a5b52bb586c737cd7ba636f3fe602",
            "0x0000000000000000000000000000000000000000000000000028803d56708000"
          ],
          "data": "0x00000000000000000000000000000000000000000000000000000000662e86cc000000000000000000000000699bceebd59a5b52bb586c737cd7ba636f3fe60200000000000000000000000000000000000000000000000000000000000138820000000000000000000000000000000000000000000000a2a15d09519be000000000000000000000000000000000000000000000000000000de0b6b3a7640000",
          "blockHash": "0xccc3a238cce443a1fd16c4655ed1ab2686087330d87909d869a80b360e6e776d",
          "blockNumber": "0x587498",
          "transactionHash": "0x26f4e1f6d99e4bfe0dc088bf8cc34639d699ad51b22ed914c7d2e956773ff878",
          "transactionIndex": "0x2e",
          "logIndex": "0x7e",
          "removed": false
        },
        {
          "address": "0x23dd1aa37b5c81d64586c021330d61d3ad55aafb",
          "topics": [
            "0x9853b992610853aa2f058d95d0a4868ffcd37470b93a5e6634619467e0d4228c",
            "0xb3c1a8b76c6e21cff634cd309c4629b4bd457d090220907c0cb58916e202783c",
            "0x000000000000000000000000699bceebd59a5b52bb586c737cd7ba636f3fe602",
            "0x0000000000000000000000000000000000000000000000000028db3066eac000"
          ],
          "data": "0x00000000000000000000000000000000000000000000000000000000662e86cc000000000000000000000000699bceebd59a5b52bb586c737cd7ba636f3fe60200000000000000000000000000000000000000000000000000000000000138820000000000000000000000000000000000000000000000a2a15d09519be000000000000000000000000000000000000000000000000000000de0b6b3a7640000",
          "blockHash": "0xccc3a238cce443a1fd16c4655ed1ab2686087330d87909d869a80b360e6e776d",
          "blockNumber": "0x587498",
          "transactionHash": "0x26f4e1f6d99e4bfe0dc088bf8cc34639d699ad51b22ed914c7d2e956773ff878",
          "transactionIndex": "0x2e",
          "logIndex": "0x7f",
          "removed": false
        }
      ],
      "logsBloom": "0x00000000000000000000020000002000200000000000000000400000000000000040400000000010000000800000001000000000000000000000000000000000010000000010100000000000000000000000000200000000000000000000000000800200000000000000000400000000200000008000000000000000000000000000000000000000000000000210020000020400010000000000000000000000000000000000000004020000000000800000000010000000000000040000000000000000000000000000004000008000000000000000000000000000000000000000010200000200005001000000000000000100200000000000000000000000",
      "type": "0x2",
      "transactionHash": "0x26f4e1f6d99e4bfe0dc088bf8cc34639d699ad51b22ed914c7d2e956773ff878",
      "transactionIndex": "0x2e",
      "blockHash": "0xccc3a238cce443a1fd16c4655ed1ab2686087330d87909d869a80b360e6e776d",
      "blockNumber": "0x587498",
      "gasUsed": "0x21469",
      "effectiveGasPrice": "0x3edff057",
      "from": "0x699bceebd59a5b52bb586c737cd7ba636f3fe602",
      "to": "0x23dd1aa37b5c81d64586c021330d61d3ad55aafb",
      "contractAddress": null
    }
  ],
  "libraries": [],
  "pending": [],
  "returns": {},
  "timestamp": 1714325199,
  "chain": 11155111,
  "commit": "9546700"
}