{
  "transactions": [
    {
      "hash": "0x10747d9ba9f79e568b8de88b11a85f1f5dd8a95eedd172bfc5af776983d23bf3",
      "transactionType": "CALL",
      "contractName": null,
      "contractAddress": "0x371862509e523e8fb89eb8911254c14c882fca96",
      "function": "postMessage((address,uint256,uint256)[])",
      "arguments": [
        "[(0x699BceEbD59a5b52bB586C737cD7ba636f3Fe602, 80002, 100000000000000000)]"
      ],
      "transaction": {
        "from": "0x699bceebd59a5b52bb586c737cd7ba636f3fe602",
        "to": "0x371862509e523e8fb89eb8911254c14c882fca96",
        "gas": "0x217c8",
        "value": "0x16345785d8a0000",
        "input": "0x42cbee8d00000000000000000000000000000000000000000000000000000000000000200000000000000000000000000000000000000000000000000000000000000001000000000000000000000000699bceebd59a5b52bb586c737cd7ba636f3fe6020000000000000000000000000000000000000000000000000000000000013882000000000000000000000000000000000000000000000000016345785d8a0000",
        "nonce": "0x122",
        "chainId": "0xaa36a7",
        "accessList": null,
        "type": null
      },
      "additionalContracts": [],
      "isFixedGasLimit": false
    }
  ],
  "receipts": [
    {
      "status": "0x1",
      "cumulativeGasUsed": "0xd99ae1",
      "logs": [
        {
          "address": "0x371862509e523e8fb89eb8911254c14c882fca96",
          "topics": [
            "0x9853b992610853aa2f058d95d0a4868ffcd37470b93a5e6634619467e0d4228c",
            "0xef6033f82f003774da17e30106da58b435fcc40762692253cc6a777dabb9d0d7",
            "0x000000000000000000000000699bceebd59a5b52bb586c737cd7ba636f3fe602",
            "0x000000000000000000000000000000000000000000000000016345785d8a0000"
          ],
          "data": "0x00000000000000000000000000000000000000000000000000000000662bc5cc000000000000000000000000699bceebd59a5b52bb586c737cd7ba636f3fe60200000000000000000000000000000000000000000000000000000000000138820000000000000000000000000000000000000000000000a2a15d09519be000000000000000000000000000000000000000000000000000000de0b6b3a7640000",
          "blockHash": "0x6bc748ef8c9213c8ce05ec028e28a6d4142034c49a7be8661275cf3d4685220b",
          "blockNumber": "0x583b85",
          "transactionHash": "0x10747d9ba9f79e568b8de88b11a85f1f5dd8a95eedd172bfc5af776983d23bf3",
          "transactionIndex": "0x62",
          "logIndex": "0xaf",
          "removed": false
        }
      ],
      "logsBloom": "0x80000000000000000000000000000000000000000000400000400000000000000000000000000000000000000000000000000000000000000000000000020000000000000000000000000000000000000000000002000000000000000000000000800004008002000000000000000000000000008000000000000000000000000000000000000000000000000000000000000000000000000000000000000000000000001000000000000000000000000000000000000000000000000000000000000000000000000000000000008000000000000000000000000000000000000010000000000000001000000000000000000100000000000000000000000000",
      "type": "0x2",
      "transactionHash": "0x10747d9ba9f79e568b8de88b11a85f1f5dd8a95eedd172bfc5af776983d23bf3",
      "transactionIndex": "0x62",
      "blockHash": "0x6bc748ef8c9213c8ce05ec028e28a6d4142034c49a7be8661275cf3d4685220b",
      "blockNumber": "0x583b85",
      "gasUsed": "0x16e59",
      "effectiveGasPrice": "0x7451c201",
      "from": "0x699bceebd59a5b52bb586c737cd7ba636f3fe602",
      "to": "0x371862509e523e8fb89eb8911254c14c882fca96",
      "contractAddress": null
    }
  ],
  "libraries": [],
  "pending": [],
  "returns": {},
  "timestamp": 1714144719,
  "chain": 11155111,
  "commit": "d8ddccd"
}