{
  "transactions": [
    {
      "hash": "0x5b194233c0b7a4017ad36d4231c2f9f582d9ff61d592438b7f39bfd38500414b",
      "transactionType": "CALL",
      "contractName": null,
      "contractAddress": "0x23dd1aa37b5c81d64586c021330d61d3ad55aafb",
      "function": "postMessage((address,uint256,uint256)[])",
      "arguments": [
        "[(0x699BceEbD59a5b52bB586C737cD7ba636f3Fe602, 80002, 11100000000000000), (0x699BceEbD59a5b52bB586C737cD7ba636f3Fe602, 80002, 11200000000000000), (0x699BceEbD59a5b52bB586C737cD7ba636f3Fe602, 80002, 11300000000000000), (0x699BceEbD59a5b52bB586C737cD7ba636f3Fe602, 80002, 11400000000000000), (0x699BceEbD59a5b52bB586C737cD7ba636f3Fe602, 80002, 11500000000000000)]"
      ],
      "transaction": {
        "from": "0x699bceebd59a5b52bb586c737cd7ba636f3fe602",
        "to": "0x23dd1aa37b5c81d64586c021330d61d3ad55aafb",
        "gas": "0x274b6",
        "value": "0xd529ae9e860000",
        "input": "0x42cbee8d00000000000000000000000000000000000000000000000000000000000000200000000000000000000000000000000000000000000000000000000000000005000000000000000000000000699bceebd59a5b52bb586c737cd7ba636f3fe602000000000000000000000000000000000000000000000000000000000001388200000000000000000000000000000000000000000000000000276f642501c000000000000000000000000000699bceebd59a5b52bb586c737cd7ba636f3fe60200000000000000000000000000000000000000000000000000000000000138820000000000000000000000000000000000000000000000000027ca57357c0000000000000000000000000000699bceebd59a5b52bb586c737cd7ba636f3fe60200000000000000000000000000000000000000000000000000000000000138820000000000000000000000000000000000000000000000000028254a45f64000000000000000000000000000699bceebd59a5b52bb586c737cd7ba636f3fe60200000000000000000000000000000000000000000000000000000000000138820000000000000000000000000000000000000000000000000028803d56708000000000000000000000000000699bceebd59a5b52bb586c737cd7ba636f3fe60200000000000000000000000000000000000000000000000000000000000138820000000000000000000000000000000000000000000000000028db3066eac000",
        "nonce": "0x15f",
        "chainId": "0xaa36a7",
        "accessList": null,
        "type": null
      },
      "additionalContracts": [],
      "isFixedGasLimit": false
    }
  ],
  "receipts": [
    {
      "status": "0x1",
      "cumulativeGasUsed": "0xc45131",
      "logs": [
        {
          "address": "0x23dd1aa37b5c81d64586c021330d61d3ad55aafb",
          "topics": [
            "0x9853b992610853aa2f058d95d0a4868ffcd37470b93a5e6634619467e0d4228c",
            "0x67d1e496ec5a50990886313d2b377d2b974a22e806595f2ade692441c75ccf14",
            "0x000000000000000000000000699bceebd59a5b52bb586c737cd7ba636f3fe602",
            "0x00000000000000000000000000000000000000000000000000276f642501c000"
          ],
          "data": "0x00000000000000000000000000000000000000000000000000000000662e6554000000000000000000000000699bceebd59a5b52bb586c737cd7ba636f3fe60200000000000000000000000000000000000000000000000000000000000138820000000000000000000000000000000000000000000000a2a15d09519be000000000000000000000000000000000000000000000000000000de0b6b3a7640000",
          "blockHash": "0x835cfb7bc062a4dcceae6fd9797eda2aa6610b7087dbcee7e347bc75582d0bf5",
          "blockNumber": "0x5871df",
          "transactionHash": "0x5b194233c0b7a4017ad36d4231c2f9f582d9ff61d592438b7f39bfd38500414b",
          "transactionIndex": "0x3d",
          "logIndex": "0x9e",
          "removed": false
        },
        {
          "address": "0x23dd1aa37b5c81d64586c021330d61d3ad55aafb",
          "topics": [
            "0x9853b992610853aa2f058d95d0a4868ffcd37470b93a5e6634619467e0d4228c",
            "0x0781f367efd3f3f360351a1a2c74ee428ab41ff1dbe9dc53cc413698b5f9b59d",
            "0x000000000000000000000000699bceebd59a5b52bb586c737cd7ba636f3fe602",
            "0x0000000000000000000000000000000000000000000000000027ca57357c0000"
          ],
          "data": "0x00000000000000000000000000000000000000000000000000000000662e6554000000000000000000000000699bceebd59a5b52bb586c737cd7ba636f3fe60200000000000000000000000000000000000000000000000000000000000138820000000000000000000000000000000000000000000000a2a15d09519be000000000000000000000000000000000000000000000000000000de0b6b3a7640000",
          "blockHash": "0x835cfb7bc062a4dcceae6fd9797eda2aa6610b7087dbcee7e347bc75582d0bf5",
          "blockNumber": "0x5871df",
          "transactionHash": "0x5b194233c0b7a4017ad36d4231c2f9f582d9ff61d592438b7f39bfd38500414b",
          "transactionIndex": "0x3d",
          "logIndex": "0x9f",
          "removed": false
        },
        {
          "address": "0x23dd1aa37b5c81d64586c021330d61d3ad55aafb",
          "topics": [
            "0x9853b992610853aa2f058d95d0a4868ffcd37470b93a5e6634619467e0d4228c",
            "0xb83676bebb61e67d86aadeb9fdc52467a1f2a9fd9cd055da0688d07aa854fbcf",
            "0x000000000000000000000000699bceebd59a5b52bb586c737cd7ba636f3fe602",
            "0x0000000000000000000000000000000000000000000000000028254a45f64000"
          ],
          "data": "0x00000000000000000000000000000000000000000000000000000000662e6554000000000000000000000000699bceebd59a5b52bb586c737cd7ba636f3fe60200000000000000000000000000000000000000000000000000000000000138820000000000000000000000000000000000000000000000a2a15d09519be000000000000000000000000000000000000000000000000000000de0b6b3a7640000",
          "blockHash": "0x835cfb7bc062a4dcceae6fd9797eda2aa6610b7087dbcee7e347bc75582d0bf5",
          "blockNumber": "0x5871df",
          "transactionHash": "0x5b194233c0b7a4017ad36d4231c2f9f582d9ff61d592438b7f39bfd38500414b",
          "transactionIndex": "0x3d",
          "logIndex": "0xa0",
          "removed": false
        },
        {
          "address": "0x23dd1aa37b5c81d64586c021330d61d3ad55aafb",
          "topics": [
            "0x9853b992610853aa2f058d95d0a4868ffcd37470b93a5e6634619467e0d4228c",
            "0x8238d2adf55a91cb674a6fb0df075dfd611abaa67446573da6f7f5f4dfec6ac0",
            "0x000000000000000000000000699bceebd59a5b52bb586c737cd7ba636f3fe602",
            "0x0000000000000000000000000000000000000000000000000028803d56708000"
          ],
          "data": "0x00000000000000000000000000000000000000000000000000000000662e6554000000000000000000000000699bceebd59a5b52bb586c737cd7ba636f3fe60200000000000000000000000000000000000000000000000000000000000138820000000000000000000000000000000000000000000000a2a15d09519be000000000000000000000000000000000000000000000000000000de0b6b3a7640000",
          "blockHash": "0x835cfb7bc062a4dcceae6fd9797eda2aa6610b7087dbcee7e347bc75582d0bf5",
          "blockNumber": "0x5871df",
          "transactionHash": "0x5b194233c0b7a4017ad36d4231c2f9f582d9ff61d592438b7f39bfd38500414b",
          "transactionIndex": "0x3d",
          "logIndex": "0xa1",
          "removed": false
        },
        {
          "address": "0x23dd1aa37b5c81d64586c021330d61d3ad55aafb",
          "topics": [
            "0x9853b992610853aa2f058d95d0a4868ffcd37470b93a5e6634619467e0d4228c",
            "0xd3c3a1a612cd7550945705f751663c6a8bca4f42d69364ca684f7878edb60e0b",
            "0x000000000000000000000000699bceebd59a5b52bb586c737cd7ba636f3fe602",
            "0x0000000000000000000000000000000000000000000000000028db3066eac000"
          ],
          "data": "0x00000000000000000000000000000000000000000000000000000000662e6554000000000000000000000000699bceebd59a5b52bb586c737cd7ba636f3fe60200000000000000000000000000000000000000000000000000000000000138820000000000000000000000000000000000000000000000a2a15d09519be000000000000000000000000000000000000000000000000000000de0b6b3a7640000",
          "blockHash": "0x835cfb7bc062a4dcceae6fd9797eda2aa6610b7087dbcee7e347bc75582d0bf5",
          "blockNumber": "0x5871df",
          "transactionHash": "0x5b194233c0b7a4017ad36d4231c2f9f582d9ff61d592438b7f39bfd38500414b",
          "transactionIndex": "0x3d",
          "logIndex": "0xa2",
          "removed": false
        }
      ],
      "logsBloom": "0x00000000000000040000000000800000200000000000000000400100000000000000400000000010000000800000001000000000000000000000000000000000010000000008000000020000000000000000800000000000000000001000000080800000000000000000000400000000000000008000000000000000000000000000000000400000000000000210020000000000000000000000000000000000000000000000800004000000000000000000000000000000000000040000000000000000000000000080004000008000000000000000000000000000001000000000010200000000005001000000000000000100200000000108000000000000",
      "type": "0x2",
      "transactionHash": "0x5b194233c0b7a4017ad36d4231c2f9f582d9ff61d592438b7f39bfd38500414b",
      "transactionIndex": "0x3d",
      "blockHash": "0x835cfb7bc062a4dcceae6fd9797eda2aa6610b7087dbcee7e347bc75582d0bf5",
      "blockNumber": "0x5871df",
      "gasUsed": "0x1c72e",
      "effectiveGasPrice": "0x85a72414",
      "from": "0x699bceebd59a5b52bb586c737cd7ba636f3fe602",
      "to": "0x23dd1aa37b5c81d64586c021330d61d3ad55aafb",
      "contractAddress": null
    }
  ],
  "libraries": [],
  "pending": [],
  "returns": {},
  "timestamp": 1714316634,
  "chain": 11155111,
  "commit": "9546700"
}