{
  "transactions": [
    {
      "hash": "0xff66b2ed01d14b271b1fcf3766538744d1f971bd2f49486274d2063bbcf18c78",
      "transactionType": "CALL",
      "contractName": null,
      "contractAddress": "0x23dd1aa37b5c81d64586c021330d61d3ad55aafb",
      "function": "postMessage((address,uint256,uint256)[])",
      "arguments": [
        "[(0x699BceEbD59a5b52bB586C737cD7ba636f3Fe602, 80002, 11100000000000000), (0x699BceEbD59a5b52bB586C737cD7ba636f3Fe602, 80002, 11200000000000000), (0x699BceEbD59a5b52bB586C737cD7ba636f3Fe602, 80002, 11300000000000000), (0x699BceEbD59a5b52bB586C737cD7ba636f3Fe602, 80002, 11400000000000000), (0x699BceEbD59a5b52bB586C737cD7ba636f3Fe602, 80002, 11500000000000000)]"
      ],
      "transaction": {
        "from": "0x699bceebd59a5b52bb586c737cd7ba636f3fe602",
        "to": "0x23dd1aa37b5c81d64586c021330d61d3ad55aafb",
        "gas": "0x274b6",
        "value": "0xd529ae9e860000",
        "input": "0x42cbee8d00000000000000000000000000000000000000000000000000000000000000200000000000000000000000000000000000000000000000000000000000000005000000000000000000000000699bceebd59a5b52bb586c737cd7ba636f3fe602000000000000000000000000000000000000000000000000000000000001388200000000000000000000000000000000000000000000000000276f642501c000000000000000000000000000699bceebd59a5b52bb586c737cd7ba636f3fe60200000000000000000000000000000000000000000000000000000000000138820000000000000000000000000000000000000000000000000027ca57357c0000000000000000000000000000699bceebd59a5b52bb586c737cd7ba636f3fe60200000000000000000000000000000000000000000000000000000000000138820000000000000000000000000000000000000000000000000028254a45f64000000000000000000000000000699bceebd59a5b52bb586c737cd7ba636f3fe60200000000000000000000000000000000000000000000000000000000000138820000000000000000000000000000000000000000000000000028803d56708000000000000000000000000000699bceebd59a5b52bb586c737cd7ba636f3fe60200000000000000000000000000000000000000000000000000000000000138820000000000000000000000000000000000000000000000000028db3066eac000",
        "nonce": "0x13b",
        "chainId": "0xaa36a7",
        "accessList": null,
        "type": null
      },
      "additionalContracts": [],
      "isFixedGasLimit": false
    }
  ],
  "receipts": [
    {
      "status": "0x1",
      "cumulativeGasUsed": "0xbcb575",
      "logs": [
        {
          "address": "0x23dd1aa37b5c81d64586c021330d61d3ad55aafb",
          "topics": [
            "0x9853b992610853aa2f058d95d0a4868ffcd37470b93a5e6634619467e0d4228c",
            "0x2e385299a08d6dcbb285c5c99bd512606af1d4c0c201e984833d5f9d86fc17fd",
            "0x000000000000000000000000699bceebd59a5b52bb586c737cd7ba636f3fe602",
            "0x00000000000000000000000000000000000000000000000000276f642501c000"
          ],
          "data": "0x00000000000000000000000000000000000000000000000000000000662cdd5c000000000000000000000000699bceebd59a5b52bb586c737cd7ba636f3fe60200000000000000000000000000000000000000000000000000000000000138820000000000000000000000000000000000000000000000a2a15d09519be000000000000000000000000000000000000000000000000000000de0b6b3a7640000",
          "blockHash": "0x8abba960b6919de7b8dd7b879a30bcd03b4b340c4f2d11330dc17040aa696617",
          "blockNumber": "0x585217",
          "transactionHash": "0xff66b2ed01d14b271b1fcf3766538744d1f971bd2f49486274d2063bbcf18c78",
          "transactionIndex": "0x4a",
          "logIndex": "0xcc",
          "removed": false
        },
        {
          "address": "0x23dd1aa37b5c81d64586c021330d61d3ad55aafb",
          "topics": [
            "0x9853b992610853aa2f058d95d0a4868ffcd37470b93a5e6634619467e0d4228c",
            "0xeef4671c43c86f508189fe4d0270a25b177ed3f67bd1871c98e54842d4ddd532",
            "0x000000000000000000000000699bceebd59a5b52bb586c737cd7ba636f3fe602",
            "0x0000000000000000000000000000000000000000000000000027ca57357c0000"
          ],
          "data": "0x00000000000000000000000000000000000000000000000000000000662cdd5c000000000000000000000000699bceebd59a5b52bb586c737cd7ba636f3fe60200000000000000000000000000000000000000000000000000000000000138820000000000000000000000000000000000000000000000a2a15d09519be000000000000000000000000000000000000000000000000000000de0b6b3a7640000",
          "blockHash": "0x8abba960b6919de7b8dd7b879a30bcd03b4b340c4f2d11330dc17040aa696617",
          "blockNumber": "0x585217",
          "transactionHash": "0xff66b2ed01d14b271b1fcf3766538744d1f971bd2f49486274d2063bbcf18c78",
          "transactionIndex": "0x4a",
          "logIndex": "0xcd",
          "removed": false
        },
        {
          "address": "0x23dd1aa37b5c81d64586c021330d61d3ad55aafb",
          "topics": [
            "0x9853b992610853aa2f058d95d0a4868ffcd37470b93a5e6634619467e0d4228c",
            "0x38bbc3c9124cf0376d81804fa62ce4341f7add74ed9790e5e91b6c05f15c3653",
            "0x000000000000000000000000699bceebd59a5b52bb586c737cd7ba636f3fe602",
            "0x0000000000000000000000000000000000000000000000000028254a45f64000"
          ],
          "data": "0x00000000000000000000000000000000000000000000000000000000662cdd5c000000000000000000000000699bceebd59a5b52bb586c737cd7ba636f3fe60200000000000000000000000000000000000000000000000000000000000138820000000000000000000000000000000000000000000000a2a15d09519be000000000000000000000000000000000000000000000000000000de0b6b3a7640000",
          "blockHash": "0x8abba960b6919de7b8dd7b879a30bcd03b4b340c4f2d11330dc17040aa696617",
          "blockNumber": "0x585217",
          "transactionHash": "0xff66b2ed01d14b271b1fcf3766538744d1f971bd2f49486274d2063bbcf18c78",
          "transactionIndex": "0x4a",
          "logIndex": "0xce",
          "removed": false
        },
        {
          "address": "0x23dd1aa37b5c81d64586c021330d61d3ad55aafb",
          "topics": [
            "0x9853b992610853aa2f058d95d0a4868ffcd37470b93a5e6634619467e0d4228c",
            "0xc7db089250030e4a30f9562bd326ab0f8de7277d6d3447e74e050d04df2cbdf2",
            "0x000000000000000000000000699bceebd59a5b52bb586c737cd7ba636f3fe602",
            "0x0000000000000000000000000000000000000000000000000028803d56708000"
          ],
          "data": "0x00000000000000000000000000000000000000000000000000000000662cdd5c000000000000000000000000699bceebd59a5b52bb586c737cd7ba636f3fe60200000000000000000000000000000000000000000000000000000000000138820000000000000000000000000000000000000000000000a2a15d09519be000000000000000000000000000000000000000000000000000000de0b6b3a7640000",
          "blockHash": "0x8abba960b6919de7b8dd7b879a30bcd03b4b340c4f2d11330dc17040aa696617",
          "blockNumber": "0x585217",
          "transactionHash": "0xff66b2ed01d14b271b1fcf3766538744d1f971bd2f49486274d2063bbcf18c78",
          "transactionIndex": "0x4a",
          "logIndex": "0xcf",
          "removed": false
        },
        {
          "address": "0x23dd1aa37b5c81d64586c021330d61d3ad55aafb",
          "topics": [
            "0x9853b992610853aa2f058d95d0a4868ffcd37470b93a5e6634619467e0d4228c",
            "0xaf102d3e8534e0c51dd85dcc970a6d501c828fc55cc3114f14775192d41d233d",
            "0x000000000000000000000000699bceebd59a5b52bb586c737cd7ba636f3fe602",
            "0x0000000000000000000000000000000000000000000000000028db3066eac000"
          ],
          "data": "0x00000000000000000000000000000000000000000000000000000000662cdd5c000000000000000000000000699bceebd59a5b52bb586c737cd7ba636f3fe60200000000000000000000000000000000000000000000000000000000000138820000000000000000000000000000000000000000000000a2a15d09519be000000000000000000000000000000000000000000000000000000de0b6b3a7640000",
          "blockHash": "0x8abba960b6919de7b8dd7b879a30bcd03b4b340c4f2d11330dc17040aa696617",
          "blockNumber": "0x585217",
          "transactionHash": "0xff66b2ed01d14b271b1fcf3766538744d1f971bd2f49486274d2063bbcf18c78",
          "transactionIndex": "0x4a",
          "logIndex": "0xd0",
          "removed": false
        }
      ],
      "logsBloom": "0x00000000000000040000000000000000200000000000000000400000000000000000400400000010000000a00000001000000000000000000000000008000000010000000000000000000000080000000000000020000000000000000000000000800000000000000000000400000000000000008000000000000000400000000000000000000000000000000210020040000000000000200000000000020000000000000000000004000000000000000000000000010000000000040000000000000008000000000000004000008000000000020000000000000000000000000000010200000000005001000000000000000100200000000100000000000000",
      "type": "0x2",
      "transactionHash": "0xff66b2ed01d14b271b1fcf3766538744d1f971bd2f49486274d2063bbcf18c78",
      "transactionIndex": "0x4a",
      "blockHash": "0x8abba960b6919de7b8dd7b879a30bcd03b4b340c4f2d11330dc17040aa696617",
      "blockNumber": "0x585217",
      "gasUsed": "0x1c72e",
      "effectiveGasPrice": "0xf763474a",
      "from": "0x699bceebd59a5b52bb586c737cd7ba636f3fe602",
      "to": "0x23dd1aa37b5c81d64586c021330d61d3ad55aafb",
      "contractAddress": null
    }
  ],
  "libraries": [],
  "pending": [],
  "returns": {},
  "timestamp": 1714216287,
  "chain": 11155111,
  "commit": "9546700"
}