{
  "transactions": [
    {
      "hash": "0x796e5f061cde849e14d5384a72c252e5a2298ffa14419be2954bed9d23af717f",
      "transactionType": "CALL",
      "contractName": null,
      "contractAddress": "0x23dd1aa37b5c81d64586c021330d61d3ad55aafb",
      "function": "postMessage((address,uint256,uint256)[])",
      "arguments": [
        "[(0x699BceEbD59a5b52bB586C737cD7ba636f3Fe602, 80002, 11100000000000000)]"
      ],
      "transaction": {
        "from": "0x699bceebd59a5b52bb586c737cd7ba636f3fe602",
        "to": "0x23dd1aa37b5c81d64586c021330d61d3ad55aafb",
        "gas": "0x1fa07",
        "value": "0x276f642501c000",
        "input": "0x42cbee8d00000000000000000000000000000000000000000000000000000000000000200000000000000000000000000000000000000000000000000000000000000001000000000000000000000000699bceebd59a5b52bb586c737cd7ba636f3fe602000000000000000000000000000000000000000000000000000000000001388200000000000000000000000000000000000000000000000000276f642501c000",
        "nonce": "0x148",
        "chainId": "0xaa36a7",
        "accessList": null,
        "type": null
      },
      "additionalContracts": [],
      "isFixedGasLimit": false
    }
  ],
  "receipts": [
    {
      "status": "0x1",
      "cumulativeGasUsed": "0x1b3384c",
      "logs": [
        {
          "address": "0x23dd1aa37b5c81d64586c021330d61d3ad55aafb",
          "topics": [
            "0x9853b992610853aa2f058d95d0a4868ffcd37470b93a5e6634619467e0d4228c",
            "0x37b459cc8b491d70bb9d3b75e7e47a27bd9a03965c6c638d0fe5638d3fce7c49",
            "0x000000000000000000000000699bceebd59a5b52bb586c737cd7ba636f3fe602",
            "0x00000000000000000000000000000000000000000000000000276f642501c000"
          ],
          "data": "0x00000000000000000000000000000000000000000000000000000000662df6a8000000000000000000000000699bceebd59a5b52bb586c737cd7ba636f3fe60200000000000000000000000000000000000000000000000000000000000138820000000000000000000000000000000000000000000000a2a15d09519be000000000000000000000000000000000000000000000000000000de0b6b3a7640000",
          "blockHash": "0x3f3b99784845227979147284ae18e7285224804ceb30069c5e17a5a4322d69ce",
          "blockNumber": "0x5868e4",
          "transactionHash": "0x796e5f061cde849e14d5384a72c252e5a2298ffa14419be2954bed9d23af717f",
          "transactionIndex": "0xce",
          "logIndex": "0x244",
          "removed": false
        }
      ],
      "logsBloom": "0x00000000000000000000000000000000000000000000000000400000000000000000000000000010000000000400000000000000000000000000000000000000000000000000000000000000000000000000000000000000000000000000000000800000000000000000000400000000000000008000000000000000000000000000000000000000000000000200000000000000000000000000000000000000000000000000000000000000000000000000000000000000000000040000000000000000000000000000000000008000000000000000000000000000020000000020010000000000001000000000000000000100200000000000000000000000",
      "type": "0x2",
      "transactionHash": "0x796e5f061cde849e14d5384a72c252e5a2298ffa14419be2954bed9d23af717f",
      "transactionIndex": "0xce",
      "blockHash": "0x3f3b99784845227979147284ae18e7285224804ceb30069c5e17a5a4322d69ce",
      "blockNumber": "0x5868e4",
      "gasUsed": "0x16e5c",
      "effectiveGasPrice": "0x7db6cc3f",
      "from": "0x699bceebd59a5b52bb586c737cd7ba636f3fe602",
      "to": "0x23dd1aa37b5c81d64586c021330d61d3ad55aafb",
      "contractAddress": null
    }
  ],
  "libraries": [],
  "pending": [],
  "returns": {},
  "timestamp": 1714288303,
  "chain": 11155111,
  "commit": "9546700"
}