{
  "transactions": [
    {
      "hash": "0x198cf3d17347dbb9db6f1072efcc5a708bc462f2df346ee5f1cc052f9c223559",
      "transactionType": "CALL",
      "contractName": null,
      "contractAddress": "0x23dd1aa37b5c81d64586c021330d61d3ad55aafb",
      "function": "postMessage((address,uint256,uint256)[])",
      "arguments": [
        "[(0x699BceEbD59a5b52bB586C737cD7ba636f3Fe602, 80002, 11100000000000000), (0x699BceEbD59a5b52bB586C737cD7ba636f3Fe602, 80002, 11200000000000000), (0x699BceEbD59a5b52bB586C737cD7ba636f3Fe602, 80002, 11300000000000000), (0x699BceEbD59a5b52bB586C737cD7ba636f3Fe602, 80002, 11400000000000000), (0x699BceEbD59a5b52bB586C737cD7ba636f3Fe602, 80002, 11500000000000000)]"
      ],
      "transaction": {
        "from": "0x699bceebd59a5b52bb586c737cd7ba636f3fe602",
        "to": "0x23dd1aa37b5c81d64586c021330d61d3ad55aafb",
        "gas": "0x2933c",
        "value": "0xd529ae9e860000",
        "input": "0x42cbee8d00000000000000000000000000000000000000000000000000000000000000200000000000000000000000000000000000000000000000000000000000000005000000000000000000000000699bceebd59a5b52bb586c737cd7ba636f3fe602000000000000000000000000000000000000000000000000000000000001388200000000000000000000000000000000000000000000000000276f642501c000000000000000000000000000699bceebd59a5b52bb586c737cd7ba636f3fe60200000000000000000000000000000000000000000000000000000000000138820000000000000000000000000000000000000000000000000027ca57357c0000000000000000000000000000699bceebd59a5b52bb586c737cd7ba636f3fe60200000000000000000000000000000000000000000000000000000000000138820000000000000000000000000000000000000000000000000028254a45f64000000000000000000000000000699bceebd59a5b52bb586c737cd7ba636f3fe60200000000000000000000000000000000000000000000000000000000000138820000000000000000000000000000000000000000000000000028803d56708000000000000000000000000000699bceebd59a5b52bb586c737cd7ba636f3fe60200000000000000000000000000000000000000000000000000000000000138820000000000000000000000000000000000000000000000000028db3066eac000",
        "nonce": "0x168",
        "chainId": "0xaa36a7",
        "accessList": null,
        "type": null
      },
      "additionalContracts": [],
      "isFixedGasLimit": false
    }
  ],
  "receipts": [
    {
      "status": "0x1",
      "cumulativeGasUsed": "0xeeea8c",
      "logs": [
        {
          "address": "0x23dd1aa37b5c81d64586c021330d61d3ad55aafb",
          "topics": [
            "0x9853b992610853aa2f058d95d0a4868ffcd37470b93a5e6634619467e0d4228c",
            "0x2263223c13f4456e7480ce2a73bb629a6a71d091d68b7ca9c41649ad77b2f96c",
            "0x000000000000000000000000699bceebd59a5b52bb586c737cd7ba636f3fe602",
            "0x00000000000000000000000000000000000000000000000000276f642501c000"
          ],
          "data": "0x00000000000000000000000000000000000000000000000000000000662fcdf0000000000000000000000000699bceebd59a5b52bb586c737cd7ba636f3fe60200000000000000000000000000000000000000000000000000000000000138820000000000000000000000000000000000000000000000a2a15d09519be000000000000000000000000000000000000000000000000000000de0b6b3a7640000",
          "blockHash": "0x472e457fdfdc6d0d212a398209db8828927c8db52a85712d91531e70ee6cc6e6",
          "blockNumber": "0x588e00",
          "transactionHash": "0x198cf3d17347dbb9db6f1072efcc5a708bc462f2df346ee5f1cc052f9c223559",
          "transactionIndex": "0x39",
          "logIndex": "0x1cd",
          "removed": false
        },
        {
          "address": "0x23dd1aa37b5c81d64586c021330d61d3ad55aafb",
          "topics": [
            "0x9853b992610853aa2f058d95d0a4868ffcd37470b93a5e6634619467e0d4228c",
            "0xe843a17e755b5fa655679fdc36958189a2d7b7d508ef3e0bd1d0cb4fd400c511",
            "0x000000000000000000000000699bceebd59a5b52bb586c737cd7ba636f3fe602",
            "0x0000000000000000000000000000000000000000000000000027ca57357c0000"
          ],
          "data": "0x00000000000000000000000000000000000000000000000000000000662fcdf0000000000000000000000000699bceebd59a5b52bb586c737cd7ba636f3fe60200000000000000000000000000000000000000000000000000000000000138820000000000000000000000000000000000000000000000a2a15d09519be000000000000000000000000000000000000000000000000000000de0b6b3a7640000",
          "blockHash": "0x472e457fdfdc6d0d212a398209db8828927c8db52a85712d91531e70ee6cc6e6",
          "blockNumber": "0x588e00",
          "transactionHash": "0x198cf3d17347dbb9db6f1072efcc5a708bc462f2df346ee5f1cc052f9c223559",
          "transactionIndex": "0x39",
          "logIndex": "0x1ce",
          "removed": false
        },
        {
          "address": "0x23dd1aa37b5c81d64586c021330d61d3ad55aafb",
          "topics": [
            "0x9853b992610853aa2f058d95d0a4868ffcd37470b93a5e6634619467e0d4228c",
            "0x4ce54fcdf7916f15852d20ec9cdb783a035d648f71f88b0847bc9b1252a3a6a2",
            "0x000000000000000000000000699bceebd59a5b52bb586c737cd7ba636f3fe602",
            "0x0000000000000000000000000000000000000000000000000028254a45f64000"
          ],
          "data": "0x00000000000000000000000000000000000000000000000000000000662fcdf0000000000000000000000000699bceebd59a5b52bb586c737cd7ba636f3fe60200000000000000000000000000000000000000000000000000000000000138820000000000000000000000000000000000000000000000a2a15d09519be000000000000000000000000000000000000000000000000000000de0b6b3a7640000",
          "blockHash": "0x472e457fdfdc6d0d212a398209db8828927c8db52a85712d91531e70ee6cc6e6",
          "blockNumber": "0x588e00",
          "transactionHash": "0x198cf3d17347dbb9db6f1072efcc5a708bc462f2df346ee5f1cc052f9c223559",
          "transactionIndex": "0x39",
          "logIndex": "0x1cf",
          "removed": false
        },
        {
          "address": "0x23dd1aa37b5c81d64586c021330d61d3ad55aafb",
          "topics": [
            "0x9853b992610853aa2f058d95d0a4868ffcd37470b93a5e6634619467e0d4228c",
            "0xc272053beb85155d0041019e787816cd12498c46ad5654610d782c2c1725033c",
            "0x000000000000000000000000699bceebd59a5b52bb586c737cd7ba636f3fe602",
            "0x0000000000000000000000000000000000000000000000000028803d56708000"
          ],
          "data": "0x00000000000000000000000000000000000000000000000000000000662fcdf0000000000000000000000000699bceebd59a5b52bb586c737cd7ba636f3fe60200000000000000000000000000000000000000000000000000000000000138820000000000000000000000000000000000000000000000a2a15d09519be000000000000000000000000000000000000000000000000000000de0b6b3a7640000",
          "blockHash": "0x472e457fdfdc6d0d212a398209db8828927c8db52a85712d91531e70ee6cc6e6",
          "blockNumber": "0x588e00",
          "transactionHash": "0x198cf3d17347dbb9db6f1072efcc5a708bc462f2df346ee5f1cc052f9c223559",
          "transactionIndex": "0x39",
          "logIndex": "0x1d0",
          "removed": false
        },
        {
          "address": "0x23dd1aa37b5c81d64586c021330d61d3ad55aafb",
          "topics": [
            "0x9853b992610853aa2f058d95d0a4868ffcd37470b93a5e6634619467e0d4228c",
            "0xfc1adad4af9de15d13aa8f73383e5d366ea78672a42c8e2cf05cb097d568450a",
            "0x000000000000000000000000699bceebd59a5b52bb586c737cd7ba636f3fe602",
            "0x0000000000000000000000000000000000000000000000000028db3066eac000"
          ],
          "data": "0x00000000000000000000000000000000000000000000000000000000662fcdf0000000000000000000000000699bceebd59a5b52bb586c737cd7ba636f3fe60200000000000000000000000000000000000000000000000000000000000138820000000000000000000000000000000000000000000000a2a15d09519be000000000000000000000000000000000000000000000000000000de0b6b3a7640000",
          "blockHash": "0x472e457fdfdc6d0d212a398209db8828927c8db52a85712d91531e70ee6cc6e6",
          "blockNumber": "0x588e00",
          "transactionHash": "0x198cf3d17347dbb9db6f1072efcc5a708bc462f2df346ee5f1cc052f9c223559",
          "transactionIndex": "0x39",
          "logIndex": "0x1d1",
          "removed": false
        }
      ],
      "logsBloom": "0x00000000000000000000000000000000200000000000000000400400008000000000400000000010000000800000001000000000000000000000000000000000010000000000000000000000400000000000000000000000000000000000020000800000000000000000000400000020000010008000000000000000000000020000000000002000000000000210028000000000000000000000000000000000000000000000000004002040000000000000000000000000000000040000000000001000010000000000004000008000000000400000000000000000000000000000010200000000005001000000000000000100200000000000000000000000",
      "type": "0x2",
      "transactionHash": "0x198cf3d17347dbb9db6f1072efcc5a708bc462f2df346ee5f1cc052f9c223559",
      "transactionIndex": "0x39",
      "blockHash": "0x472e457fdfdc6d0d212a398209db8828927c8db52a85712d91531e70ee6cc6e6",
      "blockNumber": "0x588e00",
      "gasUsed": "0x1dd47",
      "effectiveGasPrice": "0x174b5c9ce",
      "from": "0x699bceebd59a5b52bb586c737cd7ba636f3fe602",
      "to": "0x23dd1aa37b5c81d64586c021330d61d3ad55aafb",
      "contractAddress": null
    }
  ],
  "libraries": [],
  "pending": [],
  "returns": {},
  "timestamp": 1714408946,
  "chain": 11155111,
  "commit": "9546700"
}