{
  "transactions": [
    {
      "hash": "0x02478742d960a2458f0ccec5c9d7d6ff99307365a11799925b93d16a4844127a",
      "transactionType": "CALL",
      "contractName": null,
      "contractAddress": "0x23dd1aa37b5c81d64586c021330d61d3ad55aafb",
      "function": "postMessage((address,uint256,uint256)[])",
      "arguments": [
        "[(0x699BceEbD59a5b52bB586C737cD7ba636f3Fe602, 80002, 11100000000000000), (0x699BceEbD59a5b52bB586C737cD7ba636f3Fe602, 80002, 11200000000000000), (0x699BceEbD59a5b52bB586C737cD7ba636f3Fe602, 80002, 11300000000000000), (0x699BceEbD59a5b52bB586C737cD7ba636f3Fe602, 80002, 11400000000000000), (0x699BceEbD59a5b52bB586C737cD7ba636f3Fe602, 80002, 11500000000000000)]"
      ],
      "transaction": {
        "from": "0x699bceebd59a5b52bb586c737cd7ba636f3fe602",
        "to": "0x23dd1aa37b5c81d64586c021330d61d3ad55aafb",
        "gas": "0x274b6",
        "value": "0xd529ae9e860000",
        "input": "0x42cbee8d00000000000000000000000000000000000000000000000000000000000000200000000000000000000000000000000000000000000000000000000000000005000000000000000000000000699bceebd59a5b52bb586c737cd7ba636f3fe602000000000000000000000000000000000000000000000000000000000001388200000000000000000000000000000000000000000000000000276f642501c000000000000000000000000000699bceebd59a5b52bb586c737cd7ba636f3fe60200000000000000000000000000000000000000000000000000000000000138820000000000000000000000000000000000000000000000000027ca57357c0000000000000000000000000000699bceebd59a5b52bb586c737cd7ba636f3fe60200000000000000000000000000000000000000000000000000000000000138820000000000000000000000000000000000000000000000000028254a45f64000000000000000000000000000699bceebd59a5b52bb586c737cd7ba636f3fe60200000000000000000000000000000000000000000000000000000000000138820000000000000000000000000000000000000000000000000028803d56708000000000000000000000000000699bceebd59a5b52bb586c737cd7ba636f3fe60200000000000000000000000000000000000000000000000000000000000138820000000000000000000000000000000000000000000000000028db3066eac000",
        "nonce": "0x178",
        "chainId": "0xaa36a7",
        "accessList": null,
        "type": null
      },
      "additionalContracts": [],
      "isFixedGasLimit": false
    }
  ],
  "receipts": [
    {
      "status": "0x1",
      "cumulativeGasUsed": "0x1279797",
      "logs": [
        {
          "address": "0x23dd1aa37b5c81d64586c021330d61d3ad55aafb",
          "topics": [
            "0x9853b992610853aa2f058d95d0a4868ffcd37470b93a5e6634619467e0d4228c",
            "0x03d3bd7cde8827895a65ff540fd4b0e637f5204119acf218dafc0231c689b63f",
            "0x000000000000000000000000699bceebd59a5b52bb586c737cd7ba636f3fe602",
            "0x00000000000000000000000000000000000000000000000000276f642501c000"
          ],
          "data": "0x00000000000000000000000000000000000000000000000000000000662ffad8000000000000000000000000699bceebd59a5b52bb586c737cd7ba636f3fe60200000000000000000000000000000000000000000000000000000000000138820000000000000000000000000000000000000000000000a2a15d09519be000000000000000000000000000000000000000000000000000000de0b6b3a7640000",
          "blockHash": "0xab26f564d81abc3eb071087b5831d710e6d21e1f92154883b605b7ee3fc17482",
          "blockNumber": "0x58916b",
          "transactionHash": "0x02478742d960a2458f0ccec5c9d7d6ff99307365a11799925b93d16a4844127a",
          "transactionIndex": "0x58",
          "logIndex": "0xa0",
          "removed": false
        },
        {
          "address": "0x23dd1aa37b5c81d64586c021330d61d3ad55aafb",
          "topics": [
            "0x9853b992610853aa2f058d95d0a4868ffcd37470b93a5e6634619467e0d4228c",
            "0x069992a1d9d0c91d013c174d887c537c1f173f00060341f46cc23fcfc64df6e0",
            "0x000000000000000000000000699bceebd59a5b52bb586c737cd7ba636f3fe602",
            "0x0000000000000000000000000000000000000000000000000027ca57357c0000"
          ],
          "data": "0x00000000000000000000000000000000000000000000000000000000662ffad8000000000000000000000000699bceebd59a5b52bb586c737cd7ba636f3fe60200000000000000000000000000000000000000000000000000000000000138820000000000000000000000000000000000000000000000a2a15d09519be000000000000000000000000000000000000000000000000000000de0b6b3a7640000",
          "blockHash": "0xab26f564d81abc3eb071087b5831d710e6d21e1f92154883b605b7ee3fc17482",
          "blockNumber": "0x58916b",
          "transactionHash": "0x02478742d960a2458f0ccec5c9d7d6ff99307365a11799925b93d16a4844127a",
          "transactionIndex": "0x58",
          "logIndex": "0xa1",
          "removed": false
        },
        {
          "address": "0x23dd1aa37b5c81d64586c021330d61d3ad55aafb",
          "topics": [
            "0x9853b992610853aa2f058d95d0a4868ffcd37470b93a5e6634619467e0d4228c",
            "0xefe1be41bc4f50c2f546159774f46ad17cb50b4acf0dd87ab3ace8e4a75b8365",
            "0x000000000000000000000000699bceebd59a5b52bb586c737cd7ba636f3fe602",
            "0x0000000000000000000000000000000000000000000000000028254a45f64000"
          ],
          "data": "0x00000000000000000000000000000000000000000000000000000000662ffad8000000000000000000000000699bceebd59a5b52bb586c737cd7ba636f3fe60200000000000000000000000000000000000000000000000000000000000138820000000000000000000000000000000000000000000000a2a15d09519be000000000000000000000000000000000000000000000000000000de0b6b3a7640000",
          "blockHash": "0xab26f564d81abc3eb071087b5831d710e6d21e1f92154883b605b7ee3fc17482",
          "blockNumber": "0x58916b",
          "transactionHash": "0x02478742d960a2458f0ccec5c9d7d6ff99307365a11799925b93d16a4844127a",
          "transactionIndex": "0x58",
          "logIndex": "0xa2",
          "removed": false
        },
        {
          "address": "0x23dd1aa37b5c81d64586c021330d61d3ad55aafb",
          "topics": [
            "0x9853b992610853aa2f058d95d0a4868ffcd37470b93a5e6634619467e0d4228c",
            "0x4902539f741d56bc06adc28436149aedc8a3963e19490f5ef91fe776de8ee58b",
            "0x000000000000000000000000699bceebd59a5b52bb586c737cd7ba636f3fe602",
            "0x0000000000000000000000000000000000000000000000000028803d56708000"
          ],
          "data": "0x00000000000000000000000000000000000000000000000000000000662ffad8000000000000000000000000699bceebd59a5b52bb586c737cd7ba636f3fe60200000000000000000000000000000000000000000000000000000000000138820000000000000000000000000000000000000000000000a2a15d09519be000000000000000000000000000000000000000000000000000000de0b6b3a7640000",
          "blockHash": "0xab26f564d81abc3eb071087b5831d710e6d21e1f92154883b605b7ee3fc17482",
          "blockNumber": "0x58916b",
          "transactionHash": "0x02478742d960a2458f0ccec5c9d7d6ff99307365a11799925b93d16a4844127a",
          "transactionIndex": "0x58",
          "logIndex": "0xa3",
          "removed": false
        },
        {
          "address": "0x23dd1aa37b5c81d64586c021330d61d3ad55aafb",
          "topics": [
            "0x9853b992610853aa2f058d95d0a4868ffcd37470b93a5e6634619467e0d4228c",
            "0x08e0a0b4239328f765e1a1dbed79be6a65b56672d9b67a2dcc3a6075b904c882",
            "0x000000000000000000000000699bceebd59a5b52bb586c737cd7ba636f3fe602",
            "0x0000000000000000000000000000000000000000000000000028db3066eac000"
          ],
          "data": "0x00000000000000000000000000000000000000000000000000000000662ffad8000000000000000000000000699bceebd59a5b52bb586c737cd7ba636f3fe60200000000000000000000000000000000000000000000000000000000000138820000000000000000000000000000000000000000000000a2a15d09519be000000000000000000000000000000000000000000000000000000de0b6b3a7640000",
          "blockHash": "0xab26f564d81abc3eb071087b5831d710e6d21e1f92154883b605b7ee3fc17482",
          "blockNumber": "0x58916b",
          "transactionHash": "0x02478742d960a2458f0ccec5c9d7d6ff99307365a11799925b93d16a4844127a",
          "transactionIndex": "0x58",
          "logIndex": "0xa4",
          "removed": false
        }
      ],
      "logsBloom": "0x000000000000000000000000000000002000000000000000004000000000400000004000000000108000008002000018000000000000000000000000000000000100000000100000000000000000000000000000000000000000000000000000008000000000000000000004000000000000000080000000000000000000080000000000000000000000000002100220000000000000000000000000000000000000000000000000040000000000000002000000000800000000000400000000000000000000000000000040000080000000000000000000000800004000000000000102000000010050010040000000000001002000000000000000000c0000",
      "type": "0x2",
      "transactionHash": "0x02478742d960a2458f0ccec5c9d7d6ff99307365a11799925b93d16a4844127a",
      "transactionIndex": "0x58",
      "blockHash": "0xab26f564d81abc3eb071087b5831d710e6d21e1f92154883b605b7ee3fc17482",
      "blockNumber": "0x58916b",
      "gasUsed": "0x1c72e",
      "effectiveGasPrice": "0x2e5adc95",
      "from": "0x699bceebd59a5b52bb586c737cd7ba636f3fe602",
      "to": "0x23dd1aa37b5c81d64586c021330d61d3ad55aafb",
      "contractAddress": null
    }
  ],
  "libraries": [],
  "pending": [],
  "returns": {},
  "timestamp": 1714420445,
  "chain": 11155111,
  "commit": "9546700"
}