{
  "transactions": [
    {
      "hash": "0x0f11ee7c4441ebfd2d3a5243d05d94522eb3bd0c5b7b613a19399b6fa41e5f12",
      "transactionType": "CALL",
      "contractName": null,
      "contractAddress": "0x4a7d3d5691d88e8a4f56e36d364e0ffd8292e2ed",
      "function": "postMessage((string,uint256,uint256)[])",
      "arguments": [
        "[(\"0x9b6137E8C04774F04fBd84d8f7302B7c384A109A\", 80002, 100000000000000000)]"
      ],
      "transaction": {
        "from": "0x699bceebd59a5b52bb586c737cd7ba636f3fe602",
        "to": "0x4a7d3d5691d88e8a4f56e36d364e0ffd8292e2ed",
        "gas": "0x30ca7",
        "value": "0x16345785d8a0000",
        "input": "0x3b09dad900000000000000000000000000000000000000000000000000000000000000200000000000000000000000000000000000000000000000000000000000000001000000000000000000000000000000000000000000000000000000000000002000000000000000000000000000000000000000000000000000000000000000600000000000000000000000000000000000000000000000000000000000013882000000000000000000000000000000000000000000000000016345785d8a0000000000000000000000000000000000000000000000000000000000000000002a30783962363133374538433034373734463034664264383464386637333032423763333834413130394100000000000000000000000000000000000000000000",
        "nonce": "0x112",
        "chainId": "0xaa36a7",
        "accessList": null,
        "type": null
      },
      "additionalContracts": [],
      "isFixedGasLimit": false
    }
  ],
  "receipts": [
    {
      "status": "0x1",
      "cumulativeGasUsed": "0x5503b0",
      "logs": [
        {
          "address": "0x4a7d3d5691d88e8a4f56e36d364e0ffd8292e2ed",
          "topics": [
            "0x6d82ef4d8378a69219155fe6da9b3cf24089894cbc495fb3d1c3732e6504bf41"
          ],
          "data": "0x6f66ad14a457183f47f5cbc2d286d30fefe0ebc9cb9c4e6a798ccb0c9cbe45de000000000000000000000000699bceebd59a5b52bb586c737cd7ba636f3fe60200000000000000000000000000000000000000000000000000000000000001000000000000000000000000000000000000000000000000000000000000013882000000000000000000000000000000000000000000000000016345785d8a00000000000000000000000000000000000000000000000000a2a15d09519be000000000000000000000000000000000000000000000000000000de0b6b3a7640000000000000000000000000000000000000000000000000000000000006629df48000000000000000000000000000000000000000000000000000000000000002a30783962363133374538433034373734463034664264383464386637333032423763333834413130394100000000000000000000000000000000000000000000",
          "blockHash": "0x04bd94e191a555cf0caf516e4778b1547676501b5cb1a9a2cb80178550c84efa",
          "blockNumber": "0x581340",
          "transactionHash": "0x0f11ee7c4441ebfd2d3a5243d05d94522eb3bd0c5b7b613a19399b6fa41e5f12",
          "transactionIndex": "0x37",
          "logIndex": "0x59",
          "removed": false
        }
      ],
      "logsBloom": "0x00000000000000000000000000000000000000000000000000000000000000000000000000000000000000000000000000000000000000000000000000000000000000000000000000000000000000000000000000000000000000000000000000000000000000000000000000400000000000000000000000000000800000000000000000000000000000000000000000000100000000000000000000000000000000000000000000000000080000000000000000000000000000000000000000040000000000000000000000000000000000000000000000000000000000000000000000000000000000000000000000000000100000000000000000000000",
      "type": "0x2",
      "transactionHash": "0x0f11ee7c4441ebfd2d3a5243d05d94522eb3bd0c5b7b613a19399b6fa41e5f12",
      "transactionIndex": "0x37",
      "blockHash": "0x04bd94e191a555cf0caf516e4778b1547676501b5cb1a9a2cb80178550c84efa",
      "blockNumber": "0x581340",
      "gasUsed": "0x2352f",
      "effectiveGasPrice": "0x3b9aca0f",
      "from": "0x699bceebd59a5b52bb586c737cd7ba636f3fe602",
      "to": "0x4a7d3d5691d88e8a4f56e36d364e0ffd8292e2ed",
      "contractAddress": null
    }
  ],
  "libraries": [],
  "pending": [],
  "returns": {},
  "timestamp": 1714020174,
  "chain": 11155111,
  "commit": "ed52fb4"
}