{
  "transactions": [
    {
      "hash": "0x826208252a3c7ee23cb78ec147e67fdd16e969519552c72d9b93fbbaa70256de",
      "transactionType": "CALL",
      "contractName": null,
      "contractAddress": "0x23dd1aa37b5c81d64586c021330d61d3ad55aafb",
      "function": "postMessage((address,uint256,uint256)[])",
      "arguments": [
        "[(0x699BceEbD59a5b52bB586C737cD7ba636f3Fe602, 80002, 11100000000000000), (0x699BceEbD59a5b52bB586C737cD7ba636f3Fe602, 80002, 11200000000000000), (0x699BceEbD59a5b52bB586C737cD7ba636f3Fe602, 80002, 11300000000000000), (0x699BceEbD59a5b52bB586C737cD7ba636f3Fe602, 80002, 11400000000000000), (0x699BceEbD59a5b52bB586C737cD7ba636f3Fe602, 80002, 11500000000000000), (0x699BceEbD59a5b52bB586C737cD7ba636f3Fe602, 80002, 11600000000000000), (0x699BceEbD59a5b52bB586C737cD7ba636f3Fe602, 80002, 11700000000000000), (0x699BceEbD59a5b52bB586C737cD7ba636f3Fe602, 80002, 11800000000000000), (0x699BceEbD59a5b52bB586C737cD7ba636f3Fe602, 80002, 11900000000000000), (0x699BceEbD59a5b52bB586C737cD7ba636f3Fe602, 80002, 12000000000000000), (0x699BceEbD59a5b52bB586C737cD7ba636f3Fe602, 80002, 12100000000000000), (0x699BceEbD59a5b52bB586C737cD7ba636f3Fe602, 80002, 12200000000000000), (0x699BceEbD59a5b52bB586C737cD7ba636f3Fe602, 80002, 12300000000000000), (0x699BceEbD59a5b52bB586C737cD7ba636f3Fe602, 80002, 12400000000000000), (0x699BceEbD59a5b52bB586C737cD7ba636f3Fe602, 80002, 12500000000000000)]"
      ],
      "transaction": {
        "from": "0x699bceebd59a5b52bb586c737cd7ba636f3fe602",
        "to": "0x23dd1aa37b5c81d64586c021330d61d3ad55aafb",
        "gas": "0x3a77a",
        "value": "0x2c68af0bb140000",
        "input": "0x42cbee8d0000000000000000000000000000000000000000000000000000000000000020000000000000000000000000000000000000000000000000000000000000000f000000000000000000000000699bceebd59a5b52bb586c737cd7ba636f3fe602000000000000000000000000000000000000000000000000000000000001388200000000000000000000000000000000000000000000000000276f642501c000000000000000000000000000699bceebd59a5b52bb586c737cd7ba636f3fe60200000000000000000000000000000000000000000000000000000000000138820000000000000000000000000000000000000000000000000027ca57357c0000000000000000000000000000699bceebd59a5b52bb586c737cd7ba636f3fe60200000000000000000000000000000000000000000000000000000000000138820000000000000000000000000000000000000000000000000028254a45f64000000000000000000000000000699bceebd59a5b52bb586c737cd7ba636f3fe60200000000000000000000000000000000000000000000000000000000000138820000000000000000000000000000000000000000000000000028803d56708000000000000000000000000000699bceebd59a5b52bb586c737cd7ba636f3fe60200000000000000000000000000000000000000000000000000000000000138820000000000000000000000000000000000000000000000000028db3066eac000000000000000000000000000699bceebd59a5b52bb586c737cd7ba636f3fe60200000000000000000000000000000000000000000000000000000000000138820000000000000000000000000000000000000000000000000029362377650000000000000000000000000000699bceebd59a5b52bb586c737cd7ba636f3fe60200000000000000000000000000000000000000000000000000000000000138820000000000000000000000000000000000000000000000000029911687df4000000000000000000000000000699bceebd59a5b52bb586c737cd7ba636f3fe60200000000000000000000000000000000000000000000000000000000000138820000000000000000000000000000000000000000000000000029ec0998598000000000000000000000000000699bceebd59a5b52bb586c737cd7ba636f3fe6020000000000000000000000000000000000000000000000000000000000013882000000000000000000000000000000000000000000000000002a46fca8d3c000000000000000000000000000699bceebd59a5b52bb586c737cd7ba636f3fe6020000000000000000000000000000000000000000000000000000000000013882000000000000000000000000000000000000000000000000002aa1efb94e0000000000000000000000000000699bceebd59a5b52bb586c737cd7ba636f3fe6020000000000000000000000000000000000000000000000000000000000013882000000000000000000000000000000000000000000000000002afce2c9c84000000000000000000000000000699bceebd59a5b52bb586c737cd7ba636f3fe6020000000000000000000000000000000000000000000000000000000000013882000000000000000000000000000000000000000000000000002b57d5da428000000000000000000000000000699bceebd59a5b52bb586c737cd7ba636f3fe6020000000000000000000000000000000000000000000000000000000000013882000000000000000000000000000000000000000000000000002bb2c8eabcc000000000000000000000000000699bceebd59a5b52bb586c737cd7ba636f3fe6020000000000000000000000000000000000000000000000000000000000013882000000000000000000000000000000000000000000000000002c0dbbfb370000000000000000000000000000699bceebd59a5b52bb586c737cd7ba636f3fe6020000000000000000000000000000000000000000000000000000000000013882000000000000000000000000000000000000000000000000002c68af0bb14000",
        "nonce": "0x192",
        "chainId": "0xaa36a7",
        "accessList": null,
        "type": null
      },
      "additionalContracts": [],
      "isFixedGasLimit": false
    }
  ],
  "receipts": [
    {
      "status": "0x1",
      "cumulativeGasUsed": "0x82917d",
      "logs": [
        {
          "address": "0x23dd1aa37b5c81d64586c021330d61d3ad55aafb",
          "topics": [
            "0x9853b992610853aa2f058d95d0a4868ffcd37470b93a5e6634619467e0d4228c",
            "0xfdc94597e8b192785130dcb5809a7982a56b19b9d10add195a2dbae1b0c60bd2",
            "0x000000000000000000000000699bceebd59a5b52bb586c737cd7ba636f3fe602",
            "0x00000000000000000000000000000000000000000000000000276f642501c000"
          ],
          "data": "0x0000000000000000000000000000000000000000000000000000000066306b58000000000000000000000000699bceebd59a5b52bb586c737cd7ba636f3fe60200000000000000000000000000000000000000000000000000000000000138820000000000000000000000000000000000000000000000a2a15d09519be000000000000000000000000000000000000000000000000000000de0b6b3a7640000",
          "blockHash": "0x476c5210682e21d259e0b3c8ea7a748fab80db61c0c68e341e2172e81bbb4d77",
          "blockNumber": "0x589985",
          "transactionHash": "0x826208252a3c7ee23cb78ec147e67fdd16e969519552c72d9b93fbbaa70256de",
          "transactionIndex": "0x50",
          "logIndex": "0x63",
          "removed": false
        },
        {
          "address": "0x23dd1aa37b5c81d64586c021330d61d3ad55aafb",
          "topics": [
            "0x9853b992610853aa2f058d95d0a4868ffcd37470b93a5e6634619467e0d4228c",
            "0xcf0fd01454e28e09bbda2f1164af5e68996209bfb045cce8b8407b6e33a5e9d9",
            "0x000000000000000000000000699bceebd59a5b52bb586c737cd7ba636f3fe602",
            "0x0000000000000000000000000000000000000000000000000027ca57357c0000"
          ],
          "data": "0x0000000000000000000000000000000000000000000000000000000066306b58000000000000000000000000699bceebd59a5b52bb586c737cd7ba636f3fe60200000000000000000000000000000000000000000000000000000000000138820000000000000000000000000000000000000000000000a2a15d09519be000000000000000000000000000000000000000000000000000000de0b6b3a7640000",
          "blockHash": "0x476c5210682e21d259e0b3c8ea7a748fab80db61c0c68e341e2172e81bbb4d77",
          "blockNumber": "0x589985",
          "transactionHash": "0x826208252a3c7ee23cb78ec147e67fdd16e969519552c72d9b93fbbaa70256de",
          "transactionIndex": "0x50",
          "logIndex": "0x64",
          "removed": false
        },
        {
          "address": "0x23dd1aa37b5c81d64586c021330d61d3ad55aafb",
          "topics": [
            "0x9853b992610853aa2f058d95d0a4868ffcd37470b93a5e6634619467e0d4228c",
            "0xfcb110488c2a44ad8053941a5c105d42cbb7baf4ff5ac73d5b6847b59cb8fe0f",
            "0x000000000000000000000000699bceebd59a5b52bb586c737cd7ba636f3fe602",
            "0x0000000000000000000000000000000000000000000000000028254a45f64000"
          ],
          "data": "0x0000000000000000000000000000000000000000000000000000000066306b58000000000000000000000000699bceebd59a5b52bb586c737cd7ba636f3fe60200000000000000000000000000000000000000000000000000000000000138820000000000000000000000000000000000000000000000a2a15d09519be000000000000000000000000000000000000000000000000000000de0b6b3a7640000",
          "blockHash": "0x476c5210682e21d259e0b3c8ea7a748fab80db61c0c68e341e2172e81bbb4d77",
          "blockNumber": "0x589985",
          "transactionHash": "0x826208252a3c7ee23cb78ec147e67fdd16e969519552c72d9b93fbbaa70256de",
          "transactionIndex": "0x50",
          "logIndex": "0x65",
          "removed": false
        },
        {
          "address": "0x23dd1aa37b5c81d64586c021330d61d3ad55aafb",
          "topics": [
            "0x9853b992610853aa2f058d95d0a4868ffcd37470b93a5e6634619467e0d4228c",
            "0xe6d77590d06cfd567f588ddee49278180750d28651de5f1f15518e4f097dc1f6",
            "0x000000000000000000000000699bceebd59a5b52bb586c737cd7ba636f3fe602",
            "0x0000000000000000000000000000000000000000000000000028803d56708000"
          ],
          "data": "0x0000000000000000000000000000000000000000000000000000000066306b58000000000000000000000000699bceebd59a5b52bb586c737cd7ba636f3fe60200000000000000000000000000000000000000000000000000000000000138820000000000000000000000000000000000000000000000a2a15d09519be000000000000000000000000000000000000000000000000000000de0b6b3a7640000",
          "blockHash": "0x476c5210682e21d259e0b3c8ea7a748fab80db61c0c68e341e2172e81bbb4d77",
          "blockNumber": "0x589985",
          "transactionHash": "0x826208252a3c7ee23cb78ec147e67fdd16e969519552c72d9b93fbbaa70256de",
          "transactionIndex": "0x50",
          "logIndex": "0x66",
          "removed": false
        },
        {
          "address": "0x23dd1aa37b5c81d64586c021330d61d3ad55aafb",
          "topics": [
            "0x9853b992610853aa2f058d95d0a4868ffcd37470b93a5e6634619467e0d4228c",
            "0xc2dabc528d787103f280dd53444ce903d81c703ef63a5066c82509c1d4d6c183",
            "0x000000000000000000000000699bceebd59a5b52bb586c737cd7ba636f3fe602",
            "0x0000000000000000000000000000000000000000000000000028db3066eac000"
          ],
          "data": "0x0000000000000000000000000000000000000000000000000000000066306b58000000000000000000000000699bceebd59a5b52bb586c737cd7ba636f3fe60200000000000000000000000000000000000000000000000000000000000138820000000000000000000000000000000000000000000000a2a15d09519be000000000000000000000000000000000000000000000000000000de0b6b3a7640000",
          "blockHash": "0x476c5210682e21d259e0b3c8ea7a748fab80db61c0c68e341e2172e81bbb4d77",
          "blockNumber": "0x589985",
          "transactionHash": "0x826208252a3c7ee23cb78ec147e67fdd16e969519552c72d9b93fbbaa70256de",
          "transactionIndex": "0x50",
          "logIndex": "0x67",
          "removed": false
        },
        {
          "address": "0x23dd1aa37b5c81d64586c021330d61d3ad55aafb",
          "topics": [
            "0x9853b992610853aa2f058d95d0a4868ffcd37470b93a5e6634619467e0d4228c",
            "0xdb14ba11409789c145f3c85819c9c44248fc2516e71cc7d848036f8168cf28b9",
            "0x000000000000000000000000699bceebd59a5b52bb586c737cd7ba636f3fe602",
            "0x0000000000000000000000000000000000000000000000000029362377650000"
          ],
          "data": "0x0000000000000000000000000000000000000000000000000000000066306b58000000000000000000000000699bceebd59a5b52bb586c737cd7ba636f3fe60200000000000000000000000000000000000000000000000000000000000138820000000000000000000000000000000000000000000000a2a15d09519be000000000000000000000000000000000000000000000000000000de0b6b3a7640000",
          "blockHash": "0x476c5210682e21d259e0b3c8ea7a748fab80db61c0c68e341e2172e81bbb4d77",
          "blockNumber": "0x589985",
          "transactionHash": "0x826208252a3c7ee23cb78ec147e67fdd16e969519552c72d9b93fbbaa70256de",
          "transactionIndex": "0x50",
          "logIndex": "0x68",
          "removed": false
        },
        {
          "address": "0x23dd1aa37b5c81d64586c021330d61d3ad55aafb",
          "topics": [
            "0x9853b992610853aa2f058d95d0a4868ffcd37470b93a5e6634619467e0d4228c",
            "0x9f10862f07595554aa1289dd0068db78b52714239e95e32eadcf49018e827626",
            "0x000000000000000000000000699bceebd59a5b52bb586c737cd7ba636f3fe602",
            "0x0000000000000000000000000000000000000000000000000029911687df4000"
          ],
          "data": "0x0000000000000000000000000000000000000000000000000000000066306b58000000000000000000000000699bceebd59a5b52bb586c737cd7ba636f3fe60200000000000000000000000000000000000000000000000000000000000138820000000000000000000000000000000000000000000000a2a15d09519be000000000000000000000000000000000000000000000000000000de0b6b3a7640000",
          "blockHash": "0x476c5210682e21d259e0b3c8ea7a748fab80db61c0c68e341e2172e81bbb4d77",
          "blockNumber": "0x589985",
          "transactionHash": "0x826208252a3c7ee23cb78ec147e67fdd16e969519552c72d9b93fbbaa70256de",
          "transactionIndex": "0x50",
          "logIndex": "0x69",
          "removed": false
        },
        {
          "address": "0x23dd1aa37b5c81d64586c021330d61d3ad55aafb",
          "topics": [
            "0x9853b992610853aa2f058d95d0a4868ffcd37470b93a5e6634619467e0d4228c",
            "0xabf2d1265b0280b21ce550a4af6cb79b97ca8d832511aecfdbfdffd78dd86acf",
            "0x000000000000000000000000699bceebd59a5b52bb586c737cd7ba636f3fe602",
            "0x0000000000000000000000000000000000000000000000000029ec0998598000"
          ],
          "data": "0x0000000000000000000000000000000000000000000000000000000066306b58000000000000000000000000699bceebd59a5b52bb586c737cd7ba636f3fe60200000000000000000000000000000000000000000000000000000000000138820000000000000000000000000000000000000000000000a2a15d09519be000000000000000000000000000000000000000000000000000000de0b6b3a7640000",
          "blockHash": "0x476c5210682e21d259e0b3c8ea7a748fab80db61c0c68e341e2172e81bbb4d77",
          "blockNumber": "0x589985",
          "transactionHash": "0x826208252a3c7ee23cb78ec147e67fdd16e969519552c72d9b93fbbaa70256de",
          "transactionIndex": "0x50",
          "logIndex": "0x6a",
          "removed": false
        },
        {
          "address": "0x23dd1aa37b5c81d64586c021330d61d3ad55aafb",
          "topics": [
            "0x9853b992610853aa2f058d95d0a4868ffcd37470b93a5e6634619467e0d4228c",
            "0x1c1269eaf02ae3cfc7285004f790ab7a54b7a5f1bf415e4b70164c5ae492c4b7",
            "0x000000000000000000000000699bceebd59a5b52bb586c737cd7ba636f3fe602",
            "0x000000000000000000000000000000000000000000000000002a46fca8d3c000"
          ],
          "data": "0x0000000000000000000000000000000000000000000000000000000066306b58000000000000000000000000699bceebd59a5b52bb586c737cd7ba636f3fe60200000000000000000000000000000000000000000000000000000000000138820000000000000000000000000000000000000000000000a2a15d09519be000000000000000000000000000000000000000000000000000000de0b6b3a7640000",
          "blockHash": "0x476c5210682e21d259e0b3c8ea7a748fab80db61c0c68e341e2172e81bbb4d77",
          "blockNumber": "0x589985",
          "transactionHash": "0x826208252a3c7ee23cb78ec147e67fdd16e969519552c72d9b93fbbaa70256de",
          "transactionIndex": "0x50",
          "logIndex": "0x6b",
          "removed": false
        },
        {
          "address": "0x23dd1aa37b5c81d64586c021330d61d3ad55aafb",
          "topics": [
            "0x9853b992610853aa2f058d95d0a4868ffcd37470b93a5e6634619467e0d4228c",
            "0xcb4590dd03a2557facc4b16d6024f85218da6741679352d4ba066ba6f3efa79a",
            "0x000000000000000000000000699bceebd59a5b52bb586c737cd7ba636f3fe602",
            "0x000000000000000000000000000000000000000000000000002aa1efb94e0000"
          ],
          "data": "0x0000000000000000000000000000000000000000000000000000000066306b58000000000000000000000000699bceebd59a5b52bb586c737cd7ba636f3fe60200000000000000000000000000000000000000000000000000000000000138820000000000000000000000000000000000000000000000a2a15d09519be000000000000000000000000000000000000000000000000000000de0b6b3a7640000",
          "blockHash": "0x476c5210682e21d259e0b3c8ea7a748fab80db61c0c68e341e2172e81bbb4d77",
          "blockNumber": "0x589985",
          "transactionHash": "0x826208252a3c7ee23cb78ec147e67fdd16e969519552c72d9b93fbbaa70256de",
          "transactionIndex": "0x50",
          "logIndex": "0x6c",
          "removed": false
        },
        {
          "address": "0x23dd1aa37b5c81d64586c021330d61d3ad55aafb",
          "topics": [
            "0x9853b992610853aa2f058d95d0a4868ffcd37470b93a5e6634619467e0d4228c",
            "0xba7f2b45ecfa316cd8bba99a03e94bdda5a9ffd282ae94cf9e79f61a79525f76",
            "0x000000000000000000000000699bceebd59a5b52bb586c737cd7ba636f3fe602",
            "0x000000000000000000000000000000000000000000000000002afce2c9c84000"
          ],
          "data": "0x0000000000000000000000000000000000000000000000000000000066306b58000000000000000000000000699bceebd59a5b52bb586c737cd7ba636f3fe60200000000000000000000000000000000000000000000000000000000000138820000000000000000000000000000000000000000000000a2a15d09519be000000000000000000000000000000000000000000000000000000de0b6b3a7640000",
          "blockHash": "0x476c5210682e21d259e0b3c8ea7a748fab80db61c0c68e341e2172e81bbb4d77",
          "blockNumber": "0x589985",
          "transactionHash": "0x826208252a3c7ee23cb78ec147e67fdd16e969519552c72d9b93fbbaa70256de",
          "transactionIndex": "0x50",
          "logIndex": "0x6d",
          "removed": false
        },
        {
          "address": "0x23dd1aa37b5c81d64586c021330d61d3ad55aafb",
          "topics": [
            "0x9853b992610853aa2f058d95d0a4868ffcd37470b93a5e6634619467e0d4228c",
            "0x884e4ef6301585527ceddbf4c5732bf49c7ab6bff9856929a20786705175181d",
            "0x000000000000000000000000699bceebd59a5b52bb586c737cd7ba636f3fe602",
            "0x000000000000000000000000000000000000000000000000002b57d5da428000"
          ],
          "data": "0x0000000000000000000000000000000000000000000000000000000066306b58000000000000000000000000699bceebd59a5b52bb586c737cd7ba636f3fe60200000000000000000000000000000000000000000000000000000000000138820000000000000000000000000000000000000000000000a2a15d09519be000000000000000000000000000000000000000000000000000000de0b6b3a7640000",
          "blockHash": "0x476c5210682e21d259e0b3c8ea7a748fab80db61c0c68e341e2172e81bbb4d77",
          "blockNumber": "0x589985",
          "transactionHash": "0x826208252a3c7ee23cb78ec147e67fdd16e969519552c72d9b93fbbaa70256de",
          "transactionIndex": "0x50",
          "logIndex": "0x6e",
          "removed": false
        },
        {
          "address": "0x23dd1aa37b5c81d64586c021330d61d3ad55aafb",
          "topics": [
            "0x9853b992610853aa2f058d95d0a4868ffcd37470b93a5e6634619467e0d4228c",
            "0x0143b965cc20e39a12e2efaec14dc6e46c3bbc651301098b77c01891fbfbe436",
            "0x000000000000000000000000699bceebd59a5b52bb586c737cd7ba636f3fe602",
            "0x000000000000000000000000000000000000000000000000002bb2c8eabcc000"
          ],
          "data": "0x0000000000000000000000000000000000000000000000000000000066306b58000000000000000000000000699bceebd59a5b52bb586c737cd7ba636f3fe60200000000000000000000000000000000000000000000000000000000000138820000000000000000000000000000000000000000000000a2a15d09519be000000000000000000000000000000000000000000000000000000de0b6b3a7640000",
          "blockHash": "0x476c5210682e21d259e0b3c8ea7a748fab80db61c0c68e341e2172e81bbb4d77",
          "blockNumber": "0x589985",
          "transactionHash": "0x826208252a3c7ee23cb78ec147e67fdd16e969519552c72d9b93fbbaa70256de",
          "transactionIndex": "0x50",
          "logIndex": "0x6f",
          "removed": false
        },
        {
          "address": "0x23dd1aa37b5c81d64586c021330d61d3ad55aafb",
          "topics": [
            "0x9853b992610853aa2f058d95d0a4868ffcd37470b93a5e6634619467e0d4228c",
            "0xd7ec77b5761a456f9b6c1f79455b2ddf5b117e76b9bc4f290ef3b2fbdbd20ee9",
            "0x000000000000000000000000699bceebd59a5b52bb586c737cd7ba636f3fe602",
            "0x000000000000000000000000000000000000000000000000002c0dbbfb370000"
          ],
          "data": "0x0000000000000000000000000000000000000000000000000000000066306b58000000000000000000000000699bceebd59a5b52bb586c737cd7ba636f3fe60200000000000000000000000000000000000000000000000000000000000138820000000000000000000000000000000000000000000000a2a15d09519be000000000000000000000000000000000000000000000000000000de0b6b3a7640000",
          "blockHash": "0x476c5210682e21d259e0b3c8ea7a748fab80db61c0c68e341e2172e81bbb4d77",
          "blockNumber": "0x589985",
          "transactionHash": "0x826208252a3c7ee23cb78ec147e67fdd16e969519552c72d9b93fbbaa70256de",
          "transactionIndex": "0x50",
          "logIndex": "0x70",
          "removed": false
        },
        {
          "address": "0x23dd1aa37b5c81d64586c021330d61d3ad55aafb",
          "topics": [
            "0x9853b992610853aa2f058d95d0a4868ffcd37470b93a5e6634619467e0d4228c",
            "0x923073a69b39b21349d7bc0bbe8a6b9aa411b84397ca20c4f77dc0d4f8891928",
            "0x000000000000000000000000699bceebd59a5b52bb586c737cd7ba636f3fe602",
            "0x000000000000000000000000000000000000000000000000002c68af0bb14000"
          ],
          "data": "0x0000000000000000000000000000000000000000000000000000000066306b58000000000000000000000000699bceebd59a5b52bb586c737cd7ba636f3fe60200000000000000000000000000000000000000000000000000000000000138820000000000000000000000000000000000000000000000a2a15d09519be000000000000000000000000000000000000000000000000000000de0b6b3a7640000",
          "blockHash": "0x476c5210682e21d259e0b3c8ea7a748fab80db61c0c68e341e2172e81bbb4d77",
          "blockNumber": "0x589985",
          "transactionHash": "0x826208252a3c7ee23cb78ec147e67fdd16e969519552c72d9b93fbbaa70256de",
          "transactionIndex": "0x50",
          "logIndex": "0x71",
          "removed": false
        }
      ],
      "logsBloom": "0x00000000020000410000001000000000200000000000000000440000000000000022400010000010000040a00200001000000000000000000000010000000000030180000008000000000000800800000008001000000004000100000040000000800002008100080001000400400402000000008000000000000240000004004001000000a00000000000000250020001000000000000400100410000081000000000140100000054019008000000040100000005008000400400040000000000000000000000000008004100008000000000000120100000000000000000000000010600000000005001000804000000300104200000000010000000000000",
      "type": "0x2",
      "transactionHash": "0x826208252a3c7ee23cb78ec147e67fdd16e969519552c72d9b93fbbaa70256de",
      "transactionIndex": "0x50",
      "blockHash": "0x476c5210682e21d259e0b3c8ea7a748fab80db61c0c68e341e2172e81bbb4d77",
      "blockNumber": "0x589985",
      "gasUsed": "0x2a545",
      "effectiveGasPrice": "0xf09ac511",
      "from": "0x699bceebd59a5b52bb586c737cd7ba636f3fe602",
      "to": "0x23dd1aa37b5c81d64586c021330d61d3ad55aafb",
      "contractAddress": null
    }
  ],
  "libraries": [],
  "pending": [],
  "returns": {},
  "timestamp": 1714449244,
  "chain": 11155111,
  "commit": "9546700"
}