{
  "transactions": [
    {
      "hash": "0xf45285cbe3b717dc9dde1b56035f583a86c4028665053e3d7b25fa855886aea9",
      "transactionType": "CALL",
      "contractName": null,
      "contractAddress": "0x23dd1aa37b5c81d64586c021330d61d3ad55aafb",
      "function": "postMessage((address,uint256,uint256)[])",
      "arguments": [
        "[(0x699BceEbD59a5b52bB586C737cD7ba636f3Fe602, 80002, 11100000000000000), (0x699BceEbD59a5b52bB586C737cD7ba636f3Fe602, 80002, 11200000000000000), (0x699BceEbD59a5b52bB586C737cD7ba636f3Fe602, 80002, 11300000000000000), (0x699BceEbD59a5b52bB586C737cD7ba636f3Fe602, 80002, 11400000000000000), (0x699BceEbD59a5b52bB586C737cD7ba636f3Fe602, 80002, 11500000000000000)]"
      ],
      "transaction": {
        "from": "0x699bceebd59a5b52bb586c737cd7ba636f3fe602",
        "to": "0x23dd1aa37b5c81d64586c021330d61d3ad55aafb",
        "gas": "0x274b6",
        "value": "0xd529ae9e860000",
        "input": "0x42cbee8d00000000000000000000000000000000000000000000000000000000000000200000000000000000000000000000000000000000000000000000000000000005000000000000000000000000699bceebd59a5b52bb586c737cd7ba636f3fe602000000000000000000000000000000000000000000000000000000000001388200000000000000000000000000000000000000000000000000276f642501c000000000000000000000000000699bceebd59a5b52bb586c737cd7ba636f3fe60200000000000000000000000000000000000000000000000000000000000138820000000000000000000000000000000000000000000000000027ca57357c0000000000000000000000000000699bceebd59a5b52bb586c737cd7ba636f3fe60200000000000000000000000000000000000000000000000000000000000138820000000000000000000000000000000000000000000000000028254a45f64000000000000000000000000000699bceebd59a5b52bb586c737cd7ba636f3fe60200000000000000000000000000000000000000000000000000000000000138820000000000000000000000000000000000000000000000000028803d56708000000000000000000000000000699bceebd59a5b52bb586c737cd7ba636f3fe60200000000000000000000000000000000000000000000000000000000000138820000000000000000000000000000000000000000000000000028db3066eac000",
        "nonce": "0x159",
        "chainId": "0xaa36a7",
        "accessList": null,
        "type": null
      },
      "additionalContracts": [],
      "isFixedGasLimit": false
    }
  ],
  "receipts": [
    {
      "status": "0x1",
      "cumulativeGasUsed": "0xbc3986",
      "logs": [
        {
          "address": "0x23dd1aa37b5c81d64586c021330d61d3ad55aafb",
          "topics": [
            "0x9853b992610853aa2f058d95d0a4868ffcd37470b93a5e6634619467e0d4228c",
            "0xad0565550899e32d1d8ae6f75334c85f6a80812d0e9bfa7f7ce709006b83977f",
            "0x000000000000000000000000699bceebd59a5b52bb586c737cd7ba636f3fe602",
            "0x00000000000000000000000000000000000000000000000000276f642501c000"
          ],
          "data": "0x00000000000000000000000000000000000000000000000000000000662e5aa4000000000000000000000000699bceebd59a5b52bb586c737cd7ba636f3fe60200000000000000000000000000000000000000000000000000000000000138820000000000000000000000000000000000000000000000a2a15d09519be000000000000000000000000000000000000000000000000000000de0b6b3a7640000",
          "blockHash": "0x1c17f3a44277c9223faff89287719bfb087990afbffd3b3b0d2d7008349fcf74",
          "blockNumber": "0x587101",
          "transactionHash": "0xf45285cbe3b717dc9dde1b56035f583a86c4028665053e3d7b25fa855886aea9",
          "transactionIndex": "0x5d",
          "logIndex": "0x110",
          "removed": false
        },
        {
          "address": "0x23dd1aa37b5c81d64586c021330d61d3ad55aafb",
          "topics": [
            "0x9853b992610853aa2f058d95d0a4868ffcd37470b93a5e6634619467e0d4228c",
            "0x75e841531071856a076946d48b66fc998e296fb45bfc68d34ce3203a40746103",
            "0x000000000000000000000000699bceebd59a5b52bb586c737cd7ba636f3fe602",
            "0x0000000000000000000000000000000000000000000000000027ca57357c0000"
          ],
          "data": "0x00000000000000000000000000000000000000000000000000000000662e5aa4000000000000000000000000699bceebd59a5b52bb586c737cd7ba636f3fe60200000000000000000000000000000000000000000000000000000000000138820000000000000000000000000000000000000000000000a2a15d09519be000000000000000000000000000000000000000000000000000000de0b6b3a7640000",
          "blockHash": "0x1c17f3a44277c9223faff89287719bfb087990afbffd3b3b0d2d7008349fcf74",
          "blockNumber": "0x587101",
          "transactionHash": "0xf45285cbe3b717dc9dde1b56035f583a86c4028665053e3d7b25fa855886aea9",
          "transactionIndex": "0x5d",
          "logIndex": "0x111",
          "removed": false
        },
        {
          "address": "0x23dd1aa37b5c81d64586c021330d61d3ad55aafb",
          "topics": [
            "0x9853b992610853aa2f058d95d0a4868ffcd37470b93a5e6634619467e0d4228c",
            "0xec256d3c56bc671dedfdd438348a6d799738f5232cb2799fcd2f7fb5f6952c72",
            "0x000000000000000000000000699bceebd59a5b52bb586c737cd7ba636f3fe602",
            "0x0000000000000000000000000000000000000000000000000028254a45f64000"
          ],
          "data": "0x00000000000000000000000000000000000000000000000000000000662e5aa4000000000000000000000000699bceebd59a5b52bb586c737cd7ba636f3fe60200000000000000000000000000000000000000000000000000000000000138820000000000000000000000000000000000000000000000a2a15d09519be000000000000000000000000000000000000000000000000000000de0b6b3a7640000",
          "blockHash": "0x1c17f3a44277c9223faff89287719bfb087990afbffd3b3b0d2d7008349fcf74",
          "blockNumber": "0x587101",
          "transactionHash": "0xf45285cbe3b717dc9dde1b56035f583a86c4028665053e3d7b25fa855886aea9",
          "transactionIndex": "0x5d",
          "logIndex": "0x112",
          "removed": false
        },
        {
          "address": "0x23dd1aa37b5c81d64586c021330d61d3ad55aafb",
          "topics": [
            "0x9853b992610853aa2f058d95d0a4868ffcd37470b93a5e6634619467e0d4228c",
            "0x1e81821b0f9e62d6661b903f64511b2b294658eb8e59d3bf621e6bc808d9868e",
            "0x000000000000000000000000699bceebd59a5b52bb586c737cd7ba636f3fe602",
            "0x0000000000000000000000000000000000000000000000000028803d56708000"
          ],
          "data": "0x00000000000000000000000000000000000000000000000000000000662e5aa4000000000000000000000000699bceebd59a5b52bb586c737cd7ba636f3fe60200000000000000000000000000000000000000000000000000000000000138820000000000000000000000000000000000000000000000a2a15d09519be000000000000000000000000000000000000000000000000000000de0b6b3a7640000",
          "blockHash": "0x1c17f3a44277c9223faff89287719bfb087990afbffd3b3b0d2d7008349fcf74",
          "blockNumber": "0x587101",
          "transactionHash": "0xf45285cbe3b717dc9dde1b56035f583a86c4028665053e3d7b25fa855886aea9",
          "transactionIndex": "0x5d",
          "logIndex": "0x113",
          "removed": false
        },
        {
          "address": "0x23dd1aa37b5c81d64586c021330d61d3ad55aafb",
          "topics": [
            "0x9853b992610853aa2f058d95d0a4868ffcd37470b93a5e6634619467e0d4228c",
            "0x488eb4cf2e3a4017d5c8046e2780f1912577f242c79444ca9149ab60605d7699",
            "0x000000000000000000000000699bceebd59a5b52bb586c737cd7ba636f3fe602",
            "0x0000000000000000000000000000000000000000000000000028db3066eac000"
          ],
          "data": "0x00000000000000000000000000000000000000000000000000000000662e5aa4000000000000000000000000699bceebd59a5b52bb586c737cd7ba636f3fe60200000000000000000000000000000000000000000000000000000000000138820000000000000000000000000000000000000000000000a2a15d09519be000000000000000000000000000000000000000000000000000000de0b6b3a7640000",
          "blockHash": "0x1c17f3a44277c9223faff89287719bfb087990afbffd3b3b0d2d7008349fcf74",
          "blockNumber": "0x587101",
          "transactionHash": "0xf45285cbe3b717dc9dde1b56035f583a86c4028665053e3d7b25fa855886aea9",
          "transactionIndex": "0x5d",
          "logIndex": "0x114",
          "removed": false
        }
      ],
      "logsBloom": "0x000000000000000000000000000000002000000080000000004000000000000000004000000000100000008080000010000200000000000000000000000000000100000000000000000400000000000400000000000000000000000000010000008000c0000000000000000c00000000000000008000000000000000000000000000000000000000008000000210020000000000000000000000000000000000000000000000000004000000000000000000020000000000000000040000000000000000000000000000004000008000000000000001000000000000000000040000010200100010005001000000000000000100200000000000000000000000",
      "type": "0x2",
      "transactionHash": "0xf45285cbe3b717dc9dde1b56035f583a86c4028665053e3d7b25fa855886aea9",
      "transactionIndex": "0x5d",
      "blockHash": "0x1c17f3a44277c9223faff89287719bfb087990afbffd3b3b0d2d7008349fcf74",
      "blockNumber": "0x587101",
      "gasUsed": "0x1c72e",
      "effectiveGasPrice": "0x866a5694",
      "from": "0x699bceebd59a5b52bb586c737cd7ba636f3fe602",
      "to": "0x23dd1aa37b5c81d64586c021330d61d3ad55aafb",
      "contractAddress": null
    }
  ],
  "libraries": [],
  "pending": [],
  "returns": {},
  "timestamp": 1714313898,
  "chain": 11155111,
  "commit": "9546700"
}