{
  "transactions": [
    {
      "hash": "0x3e0d1833da66f3979214877cb62b687566e6177bdbd200b9e633d6fc396eb8ea",
      "transactionType": "CALL",
      "contractName": null,
      "contractAddress": "0x23dd1aa37b5c81d64586c021330d61d3ad55aafb",
      "function": "postMessage((address,uint256,uint256)[])",
      "arguments": [
        "[(0x699BceEbD59a5b52bB586C737cD7ba636f3Fe602, 80002, 11100000000000000), (0x699BceEbD59a5b52bB586C737cD7ba636f3Fe602, 80002, 11200000000000000), (0x699BceEbD59a5b52bB586C737cD7ba636f3Fe602, 80002, 11300000000000000), (0x699BceEbD59a5b52bB586C737cD7ba636f3Fe602, 80002, 11400000000000000), (0x699BceEbD59a5b52bB586C737cD7ba636f3Fe602, 80002, 11500000000000000)]"
      ],
      "transaction": {
        "from": "0x699bceebd59a5b52bb586c737cd7ba636f3fe602",
        "to": "0x23dd1aa37b5c81d64586c021330d61d3ad55aafb",
        "gas": "0x2933c",
        "value": "0xd529ae9e860000",
        "input": "0x42cbee8d00000000000000000000000000000000000000000000000000000000000000200000000000000000000000000000000000000000000000000000000000000005000000000000000000000000699bceebd59a5b52bb586c737cd7ba636f3fe602000000000000000000000000000000000000000000000000000000000001388200000000000000000000000000000000000000000000000000276f642501c000000000000000000000000000699bceebd59a5b52bb586c737cd7ba636f3fe60200000000000000000000000000000000000000000000000000000000000138820000000000000000000000000000000000000000000000000027ca57357c0000000000000000000000000000699bceebd59a5b52bb586c737cd7ba636f3fe60200000000000000000000000000000000000000000000000000000000000138820000000000000000000000000000000000000000000000000028254a45f64000000000000000000000000000699bceebd59a5b52bb586c737cd7ba636f3fe60200000000000000000000000000000000000000000000000000000000000138820000000000000000000000000000000000000000000000000028803d56708000000000000000000000000000699bceebd59a5b52bb586c737cd7ba636f3fe60200000000000000000000000000000000000000000000000000000000000138820000000000000000000000000000000000000000000000000028db3066eac000",
        "nonce": "0x173",
        "chainId": "0xaa36a7",
        "accessList": null,
        "type": null
      },
      "additionalContracts": [],
      "isFixedGasLimit": false
    }
  ],
  "receipts": [
    {
      "status": "0x1",
      "cumulativeGasUsed": "0x8764b4",
      "logs": [
        {
          "address": "0x23dd1aa37b5c81d64586c021330d61d3ad55aafb",
          "topics": [
            "0x9853b992610853aa2f058d95d0a4868ffcd37470b93a5e6634619467e0d4228c",
            "0xa0397938813f510c5d3a9ea37eb2429b0117c0347faa957130b9a2e28d055c31",
            "0x000000000000000000000000699bceebd59a5b52bb586c737cd7ba636f3fe602",
            "0x00000000000000000000000000000000000000000000000000276f642501c000"
          ],
          "data": "0x00000000000000000000000000000000000000000000000000000000662fe6d4000000000000000000000000699bceebd59a5b52bb586c737cd7ba636f3fe60200000000000000000000000000000000000000000000000000000000000138820000000000000000000000000000000000000000000000a2a15d09519be000000000000000000000000000000000000000000000000000000de0b6b3a7640000",
          "blockHash": "0x035b386bc2accae1c0160899d139043102d77df5767d747dff9385a571dab662",
          "blockNumber": "0x588fe4",
          "transactionHash": "0x3e0d1833da66f3979214877cb62b687566e6177bdbd200b9e633d6fc396eb8ea",
          "transactionIndex": "0x32",
          "logIndex": "0x66",
          "removed": false
        },
        {
          "address": "0x23dd1aa37b5c81d64586c021330d61d3ad55aafb",
          "topics": [
            "0x9853b992610853aa2f058d95d0a4868ffcd37470b93a5e6634619467e0d4228c",
            "0xf92e546387e9837d18fab589ef00b8a58ef7a82e77a91c59c125f35dbb2dfbf9",
            "0x000000000000000000000000699bceebd59a5b52bb586c737cd7ba636f3fe602",
            "0x0000000000000000000000000000000000000000000000000027ca57357c0000"
          ],
          "data": "0x00000000000000000000000000000000000000000000000000000000662fe6d4000000000000000000000000699bceebd59a5b52bb586c737cd7ba636f3fe60200000000000000000000000000000000000000000000000000000000000138820000000000000000000000000000000000000000000000a2a15d09519be000000000000000000000000000000000000000000000000000000de0b6b3a7640000",
          "blockHash": "0x035b386bc2accae1c0160899d139043102d77df5767d747dff9385a571dab662",
          "blockNumber": "0x588fe4",
          "transactionHash": "0x3e0d1833da66f3979214877cb62b687566e6177bdbd200b9e633d6fc396eb8ea",
          "transactionIndex": "0x32",
          "logIndex": "0x67",
          "removed": false
        },
        {
          "address": "0x23dd1aa37b5c81d64586c021330d61d3ad55aafb",
          "topics": [
            "0x9853b992610853aa2f058d95d0a4868ffcd37470b93a5e6634619467e0d4228c",
            "0xb3a8d899dc5aa97279221899f9ea1b55e2d52608ed17fe7997578335d4ec6883",
            "0x000000000000000000000000699bceebd59a5b52bb586c737cd7ba636f3fe602",
            "0x0000000000000000000000000000000000000000000000000028254a45f64000"
          ],
          "data": "0x00000000000000000000000000000000000000000000000000000000662fe6d4000000000000000000000000699bceebd59a5b52bb586c737cd7ba636f3fe60200000000000000000000000000000000000000000000000000000000000138820000000000000000000000000000000000000000000000a2a15d09519be000000000000000000000000000000000000000000000000000000de0b6b3a7640000",
          "blockHash": "0x035b386bc2accae1c0160899d139043102d77df5767d747dff9385a571dab662",
          "blockNumber": "0x588fe4",
          "transactionHash": "0x3e0d1833da66f3979214877cb62b687566e6177bdbd200b9e633d6fc396eb8ea",
          "transactionIndex": "0x32",
          "logIndex": "0x68",
          "removed": false
        },
        {
          "address": "0x23dd1aa37b5c81d64586c021330d61d3ad55aafb",
          "topics": [
            "0x9853b992610853aa2f058d95d0a4868ffcd37470b93a5e6634619467e0d4228c",
            "0xce289e0ac99d8a21e9066a0cd229457f6fc242f1377289645c5db349fb557681",
            "0x000000000000000000000000699bceebd59a5b52bb586c737cd7ba636f3fe602",
            "0x0000000000000000000000000000000000000000000000000028803d56708000"
          ],
          "data": "0x00000000000000000000000000000000000000000000000000000000662fe6d4000000000000000000000000699bceebd59a5b52bb586c737cd7ba636f3fe60200000000000000000000000000000000000000000000000000000000000138820000000000000000000000000000000000000000000000a2a15d09519be000000000000000000000000000000000000000000000000000000de0b6b3a7640000",
          "blockHash": "0x035b386bc2accae1c0160899d139043102d77df5767d747dff9385a571dab662",
          "blockNumber": "0x588fe4",
          "transactionHash": "0x3e0d1833da66f3979214877cb62b687566e6177bdbd200b9e633d6fc396eb8ea",
          "transactionIndex": "0x32",
          "logIndex": "0x69",
          "removed": false
        },
        {
          "address": "0x23dd1aa37b5c81d64586c021330d61d3ad55aafb",
          "topics": [
            "0x9853b992610853aa2f058d95d0a4868ffcd37470b93a5e6634619467e0d4228c",
            "0x02feca3cb0e5dc5630abd65f71bcb6bc2c954051bf0000980de219712273cb64",
            "0x000000000000000000000000699bceebd59a5b52bb586c737cd7ba636f3fe602",
            "0x0000000000000000000000000000000000000000000000000028db3066eac000"
          ],
          "data": "0x00000000000000000000000000000000000000000000000000000000662fe6d4000000000000000000000000699bceebd59a5b52bb586c737cd7ba636f3fe60200000000000000000000000000000000000000000000000000000000000138820000000000000000000000000000000000000000000000a2a15d09519be000000000000000000000000000000000000000000000000000000de0b6b3a7640000",
          "blockHash": "0x035b386bc2accae1c0160899d139043102d77df5767d747dff9385a571dab662",
          "blockNumber": "0x588fe4",
          "transactionHash": "0x3e0d1833da66f3979214877cb62b687566e6177bdbd200b9e633d6fc396eb8ea",
          "transactionIndex": "0x32",
          "logIndex": "0x6a",
          "removed": false
        }
      ],
      "logsBloom": "0x00000000000000000000000000000040200000000000000000400000002000000000400000000010000000800810001000000000000200000000000000000000010100000000200800000000000000000000000000000000000000000000000000800000000000000000000400000000000000008000000000000000000000008000000000000000000000000210020000000000000000041000000000002000000000000000000004800000000000000000000000000000000000040000000000000000000000000000004000008000000000000000000000000000000000100000010200000000005001000000020000000100200000000000000000000000",
      "type": "0x2",
      "transactionHash": "0x3e0d1833da66f3979214877cb62b687566e6177bdbd200b9e633d6fc396eb8ea",
      "transactionIndex": "0x32",
      "blockHash": "0x035b386bc2accae1c0160899d139043102d77df5767d747dff9385a571dab662",
      "blockNumber": "0x588fe4",
      "gasUsed": "0x1dd47",
      "effectiveGasPrice": "0x9682ce78",
      "from": "0x699bceebd59a5b52bb586c737cd7ba636f3fe602",
      "to": "0x23dd1aa37b5c81d64586c021330d61d3ad55aafb",
      "contractAddress": null
    }
  ],
  "libraries": [],
  "pending": [],
  "returns": {},
  "timestamp": 1714415319,
  "chain": 11155111,
  "commit": "9546700"
}