{
  "transactions": [
    {
      "hash": "0x9d09fb0ec06e76f8dd72abbf6fca2ee62ab4444dc95c82e73ddc614fcbd997cf",
      "transactionType": "CALL",
      "contractName": null,
      "contractAddress": "0x23dd1aa37b5c81d64586c021330d61d3ad55aafb",
      "function": "postMessage((address,uint256,uint256)[])",
      "arguments": [
        "[(0x699BceEbD59a5b52bB586C737cD7ba636f3Fe602, 80002, 11100000000000000)]"
      ],
      "transaction": {
        "from": "0x699bceebd59a5b52bb586c737cd7ba636f3fe602",
        "to": "0x23dd1aa37b5c81d64586c021330d61d3ad55aafb",
        "gas": "0x1fa07",
        "value": "0x276f642501c000",
        "input": "0x42cbee8d00000000000000000000000000000000000000000000000000000000000000200000000000000000000000000000000000000000000000000000000000000001000000000000000000000000699bceebd59a5b52bb586c737cd7ba636f3fe602000000000000000000000000000000000000000000000000000000000001388200000000000000000000000000000000000000000000000000276f642501c000",
        "nonce": "0x144",
        "chainId": "0xaa36a7",
        "accessList": null,
        "type": null
      },
      "additionalContracts": [],
      "isFixedGasLimit": false
    }
  ],
  "receipts": [
    {
      "status": "0x1",
      "cumulativeGasUsed": "0xbb1421",
      "logs": [
        {
          "address": "0x23dd1aa37b5c81d64586c021330d61d3ad55aafb",
          "topics": [
            "0x9853b992610853aa2f058d95d0a4868ffcd37470b93a5e6634619467e0d4228c",
            "0xc89b29f440823bf4b32064c955e691fae2c6c19df08002ac12f06a1332a1f8cc",
            "0x000000000000000000000000699bceebd59a5b52bb586c737cd7ba636f3fe602",
            "0x00000000000000000000000000000000000000000000000000276f642501c000"
          ],
          "data": "0x00000000000000000000000000000000000000000000000000000000662de6a0000000000000000000000000699bceebd59a5b52bb586c737cd7ba636f3fe60200000000000000000000000000000000000000000000000000000000000138820000000000000000000000000000000000000000000000a2a15d09519be000000000000000000000000000000000000000000000000000000de0b6b3a7640000",
          "blockHash": "0xa37cca75f1be7cda75646f26c1e27d7c228ca58000c77981fe4fa7c9756ed575",
          "blockNumber": "0x586792",
          "transactionHash": "0x9d09fb0ec06e76f8dd72abbf6fca2ee62ab4444dc95c82e73ddc614fcbd997cf",
          "transactionIndex": "0x3a",
          "logIndex": "0x10b",
          "removed": false
        }
      ],
      "logsBloom": "0x00000000000000000000002000000000000000000000000000400000000000000000000000000010000000000000000000000000000000000000000000000000000000000000000000000000000000000000000000000000000000000000000000800000000000000000000400000000000000008000000000000000000000000000000000000000000000000200000000000000000000000000000000000000000000000000000000000000000000000000000000000000000000040000400000000000000000000800000000008000000000000000000000000000000000000000010000000000001000000000000000000100200000000000000000000000",
      "type": "0x2",
      "transactionHash": "0x9d09fb0ec06e76f8dd72abbf6fca2ee62ab4444dc95c82e73ddc614fcbd997cf",
      "transactionIndex": "0x3a",
      "blockHash": "0xa37cca75f1be7cda75646f26c1e27d7c228ca58000c77981fe4fa7c9756ed575",
      "blockNumber": "0x586792",
      "gasUsed": "0x16e5c",
      "effectiveGasPrice": "0x64608de7",
      "from": "0x699bceebd59a5b52bb586c737cd7ba636f3fe602",
      "to": "0x23dd1aa37b5c81d64586c021330d61d3ad55aafb",
      "contractAddress": null
    }
  ],
  "libraries": [],
  "pending": [],
  "returns": {},
  "timestamp": 1714284199,
  "chain": 11155111,
  "commit": "9546700"
}