{
  "transactions": [
    {
      "hash": "0x69465fa8af2afeaeba7af6b83e1ab5b71f8506e7daccd4c3dac8a70cdc71272a",
      "transactionType": "CALL",
      "contractName": null,
      "contractAddress": "0x371862509e523e8fb89eb8911254c14c882fca96",
      "function": "postMessage((address,uint256,uint256)[])",
      "arguments": [
        "[(0x699BceEbD59a5b52bB586C737cD7ba636f3Fe602, 80002, 50000000000000000)]"
      ],
      "transaction": {
        "from": "0x699bceebd59a5b52bb586c737cd7ba636f3fe602",
        "to": "0x371862509e523e8fb89eb8911254c14c882fca96",
        "gas": "0x1f9f2",
        "value": "0xb1a2bc2ec50000",
        "input": "0x42cbee8d00000000000000000000000000000000000000000000000000000000000000200000000000000000000000000000000000000000000000000000000000000001000000000000000000000000699bceebd59a5b52bb586c737cd7ba636f3fe602000000000000000000000000000000000000000000000000000000000001388200000000000000000000000000000000000000000000000000b1a2bc2ec50000",
        "nonce": "0x131",
        "chainId": "0xaa36a7",
        "accessList": null,
        "type": null
      },
      "additionalContracts": [],
      "isFixedGasLimit": false
    }
  ],
  "receipts": [
    {
      "status": "0x1",
      "cumulativeGasUsed": "0x11bfc39",
      "logs": [
        {
          "address": "0x371862509e523e8fb89eb8911254c14c882fca96",
          "topics": [
            "0x9853b992610853aa2f058d95d0a4868ffcd37470b93a5e6634619467e0d4228c",
            "0x7a29ae18b05fa7eba628550173e2eda9fac9b3cd5cce1f96ac58cdb48e700c1c",
            "0x000000000000000000000000699bceebd59a5b52bb586c737cd7ba636f3fe602",
            "0x00000000000000000000000000000000000000000000000000b1a2bc2ec50000"
          ],
          "data": "0x00000000000000000000000000000000000000000000000000000000662ca96c000000000000000000000000699bceebd59a5b52bb586c737cd7ba636f3fe60200000000000000000000000000000000000000000000000000000000000138820000000000000000000000000000000000000000000000a2a15d09519be000000000000000000000000000000000000000000000000000000de0b6b3a7640000",
          "blockHash": "0xee3cb5f0b91b23b282d9b1c6d9d7d73ab56d630d0b2ab5fd2ce17f6da6ad0ce9",
          "blockNumber": "0x584de3",
          "transactionHash": "0x69465fa8af2afeaeba7af6b83e1ab5b71f8506e7daccd4c3dac8a70cdc71272a",
          "transactionIndex": "0xbc",
          "logIndex": "0x1ba",
          "removed": false
        }
      ],
      "logsBloom": "0x00000000000000000000000000000000000000000000000000400000000000000000000000000000000000000000000000000000000000000000000000020000000000000000000000000000000000000000000000000000004000000000000000800104000002000000000000000004000000008000000800000000000000000000000000000000000000000000000000000000000000000000000000000000000000000000000000002000000000000000000000000000000000000000000000000000000000000000000000008000000000000000000000000000000000000000000000000000001000000000000000000100000000000000000040000000",
      "type": "0x2",
      "transactionHash": "0x69465fa8af2afeaeba7af6b83e1ab5b71f8506e7daccd4c3dac8a70cdc71272a",
      "transactionIndex": "0xbc",
      "blockHash": "0xee3cb5f0b91b23b282d9b1c6d9d7d73ab56d630d0b2ab5fd2ce17f6da6ad0ce9",
      "blockNumber": "0x584de3",
      "gasUsed": "0x16e4d",
      "effectiveGasPrice": "0x1ca9bfe56",
      "from": "0x699bceebd59a5b52bb586c737cd7ba636f3fe602",
      "to": "0x371862509e523e8fb89eb8911254c14c882fca96",
      "contractAddress": null
    }
  ],
  "libraries": [],
  "pending": [],
  "returns": {},
  "timestamp": 1714202993,
  "chain": 11155111,
  "commit": "d8ddccd"
}