{
  "transactions": [
    {
      "hash": "0xd99b8e02f69605fd5e5eb2e230d4371dc56556caba9899820f0e207789047a13",
      "transactionType": "CALL",
      "contractName": null,
      "contractAddress": "0x23dd1aa37b5c81d64586c021330d61d3ad55aafb",
      "function": "postMessage((address,uint256,uint256)[])",
      "arguments": [
        "[(0x699BceEbD59a5b52bB586C737cD7ba636f3Fe602, 80002, 11100000000000000), (0x699BceEbD59a5b52bB586C737cD7ba636f3Fe602, 80002, 11200000000000000), (0x699BceEbD59a5b52bB586C737cD7ba636f3Fe602, 80002, 11300000000000000), (0x699BceEbD59a5b52bB586C737cD7ba636f3Fe602, 80002, 11400000000000000), (0x699BceEbD59a5b52bB586C737cD7ba636f3Fe602, 80002, 11500000000000000)]"
      ],
      "transaction": {
        "from": "0x699bceebd59a5b52bb586c737cd7ba636f3fe602",
        "to": "0x23dd1aa37b5c81d64586c021330d61d3ad55aafb",
        "gas": "0x274b6",
        "value": "0xd529ae9e860000",
        "input": "0x42cbee8d00000000000000000000000000000000000000000000000000000000000000200000000000000000000000000000000000000000000000000000000000000005000000000000000000000000699bceebd59a5b52bb586c737cd7ba636f3fe602000000000000000000000000000000000000000000000000000000000001388200000000000000000000000000000000000000000000000000276f642501c000000000000000000000000000699bceebd59a5b52bb586c737cd7ba636f3fe60200000000000000000000000000000000000000000000000000000000000138820000000000000000000000000000000000000000000000000027ca57357c0000000000000000000000000000699bceebd59a5b52bb586c737cd7ba636f3fe60200000000000000000000000000000000000000000000000000000000000138820000000000000000000000000000000000000000000000000028254a45f64000000000000000000000000000699bceebd59a5b52bb586c737cd7ba636f3fe60200000000000000000000000000000000000000000000000000000000000138820000000000000000000000000000000000000000000000000028803d56708000000000000000000000000000699bceebd59a5b52bb586c737cd7ba636f3fe60200000000000000000000000000000000000000000000000000000000000138820000000000000000000000000000000000000000000000000028db3066eac000",
        "nonce": "0x16a",
        "chainId": "0xaa36a7",
        "accessList": null,
        "type": null
      },
      "additionalContracts": [],
      "isFixedGasLimit": false
    }
  ],
  "receipts": [
    {
      "status": "0x1",
      "cumulativeGasUsed": "0x743d24",
      "logs": [
        {
          "address": "0x23dd1aa37b5c81d64586c021330d61d3ad55aafb",
          "topics": [
            "0x9853b992610853aa2f058d95d0a4868ffcd37470b93a5e6634619467e0d4228c",
            "0xd1c43c1d8553ba94e40ce347d35f856f22f1dc37332c17d4af8abbb7bede4ac7",
            "0x000000000000000000000000699bceebd59a5b52bb586c737cd7ba636f3fe602",
            "0x00000000000000000000000000000000000000000000000000276f642501c000"
          ],
          "data": "0x00000000000000000000000000000000000000000000000000000000662fd840000000000000000000000000699bceebd59a5b52bb586c737cd7ba636f3fe60200000000000000000000000000000000000000000000000000000000000138820000000000000000000000000000000000000000000000a2a15d09519be000000000000000000000000000000000000000000000000000000de0b6b3a7640000",
          "blockHash": "0x428ce199bef5ec44bc7f1aefca1ccfcabe43b62d886167791759862444846081",
          "blockNumber": "0x588ecc",
          "transactionHash": "0xd99b8e02f69605fd5e5eb2e230d4371dc56556caba9899820f0e207789047a13",
          "transactionIndex": "0x24",
          "logIndex": "0x5d",
          "removed": false
        },
        {
          "address": "0x23dd1aa37b5c81d64586c021330d61d3ad55aafb",
          "topics": [
            "0x9853b992610853aa2f058d95d0a4868ffcd37470b93a5e6634619467e0d4228c",
            "0x3c73f071559220d580b0deb2fd26b301a41111cabd7d75e0f890b649a59b3509",
            "0x000000000000000000000000699bceebd59a5b52bb586c737cd7ba636f3fe602",
            "0x0000000000000000000000000000000000000000000000000027ca57357c0000"
          ],
          "data": "0x00000000000000000000000000000000000000000000000000000000662fd840000000000000000000000000699bceebd59a5b52bb586c737cd7ba636f3fe60200000000000000000000000000000000000000000000000000000000000138820000000000000000000000000000000000000000000000a2a15d09519be000000000000000000000000000000000000000000000000000000de0b6b3a7640000",
          "blockHash": "0x428ce199bef5ec44bc7f1aefca1ccfcabe43b62d886167791759862444846081",
          "blockNumber": "0x588ecc",
          "transactionHash": "0xd99b8e02f69605fd5e5eb2e230d4371dc56556caba9899820f0e207789047a13",
          "transactionIndex": "0x24",
          "logIndex": "0x5e",
          "removed": false
        },
        {
          "address": "0x23dd1aa37b5c81d64586c021330d61d3ad55aafb",
          "topics": [
            "0x9853b992610853aa2f058d95d0a4868ffcd37470b93a5e6634619467e0d4228c",
            "0x519127267f58633712ac85ccb6400e6d2cfcf2f9121ec244f1fc97c88a91663a",
            "0x000000000000000000000000699bceebd59a5b52bb586c737cd7ba636f3fe602",
            "0x0000000000000000000000000000000000000000000000000028254a45f64000"
          ],
          "data": "0x00000000000000000000000000000000000000000000000000000000662fd840000000000000000000000000699bceebd59a5b52bb586c737cd7ba636f3fe60200000000000000000000000000000000000000000000000000000000000138820000000000000000000000000000000000000000000000a2a15d09519be000000000000000000000000000000000000000000000000000000de0b6b3a7640000",
          "blockHash": "0x428ce199bef5ec44bc7f1aefca1ccfcabe43b62d886167791759862444846081",
          "blockNumber": "0x588ecc",
          "transactionHash": "0xd99b8e02f69605fd5e5eb2e230d4371dc56556caba9899820f0e207789047a13",
          "transactionIndex": "0x24",
          "logIndex": "0x5f",
          "removed": false
        },
        {
          "address": "0x23dd1aa37b5c81d64586c021330d61d3ad55aafb",
          "topics": [
            "0x9853b992610853aa2f058d95d0a4868ffcd37470b93a5e6634619467e0d4228c",
            "0x5aeb8a2ec849038fd8e330fb847eabf4bfc040d0d09a677e78e7350c8c430f46",
            "0x000000000000000000000000699bceebd59a5b52bb586c737cd7ba636f3fe602",
            "0x0000000000000000000000000000000000000000000000000028803d56708000"
          ],
          "data": "0x00000000000000000000000000000000000000000000000000000000662fd840000000000000000000000000699bceebd59a5b52bb586c737cd7ba636f3fe60200000000000000000000000000000000000000000000000000000000000138820000000000000000000000000000000000000000000000a2a15d09519be000000000000000000000000000000000000000000000000000000de0b6b3a7640000",
          "blockHash": "0x428ce199bef5ec44bc7f1aefca1ccfcabe43b62d886167791759862444846081",
          "blockNumber": "0x588ecc",
          "transactionHash": "0xd99b8e02f69605fd5e5eb2e230d4371dc56556caba9899820f0e207789047a13",
          "transactionIndex": "0x24",
          "logIndex": "0x60",
          "removed": false
        },
        {
          "address": "0x23dd1aa37b5c81d64586c021330d61d3ad55aafb",
          "topics": [
            "0x9853b992610853aa2f058d95d0a4868ffcd37470b93a5e6634619467e0d4228c",
            "0x7a2ead1b7dac8ba30015093ee8c16e86d9a70a85b83a0d8b0c71657d46512e2f",
            "0x000000000000000000000000699bceebd59a5b52bb586c737cd7ba636f3fe602",
            "0x0000000000000000000000000000000000000000000000000028db3066eac000"
          ],
          "data": "0x00000000000000000000000000000000000000000000000000000000662fd840000000000000000000000000699bceebd59a5b52bb586c737cd7ba636f3fe60200000000000000000000000000000000000000000000000000000000000138820000000000000000000000000000000000000000000000a2a15d09519be000000000000000000000000000000000000000000000000000000de0b6b3a7640000",
          "blockHash": "0x428ce199bef5ec44bc7f1aefca1ccfcabe43b62d886167791759862444846081",
          "blockNumber": "0x588ecc",
          "transactionHash": "0xd99b8e02f69605fd5e5eb2e230d4371dc56556caba9899820f0e207789047a13",
          "transactionIndex": "0x24",
          "logIndex": "0x61",
          "removed": false
        }
      ],
      "logsBloom": "0x00000000000000000000001000000000200000000000000000400000000000000000400000000010000000800000001000000004000000000000000000000000010000000000000000000000000000000000000040000000000000000000000000800000000020000000000400000000000000008000000000000000000000000000000000000000000000000210020000000000000000000000000000000000000000000000020004000000000200000000000004000000000000040040000000000000040000000000004000088000000000000010000000000000000000000000010240000008105001000000000008000100200000000000000000000000",
      "type": "0x2",
      "transactionHash": "0xd99b8e02f69605fd5e5eb2e230d4371dc56556caba9899820f0e207789047a13",
      "transactionIndex": "0x24",
      "blockHash": "0x428ce199bef5ec44bc7f1aefca1ccfcabe43b62d886167791759862444846081",
      "blockNumber": "0x588ecc",
      "gasUsed": "0x1c72e",
      "effectiveGasPrice": "0xdfc062fc",
      "from": "0x699bceebd59a5b52bb586c737cd7ba636f3fe602",
      "to": "0x23dd1aa37b5c81d64586c021330d61d3ad55aafb",
      "contractAddress": null
    }
  ],
  "libraries": [],
  "pending": [],
  "returns": {},
  "timestamp": 1714411589,
  "chain": 11155111,
  "commit": "9546700"
}