{
  "transactions": [
    {
      "hash": "0xc572f3cd9c24d3025575949bd9e98a85c54ec4601b06483581dfcbb91173a4bc",
      "transactionType": "CALL",
      "contractName": null,
      "contractAddress": "0x23dd1aa37b5c81d64586c021330d61d3ad55aafb",
      "function": "postMessage((address,uint256,uint256)[])",
      "arguments": [
        "[(0x699BceEbD59a5b52bB586C737cD7ba636f3Fe602, 80002, 11100000000000000), (0x699BceEbD59a5b52bB586C737cD7ba636f3Fe602, 80002, 11200000000000000)]"
      ],
      "transaction": {
        "from": "0x699bceebd59a5b52bb586c737cd7ba636f3fe602",
        "to": "0x23dd1aa37b5c81d64586c021330d61d3ad55aafb",
        "gas": "0x218a8",
        "value": "0x6a94d74f430000",
        "input": "0x42cbee8d00000000000000000000000000000000000000000000000000000000000000200000000000000000000000000000000000000000000000000000000000000002000000000000000000000000699bceebd59a5b52bb586c737cd7ba636f3fe602000000000000000000000000000000000000000000000000000000000001388200000000000000000000000000000000000000000000000000276f642501c000000000000000000000000000699bceebd59a5b52bb586c737cd7ba636f3fe60200000000000000000000000000000000000000000000000000000000000138820000000000000000000000000000000000000000000000000027ca57357c0000",
        "nonce": "0x149",
        "chainId": "0xaa36a7",
        "accessList": null,
        "type": null
      },
      "additionalContracts": [],
      "isFixedGasLimit": false
    }
  ],
  "receipts": [
    {
      "status": "0x1",
      "cumulativeGasUsed": "0xce31d0",
      "logs": [
        {
          "address": "0x23dd1aa37b5c81d64586c021330d61d3ad55aafb",
          "topics": [
            "0x9853b992610853aa2f058d95d0a4868ffcd37470b93a5e6634619467e0d4228c",
            "0x92860f3ebab7a2d47fcab02f7d0e6dbd829befe79bc0a59abe786de64971de4d",
            "0x000000000000000000000000699bceebd59a5b52bb586c737cd7ba636f3fe602",
            "0x00000000000000000000000000000000000000000000000000276f642501c000"
          ],
          "data": "0x00000000000000000000000000000000000000000000000000000000662df744000000000000000000000000699bceebd59a5b52bb586c737cd7ba636f3fe60200000000000000000000000000000000000000000000000000000000000138820000000000000000000000000000000000000000000000a2a15d09519be000000000000000000000000000000000000000000000000000000de0b6b3a7640000",
          "blockHash": "0xb578549a51bde7aebdfd0f32d23cc6aaa5d2498bdfbf30ba4b2c9e4add5a63a8",
          "blockNumber": "0x5868f1",
          "transactionHash": "0xc572f3cd9c24d3025575949bd9e98a85c54ec4601b06483581dfcbb91173a4bc",
          "transactionIndex": "0x5d",
          "logIndex": "0xfd",
          "removed": false
        },
        {
          "address": "0x23dd1aa37b5c81d64586c021330d61d3ad55aafb",
          "topics": [
            "0x9853b992610853aa2f058d95d0a4868ffcd37470b93a5e6634619467e0d4228c",
            "0x4e1ed94ebcb3b9add4d4a7b8918a6ecdd223e4e1c18dcaf70513392785cab830",
            "0x000000000000000000000000699bceebd59a5b52bb586c737cd7ba636f3fe602",
            "0x0000000000000000000000000000000000000000000000000027ca57357c0000"
          ],
          "data": "0x00000000000000000000000000000000000000000000000000000000662df744000000000000000000000000699bceebd59a5b52bb586c737cd7ba636f3fe60200000000000000000000000000000000000000000000000000000000000138820000000000000000000000000000000000000000000000a2a15d09519be000000000000000000000000000000000000000000000000000000de0b6b3a7640000",
          "blockHash": "0xb578549a51bde7aebdfd0f32d23cc6aaa5d2498bdfbf30ba4b2c9e4add5a63a8",
          "blockNumber": "0x5868f1",
          "transactionHash": "0xc572f3cd9c24d3025575949bd9e98a85c54ec4601b06483581dfcbb91173a4bc",
          "transactionIndex": "0x5d",
          "logIndex": "0xfe",
          "removed": false
        }
      ],
      "logsBloom": "0x00000000000000000000000000000000000000000000000000400000000040000000400000000010002000000000000000000000000000000000000000000000000000000000000000000000000008000000000000000000000040000000000000800000000000000000000400000000000000008000000000002000000000000000000000000000000000000200020000000000000000000000000000000000000000000000000000000000000000000000000000000000000000040000000000000000000000000000000000008000000000000000000000000000000000000000010000000000005000000010000000000100200000000000000000000000",
      "type": "0x2",
      "transactionHash": "0xc572f3cd9c24d3025575949bd9e98a85c54ec4601b06483581dfcbb91173a4bc",
      "transactionIndex": "0x5d",
      "blockHash": "0xb578549a51bde7aebdfd0f32d23cc6aaa5d2498bdfbf30ba4b2c9e4add5a63a8",
      "blockNumber": "0x5868f1",
      "gasUsed": "0x18488",
      "effectiveGasPrice": "0x749a184a",
      "from": "0x699bceebd59a5b52bb586c737cd7ba636f3fe602",
      "to": "0x23dd1aa37b5c81d64586c021330d61d3ad55aafb",
      "contractAddress": null
    }
  ],
  "libraries": [],
  "pending": [],
  "returns": {},
  "timestamp": 1714288458,
  "chain": 11155111,
  "commit": "9546700"
}