{
  "transactions": [
    {
      "hash": "0x5eaad335be7ca560121ccc878ee1a25d48796d34314c07bd27a511d4e713b954",
      "transactionType": "CALL",
      "contractName": null,
      "contractAddress": "0x23dd1aa37b5c81d64586c021330d61d3ad55aafb",
      "function": "postMessage((address,uint256,uint256)[])",
      "arguments": [
        "[(0x699BceEbD59a5b52bB586C737cD7ba636f3Fe602, 80002, 11100000000000000), (0x699BceEbD59a5b52bB586C737cD7ba636f3Fe602, 80002, 11200000000000000), (0x699BceEbD59a5b52bB586C737cD7ba636f3Fe602, 80002, 11300000000000000), (0x699BceEbD59a5b52bB586C737cD7ba636f3Fe602, 80002, 11400000000000000), (0x699BceEbD59a5b52bB586C737cD7ba636f3Fe602, 80002, 11500000000000000)]"
      ],
      "transaction": {
        "from": "0x699bceebd59a5b52bb586c737cd7ba636f3fe602",
        "to": "0x23dd1aa37b5c81d64586c021330d61d3ad55aafb",
        "gas": "0x274b6",
        "value": "0xd529ae9e860000",
        "input": "0x42cbee8d00000000000000000000000000000000000000000000000000000000000000200000000000000000000000000000000000000000000000000000000000000005000000000000000000000000699bceebd59a5b52bb586c737cd7ba636f3fe602000000000000000000000000000000000000000000000000000000000001388200000000000000000000000000000000000000000000000000276f642501c000000000000000000000000000699bceebd59a5b52bb586c737cd7ba636f3fe60200000000000000000000000000000000000000000000000000000000000138820000000000000000000000000000000000000000000000000027ca57357c0000000000000000000000000000699bceebd59a5b52bb586c737cd7ba636f3fe60200000000000000000000000000000000000000000000000000000000000138820000000000000000000000000000000000000000000000000028254a45f64000000000000000000000000000699bceebd59a5b52bb586c737cd7ba636f3fe60200000000000000000000000000000000000000000000000000000000000138820000000000000000000000000000000000000000000000000028803d56708000000000000000000000000000699bceebd59a5b52bb586c737cd7ba636f3fe60200000000000000000000000000000000000000000000000000000000000138820000000000000000000000000000000000000000000000000028db3066eac000",
        "nonce": "0x161",
        "chainId": "0xaa36a7",
        "accessList": null,
        "type": null
      },
      "additionalContracts": [],
      "isFixedGasLimit": false
    }
  ],
  "receipts": [
    {
      "status": "0x1",
      "cumulativeGasUsed": "0x8059fe",
      "logs": [
        {
          "address": "0x23dd1aa37b5c81d64586c021330d61d3ad55aafb",
          "topics": [
            "0x9853b992610853aa2f058d95d0a4868ffcd37470b93a5e6634619467e0d4228c",
            "0x0d642fc3e0837158d0077c7947b8643bcf566711cdecc277bba278f7d8d656bb",
            "0x000000000000000000000000699bceebd59a5b52bb586c737cd7ba636f3fe602",
            "0x00000000000000000000000000000000000000000000000000276f642501c000"
          ],
          "data": "0x00000000000000000000000000000000000000000000000000000000662e6c2c000000000000000000000000699bceebd59a5b52bb586c737cd7ba636f3fe60200000000000000000000000000000000000000000000000000000000000138820000000000000000000000000000000000000000000000a2a15d09519be000000000000000000000000000000000000000000000000000000de0b6b3a7640000",
          "blockHash": "0x24705868f3a9f7e4cf6daf55a37f44a2f3de11c1100cbcac1c792f4e0b0eb75c",
          "blockNumber": "0x58726f",
          "transactionHash": "0x5eaad335be7ca560121ccc878ee1a25d48796d34314c07bd27a511d4e713b954",
          "transactionIndex": "0x39",
          "logIndex": "0xae",
          "removed": false
        },
        {
          "address": "0x23dd1aa37b5c81d64586c021330d61d3ad55aafb",
          "topics": [
            "0x9853b992610853aa2f058d95d0a4868ffcd37470b93a5e6634619467e0d4228c",
            "0xcb9925b6f431159ef16ec57a7215f5a168c58504e9ac80b14de02d3c59834e82",
            "0x000000000000000000000000699bceebd59a5b52bb586c737cd7ba636f3fe602",
            "0x0000000000000000000000000000000000000000000000000027ca57357c0000"
          ],
          "data": "0x00000000000000000000000000000000000000000000000000000000662e6c2c000000000000000000000000699bceebd59a5b52bb586c737cd7ba636f3fe60200000000000000000000000000000000000000000000000000000000000138820000000000000000000000000000000000000000000000a2a15d09519be000000000000000000000000000000000000000000000000000000de0b6b3a7640000",
          "blockHash": "0x24705868f3a9f7e4cf6daf55a37f44a2f3de11c1100cbcac1c792f4e0b0eb75c",
          "blockNumber": "0x58726f",
          "transactionHash": "0x5eaad335be7ca560121ccc878ee1a25d48796d34314c07bd27a511d4e713b954",
          "transactionIndex": "0x39",
          "logIndex": "0xaf",
          "removed": false
        },
        {
          "address": "0x23dd1aa37b5c81d64586c021330d61d3ad55aafb",
          "topics": [
            "0x9853b992610853aa2f058d95d0a4868ffcd37470b93a5e6634619467e0d4228c",
            "0xa85fa95c2ac97491eaab351b7916d60eb8fc35c88c90b6d3781f8579e603cfe4",
            "0x000000000000000000000000699bceebd59a5b52bb586c737cd7ba636f3fe602",
            "0x0000000000000000000000000000000000000000000000000028254a45f64000"
          ],
          "data": "0x00000000000000000000000000000000000000000000000000000000662e6c2c000000000000000000000000699bceebd59a5b52bb586c737cd7ba636f3fe60200000000000000000000000000000000000000000000000000000000000138820000000000000000000000000000000000000000000000a2a15d09519be000000000000000000000000000000000000000000000000000000de0b6b3a7640000",
          "blockHash": "0x24705868f3a9f7e4cf6daf55a37f44a2f3de11c1100cbcac1c792f4e0b0eb75c",
          "blockNumber": "0x58726f",
          "transactionHash": "0x5eaad335be7ca560121ccc878ee1a25d48796d34314c07bd27a511d4e713b954",
          "transactionIndex": "0x39",
          "logIndex": "0xb0",
          "removed": false
        },
        {
          "address": "0x23dd1aa37b5c81d64586c021330d61d3ad55aafb",
          "topics": [
            "0x9853b992610853aa2f058d95d0a4868ffcd37470b93a5e6634619467e0d4228c",
            "0x09f01c51dffddc88a92af719900d99fcf0b69a4da47c90263930f54dce2947b7",
            "0x000000000000000000000000699bceebd59a5b52bb586c737cd7ba636f3fe602",
            "0x0000000000000000000000000000000000000000000000000028803d56708000"
          ],
          "data": "0x00000000000000000000000000000000000000000000000000000000662e6c2c000000000000000000000000699bceebd59a5b52bb586c737cd7ba636f3fe60200000000000000000000000000000000000000000000000000000000000138820000000000000000000000000000000000000000000000a2a15d09519be000000000000000000000000000000000000000000000000000000de0b6b3a7640000",
          "blockHash": "0x24705868f3a9f7e4cf6daf55a37f44a2f3de11c1100cbcac1c792f4e0b0eb75c",
          "blockNumber": "0x58726f",
          "transactionHash": "0x5eaad335be7ca560121ccc878ee1a25d48796d34314c07bd27a511d4e713b954",
          "transactionIndex": "0x39",
          "logIndex": "0xb1",
          "removed": false
        },
        {
          "address": "0x23dd1aa37b5c81d64586c021330d61d3ad55aafb",
          "topics": [
            "0x9853b992610853aa2f058d95d0a4868ffcd37470b93a5e6634619467e0d4228c",
            "0x58c9c97c481c000d83f8003d0348ccbcbd4d094b12b7595e11d11ca3380d4321",
            "0x000000000000000000000000699bceebd59a5b52bb586c737cd7ba636f3fe602",
            "0x0000000000000000000000000000000000000000000000000028db3066eac000"
          ],
          "data": "0x00000000000000000000000000000000000000000000000000000000662e6c2c000000000000000000000000699bceebd59a5b52bb586c737cd7ba636f3fe60200000000000000000000000000000000000000000000000000000000000138820000000000000000000000000000000000000000000000a2a15d09519be000000000000000000000000000000000000000000000000000000de0b6b3a7640000",
          "blockHash": "0x24705868f3a9f7e4cf6daf55a37f44a2f3de11c1100cbcac1c792f4e0b0eb75c",
          "blockNumber": "0x58726f",
          "transactionHash": "0x5eaad335be7ca560121ccc878ee1a25d48796d34314c07bd27a511d4e713b954",
          "transactionIndex": "0x39",
          "logIndex": "0xb2",
          "removed": false
        }
      ],
      "logsBloom": "0x00000000000000000000000000000000200080200000000000400000000000000000400000000010000000800000001000000000000000000000000000000208010000080000000000000000000000000000000000000000000000000000000000800000200000000000000400000000000000408000000000000000000000000000000000800000000000000210020000000001000000000000000000000000000000000000000004000000000000000000000000000008000000040400004000000000000000000000004000418000000000000000000000000000000000000000010200000000005001000000010000000100200000000000000000000000",
      "type": "0x2",
      "transactionHash": "0x5eaad335be7ca560121ccc878ee1a25d48796d34314c07bd27a511d4e713b954",
      "transactionIndex": "0x39",
      "blockHash": "0x24705868f3a9f7e4cf6daf55a37f44a2f3de11c1100cbcac1c792f4e0b0eb75c",
      "blockNumber": "0x58726f",
      "gasUsed": "0x1c72e",
      "effectiveGasPrice": "0xa3c21e43",
      "from": "0x699bceebd59a5b52bb586c737cd7ba636f3fe602",
      "to": "0x23dd1aa37b5c81d64586c021330d61d3ad55aafb",
      "contractAddress": null
    }
  ],
  "libraries": [],
  "pending": [],
  "returns": {},
  "timestamp": 1714318383,
  "chain": 11155111,
  "commit": "9546700"
}