{
  "transactions": [
    {
      "hash": "0x91ae0a4636b43ec827d996bc2dbfff31295e6940ddb3a0e3524b002dd18a9c14",
      "transactionType": "CALL",
      "contractName": null,
      "contractAddress": "0x23dd1aa37b5c81d64586c021330d61d3ad55aafb",
      "function": "postMessage((address,uint256,uint256)[])",
      "arguments": [
        "[(0x699BceEbD59a5b52bB586C737cD7ba636f3Fe602, 80002, 11100000000000000), (0x699BceEbD59a5b52bB586C737cD7ba636f3Fe602, 80002, 11200000000000000), (0x699BceEbD59a5b52bB586C737cD7ba636f3Fe602, 80002, 11300000000000000), (0x699BceEbD59a5b52bB586C737cD7ba636f3Fe602, 80002, 11400000000000000), (0x699BceEbD59a5b52bB586C737cD7ba636f3Fe602, 80002, 11500000000000000)]"
      ],
      "transaction": {
        "from": "0x699bceebd59a5b52bb586c737cd7ba636f3fe602",
        "to": "0x23dd1aa37b5c81d64586c021330d61d3ad55aafb",
        "gas": "0x6730f",
        "value": "0xd529ae9e860000",
        "input": "0x42cbee8d00000000000000000000000000000000000000000000000000000000000000200000000000000000000000000000000000000000000000000000000000000005000000000000000000000000699bceebd59a5b52bb586c737cd7ba636f3fe602000000000000000000000000000000000000000000000000000000000001388200000000000000000000000000000000000000000000000000276f642501c000000000000000000000000000699bceebd59a5b52bb586c737cd7ba636f3fe60200000000000000000000000000000000000000000000000000000000000138820000000000000000000000000000000000000000000000000027ca57357c0000000000000000000000000000699bceebd59a5b52bb586c737cd7ba636f3fe60200000000000000000000000000000000000000000000000000000000000138820000000000000000000000000000000000000000000000000028254a45f64000000000000000000000000000699bceebd59a5b52bb586c737cd7ba636f3fe60200000000000000000000000000000000000000000000000000000000000138820000000000000000000000000000000000000000000000000028803d56708000000000000000000000000000699bceebd59a5b52bb586c737cd7ba636f3fe60200000000000000000000000000000000000000000000000000000000000138820000000000000000000000000000000000000000000000000028db3066eac000",
        "nonce": "0x164",
        "chainId": "0xaa36a7",
        "accessList": null,
        "type": null
      },
      "additionalContracts": [],
      "isFixedGasLimit": false
    }
  ],
  "receipts": [
    {
      "status": "0x1",
      "cumulativeGasUsed": "0xd19ca8",
      "logs": [
        {
          "address": "0x23dd1aa37b5c81d64586c021330d61d3ad55aafb",
          "topics": [
            "0x9853b992610853aa2f058d95d0a4868ffcd37470b93a5e6634619467e0d4228c",
            "0xbeb3a810f73c3637ae2af53720d675143fe9845844c56a7527c1d1a578eb1f70",
            "0x000000000000000000000000699bceebd59a5b52bb586c737cd7ba636f3fe602",
            "0x00000000000000000000000000000000000000000000000000276f642501c000"
          ],
          "data": "0x00000000000000000000000000000000000000000000000000000000662f18ac000000000000000000000000699bceebd59a5b52bb586c737cd7ba636f3fe60200000000000000000000000000000000000000000000000000000000000138820000000000000000000000000000000000000000000000a2a15d09519be000000000000000000000000000000000000000000000000000000de0b6b3a7640000",
          "blockHash": "0x75de24d8ad8a3603823362ea4dda4c02abf42e0972f48b987b2cecb06aefe2a8",
          "blockNumber": "0x588016",
          "transactionHash": "0x91ae0a4636b43ec827d996bc2dbfff31295e6940ddb3a0e3524b002dd18a9c14",
          "transactionIndex": "0x39",
          "logIndex": "0xb1",
          "removed": false
        },
        {
          "address": "0x23dd1aa37b5c81d64586c021330d61d3ad55aafb",
          "topics": [
            "0x9853b992610853aa2f058d95d0a4868ffcd37470b93a5e6634619467e0d4228c",
            "0x32ecf526a992e0afda59b65fcbd4a0f66e17d63fc3d13dbca06b2a453c92ec96",
            "0x000000000000000000000000699bceebd59a5b52bb586c737cd7ba636f3fe602",
            "0x0000000000000000000000000000000000000000000000000027ca57357c0000"
          ],
          "data": "0x00000000000000000000000000000000000000000000000000000000662f18ac000000000000000000000000699bceebd59a5b52bb586c737cd7ba636f3fe60200000000000000000000000000000000000000000000000000000000000138820000000000000000000000000000000000000000000000a2a15d09519be000000000000000000000000000000000000000000000000000000de0b6b3a7640000",
          "blockHash": "0x75de24d8ad8a3603823362ea4dda4c02abf42e0972f48b987b2cecb06aefe2a8",
          "blockNumber": "0x588016",
          "transactionHash": "0x91ae0a4636b43ec827d996bc2dbfff31295e6940ddb3a0e3524b002dd18a9c14",
          "transactionIndex": "0x39",
          "logIndex": "0xb2",
          "removed": false
        },
        {
          "address": "0x23dd1aa37b5c81d64586c021330d61d3ad55aafb",
          "topics": [
            "0x9853b992610853aa2f058d95d0a4868ffcd37470b93a5e6634619467e0d4228c",
            "0x537cd01a07b9a04fe738e2c06fcf6b9fb1773d664921d03781db6d123258486a",
            "0x000000000000000000000000699bceebd59a5b52bb586c737cd7ba636f3fe602",
            "0x0000000000000000000000000000000000000000000000000028254a45f64000"
          ],
          "data": "0x00000000000000000000000000000000000000000000000000000000662f18ac000000000000000000000000699bceebd59a5b52bb586c737cd7ba636f3fe60200000000000000000000000000000000000000000000000000000000000138820000000000000000000000000000000000000000000000a2a15d09519be000000000000000000000000000000000000000000000000000000de0b6b3a7640000",
          "blockHash": "0x75de24d8ad8a3603823362ea4dda4c02abf42e0972f48b987b2cecb06aefe2a8",
          "blockNumber": "0x588016",
          "transactionHash": "0x91ae0a4636b43ec827d996bc2dbfff31295e6940ddb3a0e3524b002dd18a9c14",
          "transactionIndex": "0x39",
          "logIndex": "0xb3",
          "removed": false
        },
        {
          "address": "0x23dd1aa37b5c81d64586c021330d61d3ad55aafb",
          "topics": [
            "0x9853b992610853aa2f058d95d0a4868ffcd37470b93a5e6634619467e0d4228c",
            "0xc0c730de6af32ada6fc2400f3f80110bbe39b9dc163f4c5fdb096094d6ba39fb",
            "0x000000000000000000000000699bceebd59a5b52bb586c737cd7ba636f3fe602",
            "0x0000000000000000000000000000000000000000000000000028803d56708000"
          ],
          "data": "0x00000000000000000000000000000000000000000000000000000000662f18ac000000000000000000000000699bceebd59a5b52bb586c737cd7ba636f3fe60200000000000000000000000000000000000000000000000000000000000138820000000000000000000000000000000000000000000000a2a15d09519be000000000000000000000000000000000000000000000000000000de0b6b3a7640000",
          "blockHash": "0x75de24d8ad8a3603823362ea4dda4c02abf42e0972f48b987b2cecb06aefe2a8",
          "blockNumber": "0x588016",
          "transactionHash": "0x91ae0a4636b43ec827d996bc2dbfff31295e6940ddb3a0e3524b002dd18a9c14",
          "transactionIndex": "0x39",
          "logIndex": "0xb4",
          "removed": false
        },
        {
          "address": "0x23dd1aa37b5c81d64586c021330d61d3ad55aafb",
          "topics": [
            "0x9853b992610853aa2f058d95d0a4868ffcd37470b93a5e6634619467e0d4228c",
            "0x43d6bf0f129e0bdbd70e907b49f89da02eecc61ce89b893aa017e484bd8b6ba7",
            "0x000000000000000000000000699bceebd59a5b52bb586c737cd7ba636f3fe602",
            "0x0000000000000000000000000000000000000000000000000028db3066eac000"
          ],
          "data": "0x00000000000000000000000000000000000000000000000000000000662f18ac000000000000000000000000699bceebd59a5b52bb586c737cd7ba636f3fe60200000000000000000000000000000000000000000000000000000000000138820000000000000000000000000000000000000000000000a2a15d09519be000000000000000000000000000000000000000000000000000000de0b6b3a7640000",
          "blockHash": "0x75de24d8ad8a3603823362ea4dda4c02abf42e0972f48b987b2cecb06aefe2a8",
          "blockNumber": "0x588016",
          "transactionHash": "0x91ae0a4636b43ec827d996bc2dbfff31295e6940ddb3a0e3524b002dd18a9c14",
          "transactionIndex": "0x39",
          "logIndex": "0xb5",
          "removed": false
        }
      ],
      "logsBloom": "0x00000000000000000000000000400000200000000000041000501000000000000000400000000010040000800000001000000000000000000000000000800000010000000000000000000000000000000000002000000000000000000000000000800000000000000010000400000000000000008000000000000000000000000000000000000000000000000210020000000000000000000000000000000000000000000000000004000000040000000000400000000000000000040000000000000000000002000000004000008000000000000000000000000200000000000000010200004000005001000000000000000100200000000000000000000400",
      "type": "0x2",
      "transactionHash": "0x91ae0a4636b43ec827d996bc2dbfff31295e6940ddb3a0e3524b002dd18a9c14",
      "transactionIndex": "0x39",
      "blockHash": "0x75de24d8ad8a3603823362ea4dda4c02abf42e0972f48b987b2cecb06aefe2a8",
      "blockNumber": "0x588016",
      "gasUsed": "0x4ab57",
      "effectiveGasPrice": "0x3e9fd82e",
      "from": "0x699bceebd59a5b52bb586c737cd7ba636f3fe602",
      "to": "0x23dd1aa37b5c81d64586c021330d61d3ad55aafb",
      "contractAddress": null
    }
  ],
  "libraries": [],
  "pending": [],
  "returns": {},
  "timestamp": 1714362548,
  "chain": 11155111,
  "commit": "9546700"
}