{
  "transactions": [
    {
      "hash": "0x5ad49fe44573d297ffd6ca0d6898d4b384dcc96de36db5df6aab11c404c73a5a",
      "transactionType": "CALL",
      "contractName": null,
      "contractAddress": "0x371862509e523e8fb89eb8911254c14c882fca96",
      "function": "postMessage((address,uint256,uint256)[])",
      "arguments": [
        "[(0x699BceEbD59a5b52bB586C737cD7ba636f3Fe602, 80002, 100000000000000000)]"
      ],
      "transaction": {
        "from": "0x699bceebd59a5b52bb586c737cd7ba636f3fe602",
        "to": "0x371862509e523e8fb89eb8911254c14c882fca96",
        "gas": "0x217c8",
        "value": "0x16345785d8a0000",
        "input": "0x42cbee8d00000000000000000000000000000000000000000000000000000000000000200000000000000000000000000000000000000000000000000000000000000001000000000000000000000000699bceebd59a5b52bb586c737cd7ba636f3fe6020000000000000000000000000000000000000000000000000000000000013882000000000000000000000000000000000000000000000000016345785d8a0000",
        "nonce": "0x11e",
        "chainId": "0xaa36a7",
        "accessList": null,
        "type": null
      },
      "additionalContracts": [],
      "isFixedGasLimit": false
    }
  ],
  "receipts": [
    {
      "status": "0x1",
      "cumulativeGasUsed": "0xca82df",
      "logs": [
        {
          "address": "0x371862509e523e8fb89eb8911254c14c882fca96",
          "topics": [
            "0x9853b992610853aa2f058d95d0a4868ffcd37470b93a5e6634619467e0d4228c",
            "0x383c1bff6f63991c25ce66df56d2b9c1c68317a8900bb7f3fa7e33c085114bdd",
            "0x000000000000000000000000699bceebd59a5b52bb586c737cd7ba636f3fe602",
            "0x000000000000000000000000000000000000000000000000016345785d8a0000"
          ],
          "data": "0x00000000000000000000000000000000000000000000000000000000662bb354000000000000000000000000699bceebd59a5b52bb586c737cd7ba636f3fe60200000000000000000000000000000000000000000000000000000000000138820000000000000000000000000000000000000000000000a2a15d09519be000000000000000000000000000000000000000000000000000000de0b6b3a7640000",
          "blockHash": "0x23dc8d744106f43bed2ca9e36f2fff3b94d19a94adb2d5badeb7229ab850b759",
          "blockNumber": "0x5839fe",
          "transactionHash": "0x5ad49fe44573d297ffd6ca0d6898d4b384dcc96de36db5df6aab11c404c73a5a",
          "transactionIndex": "0x6d",
          "logIndex": "0xa6",
          "removed": false
        }
      ],
      "logsBloom": "0x00000000000000000000000000000000000000000000000000400000000000000000000000000000000000000000000000000000200000000000000000020000000000000000000000000000000000000000000002000000000000000000000000800004008002000000000000000000020000008000000000000000000001000000000000000000000000000000000000000000000000000000000000000000000000001000000000000000000000000000000000000000000000000000000000000000000000000000000000008000000000000000000000000000000000000000000000000000001000000000000000000100000000000000000000000000",
      "type": "0x2",
      "transactionHash": "0x5ad49fe44573d297ffd6ca0d6898d4b384dcc96de36db5df6aab11c404c73a5a",
      "transactionIndex": "0x6d",
      "blockHash": "0x23dc8d744106f43bed2ca9e36f2fff3b94d19a94adb2d5badeb7229ab850b759",
      "blockNumber": "0x5839fe",
      "gasUsed": "0x16e59",
      "effectiveGasPrice": "0x56efa259",
      "from": "0x699bceebd59a5b52bb586c737cd7ba636f3fe602",
      "to": "0x371862509e523e8fb89eb8911254c14c882fca96",
      "contractAddress": null
    }
  ],
  "libraries": [],
  "pending": [],
  "returns": {},
  "timestamp": 1714139995,
  "chain": 11155111,
  "commit": "d8ddccd"
}