{
  "transactions": [
    {
      "hash": "0x89b78650a7f2157162883c2decc75cd4bfd2a71265f78c7f65cb593926fcaf0c",
      "transactionType": "CALL",
      "contractName": null,
      "contractAddress": "0x371862509e523e8fb89eb8911254c14c882fca96",
      "function": "postMessage((address,uint256,uint256)[])",
      "arguments": [
        "[(0x699BceEbD59a5b52bB586C737cD7ba636f3Fe602, 80002, 20000000000000000)]"
      ],
      "transaction": {
        "from": "0x699bceebd59a5b52bb586c737cd7ba636f3fe602",
        "to": "0x371862509e523e8fb89eb8911254c14c882fca96",
        "gas": "0x1f9f2",
        "value": "0x470de4df820000",
        "input": "0x42cbee8d00000000000000000000000000000000000000000000000000000000000000200000000000000000000000000000000000000000000000000000000000000001000000000000000000000000699bceebd59a5b52bb586c737cd7ba636f3fe602000000000000000000000000000000000000000000000000000000000001388200000000000000000000000000000000000000000000000000470de4df820000",
        "nonce": "0x130",
        "chainId": "0xaa36a7",
        "accessList": null,
        "type": null
      },
      "additionalContracts": [],
      "isFixedGasLimit": false
    }
  ],
  "receipts": [
    {
      "status": "0x1",
      "cumulativeGasUsed": "0xa88347",
      "logs": [
        {
          "address": "0x371862509e523e8fb89eb8911254c14c882fca96",
          "topics": [
            "0x9853b992610853aa2f058d95d0a4868ffcd37470b93a5e6634619467e0d4228c",
            "0x00fd1c33f55ec885fa1c808b420bc2b64c52fa7f03a22985c1620bd33dde991e",
            "0x000000000000000000000000699bceebd59a5b52bb586c737cd7ba636f3fe602",
            "0x00000000000000000000000000000000000000000000000000470de4df820000"
          ],
          "data": "0x00000000000000000000000000000000000000000000000000000000662c89b0000000000000000000000000699bceebd59a5b52bb586c737cd7ba636f3fe60200000000000000000000000000000000000000000000000000000000000138820000000000000000000000000000000000000000000000a2a15d09519be000000000000000000000000000000000000000000000000000000de0b6b3a7640000",
          "blockHash": "0x1ad0524f03faaba07e13fc4a017de5dfaf846b82bbdae24af11dd1f7404ad064",
          "blockNumber": "0x584b59",
          "transactionHash": "0x89b78650a7f2157162883c2decc75cd4bfd2a71265f78c7f65cb593926fcaf0c",
          "transactionIndex": "0x59",
          "logIndex": "0x124",
          "removed": false
        }
      ],
      "logsBloom": "0x00000000000008000000000000000000000000000000000000400000000000000000000000000000000000000000000000000000000000000000000000020000000800000000000000000000001000000000000000000002000000000000000000800004000002000000000000000000000000008000000000000000000000000000000000000000000000000000000000000000000000000000000000000000000000000000100000000000000000000000040000000000000000000000000000000000000000000000000000008000000000000000000000000000000000000000000000000000001000000000000000000100000000000000000000000000",
      "type": "0x2",
      "transactionHash": "0x89b78650a7f2157162883c2decc75cd4bfd2a71265f78c7f65cb593926fcaf0c",
      "transactionIndex": "0x59",
      "blockHash": "0x1ad0524f03faaba07e13fc4a017de5dfaf846b82bbdae24af11dd1f7404ad064",
      "blockNumber": "0x584b59",
      "gasUsed": "0x16e4d",
      "effectiveGasPrice": "0x3dbaa27a",
      "from": "0x699bceebd59a5b52bb586c737cd7ba636f3fe602",
      "to": "0x371862509e523e8fb89eb8911254c14c882fca96",
      "contractAddress": null
    }
  ],
  "libraries": [],
  "pending": [],
  "returns": {},
  "timestamp": 1714194877,
  "chain": 11155111,
  "commit": "d8ddccd"
}