{
  "transactions": [
    {
      "hash": "0xe7a89a44e45111cee1ee786fd77cd4ed52b9f314452ef2b21ccb6656b1e11d0a",
      "transactionType": "CALL",
      "contractName": null,
      "contractAddress": "0x23dd1aa37b5c81d64586c021330d61d3ad55aafb",
      "function": "postMessage((address,uint256,uint256)[])",
      "arguments": [
        "[(0x699BceEbD59a5b52bB586C737cD7ba636f3Fe602, 80002, 11100000000000000), (0x699BceEbD59a5b52bB586C737cD7ba636f3Fe602, 80002, 11200000000000000), (0x699BceEbD59a5b52bB586C737cD7ba636f3Fe602, 80002, 11300000000000000), (0x699BceEbD59a5b52bB586C737cD7ba636f3Fe602, 80002, 11400000000000000), (0x699BceEbD59a5b52bB586C737cD7ba636f3Fe602, 80002, 11500000000000000), (0x699BceEbD59a5b52bB586C737cD7ba636f3Fe602, 80002, 11600000000000000), (0x699BceEbD59a5b52bB586C737cD7ba636f3Fe602, 80002, 11700000000000000), (0x699BceEbD59a5b52bB586C737cD7ba636f3Fe602, 80002, 11800000000000000), (0x699BceEbD59a5b52bB586C737cD7ba636f3Fe602, 80002, 11900000000000000), (0x699BceEbD59a5b52bB586C737cD7ba636f3Fe602, 80002, 12000000000000000), (0x699BceEbD59a5b52bB586C737cD7ba636f3Fe602, 80002, 12100000000000000), (0x699BceEbD59a5b52bB586C737cD7ba636f3Fe602, 80002, 12200000000000000), (0x699BceEbD59a5b52bB586C737cD7ba636f3Fe602, 80002, 12300000000000000), (0x699BceEbD59a5b52bB586C737cD7ba636f3Fe602, 80002, 12400000000000000), (0x699BceEbD59a5b52bB586C737cD7ba636f3Fe602, 80002, 12500000000000000)]"
      ],
      "transaction": {
        "from": "0x699bceebd59a5b52bb586c737cd7ba636f3fe602",
        "to": "0x23dd1aa37b5c81d64586c021330d61d3ad55aafb",
        "gas": "0x3d51a",
        "value": "0x2c68af0bb140000",
        "input": "0x42cbee8d0000000000000000000000000000000000000000000000000000000000000020000000000000000000000000000000000000000000000000000000000000000f000000000000000000000000699bceebd59a5b52bb586c737cd7ba636f3fe602000000000000000000000000000000000000000000000000000000000001388200000000000000000000000000000000000000000000000000276f642501c000000000000000000000000000699bceebd59a5b52bb586c737cd7ba636f3fe60200000000000000000000000000000000000000000000000000000000000138820000000000000000000000000000000000000000000000000027ca57357c0000000000000000000000000000699bceebd59a5b52bb586c737cd7ba636f3fe60200000000000000000000000000000000000000000000000000000000000138820000000000000000000000000000000000000000000000000028254a45f64000000000000000000000000000699bceebd59a5b52bb586c737cd7ba636f3fe60200000000000000000000000000000000000000000000000000000000000138820000000000000000000000000000000000000000000000000028803d56708000000000000000000000000000699bceebd59a5b52bb586c737cd7ba636f3fe60200000000000000000000000000000000000000000000000000000000000138820000000000000000000000000000000000000000000000000028db3066eac000000000000000000000000000699bceebd59a5b52bb586c737cd7ba636f3fe60200000000000000000000000000000000000000000000000000000000000138820000000000000000000000000000000000000000000000000029362377650000000000000000000000000000699bceebd59a5b52bb586c737cd7ba636f3fe60200000000000000000000000000000000000000000000000000000000000138820000000000000000000000000000000000000000000000000029911687df4000000000000000000000000000699bceebd59a5b52bb586c737cd7ba636f3fe60200000000000000000000000000000000000000000000000000000000000138820000000000000000000000000000000000000000000000000029ec0998598000000000000000000000000000699bceebd59a5b52bb586c737cd7ba636f3fe6020000000000000000000000000000000000000000000000000000000000013882000000000000000000000000000000000000000000000000002a46fca8d3c000000000000000000000000000699bceebd59a5b52bb586c737cd7ba636f3fe6020000000000000000000000000000000000000000000000000000000000013882000000000000000000000000000000000000000000000000002aa1efb94e0000000000000000000000000000699bceebd59a5b52bb586c737cd7ba636f3fe6020000000000000000000000000000000000000000000000000000000000013882000000000000000000000000000000000000000000000000002afce2c9c84000000000000000000000000000699bceebd59a5b52bb586c737cd7ba636f3fe6020000000000000000000000000000000000000000000000000000000000013882000000000000000000000000000000000000000000000000002b57d5da428000000000000000000000000000699bceebd59a5b52bb586c737cd7ba636f3fe6020000000000000000000000000000000000000000000000000000000000013882000000000000000000000000000000000000000000000000002bb2c8eabcc000000000000000000000000000699bceebd59a5b52bb586c737cd7ba636f3fe6020000000000000000000000000000000000000000000000000000000000013882000000000000000000000000000000000000000000000000002c0dbbfb370000000000000000000000000000699bceebd59a5b52bb586c737cd7ba636f3fe6020000000000000000000000000000000000000000000000000000000000013882000000000000000000000000000000000000000000000000002c68af0bb14000",
        "nonce": "0x19a",
        "chainId": "0xaa36a7",
        "accessList": null,
        "type": null
      },
      "additionalContracts": [],
      "isFixedGasLimit": false
    }
  ],
  "receipts": [
    {
      "status": "0x1",
      "cumulativeGasUsed": "0x678380",
      "logs": [
        {
          "address": "0x23dd1aa37b5c81d64586c021330d61d3ad55aafb",
          "topics": [
            "0x9853b992610853aa2f058d95d0a4868ffcd37470b93a5e6634619467e0d4228c",
            "0x659b9dd593bd2e219e778ae8e0d4c4dad3785f122a23f4976aef0e1e283359e1",
            "0x000000000000000000000000699bceebd59a5b52bb586c737cd7ba636f3fe602",
            "0x00000000000000000000000000000000000000000000000000276f642501c000"
          ],
          "data": "0x0000000000000000000000000000000000000000000000000000000066307a04000000000000000000000000699bceebd59a5b52bb586c737cd7ba636f3fe60200000000000000000000000000000000000000000000000000000000000138820000000000000000000000000000000000000000000000a2a15d09519be000000000000000000000000000000000000000000000000000000de0b6b3a7640000",
          "blockHash": "0x4a4aedceb1ab30d0e6752d1a5e3345ae3e863ce6ef3eed599821216590a18842",
          "blockNumber": "0x589a8a",
          "transactionHash": "0xe7a89a44e45111cee1ee786fd77cd4ed52b9f314452ef2b21ccb6656b1e11d0a",
          "transactionIndex": "0x36",
          "logIndex": "0x5b",
          "removed": false
        },
        {
          "address": "0x23dd1aa37b5c81d64586c021330d61d3ad55aafb",
          "topics": [
            "0x9853b992610853aa2f058d95d0a4868ffcd37470b93a5e6634619467e0d4228c",
            "0xb843e14d72f60e345286bba5985096a0e3c995de6d2730d1e527ace41c7e0c6d",
            "0x000000000000000000000000699bceebd59a5b52bb586c737cd7ba636f3fe602",
            "0x0000000000000000000000000000000000000000000000000027ca57357c0000"
          ],
          "data": "0x0000000000000000000000000000000000000000000000000000000066307a04000000000000000000000000699bceebd59a5b52bb586c737cd7ba636f3fe60200000000000000000000000000000000000000000000000000000000000138820000000000000000000000000000000000000000000000a2a15d09519be000000000000000000000000000000000000000000000000000000de0b6b3a7640000",
          "blockHash": "0x4a4aedceb1ab30d0e6752d1a5e3345ae3e863ce6ef3eed599821216590a18842",
          "blockNumber": "0x589a8a",
          "transactionHash": "0xe7a89a44e45111cee1ee786fd77cd4ed52b9f314452ef2b21ccb6656b1e11d0a",
          "transactionIndex": "0x36",
          "logIndex": "0x5c",
          "removed": false
        },
        {
          "address": "0x23dd1aa37b5c81d64586c021330d61d3ad55aafb",
          "topics": [
            "0x9853b992610853aa2f058d95d0a4868ffcd37470b93a5e6634619467e0d4228c",
            "0x81e50defd836bd86431ab50e4ad1c8e3199229e79e9b941ca3f636afce7c6bdd",
            "0x000000000000000000000000699bceebd59a5b52bb586c737cd7ba636f3fe602",
            "0x0000000000000000000000000000000000000000000000000028254a45f64000"
          ],
          "data": "0x0000000000000000000000000000000000000000000000000000000066307a04000000000000000000000000699bceebd59a5b52bb586c737cd7ba636f3fe60200000000000000000000000000000000000000000000000000000000000138820000000000000000000000000000000000000000000000a2a15d09519be000000000000000000000000000000000000000000000000000000de0b6b3a7640000",
          "blockHash": "0x4a4aedceb1ab30d0e6752d1a5e3345ae3e863ce6ef3eed599821216590a18842",
          "blockNumber": "0x589a8a",
          "transactionHash": "0xe7a89a44e45111cee1ee786fd77cd4ed52b9f314452ef2b21ccb6656b1e11d0a",
          "transactionIndex": "0x36",
          "logIndex": "0x5d",
          "removed": false
        },
        {
          "address": "0x23dd1aa37b5c81d64586c021330d61d3ad55aafb",
          "topics": [
            "0x9853b992610853aa2f058d95d0a4868ffcd37470b93a5e6634619467e0d4228c",
            "0x6d011027c36329e44ff97298531264c4d1a1b4aa6bd7087c7b07670112ffbe06",
            "0x000000000000000000000000699bceebd59a5b52bb586c737cd7ba636f3fe602",
            "0x0000000000000000000000000000000000000000000000000028803d56708000"
          ],
          "data": "0x0000000000000000000000000000000000000000000000000000000066307a04000000000000000000000000699bceebd59a5b52bb586c737cd7ba636f3fe60200000000000000000000000000000000000000000000000000000000000138820000000000000000000000000000000000000000000000a2a15d09519be000000000000000000000000000000000000000000000000000000de0b6b3a7640000",
          "blockHash": "0x4a4aedceb1ab30d0e6752d1a5e3345ae3e863ce6ef3eed599821216590a18842",
          "blockNumber": "0x589a8a",
          "transactionHash": "0xe7a89a44e45111cee1ee786fd77cd4ed52b9f314452ef2b21ccb6656b1e11d0a",
          "transactionIndex": "0x36",
          "logIndex": "0x5e",
          "removed": false
        },
        {
          "address": "0x23dd1aa37b5c81d64586c021330d61d3ad55aafb",
          "topics": [
            "0x9853b992610853aa2f058d95d0a4868ffcd37470b93a5e6634619467e0d4228c",
            "0x7779abb91ad00b2117b3230ca935a99a992f44f2b87dc9401808632d172ad687",
            "0x000000000000000000000000699bceebd59a5b52bb586c737cd7ba636f3fe602",
            "0x0000000000000000000000000000000000000000000000000028db3066eac000"
          ],
          "data": "0x0000000000000000000000000000000000000000000000000000000066307a04000000000000000000000000699bceebd59a5b52bb586c737cd7ba636f3fe60200000000000000000000000000000000000000000000000000000000000138820000000000000000000000000000000000000000000000a2a15d09519be000000000000000000000000000000000000000000000000000000de0b6b3a7640000",
          "blockHash": "0x4a4aedceb1ab30d0e6752d1a5e3345ae3e863ce6ef3eed599821216590a18842",
          "blockNumber": "0x589a8a",
          "transactionHash": "0xe7a89a44e45111cee1ee786fd77cd4ed52b9f314452ef2b21ccb6656b1e11d0a",
          "transactionIndex": "0x36",
          "logIndex": "0x5f",
          "removed": false
        },
        {
          "address": "0x23dd1aa37b5c81d64586c021330d61d3ad55aafb",
          "topics": [
            "0x9853b992610853aa2f058d95d0a4868ffcd37470b93a5e6634619467e0d4228c",
            "0xbb858cff2d35164b64c76ab97f40ce80475d2076d664e4a1e7cfa24c1aeea7a8",
            "0x000000000000000000000000699bceebd59a5b52bb586c737cd7ba636f3fe602",
            "0x0000000000000000000000000000000000000000000000000029362377650000"
          ],
          "data": "0x0000000000000000000000000000000000000000000000000000000066307a04000000000000000000000000699bceebd59a5b52bb586c737cd7ba636f3fe60200000000000000000000000000000000000000000000000000000000000138820000000000000000000000000000000000000000000000a2a15d09519be000000000000000000000000000000000000000000000000000000de0b6b3a7640000",
          "blockHash": "0x4a4aedceb1ab30d0e6752d1a5e3345ae3e863ce6ef3eed599821216590a18842",
          "blockNumber": "0x589a8a",
          "transactionHash": "0xe7a89a44e45111cee1ee786fd77cd4ed52b9f314452ef2b21ccb6656b1e11d0a",
          "transactionIndex": "0x36",
          "logIndex": "0x60",
          "removed": false
        },
        {
          "address": "0x23dd1aa37b5c81d64586c021330d61d3ad55aafb",
          "topics": [
            "0x9853b992610853aa2f058d95d0a4868ffcd37470b93a5e6634619467e0d4228c",
            "0xf4eb2ca4d4488b0ff375a375c84a53dba29bcc0ec058bf87dd038be282644b16",
            "0x000000000000000000000000699bceebd59a5b52bb586c737cd7ba636f3fe602",
            "0x0000000000000000000000000000000000000000000000000029911687df4000"
          ],
          "data": "0x0000000000000000000000000000000000000000000000000000000066307a04000000000000000000000000699bceebd59a5b52bb586c737cd7ba636f3fe60200000000000000000000000000000000000000000000000000000000000138820000000000000000000000000000000000000000000000a2a15d09519be000000000000000000000000000000000000000000000000000000de0b6b3a7640000",
          "blockHash": "0x4a4aedceb1ab30d0e6752d1a5e3345ae3e863ce6ef3eed599821216590a18842",
          "blockNumber": "0x589a8a",
          "transactionHash": "0xe7a89a44e45111cee1ee786fd77cd4ed52b9f314452ef2b21ccb6656b1e11d0a",
          "transactionIndex": "0x36",
          "logIndex": "0x61",
          "removed": false
        },
        {
          "address": "0x23dd1aa37b5c81d64586c021330d61d3ad55aafb",
          "topics": [
            "0x9853b992610853aa2f058d95d0a4868ffcd37470b93a5e6634619467e0d4228c",
            "0x1a311b9d963f3a6225509c92306d5bffc39df9572891ac9243d023e9dc67003e",
            "0x000000000000000000000000699bceebd59a5b52bb586c737cd7ba636f3fe602",
            "0x0000000000000000000000000000000000000000000000000029ec0998598000"
          ],
          "data": "0x0000000000000000000000000000000000000000000000000000000066307a04000000000000000000000000699bceebd59a5b52bb586c737cd7ba636f3fe60200000000000000000000000000000000000000000000000000000000000138820000000000000000000000000000000000000000000000a2a15d09519be000000000000000000000000000000000000000000000000000000de0b6b3a7640000",
          "blockHash": "0x4a4aedceb1ab30d0e6752d1a5e3345ae3e863ce6ef3eed599821216590a18842",
          "blockNumber": "0x589a8a",
          "transactionHash": "0xe7a89a44e45111cee1ee786fd77cd4ed52b9f314452ef2b21ccb6656b1e11d0a",
          "transactionIndex": "0x36",
          "logIndex": "0x62",
          "removed": false
        },
        {
          "address": "0x23dd1aa37b5c81d64586c021330d61d3ad55aafb",
          "topics": [
            "0x9853b992610853aa2f058d95d0a4868ffcd37470b93a5e6634619467e0d4228c",
            "0x519cc54ca313058ea51baa8f193e13854fb86fa3b506a3e1a64e61d71655fe7d",
            "0x000000000000000000000000699bceebd59a5b52bb586c737cd7ba636f3fe602",
            "0x000000000000000000000000000000000000000000000000002a46fca8d3c000"
          ],
          "data": "0x0000000000000000000000000000000000000000000000000000000066307a04000000000000000000000000699bceebd59a5b52bb586c737cd7ba636f3fe60200000000000000000000000000000000000000000000000000000000000138820000000000000000000000000000000000000000000000a2a15d09519be000000000000000000000000000000000000000000000000000000de0b6b3a7640000",
          "blockHash": "0x4a4aedceb1ab30d0e6752d1a5e3345ae3e863ce6ef3eed599821216590a18842",
          "blockNumber": "0x589a8a",
          "transactionHash": "0xe7a89a44e45111cee1ee786fd77cd4ed52b9f314452ef2b21ccb6656b1e11d0a",
          "transactionIndex": "0x36",
          "logIndex": "0x63",
          "removed": false
        },
        {
          "address": "0x23dd1aa37b5c81d64586c021330d61d3ad55aafb",
          "topics": [
            "0x9853b992610853aa2f058d95d0a4868ffcd37470b93a5e6634619467e0d4228c",
            "0x3e1c64418b130c18a4740aa808fbae8acc235dab0a3ef56b807e495f5924d912",
            "0x000000000000000000000000699bceebd59a5b52bb586c737cd7ba636f3fe602",
            "0x000000000000000000000000000000000000000000000000002aa1efb94e0000"
          ],
          "data": "0x0000000000000000000000000000000000000000000000000000000066307a04000000000000000000000000699bceebd59a5b52bb586c737cd7ba636f3fe60200000000000000000000000000000000000000000000000000000000000138820000000000000000000000000000000000000000000000a2a15d09519be000000000000000000000000000000000000000000000000000000de0b6b3a7640000",
          "blockHash": "0x4a4aedceb1ab30d0e6752d1a5e3345ae3e863ce6ef3eed599821216590a18842",
          "blockNumber": "0x589a8a",
          "transactionHash": "0xe7a89a44e45111cee1ee786fd77cd4ed52b9f314452ef2b21ccb6656b1e11d0a",
          "transactionIndex": "0x36",
          "logIndex": "0x64",
          "removed": false
        },
        {
          "address": "0x23dd1aa37b5c81d64586c021330d61d3ad55aafb",
          "topics": [
            "0x9853b992610853aa2f058d95d0a4868ffcd37470b93a5e6634619467e0d4228c",
            "0x7e49d9c96d1c0253d1dc0eef831737f76520998ebea9b99f740b70c0e27ed4a1",
            "0x000000000000000000000000699bceebd59a5b52bb586c737cd7ba636f3fe602",
            "0x000000000000000000000000000000000000000000000000002afce2c9c84000"
          ],
          "data": "0x0000000000000000000000000000000000000000000000000000000066307a04000000000000000000000000699bceebd59a5b52bb586c737cd7ba636f3fe60200000000000000000000000000000000000000000000000000000000000138820000000000000000000000000000000000000000000000a2a15d09519be000000000000000000000000000000000000000000000000000000de0b6b3a7640000",
          "blockHash": "0x4a4aedceb1ab30d0e6752d1a5e3345ae3e863ce6ef3eed599821216590a18842",
          "blockNumber": "0x589a8a",
          "transactionHash": "0xe7a89a44e45111cee1ee786fd77cd4ed52b9f314452ef2b21ccb6656b1e11d0a",
          "transactionIndex": "0x36",
          "logIndex": "0x65",
          "removed": false
        },
        {
          "address": "0x23dd1aa37b5c81d64586c021330d61d3ad55aafb",
          "topics": [
            "0x9853b992610853aa2f058d95d0a4868ffcd37470b93a5e6634619467e0d4228c",
            "0x39b2c6179dde5d09facc37c89e8adbe4073a772dc921d8564f168737028b9be4",
            "0x000000000000000000000000699bceebd59a5b52bb586c737cd7ba636f3fe602",
            "0x000000000000000000000000000000000000000000000000002b57d5da428000"
          ],
          "data": "0x0000000000000000000000000000000000000000000000000000000066307a04000000000000000000000000699bceebd59a5b52bb586c737cd7ba636f3fe60200000000000000000000000000000000000000000000000000000000000138820000000000000000000000000000000000000000000000a2a15d09519be000000000000000000000000000000000000000000000000000000de0b6b3a7640000",
          "blockHash": "0x4a4aedceb1ab30d0e6752d1a5e3345ae3e863ce6ef3eed599821216590a18842",
          "blockNumber": "0x589a8a",
          "transactionHash": "0xe7a89a44e45111cee1ee786fd77cd4ed52b9f314452ef2b21ccb6656b1e11d0a",
          "transactionIndex": "0x36",
          "logIndex": "0x66",
          "removed": false
        },
        {
          "address": "0x23dd1aa37b5c81d64586c021330d61d3ad55aafb",
          "topics": [
            "0x9853b992610853aa2f058d95d0a4868ffcd37470b93a5e6634619467e0d4228c",
            "0xe5d04a76756b95e341cb1143c83e2b9043df8e66bd39126260a2ae9e99210a61",
            "0x000000000000000000000000699bceebd59a5b52bb586c737cd7ba636f3fe602",
            "0x000000000000000000000000000000000000000000000000002bb2c8eabcc000"
          ],
          "data": "0x0000000000000000000000000000000000000000000000000000000066307a04000000000000000000000000699bceebd59a5b52bb586c737cd7ba636f3fe60200000000000000000000000000000000000000000000000000000000000138820000000000000000000000000000000000000000000000a2a15d09519be000000000000000000000000000000000000000000000000000000de0b6b3a7640000",
          "blockHash": "0x4a4aedceb1ab30d0e6752d1a5e3345ae3e863ce6ef3eed599821216590a18842",
          "blockNumber": "0x589a8a",
          "transactionHash": "0xe7a89a44e45111cee1ee786fd77cd4ed52b9f314452ef2b21ccb6656b1e11d0a",
          "transactionIndex": "0x36",
          "logIndex": "0x67",
          "removed": false
        },
        {
          "address": "0x23dd1aa37b5c81d64586c021330d61d3ad55aafb",
          "topics": [
            "0x9853b992610853aa2f058d95d0a4868ffcd37470b93a5e6634619467e0d4228c",
            "0xae6b269eb51084fcdb051fc069dad967036da163ae3a11d9436f304943980dc2",
            "0x000000000000000000000000699bceebd59a5b52bb586c737cd7ba636f3fe602",
            "0x000000000000000000000000000000000000000000000000002c0dbbfb370000"
          ],
          "data": "0x0000000000000000000000000000000000000000000000000000000066307a04000000000000000000000000699bceebd59a5b52bb586c737cd7ba636f3fe60200000000000000000000000000000000000000000000000000000000000138820000000000000000000000000000000000000000000000a2a15d09519be000000000000000000000000000000000000000000000000000000de0b6b3a7640000",
          "blockHash": "0x4a4aedceb1ab30d0e6752d1a5e3345ae3e863ce6ef3eed599821216590a18842",
          "blockNumber": "0x589a8a",
          "transactionHash": "0xe7a89a44e45111cee1ee786fd77cd4ed52b9f314452ef2b21ccb6656b1e11d0a",
          "transactionIndex": "0x36",
          "logIndex": "0x68",
          "removed": false
        },
        {
          "address": "0x23dd1aa37b5c81d64586c021330d61d3ad55aafb",
          "topics": [
            "0x9853b992610853aa2f058d95d0a4868ffcd37470b93a5e6634619467e0d4228c",
            "0x3c32c54044426b37a6d8bd82226b666c429152410bc2e945fba4f605f5fe82c9",
            "0x000000000000000000000000699bceebd59a5b52bb586c737cd7ba636f3fe602",
            "0x000000000000000000000000000000000000000000000000002c68af0bb14000"
          ],
          "data": "0x0000000000000000000000000000000000000000000000000000000066307a04000000000000000000000000699bceebd59a5b52bb586c737cd7ba636f3fe60200000000000000000000000000000000000000000000000000000000000138820000000000000000000000000000000000000000000000a2a15d09519be000000000000000000000000000000000000000000000000000000de0b6b3a7640000",
          "blockHash": "0x4a4aedceb1ab30d0e6752d1a5e3345ae3e863ce6ef3eed599821216590a18842",
          "blockNumber": "0x589a8a",
          "transactionHash": "0xe7a89a44e45111cee1ee786fd77cd4ed52b9f314452ef2b21ccb6656b1e11d0a",
          "transactionIndex": "0x36",
          "logIndex": "0x69",
          "removed": false
        }
      ],
      "logsBloom": "0x00000400020000008000000000000000200900000000000800400000000000000022400010200010000040800000021080000010000000000000000020001000010002000010001000000000000800000008000000040000200100840040002200801000008000000000000400400000000040008000000000000000000004004001000041a00000000000000250020000000000000400004000000000280000800010000800000044018000000002040000080005000000400000040000000000000002000000000000004100008000000001000120000400000002000040800000050240100000025001000000000000000100a00000000010000000000000",
      "type": "0x2",
      "transactionHash": "0xe7a89a44e45111cee1ee786fd77cd4ed52b9f314452ef2b21ccb6656b1e11d0a",
      "transactionIndex": "0x36",
      "blockHash": "0x4a4aedceb1ab30d0e6752d1a5e3345ae3e863ce6ef3eed599821216590a18842",
      "blockNumber": "0x589a8a",
      "gasUsed": "0x2c64e",
      "effectiveGasPrice": "0x7648474a",
      "from": "0x699bceebd59a5b52bb586c737cd7ba636f3fe602",
      "to": "0x23dd1aa37b5c81d64586c021330d61d3ad55aafb",
      "contractAddress": null
    }
  ],
  "libraries": [],
  "pending": [],
  "returns": {},
  "timestamp": 1714453002,
  "chain": 11155111,
  "commit": "9546700"
}