{
  "transactions": [
    {
      "hash": "0xbecf08d4accec08c626bd42a21077c5b431489d6d5540e33a06e43d22c8ba406",
      "transactionType": "CALL",
      "contractName": null,
      "contractAddress": "0x23dd1aa37b5c81d64586c021330d61d3ad55aafb",
      "function": "postMessage((address,uint256,uint256)[])",
      "arguments": [
        "[(0x699BceEbD59a5b52bB586C737cD7ba636f3Fe602, 80002, 11100000000000000), (0x699BceEbD59a5b52bB586C737cD7ba636f3Fe602, 80002, 11200000000000000), (0x699BceEbD59a5b52bB586C737cD7ba636f3Fe602, 80002, 11300000000000000), (0x699BceEbD59a5b52bB586C737cD7ba636f3Fe602, 80002, 11400000000000000), (0x699BceEbD59a5b52bB586C737cD7ba636f3Fe602, 80002, 11500000000000000)]"
      ],
      "transaction": {
        "from": "0x699bceebd59a5b52bb586c737cd7ba636f3fe602",
        "to": "0x23dd1aa37b5c81d64586c021330d61d3ad55aafb",
        "gas": "0x274b6",
        "value": "0xd529ae9e860000",
        "input": "0x42cbee8d00000000000000000000000000000000000000000000000000000000000000200000000000000000000000000000000000000000000000000000000000000005000000000000000000000000699bceebd59a5b52bb586c737cd7ba636f3fe602000000000000000000000000000000000000000000000000000000000001388200000000000000000000000000000000000000000000000000276f642501c000000000000000000000000000699bceebd59a5b52bb586c737cd7ba636f3fe60200000000000000000000000000000000000000000000000000000000000138820000000000000000000000000000000000000000000000000027ca57357c0000000000000000000000000000699bceebd59a5b52bb586c737cd7ba636f3fe60200000000000000000000000000000000000000000000000000000000000138820000000000000000000000000000000000000000000000000028254a45f64000000000000000000000000000699bceebd59a5b52bb586c737cd7ba636f3fe60200000000000000000000000000000000000000000000000000000000000138820000000000000000000000000000000000000000000000000028803d56708000000000000000000000000000699bceebd59a5b52bb586c737cd7ba636f3fe60200000000000000000000000000000000000000000000000000000000000138820000000000000000000000000000000000000000000000000028db3066eac000",
        "nonce": "0x176",
        "chainId": "0xaa36a7",
        "accessList": null,
        "type": null
      },
      "additionalContracts": [],
      "isFixedGasLimit": false
    }
  ],
  "receipts": [
    {
      "status": "0x1",
      "cumulativeGasUsed": "0x5b1b6d",
      "logs": [
        {
          "address": "0x23dd1aa37b5c81d64586c021330d61d3ad55aafb",
          "topics": [
            "0x9853b992610853aa2f058d95d0a4868ffcd37470b93a5e6634619467e0d4228c",
            "0x056d0495dad1213eba9674aa443be578379337a36e2832a2458abadaa716b60f",
            "0x000000000000000000000000699bceebd59a5b52bb586c737cd7ba636f3fe602",
            "0x00000000000000000000000000000000000000000000000000276f642501c000"
          ],
          "data": "0x00000000000000000000000000000000000000000000000000000000662ff844000000000000000000000000699bceebd59a5b52bb586c737cd7ba636f3fe60200000000000000000000000000000000000000000000000000000000000138820000000000000000000000000000000000000000000000a2a15d09519be000000000000000000000000000000000000000000000000000000de0b6b3a7640000",
          "blockHash": "0x8e129cf774ebf09cfb0decc64686961d3eb649ee19f04cf53f8748855cc7991d",
          "blockNumber": "0x58913b",
          "transactionHash": "0xbecf08d4accec08c626bd42a21077c5b431489d6d5540e33a06e43d22c8ba406",
          "transactionIndex": "0x26",
          "logIndex": "0x42",
          "removed": false
        },
        {
          "address": "0x23dd1aa37b5c81d64586c021330d61d3ad55aafb",
          "topics": [
            "0x9853b992610853aa2f058d95d0a4868ffcd37470b93a5e6634619467e0d4228c",
            "0x1ec2b4970a11f14f5677159c236a1aaec5e9670c3d9f3011d5fb32792c473961",
            "0x000000000000000000000000699bceebd59a5b52bb586c737cd7ba636f3fe602",
            "0x0000000000000000000000000000000000000000000000000027ca57357c0000"
          ],
          "data": "0x00000000000000000000000000000000000000000000000000000000662ff844000000000000000000000000699bceebd59a5b52bb586c737cd7ba636f3fe60200000000000000000000000000000000000000000000000000000000000138820000000000000000000000000000000000000000000000a2a15d09519be000000000000000000000000000000000000000000000000000000de0b6b3a7640000",
          "blockHash": "0x8e129cf774ebf09cfb0decc64686961d3eb649ee19f04cf53f8748855cc7991d",
          "blockNumber": "0x58913b",
          "transactionHash": "0xbecf08d4accec08c626bd42a21077c5b431489d6d5540e33a06e43d22c8ba406",
          "transactionIndex": "0x26",
          "logIndex": "0x43",
          "removed": false
        },
        {
          "address": "0x23dd1aa37b5c81d64586c021330d61d3ad55aafb",
          "topics": [
            "0x9853b992610853aa2f058d95d0a4868ffcd37470b93a5e6634619467e0d4228c",
            "0x3ad5b7164f475b7d5f04adf86083a01aff51b76e61a3867d09e17874ddbac6fb",
            "0x000000000000000000000000699bceebd59a5b52bb586c737cd7ba636f3fe602",
            "0x0000000000000000000000000000000000000000000000000028254a45f64000"
          ],
          "data": "0x00000000000000000000000000000000000000000000000000000000662ff844000000000000000000000000699bceebd59a5b52bb586c737cd7ba636f3fe60200000000000000000000000000000000000000000000000000000000000138820000000000000000000000000000000000000000000000a2a15d09519be000000000000000000000000000000000000000000000000000000de0b6b3a7640000",
          "blockHash": "0x8e129cf774ebf09cfb0decc64686961d3eb649ee19f04cf53f8748855cc7991d",
          "blockNumber": "0x58913b",
          "transactionHash": "0xbecf08d4accec08c626bd42a21077c5b431489d6d5540e33a06e43d22c8ba406",
          "transactionIndex": "0x26",
          "logIndex": "0x44",
          "removed": false
        },
        {
          "address": "0x23dd1aa37b5c81d64586c021330d61d3ad55aafb",
          "topics": [
            "0x9853b992610853aa2f058d95d0a4868ffcd37470b93a5e6634619467e0d4228c",
            "0x2627572df720bc9190fdac794a5383b5cd71cc66ac2f0880800047b17005f408",
            "0x000000000000000000000000699bceebd59a5b52bb586c737cd7ba636f3fe602",
            "0x0000000000000000000000000000000000000000000000000028803d56708000"
          ],
          "data": "0x00000000000000000000000000000000000000000000000000000000662ff844000000000000000000000000699bceebd59a5b52bb586c737cd7ba636f3fe60200000000000000000000000000000000000000000000000000000000000138820000000000000000000000000000000000000000000000a2a15d09519be000000000000000000000000000000000000000000000000000000de0b6b3a7640000",
          "blockHash": "0x8e129cf774ebf09cfb0decc64686961d3eb649ee19f04cf53f8748855cc7991d",
          "blockNumber": "0x58913b",
          "transactionHash": "0xbecf08d4accec08c626bd42a21077c5b431489d6d5540e33a06e43d22c8ba406",
          "transactionIndex": "0x26",
          "logIndex": "0x45",
          "removed": false
        },
        {
          "address": "0x23dd1aa37b5c81d64586c021330d61d3ad55aafb",
          "topics": [
            "0x9853b992610853aa2f058d95d0a4868ffcd37470b93a5e6634619467e0d4228c",
            "0xa2b399a080653bc4c64ff005e68ad7370ceaf0c8b28b0c2ac6755b990e0df382",
            "0x000000000000000000000000699bceebd59a5b52bb586c737cd7ba636f3fe602",
            "0x0000000000000000000000000000000000000000000000000028db3066eac000"
          ],
          "data": "0x00000000000000000000000000000000000000000000000000000000662ff844000000000000000000000000699bceebd59a5b52bb586c737cd7ba636f3fe60200000000000000000000000000000000000000000000000000000000000138820000000000000000000000000000000000000000000000a2a15d09519be000000000000000000000000000000000000000000000000000000de0b6b3a7640000",
          "blockHash": "0x8e129cf774ebf09cfb0decc64686961d3eb649ee19f04cf53f8748855cc7991d",
          "blockNumber": "0x58913b",
          "transactionHash": "0xbecf08d4accec08c626bd42a21077c5b431489d6d5540e33a06e43d22c8ba406",
          "transactionIndex": "0x26",
          "logIndex": "0x46",
          "removed": false
        }
      ],
      "logsBloom": "0x00000001000000008000000000000000200000000000000000400000000000000000400000000010000000800000001000200000000000000000000000000000010000000000000000000000002002000000000000000000000000000000000000800000000000000000000400000000000002008000000000001000000000000000000000000000000000000250020000000000010000000000000000001000000000000000000004000000000000000000000000000000000000040000000000000000000000000080014000008000010400000000000000000000000000000000010200000000005001000000000000000100200000000400000000000000",
      "type": "0x2",
      "transactionHash": "0xbecf08d4accec08c626bd42a21077c5b431489d6d5540e33a06e43d22c8ba406",
      "transactionIndex": "0x26",
      "blockHash": "0x8e129cf774ebf09cfb0decc64686961d3eb649ee19f04cf53f8748855cc7991d",
      "blockNumber": "0x58913b",
      "gasUsed": "0x1c72e",
      "effectiveGasPrice": "0x44cdf863",
      "from": "0x699bceebd59a5b52bb586c737cd7ba636f3fe602",
      "to": "0x23dd1aa37b5c81d64586c021330d61d3ad55aafb",
      "contractAddress": null
    }
  ],
  "libraries": [],
  "pending": [],
  "returns": {},
  "timestamp": 1714419787,
  "chain": 11155111,
  "commit": "9546700"
}