{
  "transactions": [
    {
      "hash": "0x44c3da5d228db015b05901e33045a8c0619d3848afd1d377effea1af70069bcf",
      "transactionType": "CALL",
      "contractName": null,
      "contractAddress": "0x23dd1aa37b5c81d64586c021330d61d3ad55aafb",
      "function": "postMessage((address,uint256,uint256)[])",
      "arguments": [
        "[(0x699BceEbD59a5b52bB586C737cD7ba636f3Fe602, 80002, 11100000000000000), (0x699BceEbD59a5b52bB586C737cD7ba636f3Fe602, 80002, 11200000000000000), (0x699BceEbD59a5b52bB586C737cD7ba636f3Fe602, 80002, 11300000000000000), (0x699BceEbD59a5b52bB586C737cD7ba636f3Fe602, 80002, 11400000000000000), (0x699BceEbD59a5b52bB586C737cD7ba636f3Fe602, 80002, 11500000000000000)]"
      ],
      "transaction": {
        "from": "0x699bceebd59a5b52bb586c737cd7ba636f3fe602",
        "to": "0x23dd1aa37b5c81d64586c021330d61d3ad55aafb",
        "gas": "0x274b6",
        "value": "0xd529ae9e860000",
        "input": "0x42cbee8d00000000000000000000000000000000000000000000000000000000000000200000000000000000000000000000000000000000000000000000000000000005000000000000000000000000699bceebd59a5b52bb586c737cd7ba636f3fe602000000000000000000000000000000000000000000000000000000000001388200000000000000000000000000000000000000000000000000276f642501c000000000000000000000000000699bceebd59a5b52bb586c737cd7ba636f3fe60200000000000000000000000000000000000000000000000000000000000138820000000000000000000000000000000000000000000000000027ca57357c0000000000000000000000000000699bceebd59a5b52bb586c737cd7ba636f3fe60200000000000000000000000000000000000000000000000000000000000138820000000000000000000000000000000000000000000000000028254a45f64000000000000000000000000000699bceebd59a5b52bb586c737cd7ba636f3fe60200000000000000000000000000000000000000000000000000000000000138820000000000000000000000000000000000000000000000000028803d56708000000000000000000000000000699bceebd59a5b52bb586c737cd7ba636f3fe60200000000000000000000000000000000000000000000000000000000000138820000000000000000000000000000000000000000000000000028db3066eac000",
        "nonce": "0x18c",
        "chainId": "0xaa36a7",
        "accessList": null,
        "type": null
      },
      "additionalContracts": [],
      "isFixedGasLimit": false
    }
  ],
  "receipts": [
    {
      "status": "0x1",
      "cumulativeGasUsed": "0x5088b3",
      "logs": [
        {
          "address": "0x23dd1aa37b5c81d64586c021330d61d3ad55aafb",
          "topics": [
            "0x9853b992610853aa2f058d95d0a4868ffcd37470b93a5e6634619467e0d4228c",
            "0x7670850e8901b4ec131560758335419060d53bf6fdd53d9ab9b9e183e4da5e28",
            "0x000000000000000000000000699bceebd59a5b52bb586c737cd7ba636f3fe602",
            "0x00000000000000000000000000000000000000000000000000276f642501c000"
          ],
          "data": "0x000000000000000000000000000000000000000000000000000000006630381c000000000000000000000000699bceebd59a5b52bb586c737cd7ba636f3fe60200000000000000000000000000000000000000000000000000000000000138820000000000000000000000000000000000000000000000a2a15d09519be000000000000000000000000000000000000000000000000000000de0b6b3a7640000",
          "blockHash": "0xe06bd3ba853a6b5fa722d386f71eb43ff4886f87f9f4e7f0486d57c2e7ae6260",
          "blockNumber": "0x5895ef",
          "transactionHash": "0x44c3da5d228db015b05901e33045a8c0619d3848afd1d377effea1af70069bcf",
          "transactionIndex": "0x48",
          "logIndex": "0x3f",
          "removed": false
        },
        {
          "address": "0x23dd1aa37b5c81d64586c021330d61d3ad55aafb",
          "topics": [
            "0x9853b992610853aa2f058d95d0a4868ffcd37470b93a5e6634619467e0d4228c",
            "0x50f59e26799749c6e307dc491cccca219294ef04ef99e03a0c95df277b125761",
            "0x000000000000000000000000699bceebd59a5b52bb586c737cd7ba636f3fe602",
            "0x0000000000000000000000000000000000000000000000000027ca57357c0000"
          ],
          "data": "0x000000000000000000000000000000000000000000000000000000006630381c000000000000000000000000699bceebd59a5b52bb586c737cd7ba636f3fe60200000000000000000000000000000000000000000000000000000000000138820000000000000000000000000000000000000000000000a2a15d09519be000000000000000000000000000000000000000000000000000000de0b6b3a7640000",
          "blockHash": "0xe06bd3ba853a6b5fa722d386f71eb43ff4886f87f9f4e7f0486d57c2e7ae6260",
          "blockNumber": "0x5895ef",
          "transactionHash": "0x44c3da5d228db015b05901e33045a8c0619d3848afd1d377effea1af70069bcf",
          "transactionIndex": "0x48",
          "logIndex": "0x40",
          "removed": false
        },
        {
          "address": "0x23dd1aa37b5c81d64586c021330d61d3ad55aafb",
          "topics": [
            "0x9853b992610853aa2f058d95d0a4868ffcd37470b93a5e6634619467e0d4228c",
            "0xcc2d810fb35cfad59cc263f0502054b4927b1a2479be8614cfd1303c6fde860f",
            "0x000000000000000000000000699bceebd59a5b52bb586c737cd7ba636f3fe602",
            "0x0000000000000000000000000000000000000000000000000028254a45f64000"
          ],
          "data": "0x000000000000000000000000000000000000000000000000000000006630381c000000000000000000000000699bceebd59a5b52bb586c737cd7ba636f3fe60200000000000000000000000000000000000000000000000000000000000138820000000000000000000000000000000000000000000000a2a15d09519be000000000000000000000000000000000000000000000000000000de0b6b3a7640000",
          "blockHash": "0xe06bd3ba853a6b5fa722d386f71eb43ff4886f87f9f4e7f0486d57c2e7ae6260",
          "blockNumber": "0x5895ef",
          "transactionHash": "0x44c3da5d228db015b05901e33045a8c0619d3848afd1d377effea1af70069bcf",
          "transactionIndex": "0x48",
          "logIndex": "0x41",
          "removed": false
        },
        {
          "address": "0x23dd1aa37b5c81d64586c021330d61d3ad55aafb",
          "topics": [
            "0x9853b992610853aa2f058d95d0a4868ffcd37470b93a5e6634619467e0d4228c",
            "0x00a653bdad7cb902b3ca4941c453f1f6795c035b84799b135e1858f8719fcedf",
            "0x000000000000000000000000699bceebd59a5b52bb586c737cd7ba636f3fe602",
            "0x0000000000000000000000000000000000000000000000000028803d56708000"
          ],
          "data": "0x000000000000000000000000000000000000000000000000000000006630381c000000000000000000000000699bceebd59a5b52bb586c737cd7ba636f3fe60200000000000000000000000000000000000000000000000000000000000138820000000000000000000000000000000000000000000000a2a15d09519be000000000000000000000000000000000000000000000000000000de0b6b3a7640000",
          "blockHash": "0xe06bd3ba853a6b5fa722d386f71eb43ff4886f87f9f4e7f0486d57c2e7ae6260",
          "blockNumber": "0x5895ef",
          "transactionHash": "0x44c3da5d228db015b05901e33045a8c0619d3848afd1d377effea1af70069bcf",
          "transactionIndex": "0x48",
          "logIndex": "0x42",
          "removed": false
        },
        {
          "address": "0x23dd1aa37b5c81d64586c021330d61d3ad55aafb",
          "topics": [
            "0x9853b992610853aa2f058d95d0a4868ffcd37470b93a5e6634619467e0d4228c",
            "0x88ceef3f03d5c957ca0c5db982d88e5217e00cda24424c3325f253830b1d8255",
            "0x000000000000000000000000699bceebd59a5b52bb586c737cd7ba636f3fe602",
            "0x0000000000000000000000000000000000000000000000000028db3066eac000"
          ],
          "data": "0x000000000000000000000000000000000000000000000000000000006630381c000000000000000000000000699bceebd59a5b52bb586c737cd7ba636f3fe60200000000000000000000000000000000000000000000000000000000000138820000000000000000000000000000000000000000000000a2a15d09519be000000000000000000000000000000000000000000000000000000de0b6b3a7640000",
          "blockHash": "0xe06bd3ba853a6b5fa722d386f71eb43ff4886f87f9f4e7f0486d57c2e7ae6260",
          "blockNumber": "0x5895ef",
          "transactionHash": "0x44c3da5d228db015b05901e33045a8c0619d3848afd1d377effea1af70069bcf",
          "transactionIndex": "0x48",
          "logIndex": "0x43",
          "removed": false
        }
      ],
      "logsBloom": "0x00000000000000000000000000000000240000000000000000400000000000000000400000000010000000800100001000000000000000000000000000000000010000000000000000000000000000000000000000000000000000000000000000800000000000000100000600200000000400208000000000000000000000000000000000000001000100000210020000000000000004000020000000000000000000000000000004000000000000000000000000000000000000040000000000000000000000000000004000088000000000000000000000000000080000000000010200600000005001000000000000000100200000000000000000000000",
      "type": "0x2",
      "transactionHash": "0x44c3da5d228db015b05901e33045a8c0619d3848afd1d377effea1af70069bcf",
      "transactionIndex": "0x48",
      "blockHash": "0xe06bd3ba853a6b5fa722d386f71eb43ff4886f87f9f4e7f0486d57c2e7ae6260",
      "blockNumber": "0x5895ef",
      "gasUsed": "0x1c72e",
      "effectiveGasPrice": "0x3ba0b2fa",
      "from": "0x699bceebd59a5b52bb586c737cd7ba636f3fe602",
      "to": "0x23dd1aa37b5c81d64586c021330d61d3ad55aafb",
      "contractAddress": null
    }
  ],
  "libraries": [],
  "pending": [],
  "returns": {},
  "timestamp": 1714436128,
  "chain": 11155111,
  "commit": "9546700"
}