{
  "transactions": [
    {
      "hash": "0xa065614485dcd2f76c2800bb2e498a0419953704fd1d012541a9e5e5d23375f2",
      "transactionType": "CALL",
      "contractName": null,
      "contractAddress": "0x23dd1aa37b5c81d64586c021330d61d3ad55aafb",
      "function": "postMessage((address,uint256,uint256)[])",
      "arguments": [
        "[(0x699BceEbD59a5b52bB586C737cD7ba636f3Fe602, 80002, 11100000000000000), (0x699BceEbD59a5b52bB586C737cD7ba636f3Fe602, 80002, 11200000000000000), (0x699BceEbD59a5b52bB586C737cD7ba636f3Fe602, 80002, 11300000000000000), (0x699BceEbD59a5b52bB586C737cD7ba636f3Fe602, 80002, 11400000000000000), (0x699BceEbD59a5b52bB586C737cD7ba636f3Fe602, 80002, 11500000000000000)]"
      ],
      "transaction": {
        "from": "0x699bceebd59a5b52bb586c737cd7ba636f3fe602",
        "to": "0x23dd1aa37b5c81d64586c021330d61d3ad55aafb",
        "gas": "0x2933c",
        "value": "0xd529ae9e860000",
        "input": "0x42cbee8d00000000000000000000000000000000000000000000000000000000000000200000000000000000000000000000000000000000000000000000000000000005000000000000000000000000699bceebd59a5b52bb586c737cd7ba636f3fe602000000000000000000000000000000000000000000000000000000000001388200000000000000000000000000000000000000000000000000276f642501c000000000000000000000000000699bceebd59a5b52bb586c737cd7ba636f3fe60200000000000000000000000000000000000000000000000000000000000138820000000000000000000000000000000000000000000000000027ca57357c0000000000000000000000000000699bceebd59a5b52bb586c737cd7ba636f3fe60200000000000000000000000000000000000000000000000000000000000138820000000000000000000000000000000000000000000000000028254a45f64000000000000000000000000000699bceebd59a5b52bb586c737cd7ba636f3fe60200000000000000000000000000000000000000000000000000000000000138820000000000000000000000000000000000000000000000000028803d56708000000000000000000000000000699bceebd59a5b52bb586c737cd7ba636f3fe60200000000000000000000000000000000000000000000000000000000000138820000000000000000000000000000000000000000000000000028db3066eac000",
        "nonce": "0x167",
        "chainId": "0xaa36a7",
        "accessList": null,
        "type": null
      },
      "additionalContracts": [],
      "isFixedGasLimit": false
    }
  ],
  "receipts": [
    {
      "status": "0x1",
      "cumulativeGasUsed": "0xc341ee",
      "logs": [
        {
          "address": "0x23dd1aa37b5c81d64586c021330d61d3ad55aafb",
          "topics": [
            "0x9853b992610853aa2f058d95d0a4868ffcd37470b93a5e6634619467e0d4228c",
            "0xc745d641da8914ed0e3460227a9ca5539c994cf6e00395b843fb738439faafe5",
            "0x000000000000000000000000699bceebd59a5b52bb586c737cd7ba636f3fe602",
            "0x00000000000000000000000000000000000000000000000000276f642501c000"
          ],
          "data": "0x00000000000000000000000000000000000000000000000000000000662fc9dc000000000000000000000000699bceebd59a5b52bb586c737cd7ba636f3fe60200000000000000000000000000000000000000000000000000000000000138820000000000000000000000000000000000000000000000a2a15d09519be000000000000000000000000000000000000000000000000000000de0b6b3a7640000",
          "blockHash": "0x5c6f9d7f55e1c875496c743096a577926d03786b0c53af1bfc6a5f32c0e7b558",
          "blockNumber": "0x588db0",
          "transactionHash": "0xa065614485dcd2f76c2800bb2e498a0419953704fd1d012541a9e5e5d23375f2",
          "transactionIndex": "0x35",
          "logIndex": "0x9f",
          "removed": false
        },
        {
          "address": "0x23dd1aa37b5c81d64586c021330d61d3ad55aafb",
          "topics": [
            "0x9853b992610853aa2f058d95d0a4868ffcd37470b93a5e6634619467e0d4228c",
            "0x10a0e912d4b04f17fb33abb189baefb27519acf745f776f5b6124c37ed47fe04",
            "0x000000000000000000000000699bceebd59a5b52bb586c737cd7ba636f3fe602",
            "0x0000000000000000000000000000000000000000000000000027ca57357c0000"
          ],
          "data": "0x00000000000000000000000000000000000000000000000000000000662fc9dc000000000000000000000000699bceebd59a5b52bb586c737cd7ba636f3fe60200000000000000000000000000000000000000000000000000000000000138820000000000000000000000000000000000000000000000a2a15d09519be000000000000000000000000000000000000000000000000000000de0b6b3a7640000",
          "blockHash": "0x5c6f9d7f55e1c875496c743096a577926d03786b0c53af1bfc6a5f32c0e7b558",
          "blockNumber": "0x588db0",
          "transactionHash": "0xa065614485dcd2f76c2800bb2e498a0419953704fd1d012541a9e5e5d23375f2",
          "transactionIndex": "0x35",
          "logIndex": "0xa0",
          "removed": false
        },
        {
          "address": "0x23dd1aa37b5c81d64586c021330d61d3ad55aafb",
          "topics": [
            "0x9853b992610853aa2f058d95d0a4868ffcd37470b93a5e6634619467e0d4228c",
            "0xce055720eeb9be1d8e0b4216bb6edd9c2c5d86f9123c447a6419d415ec670abf",
            "0x000000000000000000000000699bceebd59a5b52bb586c737cd7ba636f3fe602",
            "0x0000000000000000000000000000000000000000000000000028254a45f64000"
          ],
          "data": "0x00000000000000000000000000000000000000000000000000000000662fc9dc000000000000000000000000699bceebd59a5b52bb586c737cd7ba636f3fe60200000000000000000000000000000000000000000000000000000000000138820000000000000000000000000000000000000000000000a2a15d09519be000000000000000000000000000000000000000000000000000000de0b6b3a7640000",
          "blockHash": "0x5c6f9d7f55e1c875496c743096a577926d03786b0c53af1bfc6a5f32c0e7b558",
          "blockNumber": "0x588db0",
          "transactionHash": "0xa065614485dcd2f76c2800bb2e498a0419953704fd1d012541a9e5e5d23375f2",
          "transactionIndex": "0x35",
          "logIndex": "0xa1",
          "removed": false
        },
        {
          "address": "0x23dd1aa37b5c81d64586c021330d61d3ad55aafb",
          "topics": [
            "0x9853b992610853aa2f058d95d0a4868ffcd37470b93a5e6634619467e0d4228c",
            "0x8a2fb78fb1aadf6673e246dba3392d7629a8bb631c0beb622b7f4c62e5e4b199",
            "0x000000000000000000000000699bceebd59a5b52bb586c737cd7ba636f3fe602",
            "0x0000000000000000000000000000000000000000000000000028803d56708000"
          ],
          "data": "0x00000000000000000000000000000000000000000000000000000000662fc9dc000000000000000000000000699bceebd59a5b52bb586c737cd7ba636f3fe60200000000000000000000000000000000000000000000000000000000000138820000000000000000000000000000000000000000000000a2a15d09519be000000000000000000000000000000000000000000000000000000de0b6b3a7640000",
          "blockHash": "0x5c6f9d7f55e1c875496c743096a577926d03786b0c53af1bfc6a5f32c0e7b558",
          "blockNumber": "0x588db0",
          "transactionHash": "0xa065614485dcd2f76c2800bb2e498a0419953704fd1d012541a9e5e5d23375f2",
          "transactionIndex": "0x35",
          "logIndex": "0xa2",
          "removed": false
        },
        {
          "address": "0x23dd1aa37b5c81d64586c021330d61d3ad55aafb",
          "topics": [
            "0x9853b992610853aa2f058d95d0a4868ffcd37470b93a5e6634619467e0d4228c",
            "0x81b6809ec46048df349f814b9d3e5bf8f2d7a11a1ce4b0d8d23912b63cd6f3d0",
            "0x000000000000000000000000699bceebd59a5b52bb586c737cd7ba636f3fe602",
            "0x0000000000000000000000000000000000000000000000000028db3066eac000"
          ],
          "data": "0x00000000000000000000000000000000000000000000000000000000662fc9dc000000000000000000000000699bceebd59a5b52bb586c737cd7ba636f3fe60200000000000000000000000000000000000000000000000000000000000138820000000000000000000000000000000000000000000000a2a15d09519be000000000000000000000000000000000000000000000000000000de0b6b3a7640000",
          "blockHash": "0x5c6f9d7f55e1c875496c743096a577926d03786b0c53af1bfc6a5f32c0e7b558",
          "blockNumber": "0x588db0",
          "transactionHash": "0xa065614485dcd2f76c2800bb2e498a0419953704fd1d012541a9e5e5d23375f2",
          "transactionIndex": "0x35",
          "logIndex": "0xa3",
          "removed": false
        }
      ],
      "logsBloom": "0x00000000000000000000000000000000200000000000000800400000000100000080400000000010000000800000001000000000000000000000000000000000010000000000000000000000000000000000000000000000000000000000000200800000000000000000000400000000000000008000000020000000200000000000000000000000000000000210020000001000002000000000000000000000000000084000000004000000000080000000000000000000000000040000000000000000000000000000004000008080000800000000000000000000000020000000010200000000005001000000000000000100200000000000000000000000",
      "type": "0x2",
      "transactionHash": "0xa065614485dcd2f76c2800bb2e498a0419953704fd1d012541a9e5e5d23375f2",
      "transactionIndex": "0x35",
      "blockHash": "0x5c6f9d7f55e1c875496c743096a577926d03786b0c53af1bfc6a5f32c0e7b558",
      "blockNumber": "0x588db0",
      "gasUsed": "0x1dd47",
      "effectiveGasPrice": "0x12739072b",
      "from": "0x699bceebd59a5b52bb586c737cd7ba636f3fe602",
      "to": "0x23dd1aa37b5c81d64586c021330d61d3ad55aafb",
      "contractAddress": null
    }
  ],
  "libraries": [],
  "pending": [],
  "returns": {},
  "timestamp": 1714407907,
  "chain": 11155111,
  "commit": "9546700"
}