{
  "transactions": [
    {
      "hash": "0x687aac3808ea173791e5cb0abffb028cf43ebdd7b9b6f3ddd3b53f73593d4477",
      "transactionType": "CALL",
      "contractName": null,
      "contractAddress": "0x23dd1aa37b5c81d64586c021330d61d3ad55aafb",
      "function": "postMessage((address,uint256,uint256)[])",
      "arguments": [
        "[(0x699BceEbD59a5b52bB586C737cD7ba636f3Fe602, 80002, 11100000000000000), (0x699BceEbD59a5b52bB586C737cD7ba636f3Fe602, 80002, 11200000000000000), (0x699BceEbD59a5b52bB586C737cD7ba636f3Fe602, 80002, 11300000000000000), (0x699BceEbD59a5b52bB586C737cD7ba636f3Fe602, 80002, 11400000000000000), (0x699BceEbD59a5b52bB586C737cD7ba636f3Fe602, 80002, 11500000000000000)]"
      ],
      "transaction": {
        "from": "0x699bceebd59a5b52bb586c737cd7ba636f3fe602",
        "to": "0x23dd1aa37b5c81d64586c021330d61d3ad55aafb",
        "gas": "0x274b6",
        "value": "0xd529ae9e860000",
        "input": "0x42cbee8d00000000000000000000000000000000000000000000000000000000000000200000000000000000000000000000000000000000000000000000000000000005000000000000000000000000699bceebd59a5b52bb586c737cd7ba636f3fe602000000000000000000000000000000000000000000000000000000000001388200000000000000000000000000000000000000000000000000276f642501c000000000000000000000000000699bceebd59a5b52bb586c737cd7ba636f3fe60200000000000000000000000000000000000000000000000000000000000138820000000000000000000000000000000000000000000000000027ca57357c0000000000000000000000000000699bceebd59a5b52bb586c737cd7ba636f3fe60200000000000000000000000000000000000000000000000000000000000138820000000000000000000000000000000000000000000000000028254a45f64000000000000000000000000000699bceebd59a5b52bb586c737cd7ba636f3fe60200000000000000000000000000000000000000000000000000000000000138820000000000000000000000000000000000000000000000000028803d56708000000000000000000000000000699bceebd59a5b52bb586c737cd7ba636f3fe60200000000000000000000000000000000000000000000000000000000000138820000000000000000000000000000000000000000000000000028db3066eac000",
        "nonce": "0x194",
        "chainId": "0xaa36a7",
        "accessList": null,
        "type": null
      },
      "additionalContracts": [],
      "isFixedGasLimit": false
    }
  ],
  "receipts": [
    {
      "status": "0x1",
      "cumulativeGasUsed": "0xc959ce",
      "logs": [
        {
          "address": "0x23dd1aa37b5c81d64586c021330d61d3ad55aafb",
          "topics": [
            "0x9853b992610853aa2f058d95d0a4868ffcd37470b93a5e6634619467e0d4228c",
            "0x0836a98aaaad2250ab8f7b80eb82de9d42fef064ab1824453a0899d498f03cc8",
            "0x000000000000000000000000699bceebd59a5b52bb586c737cd7ba636f3fe602",
            "0x00000000000000000000000000000000000000000000000000276f642501c000"
          ],
          "data": "0x0000000000000000000000000000000000000000000000000000000066306fb4000000000000000000000000699bceebd59a5b52bb586c737cd7ba636f3fe60200000000000000000000000000000000000000000000000000000000000138820000000000000000000000000000000000000000000000a2a15d09519be000000000000000000000000000000000000000000000000000000de0b6b3a7640000",
          "blockHash": "0x21f6e62647f3b2a66f292ea1fcba39877585fafe6dab81783736c0756138c10f",
          "blockNumber": "0x5899d4",
          "transactionHash": "0x687aac3808ea173791e5cb0abffb028cf43ebdd7b9b6f3ddd3b53f73593d4477",
          "transactionIndex": "0x5e",
          "logIndex": "0xe5",
          "removed": false
        },
        {
          "address": "0x23dd1aa37b5c81d64586c021330d61d3ad55aafb",
          "topics": [
            "0x9853b992610853aa2f058d95d0a4868ffcd37470b93a5e6634619467e0d4228c",
            "0xeb161516ed7543803b4a62a034cd9e52ca9adc15d844d3fd275d5794f8d65fbb",
            "0x000000000000000000000000699bceebd59a5b52bb586c737cd7ba636f3fe602",
            "0x0000000000000000000000000000000000000000000000000027ca57357c0000"
          ],
          "data": "0x0000000000000000000000000000000000000000000000000000000066306fb4000000000000000000000000699bceebd59a5b52bb586c737cd7ba636f3fe60200000000000000000000000000000000000000000000000000000000000138820000000000000000000000000000000000000000000000a2a15d09519be000000000000000000000000000000000000000000000000000000de0b6b3a7640000",
          "blockHash": "0x21f6e62647f3b2a66f292ea1fcba39877585fafe6dab81783736c0756138c10f",
          "blockNumber": "0x5899d4",
          "transactionHash": "0x687aac3808ea173791e5cb0abffb028cf43ebdd7b9b6f3ddd3b53f73593d4477",
          "transactionIndex": "0x5e",
          "logIndex": "0xe6",
          "removed": false
        },
        {
          "address": "0x23dd1aa37b5c81d64586c021330d61d3ad55aafb",
          "topics": [
            "0x9853b992610853aa2f058d95d0a4868ffcd37470b93a5e6634619467e0d4228c",
            "0x98ff5c483a0d3176b69e38b7e2303aaad96e9aa80f6c0a89602dd981ebc4e646",
            "0x000000000000000000000000699bceebd59a5b52bb586c737cd7ba636f3fe602",
            "0x0000000000000000000000000000000000000000000000000028254a45f64000"
          ],
          "data": "0x0000000000000000000000000000000000000000000000000000000066306fb4000000000000000000000000699bceebd59a5b52bb586c737cd7ba636f3fe60200000000000000000000000000000000000000000000000000000000000138820000000000000000000000000000000000000000000000a2a15d09519be000000000000000000000000000000000000000000000000000000de0b6b3a7640000",
          "blockHash": "0x21f6e62647f3b2a66f292ea1fcba39877585fafe6dab81783736c0756138c10f",
          "blockNumber": "0x5899d4",
          "transactionHash": "0x687aac3808ea173791e5cb0abffb028cf43ebdd7b9b6f3ddd3b53f73593d4477",
          "transactionIndex": "0x5e",
          "logIndex": "0xe7",
          "removed": false
        },
        {
          "address": "0x23dd1aa37b5c81d64586c021330d61d3ad55aafb",
          "topics": [
            "0x9853b992610853aa2f058d95d0a4868ffcd37470b93a5e6634619467e0d4228c",
            "0x19e018b0539e4cc532a16acc6f68a706533c6e5f04837c2e1b139e988079ecbe",
            "0x000000000000000000000000699bceebd59a5b52bb586c737cd7ba636f3fe602",
            "0x0000000000000000000000000000000000000000000000000028803d56708000"
          ],
          "data": "0x0000000000000000000000000000000000000000000000000000000066306fb4000000000000000000000000699bceebd59a5b52bb586c737cd7ba636f3fe60200000000000000000000000000000000000000000000000000000000000138820000000000000000000000000000000000000000000000a2a15d09519be000000000000000000000000000000000000000000000000000000de0b6b3a7640000",
          "blockHash": "0x21f6e62647f3b2a66f292ea1fcba39877585fafe6dab81783736c0756138c10f",
          "blockNumber": "0x5899d4",
          "transactionHash": "0x687aac3808ea173791e5cb0abffb028cf43ebdd7b9b6f3ddd3b53f73593d4477",
          "transactionIndex": "0x5e",
          "logIndex": "0xe8",
          "removed": false
        },
        {
          "address": "0x23dd1aa37b5c81d64586c021330d61d3ad55aafb",
          "topics": [
            "0x9853b992610853aa2f058d95d0a4868ffcd37470b93a5e6634619467e0d4228c",
            "0x9b0d5549a66b848fdf32615ec9e5827b4f711908eff36792bc0f8172a6e31c54",
            "0x000000000000000000000000699bceebd59a5b52bb586c737cd7ba636f3fe602",
            "0x0000000000000000000000000000000000000000000000000028db3066eac000"
          ],
          "data": "0x0000000000000000000000000000000000000000000000000000000066306fb4000000000000000000000000699bceebd59a5b52bb586c737cd7ba636f3fe60200000000000000000000000000000000000000000000000000000000000138820000000000000000000000000000000000000000000000a2a15d09519be000000000000000000000000000000000000000000000000000000de0b6b3a7640000",
          "blockHash": "0x21f6e62647f3b2a66f292ea1fcba39877585fafe6dab81783736c0756138c10f",
          "blockNumber": "0x5899d4",
          "transactionHash": "0x687aac3808ea173791e5cb0abffb028cf43ebdd7b9b6f3ddd3b53f73593d4477",
          "transactionIndex": "0x5e",
          "logIndex": "0xe9",
          "removed": false
        }
      ],
      "logsBloom": "0x00000000000000000000008000000000200000000000000000400000000000000000408000000010000000800020001000000000000000004000000000000000010000000000001000000000000000000000000000000000200000000000000000800000000000000000000400000000000000008000000000000000000000000000000000000000000008000210022000000000000000000002000000000000000000000020000006000000000000000000000000000000000001040000000000000000000000000000004000008000000000000000000000000000040001000000010200000000005001000020000000000100200000000000000000000000",
      "type": "0x2",
      "transactionHash": "0x687aac3808ea173791e5cb0abffb028cf43ebdd7b9b6f3ddd3b53f73593d4477",
      "transactionIndex": "0x5e",
      "blockHash": "0x21f6e62647f3b2a66f292ea1fcba39877585fafe6dab81783736c0756138c10f",
      "blockNumber": "0x5899d4",
      "gasUsed": "0x1c72e",
      "effectiveGasPrice": "0x7de2a572",
      "from": "0x699bceebd59a5b52bb586c737cd7ba636f3fe602",
      "to": "0x23dd1aa37b5c81d64586c021330d61d3ad55aafb",
      "contractAddress": null
    }
  ],
  "libraries": [],
  "pending": [],
  "returns": {},
  "timestamp": 1714450362,
  "chain": 11155111,
  "commit": "9546700"
}