{
  "transactions": [
    {
      "hash": "0x1444f666b65c17d68682606f393170b34b4e6df52782871f985901c32b1c3ba3",
      "transactionType": "CALL",
      "contractName": null,
      "contractAddress": "0x23dd1aa37b5c81d64586c021330d61d3ad55aafb",
      "function": "postMessage((address,uint256,uint256)[])",
      "arguments": [
        "[(0x699BceEbD59a5b52bB586C737cD7ba636f3Fe602, 80002, 11100000000000000), (0x699BceEbD59a5b52bB586C737cD7ba636f3Fe602, 80002, 11200000000000000), (0x699BceEbD59a5b52bB586C737cD7ba636f3Fe602, 80002, 11300000000000000), (0x699BceEbD59a5b52bB586C737cD7ba636f3Fe602, 80002, 11400000000000000), (0x699BceEbD59a5b52bB586C737cD7ba636f3Fe602, 80002, 11500000000000000), (0x699BceEbD59a5b52bB586C737cD7ba636f3Fe602, 80002, 11600000000000000), (0x699BceEbD59a5b52bB586C737cD7ba636f3Fe602, 80002, 11700000000000000), (0x699BceEbD59a5b52bB586C737cD7ba636f3Fe602, 80002, 11800000000000000), (0x699BceEbD59a5b52bB586C737cD7ba636f3Fe602, 80002, 11900000000000000), (0x699BceEbD59a5b52bB586C737cD7ba636f3Fe602, 80002, 12000000000000000), (0x699BceEbD59a5b52bB586C737cD7ba636f3Fe602, 80002, 12100000000000000), (0x699BceEbD59a5b52bB586C737cD7ba636f3Fe602, 80002, 12200000000000000), (0x699BceEbD59a5b52bB586C737cD7ba636f3Fe602, 80002, 12300000000000000), (0x699BceEbD59a5b52bB586C737cD7ba636f3Fe602, 80002, 12400000000000000), (0x699BceEbD59a5b52bB586C737cD7ba636f3Fe602, 80002, 12500000000000000), (0x699BceEbD59a5b52bB586C737cD7ba636f3Fe602, 80002, 12600000000000000), (0x699BceEbD59a5b52bB586C737cD7ba636f3Fe602, 80002, 12700000000000000), (0x699BceEbD59a5b52bB586C737cD7ba636f3Fe602, 80002, 12800000000000000), (0x699BceEbD59a5b52bB586C737cD7ba636f3Fe602, 80002, 12900000000000000), (0x699BceEbD59a5b52bB586C737cD7ba636f3Fe602, 80002, 13000000000000000)]"
      ],
      "transaction": {
        "from": "0x699bceebd59a5b52bb586c737cd7ba636f3fe602",
        "to": "0x23dd1aa37b5c81d64586c021330d61d3ad55aafb",
        "gas": "0x4b151",
        "value": "0x39bb49f599a0000",
        "input": "0x42cbee8d00000000000000000000000000000000000000000000000000000000000000200000000000000000000000000000000000000000000000000000000000000014000000000000000000000000699bceebd59a5b52bb586c737cd7ba636f3fe602000000000000000000000000000000000000000000000000000000000001388200000000000000000000000000000000000000000000000000276f642501c000000000000000000000000000699bceebd59a5b52bb586c737cd7ba636f3fe60200000000000000000000000000000000000000000000000000000000000138820000000000000000000000000000000000000000000000000027ca57357c0000000000000000000000000000699bceebd59a5b52bb586c737cd7ba636f3fe60200000000000000000000000000000000000000000000000000000000000138820000000000000000000000000000000000000000000000000028254a45f64000000000000000000000000000699bceebd59a5b52bb586c737cd7ba636f3fe60200000000000000000000000000000000000000000000000000000000000138820000000000000000000000000000000000000000000000000028803d56708000000000000000000000000000699bceebd59a5b52bb586c737cd7ba636f3fe60200000000000000000000000000000000000000000000000000000000000138820000000000000000000000000000000000000000000000000028db3066eac000000000000000000000000000699bceebd59a5b52bb586c737cd7ba636f3fe60200000000000000000000000000000000000000000000000000000000000138820000000000000000000000000000000000000000000000000029362377650000000000000000000000000000699bceebd59a5b52bb586c737cd7ba636f3fe60200000000000000000000000000000000000000000000000000000000000138820000000000000000000000000000000000000000000000000029911687df4000000000000000000000000000699bceebd59a5b52bb586c737cd7ba636f3fe60200000000000000000000000000000000000000000000000000000000000138820000000000000000000000000000000000000000000000000029ec0998598000000000000000000000000000699bceebd59a5b52bb586c737cd7ba636f3fe6020000000000000000000000000000000000000000000000000000000000013882000000000000000000000000000000000000000000000000002a46fca8d3c000000000000000000000000000699bceebd59a5b52bb586c737cd7ba636f3fe6020000000000000000000000000000000000000000000000000000000000013882000000000000000000000000000000000000000000000000002aa1efb94e0000000000000000000000000000699bceebd59a5b52bb586c737cd7ba636f3fe6020000000000000000000000000000000000000000000000000000000000013882000000000000000000000000000000000000000000000000002afce2c9c84000000000000000000000000000699bceebd59a5b52bb586c737cd7ba636f3fe6020000000000000000000000000000000000000000000000000000000000013882000000000000000000000000000000000000000000000000002b57d5da428000000000000000000000000000699bceebd59a5b52bb586c737cd7ba636f3fe6020000000000000000000000000000000000000000000000000000000000013882000000000000000000000000000000000000000000000000002bb2c8eabcc000000000000000000000000000699bceebd59a5b52bb586c737cd7ba636f3fe6020000000000000000000000000000000000000000000000000000000000013882000000000000000000000000000000000000000000000000002c0dbbfb370000000000000000000000000000699bceebd59a5b52bb586c737cd7ba636f3fe6020000000000000000000000000000000000000000000000000000000000013882000000000000000000000000000000000000000000000000002c68af0bb14000000000000000000000000000699bceebd59a5b52bb586c737cd7ba636f3fe6020000000000000000000000000000000000000000000000000000000000013882000000000000000000000000000000000000000000000000002cc3a21c2b8000000000000000000000000000699bceebd59a5b52bb586c737cd7ba636f3fe6020000000000000000000000000000000000000000000000000000000000013882000000000000000000000000000000000000000000000000002d1e952ca5c000000000000000000000000000699bceebd59a5b52bb586c737cd7ba636f3fe6020000000000000000000000000000000000000000000000000000000000013882000000000000000000000000000000000000000000000000002d79883d200000000000000000000000000000699bceebd59a5b52bb586c737cd7ba636f3fe6020000000000000000000000000000000000000000000000000000000000013882000000000000000000000000000000000000000000000000002dd47b4d9a4000000000000000000000000000699bceebd59a5b52bb586c737cd7ba636f3fe6020000000000000000000000000000000000000000000000000000000000013882000000000000000000000000000000000000000000000000002e2f6e5e148000",
        "nonce": "0x197",
        "chainId": "0xaa36a7",
        "accessList": null,
        "type": null
      },
      "additionalContracts": [],
      "isFixedGasLimit": false
    }
  ],
  "receipts": [
    {
      "status": "0x1",
      "cumulativeGasUsed": "0xb8cef4",
      "logs": [
        {
          "address": "0x23dd1aa37b5c81d64586c021330d61d3ad55aafb",
          "topics": [
            "0x9853b992610853aa2f058d95d0a4868ffcd37470b93a5e6634619467e0d4228c",
            "0xca23edc62d9f65a6156a134ebda815469e3766ff4ad1b0e11455391877c7c49c",
            "0x000000000000000000000000699bceebd59a5b52bb586c737cd7ba636f3fe602",
            "0x00000000000000000000000000000000000000000000000000276f642501c000"
          ],
          "data": "0x0000000000000000000000000000000000000000000000000000000066307368000000000000000000000000699bceebd59a5b52bb586c737cd7ba636f3fe60200000000000000000000000000000000000000000000000000000000000138820000000000000000000000000000000000000000000000a2a15d09519be000000000000000000000000000000000000000000000000000000de0b6b3a7640000",
          "blockHash": "0xd10f4610102865e671c04f114b5383d8fc3df9ee88e8e46543755480257348e9",
          "blockNumber": "0x589a15",
          "transactionHash": "0x1444f666b65c17d68682606f393170b34b4e6df52782871f985901c32b1c3ba3",
          "transactionIndex": "0x53",
          "logIndex": "0xb8",
          "removed": false
        },
        {
          "address": "0x23dd1aa37b5c81d64586c021330d61d3ad55aafb",
          "topics": [
            "0x9853b992610853aa2f058d95d0a4868ffcd37470b93a5e6634619467e0d4228c",
            "0x1c9f4d123779e44d3f06ad0be4422e8fce1f950abba04616a0fbccb319e02872",
            "0x000000000000000000000000699bceebd59a5b52bb586c737cd7ba636f3fe602",
            "0x0000000000000000000000000000000000000000000000000027ca57357c0000"
          ],
          "data": "0x0000000000000000000000000000000000000000000000000000000066307368000000000000000000000000699bceebd59a5b52bb586c737cd7ba636f3fe60200000000000000000000000000000000000000000000000000000000000138820000000000000000000000000000000000000000000000a2a15d09519be000000000000000000000000000000000000000000000000000000de0b6b3a7640000",
          "blockHash": "0xd10f4610102865e671c04f114b5383d8fc3df9ee88e8e46543755480257348e9",
          "blockNumber": "0x589a15",
          "transactionHash": "0x1444f666b65c17d68682606f393170b34b4e6df52782871f985901c32b1c3ba3",
          "transactionIndex": "0x53",
          "logIndex": "0xb9",
          "removed": false
        },
        {
          "address": "0x23dd1aa37b5c81d64586c021330d61d3ad55aafb",
          "topics": [
            "0x9853b992610853aa2f058d95d0a4868ffcd37470b93a5e6634619467e0d4228c",
            "0xc47fd176d36d2168dcdaad16f74b963fa600454cae487d393ebf04d0a9d507b1",
            "0x000000000000000000000000699bceebd59a5b52bb586c737cd7ba636f3fe602",
            "0x0000000000000000000000000000000000000000000000000028254a45f64000"
          ],
          "data": "0x0000000000000000000000000000000000000000000000000000000066307368000000000000000000000000699bceebd59a5b52bb586c737cd7ba636f3fe60200000000000000000000000000000000000000000000000000000000000138820000000000000000000000000000000000000000000000a2a15d09519be000000000000000000000000000000000000000000000000000000de0b6b3a7640000",
          "blockHash": "0xd10f4610102865e671c04f114b5383d8fc3df9ee88e8e46543755480257348e9",
          "blockNumber": "0x589a15",
          "transactionHash": "0x1444f666b65c17d68682606f393170b34b4e6df52782871f985901c32b1c3ba3",
          "transactionIndex": "0x53",
          "logIndex": "0xba",
          "removed": false
        },
        {
          "address": "0x23dd1aa37b5c81d64586c021330d61d3ad55aafb",
          "topics": [
            "0x9853b992610853aa2f058d95d0a4868ffcd37470b93a5e6634619467e0d4228c",
            "0x24a9a281a6143aed299a630a98e125ee9d9db3408b3e6d9c36bf436c8fbd9e2b",
            "0x000000000000000000000000699bceebd59a5b52bb586c737cd7ba636f3fe602",
            "0x0000000000000000000000000000000000000000000000000028803d56708000"
          ],
          "data": "0x0000000000000000000000000000000000000000000000000000000066307368000000000000000000000000699bceebd59a5b52bb586c737cd7ba636f3fe60200000000000000000000000000000000000000000000000000000000000138820000000000000000000000000000000000000000000000a2a15d09519be000000000000000000000000000000000000000000000000000000de0b6b3a7640000",
          "blockHash": "0xd10f4610102865e671c04f114b5383d8fc3df9ee88e8e46543755480257348e9",
          "blockNumber": "0x589a15",
          "transactionHash": "0x1444f666b65c17d68682606f393170b34b4e6df52782871f985901c32b1c3ba3",
          "transactionIndex": "0x53",
          "logIndex": "0xbb",
          "removed": false
        },
        {
          "address": "0x23dd1aa37b5c81d64586c021330d61d3ad55aafb",
          "topics": [
            "0x9853b992610853aa2f058d95d0a4868ffcd37470b93a5e6634619467e0d4228c",
            "0x07effd6b71ed11ee54177476977be72d4b93197bc5c7c686f62488550e8e0ea4",
            "0x000000000000000000000000699bceebd59a5b52bb586c737cd7ba636f3fe602",
            "0x0000000000000000000000000000000000000000000000000028db3066eac000"
          ],
          "data": "0x0000000000000000000000000000000000000000000000000000000066307368000000000000000000000000699bceebd59a5b52bb586c737cd7ba636f3fe60200000000000000000000000000000000000000000000000000000000000138820000000000000000000000000000000000000000000000a2a15d09519be000000000000000000000000000000000000000000000000000000de0b6b3a7640000",
          "blockHash": "0xd10f4610102865e671c04f114b5383d8fc3df9ee88e8e46543755480257348e9",
          "blockNumber": "0x589a15",
          "transactionHash": "0x1444f666b65c17d68682606f393170b34b4e6df52782871f985901c32b1c3ba3",
          "transactionIndex": "0x53",
          "logIndex": "0xbc",
          "removed": false
        },
        {
          "address": "0x23dd1aa37b5c81d64586c021330d61d3ad55aafb",
          "topics": [
            "0x9853b992610853aa2f058d95d0a4868ffcd37470b93a5e6634619467e0d4228c",
            "0x4409a6aa03152e8ab49ae83fd69c95a0562d00c76b8af20a936ae6e5ad6b8fdb",
            "0x000000000000000000000000699bceebd59a5b52bb586c737cd7ba636f3fe602",
            "0x0000000000000000000000000000000000000000000000000029362377650000"
          ],
          "data": "0x0000000000000000000000000000000000000000000000000000000066307368000000000000000000000000699bceebd59a5b52bb586c737cd7ba636f3fe60200000000000000000000000000000000000000000000000000000000000138820000000000000000000000000000000000000000000000a2a15d09519be000000000000000000000000000000000000000000000000000000de0b6b3a7640000",
          "blockHash": "0xd10f4610102865e671c04f114b5383d8fc3df9ee88e8e46543755480257348e9",
          "blockNumber": "0x589a15",
          "transactionHash": "0x1444f666b65c17d68682606f393170b34b4e6df52782871f985901c32b1c3ba3",
          "transactionIndex": "0x53",
          "logIndex": "0xbd",
          "removed": false
        },
        {
          "address": "0x23dd1aa37b5c81d64586c021330d61d3ad55aafb",
          "topics": [
            "0x9853b992610853aa2f058d95d0a4868ffcd37470b93a5e6634619467e0d4228c",
            "0xa5b9b0c9173178bff1d4d228be33ada1518b71ef8fb392629eece9828540bfed",
            "0x000000000000000000000000699bceebd59a5b52bb586c737cd7ba636f3fe602",
            "0x0000000000000000000000000000000000000000000000000029911687df4000"
          ],
          "data": "0x0000000000000000000000000000000000000000000000000000000066307368000000000000000000000000699bceebd59a5b52bb586c737cd7ba636f3fe60200000000000000000000000000000000000000000000000000000000000138820000000000000000000000000000000000000000000000a2a15d09519be000000000000000000000000000000000000000000000000000000de0b6b3a7640000",
          "blockHash": "0xd10f4610102865e671c04f114b5383d8fc3df9ee88e8e46543755480257348e9",
          "blockNumber": "0x589a15",
          "transactionHash": "0x1444f666b65c17d68682606f393170b34b4e6df52782871f985901c32b1c3ba3",
          "transactionIndex": "0x53",
          "logIndex": "0xbe",
          "removed": false
        },
        {
          "address": "0x23dd1aa37b5c81d64586c021330d61d3ad55aafb",
          "topics": [
            "0x9853b992610853aa2f058d95d0a4868ffcd37470b93a5e6634619467e0d4228c",
            "0xbe336168878919222ed715f30081346ee8b3be9c1c7c11a42a55537d151bda04",
            "0x000000000000000000000000699bceebd59a5b52bb586c737cd7ba636f3fe602",
            "0x0000000000000000000000000000000000000000000000000029ec0998598000"
          ],
          "data": "0x0000000000000000000000000000000000000000000000000000000066307368000000000000000000000000699bceebd59a5b52bb586c737cd7ba636f3fe60200000000000000000000000000000000000000000000000000000000000138820000000000000000000000000000000000000000000000a2a15d09519be000000000000000000000000000000000000000000000000000000de0b6b3a7640000",
          "blockHash": "0xd10f4610102865e671c04f114b5383d8fc3df9ee88e8e46543755480257348e9",
          "blockNumber": "0x589a15",
          "transactionHash": "0x1444f666b65c17d68682606f393170b34b4e6df52782871f985901c32b1c3ba3",
          "transactionIndex": "0x53",
          "logIndex": "0xbf",
          "removed": false
        },
        {
          "address": "0x23dd1aa37b5c81d64586c021330d61d3ad55aafb",
          "topics": [
            "0x9853b992610853aa2f058d95d0a4868ffcd37470b93a5e6634619467e0d4228c",
            "0xd6212314a32c7298abf65898956d618efd7b679bf454bbc85e2492bede342b56",
            "0x000000000000000000000000699bceebd59a5b52bb586c737cd7ba636f3fe602",
            "0x000000000000000000000000000000000000000000000000002a46fca8d3c000"
          ],
          "data": "0x0000000000000000000000000000000000000000000000000000000066307368000000000000000000000000699bceebd59a5b52bb586c737cd7ba636f3fe60200000000000000000000000000000000000000000000000000000000000138820000000000000000000000000000000000000000000000a2a15d09519be000000000000000000000000000000000000000000000000000000de0b6b3a7640000",
          "blockHash": "0xd10f4610102865e671c04f114b5383d8fc3df9ee88e8e46543755480257348e9",
          "blockNumber": "0x589a15",
          "transactionHash": "0x1444f666b65c17d68682606f393170b34b4e6df52782871f985901c32b1c3ba3",
          "transactionIndex": "0x53",
          "logIndex": "0xc0",
          "removed": false
        },
        {
          "address": "0x23dd1aa37b5c81d64586c021330d61d3ad55aafb",
          "topics": [
            "0x9853b992610853aa2f058d95d0a4868ffcd37470b93a5e6634619467e0d4228c",
            "0xe760bacc7667eba565fa06507ff830ab845fe0a67b2e3fd51da52b0853eb3d53",
            "0x000000000000000000000000699bceebd59a5b52bb586c737cd7ba636f3fe602",
            "0x000000000000000000000000000000000000000000000000002aa1efb94e0000"
          ],
          "data": "0x0000000000000000000000000000000000000000000000000000000066307368000000000000000000000000699bceebd59a5b52bb586c737cd7ba636f3fe60200000000000000000000000000000000000000000000000000000000000138820000000000000000000000000000000000000000000000a2a15d09519be000000000000000000000000000000000000000000000000000000de0b6b3a7640000",
          "blockHash": "0xd10f4610102865e671c04f114b5383d8fc3df9ee88e8e46543755480257348e9",
          "blockNumber": "0x589a15",
          "transactionHash": "0x1444f666b65c17d68682606f393170b34b4e6df52782871f985901c32b1c3ba3",
          "transactionIndex": "0x53",
          "logIndex": "0xc1",
          "removed": false
        },
        {
          "address": "0x23dd1aa37b5c81d64586c021330d61d3ad55aafb",
          "topics": [
            "0x9853b992610853aa2f058d95d0a4868ffcd37470b93a5e6634619467e0d4228c",
            "0xdb55f801d4af5db5285ef6fee81891a27ce18f6780d5bdf6763351a085ef0a0e",
            "0x000000000000000000000000699bceebd59a5b52bb586c737cd7ba636f3fe602",
            "0x000000000000000000000000000000000000000000000000002afce2c9c84000"
          ],
          "data": "0x0000000000000000000000000000000000000000000000000000000066307368000000000000000000000000699bceebd59a5b52bb586c737cd7ba636f3fe60200000000000000000000000000000000000000000000000000000000000138820000000000000000000000000000000000000000000000a2a15d09519be000000000000000000000000000000000000000000000000000000de0b6b3a7640000",
          "blockHash": "0xd10f4610102865e671c04f114b5383d8fc3df9ee88e8e46543755480257348e9",
          "blockNumber": "0x589a15",
          "transactionHash": "0x1444f666b65c17d68682606f393170b34b4e6df52782871f985901c32b1c3ba3",
          "transactionIndex": "0x53",
          "logIndex": "0xc2",
          "removed": false
        },
        {
          "address": "0x23dd1aa37b5c81d64586c021330d61d3ad55aafb",
          "topics": [
            "0x9853b992610853aa2f058d95d0a4868ffcd37470b93a5e6634619467e0d4228c",
            "0xf8e405ba903b30963611c86db1560a5eaa931aad9849d2066e401b645a575e74",
            "0x000000000000000000000000699bceebd59a5b52bb586c737cd7ba636f3fe602",
            "0x000000000000000000000000000000000000000000000000002b57d5da428000"
          ],
          "data": "0x0000000000000000000000000000000000000000000000000000000066307368000000000000000000000000699bceebd59a5b52bb586c737cd7ba636f3fe60200000000000000000000000000000000000000000000000000000000000138820000000000000000000000000000000000000000000000a2a15d09519be000000000000000000000000000000000000000000000000000000de0b6b3a7640000",
          "blockHash": "0xd10f4610102865e671c04f114b5383d8fc3df9ee88e8e46543755480257348e9",
          "blockNumber": "0x589a15",
          "transactionHash": "0x1444f666b65c17d68682606f393170b34b4e6df52782871f985901c32b1c3ba3",
          "transactionIndex": "0x53",
          "logIndex": "0xc3",
          "removed": false
        },
        {
          "address": "0x23dd1aa37b5c81d64586c021330d61d3ad55aafb",
          "topics": [
            "0x9853b992610853aa2f058d95d0a4868ffcd37470b93a5e6634619467e0d4228c",
            "0x21adfc4402a567912a60517f4d698640be3aa2694861abae1c3f4f9792df783d",
            "0x000000000000000000000000699bceebd59a5b52bb586c737cd7ba636f3fe602",
            "0x000000000000000000000000000000000000000000000000002bb2c8eabcc000"
          ],
          "data": "0x0000000000000000000000000000000000000000000000000000000066307368000000000000000000000000699bceebd59a5b52bb586c737cd7ba636f3fe60200000000000000000000000000000000000000000000000000000000000138820000000000000000000000000000000000000000000000a2a15d09519be000000000000000000000000000000000000000000000000000000de0b6b3a7640000",
          "blockHash": "0xd10f4610102865e671c04f114b5383d8fc3df9ee88e8e46543755480257348e9",
          "blockNumber": "0x589a15",
          "transactionHash": "0x1444f666b65c17d68682606f393170b34b4e6df52782871f985901c32b1c3ba3",
          "transactionIndex": "0x53",
          "logIndex": "0xc4",
          "removed": false
        },
        {
          "address": "0x23dd1aa37b5c81d64586c021330d61d3ad55aafb",
          "topics": [
            "0x9853b992610853aa2f058d95d0a4868ffcd37470b93a5e6634619467e0d4228c",
            "0x6966c69763b2b8b893f383b715dd4fd20416b1a35a4c102ca964b51f5dc3d849",
            "0x000000000000000000000000699bceebd59a5b52bb586c737cd7ba636f3fe602",
            "0x000000000000000000000000000000000000000000000000002c0dbbfb370000"
          ],
          "data": "0x0000000000000000000000000000000000000000000000000000000066307368000000000000000000000000699bceebd59a5b52bb586c737cd7ba636f3fe60200000000000000000000000000000000000000000000000000000000000138820000000000000000000000000000000000000000000000a2a15d09519be000000000000000000000000000000000000000000000000000000de0b6b3a7640000",
          "blockHash": "0xd10f4610102865e671c04f114b5383d8fc3df9ee88e8e46543755480257348e9",
          "blockNumber": "0x589a15",
          "transactionHash": "0x1444f666b65c17d68682606f393170b34b4e6df52782871f985901c32b1c3ba3",
          "transactionIndex": "0x53",
          "logIndex": "0xc5",
          "removed": false
        },
        {
          "address": "0x23dd1aa37b5c81d64586c021330d61d3ad55aafb",
          "topics": [
            "0x9853b992610853aa2f058d95d0a4868ffcd37470b93a5e6634619467e0d4228c",
            "0xbbd6c40766b8d94db7165f3f5b1741aae5f38a9d3a8d9b24571aada1d845b99b",
            "0x000000000000000000000000699bceebd59a5b52bb586c737cd7ba636f3fe602",
            "0x000000000000000000000000000000000000000000000000002c68af0bb14000"
          ],
          "data": "0x0000000000000000000000000000000000000000000000000000000066307368000000000000000000000000699bceebd59a5b52bb586c737cd7ba636f3fe60200000000000000000000000000000000000000000000000000000000000138820000000000000000000000000000000000000000000000a2a15d09519be000000000000000000000000000000000000000000000000000000de0b6b3a7640000",
          "blockHash": "0xd10f4610102865e671c04f114b5383d8fc3df9ee88e8e46543755480257348e9",
          "blockNumber": "0x589a15",
          "transactionHash": "0x1444f666b65c17d68682606f393170b34b4e6df52782871f985901c32b1c3ba3",
          "transactionIndex": "0x53",
          "logIndex": "0xc6",
          "removed": false
        },
        {
          "address": "0x23dd1aa37b5c81d64586c021330d61d3ad55aafb",
          "topics": [
            "0x9853b992610853aa2f058d95d0a4868ffcd37470b93a5e6634619467e0d4228c",
            "0x512a66ba9b71fd62ff43036989c92239cd4a181bc055a0788ce3e7a8520dd749",
            "0x000000000000000000000000699bceebd59a5b52bb586c737cd7ba636f3fe602",
            "0x000000000000000000000000000000000000000000000000002cc3a21c2b8000"
          ],
          "data": "0x0000000000000000000000000000000000000000000000000000000066307368000000000000000000000000699bceebd59a5b52bb586c737cd7ba636f3fe60200000000000000000000000000000000000000000000000000000000000138820000000000000000000000000000000000000000000000a2a15d09519be000000000000000000000000000000000000000000000000000000de0b6b3a7640000",
          "blockHash": "0xd10f4610102865e671c04f114b5383d8fc3df9ee88e8e46543755480257348e9",
          "blockNumber": "0x589a15",
          "transactionHash": "0x1444f666b65c17d68682606f393170b34b4e6df52782871f985901c32b1c3ba3",
          "transactionIndex": "0x53",
          "logIndex": "0xc7",
          "removed": false
        },
        {
          "address": "0x23dd1aa37b5c81d64586c021330d61d3ad55aafb",
          "topics": [
            "0x9853b992610853aa2f058d95d0a4868ffcd37470b93a5e6634619467e0d4228c",
            "0xcbe774536591a9439300f196185e1b0c9e36ea5e4abc154113b676b388d4ec5a",
            "0x000000000000000000000000699bceebd59a5b52bb586c737cd7ba636f3fe602",
            "0x000000000000000000000000000000000000000000000000002d1e952ca5c000"
          ],
          "data": "0x0000000000000000000000000000000000000000000000000000000066307368000000000000000000000000699bceebd59a5b52bb586c737cd7ba636f3fe60200000000000000000000000000000000000000000000000000000000000138820000000000000000000000000000000000000000000000a2a15d09519be000000000000000000000000000000000000000000000000000000de0b6b3a7640000",
          "blockHash": "0xd10f4610102865e671c04f114b5383d8fc3df9ee88e8e46543755480257348e9",
          "blockNumber": "0x589a15",
          "transactionHash": "0x1444f666b65c17d68682606f393170b34b4e6df52782871f985901c32b1c3ba3",
          "transactionIndex": "0x53",
          "logIndex": "0xc8",
          "removed": false
        },
        {
          "address": "0x23dd1aa37b5c81d64586c021330d61d3ad55aafb",
          "topics": [
            "0x9853b992610853aa2f058d95d0a4868ffcd37470b93a5e6634619467e0d4228c",
            "0xe79f8c7f57cfe70bd52d886996ccc4008dbd53caeccc391ea1cc9f61a963e96c",
            "0x000000000000000000000000699bceebd59a5b52bb586c737cd7ba636f3fe602",
            "0x000000000000000000000000000000000000000000000000002d79883d200000"
          ],
          "data": "0x0000000000000000000000000000000000000000000000000000000066307368000000000000000000000000699bceebd59a5b52bb586c737cd7ba636f3fe60200000000000000000000000000000000000000000000000000000000000138820000000000000000000000000000000000000000000000a2a15d09519be000000000000000000000000000000000000000000000000000000de0b6b3a7640000",
          "blockHash": "0xd10f4610102865e671c04f114b5383d8fc3df9ee88e8e46543755480257348e9",
          "blockNumber": "0x589a15",
          "transactionHash": "0x1444f666b65c17d68682606f393170b34b4e6df52782871f985901c32b1c3ba3",
          "transactionIndex": "0x53",
          "logIndex": "0xc9",
          "removed": false
        },
        {
          "address": "0x23dd1aa37b5c81d64586c021330d61d3ad55aafb",
          "topics": [
            "0x9853b992610853aa2f058d95d0a4868ffcd37470b93a5e6634619467e0d4228c",
            "0xfa6981539a669f7422276050629043d93ce56225295bd5302cb0e9c977c20b09",
            "0x000000000000000000000000699bceebd59a5b52bb586c737cd7ba636f3fe602",
            "0x000000000000000000000000000000000000000000000000002dd47b4d9a4000"
          ],
          "data": "0x0000000000000000000000000000000000000000000000000000000066307368000000000000000000000000699bceebd59a5b52bb586c737cd7ba636f3fe60200000000000000000000000000000000000000000000000000000000000138820000000000000000000000000000000000000000000000a2a15d09519be000000000000000000000000000000000000000000000000000000de0b6b3a7640000",
          "blockHash": "0xd10f4610102865e671c04f114b5383d8fc3df9ee88e8e46543755480257348e9",
          "blockNumber": "0x589a15",
          "transactionHash": "0x1444f666b65c17d68682606f393170b34b4e6df52782871f985901c32b1c3ba3",
          "transactionIndex": "0x53",
          "logIndex": "0xca",
          "removed": false
        },
        {
          "address": "0x23dd1aa37b5c81d64586c021330d61d3ad55aafb",
          "topics": [
            "0x9853b992610853aa2f058d95d0a4868ffcd37470b93a5e6634619467e0d4228c",
            "0x31690e580b4a870678829c0f20bda6fce5bdd762d948940339a4d52f07a6c5c6",
            "0x000000000000000000000000699bceebd59a5b52bb586c737cd7ba636f3fe602",
            "0x000000000000000000000000000000000000000000000000002e2f6e5e148000"
          ],
          "data": "0x0000000000000000000000000000000000000000000000000000000066307368000000000000000000000000699bceebd59a5b52bb586c737cd7ba636f3fe60200000000000000000000000000000000000000000000000000000000000138820000000000000000000000000000000000000000000000a2a15d09519be000000000000000000000000000000000000000000000000000000de0b6b3a7640000",
          "blockHash": "0xd10f4610102865e671c04f114b5383d8fc3df9ee88e8e46543755480257348e9",
          "blockNumber": "0x589a15",
          "transactionHash": "0x1444f666b65c17d68682606f393170b34b4e6df52782871f985901c32b1c3ba3",
          "transactionIndex": "0x53",
          "logIndex": "0xcb",
          "removed": false
        }
      ],
      "logsBloom": "0x200000000200000000000000000000112200000000200204004000a0000000004022500010000010001040c00000001000000000000800000000000020002000810000000021000000000000000800801608000000000010000101000040000042800000808001a00000080400700000000000008004000000000200008004004001008000a02000000000000250828000200000000020000000020010080000040100000000000044018000000020040000000005000000401001040000000000002000010000000000104100008200000000000120410002000000000000080204210200000000105001010000004000100100208010000010000020001000",
      "type": "0x2",
      "transactionHash": "0x1444f666b65c17d68682606f393170b34b4e6df52782871f985901c32b1c3ba3",
      "transactionIndex": "0x53",
      "blockHash": "0xd10f4610102865e671c04f114b5383d8fc3df9ee88e8e46543755480257348e9",
      "blockNumber": "0x589a15",
      "gasUsed": "0x3356a",
      "effectiveGasPrice": "0xcb883074",
      "from": "0x699bceebd59a5b52bb586c737cd7ba636f3fe602",
      "to": "0x23dd1aa37b5c81d64586c021330d61d3ad55aafb",
      "contractAddress": null
    }
  ],
  "libraries": [],
  "pending": [],
  "returns": {},
  "timestamp": 1714451306,
  "chain": 11155111,
  "commit": "9546700"
}