{
  "transactions": [
    {
      "hash": "0xb01cac845214ff222dca468f082241511b19feaa2973bf3c26107fb174e132dd",
      "transactionType": "CALL",
      "contractName": null,
      "contractAddress": "0x23dd1aa37b5c81d64586c021330d61d3ad55aafb",
      "function": "postMessage((address,uint256,uint256)[])",
      "arguments": [
        "[(0x699BceEbD59a5b52bB586C737cD7ba636f3Fe602, 80002, 11100000000000000), (0x699BceEbD59a5b52bB586C737cD7ba636f3Fe602, 80002, 11200000000000000), (0x699BceEbD59a5b52bB586C737cD7ba636f3Fe602, 80002, 11300000000000000), (0x699BceEbD59a5b52bB586C737cD7ba636f3Fe602, 80002, 11400000000000000), (0x699BceEbD59a5b52bB586C737cD7ba636f3Fe602, 80002, 11500000000000000)]"
      ],
      "transaction": {
        "from": "0x699bceebd59a5b52bb586c737cd7ba636f3fe602",
        "to": "0x23dd1aa37b5c81d64586c021330d61d3ad55aafb",
        "gas": "0x274b6",
        "value": "0xd529ae9e860000",
        "input": "0x42cbee8d00000000000000000000000000000000000000000000000000000000000000200000000000000000000000000000000000000000000000000000000000000005000000000000000000000000699bceebd59a5b52bb586c737cd7ba636f3fe602000000000000000000000000000000000000000000000000000000000001388200000000000000000000000000000000000000000000000000276f642501c000000000000000000000000000699bceebd59a5b52bb586c737cd7ba636f3fe60200000000000000000000000000000000000000000000000000000000000138820000000000000000000000000000000000000000000000000027ca57357c0000000000000000000000000000699bceebd59a5b52bb586c737cd7ba636f3fe60200000000000000000000000000000000000000000000000000000000000138820000000000000000000000000000000000000000000000000028254a45f64000000000000000000000000000699bceebd59a5b52bb586c737cd7ba636f3fe60200000000000000000000000000000000000000000000000000000000000138820000000000000000000000000000000000000000000000000028803d56708000000000000000000000000000699bceebd59a5b52bb586c737cd7ba636f3fe60200000000000000000000000000000000000000000000000000000000000138820000000000000000000000000000000000000000000000000028db3066eac000",
        "nonce": "0x198",
        "chainId": "0xaa36a7",
        "accessList": null,
        "type": null
      },
      "additionalContracts": [],
      "isFixedGasLimit": false
    }
  ],
  "receipts": [
    {
      "status": "0x1",
      "cumulativeGasUsed": "0xa0c663",
      "logs": [
        {
          "address": "0x23dd1aa37b5c81d64586c021330d61d3ad55aafb",
          "topics": [
            "0x9853b992610853aa2f058d95d0a4868ffcd37470b93a5e6634619467e0d4228c",
            "0xeb14bded6f7752b5dc331d1329b05843cb1a02439f51fc14453b1d2644e5d73c",
            "0x000000000000000000000000699bceebd59a5b52bb586c737cd7ba636f3fe602",
            "0x00000000000000000000000000000000000000000000000000276f642501c000"
          ],
          "data": "0x0000000000000000000000000000000000000000000000000000000066307668000000000000000000000000699bceebd59a5b52bb586c737cd7ba636f3fe60200000000000000000000000000000000000000000000000000000000000138820000000000000000000000000000000000000000000000a2a15d09519be000000000000000000000000000000000000000000000000000000de0b6b3a7640000",
          "blockHash": "0x9956c10c890b8e179b31e2dd1fafafd88021f6394529ce9ba0ea1840498bac5f",
          "blockNumber": "0x589a49",
          "transactionHash": "0xb01cac845214ff222dca468f082241511b19feaa2973bf3c26107fb174e132dd",
          "transactionIndex": "0x3d",
          "logIndex": "0x57",
          "removed": false
        },
        {
          "address": "0x23dd1aa37b5c81d64586c021330d61d3ad55aafb",
          "topics": [
            "0x9853b992610853aa2f058d95d0a4868ffcd37470b93a5e6634619467e0d4228c",
            "0x6119560c700d4ba25699a150e7442295b8e5277097529ac09447b426a076b0ea",
            "0x000000000000000000000000699bceebd59a5b52bb586c737cd7ba636f3fe602",
            "0x0000000000000000000000000000000000000000000000000027ca57357c0000"
          ],
          "data": "0x0000000000000000000000000000000000000000000000000000000066307668000000000000000000000000699bceebd59a5b52bb586c737cd7ba636f3fe60200000000000000000000000000000000000000000000000000000000000138820000000000000000000000000000000000000000000000a2a15d09519be000000000000000000000000000000000000000000000000000000de0b6b3a7640000",
          "blockHash": "0x9956c10c890b8e179b31e2dd1fafafd88021f6394529ce9ba0ea1840498bac5f",
          "blockNumber": "0x589a49",
          "transactionHash": "0xb01cac845214ff222dca468f082241511b19feaa2973bf3c26107fb174e132dd",
          "transactionIndex": "0x3d",
          "logIndex": "0x58",
          "removed": false
        },
        {
          "address": "0x23dd1aa37b5c81d64586c021330d61d3ad55aafb",
          "topics": [
            "0x9853b992610853aa2f058d95d0a4868ffcd37470b93a5e6634619467e0d4228c",
            "0x090c96413a8845889cf689af510311a11a4808cf642e4e6cb924ed914ccc326a",
            "0x000000000000000000000000699bceebd59a5b52bb586c737cd7ba636f3fe602",
            "0x0000000000000000000000000000000000000000000000000028254a45f64000"
          ],
          "data": "0x0000000000000000000000000000000000000000000000000000000066307668000000000000000000000000699bceebd59a5b52bb586c737cd7ba636f3fe60200000000000000000000000000000000000000000000000000000000000138820000000000000000000000000000000000000000000000a2a15d09519be000000000000000000000000000000000000000000000000000000de0b6b3a7640000",
          "blockHash": "0x9956c10c890b8e179b31e2dd1fafafd88021f6394529ce9ba0ea1840498bac5f",
          "blockNumber": "0x589a49",
          "transactionHash": "0xb01cac845214ff222dca468f082241511b19feaa2973bf3c26107fb174e132dd",
          "transactionIndex": "0x3d",
          "logIndex": "0x59",
          "removed": false
        },
        {
          "address": "0x23dd1aa37b5c81d64586c021330d61d3ad55aafb",
          "topics": [
            "0x9853b992610853aa2f058d95d0a4868ffcd37470b93a5e6634619467e0d4228c",
            "0x5455111c0d0e6cbca3a6c53aa00190834ddf9364818e49e5faaf36619291ecde",
            "0x000000000000000000000000699bceebd59a5b52bb586c737cd7ba636f3fe602",
            "0x0000000000000000000000000000000000000000000000000028803d56708000"
          ],
          "data": "0x0000000000000000000000000000000000000000000000000000000066307668000000000000000000000000699bceebd59a5b52bb586c737cd7ba636f3fe60200000000000000000000000000000000000000000000000000000000000138820000000000000000000000000000000000000000000000a2a15d09519be000000000000000000000000000000000000000000000000000000de0b6b3a7640000",
          "blockHash": "0x9956c10c890b8e179b31e2dd1fafafd88021f6394529ce9ba0ea1840498bac5f",
          "blockNumber": "0x589a49",
          "transactionHash": "0xb01cac845214ff222dca468f082241511b19feaa2973bf3c26107fb174e132dd",
          "transactionIndex": "0x3d",
          "logIndex": "0x5a",
          "removed": false
        },
        {
          "address": "0x23dd1aa37b5c81d64586c021330d61d3ad55aafb",
          "topics": [
            "0x9853b992610853aa2f058d95d0a4868ffcd37470b93a5e6634619467e0d4228c",
            "0xa94574935ff70a56b8a123b5c9d2e09ee9c4dae8284a291964cfb00b14e96254",
            "0x000000000000000000000000699bceebd59a5b52bb586c737cd7ba636f3fe602",
            "0x0000000000000000000000000000000000000000000000000028db3066eac000"
          ],
          "data": "0x0000000000000000000000000000000000000000000000000000000066307668000000000000000000000000699bceebd59a5b52bb586c737cd7ba636f3fe60200000000000000000000000000000000000000000000000000000000000138820000000000000000000000000000000000000000000000a2a15d09519be000000000000000000000000000000000000000000000000000000de0b6b3a7640000",
          "blockHash": "0x9956c10c890b8e179b31e2dd1fafafd88021f6394529ce9ba0ea1840498bac5f",
          "blockNumber": "0x589a49",
          "transactionHash": "0xb01cac845214ff222dca468f082241511b19feaa2973bf3c26107fb174e132dd",
          "transactionIndex": "0x3d",
          "logIndex": "0x5b",
          "removed": false
        }
      ],
      "logsBloom": "0x0000000000000000000000000000000020000000000000000140000000000000000040000000001000000080000002100000000000000000000000000000000001000000000000000000000000000000000000000000000000000000000000000080000000000000000000040001000000000000800000000000000000000004000000000000000000000000021002000000000000008000000000000004000000000000000000004480000000000000080000000000000000000004000800001002000000000000000000400000800000000000000000000000000000000000000001020c000000005001000000000000000100200000000000002000000000",
      "type": "0x2",
      "transactionHash": "0xb01cac845214ff222dca468f082241511b19feaa2973bf3c26107fb174e132dd",
      "transactionIndex": "0x3d",
      "blockHash": "0x9956c10c890b8e179b31e2dd1fafafd88021f6394529ce9ba0ea1840498bac5f",
      "blockNumber": "0x589a49",
      "gasUsed": "0x1c72e",
      "effectiveGasPrice": "0xb9a62a25",
      "from": "0x699bceebd59a5b52bb586c737cd7ba636f3fe602",
      "to": "0x23dd1aa37b5c81d64586c021330d61d3ad55aafb",
      "contractAddress": null
    }
  ],
  "libraries": [],
  "pending": [],
  "returns": {},
  "timestamp": 1714452079,
  "chain": 11155111,
  "commit": "9546700"
}