{
  "transactions": [
    {
      "hash": "0x5e53fa7db4b54548e262ea8e2b2be11d2fd39b890a6df88bf697173f3c6087da",
      "transactionType": "CALL",
      "contractName": null,
      "contractAddress": "0x23dd1aa37b5c81d64586c021330d61d3ad55aafb",
      "function": "postMessage((address,uint256,uint256)[])",
      "arguments": [
        "[(0x699BceEbD59a5b52bB586C737cD7ba636f3Fe602, 80002, 11100000000000000), (0x699BceEbD59a5b52bB586C737cD7ba636f3Fe602, 80002, 11200000000000000), (0x699BceEbD59a5b52bB586C737cD7ba636f3Fe602, 80002, 11300000000000000), (0x699BceEbD59a5b52bB586C737cD7ba636f3Fe602, 80002, 11400000000000000), (0x699BceEbD59a5b52bB586C737cD7ba636f3Fe602, 80002, 11500000000000000)]"
      ],
      "transaction": {
        "from": "0x699bceebd59a5b52bb586c737cd7ba636f3fe602",
        "to": "0x23dd1aa37b5c81d64586c021330d61d3ad55aafb",
        "gas": "0x274b6",
        "value": "0xd529ae9e860000",
        "input": "0x42cbee8d00000000000000000000000000000000000000000000000000000000000000200000000000000000000000000000000000000000000000000000000000000005000000000000000000000000699bceebd59a5b52bb586c737cd7ba636f3fe602000000000000000000000000000000000000000000000000000000000001388200000000000000000000000000000000000000000000000000276f642501c000000000000000000000000000699bceebd59a5b52bb586c737cd7ba636f3fe60200000000000000000000000000000000000000000000000000000000000138820000000000000000000000000000000000000000000000000027ca57357c0000000000000000000000000000699bceebd59a5b52bb586c737cd7ba636f3fe60200000000000000000000000000000000000000000000000000000000000138820000000000000000000000000000000000000000000000000028254a45f64000000000000000000000000000699bceebd59a5b52bb586c737cd7ba636f3fe60200000000000000000000000000000000000000000000000000000000000138820000000000000000000000000000000000000000000000000028803d56708000000000000000000000000000699bceebd59a5b52bb586c737cd7ba636f3fe60200000000000000000000000000000000000000000000000000000000000138820000000000000000000000000000000000000000000000000028db3066eac000",
        "nonce": "0x182",
        "chainId": "0xaa36a7",
        "accessList": null,
        "type": null
      },
      "additionalContracts": [],
      "isFixedGasLimit": false
    }
  ],
  "receipts": [
    {
      "status": "0x1",
      "cumulativeGasUsed": "0x7ad45c",
      "logs": [
        {
          "address": "0x23dd1aa37b5c81d64586c021330d61d3ad55aafb",
          "topics": [
            "0x9853b992610853aa2f058d95d0a4868ffcd37470b93a5e6634619467e0d4228c",
            "0x8af067802969db0df3aa2fb113677b696eec53d8540271e832ea20162380f166",
            "0x000000000000000000000000699bceebd59a5b52bb586c737cd7ba636f3fe602",
            "0x00000000000000000000000000000000000000000000000000276f642501c000"
          ],
          "data": "0x0000000000000000000000000000000000000000000000000000000066302844000000000000000000000000699bceebd59a5b52bb586c737cd7ba636f3fe60200000000000000000000000000000000000000000000000000000000000138820000000000000000000000000000000000000000000000a2a15d09519be000000000000000000000000000000000000000000000000000000de0b6b3a7640000",
          "blockHash": "0xa8937c9e8e635ea59ab41bf5713b8a3d0608bcdfc64413eba5937f5602747596",
          "blockNumber": "0x5894c7",
          "transactionHash": "0x5e53fa7db4b54548e262ea8e2b2be11d2fd39b890a6df88bf697173f3c6087da",
          "transactionIndex": "0x24",
          "logIndex": "0x2f",
          "removed": false
        },
        {
          "address": "0x23dd1aa37b5c81d64586c021330d61d3ad55aafb",
          "topics": [
            "0x9853b992610853aa2f058d95d0a4868ffcd37470b93a5e6634619467e0d4228c",
            "0xe2f19d928b3c05111bc0cff10f93038702521c2c46ee8e7b3e968b5e1fd13115",
            "0x000000000000000000000000699bceebd59a5b52bb586c737cd7ba636f3fe602",
            "0x0000000000000000000000000000000000000000000000000027ca57357c0000"
          ],
          "data": "0x0000000000000000000000000000000000000000000000000000000066302844000000000000000000000000699bceebd59a5b52bb586c737cd7ba636f3fe60200000000000000000000000000000000000000000000000000000000000138820000000000000000000000000000000000000000000000a2a15d09519be000000000000000000000000000000000000000000000000000000de0b6b3a7640000",
          "blockHash": "0xa8937c9e8e635ea59ab41bf5713b8a3d0608bcdfc64413eba5937f5602747596",
          "blockNumber": "0x5894c7",
          "transactionHash": "0x5e53fa7db4b54548e262ea8e2b2be11d2fd39b890a6df88bf697173f3c6087da",
          "transactionIndex": "0x24",
          "logIndex": "0x30",
          "removed": false
        },
        {
          "address": "0x23dd1aa37b5c81d64586c021330d61d3ad55aafb",
          "topics": [
            "0x9853b992610853aa2f058d95d0a4868ffcd37470b93a5e6634619467e0d4228c",
            "0x7a4b728519d662c030d695b9fa6c4b828806328eb0c8ea1e0ff67ac1d53ad723",
            "0x000000000000000000000000699bceebd59a5b52bb586c737cd7ba636f3fe602",
            "0x0000000000000000000000000000000000000000000000000028254a45f64000"
          ],
          "data": "0x0000000000000000000000000000000000000000000000000000000066302844000000000000000000000000699bceebd59a5b52bb586c737cd7ba636f3fe60200000000000000000000000000000000000000000000000000000000000138820000000000000000000000000000000000000000000000a2a15d09519be000000000000000000000000000000000000000000000000000000de0b6b3a7640000",
          "blockHash": "0xa8937c9e8e635ea59ab41bf5713b8a3d0608bcdfc64413eba5937f5602747596",
          "blockNumber": "0x5894c7",
          "transactionHash": "0x5e53fa7db4b54548e262ea8e2b2be11d2fd39b890a6df88bf697173f3c6087da",
          "transactionIndex": "0x24",
          "logIndex": "0x31",
          "removed": false
        },
        {
          "address": "0x23dd1aa37b5c81d64586c021330d61d3ad55aafb",
          "topics": [
            "0x9853b992610853aa2f058d95d0a4868ffcd37470b93a5e6634619467e0d4228c",
            "0x49fe32b3c9b891477c1a1d4ff13ac7193481f8db313ec15c355f56189c63920e",
            "0x000000000000000000000000699bceebd59a5b52bb586c737cd7ba636f3fe602",
            "0x0000000000000000000000000000000000000000000000000028803d56708000"
          ],
          "data": "0x0000000000000000000000000000000000000000000000000000000066302844000000000000000000000000699bceebd59a5b52bb586c737cd7ba636f3fe60200000000000000000000000000000000000000000000000000000000000138820000000000000000000000000000000000000000000000a2a15d09519be000000000000000000000000000000000000000000000000000000de0b6b3a7640000",
          "blockHash": "0xa8937c9e8e635ea59ab41bf5713b8a3d0608bcdfc64413eba5937f5602747596",
          "blockNumber": "0x5894c7",
          "transactionHash": "0x5e53fa7db4b54548e262ea8e2b2be11d2fd39b890a6df88bf697173f3c6087da",
          "transactionIndex": "0x24",
          "logIndex": "0x32",
          "removed": false
        },
        {
          "address": "0x23dd1aa37b5c81d64586c021330d61d3ad55aafb",
          "topics": [
            "0x9853b992610853aa2f058d95d0a4868ffcd37470b93a5e6634619467e0d4228c",
            "0x0fc80a7e7647e5ae09ba74a0ad17ba616ca0af8a6142138a5bda7cacd870ec59",
            "0x000000000000000000000000699bceebd59a5b52bb586c737cd7ba636f3fe602",
            "0x0000000000000000000000000000000000000000000000000028db3066eac000"
          ],
          "data": "0x0000000000000000000000000000000000000000000000000000000066302844000000000000000000000000699bceebd59a5b52bb586c737cd7ba636f3fe60200000000000000000000000000000000000000000000000000000000000138820000000000000000000000000000000000000000000000a2a15d09519be000000000000000000000000000000000000000000000000000000de0b6b3a7640000",
          "blockHash": "0xa8937c9e8e635ea59ab41bf5713b8a3d0608bcdfc64413eba5937f5602747596",
          "blockNumber": "0x5894c7",
          "transactionHash": "0x5e53fa7db4b54548e262ea8e2b2be11d2fd39b890a6df88bf697173f3c6087da",
          "transactionIndex": "0x24",
          "logIndex": "0x33",
          "removed": false
        }
      ],
      "logsBloom": "0x00000000000000000000000000000000200000000000000000400000000000000008400000000010000000800000001000000000000000000000000000000000010000000000000000000002000000000000000000000000000000000000000000800000410000000000000400000000800000008000010000000000800000000000000000000000000000000210020000000000000000000800000000000000000000000000000004000080000100000000000000000000000000040000000000000000000000001000004000008000800000000000000000000000000000000001010200000000005001000000000000000900200002000000000000000000",
      "type": "0x2",
      "transactionHash": "0x5e53fa7db4b54548e262ea8e2b2be11d2fd39b890a6df88bf697173f3c6087da",
      "transactionIndex": "0x24",
      "blockHash": "0xa8937c9e8e635ea59ab41bf5713b8a3d0608bcdfc64413eba5937f5602747596",
      "blockNumber": "0x5894c7",
      "gasUsed": "0x1c72e",
      "effectiveGasPrice": "0x3ea22c3a",
      "from": "0x699bceebd59a5b52bb586c737cd7ba636f3fe602",
      "to": "0x23dd1aa37b5c81d64586c021330d61d3ad55aafb",
      "contractAddress": null
    }
  ],
  "libraries": [],
  "pending": [],
  "returns": {},
  "timestamp": 1714432070,
  "chain": 11155111,
  "commit": "9546700"
}