{
  "transactions": [
    {
      "hash": "0x86e0c465bdfcfe9997179e3a89604b86ec3189135a7357c134210d5a17ba0971",
      "transactionType": "CALL",
      "contractName": null,
      "contractAddress": "0x23dd1aa37b5c81d64586c021330d61d3ad55aafb",
      "function": "postMessage((address,uint256,uint256)[])",
      "arguments": [
        "[(0x699BceEbD59a5b52bB586C737cD7ba636f3Fe602, 80002, 11100000000000000), (0x699BceEbD59a5b52bB586C737cD7ba636f3Fe602, 80002, 11200000000000000), (0x699BceEbD59a5b52bB586C737cD7ba636f3Fe602, 80002, 11300000000000000), (0x699BceEbD59a5b52bB586C737cD7ba636f3Fe602, 80002, 11400000000000000), (0x699BceEbD59a5b52bB586C737cD7ba636f3Fe602, 80002, 11500000000000000), (0x699BceEbD59a5b52bB586C737cD7ba636f3Fe602, 80002, 11600000000000000), (0x699BceEbD59a5b52bB586C737cD7ba636f3Fe602, 80002, 11700000000000000), (0x699BceEbD59a5b52bB586C737cD7ba636f3Fe602, 80002, 11800000000000000), (0x699BceEbD59a5b52bB586C737cD7ba636f3Fe602, 80002, 11900000000000000), (0x699BceEbD59a5b52bB586C737cD7ba636f3Fe602, 80002, 12000000000000000)]"
      ],
      "transaction": {
        "from": "0x699bceebd59a5b52bb586c737cd7ba636f3fe602",
        "to": "0x23dd1aa37b5c81d64586c021330d61d3ad55aafb",
        "gas": "0x30e0b",
        "value": "0x214e8348c4f0000",
        "input": "0x42cbee8d0000000000000000000000000000000000000000000000000000000000000020000000000000000000000000000000000000000000000000000000000000000a000000000000000000000000699bceebd59a5b52bb586c737cd7ba636f3fe602000000000000000000000000000000000000000000000000000000000001388200000000000000000000000000000000000000000000000000276f642501c000000000000000000000000000699bceebd59a5b52bb586c737cd7ba636f3fe60200000000000000000000000000000000000000000000000000000000000138820000000000000000000000000000000000000000000000000027ca57357c0000000000000000000000000000699bceebd59a5b52bb586c737cd7ba636f3fe60200000000000000000000000000000000000000000000000000000000000138820000000000000000000000000000000000000000000000000028254a45f64000000000000000000000000000699bceebd59a5b52bb586c737cd7ba636f3fe60200000000000000000000000000000000000000000000000000000000000138820000000000000000000000000000000000000000000000000028803d56708000000000000000000000000000699bceebd59a5b52bb586c737cd7ba636f3fe60200000000000000000000000000000000000000000000000000000000000138820000000000000000000000000000000000000000000000000028db3066eac000000000000000000000000000699bceebd59a5b52bb586c737cd7ba636f3fe60200000000000000000000000000000000000000000000000000000000000138820000000000000000000000000000000000000000000000000029362377650000000000000000000000000000699bceebd59a5b52bb586c737cd7ba636f3fe60200000000000000000000000000000000000000000000000000000000000138820000000000000000000000000000000000000000000000000029911687df4000000000000000000000000000699bceebd59a5b52bb586c737cd7ba636f3fe60200000000000000000000000000000000000000000000000000000000000138820000000000000000000000000000000000000000000000000029ec0998598000000000000000000000000000699bceebd59a5b52bb586c737cd7ba636f3fe6020000000000000000000000000000000000000000000000000000000000013882000000000000000000000000000000000000000000000000002a46fca8d3c000000000000000000000000000699bceebd59a5b52bb586c737cd7ba636f3fe6020000000000000000000000000000000000000000000000000000000000013882000000000000000000000000000000000000000000000000002aa1efb94e0000",
        "nonce": "0x195",
        "chainId": "0xaa36a7",
        "accessList": null,
        "type": null
      },
      "additionalContracts": [],
      "isFixedGasLimit": false
    }
  ],
  "receipts": [
    {
      "status": "0x1",
      "cumulativeGasUsed": "0x1528245",
      "logs": [
        {
          "address": "0x23dd1aa37b5c81d64586c021330d61d3ad55aafb",
          "topics": [
            "0x9853b992610853aa2f058d95d0a4868ffcd37470b93a5e6634619467e0d4228c",
            "0x2cc9260bd8ce24bd1dbf59675346d4ddcc93e95a6b871d8008e6666db8e4c692",
            "0x000000000000000000000000699bceebd59a5b52bb586c737cd7ba636f3fe602",
            "0x00000000000000000000000000000000000000000000000000276f642501c000"
          ],
          "data": "0x0000000000000000000000000000000000000000000000000000000066307104000000000000000000000000699bceebd59a5b52bb586c737cd7ba636f3fe60200000000000000000000000000000000000000000000000000000000000138820000000000000000000000000000000000000000000000a2a15d09519be000000000000000000000000000000000000000000000000000000de0b6b3a7640000",
          "blockHash": "0x4a3545d7d56ac92faaf76db9e3119b3bfb4d283e405755be814c18f562507147",
          "blockNumber": "0x5899ec",
          "transactionHash": "0x86e0c465bdfcfe9997179e3a89604b86ec3189135a7357c134210d5a17ba0971",
          "transactionIndex": "0x9d",
          "logIndex": "0x204",
          "removed": false
        },
        {
          "address": "0x23dd1aa37b5c81d64586c021330d61d3ad55aafb",
          "topics": [
            "0x9853b992610853aa2f058d95d0a4868ffcd37470b93a5e6634619467e0d4228c",
            "0x57051f8cacf3acb90971136fe44920f2c31dd838974720226bc2f785f213ce0a",
            "0x000000000000000000000000699bceebd59a5b52bb586c737cd7ba636f3fe602",
            "0x0000000000000000000000000000000000000000000000000027ca57357c0000"
          ],
          "data": "0x0000000000000000000000000000000000000000000000000000000066307104000000000000000000000000699bceebd59a5b52bb586c737cd7ba636f3fe60200000000000000000000000000000000000000000000000000000000000138820000000000000000000000000000000000000000000000a2a15d09519be000000000000000000000000000000000000000000000000000000de0b6b3a7640000",
          "blockHash": "0x4a3545d7d56ac92faaf76db9e3119b3bfb4d283e405755be814c18f562507147",
          "blockNumber": "0x5899ec",
          "transactionHash": "0x86e0c465bdfcfe9997179e3a89604b86ec3189135a7357c134210d5a17ba0971",
          "transactionIndex": "0x9d",
          "logIndex": "0x205",
          "removed": false
        },
        {
          "address": "0x23dd1aa37b5c81d64586c021330d61d3ad55aafb",
          "topics": [
            "0x9853b992610853aa2f058d95d0a4868ffcd37470b93a5e6634619467e0d4228c",
            "0xe899c2f933de7ff511831aaed70aa72e81a1341763dd9e9283507c679760ed8e",
            "0x000000000000000000000000699bceebd59a5b52bb586c737cd7ba636f3fe602",
            "0x0000000000000000000000000000000000000000000000000028254a45f64000"
          ],
          "data": "0x0000000000000000000000000000000000000000000000000000000066307104000000000000000000000000699bceebd59a5b52bb586c737cd7ba636f3fe60200000000000000000000000000000000000000000000000000000000000138820000000000000000000000000000000000000000000000a2a15d09519be000000000000000000000000000000000000000000000000000000de0b6b3a7640000",
          "blockHash": "0x4a3545d7d56ac92faaf76db9e3119b3bfb4d283e405755be814c18f562507147",
          "blockNumber": "0x5899ec",
          "transactionHash": "0x86e0c465bdfcfe9997179e3a89604b86ec3189135a7357c134210d5a17ba0971",
          "transactionIndex": "0x9d",
          "logIndex": "0x206",
          "removed": false
        },
        {
          "address": "0x23dd1aa37b5c81d64586c021330d61d3ad55aafb",
          "topics": [
            "0x9853b992610853aa2f058d95d0a4868ffcd37470b93a5e6634619467e0d4228c",
            "0x5e7b97e12e0ebe0b4721e643e780a2382f2c3da7fdf4df318b2b5cb2efb9ea55",
            "0x000000000000000000000000699bceebd59a5b52bb586c737cd7ba636f3fe602",
            "0x0000000000000000000000000000000000000000000000000028803d56708000"
          ],
          "data": "0x0000000000000000000000000000000000000000000000000000000066307104000000000000000000000000699bceebd59a5b52bb586c737cd7ba636f3fe60200000000000000000000000000000000000000000000000000000000000138820000000000000000000000000000000000000000000000a2a15d09519be000000000000000000000000000000000000000000000000000000de0b6b3a7640000",
          "blockHash": "0x4a3545d7d56ac92faaf76db9e3119b3bfb4d283e405755be814c18f562507147",
          "blockNumber": "0x5899ec",
          "transactionHash": "0x86e0c465bdfcfe9997179e3a89604b86ec3189135a7357c134210d5a17ba0971",
          "transactionIndex": "0x9d",
          "logIndex": "0x207",
          "removed": false
        },
        {
          "address": "0x23dd1aa37b5c81d64586c021330d61d3ad55aafb",
          "topics": [
            "0x9853b992610853aa2f058d95d0a4868ffcd37470b93a5e6634619467e0d4228c",
            "0x4e6809ce390063856923a69d533646f85c73194ab1c96fae396c5da354e1d17d",
            "0x000000000000000000000000699bceebd59a5b52bb586c737cd7ba636f3fe602",
            "0x0000000000000000000000000000000000000000000000000028db3066eac000"
          ],
          "data": "0x0000000000000000000000000000000000000000000000000000000066307104000000000000000000000000699bceebd59a5b52bb586c737cd7ba636f3fe60200000000000000000000000000000000000000000000000000000000000138820000000000000000000000000000000000000000000000a2a15d09519be000000000000000000000000000000000000000000000000000000de0b6b3a7640000",
          "blockHash": "0x4a3545d7d56ac92faaf76db9e3119b3bfb4d283e405755be814c18f562507147",
          "blockNumber": "0x5899ec",
          "transactionHash": "0x86e0c465bdfcfe9997179e3a89604b86ec3189135a7357c134210d5a17ba0971",
          "transactionIndex": "0x9d",
          "logIndex": "0x208",
          "removed": false
        },
        {
          "address": "0x23dd1aa37b5c81d64586c021330d61d3ad55aafb",
          "topics": [
            "0x9853b992610853aa2f058d95d0a4868ffcd37470b93a5e6634619467e0d4228c",
            "0x179b7e330ce93e709ebf890db28a42a6fa23457f26d3d0e16d67830aa508c300",
            "0x000000000000000000000000699bceebd59a5b52bb586c737cd7ba636f3fe602",
            "0x0000000000000000000000000000000000000000000000000029362377650000"
          ],
          "data": "0x0000000000000000000000000000000000000000000000000000000066307104000000000000000000000000699bceebd59a5b52bb586c737cd7ba636f3fe60200000000000000000000000000000000000000000000000000000000000138820000000000000000000000000000000000000000000000a2a15d09519be000000000000000000000000000000000000000000000000000000de0b6b3a7640000",
          "blockHash": "0x4a3545d7d56ac92faaf76db9e3119b3bfb4d283e405755be814c18f562507147",
          "blockNumber": "0x5899ec",
          "transactionHash": "0x86e0c465bdfcfe9997179e3a89604b86ec3189135a7357c134210d5a17ba0971",
          "transactionIndex": "0x9d",
          "logIndex": "0x209",
          "removed": false
        },
        {
          "address": "0x23dd1aa37b5c81d64586c021330d61d3ad55aafb",
          "topics": [
            "0x9853b992610853aa2f058d95d0a4868ffcd37470b93a5e6634619467e0d4228c",
            "0xcd25634091a133d164917ae6f9011a8756d9672d730f621cb6d21ce38751384b",
            "0x000000000000000000000000699bceebd59a5b52bb586c737cd7ba636f3fe602",
            "0x0000000000000000000000000000000000000000000000000029911687df4000"
          ],
          "data": "0x0000000000000000000000000000000000000000000000000000000066307104000000000000000000000000699bceebd59a5b52bb586c737cd7ba636f3fe60200000000000000000000000000000000000000000000000000000000000138820000000000000000000000000000000000000000000000a2a15d09519be000000000000000000000000000000000000000000000000000000de0b6b3a7640000",
          "blockHash": "0x4a3545d7d56ac92faaf76db9e3119b3bfb4d283e405755be814c18f562507147",
          "blockNumber": "0x5899ec",
          "transactionHash": "0x86e0c465bdfcfe9997179e3a89604b86ec3189135a7357c134210d5a17ba0971",
          "transactionIndex": "0x9d",
          "logIndex": "0x20a",
          "removed": false
        },
        {
          "address": "0x23dd1aa37b5c81d64586c021330d61d3ad55aafb",
          "topics": [
            "0x9853b992610853aa2f058d95d0a4868ffcd37470b93a5e6634619467e0d4228c",
            "0xac3c1fb196f15c2bb2e1e3b04c81209e2b0a5fa9c900d6493f97837d1991c311",
            "0x000000000000000000000000699bceebd59a5b52bb586c737cd7ba636f3fe602",
            "0x0000000000000000000000000000000000000000000000000029ec0998598000"
          ],
          "data": "0x0000000000000000000000000000000000000000000000000000000066307104000000000000000000000000699bceebd59a5b52bb586c737cd7ba636f3fe60200000000000000000000000000000000000000000000000000000000000138820000000000000000000000000000000000000000000000a2a15d09519be000000000000000000000000000000000000000000000000000000de0b6b3a7640000",
          "blockHash": "0x4a3545d7d56ac92faaf76db9e3119b3bfb4d283e405755be814c18f562507147",
          "blockNumber": "0x5899ec",
          "transactionHash": "0x86e0c465bdfcfe9997179e3a89604b86ec3189135a7357c134210d5a17ba0971",
          "transactionIndex": "0x9d",
          "logIndex": "0x20b",
          "removed": false
        },
        {
          "address": "0x23dd1aa37b5c81d64586c021330d61d3ad55aafb",
          "topics": [
            "0x9853b992610853aa2f058d95d0a4868ffcd37470b93a5e6634619467e0d4228c",
            "0x3e348d14081f6943dccb844112ff3ed982453a835458bd9a8f99ee6d175345b4",
            "0x000000000000000000000000699bceebd59a5b52bb586c737cd7ba636f3fe602",
            "0x000000000000000000000000000000000000000000000000002a46fca8d3c000"
          ],
          "data": "0x0000000000000000000000000000000000000000000000000000000066307104000000000000000000000000699bceebd59a5b52bb586c737cd7ba636f3fe60200000000000000000000000000000000000000000000000000000000000138820000000000000000000000000000000000000000000000a2a15d09519be000000000000000000000000000000000000000000000000000000de0b6b3a7640000",
          "blockHash": "0x4a3545d7d56ac92faaf76db9e3119b3bfb4d283e405755be814c18f562507147",
          "blockNumber": "0x5899ec",
          "transactionHash": "0x86e0c465bdfcfe9997179e3a89604b86ec3189135a7357c134210d5a17ba0971",
          "transactionIndex": "0x9d",
          "logIndex": "0x20c",
          "removed": false
        },
        {
          "address": "0x23dd1aa37b5c81d64586c021330d61d3ad55aafb",
          "topics": [
            "0x9853b992610853aa2f058d95d0a4868ffcd37470b93a5e6634619467e0d4228c",
            "0x0feaaa68f1bf86a195c4da29c5421b88079e5ccc6dcb758d3e328e8a9676a5e3",
            "0x000000000000000000000000699bceebd59a5b52bb586c737cd7ba636f3fe602",
            "0x000000000000000000000000000000000000000000000000002aa1efb94e0000"
          ],
          "data": "0x0000000000000000000000000000000000000000000000000000000066307104000000000000000000000000699bceebd59a5b52bb586c737cd7ba636f3fe60200000000000000000000000000000000000000000000000000000000000138820000000000000000000000000000000000000000000000a2a15d09519be000000000000000000000000000000000000000000000000000000de0b6b3a7640000",
          "blockHash": "0x4a3545d7d56ac92faaf76db9e3119b3bfb4d283e405755be814c18f562507147",
          "blockNumber": "0x5899ec",
          "transactionHash": "0x86e0c465bdfcfe9997179e3a89604b86ec3189135a7357c134210d5a17ba0971",
          "transactionIndex": "0x9d",
          "logIndex": "0x20d",
          "removed": false
        }
      ],
      "logsBloom": "0x00000000000000040000000000000000200020000000000000400000000000000020500018000010000040c20202001400000000000000000000000000000000010000000000100400000000000000200000000000000000000100000000000000800000000000000000000400180000000000008000000000000000000004004001000000200004000000008250020000000000000000880000000000080000000000000000000004018000000000000000000000000800400100040000000000000000000002000000004000008840000000000021000000000000000000000000011200000000005001000000020000030100200000220010000000000000",
      "type": "0x2",
      "transactionHash": "0x86e0c465bdfcfe9997179e3a89604b86ec3189135a7357c134210d5a17ba0971",
      "transactionIndex": "0x9d",
      "blockHash": "0x4a3545d7d56ac92faaf76db9e3119b3bfb4d283e405755be814c18f562507147",
      "blockNumber": "0x5899ec",
      "gasUsed": "0x23630",
      "effectiveGasPrice": "0x8539f99e",
      "from": "0x699bceebd59a5b52bb586c737cd7ba636f3fe602",
      "to": "0x23dd1aa37b5c81d64586c021330d61d3ad55aafb",
      "contractAddress": null
    }
  ],
  "libraries": [],
  "pending": [],
  "returns": {},
  "timestamp": 1714450696,
  "chain": 11155111,
  "commit": "9546700"
}