{
  "transactions": [
    {
      "hash": "0xf989252067c74257101363b60485c22a767784f0c9e78ca580ecf043923a6cbd",
      "transactionType": "CALL",
      "contractName": null,
      "contractAddress": "0x23dd1aa37b5c81d64586c021330d61d3ad55aafb",
      "function": "postMessage((address,uint256,uint256)[])",
      "arguments": [
        "[(0x699BceEbD59a5b52bB586C737cD7ba636f3Fe602, 80002, 11100000000000000), (0x699BceEbD59a5b52bB586C737cD7ba636f3Fe602, 80002, 11200000000000000), (0x699BceEbD59a5b52bB586C737cD7ba636f3Fe602, 80002, 11300000000000000), (0x699BceEbD59a5b52bB586C737cD7ba636f3Fe602, 80002, 11400000000000000), (0x699BceEbD59a5b52bB586C737cD7ba636f3Fe602, 80002, 11500000000000000)]"
      ],
      "transaction": {
        "from": "0x699bceebd59a5b52bb586c737cd7ba636f3fe602",
        "to": "0x23dd1aa37b5c81d64586c021330d61d3ad55aafb",
        "gas": "0x274b6",
        "value": "0xd529ae9e860000",
        "input": "0x42cbee8d00000000000000000000000000000000000000000000000000000000000000200000000000000000000000000000000000000000000000000000000000000005000000000000000000000000699bceebd59a5b52bb586c737cd7ba636f3fe602000000000000000000000000000000000000000000000000000000000001388200000000000000000000000000000000000000000000000000276f642501c000000000000000000000000000699bceebd59a5b52bb586c737cd7ba636f3fe60200000000000000000000000000000000000000000000000000000000000138820000000000000000000000000000000000000000000000000027ca57357c0000000000000000000000000000699bceebd59a5b52bb586c737cd7ba636f3fe60200000000000000000000000000000000000000000000000000000000000138820000000000000000000000000000000000000000000000000028254a45f64000000000000000000000000000699bceebd59a5b52bb586c737cd7ba636f3fe60200000000000000000000000000000000000000000000000000000000000138820000000000000000000000000000000000000000000000000028803d56708000000000000000000000000000699bceebd59a5b52bb586c737cd7ba636f3fe60200000000000000000000000000000000000000000000000000000000000138820000000000000000000000000000000000000000000000000028db3066eac000",
        "nonce": "0x190",
        "chainId": "0xaa36a7",
        "accessList": null,
        "type": null
      },
      "additionalContracts": [],
      "isFixedGasLimit": false
    }
  ],
  "receipts": [
    {
      "status": "0x1",
      "cumulativeGasUsed": "0x1a44943",
      "logs": [
        {
          "address": "0x23dd1aa37b5c81d64586c021330d61d3ad55aafb",
          "topics": [
            "0x9853b992610853aa2f058d95d0a4868ffcd37470b93a5e6634619467e0d4228c",
            "0x63747052d71ffe2d44ad3f7fdb397246b656469644fc5d2804ecf47fc5dc5845",
            "0x000000000000000000000000699bceebd59a5b52bb586c737cd7ba636f3fe602",
            "0x00000000000000000000000000000000000000000000000000276f642501c000"
          ],
          "data": "0x00000000000000000000000000000000000000000000000000000000663067c8000000000000000000000000699bceebd59a5b52bb586c737cd7ba636f3fe60200000000000000000000000000000000000000000000000000000000000138820000000000000000000000000000000000000000000000a2a15d09519be000000000000000000000000000000000000000000000000000000de0b6b3a7640000",
          "blockHash": "0x89c1866c80d898027660f87828cf674844ed24128ea0c55d60488dd58aa0c2fa",
          "blockNumber": "0x589943",
          "transactionHash": "0xf989252067c74257101363b60485c22a767784f0c9e78ca580ecf043923a6cbd",
          "transactionIndex": "0x98",
          "logIndex": "0x256",
          "removed": false
        },
        {
          "address": "0x23dd1aa37b5c81d64586c021330d61d3ad55aafb",
          "topics": [
            "0x9853b992610853aa2f058d95d0a4868ffcd37470b93a5e6634619467e0d4228c",
            "0xf54684c65d1299e63b87ca2047c66e90164c9d98ab4aaa1c1542d7dc5c760061",
            "0x000000000000000000000000699bceebd59a5b52bb586c737cd7ba636f3fe602",
            "0x0000000000000000000000000000000000000000000000000027ca57357c0000"
          ],
          "data": "0x00000000000000000000000000000000000000000000000000000000663067c8000000000000000000000000699bceebd59a5b52bb586c737cd7ba636f3fe60200000000000000000000000000000000000000000000000000000000000138820000000000000000000000000000000000000000000000a2a15d09519be000000000000000000000000000000000000000000000000000000de0b6b3a7640000",
          "blockHash": "0x89c1866c80d898027660f87828cf674844ed24128ea0c55d60488dd58aa0c2fa",
          "blockNumber": "0x589943",
          "transactionHash": "0xf989252067c74257101363b60485c22a767784f0c9e78ca580ecf043923a6cbd",
          "transactionIndex": "0x98",
          "logIndex": "0x257",
          "removed": false
        },
        {
          "address": "0x23dd1aa37b5c81d64586c021330d61d3ad55aafb",
          "topics": [
            "0x9853b992610853aa2f058d95d0a4868ffcd37470b93a5e6634619467e0d4228c",
            "0x7355628e0f1f786325c7a8f3686c8de232513702e38b0aea67546120f48eac99",
            "0x000000000000000000000000699bceebd59a5b52bb586c737cd7ba636f3fe602",
            "0x0000000000000000000000000000000000000000000000000028254a45f64000"
          ],
          "data": "0x00000000000000000000000000000000000000000000000000000000663067c8000000000000000000000000699bceebd59a5b52bb586c737cd7ba636f3fe60200000000000000000000000000000000000000000000000000000000000138820000000000000000000000000000000000000000000000a2a15d09519be000000000000000000000000000000000000000000000000000000de0b6b3a7640000",
          "blockHash": "0x89c1866c80d898027660f87828cf674844ed24128ea0c55d60488dd58aa0c2fa",
          "blockNumber": "0x589943",
          "transactionHash": "0xf989252067c74257101363b60485c22a767784f0c9e78ca580ecf043923a6cbd",
          "transactionIndex": "0x98",
          "logIndex": "0x258",
          "removed": false
        },
        {
          "address": "0x23dd1aa37b5c81d64586c021330d61d3ad55aafb",
          "topics": [
            "0x9853b992610853aa2f058d95d0a4868ffcd37470b93a5e6634619467e0d4228c",
            "0x37cd8df251f683c448056b686d30bb4c5f3d087a4708c66b196e9fffdc05414e",
            "0x000000000000000000000000699bceebd59a5b52bb586c737cd7ba636f3fe602",
            "0x0000000000000000000000000000000000000000000000000028803d56708000"
          ],
          "data": "0x00000000000000000000000000000000000000000000000000000000663067c8000000000000000000000000699bceebd59a5b52bb586c737cd7ba636f3fe60200000000000000000000000000000000000000000000000000000000000138820000000000000000000000000000000000000000000000a2a15d09519be000000000000000000000000000000000000000000000000000000de0b6b3a7640000",
          "blockHash": "0x89c1866c80d898027660f87828cf674844ed24128ea0c55d60488dd58aa0c2fa",
          "blockNumber": "0x589943",
          "transactionHash": "0xf989252067c74257101363b60485c22a767784f0c9e78ca580ecf043923a6cbd",
          "transactionIndex": "0x98",
          "logIndex": "0x259",
          "removed": false
        },
        {
          "address": "0x23dd1aa37b5c81d64586c021330d61d3ad55aafb",
          "topics": [
            "0x9853b992610853aa2f058d95d0a4868ffcd37470b93a5e6634619467e0d4228c",
            "0x71f64276e9844d2d7961cb1f01aed61fb62f91fc7227c9cefb675299b0f831dd",
            "0x000000000000000000000000699bceebd59a5b52bb586c737cd7ba636f3fe602",
            "0x0000000000000000000000000000000000000000000000000028db3066eac000"
          ],
          "data": "0x00000000000000000000000000000000000000000000000000000000663067c8000000000000000000000000699bceebd59a5b52bb586c737cd7ba636f3fe60200000000000000000000000000000000000000000000000000000000000138820000000000000000000000000000000000000000000000a2a15d09519be000000000000000000000000000000000000000000000000000000de0b6b3a7640000",
          "blockHash": "0x89c1866c80d898027660f87828cf674844ed24128ea0c55d60488dd58aa0c2fa",
          "blockNumber": "0x589943",
          "transactionHash": "0xf989252067c74257101363b60485c22a767784f0c9e78ca580ecf043923a6cbd",
          "transactionIndex": "0x98",
          "logIndex": "0x25a",
          "removed": false
        }
      ],
      "logsBloom": "0x00000000000200000000000000000000280000000000000000400000000000000000400000000010000000800010001000000008000000000000200004000000010020000000000000000000000000000000000000000000000000000000000000800000000800000000000400000000000000008000000000000000000010000000000000000000000000000210021040000000000000000000000000000000000000000000000004000000000000000000008000000000000000040000000000000000000000000000004000008000000000100000000000000000000000000000010200000000005001000000000000000100200000002000000000008000",
      "type": "0x2",
      "transactionHash": "0xf989252067c74257101363b60485c22a767784f0c9e78ca580ecf043923a6cbd",
      "transactionIndex": "0x98",
      "blockHash": "0x89c1866c80d898027660f87828cf674844ed24128ea0c55d60488dd58aa0c2fa",
      "blockNumber": "0x589943",
      "gasUsed": "0x1c72e",
      "effectiveGasPrice": "0xb1c94b1c",
      "from": "0x699bceebd59a5b52bb586c737cd7ba636f3fe602",
      "to": "0x23dd1aa37b5c81d64586c021330d61d3ad55aafb",
      "contractAddress": null
    }
  ],
  "libraries": [],
  "pending": [],
  "returns": {},
  "timestamp": 1714448331,
  "chain": 11155111,
  "commit": "9546700"
}