{
  "transactions": [
    {
      "hash": "0x87d1646c5e681774f09aca339f0783619e37dba81b38b85d2d676b39863694c9",
      "transactionType": "CALL",
      "contractName": null,
      "contractAddress": "0x23dd1aa37b5c81d64586c021330d61d3ad55aafb",
      "function": "postMessage((address,uint256,uint256)[])",
      "arguments": [
        "[(0x699BceEbD59a5b52bB586C737cD7ba636f3Fe602, 80002, 11100000000000000), (0x699BceEbD59a5b52bB586C737cD7ba636f3Fe602, 80002, 11200000000000000), (0x699BceEbD59a5b52bB586C737cD7ba636f3Fe602, 80002, 11300000000000000), (0x699BceEbD59a5b52bB586C737cD7ba636f3Fe602, 80002, 11400000000000000), (0x699BceEbD59a5b52bB586C737cD7ba636f3Fe602, 80002, 11500000000000000), (0x699BceEbD59a5b52bB586C737cD7ba636f3Fe602, 80002, 11600000000000000), (0x699BceEbD59a5b52bB586C737cD7ba636f3Fe602, 80002, 11700000000000000), (0x699BceEbD59a5b52bB586C737cD7ba636f3Fe602, 80002, 11800000000000000), (0x699BceEbD59a5b52bB586C737cD7ba636f3Fe602, 80002, 11900000000000000), (0x699BceEbD59a5b52bB586C737cD7ba636f3Fe602, 80002, 12000000000000000)]"
      ],
      "transaction": {
        "from": "0x699bceebd59a5b52bb586c737cd7ba636f3fe602",
        "to": "0x23dd1aa37b5c81d64586c021330d61d3ad55aafb",
        "gas": "0x30e0b",
        "value": "0x214e8348c4f0000",
        "input": "0x42cbee8d0000000000000000000000000000000000000000000000000000000000000020000000000000000000000000000000000000000000000000000000000000000a000000000000000000000000699bceebd59a5b52bb586c737cd7ba636f3fe602000000000000000000000000000000000000000000000000000000000001388200000000000000000000000000000000000000000000000000276f642501c000000000000000000000000000699bceebd59a5b52bb586c737cd7ba636f3fe60200000000000000000000000000000000000000000000000000000000000138820000000000000000000000000000000000000000000000000027ca57357c0000000000000000000000000000699bceebd59a5b52bb586c737cd7ba636f3fe60200000000000000000000000000000000000000000000000000000000000138820000000000000000000000000000000000000000000000000028254a45f64000000000000000000000000000699bceebd59a5b52bb586c737cd7ba636f3fe60200000000000000000000000000000000000000000000000000000000000138820000000000000000000000000000000000000000000000000028803d56708000000000000000000000000000699bceebd59a5b52bb586c737cd7ba636f3fe60200000000000000000000000000000000000000000000000000000000000138820000000000000000000000000000000000000000000000000028db3066eac000000000000000000000000000699bceebd59a5b52bb586c737cd7ba636f3fe60200000000000000000000000000000000000000000000000000000000000138820000000000000000000000000000000000000000000000000029362377650000000000000000000000000000699bceebd59a5b52bb586c737cd7ba636f3fe60200000000000000000000000000000000000000000000000000000000000138820000000000000000000000000000000000000000000000000029911687df4000000000000000000000000000699bceebd59a5b52bb586c737cd7ba636f3fe60200000000000000000000000000000000000000000000000000000000000138820000000000000000000000000000000000000000000000000029ec0998598000000000000000000000000000699bceebd59a5b52bb586c737cd7ba636f3fe6020000000000000000000000000000000000000000000000000000000000013882000000000000000000000000000000000000000000000000002a46fca8d3c000000000000000000000000000699bceebd59a5b52bb586c737cd7ba636f3fe6020000000000000000000000000000000000000000000000000000000000013882000000000000000000000000000000000000000000000000002aa1efb94e0000",
        "nonce": "0x17d",
        "chainId": "0xaa36a7",
        "accessList": null,
        "type": null
      },
      "additionalContracts": [],
      "isFixedGasLimit": false
    }
  ],
  "receipts": [
    {
      "status": "0x1",
      "cumulativeGasUsed": "0xc0301b",
      "logs": [
        {
          "address": "0x23dd1aa37b5c81d64586c021330d61d3ad55aafb",
          "topics": [
            "0x9853b992610853aa2f058d95d0a4868ffcd37470b93a5e6634619467e0d4228c",
            "0xb97efa2910c35e75d921a5f02ebc48e15820b1d133bd784b8bf47ec9435aedbb",
            "0x000000000000000000000000699bceebd59a5b52bb586c737cd7ba636f3fe602",
            "0x00000000000000000000000000000000000000000000000000276f642501c000"
          ],
          "data": "0x0000000000000000000000000000000000000000000000000000000066300b7c000000000000000000000000699bceebd59a5b52bb586c737cd7ba636f3fe60200000000000000000000000000000000000000000000000000000000000138820000000000000000000000000000000000000000000000a2a15d09519be000000000000000000000000000000000000000000000000000000de0b6b3a7640000",
          "blockHash": "0x420fe48ad4edd2e0d73a7e1b72c9336d091776d2fab619f5799dfa7b34032b6c",
          "blockNumber": "0x5892b0",
          "transactionHash": "0x87d1646c5e681774f09aca339f0783619e37dba81b38b85d2d676b39863694c9",
          "transactionIndex": "0x2f",
          "logIndex": "0x7f",
          "removed": false
        },
        {
          "address": "0x23dd1aa37b5c81d64586c021330d61d3ad55aafb",
          "topics": [
            "0x9853b992610853aa2f058d95d0a4868ffcd37470b93a5e6634619467e0d4228c",
            "0x529ca7951ac4293a534ff119500638a0ff72d0032f6b31001a5746dfe8700146",
            "0x000000000000000000000000699bceebd59a5b52bb586c737cd7ba636f3fe602",
            "0x0000000000000000000000000000000000000000000000000027ca57357c0000"
          ],
          "data": "0x0000000000000000000000000000000000000000000000000000000066300b7c000000000000000000000000699bceebd59a5b52bb586c737cd7ba636f3fe60200000000000000000000000000000000000000000000000000000000000138820000000000000000000000000000000000000000000000a2a15d09519be000000000000000000000000000000000000000000000000000000de0b6b3a7640000",
          "blockHash": "0x420fe48ad4edd2e0d73a7e1b72c9336d091776d2fab619f5799dfa7b34032b6c",
          "blockNumber": "0x5892b0",
          "transactionHash": "0x87d1646c5e681774f09aca339f0783619e37dba81b38b85d2d676b39863694c9",
          "transactionIndex": "0x2f",
          "logIndex": "0x80",
          "removed": false
        },
        {
          "address": "0x23dd1aa37b5c81d64586c021330d61d3ad55aafb",
          "topics": [
            "0x9853b992610853aa2f058d95d0a4868ffcd37470b93a5e6634619467e0d4228c",
            "0x1ba2c59de138191fa999b09ca82632975f6569af32bbb9834f7630d1c5481313",
            "0x000000000000000000000000699bceebd59a5b52bb586c737cd7ba636f3fe602",
            "0x0000000000000000000000000000000000000000000000000028254a45f64000"
          ],
          "data": "0x0000000000000000000000000000000000000000000000000000000066300b7c000000000000000000000000699bceebd59a5b52bb586c737cd7ba636f3fe60200000000000000000000000000000000000000000000000000000000000138820000000000000000000000000000000000000000000000a2a15d09519be000000000000000000000000000000000000000000000000000000de0b6b3a7640000",
          "blockHash": "0x420fe48ad4edd2e0d73a7e1b72c9336d091776d2fab619f5799dfa7b34032b6c",
          "blockNumber": "0x5892b0",
          "transactionHash": "0x87d1646c5e681774f09aca339f0783619e37dba81b38b85d2d676b39863694c9",
          "transactionIndex": "0x2f",
          "logIndex": "0x81",
          "removed": false
        },
        {
          "address": "0x23dd1aa37b5c81d64586c021330d61d3ad55aafb",
          "topics": [
            "0x9853b992610853aa2f058d95d0a4868ffcd37470b93a5e6634619467e0d4228c",
            "0xf4bc42150e1d6e5894d67addc923f5338c9afde3de94e02723e14fb025403c74",
            "0x000000000000000000000000699bceebd59a5b52bb586c737cd7ba636f3fe602",
            "0x0000000000000000000000000000000000000000000000000028803d56708000"
          ],
          "data": "0x0000000000000000000000000000000000000000000000000000000066300b7c000000000000000000000000699bceebd59a5b52bb586c737cd7ba636f3fe60200000000000000000000000000000000000000000000000000000000000138820000000000000000000000000000000000000000000000a2a15d09519be000000000000000000000000000000000000000000000000000000de0b6b3a7640000",
          "blockHash": "0x420fe48ad4edd2e0d73a7e1b72c9336d091776d2fab619f5799dfa7b34032b6c",
          "blockNumber": "0x5892b0",
          "transactionHash": "0x87d1646c5e681774f09aca339f0783619e37dba81b38b85d2d676b39863694c9",
          "transactionIndex": "0x2f",
          "logIndex": "0x82",
          "removed": false
        },
        {
          "address": "0x23dd1aa37b5c81d64586c021330d61d3ad55aafb",
          "topics": [
            "0x9853b992610853aa2f058d95d0a4868ffcd37470b93a5e6634619467e0d4228c",
            "0xb8d4a2f13f52b3439f17512d27146c5b6668db7aa5f3aedd06577a4287c5ddbe",
            "0x000000000000000000000000699bceebd59a5b52bb586c737cd7ba636f3fe602",
            "0x0000000000000000000000000000000000000000000000000028db3066eac000"
          ],
          "data": "0x0000000000000000000000000000000000000000000000000000000066300b7c000000000000000000000000699bceebd59a5b52bb586c737cd7ba636f3fe60200000000000000000000000000000000000000000000000000000000000138820000000000000000000000000000000000000000000000a2a15d09519be000000000000000000000000000000000000000000000000000000de0b6b3a7640000",
          "blockHash": "0x420fe48ad4edd2e0d73a7e1b72c9336d091776d2fab619f5799dfa7b34032b6c",
          "blockNumber": "0x5892b0",
          "transactionHash": "0x87d1646c5e681774f09aca339f0783619e37dba81b38b85d2d676b39863694c9",
          "transactionIndex": "0x2f",
          "logIndex": "0x83",
          "removed": false
        },
        {
          "address": "0x23dd1aa37b5c81d64586c021330d61d3ad55aafb",
          "topics": [
            "0x9853b992610853aa2f058d95d0a4868ffcd37470b93a5e6634619467e0d4228c",
            "0x4ecd35420d4643fea6063879128bfc8ef82951dc2d8e19e9c71d451671e49152",
            "0x000000000000000000000000699bceebd59a5b52bb586c737cd7ba636f3fe602",
            "0x0000000000000000000000000000000000000000000000000029362377650000"
          ],
          "data": "0x0000000000000000000000000000000000000000000000000000000066300b7c000000000000000000000000699bceebd59a5b52bb586c737cd7ba636f3fe60200000000000000000000000000000000000000000000000000000000000138820000000000000000000000000000000000000000000000a2a15d09519be000000000000000000000000000000000000000000000000000000de0b6b3a7640000",
          "blockHash": "0x420fe48ad4edd2e0d73a7e1b72c9336d091776d2fab619f5799dfa7b34032b6c",
          "blockNumber": "0x5892b0",
          "transactionHash": "0x87d1646c5e681774f09aca339f0783619e37dba81b38b85d2d676b39863694c9",
          "transactionIndex": "0x2f",
          "logIndex": "0x84",
          "removed": false
        },
        {
          "address": "0x23dd1aa37b5c81d64586c021330d61d3ad55aafb",
          "topics": [
            "0x9853b992610853aa2f058d95d0a4868ffcd37470b93a5e6634619467e0d4228c",
            "0x97a51e8267d924895a304be131f0c9c83061370f8f9f9d7144543184e88bb5ad",
            "0x000000000000000000000000699bceebd59a5b52bb586c737cd7ba636f3fe602",
            "0x0000000000000000000000000000000000000000000000000029911687df4000"
          ],
          "data": "0x0000000000000000000000000000000000000000000000000000000066300b7c000000000000000000000000699bceebd59a5b52bb586c737cd7ba636f3fe60200000000000000000000000000000000000000000000000000000000000138820000000000000000000000000000000000000000000000a2a15d09519be000000000000000000000000000000000000000000000000000000de0b6b3a7640000",
          "blockHash": "0x420fe48ad4edd2e0d73a7e1b72c9336d091776d2fab619f5799dfa7b34032b6c",
          "blockNumber": "0x5892b0",
          "transactionHash": "0x87d1646c5e681774f09aca339f0783619e37dba81b38b85d2d676b39863694c9",
          "transactionIndex": "0x2f",
          "logIndex": "0x85",
          "removed": false
        },
        {
          "address": "0x23dd1aa37b5c81d64586c021330d61d3ad55aafb",
          "topics": [
            "0x9853b992610853aa2f058d95d0a4868ffcd37470b93a5e6634619467e0d4228c",
            "0x7f241c69503c45a48c7aa542589220fbd902c4cf9e177c8c31fdf243d3257bbc",
            "0x000000000000000000000000699bceebd59a5b52bb586c737cd7ba636f3fe602",
            "0x0000000000000000000000000000000000000000000000000029ec0998598000"
          ],
          "data": "0x0000000000000000000000000000000000000000000000000000000066300b7c000000000000000000000000699bceebd59a5b52bb586c737cd7ba636f3fe60200000000000000000000000000000000000000000000000000000000000138820000000000000000000000000000000000000000000000a2a15d09519be000000000000000000000000000000000000000000000000000000de0b6b3a7640000",
          "blockHash": "0x420fe48ad4edd2e0d73a7e1b72c9336d091776d2fab619f5799dfa7b34032b6c",
          "blockNumber": "0x5892b0",
          "transactionHash": "0x87d1646c5e681774f09aca339f0783619e37dba81b38b85d2d676b39863694c9",
          "transactionIndex": "0x2f",
          "logIndex": "0x86",
          "removed": false
        },
        {
          "address": "0x23dd1aa37b5c81d64586c021330d61d3ad55aafb",
          "topics": [
            "0x9853b992610853aa2f058d95d0a4868ffcd37470b93a5e6634619467e0d4228c",
            "0x0d68095e1603074d5dc53203ee0fc0918fe4f72c9ee41810d67691add00fb2f7",
            "0x000000000000000000000000699bceebd59a5b52bb586c737cd7ba636f3fe602",
            "0x000000000000000000000000000000000000000000000000002a46fca8d3c000"
          ],
          "data": "0x0000000000000000000000000000000000000000000000000000000066300b7c000000000000000000000000699bceebd59a5b52bb586c737cd7ba636f3fe60200000000000000000000000000000000000000000000000000000000000138820000000000000000000000000000000000000000000000a2a15d09519be000000000000000000000000000000000000000000000000000000de0b6b3a7640000",
          "blockHash": "0x420fe48ad4edd2e0d73a7e1b72c9336d091776d2fab619f5799dfa7b34032b6c",
          "blockNumber": "0x5892b0",
          "transactionHash": "0x87d1646c5e681774f09aca339f0783619e37dba81b38b85d2d676b39863694c9",
          "transactionIndex": "0x2f",
          "logIndex": "0x87",
          "removed": false
        },
        {
          "address": "0x23dd1aa37b5c81d64586c021330d61d3ad55aafb",
          "topics": [
            "0x9853b992610853aa2f058d95d0a4868ffcd37470b93a5e6634619467e0d4228c",
            "0xdb63beee09deb0fb8e08a253ed685249a0f778b5a77be1764f5898d7e7e93fbe",
            "0x000000000000000000000000699bceebd59a5b52bb586c737cd7ba636f3fe602",
            "0x000000000000000000000000000000000000000000000000002aa1efb94e0000"
          ],
          "data": "0x0000000000000000000000000000000000000000000000000000000066300b7c000000000000000000000000699bceebd59a5b52bb586c737cd7ba636f3fe60200000000000000000000000000000000000000000000000000000000000138820000000000000000000000000000000000000000000000a2a15d09519be000000000000000000000000000000000000000000000000000000de0b6b3a7640000",
          "blockHash": "0x420fe48ad4edd2e0d73a7e1b72c9336d091776d2fab619f5799dfa7b34032b6c",
          "blockNumber": "0x5892b0",
          "transactionHash": "0x87d1646c5e681774f09aca339f0783619e37dba81b38b85d2d676b39863694c9",
          "transactionIndex": "0x2f",
          "logIndex": "0x88",
          "removed": false
        }
      ],
      "logsBloom": "0x00000000000000000020000040000000200000000000000020c0000000000200002040101000001000004080000000100000000000080080000104008000000001000000000000000000000000000000000000000000000000010000800000000080000000000000000000040000000000000000800000000000040001000400400100000020004000000000025002000000000000000000020000000008000800000000000000000401a000000020000000000000000000400000040400000000000000002000040800004000008040000012000060000000000000000000000000010200000000005001000000000000000100240000000010040000000000",
      "type": "0x2",
      "transactionHash": "0x87d1646c5e681774f09aca339f0783619e37dba81b38b85d2d676b39863694c9",
      "transactionIndex": "0x2f",
      "blockHash": "0x420fe48ad4edd2e0d73a7e1b72c9336d091776d2fab619f5799dfa7b34032b6c",
      "blockNumber": "0x5892b0",
      "gasUsed": "0x23630",
      "effectiveGasPrice": "0x4aa64251",
      "from": "0x699bceebd59a5b52bb586c737cd7ba636f3fe602",
      "to": "0x23dd1aa37b5c81d64586c021330d61d3ad55aafb",
      "contractAddress": null
    }
  ],
  "libraries": [],
  "pending": [],
  "returns": {},
  "timestamp": 1714424706,
  "chain": 11155111,
  "commit": "9546700"
}