{
  "transactions": [
    {
      "hash": "0xf04f1a747f11a08b18c09b4de6b8fb3277a5ef02308beb04e84dd5de34b6cc30",
      "transactionType": "CALL",
      "contractName": null,
      "contractAddress": "0x371862509e523e8fb89eb8911254c14c882fca96",
      "function": "postMessage((address,uint256,uint256)[])",
      "arguments": [
        "[(0x699BceEbD59a5b52bB586C737cD7ba636f3Fe602, 80002, 110000000000000000)]"
      ],
      "transaction": {
        "from": "0x699bceebd59a5b52bb586c737cd7ba636f3fe602",
        "to": "0x371862509e523e8fb89eb8911254c14c882fca96",
        "gas": "0x217c8",
        "value": "0x186cc6acd4b0000",
        "input": "0x42cbee8d00000000000000000000000000000000000000000000000000000000000000200000000000000000000000000000000000000000000000000000000000000001000000000000000000000000699bceebd59a5b52bb586c737cd7ba636f3fe60200000000000000000000000000000000000000000000000000000000000138820000000000000000000000000000000000000000000000000186cc6acd4b0000",
        "nonce": "0x12d",
        "chainId": "0xaa36a7",
        "accessList": null,
        "type": null
      },
      "additionalContracts": [],
      "isFixedGasLimit": false
    }
  ],
  "receipts": [
    {
      "status": "0x1",
      "cumulativeGasUsed": "0x1441655",
      "logs": [
        {
          "address": "0x371862509e523e8fb89eb8911254c14c882fca96",
          "topics": [
            "0x9853b992610853aa2f058d95d0a4868ffcd37470b93a5e6634619467e0d4228c",
            "0x85c6bfc76db409277874c9c743d1273da6172b8963833283783a3bedb7c03fc6",
            "0x000000000000000000000000699bceebd59a5b52bb586c737cd7ba636f3fe602",
            "0x0000000000000000000000000000000000000000000000000186cc6acd4b0000"
          ],
          "data": "0x00000000000000000000000000000000000000000000000000000000662c7c9c000000000000000000000000699bceebd59a5b52bb586c737cd7ba636f3fe60200000000000000000000000000000000000000000000000000000000000138820000000000000000000000000000000000000000000000a2a15d09519be000000000000000000000000000000000000000000000000000000de0b6b3a7640000",
          "blockHash": "0xbc413c134bf75c56eb5d6faca31bf62d6adb45cebce608ada93bce7248e37686",
          "blockNumber": "0x584a4b",
          "transactionHash": "0xf04f1a747f11a08b18c09b4de6b8fb3277a5ef02308beb04e84dd5de34b6cc30",
          "transactionIndex": "0x6c",
          "logIndex": "0x16b",
          "removed": false
        }
      ],
      "logsBloom": "0x00000000000000000000000000000000000000000000000000400000000000000000000000000000000000000000000000000000000000000000000000020000000000000000000000000080000000000000000000000000000001000000000400800004000002000080000000000000000000008000000100000000000000000000000000000000000000000000000000000000000000000000000000000000000000000000000000000000000000000000000000000000000000000000000000000000000000000000000000008000000000000000000000000000000000000000000000000000001000000000000000000100000000000002000000000000",
      "type": "0x2",
      "transactionHash": "0xf04f1a747f11a08b18c09b4de6b8fb3277a5ef02308beb04e84dd5de34b6cc30",
      "transactionIndex": "0x6c",
      "blockHash": "0xbc413c134bf75c56eb5d6faca31bf62d6adb45cebce608ada93bce7248e37686",
      "blockNumber": "0x584a4b",
      "gasUsed": "0x16e59",
      "effectiveGasPrice": "0x473f4f05",
      "from": "0x699bceebd59a5b52bb586c737cd7ba636f3fe602",
      "to": "0x371862509e523e8fb89eb8911254c14c882fca96",
      "contractAddress": null
    }
  ],
  "libraries": [],
  "pending": [],
  "returns": {},
  "timestamp": 1714191524,
  "chain": 11155111,
  "commit": "d8ddccd"
}