{
  "transactions": [
    {
      "hash": "0x359040b52fe99a8b09da948737ee44bcae88f32cc5bff7d0b0834dc824e828f5",
      "transactionType": "CALL",
      "contractName": null,
      "contractAddress": "0x23dd1aa37b5c81d64586c021330d61d3ad55aafb",
      "function": "postMessage((address,uint256,uint256)[])",
      "arguments": [
        "[(0x699BceEbD59a5b52bB586C737cD7ba636f3Fe602, 80002, 11100000000000000), (0x699BceEbD59a5b52bB586C737cD7ba636f3Fe602, 80002, 11200000000000000), (0x699BceEbD59a5b52bB586C737cD7ba636f3Fe602, 80002, 11300000000000000), (0x699BceEbD59a5b52bB586C737cD7ba636f3Fe602, 80002, 11400000000000000), (0x699BceEbD59a5b52bB586C737cD7ba636f3Fe602, 80002, 11500000000000000)]"
      ],
      "transaction": {
        "from": "0x699bceebd59a5b52bb586c737cd7ba636f3fe602",
        "to": "0x23dd1aa37b5c81d64586c021330d61d3ad55aafb",
        "gas": "0x274b6",
        "value": "0xd529ae9e860000",
        "input": "0x42cbee8d00000000000000000000000000000000000000000000000000000000000000200000000000000000000000000000000000000000000000000000000000000005000000000000000000000000699bceebd59a5b52bb586c737cd7ba636f3fe602000000000000000000000000000000000000000000000000000000000001388200000000000000000000000000000000000000000000000000276f642501c000000000000000000000000000699bceebd59a5b52bb586c737cd7ba636f3fe60200000000000000000000000000000000000000000000000000000000000138820000000000000000000000000000000000000000000000000027ca57357c0000000000000000000000000000699bceebd59a5b52bb586c737cd7ba636f3fe60200000000000000000000000000000000000000000000000000000000000138820000000000000000000000000000000000000000000000000028254a45f64000000000000000000000000000699bceebd59a5b52bb586c737cd7ba636f3fe60200000000000000000000000000000000000000000000000000000000000138820000000000000000000000000000000000000000000000000028803d56708000000000000000000000000000699bceebd59a5b52bb586c737cd7ba636f3fe60200000000000000000000000000000000000000000000000000000000000138820000000000000000000000000000000000000000000000000028db3066eac000",
        "nonce": "0x156",
        "chainId": "0xaa36a7",
        "accessList": null,
        "type": null
      },
      "additionalContracts": [],
      "isFixedGasLimit": false
    }
  ],
  "receipts": [
    {
      "status": "0x1",
      "cumulativeGasUsed": "0x7c9c22",
      "logs": [
        {
          "address": "0x23dd1aa37b5c81d64586c021330d61d3ad55aafb",
          "topics": [
            "0x9853b992610853aa2f058d95d0a4868ffcd37470b93a5e6634619467e0d4228c",
            "0x05ab3b3115dba92763c861f44295ffe4409c1ba6af8992b06c3ba4a75977bc86",
            "0x000000000000000000000000699bceebd59a5b52bb586c737cd7ba636f3fe602",
            "0x00000000000000000000000000000000000000000000000000276f642501c000"
          ],
          "data": "0x00000000000000000000000000000000000000000000000000000000662e5084000000000000000000000000699bceebd59a5b52bb586c737cd7ba636f3fe60200000000000000000000000000000000000000000000000000000000000138820000000000000000000000000000000000000000000000a2a15d09519be000000000000000000000000000000000000000000000000000000de0b6b3a7640000",
          "blockHash": "0x5098e82e5bc4864c0e5218245a7c848197e30d089682e156de5e35e6cc897cfe",
          "blockNumber": "0x58702d",
          "transactionHash": "0x359040b52fe99a8b09da948737ee44bcae88f32cc5bff7d0b0834dc824e828f5",
          "transactionIndex": "0x2f",
          "logIndex": "0x74",
          "removed": false
        },
        {
          "address": "0x23dd1aa37b5c81d64586c021330d61d3ad55aafb",
          "topics": [
            "0x9853b992610853aa2f058d95d0a4868ffcd37470b93a5e6634619467e0d4228c",
            "0x00d312aa4aac774c0121c7a1eac5d0ff44233f1ad1fb9273826767d922a5bf40",
            "0x000000000000000000000000699bceebd59a5b52bb586c737cd7ba636f3fe602",
            "0x0000000000000000000000000000000000000000000000000027ca57357c0000"
          ],
          "data": "0x00000000000000000000000000000000000000000000000000000000662e5084000000000000000000000000699bceebd59a5b52bb586c737cd7ba636f3fe60200000000000000000000000000000000000000000000000000000000000138820000000000000000000000000000000000000000000000a2a15d09519be000000000000000000000000000000000000000000000000000000de0b6b3a7640000",
          "blockHash": "0x5098e82e5bc4864c0e5218245a7c848197e30d089682e156de5e35e6cc897cfe",
          "blockNumber": "0x58702d",
          "transactionHash": "0x359040b52fe99a8b09da948737ee44bcae88f32cc5bff7d0b0834dc824e828f5",
          "transactionIndex": "0x2f",
          "logIndex": "0x75",
          "removed": false
        },
        {
          "address": "0x23dd1aa37b5c81d64586c021330d61d3ad55aafb",
          "topics": [
            "0x9853b992610853aa2f058d95d0a4868ffcd37470b93a5e6634619467e0d4228c",
            "0xef3b642753b47a3311f63431d6287477c61aa763a29909544d7e4d00c3343991",
            "0x000000000000000000000000699bceebd59a5b52bb586c737cd7ba636f3fe602",
            "0x0000000000000000000000000000000000000000000000000028254a45f64000"
          ],
          "data": "0x00000000000000000000000000000000000000000000000000000000662e5084000000000000000000000000699bceebd59a5b52bb586c737cd7ba636f3fe60200000000000000000000000000000000000000000000000000000000000138820000000000000000000000000000000000000000000000a2a15d09519be000000000000000000000000000000000000000000000000000000de0b6b3a7640000",
          "blockHash": "0x5098e82e5bc4864c0e5218245a7c848197e30d089682e156de5e35e6cc897cfe",
          "blockNumber": "0x58702d",
          "transactionHash": "0x359040b52fe99a8b09da948737ee44bcae88f32cc5bff7d0b0834dc824e828f5",
          "transactionIndex": "0x2f",
          "logIndex": "0x76",
          "removed": false
        },
        {
          "address": "0x23dd1aa37b5c81d64586c021330d61d3ad55aafb",
          "topics": [
            "0x9853b992610853aa2f058d95d0a4868ffcd37470b93a5e6634619467e0d4228c",
            "0xb596ba20653dfe53e1a499c45db660cbf56c4c2cc478bf25d5f7c8123969bbeb",
            "0x000000000000000000000000699bceebd59a5b52bb586c737cd7ba636f3fe602",
            "0x0000000000000000000000000000000000000000000000000028803d56708000"
          ],
          "data": "0x00000000000000000000000000000000000000000000000000000000662e5084000000000000000000000000699bceebd59a5b52bb586c737cd7ba636f3fe60200000000000000000000000000000000000000000000000000000000000138820000000000000000000000000000000000000000000000a2a15d09519be000000000000000000000000000000000000000000000000000000de0b6b3a7640000",
          "blockHash": "0x5098e82e5bc4864c0e5218245a7c848197e30d089682e156de5e35e6cc897cfe",
          "blockNumber": "0x58702d",
          "transactionHash": "0x359040b52fe99a8b09da948737ee44bcae88f32cc5bff7d0b0834dc824e828f5",
          "transactionIndex": "0x2f",
          "logIndex": "0x77",
          "removed": false
        },
        {
          "address": "0x23dd1aa37b5c81d64586c021330d61d3ad55aafb",
          "topics": [
            "0x9853b992610853aa2f058d95d0a4868ffcd37470b93a5e6634619467e0d4228c",
            "0x0feeea78e2195b67e12580b50ce9778ab9bf34deacc5e1e1f6db4b2efd9a6cb8",
            "0x000000000000000000000000699bceebd59a5b52bb586c737cd7ba636f3fe602",
            "0x0000000000000000000000000000000000000000000000000028db3066eac000"
          ],
          "data": "0x00000000000000000000000000000000000000000000000000000000662e5084000000000000000000000000699bceebd59a5b52bb586c737cd7ba636f3fe60200000000000000000000000000000000000000000000000000000000000138820000000000000000000000000000000000000000000000a2a15d09519be000000000000000000000000000000000000000000000000000000de0b6b3a7640000",
          "blockHash": "0x5098e82e5bc4864c0e5218245a7c848197e30d089682e156de5e35e6cc897cfe",
          "blockNumber": "0x58702d",
          "transactionHash": "0x359040b52fe99a8b09da948737ee44bcae88f32cc5bff7d0b0834dc824e828f5",
          "transactionIndex": "0x2f",
          "logIndex": "0x78",
          "removed": false
        }
      ],
      "logsBloom": "0x00000000000000000000000000000000200000000000000000400000000000000000400000000010000000800000001000000000000000000000000000000000010000000200000000000000000000800000000000000000000000000000000000800000000000000000000400000000000000008000000000000000000000000080000002000000000400000210020000000000000000000000000000000000000000000000000004000000000000000000004000400000000000040000000000000000000000000000004000008000000000000000000000000010000000000000010280100000005011000000000000400100300000000000000000000000",
      "type": "0x2",
      "transactionHash": "0x359040b52fe99a8b09da948737ee44bcae88f32cc5bff7d0b0834dc824e828f5",
      "transactionIndex": "0x2f",
      "blockHash": "0x5098e82e5bc4864c0e5218245a7c848197e30d089682e156de5e35e6cc897cfe",
      "blockNumber": "0x58702d",
      "gasUsed": "0x1c72e",
      "effectiveGasPrice": "0x8f489c73",
      "from": "0x699bceebd59a5b52bb586c737cd7ba636f3fe602",
      "to": "0x23dd1aa37b5c81d64586c021330d61d3ad55aafb",
      "contractAddress": null
    }
  ],
  "libraries": [],
  "pending": [],
  "returns": {},
  "timestamp": 1714311301,
  "chain": 11155111,
  "commit": "9546700"
}