{
  "transactions": [
    {
      "hash": "0xbd686aedfebc85415e44c56cac5a1dee28371ff135016cf42a4f09ab8ba0a965",
      "transactionType": "CALL",
      "contractName": null,
      "contractAddress": "0x23dd1aa37b5c81d64586c021330d61d3ad55aafb",
      "function": "postMessage((address,uint256,uint256)[])",
      "arguments": [
        "[(0x699BceEbD59a5b52bB586C737cD7ba636f3Fe602, 80002, 11100000000000000), (0x699BceEbD59a5b52bB586C737cD7ba636f3Fe602, 80002, 11200000000000000), (0x699BceEbD59a5b52bB586C737cD7ba636f3Fe602, 80002, 11300000000000000), (0x699BceEbD59a5b52bB586C737cD7ba636f3Fe602, 80002, 11400000000000000), (0x699BceEbD59a5b52bB586C737cD7ba636f3Fe602, 80002, 11500000000000000), (0x699BceEbD59a5b52bB586C737cD7ba636f3Fe602, 80002, 11600000000000000), (0x699BceEbD59a5b52bB586C737cD7ba636f3Fe602, 80002, 11700000000000000), (0x699BceEbD59a5b52bB586C737cD7ba636f3Fe602, 80002, 11800000000000000), (0x699BceEbD59a5b52bB586C737cD7ba636f3Fe602, 80002, 11900000000000000), (0x699BceEbD59a5b52bB586C737cD7ba636f3Fe602, 80002, 12000000000000000), (0x699BceEbD59a5b52bB586C737cD7ba636f3Fe602, 80002, 12100000000000000), (0x699BceEbD59a5b52bB586C737cD7ba636f3Fe602, 80002, 12200000000000000), (0x699BceEbD59a5b52bB586C737cD7ba636f3Fe602, 80002, 12300000000000000), (0x699BceEbD59a5b52bB586C737cD7ba636f3Fe602, 80002, 12400000000000000), (0x699BceEbD59a5b52bB586C737cD7ba636f3Fe602, 80002, 12500000000000000)]"
      ],
      "transaction": {
        "from": "0x699bceebd59a5b52bb586c737cd7ba636f3fe602",
        "to": "0x23dd1aa37b5c81d64586c021330d61d3ad55aafb",
        "gas": "0x3a77a",
        "value": "0x2c68af0bb140000",
        "input": "0x42cbee8d0000000000000000000000000000000000000000000000000000000000000020000000000000000000000000000000000000000000000000000000000000000f000000000000000000000000699bceebd59a5b52bb586c737cd7ba636f3fe602000000000000000000000000000000000000000000000000000000000001388200000000000000000000000000000000000000000000000000276f642501c000000000000000000000000000699bceebd59a5b52bb586c737cd7ba636f3fe60200000000000000000000000000000000000000000000000000000000000138820000000000000000000000000000000000000000000000000027ca57357c0000000000000000000000000000699bceebd59a5b52bb586c737cd7ba636f3fe60200000000000000000000000000000000000000000000000000000000000138820000000000000000000000000000000000000000000000000028254a45f64000000000000000000000000000699bceebd59a5b52bb586c737cd7ba636f3fe60200000000000000000000000000000000000000000000000000000000000138820000000000000000000000000000000000000000000000000028803d56708000000000000000000000000000699bceebd59a5b52bb586c737cd7ba636f3fe60200000000000000000000000000000000000000000000000000000000000138820000000000000000000000000000000000000000000000000028db3066eac000000000000000000000000000699bceebd59a5b52bb586c737cd7ba636f3fe60200000000000000000000000000000000000000000000000000000000000138820000000000000000000000000000000000000000000000000029362377650000000000000000000000000000699bceebd59a5b52bb586c737cd7ba636f3fe60200000000000000000000000000000000000000000000000000000000000138820000000000000000000000000000000000000000000000000029911687df4000000000000000000000000000699bceebd59a5b52bb586c737cd7ba636f3fe60200000000000000000000000000000000000000000000000000000000000138820000000000000000000000000000000000000000000000000029ec0998598000000000000000000000000000699bceebd59a5b52bb586c737cd7ba636f3fe6020000000000000000000000000000000000000000000000000000000000013882000000000000000000000000000000000000000000000000002a46fca8d3c000000000000000000000000000699bceebd59a5b52bb586c737cd7ba636f3fe6020000000000000000000000000000000000000000000000000000000000013882000000000000000000000000000000000000000000000000002aa1efb94e0000000000000000000000000000699bceebd59a5b52bb586c737cd7ba636f3fe6020000000000000000000000000000000000000000000000000000000000013882000000000000000000000000000000000000000000000000002afce2c9c84000000000000000000000000000699bceebd59a5b52bb586c737cd7ba636f3fe6020000000000000000000000000000000000000000000000000000000000013882000000000000000000000000000000000000000000000000002b57d5da428000000000000000000000000000699bceebd59a5b52bb586c737cd7ba636f3fe6020000000000000000000000000000000000000000000000000000000000013882000000000000000000000000000000000000000000000000002bb2c8eabcc000000000000000000000000000699bceebd59a5b52bb586c737cd7ba636f3fe6020000000000000000000000000000000000000000000000000000000000013882000000000000000000000000000000000000000000000000002c0dbbfb370000000000000000000000000000699bceebd59a5b52bb586c737cd7ba636f3fe6020000000000000000000000000000000000000000000000000000000000013882000000000000000000000000000000000000000000000000002c68af0bb14000",
        "nonce": "0x19b",
        "chainId": "0xaa36a7",
        "accessList": null,
        "type": null
      },
      "additionalContracts": [],
      "isFixedGasLimit": false
    }
  ],
  "receipts": [
    {
      "status": "0x1",
      "cumulativeGasUsed": "0x1024e4c",
      "logs": [
        {
          "address": "0x23dd1aa37b5c81d64586c021330d61d3ad55aafb",
          "topics": [
            "0x9853b992610853aa2f058d95d0a4868ffcd37470b93a5e6634619467e0d4228c",
            "0x69eb317582783f4885d4bca3962db7baa7195c5e32d21ec401380fe3ca15470a",
            "0x000000000000000000000000699bceebd59a5b52bb586c737cd7ba636f3fe602",
            "0x00000000000000000000000000000000000000000000000000276f642501c000"
          ],
          "data": "0x0000000000000000000000000000000000000000000000000000000066307a88000000000000000000000000699bceebd59a5b52bb586c737cd7ba636f3fe60200000000000000000000000000000000000000000000000000000000000138820000000000000000000000000000000000000000000000a2a15d09519be000000000000000000000000000000000000000000000000000000de0b6b3a7640000",
          "blockHash": "0xe13779f9cbd9eb2c8a1eb88a58dfcdfb20089550fc29d5653a464a2ecbdbc30c",
          "blockNumber": "0x589a94",
          "transactionHash": "0xbd686aedfebc85415e44c56cac5a1dee28371ff135016cf42a4f09ab8ba0a965",
          "transactionIndex": "0x74",
          "logIndex": "0xe0",
          "removed": false
        },
        {
          "address": "0x23dd1aa37b5c81d64586c021330d61d3ad55aafb",
          "topics": [
            "0x9853b992610853aa2f058d95d0a4868ffcd37470b93a5e6634619467e0d4228c",
            "0x37b3ee85f31090a821d1ef3ba980ce262f1884e281531ad808b6ad9a7145e5c5",
            "0x000000000000000000000000699bceebd59a5b52bb586c737cd7ba636f3fe602",
            "0x0000000000000000000000000000000000000000000000000027ca57357c0000"
          ],
          "data": "0x0000000000000000000000000000000000000000000000000000000066307a88000000000000000000000000699bceebd59a5b52bb586c737cd7ba636f3fe60200000000000000000000000000000000000000000000000000000000000138820000000000000000000000000000000000000000000000a2a15d09519be000000000000000000000000000000000000000000000000000000de0b6b3a7640000",
          "blockHash": "0xe13779f9cbd9eb2c8a1eb88a58dfcdfb20089550fc29d5653a464a2ecbdbc30c",
          "blockNumber": "0x589a94",
          "transactionHash": "0xbd686aedfebc85415e44c56cac5a1dee28371ff135016cf42a4f09ab8ba0a965",
          "transactionIndex": "0x74",
          "logIndex": "0xe1",
          "removed": false
        },
        {
          "address": "0x23dd1aa37b5c81d64586c021330d61d3ad55aafb",
          "topics": [
            "0x9853b992610853aa2f058d95d0a4868ffcd37470b93a5e6634619467e0d4228c",
            "0x58270052b25613f4e9d11eb5debb99c54d42e1dd2650e2c78dbf1b092b0c5fc4",
            "0x000000000000000000000000699bceebd59a5b52bb586c737cd7ba636f3fe602",
            "0x0000000000000000000000000000000000000000000000000028254a45f64000"
          ],
          "data": "0x0000000000000000000000000000000000000000000000000000000066307a88000000000000000000000000699bceebd59a5b52bb586c737cd7ba636f3fe60200000000000000000000000000000000000000000000000000000000000138820000000000000000000000000000000000000000000000a2a15d09519be000000000000000000000000000000000000000000000000000000de0b6b3a7640000",
          "blockHash": "0xe13779f9cbd9eb2c8a1eb88a58dfcdfb20089550fc29d5653a464a2ecbdbc30c",
          "blockNumber": "0x589a94",
          "transactionHash": "0xbd686aedfebc85415e44c56cac5a1dee28371ff135016cf42a4f09ab8ba0a965",
          "transactionIndex": "0x74",
          "logIndex": "0xe2",
          "removed": false
        },
        {
          "address": "0x23dd1aa37b5c81d64586c021330d61d3ad55aafb",
          "topics": [
            "0x9853b992610853aa2f058d95d0a4868ffcd37470b93a5e6634619467e0d4228c",
            "0x9d38e23d82ac66add301c462e62428f0760912ebd08a44ff6297a40d9ee6af3e",
            "0x000000000000000000000000699bceebd59a5b52bb586c737cd7ba636f3fe602",
            "0x0000000000000000000000000000000000000000000000000028803d56708000"
          ],
          "data": "0x0000000000000000000000000000000000000000000000000000000066307a88000000000000000000000000699bceebd59a5b52bb586c737cd7ba636f3fe60200000000000000000000000000000000000000000000000000000000000138820000000000000000000000000000000000000000000000a2a15d09519be000000000000000000000000000000000000000000000000000000de0b6b3a7640000",
          "blockHash": "0xe13779f9cbd9eb2c8a1eb88a58dfcdfb20089550fc29d5653a464a2ecbdbc30c",
          "blockNumber": "0x589a94",
          "transactionHash": "0xbd686aedfebc85415e44c56cac5a1dee28371ff135016cf42a4f09ab8ba0a965",
          "transactionIndex": "0x74",
          "logIndex": "0xe3",
          "removed": false
        },
        {
          "address": "0x23dd1aa37b5c81d64586c021330d61d3ad55aafb",
          "topics": [
            "0x9853b992610853aa2f058d95d0a4868ffcd37470b93a5e6634619467e0d4228c",
            "0x66805ad0887eab7b5691840165f931d9b5866545fe7808750126667b69e6e431",
            "0x000000000000000000000000699bceebd59a5b52bb586c737cd7ba636f3fe602",
            "0x0000000000000000000000000000000000000000000000000028db3066eac000"
          ],
          "data": "0x0000000000000000000000000000000000000000000000000000000066307a88000000000000000000000000699bceebd59a5b52bb586c737cd7ba636f3fe60200000000000000000000000000000000000000000000000000000000000138820000000000000000000000000000000000000000000000a2a15d09519be000000000000000000000000000000000000000000000000000000de0b6b3a7640000",
          "blockHash": "0xe13779f9cbd9eb2c8a1eb88a58dfcdfb20089550fc29d5653a464a2ecbdbc30c",
          "blockNumber": "0x589a94",
          "transactionHash": "0xbd686aedfebc85415e44c56cac5a1dee28371ff135016cf42a4f09ab8ba0a965",
          "transactionIndex": "0x74",
          "logIndex": "0xe4",
          "removed": false
        },
        {
          "address": "0x23dd1aa37b5c81d64586c021330d61d3ad55aafb",
          "topics": [
            "0x9853b992610853aa2f058d95d0a4868ffcd37470b93a5e6634619467e0d4228c",
            "0xf3b813512115c4af95205ce058f6a2faf68e35861d90cdf53ac3d48c38f63d0f",
            "0x000000000000000000000000699bceebd59a5b52bb586c737cd7ba636f3fe602",
            "0x0000000000000000000000000000000000000000000000000029362377650000"
          ],
          "data": "0x0000000000000000000000000000000000000000000000000000000066307a88000000000000000000000000699bceebd59a5b52bb586c737cd7ba636f3fe60200000000000000000000000000000000000000000000000000000000000138820000000000000000000000000000000000000000000000a2a15d09519be000000000000000000000000000000000000000000000000000000de0b6b3a7640000",
          "blockHash": "0xe13779f9cbd9eb2c8a1eb88a58dfcdfb20089550fc29d5653a464a2ecbdbc30c",
          "blockNumber": "0x589a94",
          "transactionHash": "0xbd686aedfebc85415e44c56cac5a1dee28371ff135016cf42a4f09ab8ba0a965",
          "transactionIndex": "0x74",
          "logIndex": "0xe5",
          "removed": false
        },
        {
          "address": "0x23dd1aa37b5c81d64586c021330d61d3ad55aafb",
          "topics": [
            "0x9853b992610853aa2f058d95d0a4868ffcd37470b93a5e6634619467e0d4228c",
            "0x679c6d15b66831f0b33f40fa7520bc1350accd1f714e77b854b70c76621b018d",
            "0x000000000000000000000000699bceebd59a5b52bb586c737cd7ba636f3fe602",
            "0x0000000000000000000000000000000000000000000000000029911687df4000"
          ],
          "data": "0x0000000000000000000000000000000000000000000000000000000066307a88000000000000000000000000699bceebd59a5b52bb586c737cd7ba636f3fe60200000000000000000000000000000000000000000000000000000000000138820000000000000000000000000000000000000000000000a2a15d09519be000000000000000000000000000000000000000000000000000000de0b6b3a7640000",
          "blockHash": "0xe13779f9cbd9eb2c8a1eb88a58dfcdfb20089550fc29d5653a464a2ecbdbc30c",
          "blockNumber": "0x589a94",
          "transactionHash": "0xbd686aedfebc85415e44c56cac5a1dee28371ff135016cf42a4f09ab8ba0a965",
          "transactionIndex": "0x74",
          "logIndex": "0xe6",
          "removed": false
        },
        {
          "address": "0x23dd1aa37b5c81d64586c021330d61d3ad55aafb",
          "topics": [
            "0x9853b992610853aa2f058d95d0a4868ffcd37470b93a5e6634619467e0d4228c",
            "0xbee17d3232d5934e48dcad269df85d432d7abcadcce006fda9a2b931b27af5b0",
            "0x000000000000000000000000699bceebd59a5b52bb586c737cd7ba636f3fe602",
            "0x0000000000000000000000000000000000000000000000000029ec0998598000"
          ],
          "data": "0x0000000000000000000000000000000000000000000000000000000066307a88000000000000000000000000699bceebd59a5b52bb586c737cd7ba636f3fe60200000000000000000000000000000000000000000000000000000000000138820000000000000000000000000000000000000000000000a2a15d09519be000000000000000000000000000000000000000000000000000000de0b6b3a7640000",
          "blockHash": "0xe13779f9cbd9eb2c8a1eb88a58dfcdfb20089550fc29d5653a464a2ecbdbc30c",
          "blockNumber": "0x589a94",
          "transactionHash": "0xbd686aedfebc85415e44c56cac5a1dee28371ff135016cf42a4f09ab8ba0a965",
          "transactionIndex": "0x74",
          "logIndex": "0xe7",
          "removed": false
        },
        {
          "address": "0x23dd1aa37b5c81d64586c021330d61d3ad55aafb",
          "topics": [
            "0x9853b992610853aa2f058d95d0a4868ffcd37470b93a5e6634619467e0d4228c",
            "0x492d8003c85567828478eda3ddba971e05d4d12ae2b99e8aadf5b753712cbf3a",
            "0x000000000000000000000000699bceebd59a5b52bb586c737cd7ba636f3fe602",
            "0x000000000000000000000000000000000000000000000000002a46fca8d3c000"
          ],
          "data": "0x0000000000000000000000000000000000000000000000000000000066307a88000000000000000000000000699bceebd59a5b52bb586c737cd7ba636f3fe60200000000000000000000000000000000000000000000000000000000000138820000000000000000000000000000000000000000000000a2a15d09519be000000000000000000000000000000000000000000000000000000de0b6b3a7640000",
          "blockHash": "0xe13779f9cbd9eb2c8a1eb88a58dfcdfb20089550fc29d5653a464a2ecbdbc30c",
          "blockNumber": "0x589a94",
          "transactionHash": "0xbd686aedfebc85415e44c56cac5a1dee28371ff135016cf42a4f09ab8ba0a965",
          "transactionIndex": "0x74",
          "logIndex": "0xe8",
          "removed": false
        },
        {
          "address": "0x23dd1aa37b5c81d64586c021330d61d3ad55aafb",
          "topics": [
            "0x9853b992610853aa2f058d95d0a4868ffcd37470b93a5e6634619467e0d4228c",
            "0xb67a3a82744d1d03616c7f4670c65c98e664a5995cb2df1210a4dc7b865e375c",
            "0x000000000000000000000000699bceebd59a5b52bb586c737cd7ba636f3fe602",
            "0x000000000000000000000000000000000000000000000000002aa1efb94e0000"
          ],
          "data": "0x0000000000000000000000000000000000000000000000000000000066307a88000000000000000000000000699bceebd59a5b52bb586c737cd7ba636f3fe60200000000000000000000000000000000000000000000000000000000000138820000000000000000000000000000000000000000000000a2a15d09519be000000000000000000000000000000000000000000000000000000de0b6b3a7640000",
          "blockHash": "0xe13779f9cbd9eb2c8a1eb88a58dfcdfb20089550fc29d5653a464a2ecbdbc30c",
          "blockNumber": "0x589a94",
          "transactionHash": "0xbd686aedfebc85415e44c56cac5a1dee28371ff135016cf42a4f09ab8ba0a965",
          "transactionIndex": "0x74",
          "logIndex": "0xe9",
          "removed": false
        },
        {
          "address": "0x23dd1aa37b5c81d64586c021330d61d3ad55aafb",
          "topics": [
            "0x9853b992610853aa2f058d95d0a4868ffcd37470b93a5e6634619467e0d4228c",
            "0x0064cb63290c9752dc6ab5a0992e930a8be3c15e310c96b09f58d0701906cd1d",
            "0x000000000000000000000000699bceebd59a5b52bb586c737cd7ba636f3fe602",
            "0x000000000000000000000000000000000000000000000000002afce2c9c84000"
          ],
          "data": "0x0000000000000000000000000000000000000000000000000000000066307a88000000000000000000000000699bceebd59a5b52bb586c737cd7ba636f3fe60200000000000000000000000000000000000000000000000000000000000138820000000000000000000000000000000000000000000000a2a15d09519be000000000000000000000000000000000000000000000000000000de0b6b3a7640000",
          "blockHash": "0xe13779f9cbd9eb2c8a1eb88a58dfcdfb20089550fc29d5653a464a2ecbdbc30c",
          "blockNumber": "0x589a94",
          "transactionHash": "0xbd686aedfebc85415e44c56cac5a1dee28371ff135016cf42a4f09ab8ba0a965",
          "transactionIndex": "0x74",
          "logIndex": "0xea",
          "removed": false
        },
        {
          "address": "0x23dd1aa37b5c81d64586c021330d61d3ad55aafb",
          "topics": [
            "0x9853b992610853aa2f058d95d0a4868ffcd37470b93a5e6634619467e0d4228c",
            "0x2ebd79588433f9af26061003bd381c61c7ad968c8e59ccce6d5e9a8e040bd9a7",
            "0x000000000000000000000000699bceebd59a5b52bb586c737cd7ba636f3fe602",
            "0x000000000000000000000000000000000000000000000000002b57d5da428000"
          ],
          "data": "0x0000000000000000000000000000000000000000000000000000000066307a88000000000000000000000000699bceebd59a5b52bb586c737cd7ba636f3fe60200000000000000000000000000000000000000000000000000000000000138820000000000000000000000000000000000000000000000a2a15d09519be000000000000000000000000000000000000000000000000000000de0b6b3a7640000",
          "blockHash": "0xe13779f9cbd9eb2c8a1eb88a58dfcdfb20089550fc29d5653a464a2ecbdbc30c",
          "blockNumber": "0x589a94",
          "transactionHash": "0xbd686aedfebc85415e44c56cac5a1dee28371ff135016cf42a4f09ab8ba0a965",
          "transactionIndex": "0x74",
          "logIndex": "0xeb",
          "removed": false
        },
        {
          "address": "0x23dd1aa37b5c81d64586c021330d61d3ad55aafb",
          "topics": [
            "0x9853b992610853aa2f058d95d0a4868ffcd37470b93a5e6634619467e0d4228c",
            "0x30959b3f3c572327a1801b4ec72bd7030834c49e372d325f1a3fc7bfc038693c",
            "0x000000000000000000000000699bceebd59a5b52bb586c737cd7ba636f3fe602",
            "0x000000000000000000000000000000000000000000000000002bb2c8eabcc000"
          ],
          "data": "0x0000000000000000000000000000000000000000000000000000000066307a88000000000000000000000000699bceebd59a5b52bb586c737cd7ba636f3fe60200000000000000000000000000000000000000000000000000000000000138820000000000000000000000000000000000000000000000a2a15d09519be000000000000000000000000000000000000000000000000000000de0b6b3a7640000",
          "blockHash": "0xe13779f9cbd9eb2c8a1eb88a58dfcdfb20089550fc29d5653a464a2ecbdbc30c",
          "blockNumber": "0x589a94",
          "transactionHash": "0xbd686aedfebc85415e44c56cac5a1dee28371ff135016cf42a4f09ab8ba0a965",
          "transactionIndex": "0x74",
          "logIndex": "0xec",
          "removed": false
        },
        {
          "address": "0x23dd1aa37b5c81d64586c021330d61d3ad55aafb",
          "topics": [
            "0x9853b992610853aa2f058d95d0a4868ffcd37470b93a5e6634619467e0d4228c",
            "0xc8eb029fb63beaa85714811539de7dc64fe83263c67a2de901ffbba22f5ee792",
            "0x000000000000000000000000699bceebd59a5b52bb586c737cd7ba636f3fe602",
            "0x000000000000000000000000000000000000000000000000002c0dbbfb370000"
          ],
          "data": "0x0000000000000000000000000000000000000000000000000000000066307a88000000000000000000000000699bceebd59a5b52bb586c737cd7ba636f3fe60200000000000000000000000000000000000000000000000000000000000138820000000000000000000000000000000000000000000000a2a15d09519be000000000000000000000000000000000000000000000000000000de0b6b3a7640000",
          "blockHash": "0xe13779f9cbd9eb2c8a1eb88a58dfcdfb20089550fc29d5653a464a2ecbdbc30c",
          "blockNumber": "0x589a94",
          "transactionHash": "0xbd686aedfebc85415e44c56cac5a1dee28371ff135016cf42a4f09ab8ba0a965",
          "transactionIndex": "0x74",
          "logIndex": "0xed",
          "removed": false
        },
        {
          "address": "0x23dd1aa37b5c81d64586c021330d61d3ad55aafb",
          "topics": [
            "0x9853b992610853aa2f058d95d0a4868ffcd37470b93a5e6634619467e0d4228c",
            "0x400f6ba94f798cd34c6bd2527106bc99484f468c782d0f8780d0dce442657172",
            "0x000000000000000000000000699bceebd59a5b52bb586c737cd7ba636f3fe602",
            "0x000000000000000000000000000000000000000000000000002c68af0bb14000"
          ],
          "data": "0x0000000000000000000000000000000000000000000000000000000066307a88000000000000000000000000699bceebd59a5b52bb586c737cd7ba636f3fe60200000000000000000000000000000000000000000000000000000000000138820000000000000000000000000000000000000000000000a2a15d09519be000000000000000000000000000000000000000000000000000000de0b6b3a7640000",
          "blockHash": "0xe13779f9cbd9eb2c8a1eb88a58dfcdfb20089550fc29d5653a464a2ecbdbc30c",
          "blockNumber": "0x589a94",
          "transactionHash": "0xbd686aedfebc85415e44c56cac5a1dee28371ff135016cf42a4f09ab8ba0a965",
          "transactionIndex": "0x74",
          "logIndex": "0xee",
          "removed": false
        }
      ],
      "logsBloom": "0x00000000020020010000001000200000220000000000000080408000000004000022c00090000010000040808000011000000000100000000000000004000001010000000000000000000000008800000008000000000000040100040040080000800000008000000000004400400000000090008000008800000080400004004011000000a0000040000400025002000000000000000001000000105008000000000000000000004401800600000004000000008500004040008004080000000000000000000000000800410800800000040000012000000000000000000000000001020000000000d001000000000000000100600000000010000000000000",
      "type": "0x2",
      "transactionHash": "0xbd686aedfebc85415e44c56cac5a1dee28371ff135016cf42a4f09ab8ba0a965",
      "transactionIndex": "0x74",
      "blockHash": "0xe13779f9cbd9eb2c8a1eb88a58dfcdfb20089550fc29d5653a464a2ecbdbc30c",
      "blockNumber": "0x589a94",
      "gasUsed": "0x2a545",
      "effectiveGasPrice": "0x630d97d2",
      "from": "0x699bceebd59a5b52bb586c737cd7ba636f3fe602",
      "to": "0x23dd1aa37b5c81d64586c021330d61d3ad55aafb",
      "contractAddress": null
    }
  ],
  "libraries": [],
  "pending": [],
  "returns": {},
  "timestamp": 1714453130,
  "chain": 11155111,
  "commit": "9546700"
}