{
  "transactions": [
    {
      "hash": "0xa20f0962d55b5fa31f8f77e707a7df8f0f00e5ee78d8760f2b115c5a1bf15886",
      "transactionType": "CALL",
      "contractName": null,
      "contractAddress": "0x371862509e523e8fb89eb8911254c14c882fca96",
      "function": "postMessage((address,uint256,uint256)[])",
      "arguments": [
        "[(0x699BceEbD59a5b52bB586C737cD7ba636f3Fe602, 80002, 50000000000000000)]"
      ],
      "transaction": {
        "from": "0x699bceebd59a5b52bb586c737cd7ba636f3fe602",
        "to": "0x371862509e523e8fb89eb8911254c14c882fca96",
        "gas": "0x1f9f2",
        "value": "0xb1a2bc2ec50000",
        "input": "0x42cbee8d00000000000000000000000000000000000000000000000000000000000000200000000000000000000000000000000000000000000000000000000000000001000000000000000000000000699bceebd59a5b52bb586c737cd7ba636f3fe602000000000000000000000000000000000000000000000000000000000001388200000000000000000000000000000000000000000000000000b1a2bc2ec50000",
        "nonce": "0x133",
        "chainId": "0xaa36a7",
        "accessList": null,
        "type": null
      },
      "additionalContracts": [],
      "isFixedGasLimit": false
    }
  ],
  "receipts": [
    {
      "status": "0x1",
      "cumulativeGasUsed": "0x9cd501",
      "logs": [
        {
          "address": "0x371862509e523e8fb89eb8911254c14c882fca96",
          "topics": [
            "0x9853b992610853aa2f058d95d0a4868ffcd37470b93a5e6634619467e0d4228c",
            "0x5d21273bc090a5fd02b2af9a44bbce704821d754ff9b06b6f1bc3e285ae23103",
            "0x000000000000000000000000699bceebd59a5b52bb586c737cd7ba636f3fe602",
            "0x00000000000000000000000000000000000000000000000000b1a2bc2ec50000"
          ],
          "data": "0x00000000000000000000000000000000000000000000000000000000662caa8c000000000000000000000000699bceebd59a5b52bb586c737cd7ba636f3fe60200000000000000000000000000000000000000000000000000000000000138820000000000000000000000000000000000000000000000a2a15d09519be000000000000000000000000000000000000000000000000000000de0b6b3a7640000",
          "blockHash": "0x5f1f8f6d3fd07e56fb4369444b295664afd5e855aaf3758deb63d07e937dd4c6",
          "blockNumber": "0x584dfb",
          "transactionHash": "0xa20f0962d55b5fa31f8f77e707a7df8f0f00e5ee78d8760f2b115c5a1bf15886",
          "transactionIndex": "0x5a",
          "logIndex": "0xf5",
          "removed": false
        }
      ],
      "logsBloom": "0x00000000000000000000000000000000000000000000000000400000000000000000000400000000000000000000000000000000000000000001000000020000000000000000000000000000000000040000000000000000004000000000000000800104000002000000000000000000000000008000000000000000000000000000000000000000000000000000000000000000000000000000000000000000000000000000000000002000000000000000000000000000000000000000000000000000000000000000000000008000000000000000000000000000000000000000000000000000001000000000000000000100000000000000000000000000",
      "type": "0x2",
      "transactionHash": "0xa20f0962d55b5fa31f8f77e707a7df8f0f00e5ee78d8760f2b115c5a1bf15886",
      "transactionIndex": "0x5a",
      "blockHash": "0x5f1f8f6d3fd07e56fb4369444b295664afd5e855aaf3758deb63d07e937dd4c6",
      "blockNumber": "0x584dfb",
      "gasUsed": "0x16e4d",
      "effectiveGasPrice": "0x243332b62",
      "from": "0x699bceebd59a5b52bb586c737cd7ba636f3fe602",
      "to": "0x371862509e523e8fb89eb8911254c14c882fca96",
      "contractAddress": null
    }
  ],
  "libraries": [],
  "pending": [],
  "returns": {},
  "timestamp": 1714203279,
  "chain": 11155111,
  "commit": "d8ddccd"
}