{
  "transactions": [
    {
      "hash": "0x17ef1285ee07118d236597df9b6f27637177812c29fd0f72b76fe2cc926c552f",
      "transactionType": "CALL",
      "contractName": null,
      "contractAddress": "0x371862509e523e8fb89eb8911254c14c882fca96",
      "function": "postMessage((address,uint256,uint256)[])",
      "arguments": [
        "[(0x699BceEbD59a5b52bB586C737cD7ba636f3Fe602, 80002, 200000000000000000)]"
      ],
      "transaction": {
        "from": "0x699bceebd59a5b52bb586c737cd7ba636f3fe602",
        "to": "0x371862509e523e8fb89eb8911254c14c882fca96",
        "gas": "0x217c8",
        "value": "0x2c68af0bb140000",
        "input": "0x42cbee8d00000000000000000000000000000000000000000000000000000000000000200000000000000000000000000000000000000000000000000000000000000001000000000000000000000000699bceebd59a5b52bb586c737cd7ba636f3fe602000000000000000000000000000000000000000000000000000000000001388200000000000000000000000000000000000000000000000002c68af0bb140000",
        "nonce": "0x128",
        "chainId": "0xaa36a7",
        "accessList": null,
        "type": null
      },
      "additionalContracts": [],
      "isFixedGasLimit": false
    }
  ],
  "receipts": [
    {
      "status": "0x1",
      "cumulativeGasUsed": "0xb3b2ea",
      "logs": [
        {
          "address": "0x371862509e523e8fb89eb8911254c14c882fca96",
          "topics": [
            "0x9853b992610853aa2f058d95d0a4868ffcd37470b93a5e6634619467e0d4228c",
            "0x9bd84bf1dfae8ff485c91408d4b7787bd92977ef940fd73c4fd40e76ba73d417",
            "0x000000000000000000000000699bceebd59a5b52bb586c737cd7ba636f3fe602",
            "0x00000000000000000000000000000000000000000000000002c68af0bb140000"
          ],
          "data": "0x00000000000000000000000000000000000000000000000000000000662bce54000000000000000000000000699bceebd59a5b52bb586c737cd7ba636f3fe60200000000000000000000000000000000000000000000000000000000000138820000000000000000000000000000000000000000000000a2a15d09519be000000000000000000000000000000000000000000000000000000de0b6b3a7640000",
          "blockHash": "0xd70e09db3aef2a18c2e964d2632c1721badc13f200af225aa0c044e44e3bb631",
          "blockNumber": "0x583c3b",
          "transactionHash": "0x17ef1285ee07118d236597df9b6f27637177812c29fd0f72b76fe2cc926c552f",
          "transactionIndex": "0x43",
          "logIndex": "0x63",
          "removed": false
        }
      ],
      "logsBloom": "0x00000000000000000000000000000000000000000000000000400000000000000000000000000000000000000000000000020000000000000000000000020000000000000000000000004000000000000000000000000000000000000000000000800004000002000000000000000000000000008000000000000000000000000000000000000000000001000000000000000000000002000000000000040000000000000000020000000000000000000000000000000000000000000000000000000000000000000000000000008000000000000000000000000000000000000000000000000000001000000000000000000100000000000000000000000000",
      "type": "0x2",
      "transactionHash": "0x17ef1285ee07118d236597df9b6f27637177812c29fd0f72b76fe2cc926c552f",
      "transactionIndex": "0x43",
      "blockHash": "0xd70e09db3aef2a18c2e964d2632c1721badc13f200af225aa0c044e44e3bb631",
      "blockNumber": "0x583c3b",
      "gasUsed": "0x16e59",
      "effectiveGasPrice": "0xb9fd7675",
      "from": "0x699bceebd59a5b52bb586c737cd7ba636f3fe602",
      "to": "0x371862509e523e8fb89eb8911254c14c882fca96",
      "contractAddress": null
    }
  ],
  "libraries": [],
  "pending": [],
  "returns": {},
  "timestamp": 1714146906,
  "chain": 11155111,
  "commit": "d8ddccd"
}