{
  "transactions": [
    {
      "hash": "0xad43ed4357c9f55a1b9ef68e118c442fdd7f084a154c5d63ceef0410501ef9f3",
      "transactionType": "CALL",
      "contractName": null,
      "contractAddress": "0x23dd1aa37b5c81d64586c021330d61d3ad55aafb",
      "function": "postMessage((address,uint256,uint256)[])",
      "arguments": [
        "[(0x699BceEbD59a5b52bB586C737cD7ba636f3Fe602, 80002, 11100000000000000), (0x699BceEbD59a5b52bB586C737cD7ba636f3Fe602, 80002, 11200000000000000), (0x699BceEbD59a5b52bB586C737cD7ba636f3Fe602, 80002, 11300000000000000), (0x699BceEbD59a5b52bB586C737cD7ba636f3Fe602, 80002, 11400000000000000), (0x699BceEbD59a5b52bB586C737cD7ba636f3Fe602, 80002, 11500000000000000)]"
      ],
      "transaction": {
        "from": "0x699bceebd59a5b52bb586c737cd7ba636f3fe602",
        "to": "0x23dd1aa37b5c81d64586c021330d61d3ad55aafb",
        "gas": "0x274b6",
        "value": "0xd529ae9e860000",
        "input": "0x42cbee8d00000000000000000000000000000000000000000000000000000000000000200000000000000000000000000000000000000000000000000000000000000005000000000000000000000000699bceebd59a5b52bb586c737cd7ba636f3fe602000000000000000000000000000000000000000000000000000000000001388200000000000000000000000000000000000000000000000000276f642501c000000000000000000000000000699bceebd59a5b52bb586c737cd7ba636f3fe60200000000000000000000000000000000000000000000000000000000000138820000000000000000000000000000000000000000000000000027ca57357c0000000000000000000000000000699bceebd59a5b52bb586c737cd7ba636f3fe60200000000000000000000000000000000000000000000000000000000000138820000000000000000000000000000000000000000000000000028254a45f64000000000000000000000000000699bceebd59a5b52bb586c737cd7ba636f3fe60200000000000000000000000000000000000000000000000000000000000138820000000000000000000000000000000000000000000000000028803d56708000000000000000000000000000699bceebd59a5b52bb586c737cd7ba636f3fe60200000000000000000000000000000000000000000000000000000000000138820000000000000000000000000000000000000000000000000028db3066eac000",
        "nonce": "0x170",
        "chainId": "0xaa36a7",
        "accessList": null,
        "type": null
      },
      "additionalContracts": [],
      "isFixedGasLimit": false
    }
  ],
  "receipts": [
    {
      "status": "0x1",
      "cumulativeGasUsed": "0x124ded4",
      "logs": [
        {
          "address": "0x23dd1aa37b5c81d64586c021330d61d3ad55aafb",
          "topics": [
            "0x9853b992610853aa2f058d95d0a4868ffcd37470b93a5e6634619467e0d4228c",
            "0x32bb4e69714ff4ec16cbc527bff74192562d700821446f3ccc765cbb68ac838e",
            "0x000000000000000000000000699bceebd59a5b52bb586c737cd7ba636f3fe602",
            "0x00000000000000000000000000000000000000000000000000276f642501c000"
          ],
          "data": "0x00000000000000000000000000000000000000000000000000000000662fde88000000000000000000000000699bceebd59a5b52bb586c737cd7ba636f3fe60200000000000000000000000000000000000000000000000000000000000138820000000000000000000000000000000000000000000000a2a15d09519be000000000000000000000000000000000000000000000000000000de0b6b3a7640000",
          "blockHash": "0x5d533a8f0ad1ac2c49fd0748554ed691cba1af1ce1221d32942362a9b85b1554",
          "blockNumber": "0x588f46",
          "transactionHash": "0xad43ed4357c9f55a1b9ef68e118c442fdd7f084a154c5d63ceef0410501ef9f3",
          "transactionIndex": "0x60",
          "logIndex": "0xe7",
          "removed": false
        },
        {
          "address": "0x23dd1aa37b5c81d64586c021330d61d3ad55aafb",
          "topics": [
            "0x9853b992610853aa2f058d95d0a4868ffcd37470b93a5e6634619467e0d4228c",
            "0x5fc7537115ac5a70396fbe800c6ed70222d01e54b654eaabb73965767edbf749",
            "0x000000000000000000000000699bceebd59a5b52bb586c737cd7ba636f3fe602",
            "0x0000000000000000000000000000000000000000000000000027ca57357c0000"
          ],
          "data": "0x00000000000000000000000000000000000000000000000000000000662fde88000000000000000000000000699bceebd59a5b52bb586c737cd7ba636f3fe60200000000000000000000000000000000000000000000000000000000000138820000000000000000000000000000000000000000000000a2a15d09519be000000000000000000000000000000000000000000000000000000de0b6b3a7640000",
          "blockHash": "0x5d533a8f0ad1ac2c49fd0748554ed691cba1af1ce1221d32942362a9b85b1554",
          "blockNumber": "0x588f46",
          "transactionHash": "0xad43ed4357c9f55a1b9ef68e118c442fdd7f084a154c5d63ceef0410501ef9f3",
          "transactionIndex": "0x60",
          "logIndex": "0xe8",
          "removed": false
        },
        {
          "address": "0x23dd1aa37b5c81d64586c021330d61d3ad55aafb",
          "topics": [
            "0x9853b992610853aa2f058d95d0a4868ffcd37470b93a5e6634619467e0d4228c",
            "0xb81279dd95547d487a3fb04e2d9d6ed60edd82588a8d982eab4b93157579f757",
            "0x000000000000000000000000699bceebd59a5b52bb586c737cd7ba636f3fe602",
            "0x0000000000000000000000000000000000000000000000000028254a45f64000"
          ],
          "data": "0x00000000000000000000000000000000000000000000000000000000662fde88000000000000000000000000699bceebd59a5b52bb586c737cd7ba636f3fe60200000000000000000000000000000000000000000000000000000000000138820000000000000000000000000000000000000000000000a2a15d09519be000000000000000000000000000000000000000000000000000000de0b6b3a7640000",
          "blockHash": "0x5d533a8f0ad1ac2c49fd0748554ed691cba1af1ce1221d32942362a9b85b1554",
          "blockNumber": "0x588f46",
          "transactionHash": "0xad43ed4357c9f55a1b9ef68e118c442fdd7f084a154c5d63ceef0410501ef9f3",
          "transactionIndex": "0x60",
          "logIndex": "0xe9",
          "removed": false
        },
        {
          "address": "0x23dd1aa37b5c81d64586c021330d61d3ad55aafb",
          "topics": [
            "0x9853b992610853aa2f058d95d0a4868ffcd37470b93a5e6634619467e0d4228c",
            "0xadfbec738c9fae1ecc53534bd3b97bf96a1f23b5933158183e26c99e244787f8",
            "0x000000000000000000000000699bceebd59a5b52bb586c737cd7ba636f3fe602",
            "0x0000000000000000000000000000000000000000000000000028803d56708000"
          ],
          "data": "0x00000000000000000000000000000000000000000000000000000000662fde88000000000000000000000000699bceebd59a5b52bb586c737cd7ba636f3fe60200000000000000000000000000000000000000000000000000000000000138820000000000000000000000000000000000000000000000a2a15d09519be000000000000000000000000000000000000000000000000000000de0b6b3a7640000",
          "blockHash": "0x5d533a8f0ad1ac2c49fd0748554ed691cba1af1ce1221d32942362a9b85b1554",
          "blockNumber": "0x588f46",
          "transactionHash": "0xad43ed4357c9f55a1b9ef68e118c442fdd7f084a154c5d63ceef0410501ef9f3",
          "transactionIndex": "0x60",
          "logIndex": "0xea",
          "removed": false
        },
        {
          "address": "0x23dd1aa37b5c81d64586c021330d61d3ad55aafb",
          "topics": [
            "0x9853b992610853aa2f058d95d0a4868ffcd37470b93a5e6634619467e0d4228c",
            "0x76121fb4f3b34830fc4876d13972634de69aa68cf10104ccdcd9c6934c1cf30d",
            "0x000000000000000000000000699bceebd59a5b52bb586c737cd7ba636f3fe602",
            "0x0000000000000000000000000000000000000000000000000028db3066eac000"
          ],
          "data": "0x00000000000000000000000000000000000000000000000000000000662fde88000000000000000000000000699bceebd59a5b52bb586c737cd7ba636f3fe60200000000000000000000000000000000000000000000000000000000000138820000000000000000000000000000000000000000000000a2a15d09519be000000000000000000000000000000000000000000000000000000de0b6b3a7640000",
          "blockHash": "0x5d533a8f0ad1ac2c49fd0748554ed691cba1af1ce1221d32942362a9b85b1554",
          "blockNumber": "0x588f46",
          "transactionHash": "0xad43ed4357c9f55a1b9ef68e118c442fdd7f084a154c5d63ceef0410501ef9f3",
          "transactionIndex": "0x60",
          "logIndex": "0xeb",
          "removed": false
        }
      ],
      "logsBloom": "0x00000000000000000000000100000000300000000000400002400000000000000000408000000010100000800000001000000000000000000000000000000400010000000000000000000000000000000000000020000000000000000000000000800000000000000000000400000200000000008000000000000000000000000000000000000000000000000210020000000000000000000000000000000000000000000000000004000000000000000000000010000000000000041000000000000000000000000800004000008000000000000000000000000000000000000000010200000000005001000000000010000100200200000004000000000000",
      "type": "0x2",
      "transactionHash": "0xad43ed4357c9f55a1b9ef68e118c442fdd7f084a154c5d63ceef0410501ef9f3",
      "transactionIndex": "0x60",
      "blockHash": "0x5d533a8f0ad1ac2c49fd0748554ed691cba1af1ce1221d32942362a9b85b1554",
      "blockNumber": "0x588f46",
      "gasUsed": "0x1c72e",
      "effectiveGasPrice": "0x78341ff0",
      "from": "0x699bceebd59a5b52bb586c737cd7ba636f3fe602",
      "to": "0x23dd1aa37b5c81d64586c021330d61d3ad55aafb",
      "contractAddress": null
    }
  ],
  "libraries": [],
  "pending": [],
  "returns": {},
  "timestamp": 1714413199,
  "chain": 11155111,
  "commit": "9546700"
}