{
  "transactions": [
    {
      "hash": "0x41fbcd535b2be12dbcb442471bae2982396b2b71dce1cafcf6c2ce26a0144f24",
      "transactionType": "CALL",
      "contractName": null,
      "contractAddress": "0x371862509e523e8fb89eb8911254c14c882fca96",
      "function": "postMessage((address,uint256,uint256)[])",
      "arguments": [
        "[(0x699BceEbD59a5b52bB586C737cD7ba636f3Fe602, 80002, 200000000000000000)]"
      ],
      "transaction": {
        "from": "0x699bceebd59a5b52bb586c737cd7ba636f3fe602",
        "to": "0x371862509e523e8fb89eb8911254c14c882fca96",
        "gas": "0x46c43",
        "value": "0x2c68af0bb140000",
        "input": "0x42cbee8d00000000000000000000000000000000000000000000000000000000000000200000000000000000000000000000000000000000000000000000000000000001000000000000000000000000699bceebd59a5b52bb586c737cd7ba636f3fe602000000000000000000000000000000000000000000000000000000000001388200000000000000000000000000000000000000000000000002c68af0bb140000",
        "nonce": "0x12b",
        "chainId": "0xaa36a7",
        "accessList": null,
        "type": null
      },
      "additionalContracts": [],
      "isFixedGasLimit": false
    }
  ],
  "receipts": [
    {
      "status": "0x1",
      "cumulativeGasUsed": "0x7ddd95",
      "logs": [
        {
          "address": "0x371862509e523e8fb89eb8911254c14c882fca96",
          "topics": [
            "0x9853b992610853aa2f058d95d0a4868ffcd37470b93a5e6634619467e0d4228c",
            "0x74647d0bafbedc9edb58fb17a1a8e01c3cf7bc62163c5713c9171aeb61cc6ffd",
            "0x000000000000000000000000699bceebd59a5b52bb586c737cd7ba636f3fe602",
            "0x00000000000000000000000000000000000000000000000002c68af0bb140000"
          ],
          "data": "0x00000000000000000000000000000000000000000000000000000000662c7828000000000000000000000000699bceebd59a5b52bb586c737cd7ba636f3fe60200000000000000000000000000000000000000000000000000000000000138820000000000000000000000000000000000000000000000a2a15d09519be000000000000000000000000000000000000000000000000000000de0b6b3a7640000",
          "blockHash": "0x2df9875eac2dd68e74f811d4ac1f8c66207c2d0033a50a51b3a0502bfd7e05d2",
          "blockNumber": "0x5849ee",
          "transactionHash": "0x41fbcd535b2be12dbcb442471bae2982396b2b71dce1cafcf6c2ce26a0144f24",
          "transactionIndex": "0x46",
          "logIndex": "0xaa",
          "removed": false
        }
      ],
      "logsBloom": "0x00000000000000000000010000000000000000000000000000400000000000000000000000000000000000000000000000020000000000000000000000020000000000000000000000004000000000000000000000000000000000000000000400800004000002000000000000000000000000008000000000200000000000000000000000000000000000000000000000000000000000000000000000040000000000000000000000000000000000000000000000000000000000000000000000000000000000000000000000008000000000000000000000000000000000000000000000000000001000000000000000000100000000000000000000000000",
      "type": "0x2",
      "transactionHash": "0x41fbcd535b2be12dbcb442471bae2982396b2b71dce1cafcf6c2ce26a0144f24",
      "transactionIndex": "0x46",
      "blockHash": "0x2df9875eac2dd68e74f811d4ac1f8c66207c2d0033a50a51b3a0502bfd7e05d2",
      "blockNumber": "0x5849ee",
      "gasUsed": "0x333be",
      "effectiveGasPrice": "0x4324855a",
      "from": "0x699bceebd59a5b52bb586c737cd7ba636f3fe602",
      "to": "0x371862509e523e8fb89eb8911254c14c882fca96",
      "contractAddress": null
    }
  ],
  "libraries": [],
  "pending": [],
  "returns": {},
  "timestamp": 1714190385,
  "chain": 11155111,
  "commit": "d8ddccd"
}