{
  "transactions": [
    {
      "hash": "0xa3c5618fe3e9e0ba9e8ea68395f85a356eeaa243363bee91186e947f107d54fb",
      "transactionType": "CALL",
      "contractName": null,
      "contractAddress": "0x23dd1aa37b5c81d64586c021330d61d3ad55aafb",
      "function": "postMessage((address,uint256,uint256)[])",
      "arguments": [
        "[(0x699BceEbD59a5b52bB586C737cD7ba636f3Fe602, 80002, 11100000000000000), (0x699BceEbD59a5b52bB586C737cD7ba636f3Fe602, 80002, 11200000000000000), (0x699BceEbD59a5b52bB586C737cD7ba636f3Fe602, 80002, 11300000000000000), (0x699BceEbD59a5b52bB586C737cD7ba636f3Fe602, 80002, 11400000000000000), (0x699BceEbD59a5b52bB586C737cD7ba636f3Fe602, 80002, 11500000000000000)]"
      ],
      "transaction": {
        "from": "0x699bceebd59a5b52bb586c737cd7ba636f3fe602",
        "to": "0x23dd1aa37b5c81d64586c021330d61d3ad55aafb",
        "gas": "0x274b6",
        "value": "0xd529ae9e860000",
        "input": "0x42cbee8d00000000000000000000000000000000000000000000000000000000000000200000000000000000000000000000000000000000000000000000000000000005000000000000000000000000699bceebd59a5b52bb586c737cd7ba636f3fe602000000000000000000000000000000000000000000000000000000000001388200000000000000000000000000000000000000000000000000276f642501c000000000000000000000000000699bceebd59a5b52bb586c737cd7ba636f3fe60200000000000000000000000000000000000000000000000000000000000138820000000000000000000000000000000000000000000000000027ca57357c0000000000000000000000000000699bceebd59a5b52bb586c737cd7ba636f3fe60200000000000000000000000000000000000000000000000000000000000138820000000000000000000000000000000000000000000000000028254a45f64000000000000000000000000000699bceebd59a5b52bb586c737cd7ba636f3fe60200000000000000000000000000000000000000000000000000000000000138820000000000000000000000000000000000000000000000000028803d56708000000000000000000000000000699bceebd59a5b52bb586c737cd7ba636f3fe60200000000000000000000000000000000000000000000000000000000000138820000000000000000000000000000000000000000000000000028db3066eac000",
        "nonce": "0x15b",
        "chainId": "0xaa36a7",
        "accessList": null,
        "type": null
      },
      "additionalContracts": [],
      "isFixedGasLimit": false
    }
  ],
  "receipts": [
    {
      "status": "0x1",
      "cumulativeGasUsed": "0x6611a5",
      "logs": [
        {
          "address": "0x23dd1aa37b5c81d64586c021330d61d3ad55aafb",
          "topics": [
            "0x9853b992610853aa2f058d95d0a4868ffcd37470b93a5e6634619467e0d4228c",
            "0xc5f7ed408dd6c6e2c2729ea6d7263e4c48dafdc8994278a0be267945a163da8f",
            "0x000000000000000000000000699bceebd59a5b52bb586c737cd7ba636f3fe602",
            "0x00000000000000000000000000000000000000000000000000276f642501c000"
          ],
          "data": "0x00000000000000000000000000000000000000000000000000000000662e5f60000000000000000000000000699bceebd59a5b52bb586c737cd7ba636f3fe60200000000000000000000000000000000000000000000000000000000000138820000000000000000000000000000000000000000000000a2a15d09519be000000000000000000000000000000000000000000000000000000de0b6b3a7640000",
          "blockHash": "0x742e62ef6973d739764f9614c13fc77c56fc0a0632eff95c1563ddbc88c65721",
          "blockNumber": "0x587164",
          "transactionHash": "0xa3c5618fe3e9e0ba9e8ea68395f85a356eeaa243363bee91186e947f107d54fb",
          "transactionIndex": "0x34",
          "logIndex": "0x8d",
          "removed": false
        },
        {
          "address": "0x23dd1aa37b5c81d64586c021330d61d3ad55aafb",
          "topics": [
            "0x9853b992610853aa2f058d95d0a4868ffcd37470b93a5e6634619467e0d4228c",
            "0x770e4a3eaa4145bf85319307ad19d2bfe20c8ab8138a55f75b6b4cb04a5da077",
            "0x000000000000000000000000699bceebd59a5b52bb586c737cd7ba636f3fe602",
            "0x0000000000000000000000000000000000000000000000000027ca57357c0000"
          ],
          "data": "0x00000000000000000000000000000000000000000000000000000000662e5f60000000000000000000000000699bceebd59a5b52bb586c737cd7ba636f3fe60200000000000000000000000000000000000000000000000000000000000138820000000000000000000000000000000000000000000000a2a15d09519be000000000000000000000000000000000000000000000000000000de0b6b3a7640000",
          "blockHash": "0x742e62ef6973d739764f9614c13fc77c56fc0a0632eff95c1563ddbc88c65721",
          "blockNumber": "0x587164",
          "transactionHash": "0xa3c5618fe3e9e0ba9e8ea68395f85a356eeaa243363bee91186e947f107d54fb",
          "transactionIndex": "0x34",
          "logIndex": "0x8e",
          "removed": false
        },
        {
          "address": "0x23dd1aa37b5c81d64586c021330d61d3ad55aafb",
          "topics": [
            "0x9853b992610853aa2f058d95d0a4868ffcd37470b93a5e6634619467e0d4228c",
            "0xe9f0f833024a9a90a1cb65bf1535ca814e29ad5d8b660a458bf9cf8df72f2df4",
            "0x000000000000000000000000699bceebd59a5b52bb586c737cd7ba636f3fe602",
            "0x0000000000000000000000000000000000000000000000000028254a45f64000"
          ],
          "data": "0x00000000000000000000000000000000000000000000000000000000662e5f60000000000000000000000000699bceebd59a5b52bb586c737cd7ba636f3fe60200000000000000000000000000000000000000000000000000000000000138820000000000000000000000000000000000000000000000a2a15d09519be000000000000000000000000000000000000000000000000000000de0b6b3a7640000",
          "blockHash": "0x742e62ef6973d739764f9614c13fc77c56fc0a0632eff95c1563ddbc88c65721",
          "blockNumber": "0x587164",
          "transactionHash": "0xa3c5618fe3e9e0ba9e8ea68395f85a356eeaa243363bee91186e947f107d54fb",
          "transactionIndex": "0x34",
          "logIndex": "0x8f",
          "removed": false
        },
        {
          "address": "0x23dd1aa37b5c81d64586c021330d61d3ad55aafb",
          "topics": [
            "0x9853b992610853aa2f058d95d0a4868ffcd37470b93a5e6634619467e0d4228c",
            "0xc0f05827899311bdba69851b43e4031e64e164324bbb8a0182f9c1d17a3e53d0",
            "0x000000000000000000000000699bceebd59a5b52bb586c737cd7ba636f3fe602",
            "0x0000000000000000000000000000000000000000000000000028803d56708000"
          ],
          "data": "0x00000000000000000000000000000000000000000000000000000000662e5f60000000000000000000000000699bceebd59a5b52bb586c737cd7ba636f3fe60200000000000000000000000000000000000000000000000000000000000138820000000000000000000000000000000000000000000000a2a15d09519be000000000000000000000000000000000000000000000000000000de0b6b3a7640000",
          "blockHash": "0x742e62ef6973d739764f9614c13fc77c56fc0a0632eff95c1563ddbc88c65721",
          "blockNumber": "0x587164",
          "transactionHash": "0xa3c5618fe3e9e0ba9e8ea68395f85a356eeaa243363bee91186e947f107d54fb",
          "transactionIndex": "0x34",
          "logIndex": "0x90",
          "removed": false
        },
        {
          "address": "0x23dd1aa37b5c81d64586c021330d61d3ad55aafb",
          "topics": [
            "0x9853b992610853aa2f058d95d0a4868ffcd37470b93a5e6634619467e0d4228c",
            "0x532c47ccb26d9fe15abcf60dff95e6f2e04f6010ea6176b3203af416b0c1ef55",
            "0x000000000000000000000000699bceebd59a5b52bb586c737cd7ba636f3fe602",
            "0x0000000000000000000000000000000000000000000000000028db3066eac000"
          ],
          "data": "0x00000000000000000000000000000000000000000000000000000000662e5f60000000000000000000000000699bceebd59a5b52bb586c737cd7ba636f3fe60200000000000000000000000000000000000000000000000000000000000138820000000000000000000000000000000000000000000000a2a15d09519be000000000000000000000000000000000000000000000000000000de0b6b3a7640000",
          "blockHash": "0x742e62ef6973d739764f9614c13fc77c56fc0a0632eff95c1563ddbc88c65721",
          "blockNumber": "0x587164",
          "transactionHash": "0xa3c5618fe3e9e0ba9e8ea68395f85a356eeaa243363bee91186e947f107d54fb",
          "transactionIndex": "0x34",
          "logIndex": "0x91",
          "removed": false
        }
      ],
      "logsBloom": "0x00000000000000000000000000000000200000000000000000400000000000000000400000000010010000800000001400000000000000000002000000000000014000000000000000000080000000000400000000000000000000000000000000800000400000000000000400004000000000008000000000000000000010000000000000000000000004000210020000000000000000100000100000000000000000000001000004000000000000000000000000000000000000040000000000000000000000000000004000008000002000000000000000000000000000000000010200000000005001000000000000000100210000000000000000000000",
      "type": "0x2",
      "transactionHash": "0xa3c5618fe3e9e0ba9e8ea68395f85a356eeaa243363bee91186e947f107d54fb",
      "transactionIndex": "0x34",
      "blockHash": "0x742e62ef6973d739764f9614c13fc77c56fc0a0632eff95c1563ddbc88c65721",
      "blockNumber": "0x587164",
      "gasUsed": "0x1c72e",
      "effectiveGasPrice": "0x82b99884",
      "from": "0x699bceebd59a5b52bb586c737cd7ba636f3fe602",
      "to": "0x23dd1aa37b5c81d64586c021330d61d3ad55aafb",
      "contractAddress": null
    }
  ],
  "libraries": [],
  "pending": [],
  "returns": {},
  "timestamp": 1714315108,
  "chain": 11155111,
  "commit": "9546700"
}