{
  "transactions": [
    {
      "hash": "0x2615e0fdc26108a649c1f8bace56e1896118c3eeb0c3ff7a2b2a3cc091373983",
      "transactionType": "CALL",
      "contractName": null,
      "contractAddress": "0x23dd1aa37b5c81d64586c021330d61d3ad55aafb",
      "function": "postMessage((address,uint256,uint256)[])",
      "arguments": [
        "[(0x699BceEbD59a5b52bB586C737cD7ba636f3Fe602, 80002, 11100000000000000), (0x699BceEbD59a5b52bB586C737cD7ba636f3Fe602, 80002, 11200000000000000), (0x699BceEbD59a5b52bB586C737cD7ba636f3Fe602, 80002, 11300000000000000), (0x699BceEbD59a5b52bB586C737cD7ba636f3Fe602, 80002, 11400000000000000), (0x699BceEbD59a5b52bB586C737cD7ba636f3Fe602, 80002, 11500000000000000)]"
      ],
      "transaction": {
        "from": "0x699bceebd59a5b52bb586c737cd7ba636f3fe602",
        "to": "0x23dd1aa37b5c81d64586c021330d61d3ad55aafb",
        "gas": "0x274b6",
        "value": "0xd529ae9e860000",
        "input": "0x42cbee8d00000000000000000000000000000000000000000000000000000000000000200000000000000000000000000000000000000000000000000000000000000005000000000000000000000000699bceebd59a5b52bb586c737cd7ba636f3fe602000000000000000000000000000000000000000000000000000000000001388200000000000000000000000000000000000000000000000000276f642501c000000000000000000000000000699bceebd59a5b52bb586c737cd7ba636f3fe60200000000000000000000000000000000000000000000000000000000000138820000000000000000000000000000000000000000000000000027ca57357c0000000000000000000000000000699bceebd59a5b52bb586c737cd7ba636f3fe60200000000000000000000000000000000000000000000000000000000000138820000000000000000000000000000000000000000000000000028254a45f64000000000000000000000000000699bceebd59a5b52bb586c737cd7ba636f3fe60200000000000000000000000000000000000000000000000000000000000138820000000000000000000000000000000000000000000000000028803d56708000000000000000000000000000699bceebd59a5b52bb586c737cd7ba636f3fe60200000000000000000000000000000000000000000000000000000000000138820000000000000000000000000000000000000000000000000028db3066eac000",
        "nonce": "0x17b",
        "chainId": "0xaa36a7",
        "accessList": null,
        "type": null
      },
      "additionalContracts": [],
      "isFixedGasLimit": false
    }
  ],
  "receipts": [
    {
      "status": "0x1",
      "cumulativeGasUsed": "0x5bbef2",
      "logs": [
        {
          "address": "0x23dd1aa37b5c81d64586c021330d61d3ad55aafb",
          "topics": [
            "0x9853b992610853aa2f058d95d0a4868ffcd37470b93a5e6634619467e0d4228c",
            "0x25a07b61883b4b6174a2e75ac9c6ccef31afc9c92ba7703b14413cc11b919465",
            "0x000000000000000000000000699bceebd59a5b52bb586c737cd7ba636f3fe602",
            "0x00000000000000000000000000000000000000000000000000276f642501c000"
          ],
          "data": "0x00000000000000000000000000000000000000000000000000000000662fff94000000000000000000000000699bceebd59a5b52bb586c737cd7ba636f3fe60200000000000000000000000000000000000000000000000000000000000138820000000000000000000000000000000000000000000000a2a15d09519be000000000000000000000000000000000000000000000000000000de0b6b3a7640000",
          "blockHash": "0x13fa75375655114eb0e7e1598b4189503859d108941a361d2d65a25f55126d68",
          "blockNumber": "0x5891c5",
          "transactionHash": "0x2615e0fdc26108a649c1f8bace56e1896118c3eeb0c3ff7a2b2a3cc091373983",
          "transactionIndex": "0x33",
          "logIndex": "0x5b",
          "removed": false
        },
        {
          "address": "0x23dd1aa37b5c81d64586c021330d61d3ad55aafb",
          "topics": [
            "0x9853b992610853aa2f058d95d0a4868ffcd37470b93a5e6634619467e0d4228c",
            "0x6081b66834c1ce69e0acf25ab5ea98e5a6ba808cffdaef01817dcdbc11498ed1",
            "0x000000000000000000000000699bceebd59a5b52bb586c737cd7ba636f3fe602",
            "0x0000000000000000000000000000000000000000000000000027ca57357c0000"
          ],
          "data": "0x00000000000000000000000000000000000000000000000000000000662fff94000000000000000000000000699bceebd59a5b52bb586c737cd7ba636f3fe60200000000000000000000000000000000000000000000000000000000000138820000000000000000000000000000000000000000000000a2a15d09519be000000000000000000000000000000000000000000000000000000de0b6b3a7640000",
          "blockHash": "0x13fa75375655114eb0e7e1598b4189503859d108941a361d2d65a25f55126d68",
          "blockNumber": "0x5891c5",
          "transactionHash": "0x2615e0fdc26108a649c1f8bace56e1896118c3eeb0c3ff7a2b2a3cc091373983",
          "transactionIndex": "0x33",
          "logIndex": "0x5c",
          "removed": false
        },
        {
          "address": "0x23dd1aa37b5c81d64586c021330d61d3ad55aafb",
          "topics": [
            "0x9853b992610853aa2f058d95d0a4868ffcd37470b93a5e6634619467e0d4228c",
            "0x7677bc7ac0bed042d0b1e6047a9c4516aaa70a64cf964e6b5f569c7b74fcf7f3",
            "0x000000000000000000000000699bceebd59a5b52bb586c737cd7ba636f3fe602",
            "0x0000000000000000000000000000000000000000000000000028254a45f64000"
          ],
          "data": "0x00000000000000000000000000000000000000000000000000000000662fff94000000000000000000000000699bceebd59a5b52bb586c737cd7ba636f3fe60200000000000000000000000000000000000000000000000000000000000138820000000000000000000000000000000000000000000000a2a15d09519be000000000000000000000000000000000000000000000000000000de0b6b3a7640000",
          "blockHash": "0x13fa75375655114eb0e7e1598b4189503859d108941a361d2d65a25f55126d68",
          "blockNumber": "0x5891c5",
          "transactionHash": "0x2615e0fdc26108a649c1f8bace56e1896118c3eeb0c3ff7a2b2a3cc091373983",
          "transactionIndex": "0x33",
          "logIndex": "0x5d",
          "removed": false
        },
        {
          "address": "0x23dd1aa37b5c81d64586c021330d61d3ad55aafb",
          "topics": [
            "0x9853b992610853aa2f058d95d0a4868ffcd37470b93a5e6634619467e0d4228c",
            "0x512e0b85dfca564de7a9e25096abebe5db104b5d515d4168809b39d83aade9f9",
            "0x000000000000000000000000699bceebd59a5b52bb586c737cd7ba636f3fe602",
            "0x0000000000000000000000000000000000000000000000000028803d56708000"
          ],
          "data": "0x00000000000000000000000000000000000000000000000000000000662fff94000000000000000000000000699bceebd59a5b52bb586c737cd7ba636f3fe60200000000000000000000000000000000000000000000000000000000000138820000000000000000000000000000000000000000000000a2a15d09519be000000000000000000000000000000000000000000000000000000de0b6b3a7640000",
          "blockHash": "0x13fa75375655114eb0e7e1598b4189503859d108941a361d2d65a25f55126d68",
          "blockNumber": "0x5891c5",
          "transactionHash": "0x2615e0fdc26108a649c1f8bace56e1896118c3eeb0c3ff7a2b2a3cc091373983",
          "transactionIndex": "0x33",
          "logIndex": "0x5e",
          "removed": false
        },
        {
          "address": "0x23dd1aa37b5c81d64586c021330d61d3ad55aafb",
          "topics": [
            "0x9853b992610853aa2f058d95d0a4868ffcd37470b93a5e6634619467e0d4228c",
            "0x50557f4f05c204f7d477bf180794f13a7c0bc129511835bdc3d9c7d0061a6db1",
            "0x000000000000000000000000699bceebd59a5b52bb586c737cd7ba636f3fe602",
            "0x0000000000000000000000000000000000000000000000000028db3066eac000"
          ],
          "data": "0x00000000000000000000000000000000000000000000000000000000662fff94000000000000000000000000699bceebd59a5b52bb586c737cd7ba636f3fe60200000000000000000000000000000000000000000000000000000000000138820000000000000000000000000000000000000000000000a2a15d09519be000000000000000000000000000000000000000000000000000000de0b6b3a7640000",
          "blockHash": "0x13fa75375655114eb0e7e1598b4189503859d108941a361d2d65a25f55126d68",
          "blockNumber": "0x5891c5",
          "transactionHash": "0x2615e0fdc26108a649c1f8bace56e1896118c3eeb0c3ff7a2b2a3cc091373983",
          "transactionIndex": "0x33",
          "logIndex": "0x5f",
          "removed": false
        }
      ],
      "logsBloom": "0x00000000000020000000000800000000200000000000000000400000000000000000400000000090000000800000001000080000020000040000820000000000010000000000040004000000000000000000000000040000000000000000000000800010000000000000000400000000000000008000080000000000000000000000000000000000000000000210060000000000000000000000000000000000000000000000000004000000000000000000000000000000000000040000000000000000000000000000004800008000000000000000000000000000000000000000010200000000005001000000000000000100200000000000000000000000",
      "type": "0x2",
      "transactionHash": "0x2615e0fdc26108a649c1f8bace56e1896118c3eeb0c3ff7a2b2a3cc091373983",
      "transactionIndex": "0x33",
      "blockHash": "0x13fa75375655114eb0e7e1598b4189503859d108941a361d2d65a25f55126d68",
      "blockNumber": "0x5891c5",
      "gasUsed": "0x1c72e",
      "effectiveGasPrice": "0x446dfca2",
      "from": "0x699bceebd59a5b52bb586c737cd7ba636f3fe602",
      "to": "0x23dd1aa37b5c81d64586c021330d61d3ad55aafb",
      "contractAddress": null
    }
  ],
  "libraries": [],
  "pending": [],
  "returns": {},
  "timestamp": 1714421654,
  "chain": 11155111,
  "commit": "9546700"
}