{
  "transactions": [
    {
      "hash": "0x11a313d81679911e72c35fb812232de1baf60ef7a172ad9b299518ba2d79a554",
      "transactionType": "CALL",
      "contractName": null,
      "contractAddress": "0x23dd1aa37b5c81d64586c021330d61d3ad55aafb",
      "function": "postMessage((address,uint256,uint256)[])",
      "arguments": [
        "[(0x699BceEbD59a5b52bB586C737cD7ba636f3Fe602, 80002, 11100000000000000), (0x699BceEbD59a5b52bB586C737cD7ba636f3Fe602, 80002, 11200000000000000), (0x699BceEbD59a5b52bB586C737cD7ba636f3Fe602, 80002, 11300000000000000), (0x699BceEbD59a5b52bB586C737cD7ba636f3Fe602, 80002, 11400000000000000), (0x699BceEbD59a5b52bB586C737cD7ba636f3Fe602, 80002, 11500000000000000)]"
      ],
      "transaction": {
        "from": "0x699bceebd59a5b52bb586c737cd7ba636f3fe602",
        "to": "0x23dd1aa37b5c81d64586c021330d61d3ad55aafb",
        "gas": "0x274b6",
        "value": "0xd529ae9e860000",
        "input": "0x42cbee8d00000000000000000000000000000000000000000000000000000000000000200000000000000000000000000000000000000000000000000000000000000005000000000000000000000000699bceebd59a5b52bb586c737cd7ba636f3fe602000000000000000000000000000000000000000000000000000000000001388200000000000000000000000000000000000000000000000000276f642501c000000000000000000000000000699bceebd59a5b52bb586c737cd7ba636f3fe60200000000000000000000000000000000000000000000000000000000000138820000000000000000000000000000000000000000000000000027ca57357c0000000000000000000000000000699bceebd59a5b52bb586c737cd7ba636f3fe60200000000000000000000000000000000000000000000000000000000000138820000000000000000000000000000000000000000000000000028254a45f64000000000000000000000000000699bceebd59a5b52bb586c737cd7ba636f3fe60200000000000000000000000000000000000000000000000000000000000138820000000000000000000000000000000000000000000000000028803d56708000000000000000000000000000699bceebd59a5b52bb586c737cd7ba636f3fe60200000000000000000000000000000000000000000000000000000000000138820000000000000000000000000000000000000000000000000028db3066eac000",
        "nonce": "0x158",
        "chainId": "0xaa36a7",
        "accessList": null,
        "type": null
      },
      "additionalContracts": [],
      "isFixedGasLimit": false
    }
  ],
  "receipts": [
    {
      "status": "0x1",
      "cumulativeGasUsed": "0xcbe704",
      "logs": [
        {
          "address": "0x23dd1aa37b5c81d64586c021330d61d3ad55aafb",
          "topics": [
            "0x9853b992610853aa2f058d95d0a4868ffcd37470b93a5e6634619467e0d4228c",
            "0x2d8c96181147982d1b21f529986b581fdafc8c44c5a838e16b2464b612f93f97",
            "0x000000000000000000000000699bceebd59a5b52bb586c737cd7ba636f3fe602",
            "0x00000000000000000000000000000000000000000000000000276f642501c000"
          ],
          "data": "0x00000000000000000000000000000000000000000000000000000000662e52d0000000000000000000000000699bceebd59a5b52bb586c737cd7ba636f3fe60200000000000000000000000000000000000000000000000000000000000138820000000000000000000000000000000000000000000000a2a15d09519be000000000000000000000000000000000000000000000000000000de0b6b3a7640000",
          "blockHash": "0x84d5e83b362a61b5a99b010d12dcad52c6451d71d2e8027af72856eaeabbdd36",
          "blockNumber": "0x58705d",
          "transactionHash": "0x11a313d81679911e72c35fb812232de1baf60ef7a172ad9b299518ba2d79a554",
          "transactionIndex": "0x59",
          "logIndex": "0x17a",
          "removed": false
        },
        {
          "address": "0x23dd1aa37b5c81d64586c021330d61d3ad55aafb",
          "topics": [
            "0x9853b992610853aa2f058d95d0a4868ffcd37470b93a5e6634619467e0d4228c",
            "0xf8a7ff839e4ed1804b7f01ccf0248b29f9dd36251109e858cfee10ab1af8aa97",
            "0x000000000000000000000000699bceebd59a5b52bb586c737cd7ba636f3fe602",
            "0x0000000000000000000000000000000000000000000000000027ca57357c0000"
          ],
          "data": "0x00000000000000000000000000000000000000000000000000000000662e52d0000000000000000000000000699bceebd59a5b52bb586c737cd7ba636f3fe60200000000000000000000000000000000000000000000000000000000000138820000000000000000000000000000000000000000000000a2a15d09519be000000000000000000000000000000000000000000000000000000de0b6b3a7640000",
          "blockHash": "0x84d5e83b362a61b5a99b010d12dcad52c6451d71d2e8027af72856eaeabbdd36",
          "blockNumber": "0x58705d",
          "transactionHash": "0x11a313d81679911e72c35fb812232de1baf60ef7a172ad9b299518ba2d79a554",
          "transactionIndex": "0x59",
          "logIndex": "0x17b",
          "removed": false
        },
        {
          "address": "0x23dd1aa37b5c81d64586c021330d61d3ad55aafb",
          "topics": [
            "0x9853b992610853aa2f058d95d0a4868ffcd37470b93a5e6634619467e0d4228c",
            "0x37e3637a67cc5c0ce03f8cfa5f4ecc1087fca52b73436220e15d95bf9c04fa67",
            "0x000000000000000000000000699bceebd59a5b52bb586c737cd7ba636f3fe602",
            "0x0000000000000000000000000000000000000000000000000028254a45f64000"
          ],
          "data": "0x00000000000000000000000000000000000000000000000000000000662e52d0000000000000000000000000699bceebd59a5b52bb586c737cd7ba636f3fe60200000000000000000000000000000000000000000000000000000000000138820000000000000000000000000000000000000000000000a2a15d09519be000000000000000000000000000000000000000000000000000000de0b6b3a7640000",
          "blockHash": "0x84d5e83b362a61b5a99b010d12dcad52c6451d71d2e8027af72856eaeabbdd36",
          "blockNumber": "0x58705d",
          "transactionHash": "0x11a313d81679911e72c35fb812232de1baf60ef7a172ad9b299518ba2d79a554",
          "transactionIndex": "0x59",
          "logIndex": "0x17c",
          "removed": false
        },
        {
          "address": "0x23dd1aa37b5c81d64586c021330d61d3ad55aafb",
          "topics": [
            "0x9853b992610853aa2f058d95d0a4868ffcd37470b93a5e6634619467e0d4228c",
            "0xedc39c10482726a7929fcf6bb1716827102758434a52c3d86e17e7c4c4e7be88",
            "0x000000000000000000000000699bceebd59a5b52bb586c737cd7ba636f3fe602",
            "0x0000000000000000000000000000000000000000000000000028803d56708000"
          ],
          "data": "0x00000000000000000000000000000000000000000000000000000000662e52d0000000000000000000000000699bceebd59a5b52bb586c737cd7ba636f3fe60200000000000000000000000000000000000000000000000000000000000138820000000000000000000000000000000000000000000000a2a15d09519be000000000000000000000000000000000000000000000000000000de0b6b3a7640000",
          "blockHash": "0x84d5e83b362a61b5a99b010d12dcad52c6451d71d2e8027af72856eaeabbdd36",
          "blockNumber": "0x58705d",
          "transactionHash": "0x11a313d81679911e72c35fb812232de1baf60ef7a172ad9b299518ba2d79a554",
          "transactionIndex": "0x59",
          "logIndex": "0x17d",
          "removed": false
        },
        {
          "address": "0x23dd1aa37b5c81d64586c021330d61d3ad55aafb",
          "topics": [
            "0x9853b992610853aa2f058d95d0a4868ffcd37470b93a5e6634619467e0d4228c",
            "0xc35d1084dc7b698622d19c7cf3ddc551b5c2752806c87aa3ad4df00bcba918e5",
            "0x000000000000000000000000699bceebd59a5b52bb586c737cd7ba636f3fe602",
            "0x0000000000000000000000000000000000000000000000000028db3066eac000"
          ],
          "data": "0x00000000000000000000000000000000000000000000000000000000662e52d0000000000000000000000000699bceebd59a5b52bb586c737cd7ba636f3fe60200000000000000000000000000000000000000000000000000000000000138820000000000000000000000000000000000000000000000a2a15d09519be000000000000000000000000000000000000000000000000000000de0b6b3a7640000",
          "blockHash": "0x84d5e83b362a61b5a99b010d12dcad52c6451d71d2e8027af72856eaeabbdd36",
          "blockNumber": "0x58705d",
          "transactionHash": "0x11a313d81679911e72c35fb812232de1baf60ef7a172ad9b299518ba2d79a554",
          "transactionIndex": "0x59",
          "logIndex": "0x17e",
          "removed": false
        }
      ],
      "logsBloom": "0x00000000000000000000000000000000200000800000000000400000000000000000400000000010000000800000101000800000000000000000000000000000010001000000800000000000000000000000000080000000800000000000000000800000000000000000000400000000000000808000000800008000000000000000000000000000000000000210020000200000000000000008000000000000000000000000000004000000001000000000000000000000000000040000000000000000000000000000004008008000000000000000000000000000000000000000010200000000005001000000000000000100300000000000000000000000",
      "type": "0x2",
      "transactionHash": "0x11a313d81679911e72c35fb812232de1baf60ef7a172ad9b299518ba2d79a554",
      "transactionIndex": "0x59",
      "blockHash": "0x84d5e83b362a61b5a99b010d12dcad52c6451d71d2e8027af72856eaeabbdd36",
      "blockNumber": "0x58705d",
      "gasUsed": "0x1c72e",
      "effectiveGasPrice": "0x951120fe",
      "from": "0x699bceebd59a5b52bb586c737cd7ba636f3fe602",
      "to": "0x23dd1aa37b5c81d64586c021330d61d3ad55aafb",
      "contractAddress": null
    }
  ],
  "libraries": [],
  "pending": [],
  "returns": {},
  "timestamp": 1714311894,
  "chain": 11155111,
  "commit": "9546700"
}