{
  "transactions": [
    {
      "hash": "0x560fb2b03daa3a169eecd5c4897170d6589bea78be7f5aa75efc54164796da75",
      "transactionType": "CALL",
      "contractName": null,
      "contractAddress": "0x371862509e523e8fb89eb8911254c14c882fca96",
      "function": "postMessage((address,uint256,uint256)[])",
      "arguments": [
        "[(0x699BceEbD59a5b52bB586C737cD7ba636f3Fe602, 80002, 100000000000000000)]"
      ],
      "transaction": {
        "from": "0x699bceebd59a5b52bb586c737cd7ba636f3fe602",
        "to": "0x371862509e523e8fb89eb8911254c14c882fca96",
        "gas": "0x217c8",
        "value": "0x16345785d8a0000",
        "input": "0x42cbee8d00000000000000000000000000000000000000000000000000000000000000200000000000000000000000000000000000000000000000000000000000000001000000000000000000000000699bceebd59a5b52bb586c737cd7ba636f3fe6020000000000000000000000000000000000000000000000000000000000013882000000000000000000000000000000000000000000000000016345785d8a0000",
        "nonce": "0x125",
        "chainId": "0xaa36a7",
        "accessList": null,
        "type": null
      },
      "additionalContracts": [],
      "isFixedGasLimit": false
    }
  ],
  "receipts": [
    {
      "status": "0x1",
      "cumulativeGasUsed": "0x1231587",
      "logs": [
        {
          "address": "0x371862509e523e8fb89eb8911254c14c882fca96",
          "topics": [
            "0x9853b992610853aa2f058d95d0a4868ffcd37470b93a5e6634619467e0d4228c",
            "0x79f3ae622657dca506c28266a0c3d8fa1dad566a73da17032732b2895d5f1f39",
            "0x000000000000000000000000699bceebd59a5b52bb586c737cd7ba636f3fe602",
            "0x000000000000000000000000000000000000000000000000016345785d8a0000"
          ],
          "data": "0x00000000000000000000000000000000000000000000000000000000662bcb60000000000000000000000000699bceebd59a5b52bb586c737cd7ba636f3fe60200000000000000000000000000000000000000000000000000000000000138820000000000000000000000000000000000000000000000a2a15d09519be000000000000000000000000000000000000000000000000000000de0b6b3a7640000",
          "blockHash": "0xb4be7d937167df6b8beaa21367bceef614bdd19fa85e2d7d080d1b55e3948c33",
          "blockNumber": "0x583bfc",
          "transactionHash": "0x560fb2b03daa3a169eecd5c4897170d6589bea78be7f5aa75efc54164796da75",
          "transactionIndex": "0x3f",
          "logIndex": "0x59",
          "removed": false
        }
      ],
      "logsBloom": "0x00000000000000000000000000000000000000000000000001400000000000000000000000000000000000000000000000000000000000000000000000020000000000000000000000000000000000000000000002000000040000000000000000800004008002000000000000000000000000008000000000000000000000000000000000000000000000000000000000000000000000000000000000000000000000001000000000000000000000000000000000000000000010000000000000000000000000000000000000008000000000000000000000000000000000000000000000000000001000000000000000000100000000000000000000000000",
      "type": "0x2",
      "transactionHash": "0x560fb2b03daa3a169eecd5c4897170d6589bea78be7f5aa75efc54164796da75",
      "transactionIndex": "0x3f",
      "blockHash": "0xb4be7d937167df6b8beaa21367bceef614bdd19fa85e2d7d080d1b55e3948c33",
      "blockNumber": "0x583bfc",
      "gasUsed": "0x16e59",
      "effectiveGasPrice": "0x5fbbcc35",
      "from": "0x699bceebd59a5b52bb586c737cd7ba636f3fe602",
      "to": "0x371862509e523e8fb89eb8911254c14c882fca96",
      "contractAddress": null
    }
  ],
  "libraries": [],
  "pending": [],
  "returns": {},
  "timestamp": 1714146146,
  "chain": 11155111,
  "commit": "d8ddccd"
}