{
  "transactions": [
    {
      "hash": "0x9aa67e51c4d15e767075c2cb1b4889de1daf465b58b3c8fe4f9637e69febede5",
      "transactionType": "CALL",
      "contractName": null,
      "contractAddress": "0x23dd1aa37b5c81d64586c021330d61d3ad55aafb",
      "function": "postMessage((address,uint256,uint256)[])",
      "arguments": [
        "[(0x699BceEbD59a5b52bB586C737cD7ba636f3Fe602, 80002, 11100000000000000), (0x699BceEbD59a5b52bB586C737cD7ba636f3Fe602, 80002, 11200000000000000), (0x699BceEbD59a5b52bB586C737cD7ba636f3Fe602, 80002, 11300000000000000), (0x699BceEbD59a5b52bB586C737cD7ba636f3Fe602, 80002, 11400000000000000), (0x699BceEbD59a5b52bB586C737cD7ba636f3Fe602, 80002, 11500000000000000)]"
      ],
      "transaction": {
        "from": "0x699bceebd59a5b52bb586c737cd7ba636f3fe602",
        "to": "0x23dd1aa37b5c81d64586c021330d61d3ad55aafb",
        "gas": "0x274b6",
        "value": "0xd529ae9e860000",
        "input": "0x42cbee8d00000000000000000000000000000000000000000000000000000000000000200000000000000000000000000000000000000000000000000000000000000005000000000000000000000000699bceebd59a5b52bb586c737cd7ba636f3fe602000000000000000000000000000000000000000000000000000000000001388200000000000000000000000000000000000000000000000000276f642501c000000000000000000000000000699bceebd59a5b52bb586c737cd7ba636f3fe60200000000000000000000000000000000000000000000000000000000000138820000000000000000000000000000000000000000000000000027ca57357c0000000000000000000000000000699bceebd59a5b52bb586c737cd7ba636f3fe60200000000000000000000000000000000000000000000000000000000000138820000000000000000000000000000000000000000000000000028254a45f64000000000000000000000000000699bceebd59a5b52bb586c737cd7ba636f3fe60200000000000000000000000000000000000000000000000000000000000138820000000000000000000000000000000000000000000000000028803d56708000000000000000000000000000699bceebd59a5b52bb586c737cd7ba636f3fe60200000000000000000000000000000000000000000000000000000000000138820000000000000000000000000000000000000000000000000028db3066eac000",
        "nonce": "0x16d",
        "chainId": "0xaa36a7",
        "accessList": null,
        "type": null
      },
      "additionalContracts": [],
      "isFixedGasLimit": false
    }
  ],
  "receipts": [
    {
      "status": "0x1",
      "cumulativeGasUsed": "0xf4fe42",
      "logs": [
        {
          "address": "0x23dd1aa37b5c81d64586c021330d61d3ad55aafb",
          "topics": [
            "0x9853b992610853aa2f058d95d0a4868ffcd37470b93a5e6634619467e0d4228c",
            "0xf448be2697566b87ae9781c943c73508b1d8c59af96e0524d0acccf31311a4b7",
            "0x000000000000000000000000699bceebd59a5b52bb586c737cd7ba636f3fe602",
            "0x00000000000000000000000000000000000000000000000000276f642501c000"
          ],
          "data": "0x00000000000000000000000000000000000000000000000000000000662fda98000000000000000000000000699bceebd59a5b52bb586c737cd7ba636f3fe60200000000000000000000000000000000000000000000000000000000000138820000000000000000000000000000000000000000000000a2a15d09519be000000000000000000000000000000000000000000000000000000de0b6b3a7640000",
          "blockHash": "0xd56792075fd2610b6002b3fe3f8af67c1839ced4269585fe57c19b085c540a42",
          "blockNumber": "0x588ef7",
          "transactionHash": "0x9aa67e51c4d15e767075c2cb1b4889de1daf465b58b3c8fe4f9637e69febede5",
          "transactionIndex": "0x86",
          "logIndex": "0x144",
          "removed": false
        },
        {
          "address": "0x23dd1aa37b5c81d64586c021330d61d3ad55aafb",
          "topics": [
            "0x9853b992610853aa2f058d95d0a4868ffcd37470b93a5e6634619467e0d4228c",
            "0xa107bd2be8b96b088267bb10a195638f8c40ce644dd25f29966a0d6d7f38ebf4",
            "0x000000000000000000000000699bceebd59a5b52bb586c737cd7ba636f3fe602",
            "0x0000000000000000000000000000000000000000000000000027ca57357c0000"
          ],
          "data": "0x00000000000000000000000000000000000000000000000000000000662fda98000000000000000000000000699bceebd59a5b52bb586c737cd7ba636f3fe60200000000000000000000000000000000000000000000000000000000000138820000000000000000000000000000000000000000000000a2a15d09519be000000000000000000000000000000000000000000000000000000de0b6b3a7640000",
          "blockHash": "0xd56792075fd2610b6002b3fe3f8af67c1839ced4269585fe57c19b085c540a42",
          "blockNumber": "0x588ef7",
          "transactionHash": "0x9aa67e51c4d15e767075c2cb1b4889de1daf465b58b3c8fe4f9637e69febede5",
          "transactionIndex": "0x86",
          "logIndex": "0x145",
          "removed": false
        },
        {
          "address": "0x23dd1aa37b5c81d64586c021330d61d3ad55aafb",
          "topics": [
            "0x9853b992610853aa2f058d95d0a4868ffcd37470b93a5e6634619467e0d4228c",
            "0xd27a205d14d70da136bd726811dca56307d28d9f7cb88a1591bdfadcdd1fad67",
            "0x000000000000000000000000699bceebd59a5b52bb586c737cd7ba636f3fe602",
            "0x0000000000000000000000000000000000000000000000000028254a45f64000"
          ],
          "data": "0x00000000000000000000000000000000000000000000000000000000662fda98000000000000000000000000699bceebd59a5b52bb586c737cd7ba636f3fe60200000000000000000000000000000000000000000000000000000000000138820000000000000000000000000000000000000000000000a2a15d09519be000000000000000000000000000000000000000000000000000000de0b6b3a7640000",
          "blockHash": "0xd56792075fd2610b6002b3fe3f8af67c1839ced4269585fe57c19b085c540a42",
          "blockNumber": "0x588ef7",
          "transactionHash": "0x9aa67e51c4d15e767075c2cb1b4889de1daf465b58b3c8fe4f9637e69febede5",
          "transactionIndex": "0x86",
          "logIndex": "0x146",
          "removed": false
        },
        {
          "address": "0x23dd1aa37b5c81d64586c021330d61d3ad55aafb",
          "topics": [
            "0x9853b992610853aa2f058d95d0a4868ffcd37470b93a5e6634619467e0d4228c",
            "0x99d3ad88aefd651cf4e38e5b5b94f418676f4ff2b69b64ebbb05dbf4eae33cec",
            "0x000000000000000000000000699bceebd59a5b52bb586c737cd7ba636f3fe602",
            "0x0000000000000000000000000000000000000000000000000028803d56708000"
          ],
          "data": "0x00000000000000000000000000000000000000000000000000000000662fda98000000000000000000000000699bceebd59a5b52bb586c737cd7ba636f3fe60200000000000000000000000000000000000000000000000000000000000138820000000000000000000000000000000000000000000000a2a15d09519be000000000000000000000000000000000000000000000000000000de0b6b3a7640000",
          "blockHash": "0xd56792075fd2610b6002b3fe3f8af67c1839ced4269585fe57c19b085c540a42",
          "blockNumber": "0x588ef7",
          "transactionHash": "0x9aa67e51c4d15e767075c2cb1b4889de1daf465b58b3c8fe4f9637e69febede5",
          "transactionIndex": "0x86",
          "logIndex": "0x147",
          "removed": false
        },
        {
          "address": "0x23dd1aa37b5c81d64586c021330d61d3ad55aafb",
          "topics": [
            "0x9853b992610853aa2f058d95d0a4868ffcd37470b93a5e6634619467e0d4228c",
            "0x772c344d33e4a3cbe1b1c9867c4d55e739f1dd85b79668496f0b22970a01af58",
            "0x000000000000000000000000699bceebd59a5b52bb586c737cd7ba636f3fe602",
            "0x0000000000000000000000000000000000000000000000000028db3066eac000"
          ],
          "data": "0x00000000000000000000000000000000000000000000000000000000662fda98000000000000000000000000699bceebd59a5b52bb586c737cd7ba636f3fe60200000000000000000000000000000000000000000000000000000000000138820000000000000000000000000000000000000000000000a2a15d09519be000000000000000000000000000000000000000000000000000000de0b6b3a7640000",
          "blockHash": "0xd56792075fd2610b6002b3fe3f8af67c1839ced4269585fe57c19b085c540a42",
          "blockNumber": "0x588ef7",
          "transactionHash": "0x9aa67e51c4d15e767075c2cb1b4889de1daf465b58b3c8fe4f9637e69febede5",
          "transactionIndex": "0x86",
          "logIndex": "0x148",
          "removed": false
        }
      ],
      "logsBloom": "0x00010000000000000100000000000000200200000000000000400000000000008000400000000010000000820000001000000000000000000000000000000000010000000000000000000000000000000000000000000000000000002000000000800000040000000000000400080000000000008000000000000000000000000000000000000000000000000210020004000000000000000000000040004000000000000000004004000000000000000000000000000000000000040000000004000000000000000000004000008000000000000000000000000000000000000000010200000000005201000000000000000300200000000000000000000000",
      "type": "0x2",
      "transactionHash": "0x9aa67e51c4d15e767075c2cb1b4889de1daf465b58b3c8fe4f9637e69febede5",
      "transactionIndex": "0x86",
      "blockHash": "0xd56792075fd2610b6002b3fe3f8af67c1839ced4269585fe57c19b085c540a42",
      "blockNumber": "0x588ef7",
      "gasUsed": "0x1c72e",
      "effectiveGasPrice": "0x9ba366dc",
      "from": "0x699bceebd59a5b52bb586c737cd7ba636f3fe602",
      "to": "0x23dd1aa37b5c81d64586c021330d61d3ad55aafb",
      "contractAddress": null
    }
  ],
  "libraries": [],
  "pending": [],
  "returns": {},
  "timestamp": 1714412189,
  "chain": 11155111,
  "commit": "9546700"
}