{
  "transactions": [
    {
      "hash": "0x023767ce76c051d2ab3607ee0e17e727058a84e1ca53fa859f8d447767b9fa57",
      "transactionType": "CALL",
      "contractName": null,
      "contractAddress": "0x23dd1aa37b5c81d64586c021330d61d3ad55aafb",
      "function": "postMessage((address,uint256,uint256)[])",
      "arguments": [
        "[(0x699BceEbD59a5b52bB586C737cD7ba636f3Fe602, 80002, 11100000000000000)]"
      ],
      "transaction": {
        "from": "0x699bceebd59a5b52bb586c737cd7ba636f3fe602",
        "to": "0x23dd1aa37b5c81d64586c021330d61d3ad55aafb",
        "gas": "0x1fa07",
        "value": "0x276f642501c000",
        "input": "0x42cbee8d00000000000000000000000000000000000000000000000000000000000000200000000000000000000000000000000000000000000000000000000000000001000000000000000000000000699bceebd59a5b52bb586c737cd7ba636f3fe602000000000000000000000000000000000000000000000000000000000001388200000000000000000000000000000000000000000000000000276f642501c000",
        "nonce": "0x13a",
        "chainId": "0xaa36a7",
        "accessList": null,
        "type": null
      },
      "additionalContracts": [],
      "isFixedGasLimit": false
    }
  ],
  "receipts": [
    {
      "status": "0x1",
      "cumulativeGasUsed": "0xa33011",
      "logs": [
        {
          "address": "0x23dd1aa37b5c81d64586c021330d61d3ad55aafb",
          "topics": [
            "0x9853b992610853aa2f058d95d0a4868ffcd37470b93a5e6634619467e0d4228c",
            "0x977d145202703b42b77ef5fbee32c6e2bbce506acca87031febf7218dbce4799",
            "0x000000000000000000000000699bceebd59a5b52bb586c737cd7ba636f3fe602",
            "0x00000000000000000000000000000000000000000000000000276f642501c000"
          ],
          "data": "0x00000000000000000000000000000000000000000000000000000000662cdb88000000000000000000000000699bceebd59a5b52bb586c737cd7ba636f3fe60200000000000000000000000000000000000000000000000000000000000138820000000000000000000000000000000000000000000000a2a15d09519be000000000000000000000000000000000000000000000000000000de0b6b3a7640000",
          "blockHash": "0x468f3a7367873880be6ce5c78f6cfee8bd4e22624fc71380d6dff6555f7fb8d0",
          "blockNumber": "0x5851f1",
          "transactionHash": "0x023767ce76c051d2ab3607ee0e17e727058a84e1ca53fa859f8d447767b9fa57",
          "transactionIndex": "0x51",
          "logIndex": "0xb2",
          "removed": false
        }
      ],
      "logsBloom": "0x00000000000000000000000000000000000000000000000000400000000000000000000000000010000000000000000000000000000000000000000000000000000000000000000000000000000000000000000000000000000000000000000000800000000000000000000400000000000200008000000000000000000000000000000000000000000000000200000000000000000000000000000000000000000000000000000000000000000000000000000000000000000000040000000000004000000000000000000000008000000000000000000000000000000000000000010000000000001000000000002000000100200000000000000000000000",
      "type": "0x2",
      "transactionHash": "0x023767ce76c051d2ab3607ee0e17e727058a84e1ca53fa859f8d447767b9fa57",
      "transactionIndex": "0x51",
      "blockHash": "0x468f3a7367873880be6ce5c78f6cfee8bd4e22624fc71380d6dff6555f7fb8d0",
      "blockNumber": "0x5851f1",
      "gasUsed": "0x16e5c",
      "effectiveGasPrice": "0x136278201",
      "from": "0x699bceebd59a5b52bb586c737cd7ba636f3fe602",
      "to": "0x23dd1aa37b5c81d64586c021330d61d3ad55aafb",
      "contractAddress": null
    }
  ],
  "libraries": [],
  "pending": [],
  "returns": {},
  "timestamp": 1714215820,
  "chain": 11155111,
  "commit": "9546700"
}