{
  "transactions": [
    {
      "hash": "0x796d8f46c331797e0de3de4c6d5badf6db1037808f837d859016879b8c9fe3e5",
      "transactionType": "CALL",
      "contractName": null,
      "contractAddress": "0x23dd1aa37b5c81d64586c021330d61d3ad55aafb",
      "function": "postMessage((address,uint256,uint256)[])",
      "arguments": [
        "[(0x699BceEbD59a5b52bB586C737cD7ba636f3Fe602, 80002, 11100000000000000), (0x699BceEbD59a5b52bB586C737cD7ba636f3Fe602, 80002, 11200000000000000), (0x699BceEbD59a5b52bB586C737cD7ba636f3Fe602, 80002, 11300000000000000), (0x699BceEbD59a5b52bB586C737cD7ba636f3Fe602, 80002, 11400000000000000), (0x699BceEbD59a5b52bB586C737cD7ba636f3Fe602, 80002, 11500000000000000)]"
      ],
      "transaction": {
        "from": "0x699bceebd59a5b52bb586c737cd7ba636f3fe602",
        "to": "0x23dd1aa37b5c81d64586c021330d61d3ad55aafb",
        "gas": "0x274b6",
        "value": "0xd529ae9e860000",
        "input": "0x42cbee8d00000000000000000000000000000000000000000000000000000000000000200000000000000000000000000000000000000000000000000000000000000005000000000000000000000000699bceebd59a5b52bb586c737cd7ba636f3fe602000000000000000000000000000000000000000000000000000000000001388200000000000000000000000000000000000000000000000000276f642501c000000000000000000000000000699bceebd59a5b52bb586c737cd7ba636f3fe60200000000000000000000000000000000000000000000000000000000000138820000000000000000000000000000000000000000000000000027ca57357c0000000000000000000000000000699bceebd59a5b52bb586c737cd7ba636f3fe60200000000000000000000000000000000000000000000000000000000000138820000000000000000000000000000000000000000000000000028254a45f64000000000000000000000000000699bceebd59a5b52bb586c737cd7ba636f3fe60200000000000000000000000000000000000000000000000000000000000138820000000000000000000000000000000000000000000000000028803d56708000000000000000000000000000699bceebd59a5b52bb586c737cd7ba636f3fe60200000000000000000000000000000000000000000000000000000000000138820000000000000000000000000000000000000000000000000028db3066eac000",
        "nonce": "0x171",
        "chainId": "0xaa36a7",
        "accessList": null,
        "type": null
      },
      "additionalContracts": [],
      "isFixedGasLimit": false
    }
  ],
  "receipts": [
    {
      "status": "0x1",
      "cumulativeGasUsed": "0x6b2ac0",
      "logs": [
        {
          "address": "0x23dd1aa37b5c81d64586c021330d61d3ad55aafb",
          "topics": [
            "0x9853b992610853aa2f058d95d0a4868ffcd37470b93a5e6634619467e0d4228c",
            "0x14ea5184b7d705c953b62545640ad2d6385bc4111ab9e86888b19058389ca59e",
            "0x000000000000000000000000699bceebd59a5b52bb586c737cd7ba636f3fe602",
            "0x00000000000000000000000000000000000000000000000000276f642501c000"
          ],
          "data": "0x00000000000000000000000000000000000000000000000000000000662fdfa8000000000000000000000000699bceebd59a5b52bb586c737cd7ba636f3fe60200000000000000000000000000000000000000000000000000000000000138820000000000000000000000000000000000000000000000a2a15d09519be000000000000000000000000000000000000000000000000000000de0b6b3a7640000",
          "blockHash": "0xe6669a3658d4a49fad26b2d1a2e5a19ef076027b540209ab6eb44d795d4457ec",
          "blockNumber": "0x588f5c",
          "transactionHash": "0x796d8f46c331797e0de3de4c6d5badf6db1037808f837d859016879b8c9fe3e5",
          "transactionIndex": "0x35",
          "logIndex": "0x7d",
          "removed": false
        },
        {
          "address": "0x23dd1aa37b5c81d64586c021330d61d3ad55aafb",
          "topics": [
            "0x9853b992610853aa2f058d95d0a4868ffcd37470b93a5e6634619467e0d4228c",
            "0x61f48df651930c416aa95fcda6088a20ec5c5fa9ef3f92fbb13a48bcf615952c",
            "0x000000000000000000000000699bceebd59a5b52bb586c737cd7ba636f3fe602",
            "0x0000000000000000000000000000000000000000000000000027ca57357c0000"
          ],
          "data": "0x00000000000000000000000000000000000000000000000000000000662fdfa8000000000000000000000000699bceebd59a5b52bb586c737cd7ba636f3fe60200000000000000000000000000000000000000000000000000000000000138820000000000000000000000000000000000000000000000a2a15d09519be000000000000000000000000000000000000000000000000000000de0b6b3a7640000",
          "blockHash": "0xe6669a3658d4a49fad26b2d1a2e5a19ef076027b540209ab6eb44d795d4457ec",
          "blockNumber": "0x588f5c",
          "transactionHash": "0x796d8f46c331797e0de3de4c6d5badf6db1037808f837d859016879b8c9fe3e5",
          "transactionIndex": "0x35",
          "logIndex": "0x7e",
          "removed": false
        },
        {
          "address": "0x23dd1aa37b5c81d64586c021330d61d3ad55aafb",
          "topics": [
            "0x9853b992610853aa2f058d95d0a4868ffcd37470b93a5e6634619467e0d4228c",
            "0x35146308441088b7d0e534a7fee1c97d13640372d9378cd878b247c66bb046d9",
            "0x000000000000000000000000699bceebd59a5b52bb586c737cd7ba636f3fe602",
            "0x0000000000000000000000000000000000000000000000000028254a45f64000"
          ],
          "data": "0x00000000000000000000000000000000000000000000000000000000662fdfa8000000000000000000000000699bceebd59a5b52bb586c737cd7ba636f3fe60200000000000000000000000000000000000000000000000000000000000138820000000000000000000000000000000000000000000000a2a15d09519be000000000000000000000000000000000000000000000000000000de0b6b3a7640000",
          "blockHash": "0xe6669a3658d4a49fad26b2d1a2e5a19ef076027b540209ab6eb44d795d4457ec",
          "blockNumber": "0x588f5c",
          "transactionHash": "0x796d8f46c331797e0de3de4c6d5badf6db1037808f837d859016879b8c9fe3e5",
          "transactionIndex": "0x35",
          "logIndex": "0x7f",
          "removed": false
        },
        {
          "address": "0x23dd1aa37b5c81d64586c021330d61d3ad55aafb",
          "topics": [
            "0x9853b992610853aa2f058d95d0a4868ffcd37470b93a5e6634619467e0d4228c",
            "0x9ce00ad359ab8a1d6fd50d6b0ea8886b83f633632197500ba93188b36b83ac5e",
            "0x000000000000000000000000699bceebd59a5b52bb586c737cd7ba636f3fe602",
            "0x0000000000000000000000000000000000000000000000000028803d56708000"
          ],
          "data": "0x00000000000000000000000000000000000000000000000000000000662fdfa8000000000000000000000000699bceebd59a5b52bb586c737cd7ba636f3fe60200000000000000000000000000000000000000000000000000000000000138820000000000000000000000000000000000000000000000a2a15d09519be000000000000000000000000000000000000000000000000000000de0b6b3a7640000",
          "blockHash": "0xe6669a3658d4a49fad26b2d1a2e5a19ef076027b540209ab6eb44d795d4457ec",
          "blockNumber": "0x588f5c",
          "transactionHash": "0x796d8f46c331797e0de3de4c6d5badf6db1037808f837d859016879b8c9fe3e5",
          "transactionIndex": "0x35",
          "logIndex": "0x80",
          "removed": false
        },
        {
          "address": "0x23dd1aa37b5c81d64586c021330d61d3ad55aafb",
          "topics": [
            "0x9853b992610853aa2f058d95d0a4868ffcd37470b93a5e6634619467e0d4228c",
            "0x9737fc784f9997d2d3dc36607ca2d0ec84ca7fcd5dfa040e0af16a64570c54fc",
            "0x000000000000000000000000699bceebd59a5b52bb586c737cd7ba636f3fe602",
            "0x0000000000000000000000000000000000000000000000000028db3066eac000"
          ],
          "data": "0x00000000000000000000000000000000000000000000000000000000662fdfa8000000000000000000000000699bceebd59a5b52bb586c737cd7ba636f3fe60200000000000000000000000000000000000000000000000000000000000138820000000000000000000000000000000000000000000000a2a15d09519be000000000000000000000000000000000000000000000000000000de0b6b3a7640000",
          "blockHash": "0xe6669a3658d4a49fad26b2d1a2e5a19ef076027b540209ab6eb44d795d4457ec",
          "blockNumber": "0x588f5c",
          "transactionHash": "0x796d8f46c331797e0de3de4c6d5badf6db1037808f837d859016879b8c9fe3e5",
          "transactionIndex": "0x35",
          "logIndex": "0x81",
          "removed": false
        }
      ],
      "logsBloom": "0x000000000008000000000000000000002000000000000000004000000000000000004000000000100001008000000010000000000000000000000000000000000100000000000000000000c0000000000000000401000040000000000000000000800000000000000000000400000000000000008020000000000000000000000000000000002000000000000210020000000004000000000000000000000000000000000000000004000000000000000000000000000000000000040000000000000000000000000000004000008000000001000000000000000000000000000000010200000000005001000000001000100180200000000000000000200000",
      "type": "0x2",
      "transactionHash": "0x796d8f46c331797e0de3de4c6d5badf6db1037808f837d859016879b8c9fe3e5",
      "transactionIndex": "0x35",
      "blockHash": "0xe6669a3658d4a49fad26b2d1a2e5a19ef076027b540209ab6eb44d795d4457ec",
      "blockNumber": "0x588f5c",
      "gasUsed": "0x1c72e",
      "effectiveGasPrice": "0xc2bc0bc8",
      "from": "0x699bceebd59a5b52bb586c737cd7ba636f3fe602",
      "to": "0x23dd1aa37b5c81d64586c021330d61d3ad55aafb",
      "contractAddress": null
    }
  ],
  "libraries": [],
  "pending": [],
  "returns": {},
  "timestamp": 1714413482,
  "chain": 11155111,
  "commit": "9546700"
}