{
  "transactions": [
    {
      "hash": "0x7bca9d5d258263a322357a928ba22eb58d8a2b9f85542b856bf7616ccea04875",
      "transactionType": "CALL",
      "contractName": null,
      "contractAddress": "0x23dd1aa37b5c81d64586c021330d61d3ad55aafb",
      "function": "postMessage((address,uint256,uint256)[])",
      "arguments": [
        "[(0x699BceEbD59a5b52bB586C737cD7ba636f3Fe602, 80002, 11100000000000000), (0x699BceEbD59a5b52bB586C737cD7ba636f3Fe602, 80002, 11200000000000000), (0x699BceEbD59a5b52bB586C737cD7ba636f3Fe602, 80002, 11300000000000000), (0x699BceEbD59a5b52bB586C737cD7ba636f3Fe602, 80002, 11400000000000000), (0x699BceEbD59a5b52bB586C737cD7ba636f3Fe602, 80002, 11500000000000000)]"
      ],
      "transaction": {
        "from": "0x699bceebd59a5b52bb586c737cd7ba636f3fe602",
        "to": "0x23dd1aa37b5c81d64586c021330d61d3ad55aafb",
        "gas": "0x274b6",
        "value": "0xd529ae9e860000",
        "input": "0x42cbee8d00000000000000000000000000000000000000000000000000000000000000200000000000000000000000000000000000000000000000000000000000000005000000000000000000000000699bceebd59a5b52bb586c737cd7ba636f3fe602000000000000000000000000000000000000000000000000000000000001388200000000000000000000000000000000000000000000000000276f642501c000000000000000000000000000699bceebd59a5b52bb586c737cd7ba636f3fe60200000000000000000000000000000000000000000000000000000000000138820000000000000000000000000000000000000000000000000027ca57357c0000000000000000000000000000699bceebd59a5b52bb586c737cd7ba636f3fe60200000000000000000000000000000000000000000000000000000000000138820000000000000000000000000000000000000000000000000028254a45f64000000000000000000000000000699bceebd59a5b52bb586c737cd7ba636f3fe60200000000000000000000000000000000000000000000000000000000000138820000000000000000000000000000000000000000000000000028803d56708000000000000000000000000000699bceebd59a5b52bb586c737cd7ba636f3fe60200000000000000000000000000000000000000000000000000000000000138820000000000000000000000000000000000000000000000000028db3066eac000",
        "nonce": "0x183",
        "chainId": "0xaa36a7",
        "accessList": null,
        "type": null
      },
      "additionalContracts": [],
      "isFixedGasLimit": false
    }
  ],
  "receipts": [
    {
      "status": "0x1",
      "cumulativeGasUsed": "0x134aac3",
      "logs": [
        {
          "address": "0x23dd1aa37b5c81d64586c021330d61d3ad55aafb",
          "topics": [
            "0x9853b992610853aa2f058d95d0a4868ffcd37470b93a5e6634619467e0d4228c",
            "0x741a1589add79b4433e480fdae741d17963916f36ad04281b5e6495b8ecf43e5",
            "0x000000000000000000000000699bceebd59a5b52bb586c737cd7ba636f3fe602",
            "0x00000000000000000000000000000000000000000000000000276f642501c000"
          ],
          "data": "0x00000000000000000000000000000000000000000000000000000000663029c4000000000000000000000000699bceebd59a5b52bb586c737cd7ba636f3fe60200000000000000000000000000000000000000000000000000000000000138820000000000000000000000000000000000000000000000a2a15d09519be000000000000000000000000000000000000000000000000000000de0b6b3a7640000",
          "blockHash": "0x4efd5cf37d5cf81cd372e1a81d7580a12c3a3a6f9fdc187da51e920525661038",
          "blockNumber": "0x5894e3",
          "transactionHash": "0x7bca9d5d258263a322357a928ba22eb58d8a2b9f85542b856bf7616ccea04875",
          "transactionIndex": "0x5d",
          "logIndex": "0x4c9",
          "removed": false
        },
        {
          "address": "0x23dd1aa37b5c81d64586c021330d61d3ad55aafb",
          "topics": [
            "0x9853b992610853aa2f058d95d0a4868ffcd37470b93a5e6634619467e0d4228c",
            "0xdff66ca4477e1df0b19e6a5e977c4fa3fc0ce3f20a9ff3201dcda882db363a9e",
            "0x000000000000000000000000699bceebd59a5b52bb586c737cd7ba636f3fe602",
            "0x0000000000000000000000000000000000000000000000000027ca57357c0000"
          ],
          "data": "0x00000000000000000000000000000000000000000000000000000000663029c4000000000000000000000000699bceebd59a5b52bb586c737cd7ba636f3fe60200000000000000000000000000000000000000000000000000000000000138820000000000000000000000000000000000000000000000a2a15d09519be000000000000000000000000000000000000000000000000000000de0b6b3a7640000",
          "blockHash": "0x4efd5cf37d5cf81cd372e1a81d7580a12c3a3a6f9fdc187da51e920525661038",
          "blockNumber": "0x5894e3",
          "transactionHash": "0x7bca9d5d258263a322357a928ba22eb58d8a2b9f85542b856bf7616ccea04875",
          "transactionIndex": "0x5d",
          "logIndex": "0x4ca",
          "removed": false
        },
        {
          "address": "0x23dd1aa37b5c81d64586c021330d61d3ad55aafb",
          "topics": [
            "0x9853b992610853aa2f058d95d0a4868ffcd37470b93a5e6634619467e0d4228c",
            "0xea5aaf3593459d85d74d9516e1059b01990259cf01209a4467ad4798e1cc6672",
            "0x000000000000000000000000699bceebd59a5b52bb586c737cd7ba636f3fe602",
            "0x0000000000000000000000000000000000000000000000000028254a45f64000"
          ],
          "data": "0x00000000000000000000000000000000000000000000000000000000663029c4000000000000000000000000699bceebd59a5b52bb586c737cd7ba636f3fe60200000000000000000000000000000000000000000000000000000000000138820000000000000000000000000000000000000000000000a2a15d09519be000000000000000000000000000000000000000000000000000000de0b6b3a7640000",
          "blockHash": "0x4efd5cf37d5cf81cd372e1a81d7580a12c3a3a6f9fdc187da51e920525661038",
          "blockNumber": "0x5894e3",
          "transactionHash": "0x7bca9d5d258263a322357a928ba22eb58d8a2b9f85542b856bf7616ccea04875",
          "transactionIndex": "0x5d",
          "logIndex": "0x4cb",
          "removed": false
        },
        {
          "address": "0x23dd1aa37b5c81d64586c021330d61d3ad55aafb",
          "topics": [
            "0x9853b992610853aa2f058d95d0a4868ffcd37470b93a5e6634619467e0d4228c",
            "0xd1612877002eb42e941dd4225b2d8ff4a361fad979cbd39c869f309ff5e346fe",
            "0x000000000000000000000000699bceebd59a5b52bb586c737cd7ba636f3fe602",
            "0x0000000000000000000000000000000000000000000000000028803d56708000"
          ],
          "data": "0x00000000000000000000000000000000000000000000000000000000663029c4000000000000000000000000699bceebd59a5b52bb586c737cd7ba636f3fe60200000000000000000000000000000000000000000000000000000000000138820000000000000000000000000000000000000000000000a2a15d09519be000000000000000000000000000000000000000000000000000000de0b6b3a7640000",
          "blockHash": "0x4efd5cf37d5cf81cd372e1a81d7580a12c3a3a6f9fdc187da51e920525661038",
          "blockNumber": "0x5894e3",
          "transactionHash": "0x7bca9d5d258263a322357a928ba22eb58d8a2b9f85542b856bf7616ccea04875",
          "transactionIndex": "0x5d",
          "logIndex": "0x4cc",
          "removed": false
        },
        {
          "address": "0x23dd1aa37b5c81d64586c021330d61d3ad55aafb",
          "topics": [
            "0x9853b992610853aa2f058d95d0a4868ffcd37470b93a5e6634619467e0d4228c",
            "0x0d78135c0e25589a7eccc0e1c23ff994925705f462057d3afc2035a0ff908d33",
            "0x000000000000000000000000699bceebd59a5b52bb586c737cd7ba636f3fe602",
            "0x0000000000000000000000000000000000000000000000000028db3066eac000"
          ],
          "data": "0x00000000000000000000000000000000000000000000000000000000663029c4000000000000000000000000699bceebd59a5b52bb586c737cd7ba636f3fe60200000000000000000000000000000000000000000000000000000000000138820000000000000000000000000000000000000000000000a2a15d09519be000000000000000000000000000000000000000000000000000000de0b6b3a7640000",
          "blockHash": "0x4efd5cf37d5cf81cd372e1a81d7580a12c3a3a6f9fdc187da51e920525661038",
          "blockNumber": "0x5894e3",
          "transactionHash": "0x7bca9d5d258263a322357a928ba22eb58d8a2b9f85542b856bf7616ccea04875",
          "transactionIndex": "0x5d",
          "logIndex": "0x4cd",
          "removed": false
        }
      ],
      "logsBloom": "0x00000000000000000000000000000000200000000000000000400000000000000000400000000010000000800000001000000000000000000000100000000000010000000101000000000000000000080000000000000000000040000000000000800000000000000000000400000000000000008000004000000000004000000000000000000000000000000210020000000000000000080000000000001000000000000000000004000008000000000000004000000000000000240000000000000000000000000000004000008000010000000000000000000000200000000000010200000000005001000000000000000180200000000000000000000000",
      "type": "0x2",
      "transactionHash": "0x7bca9d5d258263a322357a928ba22eb58d8a2b9f85542b856bf7616ccea04875",
      "transactionIndex": "0x5d",
      "blockHash": "0x4efd5cf37d5cf81cd372e1a81d7580a12c3a3a6f9fdc187da51e920525661038",
      "blockNumber": "0x5894e3",
      "gasUsed": "0x1c72e",
      "effectiveGasPrice": "0x81232",
      "from": "0x699bceebd59a5b52bb586c737cd7ba636f3fe602",
      "to": "0x23dd1aa37b5c81d64586c021330d61d3ad55aafb",
      "contractAddress": null
    }
  ],
  "libraries": [],
  "pending": [],
  "returns": {},
  "timestamp": 1714432459,
  "chain": 11155111,
  "commit": "9546700"
}