{
  "transactions": [
    {
      "hash": "0xdd1d5b6e79352670f6517c28c8b2fa7f3a0af0e8133523910291d00915c7f7c6",
      "transactionType": "CALL",
      "contractName": null,
      "contractAddress": "0x23dd1aa37b5c81d64586c021330d61d3ad55aafb",
      "function": "postMessage((address,uint256,uint256)[])",
      "arguments": [
        "[(0x699BceEbD59a5b52bB586C737cD7ba636f3Fe602, 80002, 11100000000000000), (0x699BceEbD59a5b52bB586C737cD7ba636f3Fe602, 80002, 11200000000000000)]"
      ],
      "transaction": {
        "from": "0x699bceebd59a5b52bb586c737cd7ba636f3fe602",
        "to": "0x23dd1aa37b5c81d64586c021330d61d3ad55aafb",
        "gas": "0x218a8",
        "value": "0x6a94d74f430000",
        "input": "0x42cbee8d00000000000000000000000000000000000000000000000000000000000000200000000000000000000000000000000000000000000000000000000000000002000000000000000000000000699bceebd59a5b52bb586c737cd7ba636f3fe602000000000000000000000000000000000000000000000000000000000001388200000000000000000000000000000000000000000000000000276f642501c000000000000000000000000000699bceebd59a5b52bb586c737cd7ba636f3fe60200000000000000000000000000000000000000000000000000000000000138820000000000000000000000000000000000000000000000000027ca57357c0000",
        "nonce": "0x14b",
        "chainId": "0xaa36a7",
        "accessList": null,
        "type": null
      },
      "additionalContracts": [],
      "isFixedGasLimit": false
    }
  ],
  "receipts": [
    {
      "status": "0x1",
      "cumulativeGasUsed": "0x9711b9",
      "logs": [
        {
          "address": "0x23dd1aa37b5c81d64586c021330d61d3ad55aafb",
          "topics": [
            "0x9853b992610853aa2f058d95d0a4868ffcd37470b93a5e6634619467e0d4228c",
            "0x70eb41d4617b4e0040bdcde90da839de1fdeb6ad2fd50f32bc60efd3bccab84b",
            "0x000000000000000000000000699bceebd59a5b52bb586c737cd7ba636f3fe602",
            "0x00000000000000000000000000000000000000000000000000276f642501c000"
          ],
          "data": "0x00000000000000000000000000000000000000000000000000000000662dfbac000000000000000000000000699bceebd59a5b52bb586c737cd7ba636f3fe60200000000000000000000000000000000000000000000000000000000000138820000000000000000000000000000000000000000000000a2a15d09519be000000000000000000000000000000000000000000000000000000de0b6b3a7640000",
          "blockHash": "0xd5fd5e10f4695e56f2d6ca9e3ed7c26740ff645d0827df0534aa3aec060cefde",
          "blockNumber": "0x58694e",
          "transactionHash": "0xdd1d5b6e79352670f6517c28c8b2fa7f3a0af0e8133523910291d00915c7f7c6",
          "transactionIndex": "0x45",
          "logIndex": "0xbe",
          "removed": false
        },
        {
          "address": "0x23dd1aa37b5c81d64586c021330d61d3ad55aafb",
          "topics": [
            "0x9853b992610853aa2f058d95d0a4868ffcd37470b93a5e6634619467e0d4228c",
            "0x59cb7506ac84f2162bd70fe2ff68b4d4f25cfa224c0115beaa5ffcc8c9f13ae2",
            "0x000000000000000000000000699bceebd59a5b52bb586c737cd7ba636f3fe602",
            "0x0000000000000000000000000000000000000000000000000027ca57357c0000"
          ],
          "data": "0x00000000000000000000000000000000000000000000000000000000662dfbac000000000000000000000000699bceebd59a5b52bb586c737cd7ba636f3fe60200000000000000000000000000000000000000000000000000000000000138820000000000000000000000000000000000000000000000a2a15d09519be000000000000000000000000000000000000000000000000000000de0b6b3a7640000",
          "blockHash": "0xd5fd5e10f4695e56f2d6ca9e3ed7c26740ff645d0827df0534aa3aec060cefde",
          "blockNumber": "0x58694e",
          "transactionHash": "0xdd1d5b6e79352670f6517c28c8b2fa7f3a0af0e8133523910291d00915c7f7c6",
          "transactionIndex": "0x45",
          "logIndex": "0xbf",
          "removed": false
        }
      ],
      "logsBloom": "0x00000000000000000000000000000000000000000000000000400000000000000000400000000010000000000000000000000001000000000000000000000000000000000000000000000000000000000000000000000000000000000000000000800000000000000000000400000000000000008000000000000000000002000000000000000000000000000200020000000000000000000000000000000000000000000000000000000000000000000000000000000002400000040000000000000000000000000000000000008000000000000000000000000000000000020000010000000000005000000080000000000100200000000000000000000000",
      "type": "0x2",
      "transactionHash": "0xdd1d5b6e79352670f6517c28c8b2fa7f3a0af0e8133523910291d00915c7f7c6",
      "transactionIndex": "0x45",
      "blockHash": "0xd5fd5e10f4695e56f2d6ca9e3ed7c26740ff645d0827df0534aa3aec060cefde",
      "blockNumber": "0x58694e",
      "gasUsed": "0x18488",
      "effectiveGasPrice": "0xb1d74c6b",
      "from": "0x699bceebd59a5b52bb586c737cd7ba636f3fe602",
      "to": "0x23dd1aa37b5c81d64586c021330d61d3ad55aafb",
      "contractAddress": null
    }
  ],
  "libraries": [],
  "pending": [],
  "returns": {},
  "timestamp": 1714289586,
  "chain": 11155111,
  "commit": "9546700"
}