{
  "transactions": [
    {
      "hash": "0xe21fd0e8119574c2643630e82ee645d53042be00757575a7524be8ae1f1276cc",
      "transactionType": "CALL",
      "contractName": null,
      "contractAddress": "0x23dd1aa37b5c81d64586c021330d61d3ad55aafb",
      "function": "postMessage((address,uint256,uint256)[])",
      "arguments": [
        "[(0x699BceEbD59a5b52bB586C737cD7ba636f3Fe602, 80002, 11100000000000000)]"
      ],
      "transaction": {
        "from": "0x699bceebd59a5b52bb586c737cd7ba636f3fe602",
        "to": "0x23dd1aa37b5c81d64586c021330d61d3ad55aafb",
        "gas": "0x1fa07",
        "value": "0x276f642501c000",
        "input": "0x42cbee8d00000000000000000000000000000000000000000000000000000000000000200000000000000000000000000000000000000000000000000000000000000001000000000000000000000000699bceebd59a5b52bb586c737cd7ba636f3fe602000000000000000000000000000000000000000000000000000000000001388200000000000000000000000000000000000000000000000000276f642501c000",
        "nonce": "0x140",
        "chainId": "0xaa36a7",
        "accessList": null,
        "type": null
      },
      "additionalContracts": [],
      "isFixedGasLimit": false
    }
  ],
  "receipts": [
    {
      "status": "0x1",
      "cumulativeGasUsed": "0x627606",
      "logs": [
        {
          "address": "0x23dd1aa37b5c81d64586c021330d61d3ad55aafb",
          "topics": [
            "0x9853b992610853aa2f058d95d0a4868ffcd37470b93a5e6634619467e0d4228c",
            "0x7a1c4c892b2f4f3e8fe632b8fc05389143a0e00dfed22725db5115f7f8863fe0",
            "0x000000000000000000000000699bceebd59a5b52bb586c737cd7ba636f3fe602",
            "0x00000000000000000000000000000000000000000000000000276f642501c000"
          ],
          "data": "0x00000000000000000000000000000000000000000000000000000000662ddf44000000000000000000000000699bceebd59a5b52bb586c737cd7ba636f3fe60200000000000000000000000000000000000000000000000000000000000138820000000000000000000000000000000000000000000000a2a15d09519be000000000000000000000000000000000000000000000000000000de0b6b3a7640000",
          "blockHash": "0xd7cc41edfebb212b6f180afefb44f7874afc727bbbeed322dcdf305d6e564541",
          "blockNumber": "0x5866f7",
          "transactionHash": "0xe21fd0e8119574c2643630e82ee645d53042be00757575a7524be8ae1f1276cc",
          "transactionIndex": "0x36",
          "logIndex": "0x69",
          "removed": false
        }
      ],
      "logsBloom": "0x00000000000020000000000000000000000000000000000000400000000000000000000000000010000000000000000000000000000000000000000000000000000000000000000000000000000000000000000000000000000000000000000000800000000000000000000400000000000000008000000000000000000000000000000000000000000000000200000000000000000000000000000000000000000000000000000000000000000000000000000000000000000000040000000000000000000000000000000000008000000000000000000000000000000000000000010000000000001000000000000000000100200200000000000000200000",
      "type": "0x2",
      "transactionHash": "0xe21fd0e8119574c2643630e82ee645d53042be00757575a7524be8ae1f1276cc",
      "transactionIndex": "0x36",
      "blockHash": "0xd7cc41edfebb212b6f180afefb44f7874afc727bbbeed322dcdf305d6e564541",
      "blockNumber": "0x5866f7",
      "gasUsed": "0x16e5c",
      "effectiveGasPrice": "0x19387437",
      "from": "0x699bceebd59a5b52bb586c737cd7ba636f3fe602",
      "to": "0x23dd1aa37b5c81d64586c021330d61d3ad55aafb",
      "contractAddress": null
    }
  ],
  "libraries": [],
  "pending": [],
  "returns": {},
  "timestamp": 1714282315,
  "chain": 11155111,
  "commit": "9546700"
}