{
  "transactions": [
    {
      "hash": "0xdeaddafa661127efc565b4c710cca2adceff7fef852395ebf8b4abde2d89b0df",
      "transactionType": "CALL",
      "contractName": null,
      "contractAddress": "0x23dd1aa37b5c81d64586c021330d61d3ad55aafb",
      "function": "postMessage((address,uint256,uint256)[])",
      "arguments": [
        "[(0x699BceEbD59a5b52bB586C737cD7ba636f3Fe602, 80002, 11100000000000000), (0x699BceEbD59a5b52bB586C737cD7ba636f3Fe602, 80002, 11200000000000000), (0x699BceEbD59a5b52bB586C737cD7ba636f3Fe602, 80002, 11300000000000000), (0x699BceEbD59a5b52bB586C737cD7ba636f3Fe602, 80002, 11400000000000000), (0x699BceEbD59a5b52bB586C737cD7ba636f3Fe602, 80002, 11500000000000000), (0x699BceEbD59a5b52bB586C737cD7ba636f3Fe602, 80002, 11600000000000000), (0x699BceEbD59a5b52bB586C737cD7ba636f3Fe602, 80002, 11700000000000000), (0x699BceEbD59a5b52bB586C737cD7ba636f3Fe602, 80002, 11800000000000000), (0x699BceEbD59a5b52bB586C737cD7ba636f3Fe602, 80002, 11900000000000000), (0x699BceEbD59a5b52bB586C737cD7ba636f3Fe602, 80002, 12000000000000000), (0x699BceEbD59a5b52bB586C737cD7ba636f3Fe602, 80002, 12100000000000000), (0x699BceEbD59a5b52bB586C737cD7ba636f3Fe602, 80002, 12200000000000000), (0x699BceEbD59a5b52bB586C737cD7ba636f3Fe602, 80002, 12300000000000000), (0x699BceEbD59a5b52bB586C737cD7ba636f3Fe602, 80002, 12400000000000000), (0x699BceEbD59a5b52bB586C737cD7ba636f3Fe602, 80002, 12500000000000000)]"
      ],
      "transaction": {
        "from": "0x699bceebd59a5b52bb586c737cd7ba636f3fe602",
        "to": "0x23dd1aa37b5c81d64586c021330d61d3ad55aafb",
        "gas": "0x3a77a",
        "value": "0x2c68af0bb140000",
        "input": "0x42cbee8d0000000000000000000000000000000000000000000000000000000000000020000000000000000000000000000000000000000000000000000000000000000f000000000000000000000000699bceebd59a5b52bb586c737cd7ba636f3fe602000000000000000000000000000000000000000000000000000000000001388200000000000000000000000000000000000000000000000000276f642501c000000000000000000000000000699bceebd59a5b52bb586c737cd7ba636f3fe60200000000000000000000000000000000000000000000000000000000000138820000000000000000000000000000000000000000000000000027ca57357c0000000000000000000000000000699bceebd59a5b52bb586c737cd7ba636f3fe60200000000000000000000000000000000000000000000000000000000000138820000000000000000000000000000000000000000000000000028254a45f64000000000000000000000000000699bceebd59a5b52bb586c737cd7ba636f3fe60200000000000000000000000000000000000000000000000000000000000138820000000000000000000000000000000000000000000000000028803d56708000000000000000000000000000699bceebd59a5b52bb586c737cd7ba636f3fe60200000000000000000000000000000000000000000000000000000000000138820000000000000000000000000000000000000000000000000028db3066eac000000000000000000000000000699bceebd59a5b52bb586c737cd7ba636f3fe60200000000000000000000000000000000000000000000000000000000000138820000000000000000000000000000000000000000000000000029362377650000000000000000000000000000699bceebd59a5b52bb586c737cd7ba636f3fe60200000000000000000000000000000000000000000000000000000000000138820000000000000000000000000000000000000000000000000029911687df4000000000000000000000000000699bceebd59a5b52bb586c737cd7ba636f3fe60200000000000000000000000000000000000000000000000000000000000138820000000000000000000000000000000000000000000000000029ec0998598000000000000000000000000000699bceebd59a5b52bb586c737cd7ba636f3fe6020000000000000000000000000000000000000000000000000000000000013882000000000000000000000000000000000000000000000000002a46fca8d3c000000000000000000000000000699bceebd59a5b52bb586c737cd7ba636f3fe6020000000000000000000000000000000000000000000000000000000000013882000000000000000000000000000000000000000000000000002aa1efb94e0000000000000000000000000000699bceebd59a5b52bb586c737cd7ba636f3fe6020000000000000000000000000000000000000000000000000000000000013882000000000000000000000000000000000000000000000000002afce2c9c84000000000000000000000000000699bceebd59a5b52bb586c737cd7ba636f3fe6020000000000000000000000000000000000000000000000000000000000013882000000000000000000000000000000000000000000000000002b57d5da428000000000000000000000000000699bceebd59a5b52bb586c737cd7ba636f3fe6020000000000000000000000000000000000000000000000000000000000013882000000000000000000000000000000000000000000000000002bb2c8eabcc000000000000000000000000000699bceebd59a5b52bb586c737cd7ba636f3fe6020000000000000000000000000000000000000000000000000000000000013882000000000000000000000000000000000000000000000000002c0dbbfb370000000000000000000000000000699bceebd59a5b52bb586c737cd7ba636f3fe6020000000000000000000000000000000000000000000000000000000000013882000000000000000000000000000000000000000000000000002c68af0bb14000",
        "nonce": "0x196",
        "chainId": "0xaa36a7",
        "accessList": null,
        "type": null
      },
      "additionalContracts": [],
      "isFixedGasLimit": false
    }
  ],
  "receipts": [
    {
      "status": "0x1",
      "cumulativeGasUsed": "0x4d0670",
      "logs": [
        {
          "address": "0x23dd1aa37b5c81d64586c021330d61d3ad55aafb",
          "topics": [
            "0x9853b992610853aa2f058d95d0a4868ffcd37470b93a5e6634619467e0d4228c",
            "0xce3ff67f17416e9911e9c8db48bdb9ca918df773447bf8fbc1404e1680e0ff7c",
            "0x000000000000000000000000699bceebd59a5b52bb586c737cd7ba636f3fe602",
            "0x00000000000000000000000000000000000000000000000000276f642501c000"
          ],
          "data": "0x0000000000000000000000000000000000000000000000000000000066307224000000000000000000000000699bceebd59a5b52bb586c737cd7ba636f3fe60200000000000000000000000000000000000000000000000000000000000138820000000000000000000000000000000000000000000000a2a15d09519be000000000000000000000000000000000000000000000000000000de0b6b3a7640000",
          "blockHash": "0x4253af4d10af694e9a1799041309edecb3fc5a0d3dd3e87d57a75bca948338d8",
          "blockNumber": "0x5899ff",
          "transactionHash": "0xdeaddafa661127efc565b4c710cca2adceff7fef852395ebf8b4abde2d89b0df",
          "transactionIndex": "0x29",
          "logIndex": "0x7c",
          "removed": false
        },
        {
          "address": "0x23dd1aa37b5c81d64586c021330d61d3ad55aafb",
          "topics": [
            "0x9853b992610853aa2f058d95d0a4868ffcd37470b93a5e6634619467e0d4228c",
            "0xeb3f352ff4fe721614aaad1fc772c926f2f737dfd5ea34a9856c97891558cb6f",
            "0x000000000000000000000000699bceebd59a5b52bb586c737cd7ba636f3fe602",
            "0x0000000000000000000000000000000000000000000000000027ca57357c0000"
          ],
          "data": "0x0000000000000000000000000000000000000000000000000000000066307224000000000000000000000000699bceebd59a5b52bb586c737cd7ba636f3fe60200000000000000000000000000000000000000000000000000000000000138820000000000000000000000000000000000000000000000a2a15d09519be000000000000000000000000000000000000000000000000000000de0b6b3a7640000",
          "blockHash": "0x4253af4d10af694e9a1799041309edecb3fc5a0d3dd3e87d57a75bca948338d8",
          "blockNumber": "0x5899ff",
          "transactionHash": "0xdeaddafa661127efc565b4c710cca2adceff7fef852395ebf8b4abde2d89b0df",
          "transactionIndex": "0x29",
          "logIndex": "0x7d",
          "removed": false
        },
        {
          "address": "0x23dd1aa37b5c81d64586c021330d61d3ad55aafb",
          "topics": [
            "0x9853b992610853aa2f058d95d0a4868ffcd37470b93a5e6634619467e0d4228c",
            "0x36fed8dc5649c999998576374596557981f3591b87982f616ad15835305f1307",
            "0x000000000000000000000000699bceebd59a5b52bb586c737cd7ba636f3fe602",
            "0x0000000000000000000000000000000000000000000000000028254a45f64000"
          ],
          "data": "0x0000000000000000000000000000000000000000000000000000000066307224000000000000000000000000699bceebd59a5b52bb586c737cd7ba636f3fe60200000000000000000000000000000000000000000000000000000000000138820000000000000000000000000000000000000000000000a2a15d09519be000000000000000000000000000000000000000000000000000000de0b6b3a7640000",
          "blockHash": "0x4253af4d10af694e9a1799041309edecb3fc5a0d3dd3e87d57a75bca948338d8",
          "blockNumber": "0x5899ff",
          "transactionHash": "0xdeaddafa661127efc565b4c710cca2adceff7fef852395ebf8b4abde2d89b0df",
          "transactionIndex": "0x29",
          "logIndex": "0x7e",
          "removed": false
        },
        {
          "address": "0x23dd1aa37b5c81d64586c021330d61d3ad55aafb",
          "topics": [
            "0x9853b992610853aa2f058d95d0a4868ffcd37470b93a5e6634619467e0d4228c",
            "0xf9d345f20a7ff3fdacf09d856f3e241d0cb01abbd0027a82622dbc62651394f3",
            "0x000000000000000000000000699bceebd59a5b52bb586c737cd7ba636f3fe602",
            "0x0000000000000000000000000000000000000000000000000028803d56708000"
          ],
          "data": "0x0000000000000000000000000000000000000000000000000000000066307224000000000000000000000000699bceebd59a5b52bb586c737cd7ba636f3fe60200000000000000000000000000000000000000000000000000000000000138820000000000000000000000000000000000000000000000a2a15d09519be000000000000000000000000000000000000000000000000000000de0b6b3a7640000",
          "blockHash": "0x4253af4d10af694e9a1799041309edecb3fc5a0d3dd3e87d57a75bca948338d8",
          "blockNumber": "0x5899ff",
          "transactionHash": "0xdeaddafa661127efc565b4c710cca2adceff7fef852395ebf8b4abde2d89b0df",
          "transactionIndex": "0x29",
          "logIndex": "0x7f",
          "removed": false
        },
        {
          "address": "0x23dd1aa37b5c81d64586c021330d61d3ad55aafb",
          "topics": [
            "0x9853b992610853aa2f058d95d0a4868ffcd37470b93a5e6634619467e0d4228c",
            "0x726b2ff4d733a583770e9372cc9c59a475634a77bb81ae37162113ec8043af1a",
            "0x000000000000000000000000699bceebd59a5b52bb586c737cd7ba636f3fe602",
            "0x0000000000000000000000000000000000000000000000000028db3066eac000"
          ],
          "data": "0x0000000000000000000000000000000000000000000000000000000066307224000000000000000000000000699bceebd59a5b52bb586c737cd7ba636f3fe60200000000000000000000000000000000000000000000000000000000000138820000000000000000000000000000000000000000000000a2a15d09519be000000000000000000000000000000000000000000000000000000de0b6b3a7640000",
          "blockHash": "0x4253af4d10af694e9a1799041309edecb3fc5a0d3dd3e87d57a75bca948338d8",
          "blockNumber": "0x5899ff",
          "transactionHash": "0xdeaddafa661127efc565b4c710cca2adceff7fef852395ebf8b4abde2d89b0df",
          "transactionIndex": "0x29",
          "logIndex": "0x80",
          "removed": false
        },
        {
          "address": "0x23dd1aa37b5c81d64586c021330d61d3ad55aafb",
          "topics": [
            "0x9853b992610853aa2f058d95d0a4868ffcd37470b93a5e6634619467e0d4228c",
            "0x97dcfe37c9fb735e756814ec14cd1b5b6b01983bac53a5ff48cfbff90f0cf2b5",
            "0x000000000000000000000000699bceebd59a5b52bb586c737cd7ba636f3fe602",
            "0x0000000000000000000000000000000000000000000000000029362377650000"
          ],
          "data": "0x0000000000000000000000000000000000000000000000000000000066307224000000000000000000000000699bceebd59a5b52bb586c737cd7ba636f3fe60200000000000000000000000000000000000000000000000000000000000138820000000000000000000000000000000000000000000000a2a15d09519be000000000000000000000000000000000000000000000000000000de0b6b3a7640000",
          "blockHash": "0x4253af4d10af694e9a1799041309edecb3fc5a0d3dd3e87d57a75bca948338d8",
          "blockNumber": "0x5899ff",
          "transactionHash": "0xdeaddafa661127efc565b4c710cca2adceff7fef852395ebf8b4abde2d89b0df",
          "transactionIndex": "0x29",
          "logIndex": "0x81",
          "removed": false
        },
        {
          "address": "0x23dd1aa37b5c81d64586c021330d61d3ad55aafb",
          "topics": [
            "0x9853b992610853aa2f058d95d0a4868ffcd37470b93a5e6634619467e0d4228c",
            "0x7459fc053cfdd4ff4698e95825974458fee265a4bd6f35a118fc6b4a6e7aca75",
            "0x000000000000000000000000699bceebd59a5b52bb586c737cd7ba636f3fe602",
            "0x0000000000000000000000000000000000000000000000000029911687df4000"
          ],
          "data": "0x0000000000000000000000000000000000000000000000000000000066307224000000000000000000000000699bceebd59a5b52bb586c737cd7ba636f3fe60200000000000000000000000000000000000000000000000000000000000138820000000000000000000000000000000000000000000000a2a15d09519be000000000000000000000000000000000000000000000000000000de0b6b3a7640000",
          "blockHash": "0x4253af4d10af694e9a1799041309edecb3fc5a0d3dd3e87d57a75bca948338d8",
          "blockNumber": "0x5899ff",
          "transactionHash": "0xdeaddafa661127efc565b4c710cca2adceff7fef852395ebf8b4abde2d89b0df",
          "transactionIndex": "0x29",
          "logIndex": "0x82",
          "removed": false
        },
        {
          "address": "0x23dd1aa37b5c81d64586c021330d61d3ad55aafb",
          "topics": [
            "0x9853b992610853aa2f058d95d0a4868ffcd37470b93a5e6634619467e0d4228c",
            "0xa9843019f979f0b02a34b208c2734a53b6cf180f45dceed2e36251d77d9e2c3e",
            "0x000000000000000000000000699bceebd59a5b52bb586c737cd7ba636f3fe602",
            "0x0000000000000000000000000000000000000000000000000029ec0998598000"
          ],
          "data": "0x0000000000000000000000000000000000000000000000000000000066307224000000000000000000000000699bceebd59a5b52bb586c737cd7ba636f3fe60200000000000000000000000000000000000000000000000000000000000138820000000000000000000000000000000000000000000000a2a15d09519be000000000000000000000000000000000000000000000000000000de0b6b3a7640000",
          "blockHash": "0x4253af4d10af694e9a1799041309edecb3fc5a0d3dd3e87d57a75bca948338d8",
          "blockNumber": "0x5899ff",
          "transactionHash": "0xdeaddafa661127efc565b4c710cca2adceff7fef852395ebf8b4abde2d89b0df",
          "transactionIndex": "0x29",
          "logIndex": "0x83",
          "removed": false
        },
        {
          "address": "0x23dd1aa37b5c81d64586c021330d61d3ad55aafb",
          "topics": [
            "0x9853b992610853aa2f058d95d0a4868ffcd37470b93a5e6634619467e0d4228c",
            "0x380eeb95904ec3baf2a30e088ec4893f128a91d5a3e71ae03eac962933ca2dce",
            "0x000000000000000000000000699bceebd59a5b52bb586c737cd7ba636f3fe602",
            "0x000000000000000000000000000000000000000000000000002a46fca8d3c000"
          ],
          "data": "0x0000000000000000000000000000000000000000000000000000000066307224000000000000000000000000699bceebd59a5b52bb586c737cd7ba636f3fe60200000000000000000000000000000000000000000000000000000000000138820000000000000000000000000000000000000000000000a2a15d09519be000000000000000000000000000000000000000000000000000000de0b6b3a7640000",
          "blockHash": "0x4253af4d10af694e9a1799041309edecb3fc5a0d3dd3e87d57a75bca948338d8",
          "blockNumber": "0x5899ff",
          "transactionHash": "0xdeaddafa661127efc565b4c710cca2adceff7fef852395ebf8b4abde2d89b0df",
          "transactionIndex": "0x29",
          "logIndex": "0x84",
          "removed": false
        },
        {
          "address": "0x23dd1aa37b5c81d64586c021330d61d3ad55aafb",
          "topics": [
            "0x9853b992610853aa2f058d95d0a4868ffcd37470b93a5e6634619467e0d4228c",
            "0x9606115a8e50d1ec27ca3434d139f3f62fc5ce4ca3dd59bd2d7d6b0e98b2e217",
            "0x000000000000000000000000699bceebd59a5b52bb586c737cd7ba636f3fe602",
            "0x000000000000000000000000000000000000000000000000002aa1efb94e0000"
          ],
          "data": "0x0000000000000000000000000000000000000000000000000000000066307224000000000000000000000000699bceebd59a5b52bb586c737cd7ba636f3fe60200000000000000000000000000000000000000000000000000000000000138820000000000000000000000000000000000000000000000a2a15d09519be000000000000000000000000000000000000000000000000000000de0b6b3a7640000",
          "blockHash": "0x4253af4d10af694e9a1799041309edecb3fc5a0d3dd3e87d57a75bca948338d8",
          "blockNumber": "0x5899ff",
          "transactionHash": "0xdeaddafa661127efc565b4c710cca2adceff7fef852395ebf8b4abde2d89b0df",
          "transactionIndex": "0x29",
          "logIndex": "0x85",
          "removed": false
        },
        {
          "address": "0x23dd1aa37b5c81d64586c021330d61d3ad55aafb",
          "topics": [
            "0x9853b992610853aa2f058d95d0a4868ffcd37470b93a5e6634619467e0d4228c",
            "0x36ecfc6534deb94e93dadf3d1f6200363b552af1050efa5db65bace9dd38e444",
            "0x000000000000000000000000699bceebd59a5b52bb586c737cd7ba636f3fe602",
            "0x000000000000000000000000000000000000000000000000002afce2c9c84000"
          ],
          "data": "0x0000000000000000000000000000000000000000000000000000000066307224000000000000000000000000699bceebd59a5b52bb586c737cd7ba636f3fe60200000000000000000000000000000000000000000000000000000000000138820000000000000000000000000000000000000000000000a2a15d09519be000000000000000000000000000000000000000000000000000000de0b6b3a7640000",
          "blockHash": "0x4253af4d10af694e9a1799041309edecb3fc5a0d3dd3e87d57a75bca948338d8",
          "blockNumber": "0x5899ff",
          "transactionHash": "0xdeaddafa661127efc565b4c710cca2adceff7fef852395ebf8b4abde2d89b0df",
          "transactionIndex": "0x29",
          "logIndex": "0x86",
          "removed": false
        },
        {
          "address": "0x23dd1aa37b5c81d64586c021330d61d3ad55aafb",
          "topics": [
            "0x9853b992610853aa2f058d95d0a4868ffcd37470b93a5e6634619467e0d4228c",
            "0xed82da0c7f98513bab275505174593f6036234cae09553b26b557824c55f860c",
            "0x000000000000000000000000699bceebd59a5b52bb586c737cd7ba636f3fe602",
            "0x000000000000000000000000000000000000000000000000002b57d5da428000"
          ],
          "data": "0x0000000000000000000000000000000000000000000000000000000066307224000000000000000000000000699bceebd59a5b52bb586c737cd7ba636f3fe60200000000000000000000000000000000000000000000000000000000000138820000000000000000000000000000000000000000000000a2a15d09519be000000000000000000000000000000000000000000000000000000de0b6b3a7640000",
          "blockHash": "0x4253af4d10af694e9a1799041309edecb3fc5a0d3dd3e87d57a75bca948338d8",
          "blockNumber": "0x5899ff",
          "transactionHash": "0xdeaddafa661127efc565b4c710cca2adceff7fef852395ebf8b4abde2d89b0df",
          "transactionIndex": "0x29",
          "logIndex": "0x87",
          "removed": false
        },
        {
          "address": "0x23dd1aa37b5c81d64586c021330d61d3ad55aafb",
          "topics": [
            "0x9853b992610853aa2f058d95d0a4868ffcd37470b93a5e6634619467e0d4228c",
            "0x90fe758018128bba4e7a00e495b3530dc3e1c979fbc4f2a78911164a6bbccd05",
            "0x000000000000000000000000699bceebd59a5b52bb586c737cd7ba636f3fe602",
            "0x000000000000000000000000000000000000000000000000002bb2c8eabcc000"
          ],
          "data": "0x0000000000000000000000000000000000000000000000000000000066307224000000000000000000000000699bceebd59a5b52bb586c737cd7ba636f3fe60200000000000000000000000000000000000000000000000000000000000138820000000000000000000000000000000000000000000000a2a15d09519be000000000000000000000000000000000000000000000000000000de0b6b3a7640000",
          "blockHash": "0x4253af4d10af694e9a1799041309edecb3fc5a0d3dd3e87d57a75bca948338d8",
          "blockNumber": "0x5899ff",
          "transactionHash": "0xdeaddafa661127efc565b4c710cca2adceff7fef852395ebf8b4abde2d89b0df",
          "transactionIndex": "0x29",
          "logIndex": "0x88",
          "removed": false
        },
        {
          "address": "0x23dd1aa37b5c81d64586c021330d61d3ad55aafb",
          "topics": [
            "0x9853b992610853aa2f058d95d0a4868ffcd37470b93a5e6634619467e0d4228c",
            "0x24dd94f79ffc4dbf1484673c1f37289526d0c39bd9f383988b334865b574c139",
            "0x000000000000000000000000699bceebd59a5b52bb586c737cd7ba636f3fe602",
            "0x000000000000000000000000000000000000000000000000002c0dbbfb370000"
          ],
          "data": "0x0000000000000000000000000000000000000000000000000000000066307224000000000000000000000000699bceebd59a5b52bb586c737cd7ba636f3fe60200000000000000000000000000000000000000000000000000000000000138820000000000000000000000000000000000000000000000a2a15d09519be000000000000000000000000000000000000000000000000000000de0b6b3a7640000",
          "blockHash": "0x4253af4d10af694e9a1799041309edecb3fc5a0d3dd3e87d57a75bca948338d8",
          "blockNumber": "0x5899ff",
          "transactionHash": "0xdeaddafa661127efc565b4c710cca2adceff7fef852395ebf8b4abde2d89b0df",
          "transactionIndex": "0x29",
          "logIndex": "0x89",
          "removed": false
        },
        {
          "address": "0x23dd1aa37b5c81d64586c021330d61d3ad55aafb",
          "topics": [
            "0x9853b992610853aa2f058d95d0a4868ffcd37470b93a5e6634619467e0d4228c",
            "0x16c2f4e8538a74201f00883301adc961fd82806b6014beab05f11133eb623b78",
            "0x000000000000000000000000699bceebd59a5b52bb586c737cd7ba636f3fe602",
            "0x000000000000000000000000000000000000000000000000002c68af0bb14000"
          ],
          "data": "0x0000000000000000000000000000000000000000000000000000000066307224000000000000000000000000699bceebd59a5b52bb586c737cd7ba636f3fe60200000000000000000000000000000000000000000000000000000000000138820000000000000000000000000000000000000000000000a2a15d09519be000000000000000000000000000000000000000000000000000000de0b6b3a7640000",
          "blockHash": "0x4253af4d10af694e9a1799041309edecb3fc5a0d3dd3e87d57a75bca948338d8",
          "blockNumber": "0x5899ff",
          "transactionHash": "0xdeaddafa661127efc565b4c710cca2adceff7fef852395ebf8b4abde2d89b0df",
          "transactionIndex": "0x29",
          "logIndex": "0x8a",
          "removed": false
        }
      ],
      "logsBloom": "0x00000000020000010000980000000000200000000000108000400000000000000022400010000810800040800000001000000000000000000000004200000400010000200000000800000000000800000008000000000000080100000060000000a00000008000002000002406400000040000008000000010000000000004004001000000a00000082080000250020000000000000000100000000000080000000000080010000044018000880001040080000005000000400000040000000000000200000000800000004100008000000000002120000000040004002000000010010200100008005001000000050000000100204000000010008000000000",
      "type": "0x2",
      "transactionHash": "0xdeaddafa661127efc565b4c710cca2adceff7fef852395ebf8b4abde2d89b0df",
      "transactionIndex": "0x29",
      "blockHash": "0x4253af4d10af694e9a1799041309edecb3fc5a0d3dd3e87d57a75bca948338d8",
      "blockNumber": "0x5899ff",
      "gasUsed": "0x2a545",
      "effectiveGasPrice": "0xb71e29dc",
      "from": "0x699bceebd59a5b52bb586c737cd7ba636f3fe602",
      "to": "0x23dd1aa37b5c81d64586c021330d61d3ad55aafb",
      "contractAddress": null
    }
  ],
  "libraries": [],
  "pending": [],
  "returns": {},
  "timestamp": 1714450984,
  "chain": 11155111,
  "commit": "9546700"
}