{
  "transactions": [
    {
      "hash": "0xedfabfbfb3d53aeec34f3ce051869c4e99ff741a3c8426844eb0482bec384c35",
      "transactionType": "CALL",
      "contractName": null,
      "contractAddress": "0x371862509e523e8fb89eb8911254c14c882fca96",
      "function": "postMessage((address,uint256,uint256)[])",
      "arguments": [
        "[(0x699BceEbD59a5b52bB586C737cD7ba636f3Fe602, 80002, 11000000000000000)]"
      ],
      "transaction": {
        "from": "0x699bceebd59a5b52bb586c737cd7ba636f3fe602",
        "to": "0x371862509e523e8fb89eb8911254c14c882fca96",
        "gas": "0x217c8",
        "value": "0x27147114878000",
        "input": "0x42cbee8d00000000000000000000000000000000000000000000000000000000000000200000000000000000000000000000000000000000000000000000000000000001000000000000000000000000699bceebd59a5b52bb586c737cd7ba636f3fe60200000000000000000000000000000000000000000000000000000000000138820000000000000000000000000000000000000000000000000027147114878000",
        "nonce": "0x134",
        "chainId": "0xaa36a7",
        "accessList": null,
        "type": null
      },
      "additionalContracts": [],
      "isFixedGasLimit": false
    }
  ],
  "receipts": [
    {
      "status": "0x1",
      "cumulativeGasUsed": "0x5d5d2a",
      "logs": [
        {
          "address": "0x371862509e523e8fb89eb8911254c14c882fca96",
          "topics": [
            "0x9853b992610853aa2f058d95d0a4868ffcd37470b93a5e6634619467e0d4228c",
            "0x0841ec38be651adfb8248be2645851a44a5155f5ff8c3b208849424f60c4fe74",
            "0x000000000000000000000000699bceebd59a5b52bb586c737cd7ba636f3fe602",
            "0x0000000000000000000000000000000000000000000000000027147114878000"
          ],
          "data": "0x00000000000000000000000000000000000000000000000000000000662cab64000000000000000000000000699bceebd59a5b52bb586c737cd7ba636f3fe60200000000000000000000000000000000000000000000000000000000000138820000000000000000000000000000000000000000000000a2a15d09519be000000000000000000000000000000000000000000000000000000de0b6b3a7640000",
          "blockHash": "0x1220150528ca8d4b0b79b90ea4621dd3d6348f546d722f054eb53cd347b13c03",
          "blockNumber": "0x584e0b",
          "transactionHash": "0xedfabfbfb3d53aeec34f3ce051869c4e99ff741a3c8426844eb0482bec384c35",
          "transactionIndex": "0x3d",
          "logIndex": "0x75",
          "removed": false
        }
      ],
      "logsBloom": "0x00000000000000000000000000000000000000000000000000400000000000000000000000000000000000000000000000000000000000000000000000020000000000000000000000000000000000000000000000000000000000000000000000800004000002000000000000000000000000008000000000000000000000000000000000000000040000010000000000000000000000000000000000000000000000000000000400000000000000000000000004000000000000000000000000000000000000000000000000008000000000000100000000000000000000000000000000000000001000000000000000000100000000200000000000000000",
      "type": "0x2",
      "transactionHash": "0xedfabfbfb3d53aeec34f3ce051869c4e99ff741a3c8426844eb0482bec384c35",
      "transactionIndex": "0x3d",
      "blockHash": "0x1220150528ca8d4b0b79b90ea4621dd3d6348f546d722f054eb53cd347b13c03",
      "blockNumber": "0x584e0b",
      "gasUsed": "0x16e59",
      "effectiveGasPrice": "0x2a82a91fe",
      "from": "0x699bceebd59a5b52bb586c737cd7ba636f3fe602",
      "to": "0x371862509e523e8fb89eb8911254c14c882fca96",
      "contractAddress": null
    }
  ],
  "libraries": [],
  "pending": [],
  "returns": {},
  "timestamp": 1714203495,
  "chain": 11155111,
  "commit": "d8ddccd"
}