{
  "transactions": [
    {
      "hash": "0x07c5498fb5e0c89b138fc0648e5054299758b9715382a2534f009389d2edd58f",
      "transactionType": "CALL",
      "contractName": null,
      "contractAddress": "0x23dd1aa37b5c81d64586c021330d61d3ad55aafb",
      "function": "postMessage((address,uint256,uint256)[])",
      "arguments": [
        "[(0x699BceEbD59a5b52bB586C737cD7ba636f3Fe602, 80002, 11100000000000000), (0x699BceEbD59a5b52bB586C737cD7ba636f3Fe602, 80002, 11200000000000000), (0x699BceEbD59a5b52bB586C737cD7ba636f3Fe602, 80002, 11300000000000000), (0x699BceEbD59a5b52bB586C737cD7ba636f3Fe602, 80002, 11400000000000000), (0x699BceEbD59a5b52bB586C737cD7ba636f3Fe602, 80002, 11500000000000000)]"
      ],
      "transaction": {
        "from": "0x699bceebd59a5b52bb586c737cd7ba636f3fe602",
        "to": "0x23dd1aa37b5c81d64586c021330d61d3ad55aafb",
        "gas": "0x274b6",
        "value": "0xd529ae9e860000",
        "input": "0x42cbee8d00000000000000000000000000000000000000000000000000000000000000200000000000000000000000000000000000000000000000000000000000000005000000000000000000000000699bceebd59a5b52bb586c737cd7ba636f3fe602000000000000000000000000000000000000000000000000000000000001388200000000000000000000000000000000000000000000000000276f642501c000000000000000000000000000699bceebd59a5b52bb586c737cd7ba636f3fe60200000000000000000000000000000000000000000000000000000000000138820000000000000000000000000000000000000000000000000027ca57357c0000000000000000000000000000699bceebd59a5b52bb586c737cd7ba636f3fe60200000000000000000000000000000000000000000000000000000000000138820000000000000000000000000000000000000000000000000028254a45f64000000000000000000000000000699bceebd59a5b52bb586c737cd7ba636f3fe60200000000000000000000000000000000000000000000000000000000000138820000000000000000000000000000000000000000000000000028803d56708000000000000000000000000000699bceebd59a5b52bb586c737cd7ba636f3fe60200000000000000000000000000000000000000000000000000000000000138820000000000000000000000000000000000000000000000000028db3066eac000",
        "nonce": "0x16c",
        "chainId": "0xaa36a7",
        "accessList": null,
        "type": null
      },
      "additionalContracts": [],
      "isFixedGasLimit": false
    }
  ],
  "receipts": [
    {
      "status": "0x1",
      "cumulativeGasUsed": "0xaf8198",
      "logs": [
        {
          "address": "0x23dd1aa37b5c81d64586c021330d61d3ad55aafb",
          "topics": [
            "0x9853b992610853aa2f058d95d0a4868ffcd37470b93a5e6634619467e0d4228c",
            "0x4becdb2229c0609ce4c94eb598135f010ef06a173927c46f7369933f449149c1",
            "0x000000000000000000000000699bceebd59a5b52bb586c737cd7ba636f3fe602",
            "0x00000000000000000000000000000000000000000000000000276f642501c000"
          ],
          "data": "0x00000000000000000000000000000000000000000000000000000000662fd99c000000000000000000000000699bceebd59a5b52bb586c737cd7ba636f3fe60200000000000000000000000000000000000000000000000000000000000138820000000000000000000000000000000000000000000000a2a15d09519be000000000000000000000000000000000000000000000000000000de0b6b3a7640000",
          "blockHash": "0x4973af203159c3872d37225bbb02ebca4279b6a071c5c5d941e4653c1644ae0c",
          "blockNumber": "0x588ee6",
          "transactionHash": "0x07c5498fb5e0c89b138fc0648e5054299758b9715382a2534f009389d2edd58f",
          "transactionIndex": "0x61",
          "logIndex": "0x7c",
          "removed": false
        },
        {
          "address": "0x23dd1aa37b5c81d64586c021330d61d3ad55aafb",
          "topics": [
            "0x9853b992610853aa2f058d95d0a4868ffcd37470b93a5e6634619467e0d4228c",
            "0x2ad11df3f4fb372b89274ac1cb2dbc28995648a8d73b0987429a178b64e3318c",
            "0x000000000000000000000000699bceebd59a5b52bb586c737cd7ba636f3fe602",
            "0x0000000000000000000000000000000000000000000000000027ca57357c0000"
          ],
          "data": "0x00000000000000000000000000000000000000000000000000000000662fd99c000000000000000000000000699bceebd59a5b52bb586c737cd7ba636f3fe60200000000000000000000000000000000000000000000000000000000000138820000000000000000000000000000000000000000000000a2a15d09519be000000000000000000000000000000000000000000000000000000de0b6b3a7640000",
          "blockHash": "0x4973af203159c3872d37225bbb02ebca4279b6a071c5c5d941e4653c1644ae0c",
          "blockNumber": "0x588ee6",
          "transactionHash": "0x07c5498fb5e0c89b138fc0648e5054299758b9715382a2534f009389d2edd58f",
          "transactionIndex": "0x61",
          "logIndex": "0x7d",
          "removed": false
        },
        {
          "address": "0x23dd1aa37b5c81d64586c021330d61d3ad55aafb",
          "topics": [
            "0x9853b992610853aa2f058d95d0a4868ffcd37470b93a5e6634619467e0d4228c",
            "0xe3fdb57e0d37fd3c3ccd1d6b44e04dfeaa4fc94602ae410c67d4e7a085c45620",
            "0x000000000000000000000000699bceebd59a5b52bb586c737cd7ba636f3fe602",
            "0x0000000000000000000000000000000000000000000000000028254a45f64000"
          ],
          "data": "0x00000000000000000000000000000000000000000000000000000000662fd99c000000000000000000000000699bceebd59a5b52bb586c737cd7ba636f3fe60200000000000000000000000000000000000000000000000000000000000138820000000000000000000000000000000000000000000000a2a15d09519be000000000000000000000000000000000000000000000000000000de0b6b3a7640000",
          "blockHash": "0x4973af203159c3872d37225bbb02ebca4279b6a071c5c5d941e4653c1644ae0c",
          "blockNumber": "0x588ee6",
          "transactionHash": "0x07c5498fb5e0c89b138fc0648e5054299758b9715382a2534f009389d2edd58f",
          "transactionIndex": "0x61",
          "logIndex": "0x7e",
          "removed": false
        },
        {
          "address": "0x23dd1aa37b5c81d64586c021330d61d3ad55aafb",
          "topics": [
            "0x9853b992610853aa2f058d95d0a4868ffcd37470b93a5e6634619467e0d4228c",
            "0x2bba22299c70829e99a00ba085f61e94b779489a9dd6b02078fe9f602c65ef8c",
            "0x000000000000000000000000699bceebd59a5b52bb586c737cd7ba636f3fe602",
            "0x0000000000000000000000000000000000000000000000000028803d56708000"
          ],
          "data": "0x00000000000000000000000000000000000000000000000000000000662fd99c000000000000000000000000699bceebd59a5b52bb586c737cd7ba636f3fe60200000000000000000000000000000000000000000000000000000000000138820000000000000000000000000000000000000000000000a2a15d09519be000000000000000000000000000000000000000000000000000000de0b6b3a7640000",
          "blockHash": "0x4973af203159c3872d37225bbb02ebca4279b6a071c5c5d941e4653c1644ae0c",
          "blockNumber": "0x588ee6",
          "transactionHash": "0x07c5498fb5e0c89b138fc0648e5054299758b9715382a2534f009389d2edd58f",
          "transactionIndex": "0x61",
          "logIndex": "0x7f",
          "removed": false
        },
        {
          "address": "0x23dd1aa37b5c81d64586c021330d61d3ad55aafb",
          "topics": [
            "0x9853b992610853aa2f058d95d0a4868ffcd37470b93a5e6634619467e0d4228c",
            "0x609c415ecdcfb3acf5f7bae8a43de5b0936b5fc287a7fdf17f8ae1aff2f54cd8",
            "0x000000000000000000000000699bceebd59a5b52bb586c737cd7ba636f3fe602",
            "0x0000000000000000000000000000000000000000000000000028db3066eac000"
          ],
          "data": "0x00000000000000000000000000000000000000000000000000000000662fd99c000000000000000000000000699bceebd59a5b52bb586c737cd7ba636f3fe60200000000000000000000000000000000000000000000000000000000000138820000000000000000000000000000000000000000000000a2a15d09519be000000000000000000000000000000000000000000000000000000de0b6b3a7640000",
          "blockHash": "0x4973af203159c3872d37225bbb02ebca4279b6a071c5c5d941e4653c1644ae0c",
          "blockNumber": "0x588ee6",
          "transactionHash": "0x07c5498fb5e0c89b138fc0648e5054299758b9715382a2534f009389d2edd58f",
          "transactionIndex": "0x61",
          "logIndex": "0x80",
          "removed": false
        }
      ],
      "logsBloom": "0x00110020000000000000000000000000200000000000000000400000000000000000400000000010000000800000001000000000000000400000402000000000010000000000000000000000020000000000000000000000000000000000000020800000000000000000000400000000000000008000000000000000080000000000000000000000000000000210020000000000000000000000000000000000000200000000000004000000000000000000000000000040000000040000000010000000000000000000004000008000000000000000000000000000000000000000010200000000005001000000100000000101200000000020000000000000",
      "type": "0x2",
      "transactionHash": "0x07c5498fb5e0c89b138fc0648e5054299758b9715382a2534f009389d2edd58f",
      "transactionIndex": "0x61",
      "blockHash": "0x4973af203159c3872d37225bbb02ebca4279b6a071c5c5d941e4653c1644ae0c",
      "blockNumber": "0x588ee6",
      "gasUsed": "0x1c72e",
      "effectiveGasPrice": "0xc520778d",
      "from": "0x699bceebd59a5b52bb586c737cd7ba636f3fe602",
      "to": "0x23dd1aa37b5c81d64586c021330d61d3ad55aafb",
      "contractAddress": null
    }
  ],
  "libraries": [],
  "pending": [],
  "returns": {},
  "timestamp": 1714411937,
  "chain": 11155111,
  "commit": "9546700"
}