{
  "transactions": [
    {
      "hash": "0x377bd42a0420c06198cf76e135b299b353c3ba636c911ea083245b849ea35cff",
      "transactionType": "CALL",
      "contractName": null,
      "contractAddress": "0x23dd1aa37b5c81d64586c021330d61d3ad55aafb",
      "function": "postMessage((address,uint256,uint256)[])",
      "arguments": [
        "[(0x699BceEbD59a5b52bB586C737cD7ba636f3Fe602, 80002, 11100000000000000)]"
      ],
      "transaction": {
        "from": "0x699bceebd59a5b52bb586c737cd7ba636f3fe602",
        "to": "0x23dd1aa37b5c81d64586c021330d61d3ad55aafb",
        "gas": "0x1fa07",
        "value": "0x276f642501c000",
        "input": "0x42cbee8d00000000000000000000000000000000000000000000000000000000000000200000000000000000000000000000000000000000000000000000000000000001000000000000000000000000699bceebd59a5b52bb586c737cd7ba636f3fe602000000000000000000000000000000000000000000000000000000000001388200000000000000000000000000000000000000000000000000276f642501c000",
        "nonce": "0x139",
        "chainId": "0xaa36a7",
        "accessList": null,
        "type": null
      },
      "additionalContracts": [],
      "isFixedGasLimit": false
    }
  ],
  "receipts": [
    {
      "status": "0x1",
      "cumulativeGasUsed": "0xbfc4fa",
      "logs": [
        {
          "address": "0x23dd1aa37b5c81d64586c021330d61d3ad55aafb",
          "topics": [
            "0x9853b992610853aa2f058d95d0a4868ffcd37470b93a5e6634619467e0d4228c",
            "0xdcc044d2010faf15156c24c3510509df029302c1aca5876ff31cb1af0aa73815",
            "0x000000000000000000000000699bceebd59a5b52bb586c737cd7ba636f3fe602",
            "0x00000000000000000000000000000000000000000000000000276f642501c000"
          ],
          "data": "0x00000000000000000000000000000000000000000000000000000000662cd99c000000000000000000000000699bceebd59a5b52bb586c737cd7ba636f3fe60200000000000000000000000000000000000000000000000000000000000138820000000000000000000000000000000000000000000000a2a15d09519be000000000000000000000000000000000000000000000000000000de0b6b3a7640000",
          "blockHash": "0x903ac8489bec8d41983e29b318e39417e115b98860282f3423cf491f31206761",
          "blockNumber": "0x5851c9",
          "transactionHash": "0x377bd42a0420c06198cf76e135b299b353c3ba636c911ea083245b849ea35cff",
          "transactionIndex": "0x55",
          "logIndex": "0xb2",
          "removed": false
        }
      ],
      "logsBloom": "0x00000000000000000000000000000000000000000000000000400000000000000000000000000010000000000000000000000000000000000000000000000000000000000000000000000000000000000000000000000000000000000000000000800000000000000000000400000000000000008000000000000000000000000000000000000000000000000200000000000000000000000000000000000000000000000000000000000000000000000000000004000000000000040000000000000000000000000000000000008000000000000000000000000000000000000000010800000000001000000000000000000100200000008000000000000000",
      "type": "0x2",
      "transactionHash": "0x377bd42a0420c06198cf76e135b299b353c3ba636c911ea083245b849ea35cff",
      "transactionIndex": "0x55",
      "blockHash": "0x903ac8489bec8d41983e29b318e39417e115b98860282f3423cf491f31206761",
      "blockNumber": "0x5851c9",
      "gasUsed": "0x16e5c",
      "effectiveGasPrice": "0x10ec790c9",
      "from": "0x699bceebd59a5b52bb586c737cd7ba636f3fe602",
      "to": "0x23dd1aa37b5c81d64586c021330d61d3ad55aafb",
      "contractAddress": null
    }
  ],
  "libraries": [],
  "pending": [],
  "returns": {},
  "timestamp": 1714215329,
  "chain": 11155111,
  "commit": "9546700"
}