{
  "transactions": [
    {
      "hash": "0x6c2e24ece0ecac1029c54d8f07597d2cec161600dbc11d7e0cbdc4dcb402d408",
      "transactionType": "CALL",
      "contractName": null,
      "contractAddress": "0x371862509e523e8fb89eb8911254c14c882fca96",
      "function": "postMessage((address,uint256,uint256)[])",
      "arguments": [
        "[(0x699BceEbD59a5b52bB586C737cD7ba636f3Fe602, 80002, 100000000000000000)]"
      ],
      "transaction": {
        "from": "0x699bceebd59a5b52bb586c737cd7ba636f3fe602",
        "to": "0x371862509e523e8fb89eb8911254c14c882fca96",
        "gas": "0x217c8",
        "value": "0x16345785d8a0000",
        "input": "0x42cbee8d00000000000000000000000000000000000000000000000000000000000000200000000000000000000000000000000000000000000000000000000000000001000000000000000000000000699bceebd59a5b52bb586c737cd7ba636f3fe6020000000000000000000000000000000000000000000000000000000000013882000000000000000000000000000000000000000000000000016345785d8a0000",
        "nonce": "0x124",
        "chainId": "0xaa36a7",
        "accessList": null,
        "type": null
      },
      "additionalContracts": [],
      "isFixedGasLimit": false
    }
  ],
  "receipts": [
    {
      "status": "0x1",
      "cumulativeGasUsed": "0x6105ec",
      "logs": [
        {
          "address": "0x371862509e523e8fb89eb8911254c14c882fca96",
          "topics": [
            "0x9853b992610853aa2f058d95d0a4868ffcd37470b93a5e6634619467e0d4228c",
            "0x28598bbd459a62cfdaaf5fee0128b54f8e543789c3a221146e5a710f5134d986",
            "0x000000000000000000000000699bceebd59a5b52bb586c737cd7ba636f3fe602",
            "0x000000000000000000000000000000000000000000000000016345785d8a0000"
          ],
          "data": "0x00000000000000000000000000000000000000000000000000000000662bcac4000000000000000000000000699bceebd59a5b52bb586c737cd7ba636f3fe60200000000000000000000000000000000000000000000000000000000000138820000000000000000000000000000000000000000000000a2a15d09519be000000000000000000000000000000000000000000000000000000de0b6b3a7640000",
          "blockHash": "0xba59eac858d12d1f594df952d0fe387d2d2c945ae144466204c175a58211f827",
          "blockNumber": "0x583bef",
          "transactionHash": "0x6c2e24ece0ecac1029c54d8f07597d2cec161600dbc11d7e0cbdc4dcb402d408",
          "transactionIndex": "0x34",
          "logIndex": "0x3c",
          "removed": false
        }
      ],
      "logsBloom": "0x00000000000000000000000000000000000000000000000000400000000000000002000000000000000000000000000000000000000000000000000000020000000000000000000000000000000000000000000002000000000000000000000000800004008002000000000000000000000000008000000000001000000000000000000000000000000000000000000000000000000000000000000000000000000000001000000000000000000000000000000000000000000000000000000000000000000000000000000020008000000000000000000000000000000000000000000000000000001000000000000000000100000000000000000000000000",
      "type": "0x2",
      "transactionHash": "0x6c2e24ece0ecac1029c54d8f07597d2cec161600dbc11d7e0cbdc4dcb402d408",
      "transactionIndex": "0x34",
      "blockHash": "0xba59eac858d12d1f594df952d0fe387d2d2c945ae144466204c175a58211f827",
      "blockNumber": "0x583bef",
      "gasUsed": "0x16e59",
      "effectiveGasPrice": "0x7545fea6",
      "from": "0x699bceebd59a5b52bb586c737cd7ba636f3fe602",
      "to": "0x371862509e523e8fb89eb8911254c14c882fca96",
      "contractAddress": null
    }
  ],
  "libraries": [],
  "pending": [],
  "returns": {},
  "timestamp": 1714145997,
  "chain": 11155111,
  "commit": "d8ddccd"
}