{
  "transactions": [
    {
      "hash": "0xd57a97c76b51728e69c21a5ce64397337ff2921925ca2b940a5e4dd57ea06d76",
      "transactionType": "CALL",
      "contractName": null,
      "contractAddress": "0x23dd1aa37b5c81d64586c021330d61d3ad55aafb",
      "function": "postMessage((address,uint256,uint256)[])",
      "arguments": [
        "[(0x699BceEbD59a5b52bB586C737cD7ba636f3Fe602, 80002, 11100000000000000)]"
      ],
      "transaction": {
        "from": "0x699bceebd59a5b52bb586c737cd7ba636f3fe602",
        "to": "0x23dd1aa37b5c81d64586c021330d61d3ad55aafb",
        "gas": "0x32f08",
        "value": "0x276f642501c000",
        "input": "0x42cbee8d00000000000000000000000000000000000000000000000000000000000000200000000000000000000000000000000000000000000000000000000000000001000000000000000000000000699bceebd59a5b52bb586c737cd7ba636f3fe602000000000000000000000000000000000000000000000000000000000001388200000000000000000000000000000000000000000000000000276f642501c000",
        "nonce": "0x137",
        "chainId": "0xaa36a7",
        "accessList": null,
        "type": null
      },
      "additionalContracts": [],
      "isFixedGasLimit": false
    }
  ],
  "receipts": [
    {
      "status": "0x1",
      "cumulativeGasUsed": "0xc163e5",
      "logs": [
        {
          "address": "0x23dd1aa37b5c81d64586c021330d61d3ad55aafb",
          "topics": [
            "0x9853b992610853aa2f058d95d0a4868ffcd37470b93a5e6634619467e0d4228c",
            "0x30fbe0b5d620e22c64c934ceb0430b0110964725c30f95af648bf1e06e53b8d7",
            "0x000000000000000000000000699bceebd59a5b52bb586c737cd7ba636f3fe602",
            "0x00000000000000000000000000000000000000000000000000276f642501c000"
          ],
          "data": "0x00000000000000000000000000000000000000000000000000000000662cd84c000000000000000000000000699bceebd59a5b52bb586c737cd7ba636f3fe60200000000000000000000000000000000000000000000000000000000000138820000000000000000000000000000000000000000000000a2a15d09519be000000000000000000000000000000000000000000000000000000de0b6b3a7640000",
          "blockHash": "0x57c8a602c92d1adac57319c5cb92faa041a77c20b6868dc7bd83dbb79e4e3415",
          "blockNumber": "0x5851ad",
          "transactionHash": "0xd57a97c76b51728e69c21a5ce64397337ff2921925ca2b940a5e4dd57ea06d76",
          "transactionIndex": "0x49",
          "logIndex": "0xc0",
          "removed": false
        }
      ],
      "logsBloom": "0x00000000000000000000000000000000000000000000000000400000000000001000000000000030000000000000000000000000000000040000000000000000000000000000000000000000000000000000000000000000000000000000000000800000000000000000000400000000000000008000000000000000000000000000000000000000000000000200000000000000000000000000000000000000000000000000000000000000000000000000000000000000000000040000000000000000000000000000000000008000000000000000000000000000000000000000010000000000001000000000000000000100200000000000000000000000",
      "type": "0x2",
      "transactionHash": "0xd57a97c76b51728e69c21a5ce64397337ff2921925ca2b940a5e4dd57ea06d76",
      "transactionIndex": "0x49",
      "blockHash": "0x57c8a602c92d1adac57319c5cb92faa041a77c20b6868dc7bd83dbb79e4e3415",
      "blockNumber": "0x5851ad",
      "gasUsed": "0x22d4a",
      "effectiveGasPrice": "0x16428589c",
      "from": "0x699bceebd59a5b52bb586c737cd7ba636f3fe602",
      "to": "0x23dd1aa37b5c81d64586c021330d61d3ad55aafb",
      "contractAddress": null
    }
  ],
  "libraries": [],
  "pending": [],
  "returns": {},
  "timestamp": 1714214989,
  "chain": 11155111,
  "commit": "9546700"
}