{
  "transactions": [
    {
      "hash": "0x8d6fd3f5b78b549f7aac08bf079a9fef305290fcbf99902d73b3e130fd268c99",
      "transactionType": "CALL",
      "contractName": null,
      "contractAddress": "0x23dd1aa37b5c81d64586c021330d61d3ad55aafb",
      "function": "postMessage((address,uint256,uint256)[])",
      "arguments": [
        "[(0x699BceEbD59a5b52bB586C737cD7ba636f3Fe602, 80002, 11100000000000000), (0x699BceEbD59a5b52bB586C737cD7ba636f3Fe602, 80002, 11200000000000000)]"
      ],
      "transaction": {
        "from": "0x699bceebd59a5b52bb586c737cd7ba636f3fe602",
        "to": "0x23dd1aa37b5c81d64586c021330d61d3ad55aafb",
        "gas": "0x218a8",
        "value": "0x6a94d74f430000",
        "input": "0x42cbee8d00000000000000000000000000000000000000000000000000000000000000200000000000000000000000000000000000000000000000000000000000000002000000000000000000000000699bceebd59a5b52bb586c737cd7ba636f3fe602000000000000000000000000000000000000000000000000000000000001388200000000000000000000000000000000000000000000000000276f642501c000000000000000000000000000699bceebd59a5b52bb586c737cd7ba636f3fe60200000000000000000000000000000000000000000000000000000000000138820000000000000000000000000000000000000000000000000027ca57357c0000",
        "nonce": "0x14e",
        "chainId": "0xaa36a7",
        "accessList": null,
        "type": null
      },
      "additionalContracts": [],
      "isFixedGasLimit": false
    }
  ],
  "receipts": [
    {
      "status": "0x1",
      "cumulativeGasUsed": "0xac2596",
      "logs": [
        {
          "address": "0x23dd1aa37b5c81d64586c021330d61d3ad55aafb",
          "topics": [
            "0x9853b992610853aa2f058d95d0a4868ffcd37470b93a5e6634619467e0d4228c",
            "0x85377a322d798619ecfe0245c9913829478dbd5e018563f11c7ad61002a150d4",
            "0x000000000000000000000000699bceebd59a5b52bb586c737cd7ba636f3fe602",
            "0x00000000000000000000000000000000000000000000000000276f642501c000"
          ],
          "data": "0x00000000000000000000000000000000000000000000000000000000662e11fc000000000000000000000000699bceebd59a5b52bb586c737cd7ba636f3fe60200000000000000000000000000000000000000000000000000000000000138820000000000000000000000000000000000000000000000a2a15d09519be000000000000000000000000000000000000000000000000000000de0b6b3a7640000",
          "blockHash": "0xdd1bfb209566efa88f5e06c261489b603763d087557a957c30126279fb325e8f",
          "blockNumber": "0x586b1c",
          "transactionHash": "0x8d6fd3f5b78b549f7aac08bf079a9fef305290fcbf99902d73b3e130fd268c99",
          "transactionIndex": "0x55",
          "logIndex": "0xcb",
          "removed": false
        },
        {
          "address": "0x23dd1aa37b5c81d64586c021330d61d3ad55aafb",
          "topics": [
            "0x9853b992610853aa2f058d95d0a4868ffcd37470b93a5e6634619467e0d4228c",
            "0x2717d520effc4a2d1f3d08852114e49e0d15efcc2439274c1d62a5027ef81ee3",
            "0x000000000000000000000000699bceebd59a5b52bb586c737cd7ba636f3fe602",
            "0x0000000000000000000000000000000000000000000000000027ca57357c0000"
          ],
          "data": "0x00000000000000000000000000000000000000000000000000000000662e11fc000000000000000000000000699bceebd59a5b52bb586c737cd7ba636f3fe60200000000000000000000000000000000000000000000000000000000000138820000000000000000000000000000000000000000000000a2a15d09519be000000000000000000000000000000000000000000000000000000de0b6b3a7640000",
          "blockHash": "0xdd1bfb209566efa88f5e06c261489b603763d087557a957c30126279fb325e8f",
          "blockNumber": "0x586b1c",
          "transactionHash": "0x8d6fd3f5b78b549f7aac08bf079a9fef305290fcbf99902d73b3e130fd268c99",
          "transactionIndex": "0x55",
          "logIndex": "0xcc",
          "removed": false
        }
      ],
      "logsBloom": "0x00000000000000000000000000000000000000000000000000400000000000000000400000000010000000000000000000000000000000000000000000000000000000000000000000000000000000000000000000000000000000000000000000800000000000000000200400000000000000008000000000000000000000000000000000000000000000000200020000000000000010000008000000000000000000000000000000000000000000000000000000000000000000040000000000000000000000400000000000008010000000040000000000000000000000000000010000000000005000000000000000000100200000000000000000000000",
      "type": "0x2",
      "transactionHash": "0x8d6fd3f5b78b549f7aac08bf079a9fef305290fcbf99902d73b3e130fd268c99",
      "transactionIndex": "0x55",
      "blockHash": "0xdd1bfb209566efa88f5e06c261489b603763d087557a957c30126279fb325e8f",
      "blockNumber": "0x586b1c",
      "gasUsed": "0x18488",
      "effectiveGasPrice": "0x231630552",
      "from": "0x699bceebd59a5b52bb586c737cd7ba636f3fe602",
      "to": "0x23dd1aa37b5c81d64586c021330d61d3ad55aafb",
      "contractAddress": null
    }
  ],
  "libraries": [],
  "pending": [],
  "returns": {},
  "timestamp": 1714295297,
  "chain": 11155111,
  "commit": "9546700"
}