{
  "transactions": [
    {
      "hash": "0x3d266209a6f43e9b71dbb4cf98c800c3d0a1ac6366490da7e393586521549663",
      "transactionType": "CALL",
      "contractName": null,
      "contractAddress": "0x371862509e523e8fb89eb8911254c14c882fca96",
      "function": "postMessage((address,uint256,uint256)[])",
      "arguments": [
        "[(0x699BceEbD59a5b52bB586C737cD7ba636f3Fe602, 80002, 200000000000000000)]"
      ],
      "transaction": {
        "from": "0x699bceebd59a5b52bb586c737cd7ba636f3fe602",
        "to": "0x371862509e523e8fb89eb8911254c14c882fca96",
        "gas": "0x217c8",
        "value": "0x2c68af0bb140000",
        "input": "0x42cbee8d00000000000000000000000000000000000000000000000000000000000000200000000000000000000000000000000000000000000000000000000000000001000000000000000000000000699bceebd59a5b52bb586c737cd7ba636f3fe602000000000000000000000000000000000000000000000000000000000001388200000000000000000000000000000000000000000000000002c68af0bb140000",
        "nonce": "0x129",
        "chainId": "0xaa36a7",
        "accessList": null,
        "type": null
      },
      "additionalContracts": [],
      "isFixedGasLimit": false
    }
  ],
  "receipts": [
    {
      "status": "0x1",
      "cumulativeGasUsed": "0x52fff6",
      "logs": [
        {
          "address": "0x371862509e523e8fb89eb8911254c14c882fca96",
          "topics": [
            "0x9853b992610853aa2f058d95d0a4868ffcd37470b93a5e6634619467e0d4228c",
            "0x130a7274178071d582f1291732841a815e03f13d437f347bff29a7b9f5546785",
            "0x000000000000000000000000699bceebd59a5b52bb586c737cd7ba636f3fe602",
            "0x00000000000000000000000000000000000000000000000002c68af0bb140000"
          ],
          "data": "0x00000000000000000000000000000000000000000000000000000000662bd088000000000000000000000000699bceebd59a5b52bb586c737cd7ba636f3fe60200000000000000000000000000000000000000000000000000000000000138820000000000000000000000000000000000000000000000a2a15d09519be000000000000000000000000000000000000000000000000000000de0b6b3a7640000",
          "blockHash": "0x5e4d657762b64813e8d9102b199ea1e2a326f04b3a547a32fd765cf479f2731a",
          "blockNumber": "0x583c6a",
          "transactionHash": "0x3d266209a6f43e9b71dbb4cf98c800c3d0a1ac6366490da7e393586521549663",
          "transactionIndex": "0x28",
          "logIndex": "0x3b",
          "removed": false
        }
      ],
      "logsBloom": "0x00000000000000000000000000000000000000000000000000400000000000000000000000000000000000000000000000020000000000000000000000020000000000000000000000004001000000000000000000000000000000000000000000800004000002000000000000000000000000008000000000000000000000000000000000000000000000000000000000000000000000000000000000040000000000000000000000000000000000000000000000000000000000000000000000000008000000000000000000008000001000000000000000000000000000000000000000000000001000000000000000000100000000000000000000000000",
      "type": "0x2",
      "transactionHash": "0x3d266209a6f43e9b71dbb4cf98c800c3d0a1ac6366490da7e393586521549663",
      "transactionIndex": "0x28",
      "blockHash": "0x5e4d657762b64813e8d9102b199ea1e2a326f04b3a547a32fd765cf479f2731a",
      "blockNumber": "0x583c6a",
      "gasUsed": "0x16e59",
      "effectiveGasPrice": "0x8454c032",
      "from": "0x699bceebd59a5b52bb586c737cd7ba636f3fe602",
      "to": "0x371862509e523e8fb89eb8911254c14c882fca96",
      "contractAddress": null
    }
  ],
  "libraries": [],
  "pending": [],
  "returns": {},
  "timestamp": 1714147469,
  "chain": 11155111,
  "commit": "d8ddccd"
}