{
  "transactions": [
    {
      "hash": "0x2aca2a6645639b12bc2b09c50ddae898874302fb45f283d9a8a335936655a2b8",
      "transactionType": "CALL",
      "contractName": null,
      "contractAddress": "0x23dd1aa37b5c81d64586c021330d61d3ad55aafb",
      "function": "postMessage((address,uint256,uint256)[])",
      "arguments": [
        "[(0x699BceEbD59a5b52bB586C737cD7ba636f3Fe602, 80002, 11100000000000000), (0x699BceEbD59a5b52bB586C737cD7ba636f3Fe602, 80002, 11200000000000000), (0x699BceEbD59a5b52bB586C737cD7ba636f3Fe602, 80002, 11300000000000000), (0x699BceEbD59a5b52bB586C737cD7ba636f3Fe602, 80002, 11400000000000000), (0x699BceEbD59a5b52bB586C737cD7ba636f3Fe602, 80002, 11500000000000000), (0x699BceEbD59a5b52bB586C737cD7ba636f3Fe602, 80002, 11600000000000000), (0x699BceEbD59a5b52bB586C737cD7ba636f3Fe602, 80002, 11700000000000000), (0x699BceEbD59a5b52bB586C737cD7ba636f3Fe602, 80002, 11800000000000000), (0x699BceEbD59a5b52bB586C737cD7ba636f3Fe602, 80002, 11900000000000000), (0x699BceEbD59a5b52bB586C737cD7ba636f3Fe602, 80002, 12000000000000000)]"
      ],
      "transaction": {
        "from": "0x699bceebd59a5b52bb586c737cd7ba636f3fe602",
        "to": "0x23dd1aa37b5c81d64586c021330d61d3ad55aafb",
        "gas": "0x30e0b",
        "value": "0x214e8348c4f0000",
        "input": "0x42cbee8d0000000000000000000000000000000000000000000000000000000000000020000000000000000000000000000000000000000000000000000000000000000a000000000000000000000000699bceebd59a5b52bb586c737cd7ba636f3fe602000000000000000000000000000000000000000000000000000000000001388200000000000000000000000000000000000000000000000000276f642501c000000000000000000000000000699bceebd59a5b52bb586c737cd7ba636f3fe60200000000000000000000000000000000000000000000000000000000000138820000000000000000000000000000000000000000000000000027ca57357c0000000000000000000000000000699bceebd59a5b52bb586c737cd7ba636f3fe60200000000000000000000000000000000000000000000000000000000000138820000000000000000000000000000000000000000000000000028254a45f64000000000000000000000000000699bceebd59a5b52bb586c737cd7ba636f3fe60200000000000000000000000000000000000000000000000000000000000138820000000000000000000000000000000000000000000000000028803d56708000000000000000000000000000699bceebd59a5b52bb586c737cd7ba636f3fe60200000000000000000000000000000000000000000000000000000000000138820000000000000000000000000000000000000000000000000028db3066eac000000000000000000000000000699bceebd59a5b52bb586c737cd7ba636f3fe60200000000000000000000000000000000000000000000000000000000000138820000000000000000000000000000000000000000000000000029362377650000000000000000000000000000699bceebd59a5b52bb586c737cd7ba636f3fe60200000000000000000000000000000000000000000000000000000000000138820000000000000000000000000000000000000000000000000029911687df4000000000000000000000000000699bceebd59a5b52bb586c737cd7ba636f3fe60200000000000000000000000000000000000000000000000000000000000138820000000000000000000000000000000000000000000000000029ec0998598000000000000000000000000000699bceebd59a5b52bb586c737cd7ba636f3fe6020000000000000000000000000000000000000000000000000000000000013882000000000000000000000000000000000000000000000000002a46fca8d3c000000000000000000000000000699bceebd59a5b52bb586c737cd7ba636f3fe6020000000000000000000000000000000000000000000000000000000000013882000000000000000000000000000000000000000000000000002aa1efb94e0000",
        "nonce": "0x191",
        "chainId": "0xaa36a7",
        "accessList": null,
        "type": null
      },
      "additionalContracts": [],
      "isFixedGasLimit": false
    }
  ],
  "receipts": [
    {
      "status": "0x1",
      "cumulativeGasUsed": "0x1719fcf",
      "logs": [
        {
          "address": "0x23dd1aa37b5c81d64586c021330d61d3ad55aafb",
          "topics": [
            "0x9853b992610853aa2f058d95d0a4868ffcd37470b93a5e6634619467e0d4228c",
            "0xd19acd0580d8abf2aa8fa7ed7efdc7398a70814f7bdaf2ff7ca9a5484f2b4998",
            "0x000000000000000000000000699bceebd59a5b52bb586c737cd7ba636f3fe602",
            "0x00000000000000000000000000000000000000000000000000276f642501c000"
          ],
          "data": "0x0000000000000000000000000000000000000000000000000000000066306954000000000000000000000000699bceebd59a5b52bb586c737cd7ba636f3fe60200000000000000000000000000000000000000000000000000000000000138820000000000000000000000000000000000000000000000a2a15d09519be000000000000000000000000000000000000000000000000000000de0b6b3a7640000",
          "blockHash": "0x6bd44e2043846adf84c4b030ba10d7e4a7ffc68219d9ca954bc06a9f77c2bd45",
          "blockNumber": "0x58995f",
          "transactionHash": "0x2aca2a6645639b12bc2b09c50ddae898874302fb45f283d9a8a335936655a2b8",
          "transactionIndex": "0xac",
          "logIndex": "0x203",
          "removed": false
        },
        {
          "address": "0x23dd1aa37b5c81d64586c021330d61d3ad55aafb",
          "topics": [
            "0x9853b992610853aa2f058d95d0a4868ffcd37470b93a5e6634619467e0d4228c",
            "0x3ae4eab66fb49bdebd197ca79101220a9d316ad219a173439ecfad3243d3b895",
            "0x000000000000000000000000699bceebd59a5b52bb586c737cd7ba636f3fe602",
            "0x0000000000000000000000000000000000000000000000000027ca57357c0000"
          ],
          "data": "0x0000000000000000000000000000000000000000000000000000000066306954000000000000000000000000699bceebd59a5b52bb586c737cd7ba636f3fe60200000000000000000000000000000000000000000000000000000000000138820000000000000000000000000000000000000000000000a2a15d09519be000000000000000000000000000000000000000000000000000000de0b6b3a7640000",
          "blockHash": "0x6bd44e2043846adf84c4b030ba10d7e4a7ffc68219d9ca954bc06a9f77c2bd45",
          "blockNumber": "0x58995f",
          "transactionHash": "0x2aca2a6645639b12bc2b09c50ddae898874302fb45f283d9a8a335936655a2b8",
          "transactionIndex": "0xac",
          "logIndex": "0x204",
          "removed": false
        },
        {
          "address": "0x23dd1aa37b5c81d64586c021330d61d3ad55aafb",
          "topics": [
            "0x9853b992610853aa2f058d95d0a4868ffcd37470b93a5e6634619467e0d4228c",
            "0x305acc098d7691e787e685f499bf62c384f6c27f9a82698ad19b41118333518b",
            "0x000000000000000000000000699bceebd59a5b52bb586c737cd7ba636f3fe602",
            "0x0000000000000000000000000000000000000000000000000028254a45f64000"
          ],
          "data": "0x0000000000000000000000000000000000000000000000000000000066306954000000000000000000000000699bceebd59a5b52bb586c737cd7ba636f3fe60200000000000000000000000000000000000000000000000000000000000138820000000000000000000000000000000000000000000000a2a15d09519be000000000000000000000000000000000000000000000000000000de0b6b3a7640000",
          "blockHash": "0x6bd44e2043846adf84c4b030ba10d7e4a7ffc68219d9ca954bc06a9f77c2bd45",
          "blockNumber": "0x58995f",
          "transactionHash": "0x2aca2a6645639b12bc2b09c50ddae898874302fb45f283d9a8a335936655a2b8",
          "transactionIndex": "0xac",
          "logIndex": "0x205",
          "removed": false
        },
        {
          "address": "0x23dd1aa37b5c81d64586c021330d61d3ad55aafb",
          "topics": [
            "0x9853b992610853aa2f058d95d0a4868ffcd37470b93a5e6634619467e0d4228c",
            "0xcf5a9a367cf4bb3da2780e0884757004ce75dc33783015a8959b6f5bf3f68d2b",
            "0x000000000000000000000000699bceebd59a5b52bb586c737cd7ba636f3fe602",
            "0x0000000000000000000000000000000000000000000000000028803d56708000"
          ],
          "data": "0x0000000000000000000000000000000000000000000000000000000066306954000000000000000000000000699bceebd59a5b52bb586c737cd7ba636f3fe60200000000000000000000000000000000000000000000000000000000000138820000000000000000000000000000000000000000000000a2a15d09519be000000000000000000000000000000000000000000000000000000de0b6b3a7640000",
          "blockHash": "0x6bd44e2043846adf84c4b030ba10d7e4a7ffc68219d9ca954bc06a9f77c2bd45",
          "blockNumber": "0x58995f",
          "transactionHash": "0x2aca2a6645639b12bc2b09c50ddae898874302fb45f283d9a8a335936655a2b8",
          "transactionIndex": "0xac",
          "logIndex": "0x206",
          "removed": false
        },
        {
          "address": "0x23dd1aa37b5c81d64586c021330d61d3ad55aafb",
          "topics": [
            "0x9853b992610853aa2f058d95d0a4868ffcd37470b93a5e6634619467e0d4228c",
            "0x019f8651767cf5eafafc9649c479a711c4e59787cffad661643c7f0454bc7eef",
            "0x000000000000000000000000699bceebd59a5b52bb586c737cd7ba636f3fe602",
            "0x0000000000000000000000000000000000000000000000000028db3066eac000"
          ],
          "data": "0x0000000000000000000000000000000000000000000000000000000066306954000000000000000000000000699bceebd59a5b52bb586c737cd7ba636f3fe60200000000000000000000000000000000000000000000000000000000000138820000000000000000000000000000000000000000000000a2a15d09519be000000000000000000000000000000000000000000000000000000de0b6b3a7640000",
          "blockHash": "0x6bd44e2043846adf84c4b030ba10d7e4a7ffc68219d9ca954bc06a9f77c2bd45",
          "blockNumber": "0x58995f",
          "transactionHash": "0x2aca2a6645639b12bc2b09c50ddae898874302fb45f283d9a8a335936655a2b8",
          "transactionIndex": "0xac",
          "logIndex": "0x207",
          "removed": false
        },
        {
          "address": "0x23dd1aa37b5c81d64586c021330d61d3ad55aafb",
          "topics": [
            "0x9853b992610853aa2f058d95d0a4868ffcd37470b93a5e6634619467e0d4228c",
            "0xd13a9aa64679d35273de488cf149edb7a92c7485795669af3346dd5a42968e20",
            "0x000000000000000000000000699bceebd59a5b52bb586c737cd7ba636f3fe602",
            "0x0000000000000000000000000000000000000000000000000029362377650000"
          ],
          "data": "0x0000000000000000000000000000000000000000000000000000000066306954000000000000000000000000699bceebd59a5b52bb586c737cd7ba636f3fe60200000000000000000000000000000000000000000000000000000000000138820000000000000000000000000000000000000000000000a2a15d09519be000000000000000000000000000000000000000000000000000000de0b6b3a7640000",
          "blockHash": "0x6bd44e2043846adf84c4b030ba10d7e4a7ffc68219d9ca954bc06a9f77c2bd45",
          "blockNumber": "0x58995f",
          "transactionHash": "0x2aca2a6645639b12bc2b09c50ddae898874302fb45f283d9a8a335936655a2b8",
          "transactionIndex": "0xac",
          "logIndex": "0x208",
          "removed": false
        },
        {
          "address": "0x23dd1aa37b5c81d64586c021330d61d3ad55aafb",
          "topics": [
            "0x9853b992610853aa2f058d95d0a4868ffcd37470b93a5e6634619467e0d4228c",
            "0xcc1b9b7c64f2ab00ea716a3a2d80f4eff78f4333c2625d1a28d6a56f96bb37f8",
            "0x000000000000000000000000699bceebd59a5b52bb586c737cd7ba636f3fe602",
            "0x0000000000000000000000000000000000000000000000000029911687df4000"
          ],
          "data": "0x0000000000000000000000000000000000000000000000000000000066306954000000000000000000000000699bceebd59a5b52bb586c737cd7ba636f3fe60200000000000000000000000000000000000000000000000000000000000138820000000000000000000000000000000000000000000000a2a15d09519be000000000000000000000000000000000000000000000000000000de0b6b3a7640000",
          "blockHash": "0x6bd44e2043846adf84c4b030ba10d7e4a7ffc68219d9ca954bc06a9f77c2bd45",
          "blockNumber": "0x58995f",
          "transactionHash": "0x2aca2a6645639b12bc2b09c50ddae898874302fb45f283d9a8a335936655a2b8",
          "transactionIndex": "0xac",
          "logIndex": "0x209",
          "removed": false
        },
        {
          "address": "0x23dd1aa37b5c81d64586c021330d61d3ad55aafb",
          "topics": [
            "0x9853b992610853aa2f058d95d0a4868ffcd37470b93a5e6634619467e0d4228c",
            "0x78e23d37c0eadff2a4eade51ff7bcc415bbdd774664fa392ee19fd864ad2c504",
            "0x000000000000000000000000699bceebd59a5b52bb586c737cd7ba636f3fe602",
            "0x0000000000000000000000000000000000000000000000000029ec0998598000"
          ],
          "data": "0x0000000000000000000000000000000000000000000000000000000066306954000000000000000000000000699bceebd59a5b52bb586c737cd7ba636f3fe60200000000000000000000000000000000000000000000000000000000000138820000000000000000000000000000000000000000000000a2a15d09519be000000000000000000000000000000000000000000000000000000de0b6b3a7640000",
          "blockHash": "0x6bd44e2043846adf84c4b030ba10d7e4a7ffc68219d9ca954bc06a9f77c2bd45",
          "blockNumber": "0x58995f",
          "transactionHash": "0x2aca2a6645639b12bc2b09c50ddae898874302fb45f283d9a8a335936655a2b8",
          "transactionIndex": "0xac",
          "logIndex": "0x20a",
          "removed": false
        },
        {
          "address": "0x23dd1aa37b5c81d64586c021330d61d3ad55aafb",
          "topics": [
            "0x9853b992610853aa2f058d95d0a4868ffcd37470b93a5e6634619467e0d4228c",
            "0x2fd99f711224a55feddd097d14683b0a7814dd34e2bab0d776ff74d4f2422458",
            "0x000000000000000000000000699bceebd59a5b52bb586c737cd7ba636f3fe602",
            "0x000000000000000000000000000000000000000000000000002a46fca8d3c000"
          ],
          "data": "0x0000000000000000000000000000000000000000000000000000000066306954000000000000000000000000699bceebd59a5b52bb586c737cd7ba636f3fe60200000000000000000000000000000000000000000000000000000000000138820000000000000000000000000000000000000000000000a2a15d09519be000000000000000000000000000000000000000000000000000000de0b6b3a7640000",
          "blockHash": "0x6bd44e2043846adf84c4b030ba10d7e4a7ffc68219d9ca954bc06a9f77c2bd45",
          "blockNumber": "0x58995f",
          "transactionHash": "0x2aca2a6645639b12bc2b09c50ddae898874302fb45f283d9a8a335936655a2b8",
          "transactionIndex": "0xac",
          "logIndex": "0x20b",
          "removed": false
        },
        {
          "address": "0x23dd1aa37b5c81d64586c021330d61d3ad55aafb",
          "topics": [
            "0x9853b992610853aa2f058d95d0a4868ffcd37470b93a5e6634619467e0d4228c",
            "0xcbb7e1560c693e07503c217e233b7ce7e64fc3e8e19b72206cf0b9d55f36b6dc",
            "0x000000000000000000000000699bceebd59a5b52bb586c737cd7ba636f3fe602",
            "0x000000000000000000000000000000000000000000000000002aa1efb94e0000"
          ],
          "data": "0x0000000000000000000000000000000000000000000000000000000066306954000000000000000000000000699bceebd59a5b52bb586c737cd7ba636f3fe60200000000000000000000000000000000000000000000000000000000000138820000000000000000000000000000000000000000000000a2a15d09519be000000000000000000000000000000000000000000000000000000de0b6b3a7640000",
          "blockHash": "0x6bd44e2043846adf84c4b030ba10d7e4a7ffc68219d9ca954bc06a9f77c2bd45",
          "blockNumber": "0x58995f",
          "transactionHash": "0x2aca2a6645639b12bc2b09c50ddae898874302fb45f283d9a8a335936655a2b8",
          "transactionIndex": "0xac",
          "logIndex": "0x20c",
          "removed": false
        }
      ],
      "logsBloom": "0x0000000000000000000000000000000220000002000004000040004000002000002040001000001080004080000002100000000000000000000000000840800001000000000800000000000000400002000000000020020000010000000000010080000010000000000000040000000000000000c00000000000000000000c004001000000200000000002020250020000000000000000000000000000080000000000000000200004018000000000000000000000000004400000040000008000000000000000040000004000008000000000000020000000000080000000000000030200000000005001100000000000000100200000000410010000000000",
      "type": "0x2",
      "transactionHash": "0x2aca2a6645639b12bc2b09c50ddae898874302fb45f283d9a8a335936655a2b8",
      "transactionIndex": "0xac",
      "blockHash": "0x6bd44e2043846adf84c4b030ba10d7e4a7ffc68219d9ca954bc06a9f77c2bd45",
      "blockNumber": "0x58995f",
      "gasUsed": "0x23630",
      "effectiveGasPrice": "0xda39cd95",
      "from": "0x699bceebd59a5b52bb586c737cd7ba636f3fe602",
      "to": "0x23dd1aa37b5c81d64586c021330d61d3ad55aafb",
      "contractAddress": null
    }
  ],
  "libraries": [],
  "pending": [],
  "returns": {},
  "timestamp": 1714448731,
  "chain": 11155111,
  "commit": "9546700"
}