{
  "transactions": [
    {
      "hash": "0xbbbd664b992ad29859437b5e19b97290cbf763fd74460b491ba8a5e97f4d4ffd",
      "transactionType": "CALL",
      "contractName": null,
      "contractAddress": "0x371862509e523e8fb89eb8911254c14c882fca96",
      "function": "postMessage((address,uint256,uint256)[])",
      "arguments": [
        "[(0x699BceEbD59a5b52bB586C737cD7ba636f3Fe602, 80002, 50000000000000000)]"
      ],
      "transaction": {
        "from": "0x699bceebd59a5b52bb586c737cd7ba636f3fe602",
        "to": "0x371862509e523e8fb89eb8911254c14c882fca96",
        "gas": "0x1f9f2",
        "value": "0xb1a2bc2ec50000",
        "input": "0x42cbee8d00000000000000000000000000000000000000000000000000000000000000200000000000000000000000000000000000000000000000000000000000000001000000000000000000000000699bceebd59a5b52bb586c737cd7ba636f3fe602000000000000000000000000000000000000000000000000000000000001388200000000000000000000000000000000000000000000000000b1a2bc2ec50000",
        "nonce": "0x132",
        "chainId": "0xaa36a7",
        "accessList": null,
        "type": null
      },
      "additionalContracts": [],
      "isFixedGasLimit": false
    }
  ],
  "receipts": [
    {
      "status": "0x1",
      "cumulativeGasUsed": "0xf0bbb8",
      "logs": [
        {
          "address": "0x371862509e523e8fb89eb8911254c14c882fca96",
          "topics": [
            "0x9853b992610853aa2f058d95d0a4868ffcd37470b93a5e6634619467e0d4228c",
            "0x84386f7aa09e97ef12441d5ac3ff9f597aa0b20d60673b423a96c53457054e34",
            "0x000000000000000000000000699bceebd59a5b52bb586c737cd7ba636f3fe602",
            "0x00000000000000000000000000000000000000000000000000b1a2bc2ec50000"
          ],
          "data": "0x00000000000000000000000000000000000000000000000000000000662caa20000000000000000000000000699bceebd59a5b52bb586c737cd7ba636f3fe60200000000000000000000000000000000000000000000000000000000000138820000000000000000000000000000000000000000000000a2a15d09519be000000000000000000000000000000000000000000000000000000de0b6b3a7640000",
          "blockHash": "0x179ef3f2cd2e728f55f21816579eb00d12be198cabe087c93e7be3e8bc0a4878",
          "blockNumber": "0x584df2",
          "transactionHash": "0xbbbd664b992ad29859437b5e19b97290cbf763fd74460b491ba8a5e97f4d4ffd",
          "transactionIndex": "0x84",
          "logIndex": "0x173",
          "removed": false
        }
      ],
      "logsBloom": "0x00000000000000000000000000000000000000000000000000400000000000000000000000000000000000001000000000000000000000000000000000020000000000000000000000000000000000000000000000000000004000000000000000800104000002000000000000000000000000008000000000000000010000000000000000000000000000000000000000000000000000000000000000000000000000000000000000002000000000000000000000000000000000000000000000000000000000000000000000008000000000000000400000000000000000000000000000000000001000000000000000000100000000000000000000000000",
      "type": "0x2",
      "transactionHash": "0xbbbd664b992ad29859437b5e19b97290cbf763fd74460b491ba8a5e97f4d4ffd",
      "transactionIndex": "0x84",
      "blockHash": "0x179ef3f2cd2e728f55f21816579eb00d12be198cabe087c93e7be3e8bc0a4878",
      "blockNumber": "0x584df2",
      "gasUsed": "0x16e4d",
      "effectiveGasPrice": "0x1fb9c061e",
      "from": "0x699bceebd59a5b52bb586c737cd7ba636f3fe602",
      "to": "0x371862509e523e8fb89eb8911254c14c882fca96",
      "contractAddress": null
    }
  ],
  "libraries": [],
  "pending": [],
  "returns": {},
  "timestamp": 1714203170,
  "chain": 11155111,
  "commit": "d8ddccd"
}