{
  "transactions": [
    {
      "hash": "0x437b953c534497fcf38bdea7ed80f816112846361cd2e0d59c9d2cc7bd57db48",
      "transactionType": "CALL",
      "contractName": null,
      "contractAddress": "0x23dd1aa37b5c81d64586c021330d61d3ad55aafb",
      "function": "postMessage((address,uint256,uint256)[])",
      "arguments": [
        "[(0x699BceEbD59a5b52bB586C737cD7ba636f3Fe602, 80002, 11100000000000000), (0x699BceEbD59a5b52bB586C737cD7ba636f3Fe602, 80002, 11200000000000000), (0x699BceEbD59a5b52bB586C737cD7ba636f3Fe602, 80002, 11300000000000000), (0x699BceEbD59a5b52bB586C737cD7ba636f3Fe602, 80002, 11400000000000000), (0x699BceEbD59a5b52bB586C737cD7ba636f3Fe602, 80002, 11500000000000000)]"
      ],
      "transaction": {
        "from": "0x699bceebd59a5b52bb586c737cd7ba636f3fe602",
        "to": "0x23dd1aa37b5c81d64586c021330d61d3ad55aafb",
        "gas": "0x274b6",
        "value": "0xd529ae9e860000",
        "input": "0x42cbee8d00000000000000000000000000000000000000000000000000000000000000200000000000000000000000000000000000000000000000000000000000000005000000000000000000000000699bceebd59a5b52bb586c737cd7ba636f3fe602000000000000000000000000000000000000000000000000000000000001388200000000000000000000000000000000000000000000000000276f642501c000000000000000000000000000699bceebd59a5b52bb586c737cd7ba636f3fe60200000000000000000000000000000000000000000000000000000000000138820000000000000000000000000000000000000000000000000027ca57357c0000000000000000000000000000699bceebd59a5b52bb586c737cd7ba636f3fe60200000000000000000000000000000000000000000000000000000000000138820000000000000000000000000000000000000000000000000028254a45f64000000000000000000000000000699bceebd59a5b52bb586c737cd7ba636f3fe60200000000000000000000000000000000000000000000000000000000000138820000000000000000000000000000000000000000000000000028803d56708000000000000000000000000000699bceebd59a5b52bb586c737cd7ba636f3fe60200000000000000000000000000000000000000000000000000000000000138820000000000000000000000000000000000000000000000000028db3066eac000",
        "nonce": "0x160",
        "chainId": "0xaa36a7",
        "accessList": null,
        "type": null
      },
      "additionalContracts": [],
      "isFixedGasLimit": false
    }
  ],
  "receipts": [
    {
      "status": "0x1",
      "cumulativeGasUsed": "0xc4c37b",
      "logs": [
        {
          "address": "0x23dd1aa37b5c81d64586c021330d61d3ad55aafb",
          "topics": [
            "0x9853b992610853aa2f058d95d0a4868ffcd37470b93a5e6634619467e0d4228c",
            "0x4cbf43762b8958c42834f4f3a43b4bc60208830457f7612eba7dcd9f57a2684d",
            "0x000000000000000000000000699bceebd59a5b52bb586c737cd7ba636f3fe602",
            "0x00000000000000000000000000000000000000000000000000276f642501c000"
          ],
          "data": "0x00000000000000000000000000000000000000000000000000000000662e689c000000000000000000000000699bceebd59a5b52bb586c737cd7ba636f3fe60200000000000000000000000000000000000000000000000000000000000138820000000000000000000000000000000000000000000000a2a15d09519be000000000000000000000000000000000000000000000000000000de0b6b3a7640000",
          "blockHash": "0x6df2d4d6108a54765b9bbe6d440b84f6d8f8f1ba2b91d19f57260b62da368303",
          "blockNumber": "0x587225",
          "transactionHash": "0x437b953c534497fcf38bdea7ed80f816112846361cd2e0d59c9d2cc7bd57db48",
          "transactionIndex": "0x73",
          "logIndex": "0xdb",
          "removed": false
        },
        {
          "address": "0x23dd1aa37b5c81d64586c021330d61d3ad55aafb",
          "topics": [
            "0x9853b992610853aa2f058d95d0a4868ffcd37470b93a5e6634619467e0d4228c",
            "0xe858733ad09f454fc451988320be11ae86d6ea6b2fc223acacc1d65ed2b159a6",
            "0x000000000000000000000000699bceebd59a5b52bb586c737cd7ba636f3fe602",
            "0x0000000000000000000000000000000000000000000000000027ca57357c0000"
          ],
          "data": "0x00000000000000000000000000000000000000000000000000000000662e689c000000000000000000000000699bceebd59a5b52bb586c737cd7ba636f3fe60200000000000000000000000000000000000000000000000000000000000138820000000000000000000000000000000000000000000000a2a15d09519be000000000000000000000000000000000000000000000000000000de0b6b3a7640000",
          "blockHash": "0x6df2d4d6108a54765b9bbe6d440b84f6d8f8f1ba2b91d19f57260b62da368303",
          "blockNumber": "0x587225",
          "transactionHash": "0x437b953c534497fcf38bdea7ed80f816112846361cd2e0d59c9d2cc7bd57db48",
          "transactionIndex": "0x73",
          "logIndex": "0xdc",
          "removed": false
        },
        {
          "address": "0x23dd1aa37b5c81d64586c021330d61d3ad55aafb",
          "topics": [
            "0x9853b992610853aa2f058d95d0a4868ffcd37470b93a5e6634619467e0d4228c",
            "0x6df1313fb676c913f81e6b3f796db97b6718e2fb8ce5edaa50552337fbd5b2c8",
            "0x000000000000000000000000699bceebd59a5b52bb586c737cd7ba636f3fe602",
            "0x0000000000000000000000000000000000000000000000000028254a45f64000"
          ],
          "data": "0x00000000000000000000000000000000000000000000000000000000662e689c000000000000000000000000699bceebd59a5b52bb586c737cd7ba636f3fe60200000000000000000000000000000000000000000000000000000000000138820000000000000000000000000000000000000000000000a2a15d09519be000000000000000000000000000000000000000000000000000000de0b6b3a7640000",
          "blockHash": "0x6df2d4d6108a54765b9bbe6d440b84f6d8f8f1ba2b91d19f57260b62da368303",
          "blockNumber": "0x587225",
          "transactionHash": "0x437b953c534497fcf38bdea7ed80f816112846361cd2e0d59c9d2cc7bd57db48",
          "transactionIndex": "0x73",
          "logIndex": "0xdd",
          "removed": false
        },
        {
          "address": "0x23dd1aa37b5c81d64586c021330d61d3ad55aafb",
          "topics": [
            "0x9853b992610853aa2f058d95d0a4868ffcd37470b93a5e6634619467e0d4228c",
            "0x15c8d6c570de39d0f3b19bcda61b0d77f31a5b6c2b25e23c1d44e91f85734613",
            "0x000000000000000000000000699bceebd59a5b52bb586c737cd7ba636f3fe602",
            "0x0000000000000000000000000000000000000000000000000028803d56708000"
          ],
          "data": "0x00000000000000000000000000000000000000000000000000000000662e689c000000000000000000000000699bceebd59a5b52bb586c737cd7ba636f3fe60200000000000000000000000000000000000000000000000000000000000138820000000000000000000000000000000000000000000000a2a15d09519be000000000000000000000000000000000000000000000000000000de0b6b3a7640000",
          "blockHash": "0x6df2d4d6108a54765b9bbe6d440b84f6d8f8f1ba2b91d19f57260b62da368303",
          "blockNumber": "0x587225",
          "transactionHash": "0x437b953c534497fcf38bdea7ed80f816112846361cd2e0d59c9d2cc7bd57db48",
          "transactionIndex": "0x73",
          "logIndex": "0xde",
          "removed": false
        },
        {
          "address": "0x23dd1aa37b5c81d64586c021330d61d3ad55aafb",
          "topics": [
            "0x9853b992610853aa2f058d95d0a4868ffcd37470b93a5e6634619467e0d4228c",
            "0x18f9c8afa9fa96a12a70ee606c8409cd7e4cdd983315ca10787b116cf072ae46",
            "0x000000000000000000000000699bceebd59a5b52bb586c737cd7ba636f3fe602",
            "0x0000000000000000000000000000000000000000000000000028db3066eac000"
          ],
          "data": "0x00000000000000000000000000000000000000000000000000000000662e689c000000000000000000000000699bceebd59a5b52bb586c737cd7ba636f3fe60200000000000000000000000000000000000000000000000000000000000138820000000000000000000000000000000000000000000000a2a15d09519be000000000000000000000000000000000000000000000000000000de0b6b3a7640000",
          "blockHash": "0x6df2d4d6108a54765b9bbe6d440b84f6d8f8f1ba2b91d19f57260b62da368303",
          "blockNumber": "0x587225",
          "transactionHash": "0x437b953c534497fcf38bdea7ed80f816112846361cd2e0d59c9d2cc7bd57db48",
          "transactionIndex": "0x73",
          "logIndex": "0xdf",
          "removed": false
        }
      ],
      "logsBloom": "0x08000000000000000000000000000000200000000000000000400000000000000000400000000010000000800000001000000000000000000000400000000000010200000000000000000000000000000000000200000000000000000000000000800000001000100000000400000000000180408000000400000000100000000000000000000000000000000210020000000000000000000000000000000000000000000000000004000000000000000000000000000000000000040000000100000000000000000000004090008000000000010000000000000000000000000000010200000000005001000000000000000100200000000000000000000000",
      "type": "0x2",
      "transactionHash": "0x437b953c534497fcf38bdea7ed80f816112846361cd2e0d59c9d2cc7bd57db48",
      "transactionIndex": "0x73",
      "blockHash": "0x6df2d4d6108a54765b9bbe6d440b84f6d8f8f1ba2b91d19f57260b62da368303",
      "blockNumber": "0x587225",
      "gasUsed": "0x1c72e",
      "effectiveGasPrice": "0xa759d2db",
      "from": "0x699bceebd59a5b52bb586c737cd7ba636f3fe602",
      "to": "0x23dd1aa37b5c81d64586c021330d61d3ad55aafb",
      "contractAddress": null
    }
  ],
  "libraries": [],
  "pending": [],
  "returns": {},
  "timestamp": 1714317472,
  "chain": 11155111,
  "commit": "9546700"
}