{
  "transactions": [
    {
      "hash": "0xd5554c626d40562274809add6579df6b9a57837e733c9ea86bec176aa5b82d52",
      "transactionType": "CALL",
      "contractName": null,
      "contractAddress": "0x371862509e523e8fb89eb8911254c14c882fca96",
      "function": "postMessage((address,uint256,uint256)[])",
      "arguments": [
        "[(0x699BceEbD59a5b52bB586C737cD7ba636f3Fe602, 80002, 100000000000000000)]"
      ],
      "transaction": {
        "from": "0x699bceebd59a5b52bb586c737cd7ba636f3fe602",
        "to": "0x371862509e523e8fb89eb8911254c14c882fca96",
        "gas": "0x217c8",
        "value": "0x16345785d8a0000",
        "input": "0x42cbee8d00000000000000000000000000000000000000000000000000000000000000200000000000000000000000000000000000000000000000000000000000000001000000000000000000000000699bceebd59a5b52bb586c737cd7ba636f3fe6020000000000000000000000000000000000000000000000000000000000013882000000000000000000000000000000000000000000000000016345785d8a0000",
        "nonce": "0x120",
        "chainId": "0xaa36a7",
        "accessList": null,
        "type": null
      },
      "additionalContracts": [],
      "isFixedGasLimit": false
    }
  ],
  "receipts": [
    {
      "status": "0x1",
      "cumulativeGasUsed": "0x80bf12",
      "logs": [
        {
          "address": "0x371862509e523e8fb89eb8911254c14c882fca96",
          "topics": [
            "0x9853b992610853aa2f058d95d0a4868ffcd37470b93a5e6634619467e0d4228c",
            "0x75f1c460e2c8f91ba6bb73f664367200ac5d0e3df6e7e7e6fda25763a1ccc208",
            "0x000000000000000000000000699bceebd59a5b52bb586c737cd7ba636f3fe602",
            "0x000000000000000000000000000000000000000000000000016345785d8a0000"
          ],
          "data": "0x00000000000000000000000000000000000000000000000000000000662bb8b8000000000000000000000000699bceebd59a5b52bb586c737cd7ba636f3fe60200000000000000000000000000000000000000000000000000000000000138820000000000000000000000000000000000000000000000a2a15d09519be000000000000000000000000000000000000000000000000000000de0b6b3a7640000",
          "blockHash": "0x66df1ed943598abb7625eef657d3a384ad240f87d7f456d36df68a34620e7be8",
          "blockNumber": "0x583a71",
          "transactionHash": "0xd5554c626d40562274809add6579df6b9a57837e733c9ea86bec176aa5b82d52",
          "transactionIndex": "0x3b",
          "logIndex": "0x69",
          "removed": false
        }
      ],
      "logsBloom": "0x00000000000000000000000000000000000000000000000000400000000000000000000000000000000000000000000000000000000000000000000000020000000000000000000000000000000000000000000002000000000000000000000000800004008002000000000000000000000000008000000000000000000000000000000000000000000000000000000000000000000000000000000000000000000000001000000000000000000000000000000000000000000000000000000000000000000100000000000000008000000000000000002000000000000000000000000000002000001000000000000000000100000000000000000000000000",
      "type": "0x2",
      "transactionHash": "0xd5554c626d40562274809add6579df6b9a57837e733c9ea86bec176aa5b82d52",
      "transactionIndex": "0x3b",
      "blockHash": "0x66df1ed943598abb7625eef657d3a384ad240f87d7f456d36df68a34620e7be8",
      "blockNumber": "0x583a71",
      "gasUsed": "0x16e59",
      "effectiveGasPrice": "0x59951715",
      "from": "0x699bceebd59a5b52bb586c737cd7ba636f3fe602",
      "to": "0x371862509e523e8fb89eb8911254c14c882fca96",
      "contractAddress": null
    }
  ],
  "libraries": [],
  "pending": [],
  "returns": {},
  "timestamp": 1714141374,
  "chain": 11155111,
  "commit": "d8ddccd"
}