{
  "transactions": [
    {
      "hash": "0x36a66953d3c7895aa275cd34266b2741678ab1558726e2785c25ad29cb42c5a1",
      "transactionType": "CALL",
      "contractName": null,
      "contractAddress": "0x23dd1aa37b5c81d64586c021330d61d3ad55aafb",
      "function": "postMessage((address,uint256,uint256)[])",
      "arguments": [
        "[(0x699BceEbD59a5b52bB586C737cD7ba636f3Fe602, 80002, 11100000000000000), (0x699BceEbD59a5b52bB586C737cD7ba636f3Fe602, 80002, 11200000000000000), (0x699BceEbD59a5b52bB586C737cD7ba636f3Fe602, 80002, 11300000000000000), (0x699BceEbD59a5b52bB586C737cD7ba636f3Fe602, 80002, 11400000000000000), (0x699BceEbD59a5b52bB586C737cD7ba636f3Fe602, 80002, 11500000000000000)]"
      ],
      "transaction": {
        "from": "0x699bceebd59a5b52bb586c737cd7ba636f3fe602",
        "to": "0x23dd1aa37b5c81d64586c021330d61d3ad55aafb",
        "gas": "0x274b6",
        "value": "0xd529ae9e860000",
        "input": "0x42cbee8d00000000000000000000000000000000000000000000000000000000000000200000000000000000000000000000000000000000000000000000000000000005000000000000000000000000699bceebd59a5b52bb586c737cd7ba636f3fe602000000000000000000000000000000000000000000000000000000000001388200000000000000000000000000000000000000000000000000276f642501c000000000000000000000000000699bceebd59a5b52bb586c737cd7ba636f3fe60200000000000000000000000000000000000000000000000000000000000138820000000000000000000000000000000000000000000000000027ca57357c0000000000000000000000000000699bceebd59a5b52bb586c737cd7ba636f3fe60200000000000000000000000000000000000000000000000000000000000138820000000000000000000000000000000000000000000000000028254a45f64000000000000000000000000000699bceebd59a5b52bb586c737cd7ba636f3fe60200000000000000000000000000000000000000000000000000000000000138820000000000000000000000000000000000000000000000000028803d56708000000000000000000000000000699bceebd59a5b52bb586c737cd7ba636f3fe60200000000000000000000000000000000000000000000000000000000000138820000000000000000000000000000000000000000000000000028db3066eac000",
        "nonce": "0x153",
        "chainId": "0xaa36a7",
        "accessList": null,
        "type": null
      },
      "additionalContracts": [],
      "isFixedGasLimit": false
    }
  ],
  "receipts": [
    {
      "status": "0x1",
      "cumulativeGasUsed": "0x761a21",
      "logs": [
        {
          "address": "0x23dd1aa37b5c81d64586c021330d61d3ad55aafb",
          "topics": [
            "0x9853b992610853aa2f058d95d0a4868ffcd37470b93a5e6634619467e0d4228c",
            "0x8057fa3ad72bde92d521620aaed345ef3cb1b4a34e5119564c621b1adfec875d",
            "0x000000000000000000000000699bceebd59a5b52bb586c737cd7ba636f3fe602",
            "0x00000000000000000000000000000000000000000000000000276f642501c000"
          ],
          "data": "0x00000000000000000000000000000000000000000000000000000000662e2e40000000000000000000000000699bceebd59a5b52bb586c737cd7ba636f3fe60200000000000000000000000000000000000000000000000000000000000138820000000000000000000000000000000000000000000000a2a15d09519be000000000000000000000000000000000000000000000000000000de0b6b3a7640000",
          "blockHash": "0x6b47b4250a6703a547b8d6dc4755487f5a5cdf48b23801b3ebc507add3e84115",
          "blockNumber": "0x586d6a",
          "transactionHash": "0x36a66953d3c7895aa275cd34266b2741678ab1558726e2785c25ad29cb42c5a1",
          "transactionIndex": "0x32",
          "logIndex": "0xc8",
          "removed": false
        },
        {
          "address": "0x23dd1aa37b5c81d64586c021330d61d3ad55aafb",
          "topics": [
            "0x9853b992610853aa2f058d95d0a4868ffcd37470b93a5e6634619467e0d4228c",
            "0xe203a0b8c4a6b071c4bf0ea4dfad5ac414d32ca3edef4ae469d646f7df7b9fb5",
            "0x000000000000000000000000699bceebd59a5b52bb586c737cd7ba636f3fe602",
            "0x0000000000000000000000000000000000000000000000000027ca57357c0000"
          ],
          "data": "0x00000000000000000000000000000000000000000000000000000000662e2e40000000000000000000000000699bceebd59a5b52bb586c737cd7ba636f3fe60200000000000000000000000000000000000000000000000000000000000138820000000000000000000000000000000000000000000000a2a15d09519be000000000000000000000000000000000000000000000000000000de0b6b3a7640000",
          "blockHash": "0x6b47b4250a6703a547b8d6dc4755487f5a5cdf48b23801b3ebc507add3e84115",
          "blockNumber": "0x586d6a",
          "transactionHash": "0x36a66953d3c7895aa275cd34266b2741678ab1558726e2785c25ad29cb42c5a1",
          "transactionIndex": "0x32",
          "logIndex": "0xc9",
          "removed": false
        },
        {
          "address": "0x23dd1aa37b5c81d64586c021330d61d3ad55aafb",
          "topics": [
            "0x9853b992610853aa2f058d95d0a4868ffcd37470b93a5e6634619467e0d4228c",
            "0xc32d395ca7ce6f72b214523f7b1da72d8a94db6c67dbf9c3e5a591372469120d",
            "0x000000000000000000000000699bceebd59a5b52bb586c737cd7ba636f3fe602",
            "0x0000000000000000000000000000000000000000000000000028254a45f64000"
          ],
          "data": "0x00000000000000000000000000000000000000000000000000000000662e2e40000000000000000000000000699bceebd59a5b52bb586c737cd7ba636f3fe60200000000000000000000000000000000000000000000000000000000000138820000000000000000000000000000000000000000000000a2a15d09519be000000000000000000000000000000000000000000000000000000de0b6b3a7640000",
          "blockHash": "0x6b47b4250a6703a547b8d6dc4755487f5a5cdf48b23801b3ebc507add3e84115",
          "blockNumber": "0x586d6a",
          "transactionHash": "0x36a66953d3c7895aa275cd34266b2741678ab1558726e2785c25ad29cb42c5a1",
          "transactionIndex": "0x32",
          "logIndex": "0xca",
          "removed": false
        },
        {
          "address": "0x23dd1aa37b5c81d64586c021330d61d3ad55aafb",
          "topics": [
            "0x9853b992610853aa2f058d95d0a4868ffcd37470b93a5e6634619467e0d4228c",
            "0x3e5b88b3d661ea6ce121254996533a55008d74ada37a177bae56629fc630c1c1",
            "0x000000000000000000000000699bceebd59a5b52bb586c737cd7ba636f3fe602",
            "0x0000000000000000000000000000000000000000000000000028803d56708000"
          ],
          "data": "0x00000000000000000000000000000000000000000000000000000000662e2e40000000000000000000000000699bceebd59a5b52bb586c737cd7ba636f3fe60200000000000000000000000000000000000000000000000000000000000138820000000000000000000000000000000000000000000000a2a15d09519be000000000000000000000000000000000000000000000000000000de0b6b3a7640000",
          "blockHash": "0x6b47b4250a6703a547b8d6dc4755487f5a5cdf48b23801b3ebc507add3e84115",
          "blockNumber": "0x586d6a",
          "transactionHash": "0x36a66953d3c7895aa275cd34266b2741678ab1558726e2785c25ad29cb42c5a1",
          "transactionIndex": "0x32",
          "logIndex": "0xcb",
          "removed": false
        },
        {
          "address": "0x23dd1aa37b5c81d64586c021330d61d3ad55aafb",
          "topics": [
            "0x9853b992610853aa2f058d95d0a4868ffcd37470b93a5e6634619467e0d4228c",
            "0xc30cafdcbec65f363be9b5394811c368769c51c7b0f0c1bedf7a29d2ef2a6968",
            "0x000000000000000000000000699bceebd59a5b52bb586c737cd7ba636f3fe602",
            "0x0000000000000000000000000000000000000000000000000028db3066eac000"
          ],
          "data": "0x00000000000000000000000000000000000000000000000000000000662e2e40000000000000000000000000699bceebd59a5b52bb586c737cd7ba636f3fe60200000000000000000000000000000000000000000000000000000000000138820000000000000000000000000000000000000000000000a2a15d09519be000000000000000000000000000000000000000000000000000000de0b6b3a7640000",
          "blockHash": "0x6b47b4250a6703a547b8d6dc4755487f5a5cdf48b23801b3ebc507add3e84115",
          "blockNumber": "0x586d6a",
          "transactionHash": "0x36a66953d3c7895aa275cd34266b2741678ab1558726e2785c25ad29cb42c5a1",
          "transactionIndex": "0x32",
          "logIndex": "0xcc",
          "removed": false
        }
      ],
      "logsBloom": "0x00000400000000000000000000000000200001001000000000400000000000000008400000000010000000800000001000000000000000000000000000000000010000000000000000000000000000000000000000000004000000000001000000800000000000000400000400040000000000008000000000000000000000001000000000000000000000000210020000000000000000000000000000000000000000000000000004000000000000040000000000000000000000040000000000000000000000000000004000008000000000000000000000000000000000400000010200000000405001000800000002000100200000000000000000000000",
      "type": "0x2",
      "transactionHash": "0x36a66953d3c7895aa275cd34266b2741678ab1558726e2785c25ad29cb42c5a1",
      "transactionIndex": "0x32",
      "blockHash": "0x6b47b4250a6703a547b8d6dc4755487f5a5cdf48b23801b3ebc507add3e84115",
      "blockNumber": "0x586d6a",
      "gasUsed": "0x1c72e",
      "effectiveGasPrice": "0x73b9dfc6",
      "from": "0x699bceebd59a5b52bb586c737cd7ba636f3fe602",
      "to": "0x23dd1aa37b5c81d64586c021330d61d3ad55aafb",
      "contractAddress": null
    }
  ],
  "libraries": [],
  "pending": [],
  "returns": {},
  "timestamp": 1714302531,
  "chain": 11155111,
  "commit": "9546700"
}