{
  "transactions": [
    {
      "hash": "0xea19676f8e7a9110462dd13948ff1026952de2c892e22adadbb4af0c56071d00",
      "transactionType": "CALL",
      "contractName": null,
      "contractAddress": "0x23dd1aa37b5c81d64586c021330d61d3ad55aafb",
      "function": "postMessage((address,uint256,uint256)[])",
      "arguments": [
        "[(0x699BceEbD59a5b52bB586C737cD7ba636f3Fe602, 80002, 11100000000000000), (0x699BceEbD59a5b52bB586C737cD7ba636f3Fe602, 80002, 11200000000000000)]"
      ],
      "transaction": {
        "from": "0x699bceebd59a5b52bb586c737cd7ba636f3fe602",
        "to": "0x23dd1aa37b5c81d64586c021330d61d3ad55aafb",
        "gas": "0x218a8",
        "value": "0x6a94d74f430000",
        "input": "0x42cbee8d00000000000000000000000000000000000000000000000000000000000000200000000000000000000000000000000000000000000000000000000000000002000000000000000000000000699bceebd59a5b52bb586c737cd7ba636f3fe602000000000000000000000000000000000000000000000000000000000001388200000000000000000000000000000000000000000000000000276f642501c000000000000000000000000000699bceebd59a5b52bb586c737cd7ba636f3fe60200000000000000000000000000000000000000000000000000000000000138820000000000000000000000000000000000000000000000000027ca57357c0000",
        "nonce": "0x14d",
        "chainId": "0xaa36a7",
        "accessList": null,
        "type": null
      },
      "additionalContracts": [],
      "isFixedGasLimit": false
    }
  ],
  "receipts": [
    {
      "status": "0x1",
      "cumulativeGasUsed": "0x864d2f",
      "logs": [
        {
          "address": "0x23dd1aa37b5c81d64586c021330d61d3ad55aafb",
          "topics": [
            "0x9853b992610853aa2f058d95d0a4868ffcd37470b93a5e6634619467e0d4228c",
            "0x256abe0a431cf5559873d70f00567c41c2326bdad79928c784a0af786f48d077",
            "0x000000000000000000000000699bceebd59a5b52bb586c737cd7ba636f3fe602",
            "0x00000000000000000000000000000000000000000000000000276f642501c000"
          ],
          "data": "0x00000000000000000000000000000000000000000000000000000000662e1088000000000000000000000000699bceebd59a5b52bb586c737cd7ba636f3fe60200000000000000000000000000000000000000000000000000000000000138820000000000000000000000000000000000000000000000a2a15d09519be000000000000000000000000000000000000000000000000000000de0b6b3a7640000",
          "blockHash": "0x0beffefe8dc45c9065f220dadcaa01a2621d0040c6d42ba4bb03dffbda5004a6",
          "blockNumber": "0x586b00",
          "transactionHash": "0xea19676f8e7a9110462dd13948ff1026952de2c892e22adadbb4af0c56071d00",
          "transactionIndex": "0x4b",
          "logIndex": "0xdb",
          "removed": false
        },
        {
          "address": "0x23dd1aa37b5c81d64586c021330d61d3ad55aafb",
          "topics": [
            "0x9853b992610853aa2f058d95d0a4868ffcd37470b93a5e6634619467e0d4228c",
            "0x9ac8bc66b416e7b377a830dc1d5055e2c34b0569059bff4df695c9529ea3b49f",
            "0x000000000000000000000000699bceebd59a5b52bb586c737cd7ba636f3fe602",
            "0x0000000000000000000000000000000000000000000000000027ca57357c0000"
          ],
          "data": "0x00000000000000000000000000000000000000000000000000000000662e1088000000000000000000000000699bceebd59a5b52bb586c737cd7ba636f3fe60200000000000000000000000000000000000000000000000000000000000138820000000000000000000000000000000000000000000000a2a15d09519be000000000000000000000000000000000000000000000000000000de0b6b3a7640000",
          "blockHash": "0x0beffefe8dc45c9065f220dadcaa01a2621d0040c6d42ba4bb03dffbda5004a6",
          "blockNumber": "0x586b00",
          "transactionHash": "0xea19676f8e7a9110462dd13948ff1026952de2c892e22adadbb4af0c56071d00",
          "transactionIndex": "0x4b",
          "logIndex": "0xdc",
          "removed": false
        }
      ],
      "logsBloom": "0x00000000080000080000000000000000000000000000000000400000000000000000400000000010000000000000080000000000000000000000000000000000000000000000000000000000000000000000000000000000000000000000000000840000000000000000000400000000000000008000000000000000000000000010000000000000000001000200020000000000000000000000000000000000000000000000000000000000000000000000000000000000000000040000000000000000000000000000000000008000000000000000000000000000000000000000010000000000005000000000000000000100200000000000000000000000",
      "type": "0x2",
      "transactionHash": "0xea19676f8e7a9110462dd13948ff1026952de2c892e22adadbb4af0c56071d00",
      "transactionIndex": "0x4b",
      "blockHash": "0x0beffefe8dc45c9065f220dadcaa01a2621d0040c6d42ba4bb03dffbda5004a6",
      "blockNumber": "0x586b00",
      "gasUsed": "0x18488",
      "effectiveGasPrice": "0x2effd1818",
      "from": "0x699bceebd59a5b52bb586c737cd7ba636f3fe602",
      "to": "0x23dd1aa37b5c81d64586c021330d61d3ad55aafb",
      "contractAddress": null
    }
  ],
  "libraries": [],
  "pending": [],
  "returns": {},
  "timestamp": 1714294923,
  "chain": 11155111,
  "commit": "9546700"
}