{
  "transactions": [
    {
      "hash": "0x4fe220aa8bec533a391aa54e2570d544a2ce3af0da578b93a1e9c479defacf2e",
      "transactionType": "CALL",
      "contractName": null,
      "contractAddress": "0x23dd1aa37b5c81d64586c021330d61d3ad55aafb",
      "function": "postMessage((address,uint256,uint256)[])",
      "arguments": [
        "[(0x699BceEbD59a5b52bB586C737cD7ba636f3Fe602, 80002, 11100000000000000), (0x699BceEbD59a5b52bB586C737cD7ba636f3Fe602, 80002, 11200000000000000), (0x699BceEbD59a5b52bB586C737cD7ba636f3Fe602, 80002, 11300000000000000), (0x699BceEbD59a5b52bB586C737cD7ba636f3Fe602, 80002, 11400000000000000), (0x699BceEbD59a5b52bB586C737cD7ba636f3Fe602, 80002, 11500000000000000)]"
      ],
      "transaction": {
        "from": "0x699bceebd59a5b52bb586c737cd7ba636f3fe602",
        "to": "0x23dd1aa37b5c81d64586c021330d61d3ad55aafb",
        "gas": "0x274b6",
        "value": "0xd529ae9e860000",
        "input": "0x42cbee8d00000000000000000000000000000000000000000000000000000000000000200000000000000000000000000000000000000000000000000000000000000005000000000000000000000000699bceebd59a5b52bb586c737cd7ba636f3fe602000000000000000000000000000000000000000000000000000000000001388200000000000000000000000000000000000000000000000000276f642501c000000000000000000000000000699bceebd59a5b52bb586c737cd7ba636f3fe60200000000000000000000000000000000000000000000000000000000000138820000000000000000000000000000000000000000000000000027ca57357c0000000000000000000000000000699bceebd59a5b52bb586c737cd7ba636f3fe60200000000000000000000000000000000000000000000000000000000000138820000000000000000000000000000000000000000000000000028254a45f64000000000000000000000000000699bceebd59a5b52bb586c737cd7ba636f3fe60200000000000000000000000000000000000000000000000000000000000138820000000000000000000000000000000000000000000000000028803d56708000000000000000000000000000699bceebd59a5b52bb586c737cd7ba636f3fe60200000000000000000000000000000000000000000000000000000000000138820000000000000000000000000000000000000000000000000028db3066eac000",
        "nonce": "0x150",
        "chainId": "0xaa36a7",
        "accessList": null,
        "type": null
      },
      "additionalContracts": [],
      "isFixedGasLimit": false
    }
  ],
  "receipts": [
    {
      "status": "0x1",
      "cumulativeGasUsed": "0xb5fedc",
      "logs": [
        {
          "address": "0x23dd1aa37b5c81d64586c021330d61d3ad55aafb",
          "topics": [
            "0x9853b992610853aa2f058d95d0a4868ffcd37470b93a5e6634619467e0d4228c",
            "0xca6794de1a75f26707b617194cb91f4736bd175f8cfc699df709b2d8de06511f",
            "0x000000000000000000000000699bceebd59a5b52bb586c737cd7ba636f3fe602",
            "0x00000000000000000000000000000000000000000000000000276f642501c000"
          ],
          "data": "0x00000000000000000000000000000000000000000000000000000000662e2c30000000000000000000000000699bceebd59a5b52bb586c737cd7ba636f3fe60200000000000000000000000000000000000000000000000000000000000138820000000000000000000000000000000000000000000000a2a15d09519be000000000000000000000000000000000000000000000000000000de0b6b3a7640000",
          "blockHash": "0x2073de201109a2da0e36b67b0c4214a2c277e71d992e1d21bab69b5a918110d2",
          "blockNumber": "0x586d3f",
          "transactionHash": "0x4fe220aa8bec533a391aa54e2570d544a2ce3af0da578b93a1e9c479defacf2e",
          "transactionIndex": "0x59",
          "logIndex": "0x115",
          "removed": false
        },
        {
          "address": "0x23dd1aa37b5c81d64586c021330d61d3ad55aafb",
          "topics": [
            "0x9853b992610853aa2f058d95d0a4868ffcd37470b93a5e6634619467e0d4228c",
            "0x619486c90d6abb4a9508575ed39bcdaaba451693199c8c0ea25a8cce7c65ece3",
            "0x000000000000000000000000699bceebd59a5b52bb586c737cd7ba636f3fe602",
            "0x0000000000000000000000000000000000000000000000000027ca57357c0000"
          ],
          "data": "0x00000000000000000000000000000000000000000000000000000000662e2c30000000000000000000000000699bceebd59a5b52bb586c737cd7ba636f3fe60200000000000000000000000000000000000000000000000000000000000138820000000000000000000000000000000000000000000000a2a15d09519be000000000000000000000000000000000000000000000000000000de0b6b3a7640000",
          "blockHash": "0x2073de201109a2da0e36b67b0c4214a2c277e71d992e1d21bab69b5a918110d2",
          "blockNumber": "0x586d3f",
          "transactionHash": "0x4fe220aa8bec533a391aa54e2570d544a2ce3af0da578b93a1e9c479defacf2e",
          "transactionIndex": "0x59",
          "logIndex": "0x116",
          "removed": false
        },
        {
          "address": "0x23dd1aa37b5c81d64586c021330d61d3ad55aafb",
          "topics": [
            "0x9853b992610853aa2f058d95d0a4868ffcd37470b93a5e6634619467e0d4228c",
            "0x6b76ff69caed2a73e67a27c507b317b67485ecef96506ef94d7d532db900b8ed",
            "0x000000000000000000000000699bceebd59a5b52bb586c737cd7ba636f3fe602",
            "0x0000000000000000000000000000000000000000000000000028254a45f64000"
          ],
          "data": "0x00000000000000000000000000000000000000000000000000000000662e2c30000000000000000000000000699bceebd59a5b52bb586c737cd7ba636f3fe60200000000000000000000000000000000000000000000000000000000000138820000000000000000000000000000000000000000000000a2a15d09519be000000000000000000000000000000000000000000000000000000de0b6b3a7640000",
          "blockHash": "0x2073de201109a2da0e36b67b0c4214a2c277e71d992e1d21bab69b5a918110d2",
          "blockNumber": "0x586d3f",
          "transactionHash": "0x4fe220aa8bec533a391aa54e2570d544a2ce3af0da578b93a1e9c479defacf2e",
          "transactionIndex": "0x59",
          "logIndex": "0x117",
          "removed": false
        },
        {
          "address": "0x23dd1aa37b5c81d64586c021330d61d3ad55aafb",
          "topics": [
            "0x9853b992610853aa2f058d95d0a4868ffcd37470b93a5e6634619467e0d4228c",
            "0x9b082c55b27fd83f92476531db72b5c04dc3da0c1abc2c6cbb8c6ebcb9859c27",
            "0x000000000000000000000000699bceebd59a5b52bb586c737cd7ba636f3fe602",
            "0x0000000000000000000000000000000000000000000000000028803d56708000"
          ],
          "data": "0x00000000000000000000000000000000000000000000000000000000662e2c30000000000000000000000000699bceebd59a5b52bb586c737cd7ba636f3fe60200000000000000000000000000000000000000000000000000000000000138820000000000000000000000000000000000000000000000a2a15d09519be000000000000000000000000000000000000000000000000000000de0b6b3a7640000",
          "blockHash": "0x2073de201109a2da0e36b67b0c4214a2c277e71d992e1d21bab69b5a918110d2",
          "blockNumber": "0x586d3f",
          "transactionHash": "0x4fe220aa8bec533a391aa54e2570d544a2ce3af0da578b93a1e9c479defacf2e",
          "transactionIndex": "0x59",
          "logIndex": "0x118",
          "removed": false
        },
        {
          "address": "0x23dd1aa37b5c81d64586c021330d61d3ad55aafb",
          "topics": [
            "0x9853b992610853aa2f058d95d0a4868ffcd37470b93a5e6634619467e0d4228c",
            "0x91f2a78bad577eec37b08194d3e4ee08c291784dd85006b298d94de14e0654b5",
            "0x000000000000000000000000699bceebd59a5b52bb586c737cd7ba636f3fe602",
            "0x0000000000000000000000000000000000000000000000000028db3066eac000"
          ],
          "data": "0x00000000000000000000000000000000000000000000000000000000662e2c30000000000000000000000000699bceebd59a5b52bb586c737cd7ba636f3fe60200000000000000000000000000000000000000000000000000000000000138820000000000000000000000000000000000000000000000a2a15d09519be000000000000000000000000000000000000000000000000000000de0b6b3a7640000",
          "blockHash": "0x2073de201109a2da0e36b67b0c4214a2c277e71d992e1d21bab69b5a918110d2",
          "blockNumber": "0x586d3f",
          "transactionHash": "0x4fe220aa8bec533a391aa54e2570d544a2ce3af0da578b93a1e9c479defacf2e",
          "transactionIndex": "0x59",
          "logIndex": "0x119",
          "removed": false
        }
      ],
      "logsBloom": "0x00000000200000000000000000000000200000000600000004400000000000000000400000000010000000820000001000000000000000000000000010000000010000000000001000000000000000000000000000000400000000000000000000800000000000000000080400000000000000008000000000000000000000000000000000002000000000000210020000000000400000000000000000000000000000000000000004000000100000000000000000000000000000040000000000000000000000000000004000008000000000000000000000001000010000000000010200000000005001000000000000010100200000000000000000000000",
      "type": "0x2",
      "transactionHash": "0x4fe220aa8bec533a391aa54e2570d544a2ce3af0da578b93a1e9c479defacf2e",
      "transactionIndex": "0x59",
      "blockHash": "0x2073de201109a2da0e36b67b0c4214a2c277e71d992e1d21bab69b5a918110d2",
      "blockNumber": "0x586d3f",
      "gasUsed": "0x1c72e",
      "effectiveGasPrice": "0x8aa8047b",
      "from": "0x699bceebd59a5b52bb586c737cd7ba636f3fe602",
      "to": "0x23dd1aa37b5c81d64586c021330d61d3ad55aafb",
      "contractAddress": null
    }
  ],
  "libraries": [],
  "pending": [],
  "returns": {},
  "timestamp": 1714302002,
  "chain": 11155111,
  "commit": "9546700"
}