{
  "transactions": [
    {
      "hash": "0x11674be2d8caf9e21e828f74bba5ace3ddfda444b45465a92f3bb31c761973b5",
      "transactionType": "CALL",
      "contractName": null,
      "contractAddress": "0x23dd1aa37b5c81d64586c021330d61d3ad55aafb",
      "function": "postMessage((address,uint256,uint256)[])",
      "arguments": [
        "[(0x699BceEbD59a5b52bB586C737cD7ba636f3Fe602, 80002, 11100000000000000), (0x699BceEbD59a5b52bB586C737cD7ba636f3Fe602, 80002, 11200000000000000), (0x699BceEbD59a5b52bB586C737cD7ba636f3Fe602, 80002, 11300000000000000), (0x699BceEbD59a5b52bB586C737cD7ba636f3Fe602, 80002, 11400000000000000), (0x699BceEbD59a5b52bB586C737cD7ba636f3Fe602, 80002, 11500000000000000), (0x699BceEbD59a5b52bB586C737cD7ba636f3Fe602, 80002, 11600000000000000), (0x699BceEbD59a5b52bB586C737cD7ba636f3Fe602, 80002, 11700000000000000), (0x699BceEbD59a5b52bB586C737cD7ba636f3Fe602, 80002, 11800000000000000), (0x699BceEbD59a5b52bB586C737cD7ba636f3Fe602, 80002, 11900000000000000), (0x699BceEbD59a5b52bB586C737cD7ba636f3Fe602, 80002, 12000000000000000), (0x699BceEbD59a5b52bB586C737cD7ba636f3Fe602, 80002, 12000000000000000), (0x699BceEbD59a5b52bB586C737cD7ba636f3Fe602, 80002, 12200000000000000), (0x699BceEbD59a5b52bB586C737cD7ba636f3Fe602, 80002, 12300000000000000), (0x699BceEbD59a5b52bB586C737cD7ba636f3Fe602, 80002, 12400000000000000), (0x699BceEbD59a5b52bB586C737cD7ba636f3Fe602, 80002, 12500000000000000)]"
      ],
      "transaction": {
        "from": "0x699bceebd59a5b52bb586c737cd7ba636f3fe602",
        "to": "0x23dd1aa37b5c81d64586c021330d61d3ad55aafb",
        "gas": "0x3de70",
        "value": "0x2c68af0bb140000",
        "input": "0x42cbee8d0000000000000000000000000000000000000000000000000000000000000020000000000000000000000000000000000000000000000000000000000000000f000000000000000000000000699bceebd59a5b52bb586c737cd7ba636f3fe602000000000000000000000000000000000000000000000000000000000001388200000000000000000000000000000000000000000000000000276f642501c000000000000000000000000000699bceebd59a5b52bb586c737cd7ba636f3fe60200000000000000000000000000000000000000000000000000000000000138820000000000000000000000000000000000000000000000000027ca57357c0000000000000000000000000000699bceebd59a5b52bb586c737cd7ba636f3fe60200000000000000000000000000000000000000000000000000000000000138820000000000000000000000000000000000000000000000000028254a45f64000000000000000000000000000699bceebd59a5b52bb586c737cd7ba636f3fe60200000000000000000000000000000000000000000000000000000000000138820000000000000000000000000000000000000000000000000028803d56708000000000000000000000000000699bceebd59a5b52bb586c737cd7ba636f3fe60200000000000000000000000000000000000000000000000000000000000138820000000000000000000000000000000000000000000000000028db3066eac000000000000000000000000000699bceebd59a5b52bb586c737cd7ba636f3fe60200000000000000000000000000000000000000000000000000000000000138820000000000000000000000000000000000000000000000000029362377650000000000000000000000000000699bceebd59a5b52bb586c737cd7ba636f3fe60200000000000000000000000000000000000000000000000000000000000138820000000000000000000000000000000000000000000000000029911687df4000000000000000000000000000699bceebd59a5b52bb586c737cd7ba636f3fe60200000000000000000000000000000000000000000000000000000000000138820000000000000000000000000000000000000000000000000029ec0998598000000000000000000000000000699bceebd59a5b52bb586c737cd7ba636f3fe6020000000000000000000000000000000000000000000000000000000000013882000000000000000000000000000000000000000000000000002a46fca8d3c000000000000000000000000000699bceebd59a5b52bb586c737cd7ba636f3fe6020000000000000000000000000000000000000000000000000000000000013882000000000000000000000000000000000000000000000000002aa1efb94e0000000000000000000000000000699bceebd59a5b52bb586c737cd7ba636f3fe6020000000000000000000000000000000000000000000000000000000000013882000000000000000000000000000000000000000000000000002aa1efb94e0000000000000000000000000000699bceebd59a5b52bb586c737cd7ba636f3fe6020000000000000000000000000000000000000000000000000000000000013882000000000000000000000000000000000000000000000000002b57d5da428000000000000000000000000000699bceebd59a5b52bb586c737cd7ba636f3fe6020000000000000000000000000000000000000000000000000000000000013882000000000000000000000000000000000000000000000000002bb2c8eabcc000000000000000000000000000699bceebd59a5b52bb586c737cd7ba636f3fe6020000000000000000000000000000000000000000000000000000000000013882000000000000000000000000000000000000000000000000002c0dbbfb370000000000000000000000000000699bceebd59a5b52bb586c737cd7ba636f3fe6020000000000000000000000000000000000000000000000000000000000013882000000000000000000000000000000000000000000000000002c68af0bb14000",
        "nonce": "0x17e",
        "chainId": "0xaa36a7",
        "accessList": null,
        "type": null
      },
      "additionalContracts": [],
      "isFixedGasLimit": false
    }
  ],
  "receipts": [
    {
      "status": "0x1",
      "cumulativeGasUsed": "0x15ff0bc",
      "logs": [
        {
          "address": "0x23dd1aa37b5c81d64586c021330d61d3ad55aafb",
          "topics": [
            "0x9853b992610853aa2f058d95d0a4868ffcd37470b93a5e6634619467e0d4228c",
            "0x459481cee073aa76131cc545413eb59fefd9f0ace0f0febe5de57c2c56cee1b3",
            "0x000000000000000000000000699bceebd59a5b52bb586c737cd7ba636f3fe602",
            "0x00000000000000000000000000000000000000000000000000276f642501c000"
          ],
          "data": "0x0000000000000000000000000000000000000000000000000000000066301164000000000000000000000000699bceebd59a5b52bb586c737cd7ba636f3fe60200000000000000000000000000000000000000000000000000000000000138820000000000000000000000000000000000000000000000a2a15d09519be000000000000000000000000000000000000000000000000000000de0b6b3a7640000",
          "blockHash": "0x80d9eaad2f783272fa8b2877dd0c0320dfcc5ef6189f64bb22d1db47899dfa0a",
          "blockNumber": "0x589320",
          "transactionHash": "0x11674be2d8caf9e21e828f74bba5ace3ddfda444b45465a92f3bb31c761973b5",
          "transactionIndex": "0x74",
          "logIndex": "0x193",
          "removed": false
        },
        {
          "address": "0x23dd1aa37b5c81d64586c021330d61d3ad55aafb",
          "topics": [
            "0x9853b992610853aa2f058d95d0a4868ffcd37470b93a5e6634619467e0d4228c",
            "0x39838186acfd6ee3962cbc10a735fdb8b22ceae22de53bbb30e00c4e00953f39",
            "0x000000000000000000000000699bceebd59a5b52bb586c737cd7ba636f3fe602",
            "0x0000000000000000000000000000000000000000000000000027ca57357c0000"
          ],
          "data": "0x0000000000000000000000000000000000000000000000000000000066301164000000000000000000000000699bceebd59a5b52bb586c737cd7ba636f3fe60200000000000000000000000000000000000000000000000000000000000138820000000000000000000000000000000000000000000000a2a15d09519be000000000000000000000000000000000000000000000000000000de0b6b3a7640000",
          "blockHash": "0x80d9eaad2f783272fa8b2877dd0c0320dfcc5ef6189f64bb22d1db47899dfa0a",
          "blockNumber": "0x589320",
          "transactionHash": "0x11674be2d8caf9e21e828f74bba5ace3ddfda444b45465a92f3bb31c761973b5",
          "transactionIndex": "0x74",
          "logIndex": "0x194",
          "removed": false
        },
        {
          "address": "0x23dd1aa37b5c81d64586c021330d61d3ad55aafb",
          "topics": [
            "0x9853b992610853aa2f058d95d0a4868ffcd37470b93a5e6634619467e0d4228c",
            "0xdc94a468f647e7696c876f88f6ca0e9622ef436d0cbc6be1ed5760b839a49193",
            "0x000000000000000000000000699bceebd59a5b52bb586c737cd7ba636f3fe602",
            "0x0000000000000000000000000000000000000000000000000028254a45f64000"
          ],
          "data": "0x0000000000000000000000000000000000000000000000000000000066301164000000000000000000000000699bceebd59a5b52bb586c737cd7ba636f3fe60200000000000000000000000000000000000000000000000000000000000138820000000000000000000000000000000000000000000000a2a15d09519be000000000000000000000000000000000000000000000000000000de0b6b3a7640000",
          "blockHash": "0x80d9eaad2f783272fa8b2877dd0c0320dfcc5ef6189f64bb22d1db47899dfa0a",
          "blockNumber": "0x589320",
          "transactionHash": "0x11674be2d8caf9e21e828f74bba5ace3ddfda444b45465a92f3bb31c761973b5",
          "transactionIndex": "0x74",
          "logIndex": "0x195",
          "removed": false
        },
        {
          "address": "0x23dd1aa37b5c81d64586c021330d61d3ad55aafb",
          "topics": [
            "0x9853b992610853aa2f058d95d0a4868ffcd37470b93a5e6634619467e0d4228c",
            "0xfffe6dd78388214774b7153636223e45349b82eb70e0c528e76bbd4b5fe1108c",
            "0x000000000000000000000000699bceebd59a5b52bb586c737cd7ba636f3fe602",
            "0x0000000000000000000000000000000000000000000000000028803d56708000"
          ],
          "data": "0x0000000000000000000000000000000000000000000000000000000066301164000000000000000000000000699bceebd59a5b52bb586c737cd7ba636f3fe60200000000000000000000000000000000000000000000000000000000000138820000000000000000000000000000000000000000000000a2a15d09519be000000000000000000000000000000000000000000000000000000de0b6b3a7640000",
          "blockHash": "0x80d9eaad2f783272fa8b2877dd0c0320dfcc5ef6189f64bb22d1db47899dfa0a",
          "blockNumber": "0x589320",
          "transactionHash": "0x11674be2d8caf9e21e828f74bba5ace3ddfda444b45465a92f3bb31c761973b5",
          "transactionIndex": "0x74",
          "logIndex": "0x196",
          "removed": false
        },
        {
          "address": "0x23dd1aa37b5c81d64586c021330d61d3ad55aafb",
          "topics": [
            "0x9853b992610853aa2f058d95d0a4868ffcd37470b93a5e6634619467e0d4228c",
            "0xf11870a10c28921a84d36e996cb28afffca56a65a1e9b65983929528b5069a06",
            "0x000000000000000000000000699bceebd59a5b52bb586c737cd7ba636f3fe602",
            "0x0000000000000000000000000000000000000000000000000028db3066eac000"
          ],
          "data": "0x0000000000000000000000000000000000000000000000000000000066301164000000000000000000000000699bceebd59a5b52bb586c737cd7ba636f3fe60200000000000000000000000000000000000000000000000000000000000138820000000000000000000000000000000000000000000000a2a15d09519be000000000000000000000000000000000000000000000000000000de0b6b3a7640000",
          "blockHash": "0x80d9eaad2f783272fa8b2877dd0c0320dfcc5ef6189f64bb22d1db47899dfa0a",
          "blockNumber": "0x589320",
          "transactionHash": "0x11674be2d8caf9e21e828f74bba5ace3ddfda444b45465a92f3bb31c761973b5",
          "transactionIndex": "0x74",
          "logIndex": "0x197",
          "removed": false
        },
        {
          "address": "0x23dd1aa37b5c81d64586c021330d61d3ad55aafb",
          "topics": [
            "0x9853b992610853aa2f058d95d0a4868ffcd37470b93a5e6634619467e0d4228c",
            "0x981930086dad76cb6480e4909316929e74092bd0ffbde624b6765ad6d5e1cbb6",
            "0x000000000000000000000000699bceebd59a5b52bb586c737cd7ba636f3fe602",
            "0x0000000000000000000000000000000000000000000000000029362377650000"
          ],
          "data": "0x0000000000000000000000000000000000000000000000000000000066301164000000000000000000000000699bceebd59a5b52bb586c737cd7ba636f3fe60200000000000000000000000000000000000000000000000000000000000138820000000000000000000000000000000000000000000000a2a15d09519be000000000000000000000000000000000000000000000000000000de0b6b3a7640000",
          "blockHash": "0x80d9eaad2f783272fa8b2877dd0c0320dfcc5ef6189f64bb22d1db47899dfa0a",
          "blockNumber": "0x589320",
          "transactionHash": "0x11674be2d8caf9e21e828f74bba5ace3ddfda444b45465a92f3bb31c761973b5",
          "transactionIndex": "0x74",
          "logIndex": "0x198",
          "removed": false
        },
        {
          "address": "0x23dd1aa37b5c81d64586c021330d61d3ad55aafb",
          "topics": [
            "0x9853b992610853aa2f058d95d0a4868ffcd37470b93a5e6634619467e0d4228c",
            "0xb2d229a9cbefb2e14363ba257e0e1499b7fd036070daf8e332dab4032f4913e7",
            "0x000000000000000000000000699bceebd59a5b52bb586c737cd7ba636f3fe602",
            "0x0000000000000000000000000000000000000000000000000029911687df4000"
          ],
          "data": "0x0000000000000000000000000000000000000000000000000000000066301164000000000000000000000000699bceebd59a5b52bb586c737cd7ba636f3fe60200000000000000000000000000000000000000000000000000000000000138820000000000000000000000000000000000000000000000a2a15d09519be000000000000000000000000000000000000000000000000000000de0b6b3a7640000",
          "blockHash": "0x80d9eaad2f783272fa8b2877dd0c0320dfcc5ef6189f64bb22d1db47899dfa0a",
          "blockNumber": "0x589320",
          "transactionHash": "0x11674be2d8caf9e21e828f74bba5ace3ddfda444b45465a92f3bb31c761973b5",
          "transactionIndex": "0x74",
          "logIndex": "0x199",
          "removed": false
        },
        {
          "address": "0x23dd1aa37b5c81d64586c021330d61d3ad55aafb",
          "topics": [
            "0x9853b992610853aa2f058d95d0a4868ffcd37470b93a5e6634619467e0d4228c",
            "0x0dfb9be1bd19db4af4c1890a8652efa98ce5ffc4a85fc5f8f17216b901a079ae",
            "0x000000000000000000000000699bceebd59a5b52bb586c737cd7ba636f3fe602",
            "0x0000000000000000000000000000000000000000000000000029ec0998598000"
          ],
          "data": "0x0000000000000000000000000000000000000000000000000000000066301164000000000000000000000000699bceebd59a5b52bb586c737cd7ba636f3fe60200000000000000000000000000000000000000000000000000000000000138820000000000000000000000000000000000000000000000a2a15d09519be000000000000000000000000000000000000000000000000000000de0b6b3a7640000",
          "blockHash": "0x80d9eaad2f783272fa8b2877dd0c0320dfcc5ef6189f64bb22d1db47899dfa0a",
          "blockNumber": "0x589320",
          "transactionHash": "0x11674be2d8caf9e21e828f74bba5ace3ddfda444b45465a92f3bb31c761973b5",
          "transactionIndex": "0x74",
          "logIndex": "0x19a",
          "removed": false
        },
        {
          "address": "0x23dd1aa37b5c81d64586c021330d61d3ad55aafb",
          "topics": [
            "0x9853b992610853aa2f058d95d0a4868ffcd37470b93a5e6634619467e0d4228c",
            "0x818c0d7ad477c3d0bbc786453834d5fe634d9bc1127692b396ede90d585dbbc0",
            "0x000000000000000000000000699bceebd59a5b52bb586c737cd7ba636f3fe602",
            "0x000000000000000000000000000000000000000000000000002a46fca8d3c000"
          ],
          "data": "0x0000000000000000000000000000000000000000000000000000000066301164000000000000000000000000699bceebd59a5b52bb586c737cd7ba636f3fe60200000000000000000000000000000000000000000000000000000000000138820000000000000000000000000000000000000000000000a2a15d09519be000000000000000000000000000000000000000000000000000000de0b6b3a7640000",
          "blockHash": "0x80d9eaad2f783272fa8b2877dd0c0320dfcc5ef6189f64bb22d1db47899dfa0a",
          "blockNumber": "0x589320",
          "transactionHash": "0x11674be2d8caf9e21e828f74bba5ace3ddfda444b45465a92f3bb31c761973b5",
          "transactionIndex": "0x74",
          "logIndex": "0x19b",
          "removed": false
        },
        {
          "address": "0x23dd1aa37b5c81d64586c021330d61d3ad55aafb",
          "topics": [
            "0x9853b992610853aa2f058d95d0a4868ffcd37470b93a5e6634619467e0d4228c",
            "0x7b1e887007c6cccc0f3d327584ce3861056d72ddfce48ee2c60b5c929324da3b",
            "0x000000000000000000000000699bceebd59a5b52bb586c737cd7ba636f3fe602",
            "0x000000000000000000000000000000000000000000000000002aa1efb94e0000"
          ],
          "data": "0x0000000000000000000000000000000000000000000000000000000066301164000000000000000000000000699bceebd59a5b52bb586c737cd7ba636f3fe60200000000000000000000000000000000000000000000000000000000000138820000000000000000000000000000000000000000000000a2a15d09519be000000000000000000000000000000000000000000000000000000de0b6b3a7640000",
          "blockHash": "0x80d9eaad2f783272fa8b2877dd0c0320dfcc5ef6189f64bb22d1db47899dfa0a",
          "blockNumber": "0x589320",
          "transactionHash": "0x11674be2d8caf9e21e828f74bba5ace3ddfda444b45465a92f3bb31c761973b5",
          "transactionIndex": "0x74",
          "logIndex": "0x19c",
          "removed": false
        },
        {
          "address": "0x23dd1aa37b5c81d64586c021330d61d3ad55aafb",
          "topics": [
            "0x9853b992610853aa2f058d95d0a4868ffcd37470b93a5e6634619467e0d4228c",
            "0x21e4142402c6934d3b52f95c94a31bd8e0eb0e9d254e5947f6bf23c21fddc465",
            "0x000000000000000000000000699bceebd59a5b52bb586c737cd7ba636f3fe602",
            "0x000000000000000000000000000000000000000000000000002aa1efb94e0000"
          ],
          "data": "0x0000000000000000000000000000000000000000000000000000000066301164000000000000000000000000699bceebd59a5b52bb586c737cd7ba636f3fe60200000000000000000000000000000000000000000000000000000000000138820000000000000000000000000000000000000000000000a2a15d09519be000000000000000000000000000000000000000000000000000000de0b6b3a7640000",
          "blockHash": "0x80d9eaad2f783272fa8b2877dd0c0320dfcc5ef6189f64bb22d1db47899dfa0a",
          "blockNumber": "0x589320",
          "transactionHash": "0x11674be2d8caf9e21e828f74bba5ace3ddfda444b45465a92f3bb31c761973b5",
          "transactionIndex": "0x74",
          "logIndex": "0x19d",
          "removed": false
        },
        {
          "address": "0x23dd1aa37b5c81d64586c021330d61d3ad55aafb",
          "topics": [
            "0x9853b992610853aa2f058d95d0a4868ffcd37470b93a5e6634619467e0d4228c",
            "0x6205916550bb3fc2de6ebfdb75868650d5f2feab9ccfe3ce6df60154b3009190",
            "0x000000000000000000000000699bceebd59a5b52bb586c737cd7ba636f3fe602",
            "0x000000000000000000000000000000000000000000000000002b57d5da428000"
          ],
          "data": "0x0000000000000000000000000000000000000000000000000000000066301164000000000000000000000000699bceebd59a5b52bb586c737cd7ba636f3fe60200000000000000000000000000000000000000000000000000000000000138820000000000000000000000000000000000000000000000a2a15d09519be000000000000000000000000000000000000000000000000000000de0b6b3a7640000",
          "blockHash": "0x80d9eaad2f783272fa8b2877dd0c0320dfcc5ef6189f64bb22d1db47899dfa0a",
          "blockNumber": "0x589320",
          "transactionHash": "0x11674be2d8caf9e21e828f74bba5ace3ddfda444b45465a92f3bb31c761973b5",
          "transactionIndex": "0x74",
          "logIndex": "0x19e",
          "removed": false
        },
        {
          "address": "0x23dd1aa37b5c81d64586c021330d61d3ad55aafb",
          "topics": [
            "0x9853b992610853aa2f058d95d0a4868ffcd37470b93a5e6634619467e0d4228c",
            "0x9dd1367ef653008d5422362213a0fee98f1718e2b372ef437b0a132ec2f72e47",
            "0x000000000000000000000000699bceebd59a5b52bb586c737cd7ba636f3fe602",
            "0x000000000000000000000000000000000000000000000000002bb2c8eabcc000"
          ],
          "data": "0x0000000000000000000000000000000000000000000000000000000066301164000000000000000000000000699bceebd59a5b52bb586c737cd7ba636f3fe60200000000000000000000000000000000000000000000000000000000000138820000000000000000000000000000000000000000000000a2a15d09519be000000000000000000000000000000000000000000000000000000de0b6b3a7640000",
          "blockHash": "0x80d9eaad2f783272fa8b2877dd0c0320dfcc5ef6189f64bb22d1db47899dfa0a",
          "blockNumber": "0x589320",
          "transactionHash": "0x11674be2d8caf9e21e828f74bba5ace3ddfda444b45465a92f3bb31c761973b5",
          "transactionIndex": "0x74",
          "logIndex": "0x19f",
          "removed": false
        },
        {
          "address": "0x23dd1aa37b5c81d64586c021330d61d3ad55aafb",
          "topics": [
            "0x9853b992610853aa2f058d95d0a4868ffcd37470b93a5e6634619467e0d4228c",
            "0x1c105822ad468e2a526b69d4fb8661c43f7336770a846483bdd53d026dfbcb9d",
            "0x000000000000000000000000699bceebd59a5b52bb586c737cd7ba636f3fe602",
            "0x000000000000000000000000000000000000000000000000002c0dbbfb370000"
          ],
          "data": "0x0000000000000000000000000000000000000000000000000000000066301164000000000000000000000000699bceebd59a5b52bb586c737cd7ba636f3fe60200000000000000000000000000000000000000000000000000000000000138820000000000000000000000000000000000000000000000a2a15d09519be000000000000000000000000000000000000000000000000000000de0b6b3a7640000",
          "blockHash": "0x80d9eaad2f783272fa8b2877dd0c0320dfcc5ef6189f64bb22d1db47899dfa0a",
          "blockNumber": "0x589320",
          "transactionHash": "0x11674be2d8caf9e21e828f74bba5ace3ddfda444b45465a92f3bb31c761973b5",
          "transactionIndex": "0x74",
          "logIndex": "0x1a0",
          "removed": false
        },
        {
          "address": "0x23dd1aa37b5c81d64586c021330d61d3ad55aafb",
          "topics": [
            "0x9853b992610853aa2f058d95d0a4868ffcd37470b93a5e6634619467e0d4228c",
            "0xb9e38767ee4a65ddefcc4ce5967a778fa08ec99622ee97bca498bbd953cebf52",
            "0x000000000000000000000000699bceebd59a5b52bb586c737cd7ba636f3fe602",
            "0x000000000000000000000000000000000000000000000000002c68af0bb14000"
          ],
          "data": "0x0000000000000000000000000000000000000000000000000000000066301164000000000000000000000000699bceebd59a5b52bb586c737cd7ba636f3fe60200000000000000000000000000000000000000000000000000000000000138820000000000000000000000000000000000000000000000a2a15d09519be000000000000000000000000000000000000000000000000000000de0b6b3a7640000",
          "blockHash": "0x80d9eaad2f783272fa8b2877dd0c0320dfcc5ef6189f64bb22d1db47899dfa0a",
          "blockNumber": "0x589320",
          "transactionHash": "0x11674be2d8caf9e21e828f74bba5ace3ddfda444b45465a92f3bb31c761973b5",
          "transactionIndex": "0x74",
          "logIndex": "0x1a1",
          "removed": false
        }
      ],
      "logsBloom": "0x00280000020400000000000000000000200000000004000000440000000000000022400010000030000840800000011400000024000200010000000001000000410000400000000004000000020000000009000000000000000120000050000000800000008000000000000400000000000000008000000000000000000004004003000000a00810000000002250020000000000000000000000000000880080000000220000008044018010000000040000000401000002480000040001020000220000000000000000004100008000000000000120008000000000000000001000010200000000005001000001002000000101200000000010000000000000",
      "type": "0x2",
      "transactionHash": "0x11674be2d8caf9e21e828f74bba5ace3ddfda444b45465a92f3bb31c761973b5",
      "transactionIndex": "0x74",
      "blockHash": "0x80d9eaad2f783272fa8b2877dd0c0320dfcc5ef6189f64bb22d1db47899dfa0a",
      "blockNumber": "0x589320",
      "gasUsed": "0x2a539",
      "effectiveGasPrice": "0x3ba32443",
      "from": "0x699bceebd59a5b52bb586c737cd7ba636f3fe602",
      "to": "0x23dd1aa37b5c81d64586c021330d61d3ad55aafb",
      "contractAddress": null
    }
  ],
  "libraries": [],
  "pending": [],
  "returns": {},
  "timestamp": 1714426218,
  "chain": 11155111,
  "commit": "9546700"
}