{
  "transactions": [
    {
      "hash": "0x2c21e2893c77f4a200a81ae82b658a64b77c269c39fd5820f64d6b29f09fc7ff",
      "transactionType": "CALL",
      "contractName": null,
      "contractAddress": "0x23dd1aa37b5c81d64586c021330d61d3ad55aafb",
      "function": "postMessage((address,uint256,uint256)[])",
      "arguments": [
        "[(0x699BceEbD59a5b52bB586C737cD7ba636f3Fe602, 80002, 11100000000000000), (0x699BceEbD59a5b52bB586C737cD7ba636f3Fe602, 80002, 11200000000000000), (0x699BceEbD59a5b52bB586C737cD7ba636f3Fe602, 80002, 11300000000000000), (0x699BceEbD59a5b52bB586C737cD7ba636f3Fe602, 80002, 11400000000000000), (0x699BceEbD59a5b52bB586C737cD7ba636f3Fe602, 80002, 11500000000000000)]"
      ],
      "transaction": {
        "from": "0x699bceebd59a5b52bb586c737cd7ba636f3fe602",
        "to": "0x23dd1aa37b5c81d64586c021330d61d3ad55aafb",
        "gas": "0x2c0de",
        "value": "0xd529ae9e860000",
        "input": "0x42cbee8d00000000000000000000000000000000000000000000000000000000000000200000000000000000000000000000000000000000000000000000000000000005000000000000000000000000699bceebd59a5b52bb586c737cd7ba636f3fe602000000000000000000000000000000000000000000000000000000000001388200000000000000000000000000000000000000000000000000276f642501c000000000000000000000000000699bceebd59a5b52bb586c737cd7ba636f3fe60200000000000000000000000000000000000000000000000000000000000138820000000000000000000000000000000000000000000000000027ca57357c0000000000000000000000000000699bceebd59a5b52bb586c737cd7ba636f3fe60200000000000000000000000000000000000000000000000000000000000138820000000000000000000000000000000000000000000000000028254a45f64000000000000000000000000000699bceebd59a5b52bb586c737cd7ba636f3fe60200000000000000000000000000000000000000000000000000000000000138820000000000000000000000000000000000000000000000000028803d56708000000000000000000000000000699bceebd59a5b52bb586c737cd7ba636f3fe60200000000000000000000000000000000000000000000000000000000000138820000000000000000000000000000000000000000000000000028db3066eac000",
        "nonce": "0x166",
        "chainId": "0xaa36a7",
        "accessList": null,
        "type": null
      },
      "additionalContracts": [],
      "isFixedGasLimit": false
    }
  ],
  "receipts": [
    {
      "status": "0x1",
      "cumulativeGasUsed": "0xf2d787",
      "logs": [
        {
          "address": "0x23dd1aa37b5c81d64586c021330d61d3ad55aafb",
          "topics": [
            "0x9853b992610853aa2f058d95d0a4868ffcd37470b93a5e6634619467e0d4228c",
            "0xdcc31853a27c593d808198ab08ccd4b40ca4025ddb5945bfdd399d5ca6acd2f2",
            "0x000000000000000000000000699bceebd59a5b52bb586c737cd7ba636f3fe602",
            "0x00000000000000000000000000000000000000000000000000276f642501c000"
          ],
          "data": "0x00000000000000000000000000000000000000000000000000000000662f38ec000000000000000000000000699bceebd59a5b52bb586c737cd7ba636f3fe60200000000000000000000000000000000000000000000000000000000000138820000000000000000000000000000000000000000000000a2a15d09519be000000000000000000000000000000000000000000000000000000de0b6b3a7640000",
          "blockHash": "0x400174551843c16e704154b29f5588cdd4063d7c57a8d33c4b1b268bb3e99692",
          "blockNumber": "0x588292",
          "transactionHash": "0x2c21e2893c77f4a200a81ae82b658a64b77c269c39fd5820f64d6b29f09fc7ff",
          "transactionIndex": "0x8d",
          "logIndex": "0xec",
          "removed": false
        },
        {
          "address": "0x23dd1aa37b5c81d64586c021330d61d3ad55aafb",
          "topics": [
            "0x9853b992610853aa2f058d95d0a4868ffcd37470b93a5e6634619467e0d4228c",
            "0x94a6c97e59a99d0e6815a383674274d2405a782da88bad581a207ce47041a731",
            "0x000000000000000000000000699bceebd59a5b52bb586c737cd7ba636f3fe602",
            "0x0000000000000000000000000000000000000000000000000027ca57357c0000"
          ],
          "data": "0x00000000000000000000000000000000000000000000000000000000662f38ec000000000000000000000000699bceebd59a5b52bb586c737cd7ba636f3fe60200000000000000000000000000000000000000000000000000000000000138820000000000000000000000000000000000000000000000a2a15d09519be000000000000000000000000000000000000000000000000000000de0b6b3a7640000",
          "blockHash": "0x400174551843c16e704154b29f5588cdd4063d7c57a8d33c4b1b268bb3e99692",
          "blockNumber": "0x588292",
          "transactionHash": "0x2c21e2893c77f4a200a81ae82b658a64b77c269c39fd5820f64d6b29f09fc7ff",
          "transactionIndex": "0x8d",
          "logIndex": "0xed",
          "removed": false
        },
        {
          "address": "0x23dd1aa37b5c81d64586c021330d61d3ad55aafb",
          "topics": [
            "0x9853b992610853aa2f058d95d0a4868ffcd37470b93a5e6634619467e0d4228c",
            "0x86c83288048d15286e73cc964d6d378c628e3cadaec094ec66973cef81b03b0d",
            "0x000000000000000000000000699bceebd59a5b52bb586c737cd7ba636f3fe602",
            "0x0000000000000000000000000000000000000000000000000028254a45f64000"
          ],
          "data": "0x00000000000000000000000000000000000000000000000000000000662f38ec000000000000000000000000699bceebd59a5b52bb586c737cd7ba636f3fe60200000000000000000000000000000000000000000000000000000000000138820000000000000000000000000000000000000000000000a2a15d09519be000000000000000000000000000000000000000000000000000000de0b6b3a7640000",
          "blockHash": "0x400174551843c16e704154b29f5588cdd4063d7c57a8d33c4b1b268bb3e99692",
          "blockNumber": "0x588292",
          "transactionHash": "0x2c21e2893c77f4a200a81ae82b658a64b77c269c39fd5820f64d6b29f09fc7ff",
          "transactionIndex": "0x8d",
          "logIndex": "0xee",
          "removed": false
        },
        {
          "address": "0x23dd1aa37b5c81d64586c021330d61d3ad55aafb",
          "topics": [
            "0x9853b992610853aa2f058d95d0a4868ffcd37470b93a5e6634619467e0d4228c",
            "0xa2d19fd6a2934ed783a13e7477930d363029c73bd15464c71fbe8bf308db1e29",
            "0x000000000000000000000000699bceebd59a5b52bb586c737cd7ba636f3fe602",
            "0x0000000000000000000000000000000000000000000000000028803d56708000"
          ],
          "data": "0x00000000000000000000000000000000000000000000000000000000662f38ec000000000000000000000000699bceebd59a5b52bb586c737cd7ba636f3fe60200000000000000000000000000000000000000000000000000000000000138820000000000000000000000000000000000000000000000a2a15d09519be000000000000000000000000000000000000000000000000000000de0b6b3a7640000",
          "blockHash": "0x400174551843c16e704154b29f5588cdd4063d7c57a8d33c4b1b268bb3e99692",
          "blockNumber": "0x588292",
          "transactionHash": "0x2c21e2893c77f4a200a81ae82b658a64b77c269c39fd5820f64d6b29f09fc7ff",
          "transactionIndex": "0x8d",
          "logIndex": "0xef",
          "removed": false
        },
        {
          "address": "0x23dd1aa37b5c81d64586c021330d61d3ad55aafb",
          "topics": [
            "0x9853b992610853aa2f058d95d0a4868ffcd37470b93a5e6634619467e0d4228c",
            "0xd685be34d459884be6e69d453b118738176879074812721f448270f7cca6bce7",
            "0x000000000000000000000000699bceebd59a5b52bb586c737cd7ba636f3fe602",
            "0x0000000000000000000000000000000000000000000000000028db3066eac000"
          ],
          "data": "0x00000000000000000000000000000000000000000000000000000000662f38ec000000000000000000000000699bceebd59a5b52bb586c737cd7ba636f3fe60200000000000000000000000000000000000000000000000000000000000138820000000000000000000000000000000000000000000000a2a15d09519be000000000000000000000000000000000000000000000000000000de0b6b3a7640000",
          "blockHash": "0x400174551843c16e704154b29f5588cdd4063d7c57a8d33c4b1b268bb3e99692",
          "blockNumber": "0x588292",
          "transactionHash": "0x2c21e2893c77f4a200a81ae82b658a64b77c269c39fd5820f64d6b29f09fc7ff",
          "transactionIndex": "0x8d",
          "logIndex": "0xf0",
          "removed": false
        }
      ],
      "logsBloom": "0x00000000000000000000000000000000204002000000000000400000000000000000400000000110000000800000001000000000000000000000000000000000010000000000000000000000000000000000000000000000000000000000000000800000000000000002000400000000000000008000000000000000400000000000000000000000000000400210020000000000010000000000800000000000000000000000000004000000000000000200000000000000000000040000000001000000000000000000024040008000000020000400000000000000000000000002010200000000005001000000000000000100200000000000000000000000",
      "type": "0x2",
      "transactionHash": "0x2c21e2893c77f4a200a81ae82b658a64b77c269c39fd5820f64d6b29f09fc7ff",
      "transactionIndex": "0x8d",
      "blockHash": "0x400174551843c16e704154b29f5588cdd4063d7c57a8d33c4b1b268bb3e99692",
      "blockNumber": "0x588292",
      "gasUsed": "0x1fe50",
      "effectiveGasPrice": "0x24b4e853",
      "from": "0x699bceebd59a5b52bb586c737cd7ba636f3fe602",
      "to": "0x23dd1aa37b5c81d64586c021330d61d3ad55aafb",
      "contractAddress": null
    }
  ],
  "libraries": [],
  "pending": [],
  "returns": {},
  "timestamp": 1714370799,
  "chain": 11155111,
  "commit": "9546700"
}