{
  "transactions": [
    {
      "hash": "0xef9df8592842a4ed3d3d68cce9bb567a213a5fdda97f781d593c13c2d953feb1",
      "transactionType": "CALL",
      "contractName": null,
      "contractAddress": "0x23dd1aa37b5c81d64586c021330d61d3ad55aafb",
      "function": "postMessage((address,uint256,uint256)[])",
      "arguments": [
        "[(0x699BceEbD59a5b52bB586C737cD7ba636f3Fe602, 80002, 11100000000000000), (0x699BceEbD59a5b52bB586C737cD7ba636f3Fe602, 80002, 11200000000000000), (0x699BceEbD59a5b52bB586C737cD7ba636f3Fe602, 80002, 11300000000000000), (0x699BceEbD59a5b52bB586C737cD7ba636f3Fe602, 80002, 11400000000000000), (0x699BceEbD59a5b52bB586C737cD7ba636f3Fe602, 80002, 11500000000000000), (0x699BceEbD59a5b52bB586C737cD7ba636f3Fe602, 80002, 11600000000000000), (0x699BceEbD59a5b52bB586C737cD7ba636f3Fe602, 80002, 11700000000000000), (0x699BceEbD59a5b52bB586C737cD7ba636f3Fe602, 80002, 11800000000000000), (0x699BceEbD59a5b52bB586C737cD7ba636f3Fe602, 80002, 11900000000000000), (0x699BceEbD59a5b52bB586C737cD7ba636f3Fe602, 80002, 12000000000000000)]"
      ],
      "transaction": {
        "from": "0x699bceebd59a5b52bb586c737cd7ba636f3fe602",
        "to": "0x23dd1aa37b5c81d64586c021330d61d3ad55aafb",
        "gas": "0x30e0b",
        "value": "0x214e8348c4f0000",
        "input": "0x42cbee8d0000000000000000000000000000000000000000000000000000000000000020000000000000000000000000000000000000000000000000000000000000000a000000000000000000000000699bceebd59a5b52bb586c737cd7ba636f3fe602000000000000000000000000000000000000000000000000000000000001388200000000000000000000000000000000000000000000000000276f642501c000000000000000000000000000699bceebd59a5b52bb586c737cd7ba636f3fe60200000000000000000000000000000000000000000000000000000000000138820000000000000000000000000000000000000000000000000027ca57357c0000000000000000000000000000699bceebd59a5b52bb586c737cd7ba636f3fe60200000000000000000000000000000000000000000000000000000000000138820000000000000000000000000000000000000000000000000028254a45f64000000000000000000000000000699bceebd59a5b52bb586c737cd7ba636f3fe60200000000000000000000000000000000000000000000000000000000000138820000000000000000000000000000000000000000000000000028803d56708000000000000000000000000000699bceebd59a5b52bb586c737cd7ba636f3fe60200000000000000000000000000000000000000000000000000000000000138820000000000000000000000000000000000000000000000000028db3066eac000000000000000000000000000699bceebd59a5b52bb586c737cd7ba636f3fe60200000000000000000000000000000000000000000000000000000000000138820000000000000000000000000000000000000000000000000029362377650000000000000000000000000000699bceebd59a5b52bb586c737cd7ba636f3fe60200000000000000000000000000000000000000000000000000000000000138820000000000000000000000000000000000000000000000000029911687df4000000000000000000000000000699bceebd59a5b52bb586c737cd7ba636f3fe60200000000000000000000000000000000000000000000000000000000000138820000000000000000000000000000000000000000000000000029ec0998598000000000000000000000000000699bceebd59a5b52bb586c737cd7ba636f3fe6020000000000000000000000000000000000000000000000000000000000013882000000000000000000000000000000000000000000000000002a46fca8d3c000000000000000000000000000699bceebd59a5b52bb586c737cd7ba636f3fe6020000000000000000000000000000000000000000000000000000000000013882000000000000000000000000000000000000000000000000002aa1efb94e0000",
        "nonce": "0x18d",
        "chainId": "0xaa36a7",
        "accessList": null,
        "type": null
      },
      "additionalContracts": [],
      "isFixedGasLimit": false
    }
  ],
  "receipts": [
    {
      "status": "0x1",
      "cumulativeGasUsed": "0x7bb21f",
      "logs": [
        {
          "address": "0x23dd1aa37b5c81d64586c021330d61d3ad55aafb",
          "topics": [
            "0x9853b992610853aa2f058d95d0a4868ffcd37470b93a5e6634619467e0d4228c",
            "0x850c11b17b77877d02753ceaaa148e3c5b19ce4c520b271164b81f248770224c",
            "0x000000000000000000000000699bceebd59a5b52bb586c737cd7ba636f3fe602",
            "0x00000000000000000000000000000000000000000000000000276f642501c000"
          ],
          "data": "0x0000000000000000000000000000000000000000000000000000000066303bb8000000000000000000000000699bceebd59a5b52bb586c737cd7ba636f3fe60200000000000000000000000000000000000000000000000000000000000138820000000000000000000000000000000000000000000000a2a15d09519be000000000000000000000000000000000000000000000000000000de0b6b3a7640000",
          "blockHash": "0x0b6b5bd7db70f8ff722b6e42c39e9dbdd4c1f4f88baaa2d66edda3389ce6f33e",
          "blockNumber": "0x58962f",
          "transactionHash": "0xef9df8592842a4ed3d3d68cce9bb567a213a5fdda97f781d593c13c2d953feb1",
          "transactionIndex": "0x53",
          "logIndex": "0x86",
          "removed": false
        },
        {
          "address": "0x23dd1aa37b5c81d64586c021330d61d3ad55aafb",
          "topics": [
            "0x9853b992610853aa2f058d95d0a4868ffcd37470b93a5e6634619467e0d4228c",
            "0xde7d4f24957a89d0794345ea71ab663415b0c2a4fdcb423bc2925597d68bd415",
            "0x000000000000000000000000699bceebd59a5b52bb586c737cd7ba636f3fe602",
            "0x0000000000000000000000000000000000000000000000000027ca57357c0000"
          ],
          "data": "0x0000000000000000000000000000000000000000000000000000000066303bb8000000000000000000000000699bceebd59a5b52bb586c737cd7ba636f3fe60200000000000000000000000000000000000000000000000000000000000138820000000000000000000000000000000000000000000000a2a15d09519be000000000000000000000000000000000000000000000000000000de0b6b3a7640000",
          "blockHash": "0x0b6b5bd7db70f8ff722b6e42c39e9dbdd4c1f4f88baaa2d66edda3389ce6f33e",
          "blockNumber": "0x58962f",
          "transactionHash": "0xef9df8592842a4ed3d3d68cce9bb567a213a5fdda97f781d593c13c2d953feb1",
          "transactionIndex": "0x53",
          "logIndex": "0x87",
          "removed": false
        },
        {
          "address": "0x23dd1aa37b5c81d64586c021330d61d3ad55aafb",
          "topics": [
            "0x9853b992610853aa2f058d95d0a4868ffcd37470b93a5e6634619467e0d4228c",
            "0xfa59b4fe25f3f302ce1e9d83f8e95293378f8f44898a497e81762c6f63f07386",
            "0x000000000000000000000000699bceebd59a5b52bb586c737cd7ba636f3fe602",
            "0x0000000000000000000000000000000000000000000000000028254a45f64000"
          ],
          "data": "0x0000000000000000000000000000000000000000000000000000000066303bb8000000000000000000000000699bceebd59a5b52bb586c737cd7ba636f3fe60200000000000000000000000000000000000000000000000000000000000138820000000000000000000000000000000000000000000000a2a15d09519be000000000000000000000000000000000000000000000000000000de0b6b3a7640000",
          "blockHash": "0x0b6b5bd7db70f8ff722b6e42c39e9dbdd4c1f4f88baaa2d66edda3389ce6f33e",
          "blockNumber": "0x58962f",
          "transactionHash": "0xef9df8592842a4ed3d3d68cce9bb567a213a5fdda97f781d593c13c2d953feb1",
          "transactionIndex": "0x53",
          "logIndex": "0x88",
          "removed": false
        },
        {
          "address": "0x23dd1aa37b5c81d64586c021330d61d3ad55aafb",
          "topics": [
            "0x9853b992610853aa2f058d95d0a4868ffcd37470b93a5e6634619467e0d4228c",
            "0x327dafba12a39cd6f607d2b251b3372552d2e364e00529aa30e1fe783f64c0c4",
            "0x000000000000000000000000699bceebd59a5b52bb586c737cd7ba636f3fe602",
            "0x0000000000000000000000000000000000000000000000000028803d56708000"
          ],
          "data": "0x0000000000000000000000000000000000000000000000000000000066303bb8000000000000000000000000699bceebd59a5b52bb586c737cd7ba636f3fe60200000000000000000000000000000000000000000000000000000000000138820000000000000000000000000000000000000000000000a2a15d09519be000000000000000000000000000000000000000000000000000000de0b6b3a7640000",
          "blockHash": "0x0b6b5bd7db70f8ff722b6e42c39e9dbdd4c1f4f88baaa2d66edda3389ce6f33e",
          "blockNumber": "0x58962f",
          "transactionHash": "0xef9df8592842a4ed3d3d68cce9bb567a213a5fdda97f781d593c13c2d953feb1",
          "transactionIndex": "0x53",
          "logIndex": "0x89",
          "removed": false
        },
        {
          "address": "0x23dd1aa37b5c81d64586c021330d61d3ad55aafb",
          "topics": [
            "0x9853b992610853aa2f058d95d0a4868ffcd37470b93a5e6634619467e0d4228c",
            "0x6fc26f999bcc2199fb82468a84d3f50fcd097ed7c57953762819024fce4a6c50",
            "0x000000000000000000000000699bceebd59a5b52bb586c737cd7ba636f3fe602",
            "0x0000000000000000000000000000000000000000000000000028db3066eac000"
          ],
          "data": "0x0000000000000000000000000000000000000000000000000000000066303bb8000000000000000000000000699bceebd59a5b52bb586c737cd7ba636f3fe60200000000000000000000000000000000000000000000000000000000000138820000000000000000000000000000000000000000000000a2a15d09519be000000000000000000000000000000000000000000000000000000de0b6b3a7640000",
          "blockHash": "0x0b6b5bd7db70f8ff722b6e42c39e9dbdd4c1f4f88baaa2d66edda3389ce6f33e",
          "blockNumber": "0x58962f",
          "transactionHash": "0xef9df8592842a4ed3d3d68cce9bb567a213a5fdda97f781d593c13c2d953feb1",
          "transactionIndex": "0x53",
          "logIndex": "0x8a",
          "removed": false
        },
        {
          "address": "0x23dd1aa37b5c81d64586c021330d61d3ad55aafb",
          "topics": [
            "0x9853b992610853aa2f058d95d0a4868ffcd37470b93a5e6634619467e0d4228c",
            "0x1e293736c520da5cdc3d4b3bd7a0c5ab3337f548ed504593b61f0e80f80e0345",
            "0x000000000000000000000000699bceebd59a5b52bb586c737cd7ba636f3fe602",
            "0x0000000000000000000000000000000000000000000000000029362377650000"
          ],
          "data": "0x0000000000000000000000000000000000000000000000000000000066303bb8000000000000000000000000699bceebd59a5b52bb586c737cd7ba636f3fe60200000000000000000000000000000000000000000000000000000000000138820000000000000000000000000000000000000000000000a2a15d09519be000000000000000000000000000000000000000000000000000000de0b6b3a7640000",
          "blockHash": "0x0b6b5bd7db70f8ff722b6e42c39e9dbdd4c1f4f88baaa2d66edda3389ce6f33e",
          "blockNumber": "0x58962f",
          "transactionHash": "0xef9df8592842a4ed3d3d68cce9bb567a213a5fdda97f781d593c13c2d953feb1",
          "transactionIndex": "0x53",
          "logIndex": "0x8b",
          "removed": false
        },
        {
          "address": "0x23dd1aa37b5c81d64586c021330d61d3ad55aafb",
          "topics": [
            "0x9853b992610853aa2f058d95d0a4868ffcd37470b93a5e6634619467e0d4228c",
            "0x9c900deb1e5b9784509387a6d368a14a2345d0949534ce8d68389738a5fe00e3",
            "0x000000000000000000000000699bceebd59a5b52bb586c737cd7ba636f3fe602",
            "0x0000000000000000000000000000000000000000000000000029911687df4000"
          ],
          "data": "0x0000000000000000000000000000000000000000000000000000000066303bb8000000000000000000000000699bceebd59a5b52bb586c737cd7ba636f3fe60200000000000000000000000000000000000000000000000000000000000138820000000000000000000000000000000000000000000000a2a15d09519be000000000000000000000000000000000000000000000000000000de0b6b3a7640000",
          "blockHash": "0x0b6b5bd7db70f8ff722b6e42c39e9dbdd4c1f4f88baaa2d66edda3389ce6f33e",
          "blockNumber": "0x58962f",
          "transactionHash": "0xef9df8592842a4ed3d3d68cce9bb567a213a5fdda97f781d593c13c2d953feb1",
          "transactionIndex": "0x53",
          "logIndex": "0x8c",
          "removed": false
        },
        {
          "address": "0x23dd1aa37b5c81d64586c021330d61d3ad55aafb",
          "topics": [
            "0x9853b992610853aa2f058d95d0a4868ffcd37470b93a5e6634619467e0d4228c",
            "0x459c88b5d20f0921b8d44f8c9409a4af8941919e0045f60ec8996ef7e9ddf0b8",
            "0x000000000000000000000000699bceebd59a5b52bb586c737cd7ba636f3fe602",
            "0x0000000000000000000000000000000000000000000000000029ec0998598000"
          ],
          "data": "0x0000000000000000000000000000000000000000000000000000000066303bb8000000000000000000000000699bceebd59a5b52bb586c737cd7ba636f3fe60200000000000000000000000000000000000000000000000000000000000138820000000000000000000000000000000000000000000000a2a15d09519be000000000000000000000000000000000000000000000000000000de0b6b3a7640000",
          "blockHash": "0x0b6b5bd7db70f8ff722b6e42c39e9dbdd4c1f4f88baaa2d66edda3389ce6f33e",
          "blockNumber": "0x58962f",
          "transactionHash": "0xef9df8592842a4ed3d3d68cce9bb567a213a5fdda97f781d593c13c2d953feb1",
          "transactionIndex": "0x53",
          "logIndex": "0x8d",
          "removed": false
        },
        {
          "address": "0x23dd1aa37b5c81d64586c021330d61d3ad55aafb",
          "topics": [
            "0x9853b992610853aa2f058d95d0a4868ffcd37470b93a5e6634619467e0d4228c",
            "0x9bb035bd3faaa8c6d8850cf210b067b420a6e00cf8eb6baccbaa7e755009e66c",
            "0x000000000000000000000000699bceebd59a5b52bb586c737cd7ba636f3fe602",
            "0x000000000000000000000000000000000000000000000000002a46fca8d3c000"
          ],
          "data": "0x0000000000000000000000000000000000000000000000000000000066303bb8000000000000000000000000699bceebd59a5b52bb586c737cd7ba636f3fe60200000000000000000000000000000000000000000000000000000000000138820000000000000000000000000000000000000000000000a2a15d09519be000000000000000000000000000000000000000000000000000000de0b6b3a7640000",
          "blockHash": "0x0b6b5bd7db70f8ff722b6e42c39e9dbdd4c1f4f88baaa2d66edda3389ce6f33e",
          "blockNumber": "0x58962f",
          "transactionHash": "0xef9df8592842a4ed3d3d68cce9bb567a213a5fdda97f781d593c13c2d953feb1",
          "transactionIndex": "0x53",
          "logIndex": "0x8e",
          "removed": false
        },
        {
          "address": "0x23dd1aa37b5c81d64586c021330d61d3ad55aafb",
          "topics": [
            "0x9853b992610853aa2f058d95d0a4868ffcd37470b93a5e6634619467e0d4228c",
            "0xfab2a8d85f58c4a6b252ab39229b761e3a1762cb228cc962d9b802fc5964ec97",
            "0x000000000000000000000000699bceebd59a5b52bb586c737cd7ba636f3fe602",
            "0x000000000000000000000000000000000000000000000000002aa1efb94e0000"
          ],
          "data": "0x0000000000000000000000000000000000000000000000000000000066303bb8000000000000000000000000699bceebd59a5b52bb586c737cd7ba636f3fe60200000000000000000000000000000000000000000000000000000000000138820000000000000000000000000000000000000000000000a2a15d09519be000000000000000000000000000000000000000000000000000000de0b6b3a7640000",
          "blockHash": "0x0b6b5bd7db70f8ff722b6e42c39e9dbdd4c1f4f88baaa2d66edda3389ce6f33e",
          "blockNumber": "0x58962f",
          "transactionHash": "0xef9df8592842a4ed3d3d68cce9bb567a213a5fdda97f781d593c13c2d953feb1",
          "transactionIndex": "0x53",
          "logIndex": "0x8f",
          "removed": false
        }
      ],
      "logsBloom": "0x0000000840000000000000000000000020000000000020000040000000004000002040001000021000004080000000100000000000000000000000000040000001000000000008000000000080000000000000000000000000010000000000000080800000080200000000040000000000000000800000000000000000000400400100000c202000004000000250020000000000000002000000040000080000000002000000000014018000000000000000000000004008400000040000000000000000000000000000004000008000000000000120000000000000000000000c00010200000000005001200000010000000100200000020010000000000880",
      "type": "0x2",
      "transactionHash": "0xef9df8592842a4ed3d3d68cce9bb567a213a5fdda97f781d593c13c2d953feb1",
      "transactionIndex": "0x53",
      "blockHash": "0x0b6b5bd7db70f8ff722b6e42c39e9dbdd4c1f4f88baaa2d66edda3389ce6f33e",
      "blockNumber": "0x58962f",
      "gasUsed": "0x23630",
      "effectiveGasPrice": "0x20d56f55",
      "from": "0x699bceebd59a5b52bb586c737cd7ba636f3fe602",
      "to": "0x23dd1aa37b5c81d64586c021330d61d3ad55aafb",
      "contractAddress": null
    }
  ],
  "libraries": [],
  "pending": [],
  "returns": {},
  "timestamp": 1714437054,
  "chain": 11155111,
  "commit": "9546700"
}