{
  "transactions": [
    {
      "hash": "0x14a061553ae4b71bbd36f83586d79a07b057de96e86e0d8fa5590f06d485cd36",
      "transactionType": "CALL",
      "contractName": null,
      "contractAddress": "0x23dd1aa37b5c81d64586c021330d61d3ad55aafb",
      "function": "postMessage((address,uint256,uint256)[])",
      "arguments": [
        "[(0x699BceEbD59a5b52bB586C737cD7ba636f3Fe602, 80002, 11100000000000000), (0x699BceEbD59a5b52bB586C737cD7ba636f3Fe602, 80002, 11200000000000000), (0x699BceEbD59a5b52bB586C737cD7ba636f3Fe602, 80002, 11300000000000000), (0x699BceEbD59a5b52bB586C737cD7ba636f3Fe602, 80002, 11400000000000000), (0x699BceEbD59a5b52bB586C737cD7ba636f3Fe602, 80002, 11500000000000000)]"
      ],
      "transaction": {
        "from": "0x699bceebd59a5b52bb586c737cd7ba636f3fe602",
        "to": "0x23dd1aa37b5c81d64586c021330d61d3ad55aafb",
        "gas": "0x2a258",
        "value": "0xd529ae9e860000",
        "input": "0x42cbee8d00000000000000000000000000000000000000000000000000000000000000200000000000000000000000000000000000000000000000000000000000000005000000000000000000000000699bceebd59a5b52bb586c737cd7ba636f3fe602000000000000000000000000000000000000000000000000000000000001388200000000000000000000000000000000000000000000000000276f642501c000000000000000000000000000699bceebd59a5b52bb586c737cd7ba636f3fe60200000000000000000000000000000000000000000000000000000000000138820000000000000000000000000000000000000000000000000027ca57357c0000000000000000000000000000699bceebd59a5b52bb586c737cd7ba636f3fe60200000000000000000000000000000000000000000000000000000000000138820000000000000000000000000000000000000000000000000028254a45f64000000000000000000000000000699bceebd59a5b52bb586c737cd7ba636f3fe60200000000000000000000000000000000000000000000000000000000000138820000000000000000000000000000000000000000000000000028803d56708000000000000000000000000000699bceebd59a5b52bb586c737cd7ba636f3fe60200000000000000000000000000000000000000000000000000000000000138820000000000000000000000000000000000000000000000000028db3066eac000",
        "nonce": "0x163",
        "chainId": "0xaa36a7",
        "accessList": null,
        "type": null
      },
      "additionalContracts": [],
      "isFixedGasLimit": false
    }
  ],
  "receipts": [
    {
      "status": "0x1",
      "cumulativeGasUsed": "0xb883a0",
      "logs": [
        {
          "address": "0x23dd1aa37b5c81d64586c021330d61d3ad55aafb",
          "topics": [
            "0x9853b992610853aa2f058d95d0a4868ffcd37470b93a5e6634619467e0d4228c",
            "0x67e3344e22ccba3afdb1988f1d0627b45fafabbc348bbf6a56d8ceb8ea3b0d46",
            "0x000000000000000000000000699bceebd59a5b52bb586c737cd7ba636f3fe602",
            "0x00000000000000000000000000000000000000000000000000276f642501c000"
          ],
          "data": "0x00000000000000000000000000000000000000000000000000000000662e8840000000000000000000000000699bceebd59a5b52bb586c737cd7ba636f3fe60200000000000000000000000000000000000000000000000000000000000138820000000000000000000000000000000000000000000000a2a15d09519be000000000000000000000000000000000000000000000000000000de0b6b3a7640000",
          "blockHash": "0xb8fe4be2866167f95c1cb4b9b5d9b86026c23db0c161e23a8bfc111c4ae1245c",
          "blockNumber": "0x5874b7",
          "transactionHash": "0x14a061553ae4b71bbd36f83586d79a07b057de96e86e0d8fa5590f06d485cd36",
          "transactionIndex": "0x48",
          "logIndex": "0x66",
          "removed": false
        },
        {
          "address": "0x23dd1aa37b5c81d64586c021330d61d3ad55aafb",
          "topics": [
            "0x9853b992610853aa2f058d95d0a4868ffcd37470b93a5e6634619467e0d4228c",
            "0x8d7e49c8b3087ba2a49623c6d27440e356ee499ce67aa6ce31d664772c6e8c8d",
            "0x000000000000000000000000699bceebd59a5b52bb586c737cd7ba636f3fe602",
            "0x0000000000000000000000000000000000000000000000000027ca57357c0000"
          ],
          "data": "0x00000000000000000000000000000000000000000000000000000000662e8840000000000000000000000000699bceebd59a5b52bb586c737cd7ba636f3fe60200000000000000000000000000000000000000000000000000000000000138820000000000000000000000000000000000000000000000a2a15d09519be000000000000000000000000000000000000000000000000000000de0b6b3a7640000",
          "blockHash": "0xb8fe4be2866167f95c1cb4b9b5d9b86026c23db0c161e23a8bfc111c4ae1245c",
          "blockNumber": "0x5874b7",
          "transactionHash": "0x14a061553ae4b71bbd36f83586d79a07b057de96e86e0d8fa5590f06d485cd36",
          "transactionIndex": "0x48",
          "logIndex": "0x67",
          "removed": false
        },
        {
          "address": "0x23dd1aa37b5c81d64586c021330d61d3ad55aafb",
          "topics": [
            "0x9853b992610853aa2f058d95d0a4868ffcd37470b93a5e6634619467e0d4228c",
            "0x391ea5a48321e5f04b09f681a34ed4df803de5b208670af805c997aae182a209",
            "0x000000000000000000000000699bceebd59a5b52bb586c737cd7ba636f3fe602",
            "0x0000000000000000000000000000000000000000000000000028254a45f64000"
          ],
          "data": "0x00000000000000000000000000000000000000000000000000000000662e8840000000000000000000000000699bceebd59a5b52bb586c737cd7ba636f3fe60200000000000000000000000000000000000000000000000000000000000138820000000000000000000000000000000000000000000000a2a15d09519be000000000000000000000000000000000000000000000000000000de0b6b3a7640000",
          "blockHash": "0xb8fe4be2866167f95c1cb4b9b5d9b86026c23db0c161e23a8bfc111c4ae1245c",
          "blockNumber": "0x5874b7",
          "transactionHash": "0x14a061553ae4b71bbd36f83586d79a07b057de96e86e0d8fa5590f06d485cd36",
          "transactionIndex": "0x48",
          "logIndex": "0x68",
          "removed": false
        },
        {
          "address": "0x23dd1aa37b5c81d64586c021330d61d3ad55aafb",
          "topics": [
            "0x9853b992610853aa2f058d95d0a4868ffcd37470b93a5e6634619467e0d4228c",
            "0x6843b9e1fca2fbe6383979d608102ce16f31fee11c7df6b34bb3ac8239f2b70e",
            "0x000000000000000000000000699bceebd59a5b52bb586c737cd7ba636f3fe602",
            "0x0000000000000000000000000000000000000000000000000028803d56708000"
          ],
          "data": "0x00000000000000000000000000000000000000000000000000000000662e8840000000000000000000000000699bceebd59a5b52bb586c737cd7ba636f3fe60200000000000000000000000000000000000000000000000000000000000138820000000000000000000000000000000000000000000000a2a15d09519be000000000000000000000000000000000000000000000000000000de0b6b3a7640000",
          "blockHash": "0xb8fe4be2866167f95c1cb4b9b5d9b86026c23db0c161e23a8bfc111c4ae1245c",
          "blockNumber": "0x5874b7",
          "transactionHash": "0x14a061553ae4b71bbd36f83586d79a07b057de96e86e0d8fa5590f06d485cd36",
          "transactionIndex": "0x48",
          "logIndex": "0x69",
          "removed": false
        },
        {
          "address": "0x23dd1aa37b5c81d64586c021330d61d3ad55aafb",
          "topics": [
            "0x9853b992610853aa2f058d95d0a4868ffcd37470b93a5e6634619467e0d4228c",
            "0x54e0b6ccb7d084a8dfcc052b52b700319559f3100d2f1135918974ab07a307b5",
            "0x000000000000000000000000699bceebd59a5b52bb586c737cd7ba636f3fe602",
            "0x0000000000000000000000000000000000000000000000000028db3066eac000"
          ],
          "data": "0x00000000000000000000000000000000000000000000000000000000662e8840000000000000000000000000699bceebd59a5b52bb586c737cd7ba636f3fe60200000000000000000000000000000000000000000000000000000000000138820000000000000000000000000000000000000000000000a2a15d09519be000000000000000000000000000000000000000000000000000000de0b6b3a7640000",
          "blockHash": "0xb8fe4be2866167f95c1cb4b9b5d9b86026c23db0c161e23a8bfc111c4ae1245c",
          "blockNumber": "0x5874b7",
          "transactionHash": "0x14a061553ae4b71bbd36f83586d79a07b057de96e86e0d8fa5590f06d485cd36",
          "transactionIndex": "0x48",
          "logIndex": "0x6a",
          "removed": false
        }
      ],
      "logsBloom": "0x00000000000000000000000040000000200000000000000000400000000000000000410000100010000000c00000001000000000000000000000000000000008010000000000000000000000000000000002000000000000000000000000100000800000000000000000000400000000000000008000000000000000000100000000000000000000000000000210020000000000000000000000000000000000000040000000000004000000000000000000000000000000004000040000000000000000000000000200004000008000100000200000000000000000000000000000010200000000005001000000000000000100200000080000000000000000",
      "type": "0x2",
      "transactionHash": "0x14a061553ae4b71bbd36f83586d79a07b057de96e86e0d8fa5590f06d485cd36",
      "transactionIndex": "0x48",
      "blockHash": "0xb8fe4be2866167f95c1cb4b9b5d9b86026c23db0c161e23a8bfc111c4ae1245c",
      "blockNumber": "0x5874b7",
      "gasUsed": "0x1e837",
      "effectiveGasPrice": "0x3b912d7a",
      "from": "0x699bceebd59a5b52bb586c737cd7ba636f3fe602",
      "to": "0x23dd1aa37b5c81d64586c021330d61d3ad55aafb",
      "contractAddress": null
    }
  ],
  "libraries": [],
  "pending": [],
  "returns": {},
  "timestamp": 1714325573,
  "chain": 11155111,
  "commit": "9546700"
}