{
  "transactions": [
    {
      "hash": "0x5ab156837a85d795875b7a619c3a80a8f2c866347c1a44db8943d516133f40e4",
      "transactionType": "CALL",
      "contractName": null,
      "contractAddress": "0x23dd1aa37b5c81d64586c021330d61d3ad55aafb",
      "function": "postMessage((address,uint256,uint256)[])",
      "arguments": [
        "[(0x699BceEbD59a5b52bB586C737cD7ba636f3Fe602, 80002, 11100000000000000), (0x699BceEbD59a5b52bB586C737cD7ba636f3Fe602, 80002, 11200000000000000), (0x699BceEbD59a5b52bB586C737cD7ba636f3Fe602, 80002, 11300000000000000), (0x699BceEbD59a5b52bB586C737cD7ba636f3Fe602, 80002, 11400000000000000), (0x699BceEbD59a5b52bB586C737cD7ba636f3Fe602, 80002, 11500000000000000)]"
      ],
      "transaction": {
        "from": "0x699bceebd59a5b52bb586c737cd7ba636f3fe602",
        "to": "0x23dd1aa37b5c81d64586c021330d61d3ad55aafb",
        "gas": "0x274b6",
        "value": "0xd529ae9e860000",
        "input": "0x42cbee8d00000000000000000000000000000000000000000000000000000000000000200000000000000000000000000000000000000000000000000000000000000005000000000000000000000000699bceebd59a5b52bb586c737cd7ba636f3fe602000000000000000000000000000000000000000000000000000000000001388200000000000000000000000000000000000000000000000000276f642501c000000000000000000000000000699bceebd59a5b52bb586c737cd7ba636f3fe60200000000000000000000000000000000000000000000000000000000000138820000000000000000000000000000000000000000000000000027ca57357c0000000000000000000000000000699bceebd59a5b52bb586c737cd7ba636f3fe60200000000000000000000000000000000000000000000000000000000000138820000000000000000000000000000000000000000000000000028254a45f64000000000000000000000000000699bceebd59a5b52bb586c737cd7ba636f3fe60200000000000000000000000000000000000000000000000000000000000138820000000000000000000000000000000000000000000000000028803d56708000000000000000000000000000699bceebd59a5b52bb586c737cd7ba636f3fe60200000000000000000000000000000000000000000000000000000000000138820000000000000000000000000000000000000000000000000028db3066eac000",
        "nonce": "0x179",
        "chainId": "0xaa36a7",
        "accessList": null,
        "type": null
      },
      "additionalContracts": [],
      "isFixedGasLimit": false
    }
  ],
  "receipts": [
    {
      "status": "0x1",
      "cumulativeGasUsed": "0xdbe758",
      "logs": [
        {
          "address": "0x23dd1aa37b5c81d64586c021330d61d3ad55aafb",
          "topics": [
            "0x9853b992610853aa2f058d95d0a4868ffcd37470b93a5e6634619467e0d4228c",
            "0xa5f56dd08f5eb9689b14d9b7974801dae53abe17fa4a3facac9359376f084421",
            "0x000000000000000000000000699bceebd59a5b52bb586c737cd7ba636f3fe602",
            "0x00000000000000000000000000000000000000000000000000276f642501c000"
          ],
          "data": "0x00000000000000000000000000000000000000000000000000000000662ffb38000000000000000000000000699bceebd59a5b52bb586c737cd7ba636f3fe60200000000000000000000000000000000000000000000000000000000000138820000000000000000000000000000000000000000000000a2a15d09519be000000000000000000000000000000000000000000000000000000de0b6b3a7640000",
          "blockHash": "0x2a58390290eca9284c44491067b22b27fa71569dbe1a77321605e99b88f06abf",
          "blockNumber": "0x589172",
          "transactionHash": "0x5ab156837a85d795875b7a619c3a80a8f2c866347c1a44db8943d516133f40e4",
          "transactionIndex": "0x30",
          "logIndex": "0x9e",
          "removed": false
        },
        {
          "address": "0x23dd1aa37b5c81d64586c021330d61d3ad55aafb",
          "topics": [
            "0x9853b992610853aa2f058d95d0a4868ffcd37470b93a5e6634619467e0d4228c",
            "0x546d8b44ecc791ab9fce773fb96ac23ddcf142f524da923aae3138bf2ccf2dd2",
            "0x000000000000000000000000699bceebd59a5b52bb586c737cd7ba636f3fe602",
            "0x0000000000000000000000000000000000000000000000000027ca57357c0000"
          ],
          "data": "0x00000000000000000000000000000000000000000000000000000000662ffb38000000000000000000000000699bceebd59a5b52bb586c737cd7ba636f3fe60200000000000000000000000000000000000000000000000000000000000138820000000000000000000000000000000000000000000000a2a15d09519be000000000000000000000000000000000000000000000000000000de0b6b3a7640000",
          "blockHash": "0x2a58390290eca9284c44491067b22b27fa71569dbe1a77321605e99b88f06abf",
          "blockNumber": "0x589172",
          "transactionHash": "0x5ab156837a85d795875b7a619c3a80a8f2c866347c1a44db8943d516133f40e4",
          "transactionIndex": "0x30",
          "logIndex": "0x9f",
          "removed": false
        },
        {
          "address": "0x23dd1aa37b5c81d64586c021330d61d3ad55aafb",
          "topics": [
            "0x9853b992610853aa2f058d95d0a4868ffcd37470b93a5e6634619467e0d4228c",
            "0x9cdaf60a840cb9b04c3add0f00effa14b9407bdb5c89d7be6bf101695c829faa",
            "0x000000000000000000000000699bceebd59a5b52bb586c737cd7ba636f3fe602",
            "0x0000000000000000000000000000000000000000000000000028254a45f64000"
          ],
          "data": "0x00000000000000000000000000000000000000000000000000000000662ffb38000000000000000000000000699bceebd59a5b52bb586c737cd7ba636f3fe60200000000000000000000000000000000000000000000000000000000000138820000000000000000000000000000000000000000000000a2a15d09519be000000000000000000000000000000000000000000000000000000de0b6b3a7640000",
          "blockHash": "0x2a58390290eca9284c44491067b22b27fa71569dbe1a77321605e99b88f06abf",
          "blockNumber": "0x589172",
          "transactionHash": "0x5ab156837a85d795875b7a619c3a80a8f2c866347c1a44db8943d516133f40e4",
          "transactionIndex": "0x30",
          "logIndex": "0xa0",
          "removed": false
        },
        {
          "address": "0x23dd1aa37b5c81d64586c021330d61d3ad55aafb",
          "topics": [
            "0x9853b992610853aa2f058d95d0a4868ffcd37470b93a5e6634619467e0d4228c",
            "0xc05128941013568d2eaf82749e7992f042977d3c1cabf21c97b80aa5fdc52bcf",
            "0x000000000000000000000000699bceebd59a5b52bb586c737cd7ba636f3fe602",
            "0x0000000000000000000000000000000000000000000000000028803d56708000"
          ],
          "data": "0x00000000000000000000000000000000000000000000000000000000662ffb38000000000000000000000000699bceebd59a5b52bb586c737cd7ba636f3fe60200000000000000000000000000000000000000000000000000000000000138820000000000000000000000000000000000000000000000a2a15d09519be000000000000000000000000000000000000000000000000000000de0b6b3a7640000",
          "blockHash": "0x2a58390290eca9284c44491067b22b27fa71569dbe1a77321605e99b88f06abf",
          "blockNumber": "0x589172",
          "transactionHash": "0x5ab156837a85d795875b7a619c3a80a8f2c866347c1a44db8943d516133f40e4",
          "transactionIndex": "0x30",
          "logIndex": "0xa1",
          "removed": false
        },
        {
          "address": "0x23dd1aa37b5c81d64586c021330d61d3ad55aafb",
          "topics": [
            "0x9853b992610853aa2f058d95d0a4868ffcd37470b93a5e6634619467e0d4228c",
            "0xa44c1e73390c67660369b0a463356f25894163481d3d9bfd4d98cb0832dc12cb",
            "0x000000000000000000000000699bceebd59a5b52bb586c737cd7ba636f3fe602",
            "0x0000000000000000000000000000000000000000000000000028db3066eac000"
          ],
          "data": "0x00000000000000000000000000000000000000000000000000000000662ffb38000000000000000000000000699bceebd59a5b52bb586c737cd7ba636f3fe60200000000000000000000000000000000000000000000000000000000000138820000000000000000000000000000000000000000000000a2a15d09519be000000000000000000000000000000000000000000000000000000de0b6b3a7640000",
          "blockHash": "0x2a58390290eca9284c44491067b22b27fa71569dbe1a77321605e99b88f06abf",
          "blockNumber": "0x589172",
          "transactionHash": "0x5ab156837a85d795875b7a619c3a80a8f2c866347c1a44db8943d516133f40e4",
          "transactionIndex": "0x30",
          "logIndex": "0xa2",
          "removed": false
        }
      ],
      "logsBloom": "0x00000001000000000000000000000000200000000000000000400000000000000000400000000010800000800000001000000000000800040000000000000000010000000000000000000000000000000000000000000000100000000000000010800000000000200000000400000000800000008000000000000000000000000000000000000000000000000210020010000000000000000000000000000000000000100000000004000000000000000000000000000000000000040000001000000000000000000000004000008000000004000000000000000000000080000000010200000000005001000000000008000100200000000000200000000000",
      "type": "0x2",
      "transactionHash": "0x5ab156837a85d795875b7a619c3a80a8f2c866347c1a44db8943d516133f40e4",
      "transactionIndex": "0x30",
      "blockHash": "0x2a58390290eca9284c44491067b22b27fa71569dbe1a77321605e99b88f06abf",
      "blockNumber": "0x589172",
      "gasUsed": "0x1c72e",
      "effectiveGasPrice": "0x4a00c65e",
      "from": "0x699bceebd59a5b52bb586c737cd7ba636f3fe602",
      "to": "0x23dd1aa37b5c81d64586c021330d61d3ad55aafb",
      "contractAddress": null
    }
  ],
  "libraries": [],
  "pending": [],
  "returns": {},
  "timestamp": 1714420540,
  "chain": 11155111,
  "commit": "9546700"
}