{
  "transactions": [
    {
      "hash": "0x6134883e611830e334331cd5779455dd4cbcdfa171e0b84674fa81a721fbf195",
      "transactionType": "CALL",
      "contractName": null,
      "contractAddress": "0x23dd1aa37b5c81d64586c021330d61d3ad55aafb",
      "function": "postMessage((address,uint256,uint256)[])",
      "arguments": [
        "[(0x699BceEbD59a5b52bB586C737cD7ba636f3Fe602, 80002, 11100000000000000), (0x699BceEbD59a5b52bB586C737cD7ba636f3Fe602, 80002, 11200000000000000), (0x699BceEbD59a5b52bB586C737cD7ba636f3Fe602, 80002, 11300000000000000), (0x699BceEbD59a5b52bB586C737cD7ba636f3Fe602, 80002, 11400000000000000), (0x699BceEbD59a5b52bB586C737cD7ba636f3Fe602, 80002, 11500000000000000)]"
      ],
      "transaction": {
        "from": "0x699bceebd59a5b52bb586c737cd7ba636f3fe602",
        "to": "0x23dd1aa37b5c81d64586c021330d61d3ad55aafb",
        "gas": "0x274b6",
        "value": "0xd529ae9e860000",
        "input": "0x42cbee8d00000000000000000000000000000000000000000000000000000000000000200000000000000000000000000000000000000000000000000000000000000005000000000000000000000000699bceebd59a5b52bb586c737cd7ba636f3fe602000000000000000000000000000000000000000000000000000000000001388200000000000000000000000000000000000000000000000000276f642501c000000000000000000000000000699bceebd59a5b52bb586c737cd7ba636f3fe60200000000000000000000000000000000000000000000000000000000000138820000000000000000000000000000000000000000000000000027ca57357c0000000000000000000000000000699bceebd59a5b52bb586c737cd7ba636f3fe60200000000000000000000000000000000000000000000000000000000000138820000000000000000000000000000000000000000000000000028254a45f64000000000000000000000000000699bceebd59a5b52bb586c737cd7ba636f3fe60200000000000000000000000000000000000000000000000000000000000138820000000000000000000000000000000000000000000000000028803d56708000000000000000000000000000699bceebd59a5b52bb586c737cd7ba636f3fe60200000000000000000000000000000000000000000000000000000000000138820000000000000000000000000000000000000000000000000028db3066eac000",
        "nonce": "0x15d",
        "chainId": "0xaa36a7",
        "accessList": null,
        "type": null
      },
      "additionalContracts": [],
      "isFixedGasLimit": false
    }
  ],
  "receipts": [
    {
      "status": "0x1",
      "cumulativeGasUsed": "0x95a199",
      "logs": [
        {
          "address": "0x23dd1aa37b5c81d64586c021330d61d3ad55aafb",
          "topics": [
            "0x9853b992610853aa2f058d95d0a4868ffcd37470b93a5e6634619467e0d4228c",
            "0x170af3ceaddeb334751ab899850c1e80bb71b64fb65166fc45c9b64bf7d319a8",
            "0x000000000000000000000000699bceebd59a5b52bb586c737cd7ba636f3fe602",
            "0x00000000000000000000000000000000000000000000000000276f642501c000"
          ],
          "data": "0x00000000000000000000000000000000000000000000000000000000662e62c0000000000000000000000000699bceebd59a5b52bb586c737cd7ba636f3fe60200000000000000000000000000000000000000000000000000000000000138820000000000000000000000000000000000000000000000a2a15d09519be000000000000000000000000000000000000000000000000000000de0b6b3a7640000",
          "blockHash": "0x25c53b542b03b52120578642107e350cb9e11429cca7890d6363ebef5e0e5f18",
          "blockNumber": "0x5871ab",
          "transactionHash": "0x6134883e611830e334331cd5779455dd4cbcdfa171e0b84674fa81a721fbf195",
          "transactionIndex": "0x59",
          "logIndex": "0xbf",
          "removed": false
        },
        {
          "address": "0x23dd1aa37b5c81d64586c021330d61d3ad55aafb",
          "topics": [
            "0x9853b992610853aa2f058d95d0a4868ffcd37470b93a5e6634619467e0d4228c",
            "0x86407f1e51fe9d9eab38cdd2aed122cc6015f8acab35ca6fd04950320242ed46",
            "0x000000000000000000000000699bceebd59a5b52bb586c737cd7ba636f3fe602",
            "0x0000000000000000000000000000000000000000000000000027ca57357c0000"
          ],
          "data": "0x00000000000000000000000000000000000000000000000000000000662e62c0000000000000000000000000699bceebd59a5b52bb586c737cd7ba636f3fe60200000000000000000000000000000000000000000000000000000000000138820000000000000000000000000000000000000000000000a2a15d09519be000000000000000000000000000000000000000000000000000000de0b6b3a7640000",
          "blockHash": "0x25c53b542b03b52120578642107e350cb9e11429cca7890d6363ebef5e0e5f18",
          "blockNumber": "0x5871ab",
          "transactionHash": "0x6134883e611830e334331cd5779455dd4cbcdfa171e0b84674fa81a721fbf195",
          "transactionIndex": "0x59",
          "logIndex": "0xc0",
          "removed": false
        },
        {
          "address": "0x23dd1aa37b5c81d64586c021330d61d3ad55aafb",
          "topics": [
            "0x9853b992610853aa2f058d95d0a4868ffcd37470b93a5e6634619467e0d4228c",
            "0x63592091213eeb6b487db87814c0663ba4c3796744160537f2e2c4296b330ec3",
            "0x000000000000000000000000699bceebd59a5b52bb586c737cd7ba636f3fe602",
            "0x0000000000000000000000000000000000000000000000000028254a45f64000"
          ],
          "data": "0x00000000000000000000000000000000000000000000000000000000662e62c0000000000000000000000000699bceebd59a5b52bb586c737cd7ba636f3fe60200000000000000000000000000000000000000000000000000000000000138820000000000000000000000000000000000000000000000a2a15d09519be000000000000000000000000000000000000000000000000000000de0b6b3a7640000",
          "blockHash": "0x25c53b542b03b52120578642107e350cb9e11429cca7890d6363ebef5e0e5f18",
          "blockNumber": "0x5871ab",
          "transactionHash": "0x6134883e611830e334331cd5779455dd4cbcdfa171e0b84674fa81a721fbf195",
          "transactionIndex": "0x59",
          "logIndex": "0xc1",
          "removed": false
        },
        {
          "address": "0x23dd1aa37b5c81d64586c021330d61d3ad55aafb",
          "topics": [
            "0x9853b992610853aa2f058d95d0a4868ffcd37470b93a5e6634619467e0d4228c",
            "0xda08d3c71bb378687f3fea200c7710b45c0f54cb48706f26c6857b9b160112aa",
            "0x000000000000000000000000699bceebd59a5b52bb586c737cd7ba636f3fe602",
            "0x0000000000000000000000000000000000000000000000000028803d56708000"
          ],
          "data": "0x00000000000000000000000000000000000000000000000000000000662e62c0000000000000000000000000699bceebd59a5b52bb586c737cd7ba636f3fe60200000000000000000000000000000000000000000000000000000000000138820000000000000000000000000000000000000000000000a2a15d09519be000000000000000000000000000000000000000000000000000000de0b6b3a7640000",
          "blockHash": "0x25c53b542b03b52120578642107e350cb9e11429cca7890d6363ebef5e0e5f18",
          "blockNumber": "0x5871ab",
          "transactionHash": "0x6134883e611830e334331cd5779455dd4cbcdfa171e0b84674fa81a721fbf195",
          "transactionIndex": "0x59",
          "logIndex": "0xc2",
          "removed": false
        },
        {
          "address": "0x23dd1aa37b5c81d64586c021330d61d3ad55aafb",
          "topics": [
            "0x9853b992610853aa2f058d95d0a4868ffcd37470b93a5e6634619467e0d4228c",
            "0x89cffdec9bc98abfa9574782c58ebaf5abd247bcd24f96ba7c21d51895008eaa",
            "0x000000000000000000000000699bceebd59a5b52bb586c737cd7ba636f3fe602",
            "0x0000000000000000000000000000000000000000000000000028db3066eac000"
          ],
          "data": "0x00000000000000000000000000000000000000000000000000000000662e62c0000000000000000000000000699bceebd59a5b52bb586c737cd7ba636f3fe60200000000000000000000000000000000000000000000000000000000000138820000000000000000000000000000000000000000000000a2a15d09519be000000000000000000000000000000000000000000000000000000de0b6b3a7640000",
          "blockHash": "0x25c53b542b03b52120578642107e350cb9e11429cca7890d6363ebef5e0e5f18",
          "blockNumber": "0x5871ab",
          "transactionHash": "0x6134883e611830e334331cd5779455dd4cbcdfa171e0b84674fa81a721fbf195",
          "transactionIndex": "0x59",
          "logIndex": "0xc3",
          "removed": false
        }
      ],
      "logsBloom": "0x00000000000000000000000810000000200000000000000100400000000000000000c00010000010400000800000001200000000000000000000000000000000010000000200000000000000000000000000000000000000000000000020000000800000000000000000000400000000000000008040000000000000000000000000000000000000000000080210020000000000000000000000000000000000000000000000000004000000000040000000000000000000000000040000000000080000000000000000004000008000000000000000000000000000000000000000010200000400005001000000010000000100200000000000000000000000",
      "type": "0x2",
      "transactionHash": "0x6134883e611830e334331cd5779455dd4cbcdfa171e0b84674fa81a721fbf195",
      "transactionIndex": "0x59",
      "blockHash": "0x25c53b542b03b52120578642107e350cb9e11429cca7890d6363ebef5e0e5f18",
      "blockNumber": "0x5871ab",
      "gasUsed": "0x1c72e",
      "effectiveGasPrice": "0x70cdf549",
      "from": "0x699bceebd59a5b52bb586c737cd7ba636f3fe602",
      "to": "0x23dd1aa37b5c81d64586c021330d61d3ad55aafb",
      "contractAddress": null
    }
  ],
  "libraries": [],
  "pending": [],
  "returns": {},
  "timestamp": 1714315972,
  "chain": 11155111,
  "commit": "9546700"
}