{
  "transactions": [
    {
      "hash": "0xb3b3ef08060f1281dd00499ad3f4f34a30c86e43fa861a033f2475f2105c7234",
      "transactionType": "CALL",
      "contractName": null,
      "contractAddress": "0x23dd1aa37b5c81d64586c021330d61d3ad55aafb",
      "function": "postMessage((address,uint256,uint256)[])",
      "arguments": [
        "[(0x699BceEbD59a5b52bB586C737cD7ba636f3Fe602, 80002, 11100000000000000), (0x699BceEbD59a5b52bB586C737cD7ba636f3Fe602, 80002, 11200000000000000), (0x699BceEbD59a5b52bB586C737cD7ba636f3Fe602, 80002, 11300000000000000), (0x699BceEbD59a5b52bB586C737cD7ba636f3Fe602, 80002, 11400000000000000), (0x699BceEbD59a5b52bB586C737cD7ba636f3Fe602, 80002, 11500000000000000)]"
      ],
      "transaction": {
        "from": "0x699bceebd59a5b52bb586c737cd7ba636f3fe602",
        "to": "0x23dd1aa37b5c81d64586c021330d61d3ad55aafb",
        "gas": "0x274b6",
        "value": "0xd529ae9e860000",
        "input": "0x42cbee8d00000000000000000000000000000000000000000000000000000000000000200000000000000000000000000000000000000000000000000000000000000005000000000000000000000000699bceebd59a5b52bb586c737cd7ba636f3fe602000000000000000000000000000000000000000000000000000000000001388200000000000000000000000000000000000000000000000000276f642501c000000000000000000000000000699bceebd59a5b52bb586c737cd7ba636f3fe60200000000000000000000000000000000000000000000000000000000000138820000000000000000000000000000000000000000000000000027ca57357c0000000000000000000000000000699bceebd59a5b52bb586c737cd7ba636f3fe60200000000000000000000000000000000000000000000000000000000000138820000000000000000000000000000000000000000000000000028254a45f64000000000000000000000000000699bceebd59a5b52bb586c737cd7ba636f3fe60200000000000000000000000000000000000000000000000000000000000138820000000000000000000000000000000000000000000000000028803d56708000000000000000000000000000699bceebd59a5b52bb586c737cd7ba636f3fe60200000000000000000000000000000000000000000000000000000000000138820000000000000000000000000000000000000000000000000028db3066eac000",
        "nonce": "0x177",
        "chainId": "0xaa36a7",
        "accessList": null,
        "type": null
      },
      "additionalContracts": [],
      "isFixedGasLimit": false
    }
  ],
  "receipts": [
    {
      "status": "0x1",
      "cumulativeGasUsed": "0x15dbbcf",
      "logs": [
        {
          "address": "0x23dd1aa37b5c81d64586c021330d61d3ad55aafb",
          "topics": [
            "0x9853b992610853aa2f058d95d0a4868ffcd37470b93a5e6634619467e0d4228c",
            "0x5ff74d52607f99da05a1bbbb75a27ae4c97bfbbde7a041670579bac3a78adbc3",
            "0x000000000000000000000000699bceebd59a5b52bb586c737cd7ba636f3fe602",
            "0x00000000000000000000000000000000000000000000000000276f642501c000"
          ],
          "data": "0x00000000000000000000000000000000000000000000000000000000662ff934000000000000000000000000699bceebd59a5b52bb586c737cd7ba636f3fe60200000000000000000000000000000000000000000000000000000000000138820000000000000000000000000000000000000000000000a2a15d09519be000000000000000000000000000000000000000000000000000000de0b6b3a7640000",
          "blockHash": "0x5d877e70cf5f42f80bbb309a0a8729cef8d0acd45cc560d3c2c2dc782a98c064",
          "blockNumber": "0x58914e",
          "transactionHash": "0xb3b3ef08060f1281dd00499ad3f4f34a30c86e43fa861a033f2475f2105c7234",
          "transactionIndex": "0x38",
          "logIndex": "0x6a",
          "removed": false
        },
        {
          "address": "0x23dd1aa37b5c81d64586c021330d61d3ad55aafb",
          "topics": [
            "0x9853b992610853aa2f058d95d0a4868ffcd37470b93a5e6634619467e0d4228c",
            "0x35f7dfb37973b9cc77dac4bf8bc687384d004d6e9e1ee994c2a8c4eb116b2ac3",
            "0x000000000000000000000000699bceebd59a5b52bb586c737cd7ba636f3fe602",
            "0x0000000000000000000000000000000000000000000000000027ca57357c0000"
          ],
          "data": "0x00000000000000000000000000000000000000000000000000000000662ff934000000000000000000000000699bceebd59a5b52bb586c737cd7ba636f3fe60200000000000000000000000000000000000000000000000000000000000138820000000000000000000000000000000000000000000000a2a15d09519be000000000000000000000000000000000000000000000000000000de0b6b3a7640000",
          "blockHash": "0x5d877e70cf5f42f80bbb309a0a8729cef8d0acd45cc560d3c2c2dc782a98c064",
          "blockNumber": "0x58914e",
          "transactionHash": "0xb3b3ef08060f1281dd00499ad3f4f34a30c86e43fa861a033f2475f2105c7234",
          "transactionIndex": "0x38",
          "logIndex": "0x6b",
          "removed": false
        },
        {
          "address": "0x23dd1aa37b5c81d64586c021330d61d3ad55aafb",
          "topics": [
            "0x9853b992610853aa2f058d95d0a4868ffcd37470b93a5e6634619467e0d4228c",
            "0x63c0209df41929a95ac0f6d152a05c59888d52132501ab26c79afb52f3e9021c",
            "0x000000000000000000000000699bceebd59a5b52bb586c737cd7ba636f3fe602",
            "0x0000000000000000000000000000000000000000000000000028254a45f64000"
          ],
          "data": "0x00000000000000000000000000000000000000000000000000000000662ff934000000000000000000000000699bceebd59a5b52bb586c737cd7ba636f3fe60200000000000000000000000000000000000000000000000000000000000138820000000000000000000000000000000000000000000000a2a15d09519be000000000000000000000000000000000000000000000000000000de0b6b3a7640000",
          "blockHash": "0x5d877e70cf5f42f80bbb309a0a8729cef8d0acd45cc560d3c2c2dc782a98c064",
          "blockNumber": "0x58914e",
          "transactionHash": "0xb3b3ef08060f1281dd00499ad3f4f34a30c86e43fa861a033f2475f2105c7234",
          "transactionIndex": "0x38",
          "logIndex": "0x6c",
          "removed": false
        },
        {
          "address": "0x23dd1aa37b5c81d64586c021330d61d3ad55aafb",
          "topics": [
            "0x9853b992610853aa2f058d95d0a4868ffcd37470b93a5e6634619467e0d4228c",
            "0x616fb164f5afa036bdc512008c40c936699de2f31c08560c75567228cec06ceb",
            "0x000000000000000000000000699bceebd59a5b52bb586c737cd7ba636f3fe602",
            "0x0000000000000000000000000000000000000000000000000028803d56708000"
          ],
          "data": "0x00000000000000000000000000000000000000000000000000000000662ff934000000000000000000000000699bceebd59a5b52bb586c737cd7ba636f3fe60200000000000000000000000000000000000000000000000000000000000138820000000000000000000000000000000000000000000000a2a15d09519be000000000000000000000000000000000000000000000000000000de0b6b3a7640000",
          "blockHash": "0x5d877e70cf5f42f80bbb309a0a8729cef8d0acd45cc560d3c2c2dc782a98c064",
          "blockNumber": "0x58914e",
          "transactionHash": "0xb3b3ef08060f1281dd00499ad3f4f34a30c86e43fa861a033f2475f2105c7234",
          "transactionIndex": "0x38",
          "logIndex": "0x6d",
          "removed": false
        },
        {
          "address": "0x23dd1aa37b5c81d64586c021330d61d3ad55aafb",
          "topics": [
            "0x9853b992610853aa2f058d95d0a4868ffcd37470b93a5e6634619467e0d4228c",
            "0xf8e98825ee974e73e1aefe3122c8fb25cabd8ebf1c1ac26210a81ac81dd18470",
            "0x000000000000000000000000699bceebd59a5b52bb586c737cd7ba636f3fe602",
            "0x0000000000000000000000000000000000000000000000000028db3066eac000"
          ],
          "data": "0x00000000000000000000000000000000000000000000000000000000662ff934000000000000000000000000699bceebd59a5b52bb586c737cd7ba636f3fe60200000000000000000000000000000000000000000000000000000000000138820000000000000000000000000000000000000000000000a2a15d09519be000000000000000000000000000000000000000000000000000000de0b6b3a7640000",
          "blockHash": "0x5d877e70cf5f42f80bbb309a0a8729cef8d0acd45cc560d3c2c2dc782a98c064",
          "blockNumber": "0x58914e",
          "transactionHash": "0xb3b3ef08060f1281dd00499ad3f4f34a30c86e43fa861a033f2475f2105c7234",
          "transactionIndex": "0x38",
          "logIndex": "0x6e",
          "removed": false
        }
      ],
      "logsBloom": "0x00020000000000000000400000000000200000000000000000600000000000000000400000000010000000c000000010000020000000000000000800000000000100000000000000000010000000000000000000000000000008000000000000008000000000000000000004000000000004000080000000000000000080000000000000000000000000000402100a0000000000000000000000000000000000000010000000000004000000000000000000000000000000000000040000000000000000000000000000004000008000000000000000000000000000000000400000010200000000005021000000000000000100200000000000000000000000",
      "type": "0x2",
      "transactionHash": "0xb3b3ef08060f1281dd00499ad3f4f34a30c86e43fa861a033f2475f2105c7234",
      "transactionIndex": "0x38",
      "blockHash": "0x5d877e70cf5f42f80bbb309a0a8729cef8d0acd45cc560d3c2c2dc782a98c064",
      "blockNumber": "0x58914e",
      "gasUsed": "0x1c72e",
      "effectiveGasPrice": "0x2f74e082",
      "from": "0x699bceebd59a5b52bb586c737cd7ba636f3fe602",
      "to": "0x23dd1aa37b5c81d64586c021330d61d3ad55aafb",
      "contractAddress": null
    }
  ],
  "libraries": [],
  "pending": [],
  "returns": {},
  "timestamp": 1714420023,
  "chain": 11155111,
  "commit": "9546700"
}