{
  "transactions": [
    {
      "hash": "0x6a7f94d437673d28f50a79bc179c8cb1a24b02f8d416ede7e1c2c5625dbbc045",
      "transactionType": "CALL",
      "contractName": null,
      "contractAddress": "0x371862509e523e8fb89eb8911254c14c882fca96",
      "function": "postMessage((address,uint256,uint256)[])",
      "arguments": [
        "[(0x699BceEbD59a5b52bB586C737cD7ba636f3Fe602, 80002, 200000000000000000)]"
      ],
      "transaction": {
        "from": "0x699bceebd59a5b52bb586c737cd7ba636f3fe602",
        "to": "0x371862509e523e8fb89eb8911254c14c882fca96",
        "gas": "0x217c8",
        "value": "0x2c68af0bb140000",
        "input": "0x42cbee8d00000000000000000000000000000000000000000000000000000000000000200000000000000000000000000000000000000000000000000000000000000001000000000000000000000000699bceebd59a5b52bb586c737cd7ba636f3fe602000000000000000000000000000000000000000000000000000000000001388200000000000000000000000000000000000000000000000002c68af0bb140000",
        "nonce": "0x12a",
        "chainId": "0xaa36a7",
        "accessList": null,
        "type": null
      },
      "additionalContracts": [],
      "isFixedGasLimit": false
    }
  ],
  "receipts": [
    {
      "status": "0x1",
      "cumulativeGasUsed": "0x8f3587",
      "logs": [
        {
          "address": "0x371862509e523e8fb89eb8911254c14c882fca96",
          "topics": [
            "0x9853b992610853aa2f058d95d0a4868ffcd37470b93a5e6634619467e0d4228c",
            "0xef89d524104f7177ee8afe9c88cf2a2ac591ec4353dd146aae6cd9ebcee013b6",
            "0x000000000000000000000000699bceebd59a5b52bb586c737cd7ba636f3fe602",
            "0x00000000000000000000000000000000000000000000000002c68af0bb140000"
          ],
          "data": "0x00000000000000000000000000000000000000000000000000000000662bd0f4000000000000000000000000699bceebd59a5b52bb586c737cd7ba636f3fe60200000000000000000000000000000000000000000000000000000000000138820000000000000000000000000000000000000000000000a2a15d09519be000000000000000000000000000000000000000000000000000000de0b6b3a7640000",
          "blockHash": "0x32354ce5e89ef23b46e719f9d507402fc6b5c3a2b86f951ea68c27972deaa811",
          "blockNumber": "0x583c73",
          "transactionHash": "0x6a7f94d437673d28f50a79bc179c8cb1a24b02f8d416ede7e1c2c5625dbbc045",
          "transactionIndex": "0x62",
          "logIndex": "0x86",
          "removed": false
        }
      ],
      "logsBloom": "0x00000000000000000000000000000000000000000000000000400000000000000000000000000000000000000000000000020000000000000000000000020000000000000000000000004000000000000000000000000000000000000000000000800004000002000000000000000000000000008000000000000000000000000000000000000000000000000000000000000000000000000000000000040000000000000000000000000000000001000800000000000000000000000000000000000000000000000000000000008000000000000000000000000000000000000000000000000200001000000000000000000100000000000000000000000000",
      "type": "0x2",
      "transactionHash": "0x6a7f94d437673d28f50a79bc179c8cb1a24b02f8d416ede7e1c2c5625dbbc045",
      "transactionIndex": "0x62",
      "blockHash": "0x32354ce5e89ef23b46e719f9d507402fc6b5c3a2b86f951ea68c27972deaa811",
      "blockNumber": "0x583c73",
      "gasUsed": "0x16e59",
      "effectiveGasPrice": "0x63c77ef4",
      "from": "0x699bceebd59a5b52bb586c737cd7ba636f3fe602",
      "to": "0x371862509e523e8fb89eb8911254c14c882fca96",
      "contractAddress": null
    }
  ],
  "libraries": [],
  "pending": [],
  "returns": {},
  "timestamp": 1714147576,
  "chain": 11155111,
  "commit": "d8ddccd"
}