{
  "transactions": [
    {
      "hash": "0x189ae0d1dc88c61cfcbb17b3729ca78c172c46a2251a2d49d0e380369812506f",
      "transactionType": "CALL",
      "contractName": null,
      "contractAddress": "0x23dd1aa37b5c81d64586c021330d61d3ad55aafb",
      "function": "postMessage((address,uint256,uint256)[])",
      "arguments": [
        "[(0x699BceEbD59a5b52bB586C737cD7ba636f3Fe602, 80002, 11100000000000000), (0x699BceEbD59a5b52bB586C737cD7ba636f3Fe602, 80002, 11200000000000000), (0x699BceEbD59a5b52bB586C737cD7ba636f3Fe602, 80002, 11300000000000000), (0x699BceEbD59a5b52bB586C737cD7ba636f3Fe602, 80002, 11400000000000000), (0x699BceEbD59a5b52bB586C737cD7ba636f3Fe602, 80002, 11500000000000000), (0x699BceEbD59a5b52bB586C737cD7ba636f3Fe602, 80002, 11600000000000000), (0x699BceEbD59a5b52bB586C737cD7ba636f3Fe602, 80002, 11700000000000000), (0x699BceEbD59a5b52bB586C737cD7ba636f3Fe602, 80002, 11800000000000000), (0x699BceEbD59a5b52bB586C737cD7ba636f3Fe602, 80002, 11900000000000000), (0x699BceEbD59a5b52bB586C737cD7ba636f3Fe602, 80002, 12000000000000000), (0x699BceEbD59a5b52bB586C737cD7ba636f3Fe602, 80002, 12000000000000000), (0x699BceEbD59a5b52bB586C737cD7ba636f3Fe602, 80002, 12200000000000000), (0x699BceEbD59a5b52bB586C737cD7ba636f3Fe602, 80002, 12300000000000000), (0x699BceEbD59a5b52bB586C737cD7ba636f3Fe602, 80002, 12400000000000000), (0x699BceEbD59a5b52bB586C737cD7ba636f3Fe602, 80002, 12500000000000000), (0x699BceEbD59a5b52bB586C737cD7ba636f3Fe602, 80002, 12600000000000000), (0x699BceEbD59a5b52bB586C737cD7ba636f3Fe602, 80002, 12700000000000000), (0x699BceEbD59a5b52bB586C737cD7ba636f3Fe602, 80002, 12800000000000000), (0x699BceEbD59a5b52bB586C737cD7ba636f3Fe602, 80002, 12900000000000000), (0x699BceEbD59a5b52bB586C737cD7ba636f3Fe602, 80002, 13000000000000000)]"
      ],
      "transaction": {
        "from": "0x699bceebd59a5b52bb586c737cd7ba636f3fe602",
        "to": "0x23dd1aa37b5c81d64586c021330d61d3ad55aafb",
        "gas": "0x440e1",
        "value": "0x39bb49f599a0000",
        "input": "0x42cbee8d00000000000000000000000000000000000000000000000000000000000000200000000000000000000000000000000000000000000000000000000000000014000000000000000000000000699bceebd59a5b52bb586c737cd7ba636f3fe602000000000000000000000000000000000000000000000000000000000001388200000000000000000000000000000000000000000000000000276f642501c000000000000000000000000000699bceebd59a5b52bb586c737cd7ba636f3fe60200000000000000000000000000000000000000000000000000000000000138820000000000000000000000000000000000000000000000000027ca57357c0000000000000000000000000000699bceebd59a5b52bb586c737cd7ba636f3fe60200000000000000000000000000000000000000000000000000000000000138820000000000000000000000000000000000000000000000000028254a45f64000000000000000000000000000699bceebd59a5b52bb586c737cd7ba636f3fe60200000000000000000000000000000000000000000000000000000000000138820000000000000000000000000000000000000000000000000028803d56708000000000000000000000000000699bceebd59a5b52bb586c737cd7ba636f3fe60200000000000000000000000000000000000000000000000000000000000138820000000000000000000000000000000000000000000000000028db3066eac000000000000000000000000000699bceebd59a5b52bb586c737cd7ba636f3fe60200000000000000000000000000000000000000000000000000000000000138820000000000000000000000000000000000000000000000000029362377650000000000000000000000000000699bceebd59a5b52bb586c737cd7ba636f3fe60200000000000000000000000000000000000000000000000000000000000138820000000000000000000000000000000000000000000000000029911687df4000000000000000000000000000699bceebd59a5b52bb586c737cd7ba636f3fe60200000000000000000000000000000000000000000000000000000000000138820000000000000000000000000000000000000000000000000029ec0998598000000000000000000000000000699bceebd59a5b52bb586c737cd7ba636f3fe6020000000000000000000000000000000000000000000000000000000000013882000000000000000000000000000000000000000000000000002a46fca8d3c000000000000000000000000000699bceebd59a5b52bb586c737cd7ba636f3fe6020000000000000000000000000000000000000000000000000000000000013882000000000000000000000000000000000000000000000000002aa1efb94e0000000000000000000000000000699bceebd59a5b52bb586c737cd7ba636f3fe6020000000000000000000000000000000000000000000000000000000000013882000000000000000000000000000000000000000000000000002aa1efb94e0000000000000000000000000000699bceebd59a5b52bb586c737cd7ba636f3fe6020000000000000000000000000000000000000000000000000000000000013882000000000000000000000000000000000000000000000000002b57d5da428000000000000000000000000000699bceebd59a5b52bb586c737cd7ba636f3fe6020000000000000000000000000000000000000000000000000000000000013882000000000000000000000000000000000000000000000000002bb2c8eabcc000000000000000000000000000699bceebd59a5b52bb586c737cd7ba636f3fe6020000000000000000000000000000000000000000000000000000000000013882000000000000000000000000000000000000000000000000002c0dbbfb370000000000000000000000000000699bceebd59a5b52bb586c737cd7ba636f3fe6020000000000000000000000000000000000000000000000000000000000013882000000000000000000000000000000000000000000000000002c68af0bb14000000000000000000000000000699bceebd59a5b52bb586c737cd7ba636f3fe6020000000000000000000000000000000000000000000000000000000000013882000000000000000000000000000000000000000000000000002cc3a21c2b8000000000000000000000000000699bceebd59a5b52bb586c737cd7ba636f3fe6020000000000000000000000000000000000000000000000000000000000013882000000000000000000000000000000000000000000000000002d1e952ca5c000000000000000000000000000699bceebd59a5b52bb586c737cd7ba636f3fe6020000000000000000000000000000000000000000000000000000000000013882000000000000000000000000000000000000000000000000002d79883d200000000000000000000000000000699bceebd59a5b52bb586c737cd7ba636f3fe6020000000000000000000000000000000000000000000000000000000000013882000000000000000000000000000000000000000000000000002dd47b4d9a4000000000000000000000000000699bceebd59a5b52bb586c737cd7ba636f3fe6020000000000000000000000000000000000000000000000000000000000013882000000000000000000000000000000000000000000000000002e2f6e5e148000",
        "nonce": "0x17f",
        "chainId": "0xaa36a7",
        "accessList": null,
        "type": null
      },
      "additionalContracts": [],
      "isFixedGasLimit": false
    }
  ],
  "receipts": [
    {
      "status": "0x1",
      "cumulativeGasUsed": "0x998cbb",
      "logs": [
        {
          "address": "0x23dd1aa37b5c81d64586c021330d61d3ad55aafb",
          "topics": [
            "0x9853b992610853aa2f058d95d0a4868ffcd37470b93a5e6634619467e0d4228c",
            "0x831a7d0bcea6681af0b589dee321cc84e4ade9a236209932d5771b9abb80b3c5",
            "0x000000000000000000000000699bceebd59a5b52bb586c737cd7ba636f3fe602",
            "0x00000000000000000000000000000000000000000000000000276f642501c000"
          ],
          "data": "0x0000000000000000000000000000000000000000000000000000000066301398000000000000000000000000699bceebd59a5b52bb586c737cd7ba636f3fe60200000000000000000000000000000000000000000000000000000000000138820000000000000000000000000000000000000000000000a2a15d09519be000000000000000000000000000000000000000000000000000000de0b6b3a7640000",
          "blockHash": "0xdc869ff7fceada07bbbd733b5f8f87737ed4deed5eee165b7ef60e374e6f1afd",
          "blockNumber": "0x58934c",
          "transactionHash": "0x189ae0d1dc88c61cfcbb17b3729ca78c172c46a2251a2d49d0e380369812506f",
          "transactionIndex": "0x36",
          "logIndex": "0x74",
          "removed": false
        },
        {
          "address": "0x23dd1aa37b5c81d64586c021330d61d3ad55aafb",
          "topics": [
            "0x9853b992610853aa2f058d95d0a4868ffcd37470b93a5e6634619467e0d4228c",
            "0xfacf1f10cd2b23104677a6123c17ba03867abb5edae82d8aec69a93fce4431e2",
            "0x000000000000000000000000699bceebd59a5b52bb586c737cd7ba636f3fe602",
            "0x0000000000000000000000000000000000000000000000000027ca57357c0000"
          ],
          "data": "0x0000000000000000000000000000000000000000000000000000000066301398000000000000000000000000699bceebd59a5b52bb586c737cd7ba636f3fe60200000000000000000000000000000000000000000000000000000000000138820000000000000000000000000000000000000000000000a2a15d09519be000000000000000000000000000000000000000000000000000000de0b6b3a7640000",
          "blockHash": "0xdc869ff7fceada07bbbd733b5f8f87737ed4deed5eee165b7ef60e374e6f1afd",
          "blockNumber": "0x58934c",
          "transactionHash": "0x189ae0d1dc88c61cfcbb17b3729ca78c172c46a2251a2d49d0e380369812506f",
          "transactionIndex": "0x36",
          "logIndex": "0x75",
          "removed": false
        },
        {
          "address": "0x23dd1aa37b5c81d64586c021330d61d3ad55aafb",
          "topics": [
            "0x9853b992610853aa2f058d95d0a4868ffcd37470b93a5e6634619467e0d4228c",
            "0x6c6453ba7c6d8c6824732613e2cdea01a530e7821cfbbe5a63465be09a636ad0",
            "0x000000000000000000000000699bceebd59a5b52bb586c737cd7ba636f3fe602",
            "0x0000000000000000000000000000000000000000000000000028254a45f64000"
          ],
          "data": "0x0000000000000000000000000000000000000000000000000000000066301398000000000000000000000000699bceebd59a5b52bb586c737cd7ba636f3fe60200000000000000000000000000000000000000000000000000000000000138820000000000000000000000000000000000000000000000a2a15d09519be000000000000000000000000000000000000000000000000000000de0b6b3a7640000",
          "blockHash": "0xdc869ff7fceada07bbbd733b5f8f87737ed4deed5eee165b7ef60e374e6f1afd",
          "blockNumber": "0x58934c",
          "transactionHash": "0x189ae0d1dc88c61cfcbb17b3729ca78c172c46a2251a2d49d0e380369812506f",
          "transactionIndex": "0x36",
          "logIndex": "0x76",
          "removed": false
        },
        {
          "address": "0x23dd1aa37b5c81d64586c021330d61d3ad55aafb",
          "topics": [
            "0x9853b992610853aa2f058d95d0a4868ffcd37470b93a5e6634619467e0d4228c",
            "0x76df9f3d60d84158df71aa3b3ce73f6803de66100d9c6219351c3f3bf8d9d5ff",
            "0x000000000000000000000000699bceebd59a5b52bb586c737cd7ba636f3fe602",
            "0x0000000000000000000000000000000000000000000000000028803d56708000"
          ],
          "data": "0x0000000000000000000000000000000000000000000000000000000066301398000000000000000000000000699bceebd59a5b52bb586c737cd7ba636f3fe60200000000000000000000000000000000000000000000000000000000000138820000000000000000000000000000000000000000000000a2a15d09519be000000000000000000000000000000000000000000000000000000de0b6b3a7640000",
          "blockHash": "0xdc869ff7fceada07bbbd733b5f8f87737ed4deed5eee165b7ef60e374e6f1afd",
          "blockNumber": "0x58934c",
          "transactionHash": "0x189ae0d1dc88c61cfcbb17b3729ca78c172c46a2251a2d49d0e380369812506f",
          "transactionIndex": "0x36",
          "logIndex": "0x77",
          "removed": false
        },
        {
          "address": "0x23dd1aa37b5c81d64586c021330d61d3ad55aafb",
          "topics": [
            "0x9853b992610853aa2f058d95d0a4868ffcd37470b93a5e6634619467e0d4228c",
            "0xe9f76a3240b6d4a8bf4e506d3c8266c6605418fd7c3dc52f741d425f77edf131",
            "0x000000000000000000000000699bceebd59a5b52bb586c737cd7ba636f3fe602",
            "0x0000000000000000000000000000000000000000000000000028db3066eac000"
          ],
          "data": "0x0000000000000000000000000000000000000000000000000000000066301398000000000000000000000000699bceebd59a5b52bb586c737cd7ba636f3fe60200000000000000000000000000000000000000000000000000000000000138820000000000000000000000000000000000000000000000a2a15d09519be000000000000000000000000000000000000000000000000000000de0b6b3a7640000",
          "blockHash": "0xdc869ff7fceada07bbbd733b5f8f87737ed4deed5eee165b7ef60e374e6f1afd",
          "blockNumber": "0x58934c",
          "transactionHash": "0x189ae0d1dc88c61cfcbb17b3729ca78c172c46a2251a2d49d0e380369812506f",
          "transactionIndex": "0x36",
          "logIndex": "0x78",
          "removed": false
        },
        {
          "address": "0x23dd1aa37b5c81d64586c021330d61d3ad55aafb",
          "topics": [
            "0x9853b992610853aa2f058d95d0a4868ffcd37470b93a5e6634619467e0d4228c",
            "0x50c830420c28068037fe37ffe91c7f4461d9db562133141c51564fd443b119f9",
            "0x000000000000000000000000699bceebd59a5b52bb586c737cd7ba636f3fe602",
            "0x0000000000000000000000000000000000000000000000000029362377650000"
          ],
          "data": "0x0000000000000000000000000000000000000000000000000000000066301398000000000000000000000000699bceebd59a5b52bb586c737cd7ba636f3fe60200000000000000000000000000000000000000000000000000000000000138820000000000000000000000000000000000000000000000a2a15d09519be000000000000000000000000000000000000000000000000000000de0b6b3a7640000",
          "blockHash": "0xdc869ff7fceada07bbbd733b5f8f87737ed4deed5eee165b7ef60e374e6f1afd",
          "blockNumber": "0x58934c",
          "transactionHash": "0x189ae0d1dc88c61cfcbb17b3729ca78c172c46a2251a2d49d0e380369812506f",
          "transactionIndex": "0x36",
          "logIndex": "0x79",
          "removed": false
        },
        {
          "address": "0x23dd1aa37b5c81d64586c021330d61d3ad55aafb",
          "topics": [
            "0x9853b992610853aa2f058d95d0a4868ffcd37470b93a5e6634619467e0d4228c",
            "0x1803b472ab73f6a49ed4ac99decf613301ae32b922c089656bb7b3fa675fe00c",
            "0x000000000000000000000000699bceebd59a5b52bb586c737cd7ba636f3fe602",
            "0x0000000000000000000000000000000000000000000000000029911687df4000"
          ],
          "data": "0x0000000000000000000000000000000000000000000000000000000066301398000000000000000000000000699bceebd59a5b52bb586c737cd7ba636f3fe60200000000000000000000000000000000000000000000000000000000000138820000000000000000000000000000000000000000000000a2a15d09519be000000000000000000000000000000000000000000000000000000de0b6b3a7640000",
          "blockHash": "0xdc869ff7fceada07bbbd733b5f8f87737ed4deed5eee165b7ef60e374e6f1afd",
          "blockNumber": "0x58934c",
          "transactionHash": "0x189ae0d1dc88c61cfcbb17b3729ca78c172c46a2251a2d49d0e380369812506f",
          "transactionIndex": "0x36",
          "logIndex": "0x7a",
          "removed": false
        },
        {
          "address": "0x23dd1aa37b5c81d64586c021330d61d3ad55aafb",
          "topics": [
            "0x9853b992610853aa2f058d95d0a4868ffcd37470b93a5e6634619467e0d4228c",
            "0x4134174a8abe3d4e994ff2358d2d2a72e3c11543e7650bb43681780a1ecb4948",
            "0x000000000000000000000000699bceebd59a5b52bb586c737cd7ba636f3fe602",
            "0x0000000000000000000000000000000000000000000000000029ec0998598000"
          ],
          "data": "0x0000000000000000000000000000000000000000000000000000000066301398000000000000000000000000699bceebd59a5b52bb586c737cd7ba636f3fe60200000000000000000000000000000000000000000000000000000000000138820000000000000000000000000000000000000000000000a2a15d09519be000000000000000000000000000000000000000000000000000000de0b6b3a7640000",
          "blockHash": "0xdc869ff7fceada07bbbd733b5f8f87737ed4deed5eee165b7ef60e374e6f1afd",
          "blockNumber": "0x58934c",
          "transactionHash": "0x189ae0d1dc88c61cfcbb17b3729ca78c172c46a2251a2d49d0e380369812506f",
          "transactionIndex": "0x36",
          "logIndex": "0x7b",
          "removed": false
        },
        {
          "address": "0x23dd1aa37b5c81d64586c021330d61d3ad55aafb",
          "topics": [
            "0x9853b992610853aa2f058d95d0a4868ffcd37470b93a5e6634619467e0d4228c",
            "0x29cf9f63ea77c279f623c61222256141ad5ad209416316fac45edd2265035802",
            "0x000000000000000000000000699bceebd59a5b52bb586c737cd7ba636f3fe602",
            "0x000000000000000000000000000000000000000000000000002a46fca8d3c000"
          ],
          "data": "0x0000000000000000000000000000000000000000000000000000000066301398000000000000000000000000699bceebd59a5b52bb586c737cd7ba636f3fe60200000000000000000000000000000000000000000000000000000000000138820000000000000000000000000000000000000000000000a2a15d09519be000000000000000000000000000000000000000000000000000000de0b6b3a7640000",
          "blockHash": "0xdc869ff7fceada07bbbd733b5f8f87737ed4deed5eee165b7ef60e374e6f1afd",
          "blockNumber": "0x58934c",
          "transactionHash": "0x189ae0d1dc88c61cfcbb17b3729ca78c172c46a2251a2d49d0e380369812506f",
          "transactionIndex": "0x36",
          "logIndex": "0x7c",
          "removed": false
        },
        {
          "address": "0x23dd1aa37b5c81d64586c021330d61d3ad55aafb",
          "topics": [
            "0x9853b992610853aa2f058d95d0a4868ffcd37470b93a5e6634619467e0d4228c",
            "0xb213796dd054c67db1e35f22fa59d5fe4ae2936c9c8609d60d54979c1fc63efe",
            "0x000000000000000000000000699bceebd59a5b52bb586c737cd7ba636f3fe602",
            "0x000000000000000000000000000000000000000000000000002aa1efb94e0000"
          ],
          "data": "0x0000000000000000000000000000000000000000000000000000000066301398000000000000000000000000699bceebd59a5b52bb586c737cd7ba636f3fe60200000000000000000000000000000000000000000000000000000000000138820000000000000000000000000000000000000000000000a2a15d09519be000000000000000000000000000000000000000000000000000000de0b6b3a7640000",
          "blockHash": "0xdc869ff7fceada07bbbd733b5f8f87737ed4deed5eee165b7ef60e374e6f1afd",
          "blockNumber": "0x58934c",
          "transactionHash": "0x189ae0d1dc88c61cfcbb17b3729ca78c172c46a2251a2d49d0e380369812506f",
          "transactionIndex": "0x36",
          "logIndex": "0x7d",
          "removed": false
        },
        {
          "address": "0x23dd1aa37b5c81d64586c021330d61d3ad55aafb",
          "topics": [
            "0x9853b992610853aa2f058d95d0a4868ffcd37470b93a5e6634619467e0d4228c",
            "0xe378a5b459f609c501bf7fdc4960441dab4023c9078b3834649fb4e63a16193d",
            "0x000000000000000000000000699bceebd59a5b52bb586c737cd7ba636f3fe602",
            "0x000000000000000000000000000000000000000000000000002aa1efb94e0000"
          ],
          "data": "0x0000000000000000000000000000000000000000000000000000000066301398000000000000000000000000699bceebd59a5b52bb586c737cd7ba636f3fe60200000000000000000000000000000000000000000000000000000000000138820000000000000000000000000000000000000000000000a2a15d09519be000000000000000000000000000000000000000000000000000000de0b6b3a7640000",
          "blockHash": "0xdc869ff7fceada07bbbd733b5f8f87737ed4deed5eee165b7ef60e374e6f1afd",
          "blockNumber": "0x58934c",
          "transactionHash": "0x189ae0d1dc88c61cfcbb17b3729ca78c172c46a2251a2d49d0e380369812506f",
          "transactionIndex": "0x36",
          "logIndex": "0x7e",
          "removed": false
        },
        {
          "address": "0x23dd1aa37b5c81d64586c021330d61d3ad55aafb",
          "topics": [
            "0x9853b992610853aa2f058d95d0a4868ffcd37470b93a5e6634619467e0d4228c",
            "0xeac4d0ecde06b210879f26d0ac703faf13fe800fb3f2c8583270603e2880e5fe",
            "0x000000000000000000000000699bceebd59a5b52bb586c737cd7ba636f3fe602",
            "0x000000000000000000000000000000000000000000000000002b57d5da428000"
          ],
          "data": "0x0000000000000000000000000000000000000000000000000000000066301398000000000000000000000000699bceebd59a5b52bb586c737cd7ba636f3fe60200000000000000000000000000000000000000000000000000000000000138820000000000000000000000000000000000000000000000a2a15d09519be000000000000000000000000000000000000000000000000000000de0b6b3a7640000",
          "blockHash": "0xdc869ff7fceada07bbbd733b5f8f87737ed4deed5eee165b7ef60e374e6f1afd",
          "blockNumber": "0x58934c",
          "transactionHash": "0x189ae0d1dc88c61cfcbb17b3729ca78c172c46a2251a2d49d0e380369812506f",
          "transactionIndex": "0x36",
          "logIndex": "0x7f",
          "removed": false
        },
        {
          "address": "0x23dd1aa37b5c81d64586c021330d61d3ad55aafb",
          "topics": [
            "0x9853b992610853aa2f058d95d0a4868ffcd37470b93a5e6634619467e0d4228c",
            "0xf905d8613607333a3c3e9bc79bf8d43ffe5ea899d14b26f83a84575b3948936b",
            "0x000000000000000000000000699bceebd59a5b52bb586c737cd7ba636f3fe602",
            "0x000000000000000000000000000000000000000000000000002bb2c8eabcc000"
          ],
          "data": "0x0000000000000000000000000000000000000000000000000000000066301398000000000000000000000000699bceebd59a5b52bb586c737cd7ba636f3fe60200000000000000000000000000000000000000000000000000000000000138820000000000000000000000000000000000000000000000a2a15d09519be000000000000000000000000000000000000000000000000000000de0b6b3a7640000",
          "blockHash": "0xdc869ff7fceada07bbbd733b5f8f87737ed4deed5eee165b7ef60e374e6f1afd",
          "blockNumber": "0x58934c",
          "transactionHash": "0x189ae0d1dc88c61cfcbb17b3729ca78c172c46a2251a2d49d0e380369812506f",
          "transactionIndex": "0x36",
          "logIndex": "0x80",
          "removed": false
        },
        {
          "address": "0x23dd1aa37b5c81d64586c021330d61d3ad55aafb",
          "topics": [
            "0x9853b992610853aa2f058d95d0a4868ffcd37470b93a5e6634619467e0d4228c",
            "0x6b2d9cfa1389f3e18d4317568024aa064346ade9046ad98e891644ad016c16cb",
            "0x000000000000000000000000699bceebd59a5b52bb586c737cd7ba636f3fe602",
            "0x000000000000000000000000000000000000000000000000002c0dbbfb370000"
          ],
          "data": "0x0000000000000000000000000000000000000000000000000000000066301398000000000000000000000000699bceebd59a5b52bb586c737cd7ba636f3fe60200000000000000000000000000000000000000000000000000000000000138820000000000000000000000000000000000000000000000a2a15d09519be000000000000000000000000000000000000000000000000000000de0b6b3a7640000",
          "blockHash": "0xdc869ff7fceada07bbbd733b5f8f87737ed4deed5eee165b7ef60e374e6f1afd",
          "blockNumber": "0x58934c",
          "transactionHash": "0x189ae0d1dc88c61cfcbb17b3729ca78c172c46a2251a2d49d0e380369812506f",
          "transactionIndex": "0x36",
          "logIndex": "0x81",
          "removed": false
        },
        {
          "address": "0x23dd1aa37b5c81d64586c021330d61d3ad55aafb",
          "topics": [
            "0x9853b992610853aa2f058d95d0a4868ffcd37470b93a5e6634619467e0d4228c",
            "0xc5ba45e87526039518857a96dc9dbb28408ccd65c5371cced6c404a3d481e6de",
            "0x000000000000000000000000699bceebd59a5b52bb586c737cd7ba636f3fe602",
            "0x000000000000000000000000000000000000000000000000002c68af0bb14000"
          ],
          "data": "0x0000000000000000000000000000000000000000000000000000000066301398000000000000000000000000699bceebd59a5b52bb586c737cd7ba636f3fe60200000000000000000000000000000000000000000000000000000000000138820000000000000000000000000000000000000000000000a2a15d09519be000000000000000000000000000000000000000000000000000000de0b6b3a7640000",
          "blockHash": "0xdc869ff7fceada07bbbd733b5f8f87737ed4deed5eee165b7ef60e374e6f1afd",
          "blockNumber": "0x58934c",
          "transactionHash": "0x189ae0d1dc88c61cfcbb17b3729ca78c172c46a2251a2d49d0e380369812506f",
          "transactionIndex": "0x36",
          "logIndex": "0x82",
          "removed": false
        },
        {
          "address": "0x23dd1aa37b5c81d64586c021330d61d3ad55aafb",
          "topics": [
            "0x9853b992610853aa2f058d95d0a4868ffcd37470b93a5e6634619467e0d4228c",
            "0xd292124bd2fc648f02f8fcc2699d6f8d23114ec5b86a0eb2014f215452cb854e",
            "0x000000000000000000000000699bceebd59a5b52bb586c737cd7ba636f3fe602",
            "0x000000000000000000000000000000000000000000000000002cc3a21c2b8000"
          ],
          "data": "0x0000000000000000000000000000000000000000000000000000000066301398000000000000000000000000699bceebd59a5b52bb586c737cd7ba636f3fe60200000000000000000000000000000000000000000000000000000000000138820000000000000000000000000000000000000000000000a2a15d09519be000000000000000000000000000000000000000000000000000000de0b6b3a7640000",
          "blockHash": "0xdc869ff7fceada07bbbd733b5f8f87737ed4deed5eee165b7ef60e374e6f1afd",
          "blockNumber": "0x58934c",
          "transactionHash": "0x189ae0d1dc88c61cfcbb17b3729ca78c172c46a2251a2d49d0e380369812506f",
          "transactionIndex": "0x36",
          "logIndex": "0x83",
          "removed": false
        },
        {
          "address": "0x23dd1aa37b5c81d64586c021330d61d3ad55aafb",
          "topics": [
            "0x9853b992610853aa2f058d95d0a4868ffcd37470b93a5e6634619467e0d4228c",
            "0x5819829702a48148a25e67e7d05f80db503206c23fc2a579a190ea7ed94fea80",
            "0x000000000000000000000000699bceebd59a5b52bb586c737cd7ba636f3fe602",
            "0x000000000000000000000000000000000000000000000000002d1e952ca5c000"
          ],
          "data": "0x0000000000000000000000000000000000000000000000000000000066301398000000000000000000000000699bceebd59a5b52bb586c737cd7ba636f3fe60200000000000000000000000000000000000000000000000000000000000138820000000000000000000000000000000000000000000000a2a15d09519be000000000000000000000000000000000000000000000000000000de0b6b3a7640000",
          "blockHash": "0xdc869ff7fceada07bbbd733b5f8f87737ed4deed5eee165b7ef60e374e6f1afd",
          "blockNumber": "0x58934c",
          "transactionHash": "0x189ae0d1dc88c61cfcbb17b3729ca78c172c46a2251a2d49d0e380369812506f",
          "transactionIndex": "0x36",
          "logIndex": "0x84",
          "removed": false
        },
        {
          "address": "0x23dd1aa37b5c81d64586c021330d61d3ad55aafb",
          "topics": [
            "0x9853b992610853aa2f058d95d0a4868ffcd37470b93a5e6634619467e0d4228c",
            "0xccfb6da0ebce14005c313077018267487d85174d0819d8ec128cba0f758a1105",
            "0x000000000000000000000000699bceebd59a5b52bb586c737cd7ba636f3fe602",
            "0x000000000000000000000000000000000000000000000000002d79883d200000"
          ],
          "data": "0x0000000000000000000000000000000000000000000000000000000066301398000000000000000000000000699bceebd59a5b52bb586c737cd7ba636f3fe60200000000000000000000000000000000000000000000000000000000000138820000000000000000000000000000000000000000000000a2a15d09519be000000000000000000000000000000000000000000000000000000de0b6b3a7640000",
          "blockHash": "0xdc869ff7fceada07bbbd733b5f8f87737ed4deed5eee165b7ef60e374e6f1afd",
          "blockNumber": "0x58934c",
          "transactionHash": "0x189ae0d1dc88c61cfcbb17b3729ca78c172c46a2251a2d49d0e380369812506f",
          "transactionIndex": "0x36",
          "logIndex": "0x85",
          "removed": false
        },
        {
          "address": "0x23dd1aa37b5c81d64586c021330d61d3ad55aafb",
          "topics": [
            "0x9853b992610853aa2f058d95d0a4868ffcd37470b93a5e6634619467e0d4228c",
            "0x1c27d2151bf3c5ecc0b276654e47b6e69934a149b73a63b15ba0a26b5270d5be",
            "0x000000000000000000000000699bceebd59a5b52bb586c737cd7ba636f3fe602",
            "0x000000000000000000000000000000000000000000000000002dd47b4d9a4000"
          ],
          "data": "0x0000000000000000000000000000000000000000000000000000000066301398000000000000000000000000699bceebd59a5b52bb586c737cd7ba636f3fe60200000000000000000000000000000000000000000000000000000000000138820000000000000000000000000000000000000000000000a2a15d09519be000000000000000000000000000000000000000000000000000000de0b6b3a7640000",
          "blockHash": "0xdc869ff7fceada07bbbd733b5f8f87737ed4deed5eee165b7ef60e374e6f1afd",
          "blockNumber": "0x58934c",
          "transactionHash": "0x189ae0d1dc88c61cfcbb17b3729ca78c172c46a2251a2d49d0e380369812506f",
          "transactionIndex": "0x36",
          "logIndex": "0x86",
          "removed": false
        },
        {
          "address": "0x23dd1aa37b5c81d64586c021330d61d3ad55aafb",
          "topics": [
            "0x9853b992610853aa2f058d95d0a4868ffcd37470b93a5e6634619467e0d4228c",
            "0x38fbd5107be0a28a5d1509d5fa5729dcb1003cd0fafdda39b72e3f9e4ec9cd00",
            "0x000000000000000000000000699bceebd59a5b52bb586c737cd7ba636f3fe602",
            "0x000000000000000000000000000000000000000000000000002e2f6e5e148000"
          ],
          "data": "0x0000000000000000000000000000000000000000000000000000000066301398000000000000000000000000699bceebd59a5b52bb586c737cd7ba636f3fe60200000000000000000000000000000000000000000000000000000000000138820000000000000000000000000000000000000000000000a2a15d09519be000000000000000000000000000000000000000000000000000000de0b6b3a7640000",
          "blockHash": "0xdc869ff7fceada07bbbd733b5f8f87737ed4deed5eee165b7ef60e374e6f1afd",
          "blockNumber": "0x58934c",
          "transactionHash": "0x189ae0d1dc88c61cfcbb17b3729ca78c172c46a2251a2d49d0e380369812506f",
          "transactionIndex": "0x36",
          "logIndex": "0x87",
          "removed": false
        }
      ],
      "logsBloom": "0x40000400020000000000000000000010220000020000000000400000000001000022400010000010400040800000001000000000000000404002000008000000010000000020000000024000000012800008000000000000000101000040000080800000008001a04000080500200002000000088000402000000000008004004001020080a020010200000022508200002200000000200000200001020800000010000c0000000044018008000000040000000001000220400000240000200000000000020000000000004100008001000000000120010000400000002010000000010200000008005001010000004a04000540a00000100410000200100000",
      "type": "0x2",
      "transactionHash": "0x189ae0d1dc88c61cfcbb17b3729ca78c172c46a2251a2d49d0e380369812506f",
      "transactionIndex": "0x36",
      "blockHash": "0xdc869ff7fceada07bbbd733b5f8f87737ed4deed5eee165b7ef60e374e6f1afd",
      "blockNumber": "0x58934c",
      "gasUsed": "0x31455",
      "effectiveGasPrice": "0x3ba3c72d",
      "from": "0x699bceebd59a5b52bb586c737cd7ba636f3fe602",
      "to": "0x23dd1aa37b5c81d64586c021330d61d3ad55aafb",
      "contractAddress": null
    }
  ],
  "libraries": [],
  "pending": [],
  "returns": {},
  "timestamp": 1714426782,
  "chain": 11155111,
  "commit": "9546700"
}