{
  "transactions": [
    {
      "hash": "0xe854a181d8d98fce89dca324cd1f7ec1ea00a609dea1432a893ba062fb0ed801",
      "transactionType": "CALL",
      "contractName": null,
      "contractAddress": "0x23dd1aa37b5c81d64586c021330d61d3ad55aafb",
      "function": "postMessage((address,uint256,uint256)[])",
      "arguments": [
        "[(0x699BceEbD59a5b52bB586C737cD7ba636f3Fe602, 80002, 11100000000000000), (0x699BceEbD59a5b52bB586C737cD7ba636f3Fe602, 80002, 11200000000000000), (0x699BceEbD59a5b52bB586C737cD7ba636f3Fe602, 80002, 11300000000000000), (0x699BceEbD59a5b52bB586C737cD7ba636f3Fe602, 80002, 11400000000000000), (0x699BceEbD59a5b52bB586C737cD7ba636f3Fe602, 80002, 11500000000000000), (0x699BceEbD59a5b52bB586C737cD7ba636f3Fe602, 80002, 11600000000000000), (0x699BceEbD59a5b52bB586C737cD7ba636f3Fe602, 80002, 11700000000000000), (0x699BceEbD59a5b52bB586C737cD7ba636f3Fe602, 80002, 11800000000000000), (0x699BceEbD59a5b52bB586C737cD7ba636f3Fe602, 80002, 11900000000000000), (0x699BceEbD59a5b52bB586C737cD7ba636f3Fe602, 80002, 12000000000000000), (0x699BceEbD59a5b52bB586C737cD7ba636f3Fe602, 80002, 12100000000000000), (0x699BceEbD59a5b52bB586C737cD7ba636f3Fe602, 80002, 12200000000000000), (0x699BceEbD59a5b52bB586C737cD7ba636f3Fe602, 80002, 12300000000000000), (0x699BceEbD59a5b52bB586C737cD7ba636f3Fe602, 80002, 12400000000000000), (0x699BceEbD59a5b52bB586C737cD7ba636f3Fe602, 80002, 12500000000000000), (0x699BceEbD59a5b52bB586C737cD7ba636f3Fe602, 80002, 12600000000000000), (0x699BceEbD59a5b52bB586C737cD7ba636f3Fe602, 80002, 12700000000000000), (0x699BceEbD59a5b52bB586C737cD7ba636f3Fe602, 80002, 12800000000000000), (0x699BceEbD59a5b52bB586C737cD7ba636f3Fe602, 80002, 12900000000000000), (0x699BceEbD59a5b52bB586C737cD7ba636f3Fe602, 80002, 13000000000000000)]"
      ],
      "transaction": {
        "from": "0x699bceebd59a5b52bb586c737cd7ba636f3fe602",
        "to": "0x23dd1aa37b5c81d64586c021330d61d3ad55aafb",
        "gas": "0x48100",
        "value": "0x39bb49f599a0000",
        "input": "0x42cbee8d00000000000000000000000000000000000000000000000000000000000000200000000000000000000000000000000000000000000000000000000000000014000000000000000000000000699bceebd59a5b52bb586c737cd7ba636f3fe602000000000000000000000000000000000000000000000000000000000001388200000000000000000000000000000000000000000000000000276f642501c000000000000000000000000000699bceebd59a5b52bb586c737cd7ba636f3fe60200000000000000000000000000000000000000000000000000000000000138820000000000000000000000000000000000000000000000000027ca57357c0000000000000000000000000000699bceebd59a5b52bb586c737cd7ba636f3fe60200000000000000000000000000000000000000000000000000000000000138820000000000000000000000000000000000000000000000000028254a45f64000000000000000000000000000699bceebd59a5b52bb586c737cd7ba636f3fe60200000000000000000000000000000000000000000000000000000000000138820000000000000000000000000000000000000000000000000028803d56708000000000000000000000000000699bceebd59a5b52bb586c737cd7ba636f3fe60200000000000000000000000000000000000000000000000000000000000138820000000000000000000000000000000000000000000000000028db3066eac000000000000000000000000000699bceebd59a5b52bb586c737cd7ba636f3fe60200000000000000000000000000000000000000000000000000000000000138820000000000000000000000000000000000000000000000000029362377650000000000000000000000000000699bceebd59a5b52bb586c737cd7ba636f3fe60200000000000000000000000000000000000000000000000000000000000138820000000000000000000000000000000000000000000000000029911687df4000000000000000000000000000699bceebd59a5b52bb586c737cd7ba636f3fe60200000000000000000000000000000000000000000000000000000000000138820000000000000000000000000000000000000000000000000029ec0998598000000000000000000000000000699bceebd59a5b52bb586c737cd7ba636f3fe6020000000000000000000000000000000000000000000000000000000000013882000000000000000000000000000000000000000000000000002a46fca8d3c000000000000000000000000000699bceebd59a5b52bb586c737cd7ba636f3fe6020000000000000000000000000000000000000000000000000000000000013882000000000000000000000000000000000000000000000000002aa1efb94e0000000000000000000000000000699bceebd59a5b52bb586c737cd7ba636f3fe6020000000000000000000000000000000000000000000000000000000000013882000000000000000000000000000000000000000000000000002afce2c9c84000000000000000000000000000699bceebd59a5b52bb586c737cd7ba636f3fe6020000000000000000000000000000000000000000000000000000000000013882000000000000000000000000000000000000000000000000002b57d5da428000000000000000000000000000699bceebd59a5b52bb586c737cd7ba636f3fe6020000000000000000000000000000000000000000000000000000000000013882000000000000000000000000000000000000000000000000002bb2c8eabcc000000000000000000000000000699bceebd59a5b52bb586c737cd7ba636f3fe6020000000000000000000000000000000000000000000000000000000000013882000000000000000000000000000000000000000000000000002c0dbbfb370000000000000000000000000000699bceebd59a5b52bb586c737cd7ba636f3fe6020000000000000000000000000000000000000000000000000000000000013882000000000000000000000000000000000000000000000000002c68af0bb14000000000000000000000000000699bceebd59a5b52bb586c737cd7ba636f3fe6020000000000000000000000000000000000000000000000000000000000013882000000000000000000000000000000000000000000000000002cc3a21c2b8000000000000000000000000000699bceebd59a5b52bb586c737cd7ba636f3fe6020000000000000000000000000000000000000000000000000000000000013882000000000000000000000000000000000000000000000000002d1e952ca5c000000000000000000000000000699bceebd59a5b52bb586c737cd7ba636f3fe6020000000000000000000000000000000000000000000000000000000000013882000000000000000000000000000000000000000000000000002d79883d200000000000000000000000000000699bceebd59a5b52bb586c737cd7ba636f3fe6020000000000000000000000000000000000000000000000000000000000013882000000000000000000000000000000000000000000000000002dd47b4d9a4000000000000000000000000000699bceebd59a5b52bb586c737cd7ba636f3fe6020000000000000000000000000000000000000000000000000000000000013882000000000000000000000000000000000000000000000000002e2f6e5e148000",
        "nonce": "0x19c",
        "chainId": "0xaa36a7",
        "accessList": null,
        "type": null
      },
      "additionalContracts": [],
      "isFixedGasLimit": false
    }
  ],
  "receipts": [
    {
      "status": "0x1",
      "cumulativeGasUsed": "0x1b9d865",
      "logs": [
        {
          "address": "0x23dd1aa37b5c81d64586c021330d61d3ad55aafb",
          "topics": [
            "0x9853b992610853aa2f058d95d0a4868ffcd37470b93a5e6634619467e0d4228c",
            "0x4eb6934c139f9ff4c7cfd7af70aee0b9b2f3660ff6d0975a858434c277a9bfe8",
            "0x000000000000000000000000699bceebd59a5b52bb586c737cd7ba636f3fe602",
            "0x00000000000000000000000000000000000000000000000000276f642501c000"
          ],
          "data": "0x0000000000000000000000000000000000000000000000000000000066307c20000000000000000000000000699bceebd59a5b52bb586c737cd7ba636f3fe60200000000000000000000000000000000000000000000000000000000000138820000000000000000000000000000000000000000000000a2a15d09519be000000000000000000000000000000000000000000000000000000de0b6b3a7640000",
          "blockHash": "0x64a72c396e82102065220b47f6258b09d73a02f5674e85a46044589e48d93e1a",
          "blockNumber": "0x589ab1",
          "transactionHash": "0xe854a181d8d98fce89dca324cd1f7ec1ea00a609dea1432a893ba062fb0ed801",
          "transactionIndex": "0x98",
          "logIndex": "0x1d5",
          "removed": false
        },
        {
          "address": "0x23dd1aa37b5c81d64586c021330d61d3ad55aafb",
          "topics": [
            "0x9853b992610853aa2f058d95d0a4868ffcd37470b93a5e6634619467e0d4228c",
            "0x9f59216755a9ded59b382bea9481a7225361bbea01876e4cb4363c300c1bc51a",
            "0x000000000000000000000000699bceebd59a5b52bb586c737cd7ba636f3fe602",
            "0x0000000000000000000000000000000000000000000000000027ca57357c0000"
          ],
          "data": "0x0000000000000000000000000000000000000000000000000000000066307c20000000000000000000000000699bceebd59a5b52bb586c737cd7ba636f3fe60200000000000000000000000000000000000000000000000000000000000138820000000000000000000000000000000000000000000000a2a15d09519be000000000000000000000000000000000000000000000000000000de0b6b3a7640000",
          "blockHash": "0x64a72c396e82102065220b47f6258b09d73a02f5674e85a46044589e48d93e1a",
          "blockNumber": "0x589ab1",
          "transactionHash": "0xe854a181d8d98fce89dca324cd1f7ec1ea00a609dea1432a893ba062fb0ed801",
          "transactionIndex": "0x98",
          "logIndex": "0x1d6",
          "removed": false
        },
        {
          "address": "0x23dd1aa37b5c81d64586c021330d61d3ad55aafb",
          "topics": [
            "0x9853b992610853aa2f058d95d0a4868ffcd37470b93a5e6634619467e0d4228c",
            "0x553a253edb90d2dca31ecc9a7b1796d5372c9eb893da5b4d2320e2818e22a73a",
            "0x000000000000000000000000699bceebd59a5b52bb586c737cd7ba636f3fe602",
            "0x0000000000000000000000000000000000000000000000000028254a45f64000"
          ],
          "data": "0x0000000000000000000000000000000000000000000000000000000066307c20000000000000000000000000699bceebd59a5b52bb586c737cd7ba636f3fe60200000000000000000000000000000000000000000000000000000000000138820000000000000000000000000000000000000000000000a2a15d09519be000000000000000000000000000000000000000000000000000000de0b6b3a7640000",
          "blockHash": "0x64a72c396e82102065220b47f6258b09d73a02f5674e85a46044589e48d93e1a",
          "blockNumber": "0x589ab1",
          "transactionHash": "0xe854a181d8d98fce89dca324cd1f7ec1ea00a609dea1432a893ba062fb0ed801",
          "transactionIndex": "0x98",
          "logIndex": "0x1d7",
          "removed": false
        },
        {
          "address": "0x23dd1aa37b5c81d64586c021330d61d3ad55aafb",
          "topics": [
            "0x9853b992610853aa2f058d95d0a4868ffcd37470b93a5e6634619467e0d4228c",
            "0x07442ffb3013c5508bc7a03109508ad29ec784117edd88332738f2ffdc28816c",
            "0x000000000000000000000000699bceebd59a5b52bb586c737cd7ba636f3fe602",
            "0x0000000000000000000000000000000000000000000000000028803d56708000"
          ],
          "data": "0x0000000000000000000000000000000000000000000000000000000066307c20000000000000000000000000699bceebd59a5b52bb586c737cd7ba636f3fe60200000000000000000000000000000000000000000000000000000000000138820000000000000000000000000000000000000000000000a2a15d09519be000000000000000000000000000000000000000000000000000000de0b6b3a7640000",
          "blockHash": "0x64a72c396e82102065220b47f6258b09d73a02f5674e85a46044589e48d93e1a",
          "blockNumber": "0x589ab1",
          "transactionHash": "0xe854a181d8d98fce89dca324cd1f7ec1ea00a609dea1432a893ba062fb0ed801",
          "transactionIndex": "0x98",
          "logIndex": "0x1d8",
          "removed": false
        },
        {
          "address": "0x23dd1aa37b5c81d64586c021330d61d3ad55aafb",
          "topics": [
            "0x9853b992610853aa2f058d95d0a4868ffcd37470b93a5e6634619467e0d4228c",
            "0x3c6e608246cec80c0d00c0051db74f6191451e77433a298d0c6e9a0bbbfaa94a",
            "0x000000000000000000000000699bceebd59a5b52bb586c737cd7ba636f3fe602",
            "0x0000000000000000000000000000000000000000000000000028db3066eac000"
          ],
          "data": "0x0000000000000000000000000000000000000000000000000000000066307c20000000000000000000000000699bceebd59a5b52bb586c737cd7ba636f3fe60200000000000000000000000000000000000000000000000000000000000138820000000000000000000000000000000000000000000000a2a15d09519be000000000000000000000000000000000000000000000000000000de0b6b3a7640000",
          "blockHash": "0x64a72c396e82102065220b47f6258b09d73a02f5674e85a46044589e48d93e1a",
          "blockNumber": "0x589ab1",
          "transactionHash": "0xe854a181d8d98fce89dca324cd1f7ec1ea00a609dea1432a893ba062fb0ed801",
          "transactionIndex": "0x98",
          "logIndex": "0x1d9",
          "removed": false
        },
        {
          "address": "0x23dd1aa37b5c81d64586c021330d61d3ad55aafb",
          "topics": [
            "0x9853b992610853aa2f058d95d0a4868ffcd37470b93a5e6634619467e0d4228c",
            "0x0321cbd5b9c06a5f9d1cba665a919233a906c4d6d844a104c2df2dffaf545a48",
            "0x000000000000000000000000699bceebd59a5b52bb586c737cd7ba636f3fe602",
            "0x0000000000000000000000000000000000000000000000000029362377650000"
          ],
          "data": "0x0000000000000000000000000000000000000000000000000000000066307c20000000000000000000000000699bceebd59a5b52bb586c737cd7ba636f3fe60200000000000000000000000000000000000000000000000000000000000138820000000000000000000000000000000000000000000000a2a15d09519be000000000000000000000000000000000000000000000000000000de0b6b3a7640000",
          "blockHash": "0x64a72c396e82102065220b47f6258b09d73a02f5674e85a46044589e48d93e1a",
          "blockNumber": "0x589ab1",
          "transactionHash": "0xe854a181d8d98fce89dca324cd1f7ec1ea00a609dea1432a893ba062fb0ed801",
          "transactionIndex": "0x98",
          "logIndex": "0x1da",
          "removed": false
        },
        {
          "address": "0x23dd1aa37b5c81d64586c021330d61d3ad55aafb",
          "topics": [
            "0x9853b992610853aa2f058d95d0a4868ffcd37470b93a5e6634619467e0d4228c",
            "0x4b2fde9d905ced1638fbd8f47e2da64ae0cd3b973edb967493f85a65351046f7",
            "0x000000000000000000000000699bceebd59a5b52bb586c737cd7ba636f3fe602",
            "0x0000000000000000000000000000000000000000000000000029911687df4000"
          ],
          "data": "0x0000000000000000000000000000000000000000000000000000000066307c20000000000000000000000000699bceebd59a5b52bb586c737cd7ba636f3fe60200000000000000000000000000000000000000000000000000000000000138820000000000000000000000000000000000000000000000a2a15d09519be000000000000000000000000000000000000000000000000000000de0b6b3a7640000",
          "blockHash": "0x64a72c396e82102065220b47f6258b09d73a02f5674e85a46044589e48d93e1a",
          "blockNumber": "0x589ab1",
          "transactionHash": "0xe854a181d8d98fce89dca324cd1f7ec1ea00a609dea1432a893ba062fb0ed801",
          "transactionIndex": "0x98",
          "logIndex": "0x1db",
          "removed": false
        },
        {
          "address": "0x23dd1aa37b5c81d64586c021330d61d3ad55aafb",
          "topics": [
            "0x9853b992610853aa2f058d95d0a4868ffcd37470b93a5e6634619467e0d4228c",
            "0xa4ee528df19ebc865bd082a4d7dfb53773457ad337f04c5cef5ca856e1bfd1d0",
            "0x000000000000000000000000699bceebd59a5b52bb586c737cd7ba636f3fe602",
            "0x0000000000000000000000000000000000000000000000000029ec0998598000"
          ],
          "data": "0x0000000000000000000000000000000000000000000000000000000066307c20000000000000000000000000699bceebd59a5b52bb586c737cd7ba636f3fe60200000000000000000000000000000000000000000000000000000000000138820000000000000000000000000000000000000000000000a2a15d09519be000000000000000000000000000000000000000000000000000000de0b6b3a7640000",
          "blockHash": "0x64a72c396e82102065220b47f6258b09d73a02f5674e85a46044589e48d93e1a",
          "blockNumber": "0x589ab1",
          "transactionHash": "0xe854a181d8d98fce89dca324cd1f7ec1ea00a609dea1432a893ba062fb0ed801",
          "transactionIndex": "0x98",
          "logIndex": "0x1dc",
          "removed": false
        },
        {
          "address": "0x23dd1aa37b5c81d64586c021330d61d3ad55aafb",
          "topics": [
            "0x9853b992610853aa2f058d95d0a4868ffcd37470b93a5e6634619467e0d4228c",
            "0xf5bc0a58179c786a5cfddddd1e3c316f41f830ae97feeef1bb9be3bb4e5d7a96",
            "0x000000000000000000000000699bceebd59a5b52bb586c737cd7ba636f3fe602",
            "0x000000000000000000000000000000000000000000000000002a46fca8d3c000"
          ],
          "data": "0x0000000000000000000000000000000000000000000000000000000066307c20000000000000000000000000699bceebd59a5b52bb586c737cd7ba636f3fe60200000000000000000000000000000000000000000000000000000000000138820000000000000000000000000000000000000000000000a2a15d09519be000000000000000000000000000000000000000000000000000000de0b6b3a7640000",
          "blockHash": "0x64a72c396e82102065220b47f6258b09d73a02f5674e85a46044589e48d93e1a",
          "blockNumber": "0x589ab1",
          "transactionHash": "0xe854a181d8d98fce89dca324cd1f7ec1ea00a609dea1432a893ba062fb0ed801",
          "transactionIndex": "0x98",
          "logIndex": "0x1dd",
          "removed": false
        },
        {
          "address": "0x23dd1aa37b5c81d64586c021330d61d3ad55aafb",
          "topics": [
            "0x9853b992610853aa2f058d95d0a4868ffcd37470b93a5e6634619467e0d4228c",
            "0x63cd51e3b2e73bfc66f199ccc1d52a28a96ce5a92b3ba29363ae2ed6cb94a7e4",
            "0x000000000000000000000000699bceebd59a5b52bb586c737cd7ba636f3fe602",
            "0x000000000000000000000000000000000000000000000000002aa1efb94e0000"
          ],
          "data": "0x0000000000000000000000000000000000000000000000000000000066307c20000000000000000000000000699bceebd59a5b52bb586c737cd7ba636f3fe60200000000000000000000000000000000000000000000000000000000000138820000000000000000000000000000000000000000000000a2a15d09519be000000000000000000000000000000000000000000000000000000de0b6b3a7640000",
          "blockHash": "0x64a72c396e82102065220b47f6258b09d73a02f5674e85a46044589e48d93e1a",
          "blockNumber": "0x589ab1",
          "transactionHash": "0xe854a181d8d98fce89dca324cd1f7ec1ea00a609dea1432a893ba062fb0ed801",
          "transactionIndex": "0x98",
          "logIndex": "0x1de",
          "removed": false
        },
        {
          "address": "0x23dd1aa37b5c81d64586c021330d61d3ad55aafb",
          "topics": [
            "0x9853b992610853aa2f058d95d0a4868ffcd37470b93a5e6634619467e0d4228c",
            "0x6ab0405d9f800f6afcd4cd27a20121d9070e1bae9b998f8a1d8eaff7e54a2038",
            "0x000000000000000000000000699bceebd59a5b52bb586c737cd7ba636f3fe602",
            "0x000000000000000000000000000000000000000000000000002afce2c9c84000"
          ],
          "data": "0x0000000000000000000000000000000000000000000000000000000066307c20000000000000000000000000699bceebd59a5b52bb586c737cd7ba636f3fe60200000000000000000000000000000000000000000000000000000000000138820000000000000000000000000000000000000000000000a2a15d09519be000000000000000000000000000000000000000000000000000000de0b6b3a7640000",
          "blockHash": "0x64a72c396e82102065220b47f6258b09d73a02f5674e85a46044589e48d93e1a",
          "blockNumber": "0x589ab1",
          "transactionHash": "0xe854a181d8d98fce89dca324cd1f7ec1ea00a609dea1432a893ba062fb0ed801",
          "transactionIndex": "0x98",
          "logIndex": "0x1df",
          "removed": false
        },
        {
          "address": "0x23dd1aa37b5c81d64586c021330d61d3ad55aafb",
          "topics": [
            "0x9853b992610853aa2f058d95d0a4868ffcd37470b93a5e6634619467e0d4228c",
            "0xde0eb35e8916f2cb66d06c8e131dbd1fa0324bf7e29b1425067e22f3d66ebe47",
            "0x000000000000000000000000699bceebd59a5b52bb586c737cd7ba636f3fe602",
            "0x000000000000000000000000000000000000000000000000002b57d5da428000"
          ],
          "data": "0x0000000000000000000000000000000000000000000000000000000066307c20000000000000000000000000699bceebd59a5b52bb586c737cd7ba636f3fe60200000000000000000000000000000000000000000000000000000000000138820000000000000000000000000000000000000000000000a2a15d09519be000000000000000000000000000000000000000000000000000000de0b6b3a7640000",
          "blockHash": "0x64a72c396e82102065220b47f6258b09d73a02f5674e85a46044589e48d93e1a",
          "blockNumber": "0x589ab1",
          "transactionHash": "0xe854a181d8d98fce89dca324cd1f7ec1ea00a609dea1432a893ba062fb0ed801",
          "transactionIndex": "0x98",
          "logIndex": "0x1e0",
          "removed": false
        },
        {
          "address": "0x23dd1aa37b5c81d64586c021330d61d3ad55aafb",
          "topics": [
            "0x9853b992610853aa2f058d95d0a4868ffcd37470b93a5e6634619467e0d4228c",
            "0xd96330297e0b0b9a44dd6263fd22fa4b1e603a11e41a1548e530d781112762bf",
            "0x000000000000000000000000699bceebd59a5b52bb586c737cd7ba636f3fe602",
            "0x000000000000000000000000000000000000000000000000002bb2c8eabcc000"
          ],
          "data": "0x0000000000000000000000000000000000000000000000000000000066307c20000000000000000000000000699bceebd59a5b52bb586c737cd7ba636f3fe60200000000000000000000000000000000000000000000000000000000000138820000000000000000000000000000000000000000000000a2a15d09519be000000000000000000000000000000000000000000000000000000de0b6b3a7640000",
          "blockHash": "0x64a72c396e82102065220b47f6258b09d73a02f5674e85a46044589e48d93e1a",
          "blockNumber": "0x589ab1",
          "transactionHash": "0xe854a181d8d98fce89dca324cd1f7ec1ea00a609dea1432a893ba062fb0ed801",
          "transactionIndex": "0x98",
          "logIndex": "0x1e1",
          "removed": false
        },
        {
          "address": "0x23dd1aa37b5c81d64586c021330d61d3ad55aafb",
          "topics": [
            "0x9853b992610853aa2f058d95d0a4868ffcd37470b93a5e6634619467e0d4228c",
            "0xcc533803000e7483680ef0b87b05429066a807027fe787029217526f67f1f229",
            "0x000000000000000000000000699bceebd59a5b52bb586c737cd7ba636f3fe602",
            "0x000000000000000000000000000000000000000000000000002c0dbbfb370000"
          ],
          "data": "0x0000000000000000000000000000000000000000000000000000000066307c20000000000000000000000000699bceebd59a5b52bb586c737cd7ba636f3fe60200000000000000000000000000000000000000000000000000000000000138820000000000000000000000000000000000000000000000a2a15d09519be000000000000000000000000000000000000000000000000000000de0b6b3a7640000",
          "blockHash": "0x64a72c396e82102065220b47f6258b09d73a02f5674e85a46044589e48d93e1a",
          "blockNumber": "0x589ab1",
          "transactionHash": "0xe854a181d8d98fce89dca324cd1f7ec1ea00a609dea1432a893ba062fb0ed801",
          "transactionIndex": "0x98",
          "logIndex": "0x1e2",
          "removed": false
        },
        {
          "address": "0x23dd1aa37b5c81d64586c021330d61d3ad55aafb",
          "topics": [
            "0x9853b992610853aa2f058d95d0a4868ffcd37470b93a5e6634619467e0d4228c",
            "0x047e011a48c8f539de84b11d4d3ab209488986c19f0eff70dd2e086ab8e86ccd",
            "0x000000000000000000000000699bceebd59a5b52bb586c737cd7ba636f3fe602",
            "0x000000000000000000000000000000000000000000000000002c68af0bb14000"
          ],
          "data": "0x0000000000000000000000000000000000000000000000000000000066307c20000000000000000000000000699bceebd59a5b52bb586c737cd7ba636f3fe60200000000000000000000000000000000000000000000000000000000000138820000000000000000000000000000000000000000000000a2a15d09519be000000000000000000000000000000000000000000000000000000de0b6b3a7640000",
          "blockHash": "0x64a72c396e82102065220b47f6258b09d73a02f5674e85a46044589e48d93e1a",
          "blockNumber": "0x589ab1",
          "transactionHash": "0xe854a181d8d98fce89dca324cd1f7ec1ea00a609dea1432a893ba062fb0ed801",
          "transactionIndex": "0x98",
          "logIndex": "0x1e3",
          "removed": false
        },
        {
          "address": "0x23dd1aa37b5c81d64586c021330d61d3ad55aafb",
          "topics": [
            "0x9853b992610853aa2f058d95d0a4868ffcd37470b93a5e6634619467e0d4228c",
            "0x8d838e436e10fac7f9b2bffc642161b0b5571fd98e64ef8ba7e5b79b96c0f257",
            "0x000000000000000000000000699bceebd59a5b52bb586c737cd7ba636f3fe602",
            "0x000000000000000000000000000000000000000000000000002cc3a21c2b8000"
          ],
          "data": "0x0000000000000000000000000000000000000000000000000000000066307c20000000000000000000000000699bceebd59a5b52bb586c737cd7ba636f3fe60200000000000000000000000000000000000000000000000000000000000138820000000000000000000000000000000000000000000000a2a15d09519be000000000000000000000000000000000000000000000000000000de0b6b3a7640000",
          "blockHash": "0x64a72c396e82102065220b47f6258b09d73a02f5674e85a46044589e48d93e1a",
          "blockNumber": "0x589ab1",
          "transactionHash": "0xe854a181d8d98fce89dca324cd1f7ec1ea00a609dea1432a893ba062fb0ed801",
          "transactionIndex": "0x98",
          "logIndex": "0x1e4",
          "removed": false
        },
        {
          "address": "0x23dd1aa37b5c81d64586c021330d61d3ad55aafb",
          "topics": [
            "0x9853b992610853aa2f058d95d0a4868ffcd37470b93a5e6634619467e0d4228c",
            "0x181c315b86a0fa936b8565783ce8508e11d5bd839c21223f1923412583bd4fad",
            "0x000000000000000000000000699bceebd59a5b52bb586c737cd7ba636f3fe602",
            "0x000000000000000000000000000000000000000000000000002d1e952ca5c000"
          ],
          "data": "0x0000000000000000000000000000000000000000000000000000000066307c20000000000000000000000000699bceebd59a5b52bb586c737cd7ba636f3fe60200000000000000000000000000000000000000000000000000000000000138820000000000000000000000000000000000000000000000a2a15d09519be000000000000000000000000000000000000000000000000000000de0b6b3a7640000",
          "blockHash": "0x64a72c396e82102065220b47f6258b09d73a02f5674e85a46044589e48d93e1a",
          "blockNumber": "0x589ab1",
          "transactionHash": "0xe854a181d8d98fce89dca324cd1f7ec1ea00a609dea1432a893ba062fb0ed801",
          "transactionIndex": "0x98",
          "logIndex": "0x1e5",
          "removed": false
        },
        {
          "address": "0x23dd1aa37b5c81d64586c021330d61d3ad55aafb",
          "topics": [
            "0x9853b992610853aa2f058d95d0a4868ffcd37470b93a5e6634619467e0d4228c",
            "0x4e89e74e06eaa5f47de17dfd794782670c2272110dc25802c15c25fc08222255",
            "0x000000000000000000000000699bceebd59a5b52bb586c737cd7ba636f3fe602",
            "0x000000000000000000000000000000000000000000000000002d79883d200000"
          ],
          "data": "0x0000000000000000000000000000000000000000000000000000000066307c20000000000000000000000000699bceebd59a5b52bb586c737cd7ba636f3fe60200000000000000000000000000000000000000000000000000000000000138820000000000000000000000000000000000000000000000a2a15d09519be000000000000000000000000000000000000000000000000000000de0b6b3a7640000",
          "blockHash": "0x64a72c396e82102065220b47f6258b09d73a02f5674e85a46044589e48d93e1a",
          "blockNumber": "0x589ab1",
          "transactionHash": "0xe854a181d8d98fce89dca324cd1f7ec1ea00a609dea1432a893ba062fb0ed801",
          "transactionIndex": "0x98",
          "logIndex": "0x1e6",
          "removed": false
        },
        {
          "address": "0x23dd1aa37b5c81d64586c021330d61d3ad55aafb",
          "topics": [
            "0x9853b992610853aa2f058d95d0a4868ffcd37470b93a5e6634619467e0d4228c",
            "0x4fb8d1122da4f50f56a0381542f43ed0e8becac58c7e38459c9377ab73c41b5b",
            "0x000000000000000000000000699bceebd59a5b52bb586c737cd7ba636f3fe602",
            "0x000000000000000000000000000000000000000000000000002dd47b4d9a4000"
          ],
          "data": "0x0000000000000000000000000000000000000000000000000000000066307c20000000000000000000000000699bceebd59a5b52bb586c737cd7ba636f3fe60200000000000000000000000000000000000000000000000000000000000138820000000000000000000000000000000000000000000000a2a15d09519be000000000000000000000000000000000000000000000000000000de0b6b3a7640000",
          "blockHash": "0x64a72c396e82102065220b47f6258b09d73a02f5674e85a46044589e48d93e1a",
          "blockNumber": "0x589ab1",
          "transactionHash": "0xe854a181d8d98fce89dca324cd1f7ec1ea00a609dea1432a893ba062fb0ed801",
          "transactionIndex": "0x98",
          "logIndex": "0x1e7",
          "removed": false
        },
        {
          "address": "0x23dd1aa37b5c81d64586c021330d61d3ad55aafb",
          "topics": [
            "0x9853b992610853aa2f058d95d0a4868ffcd37470b93a5e6634619467e0d4228c",
            "0xa68e92542e0590a4a66ca77d60484f65aab01d303791b454d918ba29c3c0698c",
            "0x000000000000000000000000699bceebd59a5b52bb586c737cd7ba636f3fe602",
            "0x000000000000000000000000000000000000000000000000002e2f6e5e148000"
          ],
          "data": "0x0000000000000000000000000000000000000000000000000000000066307c20000000000000000000000000699bceebd59a5b52bb586c737cd7ba636f3fe60200000000000000000000000000000000000000000000000000000000000138820000000000000000000000000000000000000000000000a2a15d09519be000000000000000000000000000000000000000000000000000000de0b6b3a7640000",
          "blockHash": "0x64a72c396e82102065220b47f6258b09d73a02f5674e85a46044589e48d93e1a",
          "blockNumber": "0x589ab1",
          "transactionHash": "0xe854a181d8d98fce89dca324cd1f7ec1ea00a609dea1432a893ba062fb0ed801",
          "transactionIndex": "0x98",
          "logIndex": "0x1e8",
          "removed": false
        }
      ],
      "logsBloom": "0x000084001200000810000012408c0000220000000000000000401000000001000022400110080010000040800200401000000000080000000002000010000000118000000024002000000008000810800008000008002000000101000040000000800000058041a0806008040060000000000000800100004040000000800c004001000000a02000000001000250020000200200000028000000000000084000000000000000000444018000000004040090002025000000400000040000002000000001000000000000004100008000000000000130010000000000000000000000010222000000015001110000000000000100200000000010000000000000",
      "type": "0x2",
      "transactionHash": "0xe854a181d8d98fce89dca324cd1f7ec1ea00a609dea1432a893ba062fb0ed801",
      "transactionIndex": "0x98",
      "blockHash": "0x64a72c396e82102065220b47f6258b09d73a02f5674e85a46044589e48d93e1a",
      "blockNumber": "0x589ab1",
      "gasUsed": "0x31461",
      "effectiveGasPrice": "0x5e04dfc5",
      "from": "0x699bceebd59a5b52bb586c737cd7ba636f3fe602",
      "to": "0x23dd1aa37b5c81d64586c021330d61d3ad55aafb",
      "contractAddress": null
    }
  ],
  "libraries": [],
  "pending": [],
  "returns": {},
  "timestamp": 1714453540,
  "chain": 11155111,
  "commit": "9546700"
}