{
  "transactions": [
    {
      "hash": "0x3fc0f1fcf3cccf995122c3379995964d561ae569c8f8050f8113df369a97176c",
      "transactionType": "CALL",
      "contractName": null,
      "contractAddress": "0x23dd1aa37b5c81d64586c021330d61d3ad55aafb",
      "function": "postMessage((address,uint256,uint256)[])",
      "arguments": [
        "[(0x699BceEbD59a5b52bB586C737cD7ba636f3Fe602, 80002, 11100000000000000), (0x699BceEbD59a5b52bB586C737cD7ba636f3Fe602, 80002, 11200000000000000), (0x699BceEbD59a5b52bB586C737cD7ba636f3Fe602, 80002, 11300000000000000), (0x699BceEbD59a5b52bB586C737cD7ba636f3Fe602, 80002, 11400000000000000), (0x699BceEbD59a5b52bB586C737cD7ba636f3Fe602, 80002, 11500000000000000)]"
      ],
      "transaction": {
        "from": "0x699bceebd59a5b52bb586c737cd7ba636f3fe602",
        "to": "0x23dd1aa37b5c81d64586c021330d61d3ad55aafb",
        "gas": "0x274b6",
        "value": "0xd529ae9e860000",
        "input": "0x42cbee8d00000000000000000000000000000000000000000000000000000000000000200000000000000000000000000000000000000000000000000000000000000005000000000000000000000000699bceebd59a5b52bb586c737cd7ba636f3fe602000000000000000000000000000000000000000000000000000000000001388200000000000000000000000000000000000000000000000000276f642501c000000000000000000000000000699bceebd59a5b52bb586c737cd7ba636f3fe60200000000000000000000000000000000000000000000000000000000000138820000000000000000000000000000000000000000000000000027ca57357c0000000000000000000000000000699bceebd59a5b52bb586c737cd7ba636f3fe60200000000000000000000000000000000000000000000000000000000000138820000000000000000000000000000000000000000000000000028254a45f64000000000000000000000000000699bceebd59a5b52bb586c737cd7ba636f3fe60200000000000000000000000000000000000000000000000000000000000138820000000000000000000000000000000000000000000000000028803d56708000000000000000000000000000699bceebd59a5b52bb586c737cd7ba636f3fe60200000000000000000000000000000000000000000000000000000000000138820000000000000000000000000000000000000000000000000028db3066eac000",
        "nonce": "0x17a",
        "chainId": "0xaa36a7",
        "accessList": null,
        "type": null
      },
      "additionalContracts": [],
      "isFixedGasLimit": false
    }
  ],
  "receipts": [
    {
      "status": "0x1",
      "cumulativeGasUsed": "0xdc47ba",
      "logs": [
        {
          "address": "0x23dd1aa37b5c81d64586c021330d61d3ad55aafb",
          "topics": [
            "0x9853b992610853aa2f058d95d0a4868ffcd37470b93a5e6634619467e0d4228c",
            "0x1d8110b30202046cff797ce5661082a2efbb3d47a8214b73dfc4d98c903d7d5c",
            "0x000000000000000000000000699bceebd59a5b52bb586c737cd7ba636f3fe602",
            "0x00000000000000000000000000000000000000000000000000276f642501c000"
          ],
          "data": "0x00000000000000000000000000000000000000000000000000000000662ffe8c000000000000000000000000699bceebd59a5b52bb586c737cd7ba636f3fe60200000000000000000000000000000000000000000000000000000000000138820000000000000000000000000000000000000000000000a2a15d09519be000000000000000000000000000000000000000000000000000000de0b6b3a7640000",
          "blockHash": "0xa0f44aec29de95dcc7e9b45af21c4b8ae922d30824f6709e0642551172579e3e",
          "blockNumber": "0x5891b2",
          "transactionHash": "0x3fc0f1fcf3cccf995122c3379995964d561ae569c8f8050f8113df369a97176c",
          "transactionIndex": "0x57",
          "logIndex": "0x99",
          "removed": false
        },
        {
          "address": "0x23dd1aa37b5c81d64586c021330d61d3ad55aafb",
          "topics": [
            "0x9853b992610853aa2f058d95d0a4868ffcd37470b93a5e6634619467e0d4228c",
            "0x7e05bd7b7ce3dc603c1628606e058eb159cef0c23449c878443aa8ab6661a7b5",
            "0x000000000000000000000000699bceebd59a5b52bb586c737cd7ba636f3fe602",
            "0x0000000000000000000000000000000000000000000000000027ca57357c0000"
          ],
          "data": "0x00000000000000000000000000000000000000000000000000000000662ffe8c000000000000000000000000699bceebd59a5b52bb586c737cd7ba636f3fe60200000000000000000000000000000000000000000000000000000000000138820000000000000000000000000000000000000000000000a2a15d09519be000000000000000000000000000000000000000000000000000000de0b6b3a7640000",
          "blockHash": "0xa0f44aec29de95dcc7e9b45af21c4b8ae922d30824f6709e0642551172579e3e",
          "blockNumber": "0x5891b2",
          "transactionHash": "0x3fc0f1fcf3cccf995122c3379995964d561ae569c8f8050f8113df369a97176c",
          "transactionIndex": "0x57",
          "logIndex": "0x9a",
          "removed": false
        },
        {
          "address": "0x23dd1aa37b5c81d64586c021330d61d3ad55aafb",
          "topics": [
            "0x9853b992610853aa2f058d95d0a4868ffcd37470b93a5e6634619467e0d4228c",
            "0x12a3e9c06509beaf11fedea67b4c32634baee03cb97b702d8bcfbd68cc20174f",
            "0x000000000000000000000000699bceebd59a5b52bb586c737cd7ba636f3fe602",
            "0x0000000000000000000000000000000000000000000000000028254a45f64000"
          ],
          "data": "0x00000000000000000000000000000000000000000000000000000000662ffe8c000000000000000000000000699bceebd59a5b52bb586c737cd7ba636f3fe60200000000000000000000000000000000000000000000000000000000000138820000000000000000000000000000000000000000000000a2a15d09519be000000000000000000000000000000000000000000000000000000de0b6b3a7640000",
          "blockHash": "0xa0f44aec29de95dcc7e9b45af21c4b8ae922d30824f6709e0642551172579e3e",
          "blockNumber": "0x5891b2",
          "transactionHash": "0x3fc0f1fcf3cccf995122c3379995964d561ae569c8f8050f8113df369a97176c",
          "transactionIndex": "0x57",
          "logIndex": "0x9b",
          "removed": false
        },
        {
          "address": "0x23dd1aa37b5c81d64586c021330d61d3ad55aafb",
          "topics": [
            "0x9853b992610853aa2f058d95d0a4868ffcd37470b93a5e6634619467e0d4228c",
            "0xaf4de9cd2a30b9867716eb43ac0e5aeb858e2fd5d0af5da6621b7a61c8a8e80c",
            "0x000000000000000000000000699bceebd59a5b52bb586c737cd7ba636f3fe602",
            "0x0000000000000000000000000000000000000000000000000028803d56708000"
          ],
          "data": "0x00000000000000000000000000000000000000000000000000000000662ffe8c000000000000000000000000699bceebd59a5b52bb586c737cd7ba636f3fe60200000000000000000000000000000000000000000000000000000000000138820000000000000000000000000000000000000000000000a2a15d09519be000000000000000000000000000000000000000000000000000000de0b6b3a7640000",
          "blockHash": "0xa0f44aec29de95dcc7e9b45af21c4b8ae922d30824f6709e0642551172579e3e",
          "blockNumber": "0x5891b2",
          "transactionHash": "0x3fc0f1fcf3cccf995122c3379995964d561ae569c8f8050f8113df369a97176c",
          "transactionIndex": "0x57",
          "logIndex": "0x9c",
          "removed": false
        },
        {
          "address": "0x23dd1aa37b5c81d64586c021330d61d3ad55aafb",
          "topics": [
            "0x9853b992610853aa2f058d95d0a4868ffcd37470b93a5e6634619467e0d4228c",
            "0xfc92ab5888a15edea0d0e9cd61a5483d755cd12bba9b12a40b2bf30a111a2842",
            "0x000000000000000000000000699bceebd59a5b52bb586c737cd7ba636f3fe602",
            "0x0000000000000000000000000000000000000000000000000028db3066eac000"
          ],
          "data": "0x00000000000000000000000000000000000000000000000000000000662ffe8c000000000000000000000000699bceebd59a5b52bb586c737cd7ba636f3fe60200000000000000000000000000000000000000000000000000000000000138820000000000000000000000000000000000000000000000a2a15d09519be000000000000000000000000000000000000000000000000000000de0b6b3a7640000",
          "blockHash": "0xa0f44aec29de95dcc7e9b45af21c4b8ae922d30824f6709e0642551172579e3e",
          "blockNumber": "0x5891b2",
          "transactionHash": "0x3fc0f1fcf3cccf995122c3379995964d561ae569c8f8050f8113df369a97176c",
          "transactionIndex": "0x57",
          "logIndex": "0x9d",
          "removed": false
        }
      ],
      "logsBloom": "0x00000000000000000000000000000400202000000000000000400000000000000000400000000010000000800000001000010000000000000000004000000000010000000000000000000000000000000000800000000000000000000000000000800000000000000000000400000000000000008000000000000000000000000002000004000080000000000210020000000000000000000200000000001000000000000000000004020000000000000000000000000000080000040000800000000000000000000000004020208000000000000000000000000000000000000000010200000000005001000000000000000100200000000000000000000000",
      "type": "0x2",
      "transactionHash": "0x3fc0f1fcf3cccf995122c3379995964d561ae569c8f8050f8113df369a97176c",
      "transactionIndex": "0x57",
      "blockHash": "0xa0f44aec29de95dcc7e9b45af21c4b8ae922d30824f6709e0642551172579e3e",
      "blockNumber": "0x5891b2",
      "gasUsed": "0x1c72e",
      "effectiveGasPrice": "0x42f8df1b",
      "from": "0x699bceebd59a5b52bb586c737cd7ba636f3fe602",
      "to": "0x23dd1aa37b5c81d64586c021330d61d3ad55aafb",
      "contractAddress": null
    }
  ],
  "libraries": [],
  "pending": [],
  "returns": {},
  "timestamp": 1714421392,
  "chain": 11155111,
  "commit": "9546700"
}