{
  "transactions": [
    {
      "hash": "0x536532b1a4460dcf7353375e00129ec6e227477032ee5a4c5286f568d1a14c3a",
      "transactionType": "CALL",
      "contractName": null,
      "contractAddress": "0x23dd1aa37b5c81d64586c021330d61d3ad55aafb",
      "function": "postMessage((address,uint256,uint256)[])",
      "arguments": [
        "[(0x699BceEbD59a5b52bB586C737cD7ba636f3Fe602, 80002, 11100000000000000), (0x699BceEbD59a5b52bB586C737cD7ba636f3Fe602, 80002, 11200000000000000), (0x699BceEbD59a5b52bB586C737cD7ba636f3Fe602, 80002, 11300000000000000), (0x699BceEbD59a5b52bB586C737cD7ba636f3Fe602, 80002, 11400000000000000), (0x699BceEbD59a5b52bB586C737cD7ba636f3Fe602, 80002, 11500000000000000)]"
      ],
      "transaction": {
        "from": "0x699bceebd59a5b52bb586c737cd7ba636f3fe602",
        "to": "0x23dd1aa37b5c81d64586c021330d61d3ad55aafb",
        "gas": "0x274b6",
        "value": "0xd529ae9e860000",
        "input": "0x42cbee8d00000000000000000000000000000000000000000000000000000000000000200000000000000000000000000000000000000000000000000000000000000005000000000000000000000000699bceebd59a5b52bb586c737cd7ba636f3fe602000000000000000000000000000000000000000000000000000000000001388200000000000000000000000000000000000000000000000000276f642501c000000000000000000000000000699bceebd59a5b52bb586c737cd7ba636f3fe60200000000000000000000000000000000000000000000000000000000000138820000000000000000000000000000000000000000000000000027ca57357c0000000000000000000000000000699bceebd59a5b52bb586c737cd7ba636f3fe60200000000000000000000000000000000000000000000000000000000000138820000000000000000000000000000000000000000000000000028254a45f64000000000000000000000000000699bceebd59a5b52bb586c737cd7ba636f3fe60200000000000000000000000000000000000000000000000000000000000138820000000000000000000000000000000000000000000000000028803d56708000000000000000000000000000699bceebd59a5b52bb586c737cd7ba636f3fe60200000000000000000000000000000000000000000000000000000000000138820000000000000000000000000000000000000000000000000028db3066eac000",
        "nonce": "0x14f",
        "chainId": "0xaa36a7",
        "accessList": null,
        "type": null
      },
      "additionalContracts": [],
      "isFixedGasLimit": false
    }
  ],
  "receipts": [
    {
      "status": "0x1",
      "cumulativeGasUsed": "0x152cc9c",
      "logs": [
        {
          "address": "0x23dd1aa37b5c81d64586c021330d61d3ad55aafb",
          "topics": [
            "0x9853b992610853aa2f058d95d0a4868ffcd37470b93a5e6634619467e0d4228c",
            "0x53b60dc0b9a5a28510694af3d5dbd923786feb37e3121bb0d687f82d531105f2",
            "0x000000000000000000000000699bceebd59a5b52bb586c737cd7ba636f3fe602",
            "0x00000000000000000000000000000000000000000000000000276f642501c000"
          ],
          "data": "0x00000000000000000000000000000000000000000000000000000000662e1b20000000000000000000000000699bceebd59a5b52bb586c737cd7ba636f3fe60200000000000000000000000000000000000000000000000000000000000138820000000000000000000000000000000000000000000000a2a15d09519be000000000000000000000000000000000000000000000000000000de0b6b3a7640000",
          "blockHash": "0xd48fdbc1ad890c1b306f1126cfce67eb094d232590bbfea2be51c341af044daf",
          "blockNumber": "0x586bdb",
          "transactionHash": "0x536532b1a4460dcf7353375e00129ec6e227477032ee5a4c5286f568d1a14c3a",
          "transactionIndex": "0x4d",
          "logIndex": "0xe9",
          "removed": false
        },
        {
          "address": "0x23dd1aa37b5c81d64586c021330d61d3ad55aafb",
          "topics": [
            "0x9853b992610853aa2f058d95d0a4868ffcd37470b93a5e6634619467e0d4228c",
            "0x90c335bb87985380e41f1d4feab1b722f19c6f7dd65f05d20b6c2cf1b9760a38",
            "0x000000000000000000000000699bceebd59a5b52bb586c737cd7ba636f3fe602",
            "0x0000000000000000000000000000000000000000000000000027ca57357c0000"
          ],
          "data": "0x00000000000000000000000000000000000000000000000000000000662e1b20000000000000000000000000699bceebd59a5b52bb586c737cd7ba636f3fe60200000000000000000000000000000000000000000000000000000000000138820000000000000000000000000000000000000000000000a2a15d09519be000000000000000000000000000000000000000000000000000000de0b6b3a7640000",
          "blockHash": "0xd48fdbc1ad890c1b306f1126cfce67eb094d232590bbfea2be51c341af044daf",
          "blockNumber": "0x586bdb",
          "transactionHash": "0x536532b1a4460dcf7353375e00129ec6e227477032ee5a4c5286f568d1a14c3a",
          "transactionIndex": "0x4d",
          "logIndex": "0xea",
          "removed": false
        },
        {
          "address": "0x23dd1aa37b5c81d64586c021330d61d3ad55aafb",
          "topics": [
            "0x9853b992610853aa2f058d95d0a4868ffcd37470b93a5e6634619467e0d4228c",
            "0x669d8af966ac63cf1b0e38c2fd5a70be6595803503be798a28a2ad62a59df712",
            "0x000000000000000000000000699bceebd59a5b52bb586c737cd7ba636f3fe602",
            "0x0000000000000000000000000000000000000000000000000028254a45f64000"
          ],
          "data": "0x00000000000000000000000000000000000000000000000000000000662e1b20000000000000000000000000699bceebd59a5b52bb586c737cd7ba636f3fe60200000000000000000000000000000000000000000000000000000000000138820000000000000000000000000000000000000000000000a2a15d09519be000000000000000000000000000000000000000000000000000000de0b6b3a7640000",
          "blockHash": "0xd48fdbc1ad890c1b306f1126cfce67eb094d232590bbfea2be51c341af044daf",
          "blockNumber": "0x586bdb",
          "transactionHash": "0x536532b1a4460dcf7353375e00129ec6e227477032ee5a4c5286f568d1a14c3a",
          "transactionIndex": "0x4d",
          "logIndex": "0xeb",
          "removed": false
        },
        {
          "address": "0x23dd1aa37b5c81d64586c021330d61d3ad55aafb",
          "topics": [
            "0x9853b992610853aa2f058d95d0a4868ffcd37470b93a5e6634619467e0d4228c",
            "0x8c74ea79976d6c45630497a3d41505520b66969b98f848dc0738f597146715bc",
            "0x000000000000000000000000699bceebd59a5b52bb586c737cd7ba636f3fe602",
            "0x0000000000000000000000000000000000000000000000000028803d56708000"
          ],
          "data": "0x00000000000000000000000000000000000000000000000000000000662e1b20000000000000000000000000699bceebd59a5b52bb586c737cd7ba636f3fe60200000000000000000000000000000000000000000000000000000000000138820000000000000000000000000000000000000000000000a2a15d09519be000000000000000000000000000000000000000000000000000000de0b6b3a7640000",
          "blockHash": "0xd48fdbc1ad890c1b306f1126cfce67eb094d232590bbfea2be51c341af044daf",
          "blockNumber": "0x586bdb",
          "transactionHash": "0x536532b1a4460dcf7353375e00129ec6e227477032ee5a4c5286f568d1a14c3a",
          "transactionIndex": "0x4d",
          "logIndex": "0xec",
          "removed": false
        },
        {
          "address": "0x23dd1aa37b5c81d64586c021330d61d3ad55aafb",
          "topics": [
            "0x9853b992610853aa2f058d95d0a4868ffcd37470b93a5e6634619467e0d4228c",
            "0xbeeddc32e5007ad842e1839d8ec86678bd82e22403131b8632bf4b2bc7889f7d",
            "0x000000000000000000000000699bceebd59a5b52bb586c737cd7ba636f3fe602",
            "0x0000000000000000000000000000000000000000000000000028db3066eac000"
          ],
          "data": "0x00000000000000000000000000000000000000000000000000000000662e1b20000000000000000000000000699bceebd59a5b52bb586c737cd7ba636f3fe60200000000000000000000000000000000000000000000000000000000000138820000000000000000000000000000000000000000000000a2a15d09519be000000000000000000000000000000000000000000000000000000de0b6b3a7640000",
          "blockHash": "0xd48fdbc1ad890c1b306f1126cfce67eb094d232590bbfea2be51c341af044daf",
          "blockNumber": "0x586bdb",
          "transactionHash": "0x536532b1a4460dcf7353375e00129ec6e227477032ee5a4c5286f568d1a14c3a",
          "transactionIndex": "0x4d",
          "logIndex": "0xed",
          "removed": false
        }
      ],
      "logsBloom": "0x00000000000000000000000000000000220000400000000000400000000000000800400000000010004800800000001000000000000000000000000000000000010000000000000000000000000000000000000000010000000000000080000000800000000000000000000400000000000000008000000000000000004000000000000000000100000000000210020000000000000000000000000000000000000000000020000004000000000400000000000000000000000000040000000000000000000000001000004000008000000000000000000000000000000000000000010200000000005001000010000100000300200000000000000000000000",
      "type": "0x2",
      "transactionHash": "0x536532b1a4460dcf7353375e00129ec6e227477032ee5a4c5286f568d1a14c3a",
      "transactionIndex": "0x4d",
      "blockHash": "0xd48fdbc1ad890c1b306f1126cfce67eb094d232590bbfea2be51c341af044daf",
      "blockNumber": "0x586bdb",
      "gasUsed": "0x1c72e",
      "effectiveGasPrice": "0x1a9d851b1",
      "from": "0x699bceebd59a5b52bb586c737cd7ba636f3fe602",
      "to": "0x23dd1aa37b5c81d64586c021330d61d3ad55aafb",
      "contractAddress": null
    }
  ],
  "libraries": [],
  "pending": [],
  "returns": {},
  "timestamp": 1714297635,
  "chain": 11155111,
  "commit": "9546700"
}