{
  "transactions": [
    {
      "hash": "0x5b67314839de182cc18218e8548f4b137cccff498e8fa2fdfb980449c0766ff0",
      "transactionType": "CALL",
      "contractName": null,
      "contractAddress": "0x23dd1aa37b5c81d64586c021330d61d3ad55aafb",
      "function": "postMessage((address,uint256,uint256)[])",
      "arguments": [
        "[(0x699BceEbD59a5b52bB586C737cD7ba636f3Fe602, 80002, 11100000000000000), (0x699BceEbD59a5b52bB586C737cD7ba636f3Fe602, 80002, 11200000000000000), (0x699BceEbD59a5b52bB586C737cD7ba636f3Fe602, 80002, 11300000000000000), (0x699BceEbD59a5b52bB586C737cD7ba636f3Fe602, 80002, 11400000000000000), (0x699BceEbD59a5b52bB586C737cD7ba636f3Fe602, 80002, 11500000000000000)]"
      ],
      "transaction": {
        "from": "0x699bceebd59a5b52bb586c737cd7ba636f3fe602",
        "to": "0x23dd1aa37b5c81d64586c021330d61d3ad55aafb",
        "gas": "0x274b6",
        "value": "0xd529ae9e860000",
        "input": "0x42cbee8d00000000000000000000000000000000000000000000000000000000000000200000000000000000000000000000000000000000000000000000000000000005000000000000000000000000699bceebd59a5b52bb586c737cd7ba636f3fe602000000000000000000000000000000000000000000000000000000000001388200000000000000000000000000000000000000000000000000276f642501c000000000000000000000000000699bceebd59a5b52bb586c737cd7ba636f3fe60200000000000000000000000000000000000000000000000000000000000138820000000000000000000000000000000000000000000000000027ca57357c0000000000000000000000000000699bceebd59a5b52bb586c737cd7ba636f3fe60200000000000000000000000000000000000000000000000000000000000138820000000000000000000000000000000000000000000000000028254a45f64000000000000000000000000000699bceebd59a5b52bb586c737cd7ba636f3fe60200000000000000000000000000000000000000000000000000000000000138820000000000000000000000000000000000000000000000000028803d56708000000000000000000000000000699bceebd59a5b52bb586c737cd7ba636f3fe60200000000000000000000000000000000000000000000000000000000000138820000000000000000000000000000000000000000000000000028db3066eac000",
        "nonce": "0x184",
        "chainId": "0xaa36a7",
        "accessList": null,
        "type": null
      },
      "additionalContracts": [],
      "isFixedGasLimit": false
    }
  ],
  "receipts": [
    {
      "status": "0x1",
      "cumulativeGasUsed": "0xac3743",
      "logs": [
        {
          "address": "0x23dd1aa37b5c81d64586c021330d61d3ad55aafb",
          "topics": [
            "0x9853b992610853aa2f058d95d0a4868ffcd37470b93a5e6634619467e0d4228c",
            "0x2fe67cb494e4ead063e64fba6b01afe411a4d197262c16b1228c8e963899dbca",
            "0x000000000000000000000000699bceebd59a5b52bb586c737cd7ba636f3fe602",
            "0x00000000000000000000000000000000000000000000000000276f642501c000"
          ],
          "data": "0x0000000000000000000000000000000000000000000000000000000066302a54000000000000000000000000699bceebd59a5b52bb586c737cd7ba636f3fe60200000000000000000000000000000000000000000000000000000000000138820000000000000000000000000000000000000000000000a2a15d09519be000000000000000000000000000000000000000000000000000000de0b6b3a7640000",
          "blockHash": "0xc1fbcb209d5f119a727fb5630a27c29b7999c936c9a2c475c014fc597b51d933",
          "blockNumber": "0x5894ec",
          "transactionHash": "0x5b67314839de182cc18218e8548f4b137cccff498e8fa2fdfb980449c0766ff0",
          "transactionIndex": "0x54",
          "logIndex": "0x153",
          "removed": false
        },
        {
          "address": "0x23dd1aa37b5c81d64586c021330d61d3ad55aafb",
          "topics": [
            "0x9853b992610853aa2f058d95d0a4868ffcd37470b93a5e6634619467e0d4228c",
            "0x327180fa3b4229099c7ef0fb755638a35a420570fc4449c27c0ad9c25550328b",
            "0x000000000000000000000000699bceebd59a5b52bb586c737cd7ba636f3fe602",
            "0x0000000000000000000000000000000000000000000000000027ca57357c0000"
          ],
          "data": "0x0000000000000000000000000000000000000000000000000000000066302a54000000000000000000000000699bceebd59a5b52bb586c737cd7ba636f3fe60200000000000000000000000000000000000000000000000000000000000138820000000000000000000000000000000000000000000000a2a15d09519be000000000000000000000000000000000000000000000000000000de0b6b3a7640000",
          "blockHash": "0xc1fbcb209d5f119a727fb5630a27c29b7999c936c9a2c475c014fc597b51d933",
          "blockNumber": "0x5894ec",
          "transactionHash": "0x5b67314839de182cc18218e8548f4b137cccff498e8fa2fdfb980449c0766ff0",
          "transactionIndex": "0x54",
          "logIndex": "0x154",
          "removed": false
        },
        {
          "address": "0x23dd1aa37b5c81d64586c021330d61d3ad55aafb",
          "topics": [
            "0x9853b992610853aa2f058d95d0a4868ffcd37470b93a5e6634619467e0d4228c",
            "0x12f713d48ec7513a5b54ae9242bf7fdb9cee175165b100fb036f927affdb581f",
            "0x000000000000000000000000699bceebd59a5b52bb586c737cd7ba636f3fe602",
            "0x0000000000000000000000000000000000000000000000000028254a45f64000"
          ],
          "data": "0x0000000000000000000000000000000000000000000000000000000066302a54000000000000000000000000699bceebd59a5b52bb586c737cd7ba636f3fe60200000000000000000000000000000000000000000000000000000000000138820000000000000000000000000000000000000000000000a2a15d09519be000000000000000000000000000000000000000000000000000000de0b6b3a7640000",
          "blockHash": "0xc1fbcb209d5f119a727fb5630a27c29b7999c936c9a2c475c014fc597b51d933",
          "blockNumber": "0x5894ec",
          "transactionHash": "0x5b67314839de182cc18218e8548f4b137cccff498e8fa2fdfb980449c0766ff0",
          "transactionIndex": "0x54",
          "logIndex": "0x155",
          "removed": false
        },
        {
          "address": "0x23dd1aa37b5c81d64586c021330d61d3ad55aafb",
          "topics": [
            "0x9853b992610853aa2f058d95d0a4868ffcd37470b93a5e6634619467e0d4228c",
            "0x96dd61c8fb7320c0597cf51bf5b2a651dca0b6aafdf6d66ccccbb61c6212abe0",
            "0x000000000000000000000000699bceebd59a5b52bb586c737cd7ba636f3fe602",
            "0x0000000000000000000000000000000000000000000000000028803d56708000"
          ],
          "data": "0x0000000000000000000000000000000000000000000000000000000066302a54000000000000000000000000699bceebd59a5b52bb586c737cd7ba636f3fe60200000000000000000000000000000000000000000000000000000000000138820000000000000000000000000000000000000000000000a2a15d09519be000000000000000000000000000000000000000000000000000000de0b6b3a7640000",
          "blockHash": "0xc1fbcb209d5f119a727fb5630a27c29b7999c936c9a2c475c014fc597b51d933",
          "blockNumber": "0x5894ec",
          "transactionHash": "0x5b67314839de182cc18218e8548f4b137cccff498e8fa2fdfb980449c0766ff0",
          "transactionIndex": "0x54",
          "logIndex": "0x156",
          "removed": false
        },
        {
          "address": "0x23dd1aa37b5c81d64586c021330d61d3ad55aafb",
          "topics": [
            "0x9853b992610853aa2f058d95d0a4868ffcd37470b93a5e6634619467e0d4228c",
            "0xe00a8d026c940cbebbeddf54702fe10b9cde84171f6f362759e65a8f7e79c279",
            "0x000000000000000000000000699bceebd59a5b52bb586c737cd7ba636f3fe602",
            "0x0000000000000000000000000000000000000000000000000028db3066eac000"
          ],
          "data": "0x0000000000000000000000000000000000000000000000000000000066302a54000000000000000000000000699bceebd59a5b52bb586c737cd7ba636f3fe60200000000000000000000000000000000000000000000000000000000000138820000000000000000000000000000000000000000000000a2a15d09519be000000000000000000000000000000000000000000000000000000de0b6b3a7640000",
          "blockHash": "0xc1fbcb209d5f119a727fb5630a27c29b7999c936c9a2c475c014fc597b51d933",
          "blockNumber": "0x5894ec",
          "transactionHash": "0x5b67314839de182cc18218e8548f4b137cccff498e8fa2fdfb980449c0766ff0",
          "transactionIndex": "0x54",
          "logIndex": "0x157",
          "removed": false
        }
      ],
      "logsBloom": "0x00000000000200000000000000000000200000000000000000400000000000000000400000000010000000800000001000000000000000000000000000000000010000000000000000000200000000000000000000000000000020000000000020800000000100000000000400000000000100008000000000000000010400000000000000000000000000000210020000000000000000000000000000000000000000000002000004000080000000000100000000000000000000040000000008000000000000000000004000008000000000000000000000000000000000000000018200000000005001000800000000000100210000000000000000000000",
      "type": "0x2",
      "transactionHash": "0x5b67314839de182cc18218e8548f4b137cccff498e8fa2fdfb980449c0766ff0",
      "transactionIndex": "0x54",
      "blockHash": "0xc1fbcb209d5f119a727fb5630a27c29b7999c936c9a2c475c014fc597b51d933",
      "blockNumber": "0x5894ec",
      "gasUsed": "0x1c72e",
      "effectiveGasPrice": "0x4a8a58a2",
      "from": "0x699bceebd59a5b52bb586c737cd7ba636f3fe602",
      "to": "0x23dd1aa37b5c81d64586c021330d61d3ad55aafb",
      "contractAddress": null
    }
  ],
  "libraries": [],
  "pending": [],
  "returns": {},
  "timestamp": 1714432600,
  "chain": 11155111,
  "commit": "9546700"
}