{
  "transactions": [
    {
      "hash": "0xd84c955a2d3545c267f06a802be297a08a6b7ce2f993cc2a792005213bd822cb",
      "transactionType": "CALL",
      "contractName": null,
      "contractAddress": "0x23dd1aa37b5c81d64586c021330d61d3ad55aafb",
      "function": "postMessage((address,uint256,uint256)[])",
      "arguments": [
        "[(0x699BceEbD59a5b52bB586C737cD7ba636f3Fe602, 80002, 11100000000000000), (0x699BceEbD59a5b52bB586C737cD7ba636f3Fe602, 80002, 11200000000000000), (0x699BceEbD59a5b52bB586C737cD7ba636f3Fe602, 80002, 11300000000000000), (0x699BceEbD59a5b52bB586C737cD7ba636f3Fe602, 80002, 11400000000000000), (0x699BceEbD59a5b52bB586C737cD7ba636f3Fe602, 80002, 11500000000000000), (0x699BceEbD59a5b52bB586C737cD7ba636f3Fe602, 80002, 11600000000000000), (0x699BceEbD59a5b52bB586C737cD7ba636f3Fe602, 80002, 11700000000000000), (0x699BceEbD59a5b52bB586C737cD7ba636f3Fe602, 80002, 11800000000000000), (0x699BceEbD59a5b52bB586C737cD7ba636f3Fe602, 80002, 11900000000000000), (0x699BceEbD59a5b52bB586C737cD7ba636f3Fe602, 80002, 12000000000000000), (0x699BceEbD59a5b52bB586C737cD7ba636f3Fe602, 80002, 12000000000000000), (0x699BceEbD59a5b52bB586C737cD7ba636f3Fe602, 80002, 12200000000000000), (0x699BceEbD59a5b52bB586C737cD7ba636f3Fe602, 80002, 12300000000000000), (0x699BceEbD59a5b52bB586C737cD7ba636f3Fe602, 80002, 12400000000000000), (0x699BceEbD59a5b52bB586C737cD7ba636f3Fe602, 80002, 12500000000000000), (0x699BceEbD59a5b52bB586C737cD7ba636f3Fe602, 80002, 12600000000000000), (0x699BceEbD59a5b52bB586C737cD7ba636f3Fe602, 80002, 12700000000000000), (0x699BceEbD59a5b52bB586C737cD7ba636f3Fe602, 80002, 12800000000000000), (0x699BceEbD59a5b52bB586C737cD7ba636f3Fe602, 80002, 12900000000000000), (0x699BceEbD59a5b52bB586C737cD7ba636f3Fe602, 80002, 13000000000000000)]"
      ],
      "transaction": {
        "from": "0x699bceebd59a5b52bb586c737cd7ba636f3fe602",
        "to": "0x23dd1aa37b5c81d64586c021330d61d3ad55aafb",
        "gas": "0x440e1",
        "value": "0x39bb49f599a0000",
        "input": "0x42cbee8d00000000000000000000000000000000000000000000000000000000000000200000000000000000000000000000000000000000000000000000000000000014000000000000000000000000699bceebd59a5b52bb586c737cd7ba636f3fe602000000000000000000000000000000000000000000000000000000000001388200000000000000000000000000000000000000000000000000276f642501c000000000000000000000000000699bceebd59a5b52bb586c737cd7ba636f3fe60200000000000000000000000000000000000000000000000000000000000138820000000000000000000000000000000000000000000000000027ca57357c0000000000000000000000000000699bceebd59a5b52bb586c737cd7ba636f3fe60200000000000000000000000000000000000000000000000000000000000138820000000000000000000000000000000000000000000000000028254a45f64000000000000000000000000000699bceebd59a5b52bb586c737cd7ba636f3fe60200000000000000000000000000000000000000000000000000000000000138820000000000000000000000000000000000000000000000000028803d56708000000000000000000000000000699bceebd59a5b52bb586c737cd7ba636f3fe60200000000000000000000000000000000000000000000000000000000000138820000000000000000000000000000000000000000000000000028db3066eac000000000000000000000000000699bceebd59a5b52bb586c737cd7ba636f3fe60200000000000000000000000000000000000000000000000000000000000138820000000000000000000000000000000000000000000000000029362377650000000000000000000000000000699bceebd59a5b52bb586c737cd7ba636f3fe60200000000000000000000000000000000000000000000000000000000000138820000000000000000000000000000000000000000000000000029911687df4000000000000000000000000000699bceebd59a5b52bb586c737cd7ba636f3fe60200000000000000000000000000000000000000000000000000000000000138820000000000000000000000000000000000000000000000000029ec0998598000000000000000000000000000699bceebd59a5b52bb586c737cd7ba636f3fe6020000000000000000000000000000000000000000000000000000000000013882000000000000000000000000000000000000000000000000002a46fca8d3c000000000000000000000000000699bceebd59a5b52bb586c737cd7ba636f3fe6020000000000000000000000000000000000000000000000000000000000013882000000000000000000000000000000000000000000000000002aa1efb94e0000000000000000000000000000699bceebd59a5b52bb586c737cd7ba636f3fe6020000000000000000000000000000000000000000000000000000000000013882000000000000000000000000000000000000000000000000002aa1efb94e0000000000000000000000000000699bceebd59a5b52bb586c737cd7ba636f3fe6020000000000000000000000000000000000000000000000000000000000013882000000000000000000000000000000000000000000000000002b57d5da428000000000000000000000000000699bceebd59a5b52bb586c737cd7ba636f3fe6020000000000000000000000000000000000000000000000000000000000013882000000000000000000000000000000000000000000000000002bb2c8eabcc000000000000000000000000000699bceebd59a5b52bb586c737cd7ba636f3fe6020000000000000000000000000000000000000000000000000000000000013882000000000000000000000000000000000000000000000000002c0dbbfb370000000000000000000000000000699bceebd59a5b52bb586c737cd7ba636f3fe6020000000000000000000000000000000000000000000000000000000000013882000000000000000000000000000000000000000000000000002c68af0bb14000000000000000000000000000699bceebd59a5b52bb586c737cd7ba636f3fe6020000000000000000000000000000000000000000000000000000000000013882000000000000000000000000000000000000000000000000002cc3a21c2b8000000000000000000000000000699bceebd59a5b52bb586c737cd7ba636f3fe6020000000000000000000000000000000000000000000000000000000000013882000000000000000000000000000000000000000000000000002d1e952ca5c000000000000000000000000000699bceebd59a5b52bb586c737cd7ba636f3fe6020000000000000000000000000000000000000000000000000000000000013882000000000000000000000000000000000000000000000000002d79883d200000000000000000000000000000699bceebd59a5b52bb586c737cd7ba636f3fe6020000000000000000000000000000000000000000000000000000000000013882000000000000000000000000000000000000000000000000002dd47b4d9a4000000000000000000000000000699bceebd59a5b52bb586c737cd7ba636f3fe6020000000000000000000000000000000000000000000000000000000000013882000000000000000000000000000000000000000000000000002e2f6e5e148000",
        "nonce": "0x180",
        "chainId": "0xaa36a7",
        "accessList": null,
        "type": null
      },
      "additionalContracts": [],
      "isFixedGasLimit": false
    }
  ],
  "receipts": [
    {
      "status": "0x1",
      "cumulativeGasUsed": "0x5e317e",
      "logs": [
        {
          "address": "0x23dd1aa37b5c81d64586c021330d61d3ad55aafb",
          "topics": [
            "0x9853b992610853aa2f058d95d0a4868ffcd37470b93a5e6634619467e0d4228c",
            "0xeb27682e47f97f8cecbf81f4f7b954e54019802cfd12f88e0db93373d3b80d9f",
            "0x000000000000000000000000699bceebd59a5b52bb586c737cd7ba636f3fe602",
            "0x00000000000000000000000000000000000000000000000000276f642501c000"
          ],
          "data": "0x000000000000000000000000000000000000000000000000000000006630150c000000000000000000000000699bceebd59a5b52bb586c737cd7ba636f3fe60200000000000000000000000000000000000000000000000000000000000138820000000000000000000000000000000000000000000000a2a15d09519be000000000000000000000000000000000000000000000000000000de0b6b3a7640000",
          "blockHash": "0xe9d32f1568371bf14cf74bd3e94391149f5af16ec2c48dfb0155524c858facb3",
          "blockNumber": "0x589365",
          "transactionHash": "0xd84c955a2d3545c267f06a802be297a08a6b7ce2f993cc2a792005213bd822cb",
          "transactionIndex": "0x2b",
          "logIndex": "0x83",
          "removed": false
        },
        {
          "address": "0x23dd1aa37b5c81d64586c021330d61d3ad55aafb",
          "topics": [
            "0x9853b992610853aa2f058d95d0a4868ffcd37470b93a5e6634619467e0d4228c",
            "0x36d1d78aabed1cb3bd25947ce70fd93f7f826632621fa28671c765605d12933e",
            "0x000000000000000000000000699bceebd59a5b52bb586c737cd7ba636f3fe602",
            "0x0000000000000000000000000000000000000000000000000027ca57357c0000"
          ],
          "data": "0x000000000000000000000000000000000000000000000000000000006630150c000000000000000000000000699bceebd59a5b52bb586c737cd7ba636f3fe60200000000000000000000000000000000000000000000000000000000000138820000000000000000000000000000000000000000000000a2a15d09519be000000000000000000000000000000000000000000000000000000de0b6b3a7640000",
          "blockHash": "0xe9d32f1568371bf14cf74bd3e94391149f5af16ec2c48dfb0155524c858facb3",
          "blockNumber": "0x589365",
          "transactionHash": "0xd84c955a2d3545c267f06a802be297a08a6b7ce2f993cc2a792005213bd822cb",
          "transactionIndex": "0x2b",
          "logIndex": "0x84",
          "removed": false
        },
        {
          "address": "0x23dd1aa37b5c81d64586c021330d61d3ad55aafb",
          "topics": [
            "0x9853b992610853aa2f058d95d0a4868ffcd37470b93a5e6634619467e0d4228c",
            "0x34b9d2aa387c5dfdcd29e8638f61e41ed87675150c5076c024d8d459d5448077",
            "0x000000000000000000000000699bceebd59a5b52bb586c737cd7ba636f3fe602",
            "0x0000000000000000000000000000000000000000000000000028254a45f64000"
          ],
          "data": "0x000000000000000000000000000000000000000000000000000000006630150c000000000000000000000000699bceebd59a5b52bb586c737cd7ba636f3fe60200000000000000000000000000000000000000000000000000000000000138820000000000000000000000000000000000000000000000a2a15d09519be000000000000000000000000000000000000000000000000000000de0b6b3a7640000",
          "blockHash": "0xe9d32f1568371bf14cf74bd3e94391149f5af16ec2c48dfb0155524c858facb3",
          "blockNumber": "0x589365",
          "transactionHash": "0xd84c955a2d3545c267f06a802be297a08a6b7ce2f993cc2a792005213bd822cb",
          "transactionIndex": "0x2b",
          "logIndex": "0x85",
          "removed": false
        },
        {
          "address": "0x23dd1aa37b5c81d64586c021330d61d3ad55aafb",
          "topics": [
            "0x9853b992610853aa2f058d95d0a4868ffcd37470b93a5e6634619467e0d4228c",
            "0xecd929c9ebed5d850bfc7f6d4feedb13771a7da1d814207791eefb072be9791b",
            "0x000000000000000000000000699bceebd59a5b52bb586c737cd7ba636f3fe602",
            "0x0000000000000000000000000000000000000000000000000028803d56708000"
          ],
          "data": "0x000000000000000000000000000000000000000000000000000000006630150c000000000000000000000000699bceebd59a5b52bb586c737cd7ba636f3fe60200000000000000000000000000000000000000000000000000000000000138820000000000000000000000000000000000000000000000a2a15d09519be000000000000000000000000000000000000000000000000000000de0b6b3a7640000",
          "blockHash": "0xe9d32f1568371bf14cf74bd3e94391149f5af16ec2c48dfb0155524c858facb3",
          "blockNumber": "0x589365",
          "transactionHash": "0xd84c955a2d3545c267f06a802be297a08a6b7ce2f993cc2a792005213bd822cb",
          "transactionIndex": "0x2b",
          "logIndex": "0x86",
          "removed": false
        },
        {
          "address": "0x23dd1aa37b5c81d64586c021330d61d3ad55aafb",
          "topics": [
            "0x9853b992610853aa2f058d95d0a4868ffcd37470b93a5e6634619467e0d4228c",
            "0x2dbcef042af17090d0c385d854980d2a19255a8d873e99a72f8d6768b7462e43",
            "0x000000000000000000000000699bceebd59a5b52bb586c737cd7ba636f3fe602",
            "0x0000000000000000000000000000000000000000000000000028db3066eac000"
          ],
          "data": "0x000000000000000000000000000000000000000000000000000000006630150c000000000000000000000000699bceebd59a5b52bb586c737cd7ba636f3fe60200000000000000000000000000000000000000000000000000000000000138820000000000000000000000000000000000000000000000a2a15d09519be000000000000000000000000000000000000000000000000000000de0b6b3a7640000",
          "blockHash": "0xe9d32f1568371bf14cf74bd3e94391149f5af16ec2c48dfb0155524c858facb3",
          "blockNumber": "0x589365",
          "transactionHash": "0xd84c955a2d3545c267f06a802be297a08a6b7ce2f993cc2a792005213bd822cb",
          "transactionIndex": "0x2b",
          "logIndex": "0x87",
          "removed": false
        },
        {
          "address": "0x23dd1aa37b5c81d64586c021330d61d3ad55aafb",
          "topics": [
            "0x9853b992610853aa2f058d95d0a4868ffcd37470b93a5e6634619467e0d4228c",
            "0x3187b1f63b1c9114a3533b083d7d1b00bba0a289f7a874cfb5992f2736f5dae0",
            "0x000000000000000000000000699bceebd59a5b52bb586c737cd7ba636f3fe602",
            "0x0000000000000000000000000000000000000000000000000029362377650000"
          ],
          "data": "0x000000000000000000000000000000000000000000000000000000006630150c000000000000000000000000699bceebd59a5b52bb586c737cd7ba636f3fe60200000000000000000000000000000000000000000000000000000000000138820000000000000000000000000000000000000000000000a2a15d09519be000000000000000000000000000000000000000000000000000000de0b6b3a7640000",
          "blockHash": "0xe9d32f1568371bf14cf74bd3e94391149f5af16ec2c48dfb0155524c858facb3",
          "blockNumber": "0x589365",
          "transactionHash": "0xd84c955a2d3545c267f06a802be297a08a6b7ce2f993cc2a792005213bd822cb",
          "transactionIndex": "0x2b",
          "logIndex": "0x88",
          "removed": false
        },
        {
          "address": "0x23dd1aa37b5c81d64586c021330d61d3ad55aafb",
          "topics": [
            "0x9853b992610853aa2f058d95d0a4868ffcd37470b93a5e6634619467e0d4228c",
            "0x088a7fc345cdf3e77f361abec1c8bf1d52d29ef793ebee2114840479e26d44e4",
            "0x000000000000000000000000699bceebd59a5b52bb586c737cd7ba636f3fe602",
            "0x0000000000000000000000000000000000000000000000000029911687df4000"
          ],
          "data": "0x000000000000000000000000000000000000000000000000000000006630150c000000000000000000000000699bceebd59a5b52bb586c737cd7ba636f3fe60200000000000000000000000000000000000000000000000000000000000138820000000000000000000000000000000000000000000000a2a15d09519be000000000000000000000000000000000000000000000000000000de0b6b3a7640000",
          "blockHash": "0xe9d32f1568371bf14cf74bd3e94391149f5af16ec2c48dfb0155524c858facb3",
          "blockNumber": "0x589365",
          "transactionHash": "0xd84c955a2d3545c267f06a802be297a08a6b7ce2f993cc2a792005213bd822cb",
          "transactionIndex": "0x2b",
          "logIndex": "0x89",
          "removed": false
        },
        {
          "address": "0x23dd1aa37b5c81d64586c021330d61d3ad55aafb",
          "topics": [
            "0x9853b992610853aa2f058d95d0a4868ffcd37470b93a5e6634619467e0d4228c",
            "0x3d327d6186ef8e5ebe2540dce293aef19ca91708b46cc7d68dde88009bb2a110",
            "0x000000000000000000000000699bceebd59a5b52bb586c737cd7ba636f3fe602",
            "0x0000000000000000000000000000000000000000000000000029ec0998598000"
          ],
          "data": "0x000000000000000000000000000000000000000000000000000000006630150c000000000000000000000000699bceebd59a5b52bb586c737cd7ba636f3fe60200000000000000000000000000000000000000000000000000000000000138820000000000000000000000000000000000000000000000a2a15d09519be000000000000000000000000000000000000000000000000000000de0b6b3a7640000",
          "blockHash": "0xe9d32f1568371bf14cf74bd3e94391149f5af16ec2c48dfb0155524c858facb3",
          "blockNumber": "0x589365",
          "transactionHash": "0xd84c955a2d3545c267f06a802be297a08a6b7ce2f993cc2a792005213bd822cb",
          "transactionIndex": "0x2b",
          "logIndex": "0x8a",
          "removed": false
        },
        {
          "address": "0x23dd1aa37b5c81d64586c021330d61d3ad55aafb",
          "topics": [
            "0x9853b992610853aa2f058d95d0a4868ffcd37470b93a5e6634619467e0d4228c",
            "0x958a615446310b68a71b23c425ad95c8baeb35b389364e3c8f4bfa19b477e00b",
            "0x000000000000000000000000699bceebd59a5b52bb586c737cd7ba636f3fe602",
            "0x000000000000000000000000000000000000000000000000002a46fca8d3c000"
          ],
          "data": "0x000000000000000000000000000000000000000000000000000000006630150c000000000000000000000000699bceebd59a5b52bb586c737cd7ba636f3fe60200000000000000000000000000000000000000000000000000000000000138820000000000000000000000000000000000000000000000a2a15d09519be000000000000000000000000000000000000000000000000000000de0b6b3a7640000",
          "blockHash": "0xe9d32f1568371bf14cf74bd3e94391149f5af16ec2c48dfb0155524c858facb3",
          "blockNumber": "0x589365",
          "transactionHash": "0xd84c955a2d3545c267f06a802be297a08a6b7ce2f993cc2a792005213bd822cb",
          "transactionIndex": "0x2b",
          "logIndex": "0x8b",
          "removed": false
        },
        {
          "address": "0x23dd1aa37b5c81d64586c021330d61d3ad55aafb",
          "topics": [
            "0x9853b992610853aa2f058d95d0a4868ffcd37470b93a5e6634619467e0d4228c",
            "0x4cee2067128f57989b76313258ffcc6072d4b2dd32c19c5ea99749d788b8adee",
            "0x000000000000000000000000699bceebd59a5b52bb586c737cd7ba636f3fe602",
            "0x000000000000000000000000000000000000000000000000002aa1efb94e0000"
          ],
          "data": "0x000000000000000000000000000000000000000000000000000000006630150c000000000000000000000000699bceebd59a5b52bb586c737cd7ba636f3fe60200000000000000000000000000000000000000000000000000000000000138820000000000000000000000000000000000000000000000a2a15d09519be000000000000000000000000000000000000000000000000000000de0b6b3a7640000",
          "blockHash": "0xe9d32f1568371bf14cf74bd3e94391149f5af16ec2c48dfb0155524c858facb3",
          "blockNumber": "0x589365",
          "transactionHash": "0xd84c955a2d3545c267f06a802be297a08a6b7ce2f993cc2a792005213bd822cb",
          "transactionIndex": "0x2b",
          "logIndex": "0x8c",
          "removed": false
        },
        {
          "address": "0x23dd1aa37b5c81d64586c021330d61d3ad55aafb",
          "topics": [
            "0x9853b992610853aa2f058d95d0a4868ffcd37470b93a5e6634619467e0d4228c",
            "0x432bee6d1f5bb9d0a813fb73aeff3f35a92db3e7836b1c3dbf7dfecca046ca2e",
            "0x000000000000000000000000699bceebd59a5b52bb586c737cd7ba636f3fe602",
            "0x000000000000000000000000000000000000000000000000002aa1efb94e0000"
          ],
          "data": "0x000000000000000000000000000000000000000000000000000000006630150c000000000000000000000000699bceebd59a5b52bb586c737cd7ba636f3fe60200000000000000000000000000000000000000000000000000000000000138820000000000000000000000000000000000000000000000a2a15d09519be000000000000000000000000000000000000000000000000000000de0b6b3a7640000",
          "blockHash": "0xe9d32f1568371bf14cf74bd3e94391149f5af16ec2c48dfb0155524c858facb3",
          "blockNumber": "0x589365",
          "transactionHash": "0xd84c955a2d3545c267f06a802be297a08a6b7ce2f993cc2a792005213bd822cb",
          "transactionIndex": "0x2b",
          "logIndex": "0x8d",
          "removed": false
        },
        {
          "address": "0x23dd1aa37b5c81d64586c021330d61d3ad55aafb",
          "topics": [
            "0x9853b992610853aa2f058d95d0a4868ffcd37470b93a5e6634619467e0d4228c",
            "0xb93b5cc210e4761d201116d4f5ff386e9f33cfdec6e4af0401ed3340af016fd7",
            "0x000000000000000000000000699bceebd59a5b52bb586c737cd7ba636f3fe602",
            "0x000000000000000000000000000000000000000000000000002b57d5da428000"
          ],
          "data": "0x000000000000000000000000000000000000000000000000000000006630150c000000000000000000000000699bceebd59a5b52bb586c737cd7ba636f3fe60200000000000000000000000000000000000000000000000000000000000138820000000000000000000000000000000000000000000000a2a15d09519be000000000000000000000000000000000000000000000000000000de0b6b3a7640000",
          "blockHash": "0xe9d32f1568371bf14cf74bd3e94391149f5af16ec2c48dfb0155524c858facb3",
          "blockNumber": "0x589365",
          "transactionHash": "0xd84c955a2d3545c267f06a802be297a08a6b7ce2f993cc2a792005213bd822cb",
          "transactionIndex": "0x2b",
          "logIndex": "0x8e",
          "removed": false
        },
        {
          "address": "0x23dd1aa37b5c81d64586c021330d61d3ad55aafb",
          "topics": [
            "0x9853b992610853aa2f058d95d0a4868ffcd37470b93a5e6634619467e0d4228c",
            "0xb03913f29eea94dfd434172603ab1114ac75ee120d5e7a98fd92e4f7b63fbf7b",
            "0x000000000000000000000000699bceebd59a5b52bb586c737cd7ba636f3fe602",
            "0x000000000000000000000000000000000000000000000000002bb2c8eabcc000"
          ],
          "data": "0x000000000000000000000000000000000000000000000000000000006630150c000000000000000000000000699bceebd59a5b52bb586c737cd7ba636f3fe60200000000000000000000000000000000000000000000000000000000000138820000000000000000000000000000000000000000000000a2a15d09519be000000000000000000000000000000000000000000000000000000de0b6b3a7640000",
          "blockHash": "0xe9d32f1568371bf14cf74bd3e94391149f5af16ec2c48dfb0155524c858facb3",
          "blockNumber": "0x589365",
          "transactionHash": "0xd84c955a2d3545c267f06a802be297a08a6b7ce2f993cc2a792005213bd822cb",
          "transactionIndex": "0x2b",
          "logIndex": "0x8f",
          "removed": false
        },
        {
          "address": "0x23dd1aa37b5c81d64586c021330d61d3ad55aafb",
          "topics": [
            "0x9853b992610853aa2f058d95d0a4868ffcd37470b93a5e6634619467e0d4228c",
            "0x62ae02602eaa2529d305d30a80426eec632687f91cb371a959257d0867c2b9b8",
            "0x000000000000000000000000699bceebd59a5b52bb586c737cd7ba636f3fe602",
            "0x000000000000000000000000000000000000000000000000002c0dbbfb370000"
          ],
          "data": "0x000000000000000000000000000000000000000000000000000000006630150c000000000000000000000000699bceebd59a5b52bb586c737cd7ba636f3fe60200000000000000000000000000000000000000000000000000000000000138820000000000000000000000000000000000000000000000a2a15d09519be000000000000000000000000000000000000000000000000000000de0b6b3a7640000",
          "blockHash": "0xe9d32f1568371bf14cf74bd3e94391149f5af16ec2c48dfb0155524c858facb3",
          "blockNumber": "0x589365",
          "transactionHash": "0xd84c955a2d3545c267f06a802be297a08a6b7ce2f993cc2a792005213bd822cb",
          "transactionIndex": "0x2b",
          "logIndex": "0x90",
          "removed": false
        },
        {
          "address": "0x23dd1aa37b5c81d64586c021330d61d3ad55aafb",
          "topics": [
            "0x9853b992610853aa2f058d95d0a4868ffcd37470b93a5e6634619467e0d4228c",
            "0x088de8f9a8a6f26f65ac3c8bc6de54d1d0d7ae513418c6e114023343e2f0551c",
            "0x000000000000000000000000699bceebd59a5b52bb586c737cd7ba636f3fe602",
            "0x000000000000000000000000000000000000000000000000002c68af0bb14000"
          ],
          "data": "0x000000000000000000000000000000000000000000000000000000006630150c000000000000000000000000699bceebd59a5b52bb586c737cd7ba636f3fe60200000000000000000000000000000000000000000000000000000000000138820000000000000000000000000000000000000000000000a2a15d09519be000000000000000000000000000000000000000000000000000000de0b6b3a7640000",
          "blockHash": "0xe9d32f1568371bf14cf74bd3e94391149f5af16ec2c48dfb0155524c858facb3",
          "blockNumber": "0x589365",
          "transactionHash": "0xd84c955a2d3545c267f06a802be297a08a6b7ce2f993cc2a792005213bd822cb",
          "transactionIndex": "0x2b",
          "logIndex": "0x91",
          "removed": false
        },
        {
          "address": "0x23dd1aa37b5c81d64586c021330d61d3ad55aafb",
          "topics": [
            "0x9853b992610853aa2f058d95d0a4868ffcd37470b93a5e6634619467e0d4228c",
            "0xa9314c8fd561a36988cbbb0f02d3e0ec91959c470ab1abd3c1fc19cbe5a137d5",
            "0x000000000000000000000000699bceebd59a5b52bb586c737cd7ba636f3fe602",
            "0x000000000000000000000000000000000000000000000000002cc3a21c2b8000"
          ],
          "data": "0x000000000000000000000000000000000000000000000000000000006630150c000000000000000000000000699bceebd59a5b52bb586c737cd7ba636f3fe60200000000000000000000000000000000000000000000000000000000000138820000000000000000000000000000000000000000000000a2a15d09519be000000000000000000000000000000000000000000000000000000de0b6b3a7640000",
          "blockHash": "0xe9d32f1568371bf14cf74bd3e94391149f5af16ec2c48dfb0155524c858facb3",
          "blockNumber": "0x589365",
          "transactionHash": "0xd84c955a2d3545c267f06a802be297a08a6b7ce2f993cc2a792005213bd822cb",
          "transactionIndex": "0x2b",
          "logIndex": "0x92",
          "removed": false
        },
        {
          "address": "0x23dd1aa37b5c81d64586c021330d61d3ad55aafb",
          "topics": [
            "0x9853b992610853aa2f058d95d0a4868ffcd37470b93a5e6634619467e0d4228c",
            "0x71103f3092f44a776e93a2e511db338a0e6984e46f7823023fe42dfda9478c4e",
            "0x000000000000000000000000699bceebd59a5b52bb586c737cd7ba636f3fe602",
            "0x000000000000000000000000000000000000000000000000002d1e952ca5c000"
          ],
          "data": "0x000000000000000000000000000000000000000000000000000000006630150c000000000000000000000000699bceebd59a5b52bb586c737cd7ba636f3fe60200000000000000000000000000000000000000000000000000000000000138820000000000000000000000000000000000000000000000a2a15d09519be000000000000000000000000000000000000000000000000000000de0b6b3a7640000",
          "blockHash": "0xe9d32f1568371bf14cf74bd3e94391149f5af16ec2c48dfb0155524c858facb3",
          "blockNumber": "0x589365",
          "transactionHash": "0xd84c955a2d3545c267f06a802be297a08a6b7ce2f993cc2a792005213bd822cb",
          "transactionIndex": "0x2b",
          "logIndex": "0x93",
          "removed": false
        },
        {
          "address": "0x23dd1aa37b5c81d64586c021330d61d3ad55aafb",
          "topics": [
            "0x9853b992610853aa2f058d95d0a4868ffcd37470b93a5e6634619467e0d4228c",
            "0x868cba2cfb9808a93794219e6ab6414f84c1183f3256fe8c3d2c12490e3fe793",
            "0x000000000000000000000000699bceebd59a5b52bb586c737cd7ba636f3fe602",
            "0x000000000000000000000000000000000000000000000000002d79883d200000"
          ],
          "data": "0x000000000000000000000000000000000000000000000000000000006630150c000000000000000000000000699bceebd59a5b52bb586c737cd7ba636f3fe60200000000000000000000000000000000000000000000000000000000000138820000000000000000000000000000000000000000000000a2a15d09519be000000000000000000000000000000000000000000000000000000de0b6b3a7640000",
          "blockHash": "0xe9d32f1568371bf14cf74bd3e94391149f5af16ec2c48dfb0155524c858facb3",
          "blockNumber": "0x589365",
          "transactionHash": "0xd84c955a2d3545c267f06a802be297a08a6b7ce2f993cc2a792005213bd822cb",
          "transactionIndex": "0x2b",
          "logIndex": "0x94",
          "removed": false
        },
        {
          "address": "0x23dd1aa37b5c81d64586c021330d61d3ad55aafb",
          "topics": [
            "0x9853b992610853aa2f058d95d0a4868ffcd37470b93a5e6634619467e0d4228c",
            "0x555faef7ce29d1c3de7d7ee1ef5c7089be2299b0be620c9562155f65c98e0cdc",
            "0x000000000000000000000000699bceebd59a5b52bb586c737cd7ba636f3fe602",
            "0x000000000000000000000000000000000000000000000000002dd47b4d9a4000"
          ],
          "data": "0x000000000000000000000000000000000000000000000000000000006630150c000000000000000000000000699bceebd59a5b52bb586c737cd7ba636f3fe60200000000000000000000000000000000000000000000000000000000000138820000000000000000000000000000000000000000000000a2a15d09519be000000000000000000000000000000000000000000000000000000de0b6b3a7640000",
          "blockHash": "0xe9d32f1568371bf14cf74bd3e94391149f5af16ec2c48dfb0155524c858facb3",
          "blockNumber": "0x589365",
          "transactionHash": "0xd84c955a2d3545c267f06a802be297a08a6b7ce2f993cc2a792005213bd822cb",
          "transactionIndex": "0x2b",
          "logIndex": "0x95",
          "removed": false
        },
        {
          "address": "0x23dd1aa37b5c81d64586c021330d61d3ad55aafb",
          "topics": [
            "0x9853b992610853aa2f058d95d0a4868ffcd37470b93a5e6634619467e0d4228c",
            "0xbe3f681a490da261cd54fabe68e09720e6cec5b855b62dda66bd0eaddc506626",
            "0x000000000000000000000000699bceebd59a5b52bb586c737cd7ba636f3fe602",
            "0x000000000000000000000000000000000000000000000000002e2f6e5e148000"
          ],
          "data": "0x000000000000000000000000000000000000000000000000000000006630150c000000000000000000000000699bceebd59a5b52bb586c737cd7ba636f3fe60200000000000000000000000000000000000000000000000000000000000138820000000000000000000000000000000000000000000000a2a15d09519be000000000000000000000000000000000000000000000000000000de0b6b3a7640000",
          "blockHash": "0xe9d32f1568371bf14cf74bd3e94391149f5af16ec2c48dfb0155524c858facb3",
          "blockNumber": "0x589365",
          "transactionHash": "0xd84c955a2d3545c267f06a802be297a08a6b7ce2f993cc2a792005213bd822cb",
          "transactionIndex": "0x2b",
          "logIndex": "0x96",
          "removed": false
        }
      ],
      "logsBloom": "0x00000002021000008000010000200800a20000000000000200400000840000000022400091000010000040800000001010000020000020000140000800000000810000000020100000020000080000840008000000100000000101000040000000800000008801a00028090400200000100020008040000000200000808014004801080000a02000804000000250020000201004000020000000000000081000000400000000000044018020000400042000000001000000400000040000200000020080000000000000004100208004000000000120018000000000000000000140010200000000005001010000000000010500200400001010000000000010",
      "type": "0x2",
      "transactionHash": "0xd84c955a2d3545c267f06a802be297a08a6b7ce2f993cc2a792005213bd822cb",
      "transactionIndex": "0x2b",
      "blockHash": "0xe9d32f1568371bf14cf74bd3e94391149f5af16ec2c48dfb0155524c858facb3",
      "blockNumber": "0x589365",
      "gasUsed": "0x31455",
      "effectiveGasPrice": "0x3ba96249",
      "from": "0x699bceebd59a5b52bb586c737cd7ba636f3fe602",
      "to": "0x23dd1aa37b5c81d64586c021330d61d3ad55aafb",
      "contractAddress": null
    }
  ],
  "libraries": [],
  "pending": [],
  "returns": {},
  "timestamp": 1714427150,
  "chain": 11155111,
  "commit": "9546700"
}