{
  "transactions": [
    {
      "hash": "0xc9b2b7e54f63a5d5e1603764c06c9d792f9a455b93d9a1661ece41e439c81f37",
      "transactionType": "CALL",
      "contractName": null,
      "contractAddress": "0x23dd1aa37b5c81d64586c021330d61d3ad55aafb",
      "function": "postMessage((address,uint256,uint256)[])",
      "arguments": [
        "[(0x699BceEbD59a5b52bB586C737cD7ba636f3Fe602, 80002, 11100000000000000), (0x699BceEbD59a5b52bB586C737cD7ba636f3Fe602, 80002, 11200000000000000), (0x699BceEbD59a5b52bB586C737cD7ba636f3Fe602, 80002, 11300000000000000), (0x699BceEbD59a5b52bB586C737cD7ba636f3Fe602, 80002, 11400000000000000), (0x699BceEbD59a5b52bB586C737cD7ba636f3Fe602, 80002, 11500000000000000)]"
      ],
      "transaction": {
        "from": "0x699bceebd59a5b52bb586c737cd7ba636f3fe602",
        "to": "0x23dd1aa37b5c81d64586c021330d61d3ad55aafb",
        "gas": "0x274b6",
        "value": "0xd529ae9e860000",
        "input": "0x42cbee8d00000000000000000000000000000000000000000000000000000000000000200000000000000000000000000000000000000000000000000000000000000005000000000000000000000000699bceebd59a5b52bb586c737cd7ba636f3fe602000000000000000000000000000000000000000000000000000000000001388200000000000000000000000000000000000000000000000000276f642501c000000000000000000000000000699bceebd59a5b52bb586c737cd7ba636f3fe60200000000000000000000000000000000000000000000000000000000000138820000000000000000000000000000000000000000000000000027ca57357c0000000000000000000000000000699bceebd59a5b52bb586c737cd7ba636f3fe60200000000000000000000000000000000000000000000000000000000000138820000000000000000000000000000000000000000000000000028254a45f64000000000000000000000000000699bceebd59a5b52bb586c737cd7ba636f3fe60200000000000000000000000000000000000000000000000000000000000138820000000000000000000000000000000000000000000000000028803d56708000000000000000000000000000699bceebd59a5b52bb586c737cd7ba636f3fe60200000000000000000000000000000000000000000000000000000000000138820000000000000000000000000000000000000000000000000028db3066eac000",
        "nonce": "0x172",
        "chainId": "0xaa36a7",
        "accessList": null,
        "type": null
      },
      "additionalContracts": [],
      "isFixedGasLimit": false
    }
  ],
  "receipts": [
    {
      "status": "0x1",
      "cumulativeGasUsed": "0x1523ba3",
      "logs": [
        {
          "address": "0x23dd1aa37b5c81d64586c021330d61d3ad55aafb",
          "topics": [
            "0x9853b992610853aa2f058d95d0a4868ffcd37470b93a5e6634619467e0d4228c",
            "0x1f3561aafa249bd26374f7874e33273bcd5a4dba3f80eaeb595a31b633bf350b",
            "0x000000000000000000000000699bceebd59a5b52bb586c737cd7ba636f3fe602",
            "0x00000000000000000000000000000000000000000000000000276f642501c000"
          ],
          "data": "0x00000000000000000000000000000000000000000000000000000000662fe05c000000000000000000000000699bceebd59a5b52bb586c737cd7ba636f3fe60200000000000000000000000000000000000000000000000000000000000138820000000000000000000000000000000000000000000000a2a15d09519be000000000000000000000000000000000000000000000000000000de0b6b3a7640000",
          "blockHash": "0x1c83906ef8ed5f7719bfc9748ce630f35d8ea44288727fa1e7e15f95ed1e380f",
          "blockNumber": "0x588f6a",
          "transactionHash": "0xc9b2b7e54f63a5d5e1603764c06c9d792f9a455b93d9a1661ece41e439c81f37",
          "transactionIndex": "0x43",
          "logIndex": "0x80",
          "removed": false
        },
        {
          "address": "0x23dd1aa37b5c81d64586c021330d61d3ad55aafb",
          "topics": [
            "0x9853b992610853aa2f058d95d0a4868ffcd37470b93a5e6634619467e0d4228c",
            "0xb11e15243a7772a43082ba00339b0d8ed9325deaf02bd65371c0516286ea646a",
            "0x000000000000000000000000699bceebd59a5b52bb586c737cd7ba636f3fe602",
            "0x0000000000000000000000000000000000000000000000000027ca57357c0000"
          ],
          "data": "0x00000000000000000000000000000000000000000000000000000000662fe05c000000000000000000000000699bceebd59a5b52bb586c737cd7ba636f3fe60200000000000000000000000000000000000000000000000000000000000138820000000000000000000000000000000000000000000000a2a15d09519be000000000000000000000000000000000000000000000000000000de0b6b3a7640000",
          "blockHash": "0x1c83906ef8ed5f7719bfc9748ce630f35d8ea44288727fa1e7e15f95ed1e380f",
          "blockNumber": "0x588f6a",
          "transactionHash": "0xc9b2b7e54f63a5d5e1603764c06c9d792f9a455b93d9a1661ece41e439c81f37",
          "transactionIndex": "0x43",
          "logIndex": "0x81",
          "removed": false
        },
        {
          "address": "0x23dd1aa37b5c81d64586c021330d61d3ad55aafb",
          "topics": [
            "0x9853b992610853aa2f058d95d0a4868ffcd37470b93a5e6634619467e0d4228c",
            "0x3f2953f464b87d9ec5a92b142781d698e15528ad8bf036f7c72c018dc06c9b5b",
            "0x000000000000000000000000699bceebd59a5b52bb586c737cd7ba636f3fe602",
            "0x0000000000000000000000000000000000000000000000000028254a45f64000"
          ],
          "data": "0x00000000000000000000000000000000000000000000000000000000662fe05c000000000000000000000000699bceebd59a5b52bb586c737cd7ba636f3fe60200000000000000000000000000000000000000000000000000000000000138820000000000000000000000000000000000000000000000a2a15d09519be000000000000000000000000000000000000000000000000000000de0b6b3a7640000",
          "blockHash": "0x1c83906ef8ed5f7719bfc9748ce630f35d8ea44288727fa1e7e15f95ed1e380f",
          "blockNumber": "0x588f6a",
          "transactionHash": "0xc9b2b7e54f63a5d5e1603764c06c9d792f9a455b93d9a1661ece41e439c81f37",
          "transactionIndex": "0x43",
          "logIndex": "0x82",
          "removed": false
        },
        {
          "address": "0x23dd1aa37b5c81d64586c021330d61d3ad55aafb",
          "topics": [
            "0x9853b992610853aa2f058d95d0a4868ffcd37470b93a5e6634619467e0d4228c",
            "0x2460c82da25c7f36b0ca732500a4f542759ae06f4c44992824134cafe9a99155",
            "0x000000000000000000000000699bceebd59a5b52bb586c737cd7ba636f3fe602",
            "0x0000000000000000000000000000000000000000000000000028803d56708000"
          ],
          "data": "0x00000000000000000000000000000000000000000000000000000000662fe05c000000000000000000000000699bceebd59a5b52bb586c737cd7ba636f3fe60200000000000000000000000000000000000000000000000000000000000138820000000000000000000000000000000000000000000000a2a15d09519be000000000000000000000000000000000000000000000000000000de0b6b3a7640000",
          "blockHash": "0x1c83906ef8ed5f7719bfc9748ce630f35d8ea44288727fa1e7e15f95ed1e380f",
          "blockNumber": "0x588f6a",
          "transactionHash": "0xc9b2b7e54f63a5d5e1603764c06c9d792f9a455b93d9a1661ece41e439c81f37",
          "transactionIndex": "0x43",
          "logIndex": "0x83",
          "removed": false
        },
        {
          "address": "0x23dd1aa37b5c81d64586c021330d61d3ad55aafb",
          "topics": [
            "0x9853b992610853aa2f058d95d0a4868ffcd37470b93a5e6634619467e0d4228c",
            "0x0d5efca8b55f98eb96b752db2753d67edd575d74cd3d5340ad31b35d9782a4b7",
            "0x000000000000000000000000699bceebd59a5b52bb586c737cd7ba636f3fe602",
            "0x0000000000000000000000000000000000000000000000000028db3066eac000"
          ],
          "data": "0x00000000000000000000000000000000000000000000000000000000662fe05c000000000000000000000000699bceebd59a5b52bb586c737cd7ba636f3fe60200000000000000000000000000000000000000000000000000000000000138820000000000000000000000000000000000000000000000a2a15d09519be000000000000000000000000000000000000000000000000000000de0b6b3a7640000",
          "blockHash": "0x1c83906ef8ed5f7719bfc9748ce630f35d8ea44288727fa1e7e15f95ed1e380f",
          "blockNumber": "0x588f6a",
          "transactionHash": "0xc9b2b7e54f63a5d5e1603764c06c9d792f9a455b93d9a1661ece41e439c81f37",
          "transactionIndex": "0x43",
          "logIndex": "0x84",
          "removed": false
        }
      ],
      "logsBloom": "0x00040004000000000000000000000000200000002000000000400000000000100000400000000010000000800000001000000000004000000000000000000000010000000000000000000000400000000000000000000000000000000000000000800000000000000000000400000000000000008000000000000000000000000000000000080000000000000230020000000000000000010000000000000000000000000004000004000000000000040000000000000000000000040000000800000000002000000000004000008000000000000000000000000000000000800002010200000000005001000000000000000100200000000000000000000000",
      "type": "0x2",
      "transactionHash": "0xc9b2b7e54f63a5d5e1603764c06c9d792f9a455b93d9a1661ece41e439c81f37",
      "transactionIndex": "0x43",
      "blockHash": "0x1c83906ef8ed5f7719bfc9748ce630f35d8ea44288727fa1e7e15f95ed1e380f",
      "blockNumber": "0x588f6a",
      "gasUsed": "0x1c72e",
      "effectiveGasPrice": "0xcc51afdd",
      "from": "0x699bceebd59a5b52bb586c737cd7ba636f3fe602",
      "to": "0x23dd1aa37b5c81d64586c021330d61d3ad55aafb",
      "contractAddress": null
    }
  ],
  "libraries": [],
  "pending": [],
  "returns": {},
  "timestamp": 1714413664,
  "chain": 11155111,
  "commit": "9546700"
}