{
  "transactions": [
    {
      "hash": "0x8f9515c0ac319966bc196b8ea66b62f0f48df04dd987e655cd896e5db29e69e5",
      "transactionType": "CALL",
      "contractName": null,
      "contractAddress": "0x371862509e523e8fb89eb8911254c14c882fca96",
      "function": "postMessage((address,uint256,uint256)[])",
      "arguments": [
        "[(0x699BceEbD59a5b52bB586C737cD7ba636f3Fe602, 80002, 100000000000000000)]"
      ],
      "transaction": {
        "from": "0x699bceebd59a5b52bb586c737cd7ba636f3fe602",
        "to": "0x371862509e523e8fb89eb8911254c14c882fca96",
        "gas": "0x217c8",
        "value": "0x16345785d8a0000",
        "input": "0x42cbee8d00000000000000000000000000000000000000000000000000000000000000200000000000000000000000000000000000000000000000000000000000000001000000000000000000000000699bceebd59a5b52bb586c737cd7ba636f3fe6020000000000000000000000000000000000000000000000000000000000013882000000000000000000000000000000000000000000000000016345785d8a0000",
        "nonce": "0x119",
        "chainId": "0xaa36a7",
        "accessList": null,
        "type": null
      },
      "additionalContracts": [],
      "isFixedGasLimit": false
    }
  ],
  "receipts": [
    {
      "status": "0x1",
      "cumulativeGasUsed": "0xb8c6f3",
      "logs": [
        {
          "address": "0x371862509e523e8fb89eb8911254c14c882fca96",
          "topics": [
            "0x9853b992610853aa2f058d95d0a4868ffcd37470b93a5e6634619467e0d4228c",
            "0x659dd523de45db8d76f7386b708ac79fda57399cb09f081daadb008523bd0f0a",
            "0x000000000000000000000000699bceebd59a5b52bb586c737cd7ba636f3fe602",
            "0x000000000000000000000000000000000000000000000000016345785d8a0000"
          ],
          "data": "0x00000000000000000000000000000000000000000000000000000000662ba5ec000000000000000000000000699bceebd59a5b52bb586c737cd7ba636f3fe60200000000000000000000000000000000000000000000000000000000000138820000000000000000000000000000000000000000000000a2a15d09519be000000000000000000000000000000000000000000000000000000de0b6b3a7640000",
          "blockHash": "0xdf2e4f09126af0b3b985143b662d3b40bf403244b13868e086404d35a327a3c2",
          "blockNumber": "0x5838ee",
          "transactionHash": "0x8f9515c0ac319966bc196b8ea66b62f0f48df04dd987e655cd896e5db29e69e5",
          "transactionIndex": "0x65",
          "logIndex": "0xae",
          "removed": false
        }
      ],
      "logsBloom": "0x00000000000000000000000000000000000000000000000000400000000000000000000000000000000000000000000000000000000000000000000010020000000000000000000000000000000000000000000002000000000000000000000000800004008002000000000000000000000000008000000000000000000000000000000000000000000000000000000000000000000000000000000000000000000000001200000000000000000000000000000000000000000000000000000000000000000000000000000000008000000000000000000000000000000000000000000000000000001000000000000000000100000000000000001000000000",
      "type": "0x2",
      "transactionHash": "0x8f9515c0ac319966bc196b8ea66b62f0f48df04dd987e655cd896e5db29e69e5",
      "transactionIndex": "0x65",
      "blockHash": "0xdf2e4f09126af0b3b985143b662d3b40bf403244b13868e086404d35a327a3c2",
      "blockNumber": "0x5838ee",
      "gasUsed": "0x16e59",
      "effectiveGasPrice": "0x5fd2e275",
      "from": "0x699bceebd59a5b52bb586c737cd7ba636f3fe602",
      "to": "0x371862509e523e8fb89eb8911254c14c882fca96",
      "contractAddress": null
    }
  ],
  "libraries": [],
  "pending": [],
  "returns": {},
  "timestamp": 1714136565,
  "chain": 11155111,
  "commit": "d8ddccd"
}