{
  "transactions": [
    {
      "hash": "0xd55bfc253adcb6a5574e650364d87433b3a775d001c41a6cdbd6b283bd465249",
      "transactionType": "CALL",
      "contractName": null,
      "contractAddress": "0x23dd1aa37b5c81d64586c021330d61d3ad55aafb",
      "function": "postMessage((address,uint256,uint256)[])",
      "arguments": [
        "[(0x699BceEbD59a5b52bB586C737cD7ba636f3Fe602, 80002, 11100000000000000), (0x699BceEbD59a5b52bB586C737cD7ba636f3Fe602, 80002, 11200000000000000), (0x699BceEbD59a5b52bB586C737cD7ba636f3Fe602, 80002, 11300000000000000), (0x699BceEbD59a5b52bB586C737cD7ba636f3Fe602, 80002, 11400000000000000), (0x699BceEbD59a5b52bB586C737cD7ba636f3Fe602, 80002, 11500000000000000)]"
      ],
      "transaction": {
        "from": "0x699bceebd59a5b52bb586c737cd7ba636f3fe602",
        "to": "0x23dd1aa37b5c81d64586c021330d61d3ad55aafb",
        "gas": "0x274b6",
        "value": "0xd529ae9e860000",
        "input": "0x42cbee8d00000000000000000000000000000000000000000000000000000000000000200000000000000000000000000000000000000000000000000000000000000005000000000000000000000000699bceebd59a5b52bb586c737cd7ba636f3fe602000000000000000000000000000000000000000000000000000000000001388200000000000000000000000000000000000000000000000000276f642501c000000000000000000000000000699bceebd59a5b52bb586c737cd7ba636f3fe60200000000000000000000000000000000000000000000000000000000000138820000000000000000000000000000000000000000000000000027ca57357c0000000000000000000000000000699bceebd59a5b52bb586c737cd7ba636f3fe60200000000000000000000000000000000000000000000000000000000000138820000000000000000000000000000000000000000000000000028254a45f64000000000000000000000000000699bceebd59a5b52bb586c737cd7ba636f3fe60200000000000000000000000000000000000000000000000000000000000138820000000000000000000000000000000000000000000000000028803d56708000000000000000000000000000699bceebd59a5b52bb586c737cd7ba636f3fe60200000000000000000000000000000000000000000000000000000000000138820000000000000000000000000000000000000000000000000028db3066eac000",
        "nonce": "0x185",
        "chainId": "0xaa36a7",
        "accessList": null,
        "type": null
      },
      "additionalContracts": [],
      "isFixedGasLimit": false
    }
  ],
  "receipts": [
    {
      "status": "0x1",
      "cumulativeGasUsed": "0x6b2f40",
      "logs": [
        {
          "address": "0x23dd1aa37b5c81d64586c021330d61d3ad55aafb",
          "topics": [
            "0x9853b992610853aa2f058d95d0a4868ffcd37470b93a5e6634619467e0d4228c",
            "0x292e3456f51d0756ffc90f356ce0407ee504359415b4e0776da74d5953d934a7",
            "0x000000000000000000000000699bceebd59a5b52bb586c737cd7ba636f3fe602",
            "0x00000000000000000000000000000000000000000000000000276f642501c000"
          ],
          "data": "0x0000000000000000000000000000000000000000000000000000000066302ca0000000000000000000000000699bceebd59a5b52bb586c737cd7ba636f3fe60200000000000000000000000000000000000000000000000000000000000138820000000000000000000000000000000000000000000000a2a15d09519be000000000000000000000000000000000000000000000000000000de0b6b3a7640000",
          "blockHash": "0xb6c21aa302f01444a0f622dac3b4d547c677bc8dd6ab81ea8b6fed9538d93b31",
          "blockNumber": "0x589515",
          "transactionHash": "0xd55bfc253adcb6a5574e650364d87433b3a775d001c41a6cdbd6b283bd465249",
          "transactionIndex": "0x3f",
          "logIndex": "0x70",
          "removed": false
        },
        {
          "address": "0x23dd1aa37b5c81d64586c021330d61d3ad55aafb",
          "topics": [
            "0x9853b992610853aa2f058d95d0a4868ffcd37470b93a5e6634619467e0d4228c",
            "0x92098d57d4a7d69c388f621e2b46f1b1dac21e26f2c1f84c875dce91ae4c7271",
            "0x000000000000000000000000699bceebd59a5b52bb586c737cd7ba636f3fe602",
            "0x0000000000000000000000000000000000000000000000000027ca57357c0000"
          ],
          "data": "0x0000000000000000000000000000000000000000000000000000000066302ca0000000000000000000000000699bceebd59a5b52bb586c737cd7ba636f3fe60200000000000000000000000000000000000000000000000000000000000138820000000000000000000000000000000000000000000000a2a15d09519be000000000000000000000000000000000000000000000000000000de0b6b3a7640000",
          "blockHash": "0xb6c21aa302f01444a0f622dac3b4d547c677bc8dd6ab81ea8b6fed9538d93b31",
          "blockNumber": "0x589515",
          "transactionHash": "0xd55bfc253adcb6a5574e650364d87433b3a775d001c41a6cdbd6b283bd465249",
          "transactionIndex": "0x3f",
          "logIndex": "0x71",
          "removed": false
        },
        {
          "address": "0x23dd1aa37b5c81d64586c021330d61d3ad55aafb",
          "topics": [
            "0x9853b992610853aa2f058d95d0a4868ffcd37470b93a5e6634619467e0d4228c",
            "0x4f18011f7f3fa57ed82f540b1ba30449ca69ffc2cff5b7497f8ee8c0321acbe2",
            "0x000000000000000000000000699bceebd59a5b52bb586c737cd7ba636f3fe602",
            "0x0000000000000000000000000000000000000000000000000028254a45f64000"
          ],
          "data": "0x0000000000000000000000000000000000000000000000000000000066302ca0000000000000000000000000699bceebd59a5b52bb586c737cd7ba636f3fe60200000000000000000000000000000000000000000000000000000000000138820000000000000000000000000000000000000000000000a2a15d09519be000000000000000000000000000000000000000000000000000000de0b6b3a7640000",
          "blockHash": "0xb6c21aa302f01444a0f622dac3b4d547c677bc8dd6ab81ea8b6fed9538d93b31",
          "blockNumber": "0x589515",
          "transactionHash": "0xd55bfc253adcb6a5574e650364d87433b3a775d001c41a6cdbd6b283bd465249",
          "transactionIndex": "0x3f",
          "logIndex": "0x72",
          "removed": false
        },
        {
          "address": "0x23dd1aa37b5c81d64586c021330d61d3ad55aafb",
          "topics": [
            "0x9853b992610853aa2f058d95d0a4868ffcd37470b93a5e6634619467e0d4228c",
            "0x8b514f9fdf1386b746e6e922a538a0e5bf66a47cf327a025759ad4846470a7b5",
            "0x000000000000000000000000699bceebd59a5b52bb586c737cd7ba636f3fe602",
            "0x0000000000000000000000000000000000000000000000000028803d56708000"
          ],
          "data": "0x0000000000000000000000000000000000000000000000000000000066302ca0000000000000000000000000699bceebd59a5b52bb586c737cd7ba636f3fe60200000000000000000000000000000000000000000000000000000000000138820000000000000000000000000000000000000000000000a2a15d09519be000000000000000000000000000000000000000000000000000000de0b6b3a7640000",
          "blockHash": "0xb6c21aa302f01444a0f622dac3b4d547c677bc8dd6ab81ea8b6fed9538d93b31",
          "blockNumber": "0x589515",
          "transactionHash": "0xd55bfc253adcb6a5574e650364d87433b3a775d001c41a6cdbd6b283bd465249",
          "transactionIndex": "0x3f",
          "logIndex": "0x73",
          "removed": false
        },
        {
          "address": "0x23dd1aa37b5c81d64586c021330d61d3ad55aafb",
          "topics": [
            "0x9853b992610853aa2f058d95d0a4868ffcd37470b93a5e6634619467e0d4228c",
            "0x5ac7d19682d8fbf855c1822a8ca455a607ed191dc3d1badee05eb3d9f6b2d12b",
            "0x000000000000000000000000699bceebd59a5b52bb586c737cd7ba636f3fe602",
            "0x0000000000000000000000000000000000000000000000000028db3066eac000"
          ],
          "data": "0x0000000000000000000000000000000000000000000000000000000066302ca0000000000000000000000000699bceebd59a5b52bb586c737cd7ba636f3fe60200000000000000000000000000000000000000000000000000000000000138820000000000000000000000000000000000000000000000a2a15d09519be000000000000000000000000000000000000000000000000000000de0b6b3a7640000",
          "blockHash": "0xb6c21aa302f01444a0f622dac3b4d547c677bc8dd6ab81ea8b6fed9538d93b31",
          "blockNumber": "0x589515",
          "transactionHash": "0xd55bfc253adcb6a5574e650364d87433b3a775d001c41a6cdbd6b283bd465249",
          "transactionIndex": "0x3f",
          "logIndex": "0x74",
          "removed": false
        }
      ],
      "logsBloom": "0x00000000000000000000000000000000200000000000001000400000000000000002400000000010000000800000001000000000000000000040000001000040010000000000000000000000000000000000000000000000000000000000000000800000000000000000000400000000000000008000000000000000000000000000000000000000000010000210021000200000800040000000000000000000000000000000000004000000000000000000020000000000000000040000000000000000000000000000004000008000000000000001000000000000000000000000010200000000005001002000000200000100200000000000000000000000",
      "type": "0x2",
      "transactionHash": "0xd55bfc253adcb6a5574e650364d87433b3a775d001c41a6cdbd6b283bd465249",
      "transactionIndex": "0x3f",
      "blockHash": "0xb6c21aa302f01444a0f622dac3b4d547c677bc8dd6ab81ea8b6fed9538d93b31",
      "blockNumber": "0x589515",
      "gasUsed": "0x1c72e",
      "effectiveGasPrice": "0x3b9ed0ff",
      "from": "0x699bceebd59a5b52bb586c737cd7ba636f3fe602",
      "to": "0x23dd1aa37b5c81d64586c021330d61d3ad55aafb",
      "contractAddress": null
    }
  ],
  "libraries": [],
  "pending": [],
  "returns": {},
  "timestamp": 1714433193,
  "chain": 11155111,
  "commit": "9546700"
}