{
  "transactions": [
    {
      "hash": "0x31d57e45088e4e3fb366eafd068b246c0b4976e9653dfbd08cc57b5eeb28669e",
      "transactionType": "CALL",
      "contractName": null,
      "contractAddress": "0xd47381d02a017092f3857460338101524a8da38b",
      "function": "postMessage((string,uint256,uint256)[])",
      "arguments": [
        "[(\"0x9b6137E8C04774F04fBd84d8f7302B7c384A109A\", 1, 100000000000000000)]"
      ],
      "transaction": {
        "from": "0x699bceebd59a5b52bb586c737cd7ba636f3fe602",
        "to": "0xd47381d02a017092f3857460338101524a8da38b",
        "gas": "0x30ae2",
        "value": "0x16345785d8a0000",
        "input": "0x3b09dad900000000000000000000000000000000000000000000000000000000000000200000000000000000000000000000000000000000000000000000000000000001000000000000000000000000000000000000000000000000000000000000002000000000000000000000000000000000000000000000000000000000000000600000000000000000000000000000000000000000000000000000000000000001000000000000000000000000000000000000000000000000016345785d8a0000000000000000000000000000000000000000000000000000000000000000002a30783962363133374538433034373734463034664264383464386637333032423763333834413130394100000000000000000000000000000000000000000000",
        "nonce": "0x10f",
        "chainId": "0xaa36a7",
        "accessList": null,
        "type": null
      },
      "additionalContracts": [],
      "isFixedGasLimit": false
    }
  ],
  "receipts": [
    {
      "status": "0x1",
      "cumulativeGasUsed": "0x9ebaa0",
      "logs": [
        {
          "address": "0xd47381d02a017092f3857460338101524a8da38b",
          "topics": [
            "0x16982358b954725a800e2007f61a7753d0a4b175e6a0d993102d63dfe1d10e73"
          ],
          "data": "0xc5266f3c65371e723a90c258176f8ccd8e663f5f9968b2c34f1decdd7baeeac8000000000000000000000000699bceebd59a5b52bb586c737cd7ba636f3fe60200000000000000000000000000000000000000000000000000000000000000e00000000000000000000000000000000000000000000000000000000000000001000000000000000000000000000000000000000000000000016345785d8a00000000000000000000000000000000000000000000000000a2a15d09519be000000000000000000000000000000000000000000000000000000de0b6b3a7640000000000000000000000000000000000000000000000000000000000000000002a30783962363133374538433034373734463034664264383464386637333032423763333834413130394100000000000000000000000000000000000000000000",
          "blockHash": "0xc7b6272cff9da9622778e12664b569fea4b73eac4e525617e883e98d1b99209b",
          "blockNumber": "0x58109d",
          "transactionHash": "0x31d57e45088e4e3fb366eafd068b246c0b4976e9653dfbd08cc57b5eeb28669e",
          "transactionIndex": "0x4e",
          "logIndex": "0x71",
          "removed": false
        }
      ],
      "logsBloom": "0x00000000000000000000000000000000000000080000000000000000000000000100000000000000000000000000000000000000000000000000000000000000000000000000000000000000000000000000000000000000000000000000000000000000000000000000000000000000000000000000400000400000000000000000000000000000000000000000000000000000000000000000000000000000000000000080000000000000040000000000000000000000000000000000000000000000000000000000000000000000000000000000000000000000000000000000000000000000000000000000000000000000000000000000000000000000",
      "type": "0x2",
      "transactionHash": "0x31d57e45088e4e3fb366eafd068b246c0b4976e9653dfbd08cc57b5eeb28669e",
      "transactionIndex": "0x4e",
      "blockHash": "0xc7b6272cff9da9622778e12664b569fea4b73eac4e525617e883e98d1b99209b",
      "blockNumber": "0x58109d",
      "gasUsed": "0x233e6",
      "effectiveGasPrice": "0x3b9aca12",
      "from": "0x699bceebd59a5b52bb586c737cd7ba636f3fe602",
      "to": "0xd47381d02a017092f3857460338101524a8da38b",
      "contractAddress": null
    }
  ],
  "libraries": [],
  "pending": [],
  "returns": {},
  "timestamp": 1714011990,
  "chain": 11155111,
  "commit": "ed52fb4"
}