{
  "transactions": [
    {
      "hash": "0x47ddc458ee5ae3b74d732222ccedeb949026bc2b467235d4f60fc5ded53c055f",
      "transactionType": "CALL",
      "contractName": null,
      "contractAddress": "0x23dd1aa37b5c81d64586c021330d61d3ad55aafb",
      "function": "postMessage((address,uint256,uint256)[])",
      "arguments": [
        "[(0x699BceEbD59a5b52bB586C737cD7ba636f3Fe602, 80002, 11100000000000000), (0x699BceEbD59a5b52bB586C737cD7ba636f3Fe602, 80002, 11200000000000000), (0x699BceEbD59a5b52bB586C737cD7ba636f3Fe602, 80002, 11300000000000000), (0x699BceEbD59a5b52bB586C737cD7ba636f3Fe602, 80002, 11400000000000000), (0x699BceEbD59a5b52bB586C737cD7ba636f3Fe602, 80002, 11500000000000000), (0x699BceEbD59a5b52bB586C737cD7ba636f3Fe602, 80002, 11600000000000000), (0x699BceEbD59a5b52bB586C737cD7ba636f3Fe602, 80002, 11700000000000000), (0x699BceEbD59a5b52bB586C737cD7ba636f3Fe602, 80002, 11800000000000000), (0x699BceEbD59a5b52bB586C737cD7ba636f3Fe602, 80002, 11900000000000000), (0x699BceEbD59a5b52bB586C737cD7ba636f3Fe602, 80002, 12000000000000000), (0x699BceEbD59a5b52bB586C737cD7ba636f3Fe602, 80002, 12100000000000000), (0x699BceEbD59a5b52bB586C737cD7ba636f3Fe602, 80002, 12200000000000000), (0x699BceEbD59a5b52bB586C737cD7ba636f3Fe602, 80002, 12300000000000000), (0x699BceEbD59a5b52bB586C737cD7ba636f3Fe602, 80002, 12400000000000000), (0x699BceEbD59a5b52bB586C737cD7ba636f3Fe602, 80002, 12500000000000000), (0x699BceEbD59a5b52bB586C737cD7ba636f3Fe602, 80002, 12600000000000000), (0x699BceEbD59a5b52bB586C737cD7ba636f3Fe602, 80002, 12700000000000000), (0x699BceEbD59a5b52bB586C737cD7ba636f3Fe602, 80002, 12800000000000000), (0x699BceEbD59a5b52bB586C737cD7ba636f3Fe602, 80002, 12900000000000000), (0x699BceEbD59a5b52bB586C737cD7ba636f3Fe602, 80002, 13000000000000000)]"
      ],
      "transaction": {
        "from": "0x699bceebd59a5b52bb586c737cd7ba636f3fe602",
        "to": "0x23dd1aa37b5c81d64586c021330d61d3ad55aafb",
        "gas": "0x48100",
        "value": "0x39bb49f599a0000",
        "input": "0x42cbee8d00000000000000000000000000000000000000000000000000000000000000200000000000000000000000000000000000000000000000000000000000000014000000000000000000000000699bceebd59a5b52bb586c737cd7ba636f3fe602000000000000000000000000000000000000000000000000000000000001388200000000000000000000000000000000000000000000000000276f642501c000000000000000000000000000699bceebd59a5b52bb586c737cd7ba636f3fe60200000000000000000000000000000000000000000000000000000000000138820000000000000000000000000000000000000000000000000027ca57357c0000000000000000000000000000699bceebd59a5b52bb586c737cd7ba636f3fe60200000000000000000000000000000000000000000000000000000000000138820000000000000000000000000000000000000000000000000028254a45f64000000000000000000000000000699bceebd59a5b52bb586c737cd7ba636f3fe60200000000000000000000000000000000000000000000000000000000000138820000000000000000000000000000000000000000000000000028803d56708000000000000000000000000000699bceebd59a5b52bb586c737cd7ba636f3fe60200000000000000000000000000000000000000000000000000000000000138820000000000000000000000000000000000000000000000000028db3066eac000000000000000000000000000699bceebd59a5b52bb586c737cd7ba636f3fe60200000000000000000000000000000000000000000000000000000000000138820000000000000000000000000000000000000000000000000029362377650000000000000000000000000000699bceebd59a5b52bb586c737cd7ba636f3fe60200000000000000000000000000000000000000000000000000000000000138820000000000000000000000000000000000000000000000000029911687df4000000000000000000000000000699bceebd59a5b52bb586c737cd7ba636f3fe60200000000000000000000000000000000000000000000000000000000000138820000000000000000000000000000000000000000000000000029ec0998598000000000000000000000000000699bceebd59a5b52bb586c737cd7ba636f3fe6020000000000000000000000000000000000000000000000000000000000013882000000000000000000000000000000000000000000000000002a46fca8d3c000000000000000000000000000699bceebd59a5b52bb586c737cd7ba636f3fe6020000000000000000000000000000000000000000000000000000000000013882000000000000000000000000000000000000000000000000002aa1efb94e0000000000000000000000000000699bceebd59a5b52bb586c737cd7ba636f3fe6020000000000000000000000000000000000000000000000000000000000013882000000000000000000000000000000000000000000000000002afce2c9c84000000000000000000000000000699bceebd59a5b52bb586c737cd7ba636f3fe6020000000000000000000000000000000000000000000000000000000000013882000000000000000000000000000000000000000000000000002b57d5da428000000000000000000000000000699bceebd59a5b52bb586c737cd7ba636f3fe6020000000000000000000000000000000000000000000000000000000000013882000000000000000000000000000000000000000000000000002bb2c8eabcc000000000000000000000000000699bceebd59a5b52bb586c737cd7ba636f3fe6020000000000000000000000000000000000000000000000000000000000013882000000000000000000000000000000000000000000000000002c0dbbfb370000000000000000000000000000699bceebd59a5b52bb586c737cd7ba636f3fe6020000000000000000000000000000000000000000000000000000000000013882000000000000000000000000000000000000000000000000002c68af0bb14000000000000000000000000000699bceebd59a5b52bb586c737cd7ba636f3fe6020000000000000000000000000000000000000000000000000000000000013882000000000000000000000000000000000000000000000000002cc3a21c2b8000000000000000000000000000699bceebd59a5b52bb586c737cd7ba636f3fe6020000000000000000000000000000000000000000000000000000000000013882000000000000000000000000000000000000000000000000002d1e952ca5c000000000000000000000000000699bceebd59a5b52bb586c737cd7ba636f3fe6020000000000000000000000000000000000000000000000000000000000013882000000000000000000000000000000000000000000000000002d79883d200000000000000000000000000000699bceebd59a5b52bb586c737cd7ba636f3fe6020000000000000000000000000000000000000000000000000000000000013882000000000000000000000000000000000000000000000000002dd47b4d9a4000000000000000000000000000699bceebd59a5b52bb586c737cd7ba636f3fe6020000000000000000000000000000000000000000000000000000000000013882000000000000000000000000000000000000000000000000002e2f6e5e148000",
        "nonce": "0x19d",
        "chainId": "0xaa36a7",
        "accessList": null,
        "type": null
      },
      "additionalContracts": [],
      "isFixedGasLimit": false
    }
  ],
  "receipts": [
    {
      "status": "0x1",
      "cumulativeGasUsed": "0x16486a2",
      "logs": [
        {
          "address": "0x23dd1aa37b5c81d64586c021330d61d3ad55aafb",
          "topics": [
            "0x9853b992610853aa2f058d95d0a4868ffcd37470b93a5e6634619467e0d4228c",
            "0xff07eaf0343045d13bae2970177c21c7259cebae6d7fb7fb9212bb46efc3528e",
            "0x000000000000000000000000699bceebd59a5b52bb586c737cd7ba636f3fe602",
            "0x00000000000000000000000000000000000000000000000000276f642501c000"
          ],
          "data": "0x0000000000000000000000000000000000000000000000000000000066307c8c000000000000000000000000699bceebd59a5b52bb586c737cd7ba636f3fe60200000000000000000000000000000000000000000000000000000000000138820000000000000000000000000000000000000000000000a2a15d09519be000000000000000000000000000000000000000000000000000000de0b6b3a7640000",
          "blockHash": "0x6a19d6b66cb74971b83860fd8baad8c24e35e05fd9b58e62b49dea5d24383430",
          "blockNumber": "0x589ab7",
          "transactionHash": "0x47ddc458ee5ae3b74d732222ccedeb949026bc2b467235d4f60fc5ded53c055f",
          "transactionIndex": "0x83",
          "logIndex": "0x1aa",
          "removed": false
        },
        {
          "address": "0x23dd1aa37b5c81d64586c021330d61d3ad55aafb",
          "topics": [
            "0x9853b992610853aa2f058d95d0a4868ffcd37470b93a5e6634619467e0d4228c",
            "0x3c46114013d6f3aec92a81813976606e28cb81fd60adb33251c444d80dfca27d",
            "0x000000000000000000000000699bceebd59a5b52bb586c737cd7ba636f3fe602",
            "0x0000000000000000000000000000000000000000000000000027ca57357c0000"
          ],
          "data": "0x0000000000000000000000000000000000000000000000000000000066307c8c000000000000000000000000699bceebd59a5b52bb586c737cd7ba636f3fe60200000000000000000000000000000000000000000000000000000000000138820000000000000000000000000000000000000000000000a2a15d09519be000000000000000000000000000000000000000000000000000000de0b6b3a7640000",
          "blockHash": "0x6a19d6b66cb74971b83860fd8baad8c24e35e05fd9b58e62b49dea5d24383430",
          "blockNumber": "0x589ab7",
          "transactionHash": "0x47ddc458ee5ae3b74d732222ccedeb949026bc2b467235d4f60fc5ded53c055f",
          "transactionIndex": "0x83",
          "logIndex": "0x1ab",
          "removed": false
        },
        {
          "address": "0x23dd1aa37b5c81d64586c021330d61d3ad55aafb",
          "topics": [
            "0x9853b992610853aa2f058d95d0a4868ffcd37470b93a5e6634619467e0d4228c",
            "0xa6cf82212fc35d3985a857bed1f4ebad059fe0b48d67ebbb8daec0a2a835d4e8",
            "0x000000000000000000000000699bceebd59a5b52bb586c737cd7ba636f3fe602",
            "0x0000000000000000000000000000000000000000000000000028254a45f64000"
          ],
          "data": "0x0000000000000000000000000000000000000000000000000000000066307c8c000000000000000000000000699bceebd59a5b52bb586c737cd7ba636f3fe60200000000000000000000000000000000000000000000000000000000000138820000000000000000000000000000000000000000000000a2a15d09519be000000000000000000000000000000000000000000000000000000de0b6b3a7640000",
          "blockHash": "0x6a19d6b66cb74971b83860fd8baad8c24e35e05fd9b58e62b49dea5d24383430",
          "blockNumber": "0x589ab7",
          "transactionHash": "0x47ddc458ee5ae3b74d732222ccedeb949026bc2b467235d4f60fc5ded53c055f",
          "transactionIndex": "0x83",
          "logIndex": "0x1ac",
          "removed": false
        },
        {
          "address": "0x23dd1aa37b5c81d64586c021330d61d3ad55aafb",
          "topics": [
            "0x9853b992610853aa2f058d95d0a4868ffcd37470b93a5e6634619467e0d4228c",
            "0x6239fce8abcdf345c2e4b2c1fff21b6ddaaf8dfc3f9118c4eb5f99745fb13620",
            "0x000000000000000000000000699bceebd59a5b52bb586c737cd7ba636f3fe602",
            "0x0000000000000000000000000000000000000000000000000028803d56708000"
          ],
          "data": "0x0000000000000000000000000000000000000000000000000000000066307c8c000000000000000000000000699bceebd59a5b52bb586c737cd7ba636f3fe60200000000000000000000000000000000000000000000000000000000000138820000000000000000000000000000000000000000000000a2a15d09519be000000000000000000000000000000000000000000000000000000de0b6b3a7640000",
          "blockHash": "0x6a19d6b66cb74971b83860fd8baad8c24e35e05fd9b58e62b49dea5d24383430",
          "blockNumber": "0x589ab7",
          "transactionHash": "0x47ddc458ee5ae3b74d732222ccedeb949026bc2b467235d4f60fc5ded53c055f",
          "transactionIndex": "0x83",
          "logIndex": "0x1ad",
          "removed": false
        },
        {
          "address": "0x23dd1aa37b5c81d64586c021330d61d3ad55aafb",
          "topics": [
            "0x9853b992610853aa2f058d95d0a4868ffcd37470b93a5e6634619467e0d4228c",
            "0x2d7a4435cc9ab214039db594c47eeed907796d6e112b82c15c710eed01033ef8",
            "0x000000000000000000000000699bceebd59a5b52bb586c737cd7ba636f3fe602",
            "0x0000000000000000000000000000000000000000000000000028db3066eac000"
          ],
          "data": "0x0000000000000000000000000000000000000000000000000000000066307c8c000000000000000000000000699bceebd59a5b52bb586c737cd7ba636f3fe60200000000000000000000000000000000000000000000000000000000000138820000000000000000000000000000000000000000000000a2a15d09519be000000000000000000000000000000000000000000000000000000de0b6b3a7640000",
          "blockHash": "0x6a19d6b66cb74971b83860fd8baad8c24e35e05fd9b58e62b49dea5d24383430",
          "blockNumber": "0x589ab7",
          "transactionHash": "0x47ddc458ee5ae3b74d732222ccedeb949026bc2b467235d4f60fc5ded53c055f",
          "transactionIndex": "0x83",
          "logIndex": "0x1ae",
          "removed": false
        },
        {
          "address": "0x23dd1aa37b5c81d64586c021330d61d3ad55aafb",
          "topics": [
            "0x9853b992610853aa2f058d95d0a4868ffcd37470b93a5e6634619467e0d4228c",
            "0x0cd59574c3147a2c7e38f063726dc587310c1fcdb549705282de1239ea32481f",
            "0x000000000000000000000000699bceebd59a5b52bb586c737cd7ba636f3fe602",
            "0x0000000000000000000000000000000000000000000000000029362377650000"
          ],
          "data": "0x0000000000000000000000000000000000000000000000000000000066307c8c000000000000000000000000699bceebd59a5b52bb586c737cd7ba636f3fe60200000000000000000000000000000000000000000000000000000000000138820000000000000000000000000000000000000000000000a2a15d09519be000000000000000000000000000000000000000000000000000000de0b6b3a7640000",
          "blockHash": "0x6a19d6b66cb74971b83860fd8baad8c24e35e05fd9b58e62b49dea5d24383430",
          "blockNumber": "0x589ab7",
          "transactionHash": "0x47ddc458ee5ae3b74d732222ccedeb949026bc2b467235d4f60fc5ded53c055f",
          "transactionIndex": "0x83",
          "logIndex": "0x1af",
          "removed": false
        },
        {
          "address": "0x23dd1aa37b5c81d64586c021330d61d3ad55aafb",
          "topics": [
            "0x9853b992610853aa2f058d95d0a4868ffcd37470b93a5e6634619467e0d4228c",
            "0x3686be2796e5d3d2411d40574acc45ab726bf86b760799a026cdbf3a2fc362bc",
            "0x000000000000000000000000699bceebd59a5b52bb586c737cd7ba636f3fe602",
            "0x0000000000000000000000000000000000000000000000000029911687df4000"
          ],
          "data": "0x0000000000000000000000000000000000000000000000000000000066307c8c000000000000000000000000699bceebd59a5b52bb586c737cd7ba636f3fe60200000000000000000000000000000000000000000000000000000000000138820000000000000000000000000000000000000000000000a2a15d09519be000000000000000000000000000000000000000000000000000000de0b6b3a7640000",
          "blockHash": "0x6a19d6b66cb74971b83860fd8baad8c24e35e05fd9b58e62b49dea5d24383430",
          "blockNumber": "0x589ab7",
          "transactionHash": "0x47ddc458ee5ae3b74d732222ccedeb949026bc2b467235d4f60fc5ded53c055f",
          "transactionIndex": "0x83",
          "logIndex": "0x1b0",
          "removed": false
        },
        {
          "address": "0x23dd1aa37b5c81d64586c021330d61d3ad55aafb",
          "topics": [
            "0x9853b992610853aa2f058d95d0a4868ffcd37470b93a5e6634619467e0d4228c",
            "0x445d610042d9bfedff90f2eb5271c145b55b65a7edc6c16c4001584c230fcf15",
            "0x000000000000000000000000699bceebd59a5b52bb586c737cd7ba636f3fe602",
            "0x0000000000000000000000000000000000000000000000000029ec0998598000"
          ],
          "data": "0x0000000000000000000000000000000000000000000000000000000066307c8c000000000000000000000000699bceebd59a5b52bb586c737cd7ba636f3fe60200000000000000000000000000000000000000000000000000000000000138820000000000000000000000000000000000000000000000a2a15d09519be000000000000000000000000000000000000000000000000000000de0b6b3a7640000",
          "blockHash": "0x6a19d6b66cb74971b83860fd8baad8c24e35e05fd9b58e62b49dea5d24383430",
          "blockNumber": "0x589ab7",
          "transactionHash": "0x47ddc458ee5ae3b74d732222ccedeb949026bc2b467235d4f60fc5ded53c055f",
          "transactionIndex": "0x83",
          "logIndex": "0x1b1",
          "removed": false
        },
        {
          "address": "0x23dd1aa37b5c81d64586c021330d61d3ad55aafb",
          "topics": [
            "0x9853b992610853aa2f058d95d0a4868ffcd37470b93a5e6634619467e0d4228c",
            "0xb39b1654bee0e7a05a9055003b237729012bb19debbe1549eaf01888627abe79",
            "0x000000000000000000000000699bceebd59a5b52bb586c737cd7ba636f3fe602",
            "0x000000000000000000000000000000000000000000000000002a46fca8d3c000"
          ],
          "data": "0x0000000000000000000000000000000000000000000000000000000066307c8c000000000000000000000000699bceebd59a5b52bb586c737cd7ba636f3fe60200000000000000000000000000000000000000000000000000000000000138820000000000000000000000000000000000000000000000a2a15d09519be000000000000000000000000000000000000000000000000000000de0b6b3a7640000",
          "blockHash": "0x6a19d6b66cb74971b83860fd8baad8c24e35e05fd9b58e62b49dea5d24383430",
          "blockNumber": "0x589ab7",
          "transactionHash": "0x47ddc458ee5ae3b74d732222ccedeb949026bc2b467235d4f60fc5ded53c055f",
          "transactionIndex": "0x83",
          "logIndex": "0x1b2",
          "removed": false
        },
        {
          "address": "0x23dd1aa37b5c81d64586c021330d61d3ad55aafb",
          "topics": [
            "0x9853b992610853aa2f058d95d0a4868ffcd37470b93a5e6634619467e0d4228c",
            "0xdde2c839dc35ca899af1e784823a49cbcc6c1d5f105aee2e46743ee411ab7d5b",
            "0x000000000000000000000000699bceebd59a5b52bb586c737cd7ba636f3fe602",
            "0x000000000000000000000000000000000000000000000000002aa1efb94e0000"
          ],
          "data": "0x0000000000000000000000000000000000000000000000000000000066307c8c000000000000000000000000699bceebd59a5b52bb586c737cd7ba636f3fe60200000000000000000000000000000000000000000000000000000000000138820000000000000000000000000000000000000000000000a2a15d09519be000000000000000000000000000000000000000000000000000000de0b6b3a7640000",
          "blockHash": "0x6a19d6b66cb74971b83860fd8baad8c24e35e05fd9b58e62b49dea5d24383430",
          "blockNumber": "0x589ab7",
          "transactionHash": "0x47ddc458ee5ae3b74d732222ccedeb949026bc2b467235d4f60fc5ded53c055f",
          "transactionIndex": "0x83",
          "logIndex": "0x1b3",
          "removed": false
        },
        {
          "address": "0x23dd1aa37b5c81d64586c021330d61d3ad55aafb",
          "topics": [
            "0x9853b992610853aa2f058d95d0a4868ffcd37470b93a5e6634619467e0d4228c",
            "0xa996400698b687d28779e528bb8b27990c8cca16723dd6fc4fbecdde7b52d0bc",
            "0x000000000000000000000000699bceebd59a5b52bb586c737cd7ba636f3fe602",
            "0x000000000000000000000000000000000000000000000000002afce2c9c84000"
          ],
          "data": "0x0000000000000000000000000000000000000000000000000000000066307c8c000000000000000000000000699bceebd59a5b52bb586c737cd7ba636f3fe60200000000000000000000000000000000000000000000000000000000000138820000000000000000000000000000000000000000000000a2a15d09519be000000000000000000000000000000000000000000000000000000de0b6b3a7640000",
          "blockHash": "0x6a19d6b66cb74971b83860fd8baad8c24e35e05fd9b58e62b49dea5d24383430",
          "blockNumber": "0x589ab7",
          "transactionHash": "0x47ddc458ee5ae3b74d732222ccedeb949026bc2b467235d4f60fc5ded53c055f",
          "transactionIndex": "0x83",
          "logIndex": "0x1b4",
          "removed": false
        },
        {
          "address": "0x23dd1aa37b5c81d64586c021330d61d3ad55aafb",
          "topics": [
            "0x9853b992610853aa2f058d95d0a4868ffcd37470b93a5e6634619467e0d4228c",
            "0xd284343d42ccd303eb517d79d0d83afd25364243af1c3f56b9bc7afacf5fc1ee",
            "0x000000000000000000000000699bceebd59a5b52bb586c737cd7ba636f3fe602",
            "0x000000000000000000000000000000000000000000000000002b57d5da428000"
          ],
          "data": "0x0000000000000000000000000000000000000000000000000000000066307c8c000000000000000000000000699bceebd59a5b52bb586c737cd7ba636f3fe60200000000000000000000000000000000000000000000000000000000000138820000000000000000000000000000000000000000000000a2a15d09519be000000000000000000000000000000000000000000000000000000de0b6b3a7640000",
          "blockHash": "0x6a19d6b66cb74971b83860fd8baad8c24e35e05fd9b58e62b49dea5d24383430",
          "blockNumber": "0x589ab7",
          "transactionHash": "0x47ddc458ee5ae3b74d732222ccedeb949026bc2b467235d4f60fc5ded53c055f",
          "transactionIndex": "0x83",
          "logIndex": "0x1b5",
          "removed": false
        },
        {
          "address": "0x23dd1aa37b5c81d64586c021330d61d3ad55aafb",
          "topics": [
            "0x9853b992610853aa2f058d95d0a4868ffcd37470b93a5e6634619467e0d4228c",
            "0x3e796cc0b27a8f7fad85371ae1308349dabc734bf42d64e51b983b7a8121d64d",
            "0x000000000000000000000000699bceebd59a5b52bb586c737cd7ba636f3fe602",
            "0x000000000000000000000000000000000000000000000000002bb2c8eabcc000"
          ],
          "data": "0x0000000000000000000000000000000000000000000000000000000066307c8c000000000000000000000000699bceebd59a5b52bb586c737cd7ba636f3fe60200000000000000000000000000000000000000000000000000000000000138820000000000000000000000000000000000000000000000a2a15d09519be000000000000000000000000000000000000000000000000000000de0b6b3a7640000",
          "blockHash": "0x6a19d6b66cb74971b83860fd8baad8c24e35e05fd9b58e62b49dea5d24383430",
          "blockNumber": "0x589ab7",
          "transactionHash": "0x47ddc458ee5ae3b74d732222ccedeb949026bc2b467235d4f60fc5ded53c055f",
          "transactionIndex": "0x83",
          "logIndex": "0x1b6",
          "removed": false
        },
        {
          "address": "0x23dd1aa37b5c81d64586c021330d61d3ad55aafb",
          "topics": [
            "0x9853b992610853aa2f058d95d0a4868ffcd37470b93a5e6634619467e0d4228c",
            "0x044f16c2af67b5d7abad2a80f229b1e6ed65e3118900eeaff0a21975a05ebd42",
            "0x000000000000000000000000699bceebd59a5b52bb586c737cd7ba636f3fe602",
            "0x000000000000000000000000000000000000000000000000002c0dbbfb370000"
          ],
          "data": "0x0000000000000000000000000000000000000000000000000000000066307c8c000000000000000000000000699bceebd59a5b52bb586c737cd7ba636f3fe60200000000000000000000000000000000000000000000000000000000000138820000000000000000000000000000000000000000000000a2a15d09519be000000000000000000000000000000000000000000000000000000de0b6b3a7640000",
          "blockHash": "0x6a19d6b66cb74971b83860fd8baad8c24e35e05fd9b58e62b49dea5d24383430",
          "blockNumber": "0x589ab7",
          "transactionHash": "0x47ddc458ee5ae3b74d732222ccedeb949026bc2b467235d4f60fc5ded53c055f",
          "transactionIndex": "0x83",
          "logIndex": "0x1b7",
          "removed": false
        },
        {
          "address": "0x23dd1aa37b5c81d64586c021330d61d3ad55aafb",
          "topics": [
            "0x9853b992610853aa2f058d95d0a4868ffcd37470b93a5e6634619467e0d4228c",
            "0x7a7bef40116bea873206ba6877af3bd7c4a7fe485b3997f6ed02fc791e562d3d",
            "0x000000000000000000000000699bceebd59a5b52bb586c737cd7ba636f3fe602",
            "0x000000000000000000000000000000000000000000000000002c68af0bb14000"
          ],
          "data": "0x0000000000000000000000000000000000000000000000000000000066307c8c000000000000000000000000699bceebd59a5b52bb586c737cd7ba636f3fe60200000000000000000000000000000000000000000000000000000000000138820000000000000000000000000000000000000000000000a2a15d09519be000000000000000000000000000000000000000000000000000000de0b6b3a7640000",
          "blockHash": "0x6a19d6b66cb74971b83860fd8baad8c24e35e05fd9b58e62b49dea5d24383430",
          "blockNumber": "0x589ab7",
          "transactionHash": "0x47ddc458ee5ae3b74d732222ccedeb949026bc2b467235d4f60fc5ded53c055f",
          "transactionIndex": "0x83",
          "logIndex": "0x1b8",
          "removed": false
        },
        {
          "address": "0x23dd1aa37b5c81d64586c021330d61d3ad55aafb",
          "topics": [
            "0x9853b992610853aa2f058d95d0a4868ffcd37470b93a5e6634619467e0d4228c",
            "0xc95907c8b4c7b2f4b334d1d0c8b76db588df22718ba9787738023d774b025ae7",
            "0x000000000000000000000000699bceebd59a5b52bb586c737cd7ba636f3fe602",
            "0x000000000000000000000000000000000000000000000000002cc3a21c2b8000"
          ],
          "data": "0x0000000000000000000000000000000000000000000000000000000066307c8c000000000000000000000000699bceebd59a5b52bb586c737cd7ba636f3fe60200000000000000000000000000000000000000000000000000000000000138820000000000000000000000000000000000000000000000a2a15d09519be000000000000000000000000000000000000000000000000000000de0b6b3a7640000",
          "blockHash": "0x6a19d6b66cb74971b83860fd8baad8c24e35e05fd9b58e62b49dea5d24383430",
          "blockNumber": "0x589ab7",
          "transactionHash": "0x47ddc458ee5ae3b74d732222ccedeb949026bc2b467235d4f60fc5ded53c055f",
          "transactionIndex": "0x83",
          "logIndex": "0x1b9",
          "removed": false
        },
        {
          "address": "0x23dd1aa37b5c81d64586c021330d61d3ad55aafb",
          "topics": [
            "0x9853b992610853aa2f058d95d0a4868ffcd37470b93a5e6634619467e0d4228c",
            "0x50150e49059f9fdafa7f5674db0ce7de19fbfbcae5e8de6e88da7249b5d355b9",
            "0x000000000000000000000000699bceebd59a5b52bb586c737cd7ba636f3fe602",
            "0x000000000000000000000000000000000000000000000000002d1e952ca5c000"
          ],
          "data": "0x0000000000000000000000000000000000000000000000000000000066307c8c000000000000000000000000699bceebd59a5b52bb586c737cd7ba636f3fe60200000000000000000000000000000000000000000000000000000000000138820000000000000000000000000000000000000000000000a2a15d09519be000000000000000000000000000000000000000000000000000000de0b6b3a7640000",
          "blockHash": "0x6a19d6b66cb74971b83860fd8baad8c24e35e05fd9b58e62b49dea5d24383430",
          "blockNumber": "0x589ab7",
          "transactionHash": "0x47ddc458ee5ae3b74d732222ccedeb949026bc2b467235d4f60fc5ded53c055f",
          "transactionIndex": "0x83",
          "logIndex": "0x1ba",
          "removed": false
        },
        {
          "address": "0x23dd1aa37b5c81d64586c021330d61d3ad55aafb",
          "topics": [
            "0x9853b992610853aa2f058d95d0a4868ffcd37470b93a5e6634619467e0d4228c",
            "0x82f7323cbc085d3377447c8243315a1e2fdbb2144a523bc0a7db03926bbeee84",
            "0x000000000000000000000000699bceebd59a5b52bb586c737cd7ba636f3fe602",
            "0x000000000000000000000000000000000000000000000000002d79883d200000"
          ],
          "data": "0x0000000000000000000000000000000000000000000000000000000066307c8c000000000000000000000000699bceebd59a5b52bb586c737cd7ba636f3fe60200000000000000000000000000000000000000000000000000000000000138820000000000000000000000000000000000000000000000a2a15d09519be000000000000000000000000000000000000000000000000000000de0b6b3a7640000",
          "blockHash": "0x6a19d6b66cb74971b83860fd8baad8c24e35e05fd9b58e62b49dea5d24383430",
          "blockNumber": "0x589ab7",
          "transactionHash": "0x47ddc458ee5ae3b74d732222ccedeb949026bc2b467235d4f60fc5ded53c055f",
          "transactionIndex": "0x83",
          "logIndex": "0x1bb",
          "removed": false
        },
        {
          "address": "0x23dd1aa37b5c81d64586c021330d61d3ad55aafb",
          "topics": [
            "0x9853b992610853aa2f058d95d0a4868ffcd37470b93a5e6634619467e0d4228c",
            "0x61d88477ed853242c38910e0fa3c8f82f82a209a7dcacc6e8c08a420fea79b85",
            "0x000000000000000000000000699bceebd59a5b52bb586c737cd7ba636f3fe602",
            "0x000000000000000000000000000000000000000000000000002dd47b4d9a4000"
          ],
          "data": "0x0000000000000000000000000000000000000000000000000000000066307c8c000000000000000000000000699bceebd59a5b52bb586c737cd7ba636f3fe60200000000000000000000000000000000000000000000000000000000000138820000000000000000000000000000000000000000000000a2a15d09519be000000000000000000000000000000000000000000000000000000de0b6b3a7640000",
          "blockHash": "0x6a19d6b66cb74971b83860fd8baad8c24e35e05fd9b58e62b49dea5d24383430",
          "blockNumber": "0x589ab7",
          "transactionHash": "0x47ddc458ee5ae3b74d732222ccedeb949026bc2b467235d4f60fc5ded53c055f",
          "transactionIndex": "0x83",
          "logIndex": "0x1bc",
          "removed": false
        },
        {
          "address": "0x23dd1aa37b5c81d64586c021330d61d3ad55aafb",
          "topics": [
            "0x9853b992610853aa2f058d95d0a4868ffcd37470b93a5e6634619467e0d4228c",
            "0x87b5aa65736933abc262ffaa5b93211d1c5f3d51572e0a87cf26e378abaf04e3",
            "0x000000000000000000000000699bceebd59a5b52bb586c737cd7ba636f3fe602",
            "0x000000000000000000000000000000000000000000000000002e2f6e5e148000"
          ],
          "data": "0x0000000000000000000000000000000000000000000000000000000066307c8c000000000000000000000000699bceebd59a5b52bb586c737cd7ba636f3fe60200000000000000000000000000000000000000000000000000000000000138820000000000000000000000000000000000000000000000a2a15d09519be000000000000000000000000000000000000000000000000000000de0b6b3a7640000",
          "blockHash": "0x6a19d6b66cb74971b83860fd8baad8c24e35e05fd9b58e62b49dea5d24383430",
          "blockNumber": "0x589ab7",
          "transactionHash": "0x47ddc458ee5ae3b74d732222ccedeb949026bc2b467235d4f60fc5ded53c055f",
          "transactionIndex": "0x83",
          "logIndex": "0x1bd",
          "removed": false
        }
      ],
      "logsBloom": "0x10002000220010000000000000000000222210000000000000400000000000000222400012880010000042800040001410000000000800080000000084000000010000000020008008000000000800800008000000000000010101100040000200800000008001a00000080600600100000202008000008000000000008024004001000000a021000002000002540200002008000001210000800000000880200000000000000000440180000000840400000000050000004028000400000200000008000000002000000041000080040001000011a0010008000000000000000000010201000000105001010003000200000500200000000010000020000080",
      "type": "0x2",
      "transactionHash": "0x47ddc458ee5ae3b74d732222ccedeb949026bc2b467235d4f60fc5ded53c055f",
      "transactionIndex": "0x83",
      "blockHash": "0x6a19d6b66cb74971b83860fd8baad8c24e35e05fd9b58e62b49dea5d24383430",
      "blockNumber": "0x589ab7",
      "gasUsed": "0x31461",
      "effectiveGasPrice": "0x68f72721",
      "from": "0x699bceebd59a5b52bb586c737cd7ba636f3fe602",
      "to": "0x23dd1aa37b5c81d64586c021330d61d3ad55aafb",
      "contractAddress": null
    }
  ],
  "libraries": [],
  "pending": [],
  "returns": {},
  "timestamp": 1714453647,
  "chain": 11155111,
  "commit": "9546700"
}