{
  "transactions": [
    {
      "hash": "0x2f9cda0571d8f38878d6771b35d4532abca4c8593fdc1db4cde9139965584735",
      "transactionType": "CALL",
      "contractName": null,
      "contractAddress": "0x23dd1aa37b5c81d64586c021330d61d3ad55aafb",
      "function": "postMessage((address,uint256,uint256)[])",
      "arguments": [
        "[(0x699BceEbD59a5b52bB586C737cD7ba636f3Fe602, 80002, 11100000000000000), (0x699BceEbD59a5b52bB586C737cD7ba636f3Fe602, 80002, 11200000000000000), (0x699BceEbD59a5b52bB586C737cD7ba636f3Fe602, 80002, 11300000000000000), (0x699BceEbD59a5b52bB586C737cD7ba636f3Fe602, 80002, 11400000000000000), (0x699BceEbD59a5b52bB586C737cD7ba636f3Fe602, 80002, 11500000000000000)]"
      ],
      "transaction": {
        "from": "0x699bceebd59a5b52bb586c737cd7ba636f3fe602",
        "to": "0x23dd1aa37b5c81d64586c021330d61d3ad55aafb",
        "gas": "0x274b6",
        "value": "0xd529ae9e860000",
        "input": "0x42cbee8d00000000000000000000000000000000000000000000000000000000000000200000000000000000000000000000000000000000000000000000000000000005000000000000000000000000699bceebd59a5b52bb586c737cd7ba636f3fe602000000000000000000000000000000000000000000000000000000000001388200000000000000000000000000000000000000000000000000276f642501c000000000000000000000000000699bceebd59a5b52bb586c737cd7ba636f3fe60200000000000000000000000000000000000000000000000000000000000138820000000000000000000000000000000000000000000000000027ca57357c0000000000000000000000000000699bceebd59a5b52bb586c737cd7ba636f3fe60200000000000000000000000000000000000000000000000000000000000138820000000000000000000000000000000000000000000000000028254a45f64000000000000000000000000000699bceebd59a5b52bb586c737cd7ba636f3fe60200000000000000000000000000000000000000000000000000000000000138820000000000000000000000000000000000000000000000000028803d56708000000000000000000000000000699bceebd59a5b52bb586c737cd7ba636f3fe60200000000000000000000000000000000000000000000000000000000000138820000000000000000000000000000000000000000000000000028db3066eac000",
        "nonce": "0x16e",
        "chainId": "0xaa36a7",
        "accessList": null,
        "type": null
      },
      "additionalContracts": [],
      "isFixedGasLimit": false
    }
  ],
  "receipts": [
    {
      "status": "0x1",
      "cumulativeGasUsed": "0x59a688",
      "logs": [
        {
          "address": "0x23dd1aa37b5c81d64586c021330d61d3ad55aafb",
          "topics": [
            "0x9853b992610853aa2f058d95d0a4868ffcd37470b93a5e6634619467e0d4228c",
            "0xc7255ebfce7e80a39efb9a7e4c600c2f04cbb1e8cf7c17b0c23164915bbf43cf",
            "0x000000000000000000000000699bceebd59a5b52bb586c737cd7ba636f3fe602",
            "0x00000000000000000000000000000000000000000000000000276f642501c000"
          ],
          "data": "0x00000000000000000000000000000000000000000000000000000000662fdba0000000000000000000000000699bceebd59a5b52bb586c737cd7ba636f3fe60200000000000000000000000000000000000000000000000000000000000138820000000000000000000000000000000000000000000000a2a15d09519be000000000000000000000000000000000000000000000000000000de0b6b3a7640000",
          "blockHash": "0xcaec7ea6c9fc013c11b696047bfe54bdfd7a3c1154e31e9461f40ed1b41bbba9",
          "blockNumber": "0x588f0a",
          "transactionHash": "0x2f9cda0571d8f38878d6771b35d4532abca4c8593fdc1db4cde9139965584735",
          "transactionIndex": "0x36",
          "logIndex": "0x56",
          "removed": false
        },
        {
          "address": "0x23dd1aa37b5c81d64586c021330d61d3ad55aafb",
          "topics": [
            "0x9853b992610853aa2f058d95d0a4868ffcd37470b93a5e6634619467e0d4228c",
            "0x63ad1c8b895f8f239932291b9599a109c209af284f57407bfa461c27a2be588e",
            "0x000000000000000000000000699bceebd59a5b52bb586c737cd7ba636f3fe602",
            "0x0000000000000000000000000000000000000000000000000027ca57357c0000"
          ],
          "data": "0x00000000000000000000000000000000000000000000000000000000662fdba0000000000000000000000000699bceebd59a5b52bb586c737cd7ba636f3fe60200000000000000000000000000000000000000000000000000000000000138820000000000000000000000000000000000000000000000a2a15d09519be000000000000000000000000000000000000000000000000000000de0b6b3a7640000",
          "blockHash": "0xcaec7ea6c9fc013c11b696047bfe54bdfd7a3c1154e31e9461f40ed1b41bbba9",
          "blockNumber": "0x588f0a",
          "transactionHash": "0x2f9cda0571d8f38878d6771b35d4532abca4c8593fdc1db4cde9139965584735",
          "transactionIndex": "0x36",
          "logIndex": "0x57",
          "removed": false
        },
        {
          "address": "0x23dd1aa37b5c81d64586c021330d61d3ad55aafb",
          "topics": [
            "0x9853b992610853aa2f058d95d0a4868ffcd37470b93a5e6634619467e0d4228c",
            "0xe2732ef91908b1646c13f2ffbfce615ea24ca8272e8d6db77c087ac21a664a52",
            "0x000000000000000000000000699bceebd59a5b52bb586c737cd7ba636f3fe602",
            "0x0000000000000000000000000000000000000000000000000028254a45f64000"
          ],
          "data": "0x00000000000000000000000000000000000000000000000000000000662fdba0000000000000000000000000699bceebd59a5b52bb586c737cd7ba636f3fe60200000000000000000000000000000000000000000000000000000000000138820000000000000000000000000000000000000000000000a2a15d09519be000000000000000000000000000000000000000000000000000000de0b6b3a7640000",
          "blockHash": "0xcaec7ea6c9fc013c11b696047bfe54bdfd7a3c1154e31e9461f40ed1b41bbba9",
          "blockNumber": "0x588f0a",
          "transactionHash": "0x2f9cda0571d8f38878d6771b35d4532abca4c8593fdc1db4cde9139965584735",
          "transactionIndex": "0x36",
          "logIndex": "0x58",
          "removed": false
        },
        {
          "address": "0x23dd1aa37b5c81d64586c021330d61d3ad55aafb",
          "topics": [
            "0x9853b992610853aa2f058d95d0a4868ffcd37470b93a5e6634619467e0d4228c",
            "0x4ef29bd15fa42f74a3a71c798d473969c4057e5368151be8738cd54a61c33ce4",
            "0x000000000000000000000000699bceebd59a5b52bb586c737cd7ba636f3fe602",
            "0x0000000000000000000000000000000000000000000000000028803d56708000"
          ],
          "data": "0x00000000000000000000000000000000000000000000000000000000662fdba0000000000000000000000000699bceebd59a5b52bb586c737cd7ba636f3fe60200000000000000000000000000000000000000000000000000000000000138820000000000000000000000000000000000000000000000a2a15d09519be000000000000000000000000000000000000000000000000000000de0b6b3a7640000",
          "blockHash": "0xcaec7ea6c9fc013c11b696047bfe54bdfd7a3c1154e31e9461f40ed1b41bbba9",
          "blockNumber": "0x588f0a",
          "transactionHash": "0x2f9cda0571d8f38878d6771b35d4532abca4c8593fdc1db4cde9139965584735",
          "transactionIndex": "0x36",
          "logIndex": "0x59",
          "removed": false
        },
        {
          "address": "0x23dd1aa37b5c81d64586c021330d61d3ad55aafb",
          "topics": [
            "0x9853b992610853aa2f058d95d0a4868ffcd37470b93a5e6634619467e0d4228c",
            "0x2122b40c995d060dd3902e1c11a887e1eb6121754960a279b98bf5ffcbba36d7",
            "0x000000000000000000000000699bceebd59a5b52bb586c737cd7ba636f3fe602",
            "0x0000000000000000000000000000000000000000000000000028db3066eac000"
          ],
          "data": "0x00000000000000000000000000000000000000000000000000000000662fdba0000000000000000000000000699bceebd59a5b52bb586c737cd7ba636f3fe60200000000000000000000000000000000000000000000000000000000000138820000000000000000000000000000000000000000000000a2a15d09519be000000000000000000000000000000000000000000000000000000de0b6b3a7640000",
          "blockHash": "0xcaec7ea6c9fc013c11b696047bfe54bdfd7a3c1154e31e9461f40ed1b41bbba9",
          "blockNumber": "0x588f0a",
          "transactionHash": "0x2f9cda0571d8f38878d6771b35d4532abca4c8593fdc1db4cde9139965584735",
          "transactionIndex": "0x36",
          "logIndex": "0x5a",
          "removed": false
        }
      ],
      "logsBloom": "0x000000000000020000000000000000002000000000000000004000000000000000004000000000100200008000014010000000000000000000060000000000000100000000000000001000000000000000000000000000000000000000000000008000000000000000000504000000000000000080000000000000000000000000000000000000000000000002100200000000001000000000000000000000000000000000000000040040000000000000000000000000000000000c0000000000000000000000000000004000008000001000000000000000000000000000000000010200000010005001000000000000000100200000000002000000000000",
      "type": "0x2",
      "transactionHash": "0x2f9cda0571d8f38878d6771b35d4532abca4c8593fdc1db4cde9139965584735",
      "transactionIndex": "0x36",
      "blockHash": "0xcaec7ea6c9fc013c11b696047bfe54bdfd7a3c1154e31e9461f40ed1b41bbba9",
      "blockNumber": "0x588f0a",
      "gasUsed": "0x1c72e",
      "effectiveGasPrice": "0x9089b398",
      "from": "0x699bceebd59a5b52bb586c737cd7ba636f3fe602",
      "to": "0x23dd1aa37b5c81d64586c021330d61d3ad55aafb",
      "contractAddress": null
    }
  ],
  "libraries": [],
  "pending": [],
  "returns": {},
  "timestamp": 1714412453,
  "chain": 11155111,
  "commit": "9546700"
}