{
  "transactions": [
    {
      "hash": "0x161cd9fa6e1af2134c6f02ca130bbe54d5da8d4daa02cb6ec14f14ea622f30b2",
      "transactionType": "CALL",
      "contractName": null,
      "contractAddress": "0x23dd1aa37b5c81d64586c021330d61d3ad55aafb",
      "function": "postMessage((address,uint256,uint256)[])",
      "arguments": [
        "[(0x699BceEbD59a5b52bB586C737cD7ba636f3Fe602, 80002, 11100000000000000), (0x699BceEbD59a5b52bB586C737cD7ba636f3Fe602, 80002, 11200000000000000), (0x699BceEbD59a5b52bB586C737cD7ba636f3Fe602, 80002, 11300000000000000), (0x699BceEbD59a5b52bB586C737cD7ba636f3Fe602, 80002, 11400000000000000), (0x699BceEbD59a5b52bB586C737cD7ba636f3Fe602, 80002, 11500000000000000)]"
      ],
      "transaction": {
        "from": "0x699bceebd59a5b52bb586c737cd7ba636f3fe602",
        "to": "0x23dd1aa37b5c81d64586c021330d61d3ad55aafb",
        "gas": "0x274b6",
        "value": "0xd529ae9e860000",
        "input": "0x42cbee8d00000000000000000000000000000000000000000000000000000000000000200000000000000000000000000000000000000000000000000000000000000005000000000000000000000000699bceebd59a5b52bb586c737cd7ba636f3fe602000000000000000000000000000000000000000000000000000000000001388200000000000000000000000000000000000000000000000000276f642501c000000000000000000000000000699bceebd59a5b52bb586c737cd7ba636f3fe60200000000000000000000000000000000000000000000000000000000000138820000000000000000000000000000000000000000000000000027ca57357c0000000000000000000000000000699bceebd59a5b52bb586c737cd7ba636f3fe60200000000000000000000000000000000000000000000000000000000000138820000000000000000000000000000000000000000000000000028254a45f64000000000000000000000000000699bceebd59a5b52bb586c737cd7ba636f3fe60200000000000000000000000000000000000000000000000000000000000138820000000000000000000000000000000000000000000000000028803d56708000000000000000000000000000699bceebd59a5b52bb586c737cd7ba636f3fe60200000000000000000000000000000000000000000000000000000000000138820000000000000000000000000000000000000000000000000028db3066eac000",
        "nonce": "0x181",
        "chainId": "0xaa36a7",
        "accessList": null,
        "type": null
      },
      "additionalContracts": [],
      "isFixedGasLimit": false
    }
  ],
  "receipts": [
    {
      "status": "0x1",
      "cumulativeGasUsed": "0x8b9e43",
      "logs": [
        {
          "address": "0x23dd1aa37b5c81d64586c021330d61d3ad55aafb",
          "topics": [
            "0x9853b992610853aa2f058d95d0a4868ffcd37470b93a5e6634619467e0d4228c",
            "0x7a7d8dcfa91b066b5111cd829e57d9ab9e8a1900972b6fcb389ead15d4e59042",
            "0x000000000000000000000000699bceebd59a5b52bb586c737cd7ba636f3fe602",
            "0x00000000000000000000000000000000000000000000000000276f642501c000"
          ],
          "data": "0x00000000000000000000000000000000000000000000000000000000663026a0000000000000000000000000699bceebd59a5b52bb586c737cd7ba636f3fe60200000000000000000000000000000000000000000000000000000000000138820000000000000000000000000000000000000000000000a2a15d09519be000000000000000000000000000000000000000000000000000000de0b6b3a7640000",
          "blockHash": "0xd4b36b2f8a43fe059fabd025f1b2c4277226b58a8e9bbe556b809236cd936b6c",
          "blockNumber": "0x5894ab",
          "transactionHash": "0x161cd9fa6e1af2134c6f02ca130bbe54d5da8d4daa02cb6ec14f14ea622f30b2",
          "transactionIndex": "0x1a",
          "logIndex": "0x4f",
          "removed": false
        },
        {
          "address": "0x23dd1aa37b5c81d64586c021330d61d3ad55aafb",
          "topics": [
            "0x9853b992610853aa2f058d95d0a4868ffcd37470b93a5e6634619467e0d4228c",
            "0xbbaf21737d6a88abae780384fe99154737f816c8f7ab4977f84abb40c47b114c",
            "0x000000000000000000000000699bceebd59a5b52bb586c737cd7ba636f3fe602",
            "0x0000000000000000000000000000000000000000000000000027ca57357c0000"
          ],
          "data": "0x00000000000000000000000000000000000000000000000000000000663026a0000000000000000000000000699bceebd59a5b52bb586c737cd7ba636f3fe60200000000000000000000000000000000000000000000000000000000000138820000000000000000000000000000000000000000000000a2a15d09519be000000000000000000000000000000000000000000000000000000de0b6b3a7640000",
          "blockHash": "0xd4b36b2f8a43fe059fabd025f1b2c4277226b58a8e9bbe556b809236cd936b6c",
          "blockNumber": "0x5894ab",
          "transactionHash": "0x161cd9fa6e1af2134c6f02ca130bbe54d5da8d4daa02cb6ec14f14ea622f30b2",
          "transactionIndex": "0x1a",
          "logIndex": "0x50",
          "removed": false
        },
        {
          "address": "0x23dd1aa37b5c81d64586c021330d61d3ad55aafb",
          "topics": [
            "0x9853b992610853aa2f058d95d0a4868ffcd37470b93a5e6634619467e0d4228c",
            "0x72630a84ab798f3c9777fcd2eb2b8d6d58445a852dcbc1465d3d7e73986de8e8",
            "0x000000000000000000000000699bceebd59a5b52bb586c737cd7ba636f3fe602",
            "0x0000000000000000000000000000000000000000000000000028254a45f64000"
          ],
          "data": "0x00000000000000000000000000000000000000000000000000000000663026a0000000000000000000000000699bceebd59a5b52bb586c737cd7ba636f3fe60200000000000000000000000000000000000000000000000000000000000138820000000000000000000000000000000000000000000000a2a15d09519be000000000000000000000000000000000000000000000000000000de0b6b3a7640000",
          "blockHash": "0xd4b36b2f8a43fe059fabd025f1b2c4277226b58a8e9bbe556b809236cd936b6c",
          "blockNumber": "0x5894ab",
          "transactionHash": "0x161cd9fa6e1af2134c6f02ca130bbe54d5da8d4daa02cb6ec14f14ea622f30b2",
          "transactionIndex": "0x1a",
          "logIndex": "0x51",
          "removed": false
        },
        {
          "address": "0x23dd1aa37b5c81d64586c021330d61d3ad55aafb",
          "topics": [
            "0x9853b992610853aa2f058d95d0a4868ffcd37470b93a5e6634619467e0d4228c",
            "0xeb9558270bc4d5ae1b4c2b7375e891620fc485155325daa87e1b71c3f354b116",
            "0x000000000000000000000000699bceebd59a5b52bb586c737cd7ba636f3fe602",
            "0x0000000000000000000000000000000000000000000000000028803d56708000"
          ],
          "data": "0x00000000000000000000000000000000000000000000000000000000663026a0000000000000000000000000699bceebd59a5b52bb586c737cd7ba636f3fe60200000000000000000000000000000000000000000000000000000000000138820000000000000000000000000000000000000000000000a2a15d09519be000000000000000000000000000000000000000000000000000000de0b6b3a7640000",
          "blockHash": "0xd4b36b2f8a43fe059fabd025f1b2c4277226b58a8e9bbe556b809236cd936b6c",
          "blockNumber": "0x5894ab",
          "transactionHash": "0x161cd9fa6e1af2134c6f02ca130bbe54d5da8d4daa02cb6ec14f14ea622f30b2",
          "transactionIndex": "0x1a",
          "logIndex": "0x52",
          "removed": false
        },
        {
          "address": "0x23dd1aa37b5c81d64586c021330d61d3ad55aafb",
          "topics": [
            "0x9853b992610853aa2f058d95d0a4868ffcd37470b93a5e6634619467e0d4228c",
            "0x5675389179886f7bc6e9f5ace6dc66cb553b586903a5dda52ba2eae25ff9f72c",
            "0x000000000000000000000000699bceebd59a5b52bb586c737cd7ba636f3fe602",
            "0x0000000000000000000000000000000000000000000000000028db3066eac000"
          ],
          "data": "0x00000000000000000000000000000000000000000000000000000000663026a0000000000000000000000000699bceebd59a5b52bb586c737cd7ba636f3fe60200000000000000000000000000000000000000000000000000000000000138820000000000000000000000000000000000000000000000a2a15d09519be000000000000000000000000000000000000000000000000000000de0b6b3a7640000",
          "blockHash": "0xd4b36b2f8a43fe059fabd025f1b2c4277226b58a8e9bbe556b809236cd936b6c",
          "blockNumber": "0x5894ab",
          "transactionHash": "0x161cd9fa6e1af2134c6f02ca130bbe54d5da8d4daa02cb6ec14f14ea622f30b2",
          "transactionIndex": "0x1a",
          "logIndex": "0x53",
          "removed": false
        }
      ],
      "logsBloom": "0x00000000000000000000000000000000200000000040000000400000000000000000400000000010000000820000001000000001000000000000000200000000010000000000000000008000000000000000000000000000000000000000000000800000040000080000000400000000000000008000000000000000000000000000000000000080001000000210020800000000000000000000000000004200000000000000004004000000000000000000000000000000000000040000000000000000000000000000004000008004000000000000000000000000000000000000010200000000005001000000000000000100200000000000400000000000",
      "type": "0x2",
      "transactionHash": "0x161cd9fa6e1af2134c6f02ca130bbe54d5da8d4daa02cb6ec14f14ea622f30b2",
      "transactionIndex": "0x1a",
      "blockHash": "0xd4b36b2f8a43fe059fabd025f1b2c4277226b58a8e9bbe556b809236cd936b6c",
      "blockNumber": "0x5894ab",
      "gasUsed": "0x1c72e",
      "effectiveGasPrice": "0x3ba234ec",
      "from": "0x699bceebd59a5b52bb586c737cd7ba636f3fe602",
      "to": "0x23dd1aa37b5c81d64586c021330d61d3ad55aafb",
      "contractAddress": null
    }
  ],
  "libraries": [],
  "pending": [],
  "returns": {},
  "timestamp": 1714431652,
  "chain": 11155111,
  "commit": "9546700"
}