{
  "transactions": [
    {
      "hash": "0xb2f035b0c73a86c68c36f99508dbd0b1281a7fddfdb98993d8d070f63bf0241a",
      "transactionType": "CALL",
      "contractName": null,
      "contractAddress": "0x23dd1aa37b5c81d64586c021330d61d3ad55aafb",
      "function": "postMessage((address,uint256,uint256)[])",
      "arguments": [
        "[(0x699BceEbD59a5b52bB586C737cD7ba636f3Fe602, 80002, 11100000000000000), (0x699BceEbD59a5b52bB586C737cD7ba636f3Fe602, 80002, 11200000000000000), (0x699BceEbD59a5b52bB586C737cD7ba636f3Fe602, 80002, 11300000000000000), (0x699BceEbD59a5b52bB586C737cD7ba636f3Fe602, 80002, 11400000000000000), (0x699BceEbD59a5b52bB586C737cD7ba636f3Fe602, 80002, 11500000000000000), (0x699BceEbD59a5b52bB586C737cD7ba636f3Fe602, 80002, 11600000000000000), (0x699BceEbD59a5b52bB586C737cD7ba636f3Fe602, 80002, 11700000000000000), (0x699BceEbD59a5b52bB586C737cD7ba636f3Fe602, 80002, 11800000000000000), (0x699BceEbD59a5b52bB586C737cD7ba636f3Fe602, 80002, 11900000000000000), (0x699BceEbD59a5b52bB586C737cD7ba636f3Fe602, 80002, 12000000000000000), (0x699BceEbD59a5b52bB586C737cD7ba636f3Fe602, 80002, 12100000000000000), (0x699BceEbD59a5b52bB586C737cD7ba636f3Fe602, 80002, 12200000000000000), (0x699BceEbD59a5b52bB586C737cD7ba636f3Fe602, 80002, 12300000000000000), (0x699BceEbD59a5b52bB586C737cD7ba636f3Fe602, 80002, 12400000000000000), (0x699BceEbD59a5b52bB586C737cD7ba636f3Fe602, 80002, 12500000000000000)]"
      ],
      "transaction": {
        "from": "0x699bceebd59a5b52bb586c737cd7ba636f3fe602",
        "to": "0x23dd1aa37b5c81d64586c021330d61d3ad55aafb",
        "gas": "0x3a77a",
        "value": "0x2c68af0bb140000",
        "input": "0x42cbee8d0000000000000000000000000000000000000000000000000000000000000020000000000000000000000000000000000000000000000000000000000000000f000000000000000000000000699bceebd59a5b52bb586c737cd7ba636f3fe602000000000000000000000000000000000000000000000000000000000001388200000000000000000000000000000000000000000000000000276f642501c000000000000000000000000000699bceebd59a5b52bb586c737cd7ba636f3fe60200000000000000000000000000000000000000000000000000000000000138820000000000000000000000000000000000000000000000000027ca57357c0000000000000000000000000000699bceebd59a5b52bb586c737cd7ba636f3fe60200000000000000000000000000000000000000000000000000000000000138820000000000000000000000000000000000000000000000000028254a45f64000000000000000000000000000699bceebd59a5b52bb586c737cd7ba636f3fe60200000000000000000000000000000000000000000000000000000000000138820000000000000000000000000000000000000000000000000028803d56708000000000000000000000000000699bceebd59a5b52bb586c737cd7ba636f3fe60200000000000000000000000000000000000000000000000000000000000138820000000000000000000000000000000000000000000000000028db3066eac000000000000000000000000000699bceebd59a5b52bb586c737cd7ba636f3fe60200000000000000000000000000000000000000000000000000000000000138820000000000000000000000000000000000000000000000000029362377650000000000000000000000000000699bceebd59a5b52bb586c737cd7ba636f3fe60200000000000000000000000000000000000000000000000000000000000138820000000000000000000000000000000000000000000000000029911687df4000000000000000000000000000699bceebd59a5b52bb586c737cd7ba636f3fe60200000000000000000000000000000000000000000000000000000000000138820000000000000000000000000000000000000000000000000029ec0998598000000000000000000000000000699bceebd59a5b52bb586c737cd7ba636f3fe6020000000000000000000000000000000000000000000000000000000000013882000000000000000000000000000000000000000000000000002a46fca8d3c000000000000000000000000000699bceebd59a5b52bb586c737cd7ba636f3fe6020000000000000000000000000000000000000000000000000000000000013882000000000000000000000000000000000000000000000000002aa1efb94e0000000000000000000000000000699bceebd59a5b52bb586c737cd7ba636f3fe6020000000000000000000000000000000000000000000000000000000000013882000000000000000000000000000000000000000000000000002afce2c9c84000000000000000000000000000699bceebd59a5b52bb586c737cd7ba636f3fe6020000000000000000000000000000000000000000000000000000000000013882000000000000000000000000000000000000000000000000002b57d5da428000000000000000000000000000699bceebd59a5b52bb586c737cd7ba636f3fe6020000000000000000000000000000000000000000000000000000000000013882000000000000000000000000000000000000000000000000002bb2c8eabcc000000000000000000000000000699bceebd59a5b52bb586c737cd7ba636f3fe6020000000000000000000000000000000000000000000000000000000000013882000000000000000000000000000000000000000000000000002c0dbbfb370000000000000000000000000000699bceebd59a5b52bb586c737cd7ba636f3fe6020000000000000000000000000000000000000000000000000000000000013882000000000000000000000000000000000000000000000000002c68af0bb14000",
        "nonce": "0x18e",
        "chainId": "0xaa36a7",
        "accessList": null,
        "type": null
      },
      "additionalContracts": [],
      "isFixedGasLimit": false
    }
  ],
  "receipts": [
    {
      "status": "0x1",
      "cumulativeGasUsed": "0xa7dfe3",
      "logs": [
        {
          "address": "0x23dd1aa37b5c81d64586c021330d61d3ad55aafb",
          "topics": [
            "0x9853b992610853aa2f058d95d0a4868ffcd37470b93a5e6634619467e0d4228c",
            "0x977e0b0a1c3fc3001608d929bcea810697dd4ae315e7492789b45c0ed6a93c5f",
            "0x000000000000000000000000699bceebd59a5b52bb586c737cd7ba636f3fe602",
            "0x00000000000000000000000000000000000000000000000000276f642501c000"
          ],
          "data": "0x0000000000000000000000000000000000000000000000000000000066303e40000000000000000000000000699bceebd59a5b52bb586c737cd7ba636f3fe60200000000000000000000000000000000000000000000000000000000000138820000000000000000000000000000000000000000000000a2a15d09519be000000000000000000000000000000000000000000000000000000de0b6b3a7640000",
          "blockHash": "0x56912fa9f5f5f2bbfbe6846f9fc1a06127f049dfbb762d588411a9db2324c2e9",
          "blockNumber": "0x58965f",
          "transactionHash": "0xb2f035b0c73a86c68c36f99508dbd0b1281a7fddfdb98993d8d070f63bf0241a",
          "transactionIndex": "0x61",
          "logIndex": "0xcc",
          "removed": false
        },
        {
          "address": "0x23dd1aa37b5c81d64586c021330d61d3ad55aafb",
          "topics": [
            "0x9853b992610853aa2f058d95d0a4868ffcd37470b93a5e6634619467e0d4228c",
            "0x5de41a0e6dd6b941d896919a60cf403c70676a1defff822733698dfc1b1f0d96",
            "0x000000000000000000000000699bceebd59a5b52bb586c737cd7ba636f3fe602",
            "0x0000000000000000000000000000000000000000000000000027ca57357c0000"
          ],
          "data": "0x0000000000000000000000000000000000000000000000000000000066303e40000000000000000000000000699bceebd59a5b52bb586c737cd7ba636f3fe60200000000000000000000000000000000000000000000000000000000000138820000000000000000000000000000000000000000000000a2a15d09519be000000000000000000000000000000000000000000000000000000de0b6b3a7640000",
          "blockHash": "0x56912fa9f5f5f2bbfbe6846f9fc1a06127f049dfbb762d588411a9db2324c2e9",
          "blockNumber": "0x58965f",
          "transactionHash": "0xb2f035b0c73a86c68c36f99508dbd0b1281a7fddfdb98993d8d070f63bf0241a",
          "transactionIndex": "0x61",
          "logIndex": "0xcd",
          "removed": false
        },
        {
          "address": "0x23dd1aa37b5c81d64586c021330d61d3ad55aafb",
          "topics": [
            "0x9853b992610853aa2f058d95d0a4868ffcd37470b93a5e6634619467e0d4228c",
            "0x7c834cc6d1d7f0501411d5c197fac163511c78b2397b756814a1722717b75cf2",
            "0x000000000000000000000000699bceebd59a5b52bb586c737cd7ba636f3fe602",
            "0x0000000000000000000000000000000000000000000000000028254a45f64000"
          ],
          "data": "0x0000000000000000000000000000000000000000000000000000000066303e40000000000000000000000000699bceebd59a5b52bb586c737cd7ba636f3fe60200000000000000000000000000000000000000000000000000000000000138820000000000000000000000000000000000000000000000a2a15d09519be000000000000000000000000000000000000000000000000000000de0b6b3a7640000",
          "blockHash": "0x56912fa9f5f5f2bbfbe6846f9fc1a06127f049dfbb762d588411a9db2324c2e9",
          "blockNumber": "0x58965f",
          "transactionHash": "0xb2f035b0c73a86c68c36f99508dbd0b1281a7fddfdb98993d8d070f63bf0241a",
          "transactionIndex": "0x61",
          "logIndex": "0xce",
          "removed": false
        },
        {
          "address": "0x23dd1aa37b5c81d64586c021330d61d3ad55aafb",
          "topics": [
            "0x9853b992610853aa2f058d95d0a4868ffcd37470b93a5e6634619467e0d4228c",
            "0x7fe4ea345fae172450e383ed268d25543076eb83d641b39f0a9c7eedb9aaace8",
            "0x000000000000000000000000699bceebd59a5b52bb586c737cd7ba636f3fe602",
            "0x0000000000000000000000000000000000000000000000000028803d56708000"
          ],
          "data": "0x0000000000000000000000000000000000000000000000000000000066303e40000000000000000000000000699bceebd59a5b52bb586c737cd7ba636f3fe60200000000000000000000000000000000000000000000000000000000000138820000000000000000000000000000000000000000000000a2a15d09519be000000000000000000000000000000000000000000000000000000de0b6b3a7640000",
          "blockHash": "0x56912fa9f5f5f2bbfbe6846f9fc1a06127f049dfbb762d588411a9db2324c2e9",
          "blockNumber": "0x58965f",
          "transactionHash": "0xb2f035b0c73a86c68c36f99508dbd0b1281a7fddfdb98993d8d070f63bf0241a",
          "transactionIndex": "0x61",
          "logIndex": "0xcf",
          "removed": false
        },
        {
          "address": "0x23dd1aa37b5c81d64586c021330d61d3ad55aafb",
          "topics": [
            "0x9853b992610853aa2f058d95d0a4868ffcd37470b93a5e6634619467e0d4228c",
            "0x84bfd799f6ee178c2f2a7b2b184e137b0ca5979b1cafbcb4047d581a3c200b78",
            "0x000000000000000000000000699bceebd59a5b52bb586c737cd7ba636f3fe602",
            "0x0000000000000000000000000000000000000000000000000028db3066eac000"
          ],
          "data": "0x0000000000000000000000000000000000000000000000000000000066303e40000000000000000000000000699bceebd59a5b52bb586c737cd7ba636f3fe60200000000000000000000000000000000000000000000000000000000000138820000000000000000000000000000000000000000000000a2a15d09519be000000000000000000000000000000000000000000000000000000de0b6b3a7640000",
          "blockHash": "0x56912fa9f5f5f2bbfbe6846f9fc1a06127f049dfbb762d588411a9db2324c2e9",
          "blockNumber": "0x58965f",
          "transactionHash": "0xb2f035b0c73a86c68c36f99508dbd0b1281a7fddfdb98993d8d070f63bf0241a",
          "transactionIndex": "0x61",
          "logIndex": "0xd0",
          "removed": false
        },
        {
          "address": "0x23dd1aa37b5c81d64586c021330d61d3ad55aafb",
          "topics": [
            "0x9853b992610853aa2f058d95d0a4868ffcd37470b93a5e6634619467e0d4228c",
            "0xaec54c194ecce7bfc559399fcf006b1c7b86fa506d8d726fc3ddd4e13d675933",
            "0x000000000000000000000000699bceebd59a5b52bb586c737cd7ba636f3fe602",
            "0x0000000000000000000000000000000000000000000000000029362377650000"
          ],
          "data": "0x0000000000000000000000000000000000000000000000000000000066303e40000000000000000000000000699bceebd59a5b52bb586c737cd7ba636f3fe60200000000000000000000000000000000000000000000000000000000000138820000000000000000000000000000000000000000000000a2a15d09519be000000000000000000000000000000000000000000000000000000de0b6b3a7640000",
          "blockHash": "0x56912fa9f5f5f2bbfbe6846f9fc1a06127f049dfbb762d588411a9db2324c2e9",
          "blockNumber": "0x58965f",
          "transactionHash": "0xb2f035b0c73a86c68c36f99508dbd0b1281a7fddfdb98993d8d070f63bf0241a",
          "transactionIndex": "0x61",
          "logIndex": "0xd1",
          "removed": false
        },
        {
          "address": "0x23dd1aa37b5c81d64586c021330d61d3ad55aafb",
          "topics": [
            "0x9853b992610853aa2f058d95d0a4868ffcd37470b93a5e6634619467e0d4228c",
            "0xad0bc21960f3586acdff2b59383c02172a291ff9885dc1ed820f8e395a469464",
            "0x000000000000000000000000699bceebd59a5b52bb586c737cd7ba636f3fe602",
            "0x0000000000000000000000000000000000000000000000000029911687df4000"
          ],
          "data": "0x0000000000000000000000000000000000000000000000000000000066303e40000000000000000000000000699bceebd59a5b52bb586c737cd7ba636f3fe60200000000000000000000000000000000000000000000000000000000000138820000000000000000000000000000000000000000000000a2a15d09519be000000000000000000000000000000000000000000000000000000de0b6b3a7640000",
          "blockHash": "0x56912fa9f5f5f2bbfbe6846f9fc1a06127f049dfbb762d588411a9db2324c2e9",
          "blockNumber": "0x58965f",
          "transactionHash": "0xb2f035b0c73a86c68c36f99508dbd0b1281a7fddfdb98993d8d070f63bf0241a",
          "transactionIndex": "0x61",
          "logIndex": "0xd2",
          "removed": false
        },
        {
          "address": "0x23dd1aa37b5c81d64586c021330d61d3ad55aafb",
          "topics": [
            "0x9853b992610853aa2f058d95d0a4868ffcd37470b93a5e6634619467e0d4228c",
            "0xed2ce4f1963633dc0ab6e4a6bb9b203f94c74e82bea9d082eaea24a7b0f79bf5",
            "0x000000000000000000000000699bceebd59a5b52bb586c737cd7ba636f3fe602",
            "0x0000000000000000000000000000000000000000000000000029ec0998598000"
          ],
          "data": "0x0000000000000000000000000000000000000000000000000000000066303e40000000000000000000000000699bceebd59a5b52bb586c737cd7ba636f3fe60200000000000000000000000000000000000000000000000000000000000138820000000000000000000000000000000000000000000000a2a15d09519be000000000000000000000000000000000000000000000000000000de0b6b3a7640000",
          "blockHash": "0x56912fa9f5f5f2bbfbe6846f9fc1a06127f049dfbb762d588411a9db2324c2e9",
          "blockNumber": "0x58965f",
          "transactionHash": "0xb2f035b0c73a86c68c36f99508dbd0b1281a7fddfdb98993d8d070f63bf0241a",
          "transactionIndex": "0x61",
          "logIndex": "0xd3",
          "removed": false
        },
        {
          "address": "0x23dd1aa37b5c81d64586c021330d61d3ad55aafb",
          "topics": [
            "0x9853b992610853aa2f058d95d0a4868ffcd37470b93a5e6634619467e0d4228c",
            "0xf4bc097758039fb3102972cfeacfdc3ebf0e77f0734576ebb03885a60217702f",
            "0x000000000000000000000000699bceebd59a5b52bb586c737cd7ba636f3fe602",
            "0x000000000000000000000000000000000000000000000000002a46fca8d3c000"
          ],
          "data": "0x0000000000000000000000000000000000000000000000000000000066303e40000000000000000000000000699bceebd59a5b52bb586c737cd7ba636f3fe60200000000000000000000000000000000000000000000000000000000000138820000000000000000000000000000000000000000000000a2a15d09519be000000000000000000000000000000000000000000000000000000de0b6b3a7640000",
          "blockHash": "0x56912fa9f5f5f2bbfbe6846f9fc1a06127f049dfbb762d588411a9db2324c2e9",
          "blockNumber": "0x58965f",
          "transactionHash": "0xb2f035b0c73a86c68c36f99508dbd0b1281a7fddfdb98993d8d070f63bf0241a",
          "transactionIndex": "0x61",
          "logIndex": "0xd4",
          "removed": false
        },
        {
          "address": "0x23dd1aa37b5c81d64586c021330d61d3ad55aafb",
          "topics": [
            "0x9853b992610853aa2f058d95d0a4868ffcd37470b93a5e6634619467e0d4228c",
            "0x062886a56c11964994c64094f9a99a5ceb929f2bb54905ad6c1505609bd73e74",
            "0x000000000000000000000000699bceebd59a5b52bb586c737cd7ba636f3fe602",
            "0x000000000000000000000000000000000000000000000000002aa1efb94e0000"
          ],
          "data": "0x0000000000000000000000000000000000000000000000000000000066303e40000000000000000000000000699bceebd59a5b52bb586c737cd7ba636f3fe60200000000000000000000000000000000000000000000000000000000000138820000000000000000000000000000000000000000000000a2a15d09519be000000000000000000000000000000000000000000000000000000de0b6b3a7640000",
          "blockHash": "0x56912fa9f5f5f2bbfbe6846f9fc1a06127f049dfbb762d588411a9db2324c2e9",
          "blockNumber": "0x58965f",
          "transactionHash": "0xb2f035b0c73a86c68c36f99508dbd0b1281a7fddfdb98993d8d070f63bf0241a",
          "transactionIndex": "0x61",
          "logIndex": "0xd5",
          "removed": false
        },
        {
          "address": "0x23dd1aa37b5c81d64586c021330d61d3ad55aafb",
          "topics": [
            "0x9853b992610853aa2f058d95d0a4868ffcd37470b93a5e6634619467e0d4228c",
            "0x6681573b21a08a3389dce8be010a5ac2870f7be8565453dad72138a0eb80cef6",
            "0x000000000000000000000000699bceebd59a5b52bb586c737cd7ba636f3fe602",
            "0x000000000000000000000000000000000000000000000000002afce2c9c84000"
          ],
          "data": "0x0000000000000000000000000000000000000000000000000000000066303e40000000000000000000000000699bceebd59a5b52bb586c737cd7ba636f3fe60200000000000000000000000000000000000000000000000000000000000138820000000000000000000000000000000000000000000000a2a15d09519be000000000000000000000000000000000000000000000000000000de0b6b3a7640000",
          "blockHash": "0x56912fa9f5f5f2bbfbe6846f9fc1a06127f049dfbb762d588411a9db2324c2e9",
          "blockNumber": "0x58965f",
          "transactionHash": "0xb2f035b0c73a86c68c36f99508dbd0b1281a7fddfdb98993d8d070f63bf0241a",
          "transactionIndex": "0x61",
          "logIndex": "0xd6",
          "removed": false
        },
        {
          "address": "0x23dd1aa37b5c81d64586c021330d61d3ad55aafb",
          "topics": [
            "0x9853b992610853aa2f058d95d0a4868ffcd37470b93a5e6634619467e0d4228c",
            "0xe861ca5a7cb3b350a7b37f08a44a623d0d88734258aea0684fbefa52e438e9ed",
            "0x000000000000000000000000699bceebd59a5b52bb586c737cd7ba636f3fe602",
            "0x000000000000000000000000000000000000000000000000002b57d5da428000"
          ],
          "data": "0x0000000000000000000000000000000000000000000000000000000066303e40000000000000000000000000699bceebd59a5b52bb586c737cd7ba636f3fe60200000000000000000000000000000000000000000000000000000000000138820000000000000000000000000000000000000000000000a2a15d09519be000000000000000000000000000000000000000000000000000000de0b6b3a7640000",
          "blockHash": "0x56912fa9f5f5f2bbfbe6846f9fc1a06127f049dfbb762d588411a9db2324c2e9",
          "blockNumber": "0x58965f",
          "transactionHash": "0xb2f035b0c73a86c68c36f99508dbd0b1281a7fddfdb98993d8d070f63bf0241a",
          "transactionIndex": "0x61",
          "logIndex": "0xd7",
          "removed": false
        },
        {
          "address": "0x23dd1aa37b5c81d64586c021330d61d3ad55aafb",
          "topics": [
            "0x9853b992610853aa2f058d95d0a4868ffcd37470b93a5e6634619467e0d4228c",
            "0x0e38ac84310af7e7ca8f4c62988b47b9f70108f30cdea550355be2e981380753",
            "0x000000000000000000000000699bceebd59a5b52bb586c737cd7ba636f3fe602",
            "0x000000000000000000000000000000000000000000000000002bb2c8eabcc000"
          ],
          "data": "0x0000000000000000000000000000000000000000000000000000000066303e40000000000000000000000000699bceebd59a5b52bb586c737cd7ba636f3fe60200000000000000000000000000000000000000000000000000000000000138820000000000000000000000000000000000000000000000a2a15d09519be000000000000000000000000000000000000000000000000000000de0b6b3a7640000",
          "blockHash": "0x56912fa9f5f5f2bbfbe6846f9fc1a06127f049dfbb762d588411a9db2324c2e9",
          "blockNumber": "0x58965f",
          "transactionHash": "0xb2f035b0c73a86c68c36f99508dbd0b1281a7fddfdb98993d8d070f63bf0241a",
          "transactionIndex": "0x61",
          "logIndex": "0xd8",
          "removed": false
        },
        {
          "address": "0x23dd1aa37b5c81d64586c021330d61d3ad55aafb",
          "topics": [
            "0x9853b992610853aa2f058d95d0a4868ffcd37470b93a5e6634619467e0d4228c",
            "0x34c3f8a5771ec0e3c781b52d683e4da098ef5d3c9275ec412c3731eec71882ca",
            "0x000000000000000000000000699bceebd59a5b52bb586c737cd7ba636f3fe602",
            "0x000000000000000000000000000000000000000000000000002c0dbbfb370000"
          ],
          "data": "0x0000000000000000000000000000000000000000000000000000000066303e40000000000000000000000000699bceebd59a5b52bb586c737cd7ba636f3fe60200000000000000000000000000000000000000000000000000000000000138820000000000000000000000000000000000000000000000a2a15d09519be000000000000000000000000000000000000000000000000000000de0b6b3a7640000",
          "blockHash": "0x56912fa9f5f5f2bbfbe6846f9fc1a06127f049dfbb762d588411a9db2324c2e9",
          "blockNumber": "0x58965f",
          "transactionHash": "0xb2f035b0c73a86c68c36f99508dbd0b1281a7fddfdb98993d8d070f63bf0241a",
          "transactionIndex": "0x61",
          "logIndex": "0xd9",
          "removed": false
        },
        {
          "address": "0x23dd1aa37b5c81d64586c021330d61d3ad55aafb",
          "topics": [
            "0x9853b992610853aa2f058d95d0a4868ffcd37470b93a5e6634619467e0d4228c",
            "0xc2241edd61751baebd79f495ba7efc6e73d1686e33b3d4c38cb9e3066c864040",
            "0x000000000000000000000000699bceebd59a5b52bb586c737cd7ba636f3fe602",
            "0x000000000000000000000000000000000000000000000000002c68af0bb14000"
          ],
          "data": "0x0000000000000000000000000000000000000000000000000000000066303e40000000000000000000000000699bceebd59a5b52bb586c737cd7ba636f3fe60200000000000000000000000000000000000000000000000000000000000138820000000000000000000000000000000000000000000000a2a15d09519be000000000000000000000000000000000000000000000000000000de0b6b3a7640000",
          "blockHash": "0x56912fa9f5f5f2bbfbe6846f9fc1a06127f049dfbb762d588411a9db2324c2e9",
          "blockNumber": "0x58965f",
          "transactionHash": "0xb2f035b0c73a86c68c36f99508dbd0b1281a7fddfdb98993d8d070f63bf0241a",
          "transactionIndex": "0x61",
          "logIndex": "0xda",
          "removed": false
        }
      ],
      "logsBloom": "0x00000000820000000000000000000000202000000000000000600000000000000022400012000010000040920000001800000000100200000000000000020000010200000000000000000400000800000008000000000000000100082040080000800000808000000000000400400200000000008100000000010000000004004041100000a0020000000000025082000000100000400000040000000008000000000004080000204c018000020000040000000007002080400000840000800400000000000000000000004100008000100200000120000000000000000020000001010200000000005001000000000090000100200000000010000000000040",
      "type": "0x2",
      "transactionHash": "0xb2f035b0c73a86c68c36f99508dbd0b1281a7fddfdb98993d8d070f63bf0241a",
      "transactionIndex": "0x61",
      "blockHash": "0x56912fa9f5f5f2bbfbe6846f9fc1a06127f049dfbb762d588411a9db2324c2e9",
      "blockNumber": "0x58965f",
      "gasUsed": "0x2a545",
      "effectiveGasPrice": "0x3ba310a3",
      "from": "0x699bceebd59a5b52bb586c737cd7ba636f3fe602",
      "to": "0x23dd1aa37b5c81d64586c021330d61d3ad55aafb",
      "contractAddress": null
    }
  ],
  "libraries": [],
  "pending": [],
  "returns": {},
  "timestamp": 1714437702,
  "chain": 11155111,
  "commit": "9546700"
}