{
  "transactions": [
    {
      "hash": "0xbf9878a12c7ffe9b8a98c2ab245566bb6ce65f911caa741de5612342b132f46e",
      "transactionType": "CALL",
      "contractName": null,
      "contractAddress": "0x23dd1aa37b5c81d64586c021330d61d3ad55aafb",
      "function": "postMessage((address,uint256,uint256)[])",
      "arguments": [
        "[(0x699BceEbD59a5b52bB586C737cD7ba636f3Fe602, 80002, 11100000000000000), (0x699BceEbD59a5b52bB586C737cD7ba636f3Fe602, 80002, 11200000000000000), (0x699BceEbD59a5b52bB586C737cD7ba636f3Fe602, 80002, 11300000000000000), (0x699BceEbD59a5b52bB586C737cD7ba636f3Fe602, 80002, 11400000000000000), (0x699BceEbD59a5b52bB586C737cD7ba636f3Fe602, 80002, 11500000000000000)]"
      ],
      "transaction": {
        "from": "0x699bceebd59a5b52bb586c737cd7ba636f3fe602",
        "to": "0x23dd1aa37b5c81d64586c021330d61d3ad55aafb",
        "gas": "0x274b6",
        "value": "0xd529ae9e860000",
        "input": "0x42cbee8d00000000000000000000000000000000000000000000000000000000000000200000000000000000000000000000000000000000000000000000000000000005000000000000000000000000699bceebd59a5b52bb586c737cd7ba636f3fe602000000000000000000000000000000000000000000000000000000000001388200000000000000000000000000000000000000000000000000276f642501c000000000000000000000000000699bceebd59a5b52bb586c737cd7ba636f3fe60200000000000000000000000000000000000000000000000000000000000138820000000000000000000000000000000000000000000000000027ca57357c0000000000000000000000000000699bceebd59a5b52bb586c737cd7ba636f3fe60200000000000000000000000000000000000000000000000000000000000138820000000000000000000000000000000000000000000000000028254a45f64000000000000000000000000000699bceebd59a5b52bb586c737cd7ba636f3fe60200000000000000000000000000000000000000000000000000000000000138820000000000000000000000000000000000000000000000000028803d56708000000000000000000000000000699bceebd59a5b52bb586c737cd7ba636f3fe60200000000000000000000000000000000000000000000000000000000000138820000000000000000000000000000000000000000000000000028db3066eac000",
        "nonce": "0x169",
        "chainId": "0xaa36a7",
        "accessList": null,
        "type": null
      },
      "additionalContracts": [],
      "isFixedGasLimit": false
    }
  ],
  "receipts": [
    {
      "status": "0x1",
      "cumulativeGasUsed": "0xad49b5",
      "logs": [
        {
          "address": "0x23dd1aa37b5c81d64586c021330d61d3ad55aafb",
          "topics": [
            "0x9853b992610853aa2f058d95d0a4868ffcd37470b93a5e6634619467e0d4228c",
            "0x16996142fed6aed7eba5bdd2cbdf6a3869497e4fadbad2f1ddaf3bf472940a0d",
            "0x000000000000000000000000699bceebd59a5b52bb586c737cd7ba636f3fe602",
            "0x00000000000000000000000000000000000000000000000000276f642501c000"
          ],
          "data": "0x00000000000000000000000000000000000000000000000000000000662fcfb8000000000000000000000000699bceebd59a5b52bb586c737cd7ba636f3fe60200000000000000000000000000000000000000000000000000000000000138820000000000000000000000000000000000000000000000a2a15d09519be000000000000000000000000000000000000000000000000000000de0b6b3a7640000",
          "blockHash": "0x9d185d4a74c65b9bb7caee1d889e428c6d4d1de27f8174e4be9f509c2c195166",
          "blockNumber": "0x588e23",
          "transactionHash": "0xbf9878a12c7ffe9b8a98c2ab245566bb6ce65f911caa741de5612342b132f46e",
          "transactionIndex": "0x50",
          "logIndex": "0x89",
          "removed": false
        },
        {
          "address": "0x23dd1aa37b5c81d64586c021330d61d3ad55aafb",
          "topics": [
            "0x9853b992610853aa2f058d95d0a4868ffcd37470b93a5e6634619467e0d4228c",
            "0xfc8be9b2029ba9590f704a52005a9e872956084d78a75b1276a0e2f9d77ed83f",
            "0x000000000000000000000000699bceebd59a5b52bb586c737cd7ba636f3fe602",
            "0x0000000000000000000000000000000000000000000000000027ca57357c0000"
          ],
          "data": "0x00000000000000000000000000000000000000000000000000000000662fcfb8000000000000000000000000699bceebd59a5b52bb586c737cd7ba636f3fe60200000000000000000000000000000000000000000000000000000000000138820000000000000000000000000000000000000000000000a2a15d09519be000000000000000000000000000000000000000000000000000000de0b6b3a7640000",
          "blockHash": "0x9d185d4a74c65b9bb7caee1d889e428c6d4d1de27f8174e4be9f509c2c195166",
          "blockNumber": "0x588e23",
          "transactionHash": "0xbf9878a12c7ffe9b8a98c2ab245566bb6ce65f911caa741de5612342b132f46e",
          "transactionIndex": "0x50",
          "logIndex": "0x8a",
          "removed": false
        },
        {
          "address": "0x23dd1aa37b5c81d64586c021330d61d3ad55aafb",
          "topics": [
            "0x9853b992610853aa2f058d95d0a4868ffcd37470b93a5e6634619467e0d4228c",
            "0x92d18a144250a5f313cdcca7e0e07b8e0c653be02d7a6c8680d596adb4ef937a",
            "0x000000000000000000000000699bceebd59a5b52bb586c737cd7ba636f3fe602",
            "0x0000000000000000000000000000000000000000000000000028254a45f64000"
          ],
          "data": "0x00000000000000000000000000000000000000000000000000000000662fcfb8000000000000000000000000699bceebd59a5b52bb586c737cd7ba636f3fe60200000000000000000000000000000000000000000000000000000000000138820000000000000000000000000000000000000000000000a2a15d09519be000000000000000000000000000000000000000000000000000000de0b6b3a7640000",
          "blockHash": "0x9d185d4a74c65b9bb7caee1d889e428c6d4d1de27f8174e4be9f509c2c195166",
          "blockNumber": "0x588e23",
          "transactionHash": "0xbf9878a12c7ffe9b8a98c2ab245566bb6ce65f911caa741de5612342b132f46e",
          "transactionIndex": "0x50",
          "logIndex": "0x8b",
          "removed": false
        },
        {
          "address": "0x23dd1aa37b5c81d64586c021330d61d3ad55aafb",
          "topics": [
            "0x9853b992610853aa2f058d95d0a4868ffcd37470b93a5e6634619467e0d4228c",
            "0x9a82b9f16c56d0d7123b23e5a8f01836acb4ec05414dc15c2069adc1d600c87a",
            "0x000000000000000000000000699bceebd59a5b52bb586c737cd7ba636f3fe602",
            "0x0000000000000000000000000000000000000000000000000028803d56708000"
          ],
          "data": "0x00000000000000000000000000000000000000000000000000000000662fcfb8000000000000000000000000699bceebd59a5b52bb586c737cd7ba636f3fe60200000000000000000000000000000000000000000000000000000000000138820000000000000000000000000000000000000000000000a2a15d09519be000000000000000000000000000000000000000000000000000000de0b6b3a7640000",
          "blockHash": "0x9d185d4a74c65b9bb7caee1d889e428c6d4d1de27f8174e4be9f509c2c195166",
          "blockNumber": "0x588e23",
          "transactionHash": "0xbf9878a12c7ffe9b8a98c2ab245566bb6ce65f911caa741de5612342b132f46e",
          "transactionIndex": "0x50",
          "logIndex": "0x8c",
          "removed": false
        },
        {
          "address": "0x23dd1aa37b5c81d64586c021330d61d3ad55aafb",
          "topics": [
            "0x9853b992610853aa2f058d95d0a4868ffcd37470b93a5e6634619467e0d4228c",
            "0x1dd56d3d9d7cc937a548ef19f5d3a4de70888797e37e99711b9ef07de6f87897",
            "0x000000000000000000000000699bceebd59a5b52bb586c737cd7ba636f3fe602",
            "0x0000000000000000000000000000000000000000000000000028db3066eac000"
          ],
          "data": "0x00000000000000000000000000000000000000000000000000000000662fcfb8000000000000000000000000699bceebd59a5b52bb586c737cd7ba636f3fe60200000000000000000000000000000000000000000000000000000000000138820000000000000000000000000000000000000000000000a2a15d09519be000000000000000000000000000000000000000000000000000000de0b6b3a7640000",
          "blockHash": "0x9d185d4a74c65b9bb7caee1d889e428c6d4d1de27f8174e4be9f509c2c195166",
          "blockNumber": "0x588e23",
          "transactionHash": "0xbf9878a12c7ffe9b8a98c2ab245566bb6ce65f911caa741de5612342b132f46e",
          "transactionIndex": "0x50",
          "logIndex": "0x8d",
          "removed": false
        }
      ],
      "logsBloom": "0x00000000000000000000001000000000200000000000000000400000000000000000400000000210000000800000001000000000000000000000000000000000010200000000000000000000000000000000000000000000000000000000000000800000000000000000000400000000000000018020000000000000000000000000000000000800000000000210020000000000000000000000000000000000000000000000000404000004000000001000008000000000000000840000000000000000000000000000004000008010000000000000000000000000000000000000210200000000005001000000000000000100200008000000000000001000",
      "type": "0x2",
      "transactionHash": "0xbf9878a12c7ffe9b8a98c2ab245566bb6ce65f911caa741de5612342b132f46e",
      "transactionIndex": "0x50",
      "blockHash": "0x9d185d4a74c65b9bb7caee1d889e428c6d4d1de27f8174e4be9f509c2c195166",
      "blockNumber": "0x588e23",
      "gasUsed": "0x1c72e",
      "effectiveGasPrice": "0x272f53497",
      "from": "0x699bceebd59a5b52bb586c737cd7ba636f3fe602",
      "to": "0x23dd1aa37b5c81d64586c021330d61d3ad55aafb",
      "contractAddress": null
    }
  ],
  "libraries": [],
  "pending": [],
  "returns": {},
  "timestamp": 1714409405,
  "chain": 11155111,
  "commit": "9546700"
}