{
  "transactions": [
    {
      "hash": "0xa29ac110c09d30d42e48b515599b247c113af1240fa4440f0b8c2b166bc9f801",
      "transactionType": "CALL",
      "contractName": null,
      "contractAddress": "0x371862509e523e8fb89eb8911254c14c882fca96",
      "function": "postMessage((address,uint256,uint256)[])",
      "arguments": [
        "[(0x699BceEbD59a5b52bB586C737cD7ba636f3Fe602, 80002, 110000000000000000)]"
      ],
      "transaction": {
        "from": "0x699bceebd59a5b52bb586c737cd7ba636f3fe602",
        "to": "0x371862509e523e8fb89eb8911254c14c882fca96",
        "gas": "0x217c8",
        "value": "0x186cc6acd4b0000",
        "input": "0x42cbee8d00000000000000000000000000000000000000000000000000000000000000200000000000000000000000000000000000000000000000000000000000000001000000000000000000000000699bceebd59a5b52bb586c737cd7ba636f3fe60200000000000000000000000000000000000000000000000000000000000138820000000000000000000000000000000000000000000000000186cc6acd4b0000",
        "nonce": "0x12e",
        "chainId": "0xaa36a7",
        "accessList": null,
        "type": null
      },
      "additionalContracts": [],
      "isFixedGasLimit": false
    }
  ],
  "receipts": [
    {
      "status": "0x1",
      "cumulativeGasUsed": "0x135010c",
      "logs": [
        {
          "address": "0x371862509e523e8fb89eb8911254c14c882fca96",
          "topics": [
            "0x9853b992610853aa2f058d95d0a4868ffcd37470b93a5e6634619467e0d4228c",
            "0x71f1731efa4ba75a9b8bc165432dc3063deefdabce04d3bfded2965c3d54e4c6",
            "0x000000000000000000000000699bceebd59a5b52bb586c737cd7ba636f3fe602",
            "0x0000000000000000000000000000000000000000000000000186cc6acd4b0000"
          ],
          "data": "0x00000000000000000000000000000000000000000000000000000000662c7f54000000000000000000000000699bceebd59a5b52bb586c737cd7ba636f3fe60200000000000000000000000000000000000000000000000000000000000138820000000000000000000000000000000000000000000000a2a15d09519be000000000000000000000000000000000000000000000000000000de0b6b3a7640000",
          "blockHash": "0x0278b7c076d8337f615464703713e02b77b6d19aca74e9369a687e1d7f4788ad",
          "blockNumber": "0x584a7f",
          "transactionHash": "0xa29ac110c09d30d42e48b515599b247c113af1240fa4440f0b8c2b166bc9f801",
          "transactionIndex": "0x60",
          "logIndex": "0x15d",
          "removed": false
        }
      ],
      "logsBloom": "0x00000000000000000000000000000000000000000000000000400000000000000000000000000000000000000000000000000000000000000000000000020000000000000000000000000080000000000000000000000000000001000000000000800004000002000080000000000000000000008000000000000000000000000000000000000000000000000000000000000000000000000000000000000000000000000000000000000000000000000800000000000000000004000000000000000000000000000000000000008040000000000000000000000000000000000000000000000000001000000000000000000100000000000000000000000000",
      "type": "0x2",
      "transactionHash": "0xa29ac110c09d30d42e48b515599b247c113af1240fa4440f0b8c2b166bc9f801",
      "transactionIndex": "0x60",
      "blockHash": "0x0278b7c076d8337f615464703713e02b77b6d19aca74e9369a687e1d7f4788ad",
      "blockNumber": "0x584a7f",
      "gasUsed": "0x16e59",
      "effectiveGasPrice": "0x55664423",
      "from": "0x699bceebd59a5b52bb586c737cd7ba636f3fe602",
      "to": "0x371862509e523e8fb89eb8911254c14c882fca96",
      "contractAddress": null
    }
  ],
  "libraries": [],
  "pending": [],
  "returns": {},
  "timestamp": 1714192219,
  "chain": 11155111,
  "commit": "d8ddccd"
}