{
  "transactions": [
    {
      "hash": "0x8c1aeaa83f510951e7d29000c5644c193f7c5ecf84e991303b6de18dbbe7f594",
      "transactionType": "CALL",
      "contractName": null,
      "contractAddress": "0x23dd1aa37b5c81d64586c021330d61d3ad55aafb",
      "function": "postMessage((address,uint256,uint256)[])",
      "arguments": [
        "[(0x699BceEbD59a5b52bB586C737cD7ba636f3Fe602, 80002, 11100000000000000), (0x699BceEbD59a5b52bB586C737cD7ba636f3Fe602, 80002, 11200000000000000)]"
      ],
      "transaction": {
        "from": "0x699bceebd59a5b52bb586c737cd7ba636f3fe602",
        "to": "0x23dd1aa37b5c81d64586c021330d61d3ad55aafb",
        "gas": "0x218a8",
        "value": "0x6a94d74f430000",
        "input": "0x42cbee8d00000000000000000000000000000000000000000000000000000000000000200000000000000000000000000000000000000000000000000000000000000002000000000000000000000000699bceebd59a5b52bb586c737cd7ba636f3fe602000000000000000000000000000000000000000000000000000000000001388200000000000000000000000000000000000000000000000000276f642501c000000000000000000000000000699bceebd59a5b52bb586c737cd7ba636f3fe60200000000000000000000000000000000000000000000000000000000000138820000000000000000000000000000000000000000000000000027ca57357c0000",
        "nonce": "0x14a",
        "chainId": "0xaa36a7",
        "accessList": null,
        "type": null
      },
      "additionalContracts": [],
      "isFixedGasLimit": false
    }
  ],
  "receipts": [
    {
      "status": "0x1",
      "cumulativeGasUsed": "0xf6f6f1",
      "logs": [
        {
          "address": "0x23dd1aa37b5c81d64586c021330d61d3ad55aafb",
          "topics": [
            "0x9853b992610853aa2f058d95d0a4868ffcd37470b93a5e6634619467e0d4228c",
            "0x21ab7672de2b98a4157976849a9d740e86d674d978158548f4980624872ffe81",
            "0x000000000000000000000000699bceebd59a5b52bb586c737cd7ba636f3fe602",
            "0x00000000000000000000000000000000000000000000000000276f642501c000"
          ],
          "data": "0x00000000000000000000000000000000000000000000000000000000662dfaf8000000000000000000000000699bceebd59a5b52bb586c737cd7ba636f3fe60200000000000000000000000000000000000000000000000000000000000138820000000000000000000000000000000000000000000000a2a15d09519be000000000000000000000000000000000000000000000000000000de0b6b3a7640000",
          "blockHash": "0x42f92d900a286cce8c8c1b069807209febff31cd8f146099b8e797f601b16b3f",
          "blockNumber": "0x58693f",
          "transactionHash": "0x8c1aeaa83f510951e7d29000c5644c193f7c5ecf84e991303b6de18dbbe7f594",
          "transactionIndex": "0x67",
          "logIndex": "0x112",
          "removed": false
        },
        {
          "address": "0x23dd1aa37b5c81d64586c021330d61d3ad55aafb",
          "topics": [
            "0x9853b992610853aa2f058d95d0a4868ffcd37470b93a5e6634619467e0d4228c",
            "0x79f2b8b66c9aab8ad0470c059bdd046c6953c8ca4799ad67c10e212a31675b2e",
            "0x000000000000000000000000699bceebd59a5b52bb586c737cd7ba636f3fe602",
            "0x0000000000000000000000000000000000000000000000000027ca57357c0000"
          ],
          "data": "0x00000000000000000000000000000000000000000000000000000000662dfaf8000000000000000000000000699bceebd59a5b52bb586c737cd7ba636f3fe60200000000000000000000000000000000000000000000000000000000000138820000000000000000000000000000000000000000000000a2a15d09519be000000000000000000000000000000000000000000000000000000de0b6b3a7640000",
          "blockHash": "0x42f92d900a286cce8c8c1b069807209febff31cd8f146099b8e797f601b16b3f",
          "blockNumber": "0x58693f",
          "transactionHash": "0x8c1aeaa83f510951e7d29000c5644c193f7c5ecf84e991303b6de18dbbe7f594",
          "transactionIndex": "0x67",
          "logIndex": "0x113",
          "removed": false
        }
      ],
      "logsBloom": "0x00200000000000000000000000000000000000000000000000480000000000000000400000000010000000000000000000000002000000000000000000000000000000000002000000000000000000000000000000000000000000000000000000800000000000001000000400000000000000008000000000000000000000000000000000000000000000000200020000000000000000000000000000000000000000000000000000000000000000000000000000000000000000040000000000000000000000000000000000008000000000000000000080000000000000000000010000000000005000000000000000000100200000000000000000000000",
      "type": "0x2",
      "transactionHash": "0x8c1aeaa83f510951e7d29000c5644c193f7c5ecf84e991303b6de18dbbe7f594",
      "transactionIndex": "0x67",
      "blockHash": "0x42f92d900a286cce8c8c1b069807209febff31cd8f146099b8e797f601b16b3f",
      "blockNumber": "0x58693f",
      "gasUsed": "0x18488",
      "effectiveGasPrice": "0x9350741d",
      "from": "0x699bceebd59a5b52bb586c737cd7ba636f3fe602",
      "to": "0x23dd1aa37b5c81d64586c021330d61d3ad55aafb",
      "contractAddress": null
    }
  ],
  "libraries": [],
  "pending": [],
  "returns": {},
  "timestamp": 1714289403,
  "chain": 11155111,
  "commit": "9546700"
}