{
  "transactions": [
    {
      "hash": "0x82ff85c854d20915c58e2c07b7a8f4ea1ed092d549eda5caf655d9d341bff4b4",
      "transactionType": "CALL",
      "contractName": null,
      "contractAddress": "0x23dd1aa37b5c81d64586c021330d61d3ad55aafb",
      "function": "postMessage((address,uint256,uint256)[])",
      "arguments": [
        "[(0x699BceEbD59a5b52bB586C737cD7ba636f3Fe602, 80002, 11100000000000000), (0x699BceEbD59a5b52bB586C737cD7ba636f3Fe602, 80002, 11200000000000000), (0x699BceEbD59a5b52bB586C737cD7ba636f3Fe602, 80002, 11300000000000000), (0x699BceEbD59a5b52bB586C737cD7ba636f3Fe602, 80002, 11400000000000000), (0x699BceEbD59a5b52bB586C737cD7ba636f3Fe602, 80002, 11500000000000000)]"
      ],
      "transaction": {
        "from": "0x699bceebd59a5b52bb586c737cd7ba636f3fe602",
        "to": "0x23dd1aa37b5c81d64586c021330d61d3ad55aafb",
        "gas": "0x274b6",
        "value": "0xd529ae9e860000",
        "input": "0x42cbee8d00000000000000000000000000000000000000000000000000000000000000200000000000000000000000000000000000000000000000000000000000000005000000000000000000000000699bceebd59a5b52bb586c737cd7ba636f3fe602000000000000000000000000000000000000000000000000000000000001388200000000000000000000000000000000000000000000000000276f642501c000000000000000000000000000699bceebd59a5b52bb586c737cd7ba636f3fe60200000000000000000000000000000000000000000000000000000000000138820000000000000000000000000000000000000000000000000027ca57357c0000000000000000000000000000699bceebd59a5b52bb586c737cd7ba636f3fe60200000000000000000000000000000000000000000000000000000000000138820000000000000000000000000000000000000000000000000028254a45f64000000000000000000000000000699bceebd59a5b52bb586c737cd7ba636f3fe60200000000000000000000000000000000000000000000000000000000000138820000000000000000000000000000000000000000000000000028803d56708000000000000000000000000000699bceebd59a5b52bb586c737cd7ba636f3fe60200000000000000000000000000000000000000000000000000000000000138820000000000000000000000000000000000000000000000000028db3066eac000",
        "nonce": "0x187",
        "chainId": "0xaa36a7",
        "accessList": null,
        "type": null
      },
      "additionalContracts": [],
      "isFixedGasLimit": false
    }
  ],
  "receipts": [
    {
      "status": "0x1",
      "cumulativeGasUsed": "0x814e18",
      "logs": [
        {
          "address": "0x23dd1aa37b5c81d64586c021330d61d3ad55aafb",
          "topics": [
            "0x9853b992610853aa2f058d95d0a4868ffcd37470b93a5e6634619467e0d4228c",
            "0x62640984e4ccc71e18241ed9a5612f8ab7bfe2ce1e20135aa90ac245fcf6b548",
            "0x000000000000000000000000699bceebd59a5b52bb586c737cd7ba636f3fe602",
            "0x00000000000000000000000000000000000000000000000000276f642501c000"
          ],
          "data": "0x0000000000000000000000000000000000000000000000000000000066302d78000000000000000000000000699bceebd59a5b52bb586c737cd7ba636f3fe60200000000000000000000000000000000000000000000000000000000000138820000000000000000000000000000000000000000000000a2a15d09519be000000000000000000000000000000000000000000000000000000de0b6b3a7640000",
          "blockHash": "0xef3b78a8aaf1e1943f441385449ff76c5a49b5a3a4eec33aa81e602efd47f59b",
          "blockNumber": "0x589524",
          "transactionHash": "0x82ff85c854d20915c58e2c07b7a8f4ea1ed092d549eda5caf655d9d341bff4b4",
          "transactionIndex": "0x17",
          "logIndex": "0x33",
          "removed": false
        },
        {
          "address": "0x23dd1aa37b5c81d64586c021330d61d3ad55aafb",
          "topics": [
            "0x9853b992610853aa2f058d95d0a4868ffcd37470b93a5e6634619467e0d4228c",
            "0xaf5032ef1c500c1e0955b6e8daffc3fb6beec16b6c16bbd769824b876cb4722f",
            "0x000000000000000000000000699bceebd59a5b52bb586c737cd7ba636f3fe602",
            "0x0000000000000000000000000000000000000000000000000027ca57357c0000"
          ],
          "data": "0x0000000000000000000000000000000000000000000000000000000066302d78000000000000000000000000699bceebd59a5b52bb586c737cd7ba636f3fe60200000000000000000000000000000000000000000000000000000000000138820000000000000000000000000000000000000000000000a2a15d09519be000000000000000000000000000000000000000000000000000000de0b6b3a7640000",
          "blockHash": "0xef3b78a8aaf1e1943f441385449ff76c5a49b5a3a4eec33aa81e602efd47f59b",
          "blockNumber": "0x589524",
          "transactionHash": "0x82ff85c854d20915c58e2c07b7a8f4ea1ed092d549eda5caf655d9d341bff4b4",
          "transactionIndex": "0x17",
          "logIndex": "0x34",
          "removed": false
        },
        {
          "address": "0x23dd1aa37b5c81d64586c021330d61d3ad55aafb",
          "topics": [
            "0x9853b992610853aa2f058d95d0a4868ffcd37470b93a5e6634619467e0d4228c",
            "0x8a2a0edbb95dc060614d46aec337d61cf84fed01e7295989f3d2cb39b3c1a663",
            "0x000000000000000000000000699bceebd59a5b52bb586c737cd7ba636f3fe602",
            "0x0000000000000000000000000000000000000000000000000028254a45f64000"
          ],
          "data": "0x0000000000000000000000000000000000000000000000000000000066302d78000000000000000000000000699bceebd59a5b52bb586c737cd7ba636f3fe60200000000000000000000000000000000000000000000000000000000000138820000000000000000000000000000000000000000000000a2a15d09519be000000000000000000000000000000000000000000000000000000de0b6b3a7640000",
          "blockHash": "0xef3b78a8aaf1e1943f441385449ff76c5a49b5a3a4eec33aa81e602efd47f59b",
          "blockNumber": "0x589524",
          "transactionHash": "0x82ff85c854d20915c58e2c07b7a8f4ea1ed092d549eda5caf655d9d341bff4b4",
          "transactionIndex": "0x17",
          "logIndex": "0x35",
          "removed": false
        },
        {
          "address": "0x23dd1aa37b5c81d64586c021330d61d3ad55aafb",
          "topics": [
            "0x9853b992610853aa2f058d95d0a4868ffcd37470b93a5e6634619467e0d4228c",
            "0xc7aba5cc921b28170600e6c0ff2e96d99a943fa3b2ccdf1c2789f46b7293f9d1",
            "0x000000000000000000000000699bceebd59a5b52bb586c737cd7ba636f3fe602",
            "0x0000000000000000000000000000000000000000000000000028803d56708000"
          ],
          "data": "0x0000000000000000000000000000000000000000000000000000000066302d78000000000000000000000000699bceebd59a5b52bb586c737cd7ba636f3fe60200000000000000000000000000000000000000000000000000000000000138820000000000000000000000000000000000000000000000a2a15d09519be000000000000000000000000000000000000000000000000000000de0b6b3a7640000",
          "blockHash": "0xef3b78a8aaf1e1943f441385449ff76c5a49b5a3a4eec33aa81e602efd47f59b",
          "blockNumber": "0x589524",
          "transactionHash": "0x82ff85c854d20915c58e2c07b7a8f4ea1ed092d549eda5caf655d9d341bff4b4",
          "transactionIndex": "0x17",
          "logIndex": "0x36",
          "removed": false
        },
        {
          "address": "0x23dd1aa37b5c81d64586c021330d61d3ad55aafb",
          "topics": [
            "0x9853b992610853aa2f058d95d0a4868ffcd37470b93a5e6634619467e0d4228c",
            "0x4eecc153ab864e0b567712721ee61f21f1a10c365fc4cf07f218bc6534f963ba",
            "0x000000000000000000000000699bceebd59a5b52bb586c737cd7ba636f3fe602",
            "0x0000000000000000000000000000000000000000000000000028db3066eac000"
          ],
          "data": "0x0000000000000000000000000000000000000000000000000000000066302d78000000000000000000000000699bceebd59a5b52bb586c737cd7ba636f3fe60200000000000000000000000000000000000000000000000000000000000138820000000000000000000000000000000000000000000000a2a15d09519be000000000000000000000000000000000000000000000000000000de0b6b3a7640000",
          "blockHash": "0xef3b78a8aaf1e1943f441385449ff76c5a49b5a3a4eec33aa81e602efd47f59b",
          "blockNumber": "0x589524",
          "transactionHash": "0x82ff85c854d20915c58e2c07b7a8f4ea1ed092d549eda5caf655d9d341bff4b4",
          "transactionIndex": "0x17",
          "logIndex": "0x37",
          "removed": false
        }
      ],
      "logsBloom": "0x0000000000000000000000000000000020000000000800000040000000000000000040004000001000000080000000100000000000000008000000000000000001000000000000000000000000000000000000000000000000000000000000000080000000000000000000040000000000000000800000000000000000000000000000000000000000000004021002040000000000000000000000000000000201000000000000000400000000000000000000000080000000000004000000000000000002000080000000400000800000000000000c000000000000000000000000010300000000005001400000000000000100240000000000000000000000",
      "type": "0x2",
      "transactionHash": "0x82ff85c854d20915c58e2c07b7a8f4ea1ed092d549eda5caf655d9d341bff4b4",
      "transactionIndex": "0x17",
      "blockHash": "0xef3b78a8aaf1e1943f441385449ff76c5a49b5a3a4eec33aa81e602efd47f59b",
      "blockNumber": "0x589524",
      "gasUsed": "0x1c72e",
      "effectiveGasPrice": "0x4a8aa296",
      "from": "0x699bceebd59a5b52bb586c737cd7ba636f3fe602",
      "to": "0x23dd1aa37b5c81d64586c021330d61d3ad55aafb",
      "contractAddress": null
    }
  ],
  "libraries": [],
  "pending": [],
  "returns": {},
  "timestamp": 1714433407,
  "chain": 11155111,
  "commit": "9546700"
}