{
  "transactions": [
    {
      "hash": "0xb7138508c2e05924fb7b577fb9378d29d2a90dc5cc90977c06b15f617afa2b21",
      "transactionType": "CALL",
      "contractName": null,
      "contractAddress": "0x371862509e523e8fb89eb8911254c14c882fca96",
      "function": "postMessage((address,uint256,uint256)[])",
      "arguments": [
        "[(0x699BceEbD59a5b52bB586C737cD7ba636f3Fe602, 80002, 10000000000000000)]"
      ],
      "transaction": {
        "from": "0x699bceebd59a5b52bb586c737cd7ba636f3fe602",
        "to": "0x371862509e523e8fb89eb8911254c14c882fca96",
        "gas": "0x1f9f2",
        "value": "0x2386f26fc10000",
        "input": "0x42cbee8d00000000000000000000000000000000000000000000000000000000000000200000000000000000000000000000000000000000000000000000000000000001000000000000000000000000699bceebd59a5b52bb586c737cd7ba636f3fe6020000000000000000000000000000000000000000000000000000000000013882000000000000000000000000000000000000000000000000002386f26fc10000",
        "nonce": "0x12f",
        "chainId": "0xaa36a7",
        "accessList": null,
        "type": null
      },
      "additionalContracts": [],
      "isFixedGasLimit": false
    }
  ],
  "receipts": [
    {
      "status": "0x1",
      "cumulativeGasUsed": "0x597098",
      "logs": [
        {
          "address": "0x371862509e523e8fb89eb8911254c14c882fca96",
          "topics": [
            "0x9853b992610853aa2f058d95d0a4868ffcd37470b93a5e6634619467e0d4228c",
            "0x1ca1ecb509521825e5420c69091debb2205537cfc00542447ff7a4e341cfdc82",
            "0x000000000000000000000000699bceebd59a5b52bb586c737cd7ba636f3fe602",
            "0x000000000000000000000000000000000000000000000000002386f26fc10000"
          ],
          "data": "0x00000000000000000000000000000000000000000000000000000000662c8548000000000000000000000000699bceebd59a5b52bb586c737cd7ba636f3fe60200000000000000000000000000000000000000000000000000000000000138820000000000000000000000000000000000000000000000a2a15d09519be000000000000000000000000000000000000000000000000000000de0b6b3a7640000",
          "blockHash": "0xeedf95ee29e284405ae9c9142683193afad951043e8c11ebf7689c2fef68b92e",
          "blockNumber": "0x584afe",
          "transactionHash": "0xb7138508c2e05924fb7b577fb9378d29d2a90dc5cc90977c06b15f617afa2b21",
          "transactionIndex": "0x2a",
          "logIndex": "0x7a",
          "removed": false
        }
      ],
      "logsBloom": "0x00200400000000000000000000000000000020000000000000400000000000000000000000002000000000000000000000000000000000000000000000020000000000000000000000000000000000000000000000000000000000000000000000800004000002000000008000000000000000008000000000000000000000000000000000000000010000000000000000000000000000000000000000000000000000000000000000000000000000000000000000000000000000000000000000000000000000000000000000008000000000000000000000000000000000000000000000000000001000000000000000000100000000000000000000000000",
      "type": "0x2",
      "transactionHash": "0xb7138508c2e05924fb7b577fb9378d29d2a90dc5cc90977c06b15f617afa2b21",
      "transactionIndex": "0x2a",
      "blockHash": "0xeedf95ee29e284405ae9c9142683193afad951043e8c11ebf7689c2fef68b92e",
      "blockNumber": "0x584afe",
      "gasUsed": "0x16e4d",
      "effectiveGasPrice": "0x4e2b540b",
      "from": "0x699bceebd59a5b52bb586c737cd7ba636f3fe602",
      "to": "0x371862509e523e8fb89eb8911254c14c882fca96",
      "contractAddress": null
    }
  ],
  "libraries": [],
  "pending": [],
  "returns": {},
  "timestamp": 1714193740,
  "chain": 11155111,
  "commit": "d8ddccd"
}