{
  "transactions": [
    {
      "hash": "0xb35f4d663fafa6c301c2ab8ff45e88a2eb63ecaab079ab7984397ab73cb23745",
      "transactionType": "CALL",
      "contractName": null,
      "contractAddress": "0x23dd1aa37b5c81d64586c021330d61d3ad55aafb",
      "function": "postMessage((address,uint256,uint256)[])",
      "arguments": [
        "[(0x699BceEbD59a5b52bB586C737cD7ba636f3Fe602, 80002, 11100000000000000)]"
      ],
      "transaction": {
        "from": "0x699bceebd59a5b52bb586c737cd7ba636f3fe602",
        "to": "0x23dd1aa37b5c81d64586c021330d61d3ad55aafb",
        "gas": "0x227a9",
        "value": "0x276f642501c000",
        "input": "0x42cbee8d00000000000000000000000000000000000000000000000000000000000000200000000000000000000000000000000000000000000000000000000000000001000000000000000000000000699bceebd59a5b52bb586c737cd7ba636f3fe602000000000000000000000000000000000000000000000000000000000001388200000000000000000000000000000000000000000000000000276f642501c000",
        "nonce": "0x145",
        "chainId": "0xaa36a7",
        "accessList": null,
        "type": null
      },
      "additionalContracts": [],
      "isFixedGasLimit": false
    }
  ],
  "receipts": [
    {
      "status": "0x1",
      "cumulativeGasUsed": "0xd2f8f1",
      "logs": [
        {
          "address": "0x23dd1aa37b5c81d64586c021330d61d3ad55aafb",
          "topics": [
            "0x9853b992610853aa2f058d95d0a4868ffcd37470b93a5e6634619467e0d4228c",
            "0x75c9017a2b1e062cee746094caa9dd8071bc9ab813a4c741fbef894a8b61c521",
            "0x000000000000000000000000699bceebd59a5b52bb586c737cd7ba636f3fe602",
            "0x00000000000000000000000000000000000000000000000000276f642501c000"
          ],
          "data": "0x00000000000000000000000000000000000000000000000000000000662df1f8000000000000000000000000699bceebd59a5b52bb586c737cd7ba636f3fe60200000000000000000000000000000000000000000000000000000000000138820000000000000000000000000000000000000000000000a2a15d09519be000000000000000000000000000000000000000000000000000000de0b6b3a7640000",
          "blockHash": "0x8c2aa154d09aed54c1f906c1c1f6717e37e64d625a41e442478f5ea172da88b3",
          "blockNumber": "0x586882",
          "transactionHash": "0xb35f4d663fafa6c301c2ab8ff45e88a2eb63ecaab079ab7984397ab73cb23745",
          "transactionIndex": "0x5a",
          "logIndex": "0x143",
          "removed": false
        }
      ],
      "logsBloom": "0x00000000000000000000000000000000000000000000000000400000000000000000000000000010000000000000000000000400000020000000000000000000000000000000000000000000000000000000000000000000000000000000000000800000000000000000000400000000000000008000000000000000000000000000000000000000000000000200000000000000000000020000000000000000000000000000000000000000000000000000000000000000000000040000000000000000000000000000000000008000000000000000000000000000000000000000010000000000001000000000000000000100200000000000000000000000",
      "type": "0x2",
      "transactionHash": "0xb35f4d663fafa6c301c2ab8ff45e88a2eb63ecaab079ab7984397ab73cb23745",
      "transactionIndex": "0x5a",
      "blockHash": "0x8c2aa154d09aed54c1f906c1c1f6717e37e64d625a41e442478f5ea172da88b3",
      "blockNumber": "0x586882",
      "gasUsed": "0x18f65",
      "effectiveGasPrice": "0x7f60b987",
      "from": "0x699bceebd59a5b52bb586c737cd7ba636f3fe602",
      "to": "0x23dd1aa37b5c81d64586c021330d61d3ad55aafb",
      "contractAddress": null
    }
  ],
  "libraries": [],
  "pending": [],
  "returns": {},
  "timestamp": 1714287098,
  "chain": 11155111,
  "commit": "9546700"
}