{
  "transactions": [
    {
      "hash": "0xd9e16f0c28194b1a6b2b828dfdec21cecb4444c6f0841beb2909f4d4c2b5bc1e",
      "transactionType": "CALL",
      "contractName": null,
      "contractAddress": "0x23dd1aa37b5c81d64586c021330d61d3ad55aafb",
      "function": "postMessage((address,uint256,uint256)[])",
      "arguments": [
        "[(0x699BceEbD59a5b52bB586C737cD7ba636f3Fe602, 80002, 11100000000000000), (0x699BceEbD59a5b52bB586C737cD7ba636f3Fe602, 80002, 11200000000000000), (0x699BceEbD59a5b52bB586C737cD7ba636f3Fe602, 80002, 11300000000000000), (0x699BceEbD59a5b52bB586C737cD7ba636f3Fe602, 80002, 11400000000000000), (0x699BceEbD59a5b52bB586C737cD7ba636f3Fe602, 80002, 11500000000000000)]"
      ],
      "transaction": {
        "from": "0x699bceebd59a5b52bb586c737cd7ba636f3fe602",
        "to": "0x23dd1aa37b5c81d64586c021330d61d3ad55aafb",
        "gas": "0x274b6",
        "value": "0xd529ae9e860000",
        "input": "0x42cbee8d00000000000000000000000000000000000000000000000000000000000000200000000000000000000000000000000000000000000000000000000000000005000000000000000000000000699bceebd59a5b52bb586c737cd7ba636f3fe602000000000000000000000000000000000000000000000000000000000001388200000000000000000000000000000000000000000000000000276f642501c000000000000000000000000000699bceebd59a5b52bb586c737cd7ba636f3fe60200000000000000000000000000000000000000000000000000000000000138820000000000000000000000000000000000000000000000000027ca57357c0000000000000000000000000000699bceebd59a5b52bb586c737cd7ba636f3fe60200000000000000000000000000000000000000000000000000000000000138820000000000000000000000000000000000000000000000000028254a45f64000000000000000000000000000699bceebd59a5b52bb586c737cd7ba636f3fe60200000000000000000000000000000000000000000000000000000000000138820000000000000000000000000000000000000000000000000028803d56708000000000000000000000000000699bceebd59a5b52bb586c737cd7ba636f3fe60200000000000000000000000000000000000000000000000000000000000138820000000000000000000000000000000000000000000000000028db3066eac000",
        "nonce": "0x174",
        "chainId": "0xaa36a7",
        "accessList": null,
        "type": null
      },
      "additionalContracts": [],
      "isFixedGasLimit": false
    }
  ],
  "receipts": [
    {
      "status": "0x1",
      "cumulativeGasUsed": "0x6d7b69",
      "logs": [
        {
          "address": "0x23dd1aa37b5c81d64586c021330d61d3ad55aafb",
          "topics": [
            "0x9853b992610853aa2f058d95d0a4868ffcd37470b93a5e6634619467e0d4228c",
            "0x62ac85aa46f41525163d8a4c819b50045038001481eed96fd877484eb63fe63e",
            "0x000000000000000000000000699bceebd59a5b52bb586c737cd7ba636f3fe602",
            "0x00000000000000000000000000000000000000000000000000276f642501c000"
          ],
          "data": "0x00000000000000000000000000000000000000000000000000000000662ff2f8000000000000000000000000699bceebd59a5b52bb586c737cd7ba636f3fe60200000000000000000000000000000000000000000000000000000000000138820000000000000000000000000000000000000000000000a2a15d09519be000000000000000000000000000000000000000000000000000000de0b6b3a7640000",
          "blockHash": "0xf963ebd4263a64638a1f9d4911d28deede9b37d80cf3fc40e12634c3807e3194",
          "blockNumber": "0x5890d1",
          "transactionHash": "0xd9e16f0c28194b1a6b2b828dfdec21cecb4444c6f0841beb2909f4d4c2b5bc1e",
          "transactionIndex": "0x57",
          "logIndex": "0x93",
          "removed": false
        },
        {
          "address": "0x23dd1aa37b5c81d64586c021330d61d3ad55aafb",
          "topics": [
            "0x9853b992610853aa2f058d95d0a4868ffcd37470b93a5e6634619467e0d4228c",
            "0x8b94fc8b44ad61f67e1539dd8bfe8a178d4561c484c4d951a818264977ab54f6",
            "0x000000000000000000000000699bceebd59a5b52bb586c737cd7ba636f3fe602",
            "0x0000000000000000000000000000000000000000000000000027ca57357c0000"
          ],
          "data": "0x00000000000000000000000000000000000000000000000000000000662ff2f8000000000000000000000000699bceebd59a5b52bb586c737cd7ba636f3fe60200000000000000000000000000000000000000000000000000000000000138820000000000000000000000000000000000000000000000a2a15d09519be000000000000000000000000000000000000000000000000000000de0b6b3a7640000",
          "blockHash": "0xf963ebd4263a64638a1f9d4911d28deede9b37d80cf3fc40e12634c3807e3194",
          "blockNumber": "0x5890d1",
          "transactionHash": "0xd9e16f0c28194b1a6b2b828dfdec21cecb4444c6f0841beb2909f4d4c2b5bc1e",
          "transactionIndex": "0x57",
          "logIndex": "0x94",
          "removed": false
        },
        {
          "address": "0x23dd1aa37b5c81d64586c021330d61d3ad55aafb",
          "topics": [
            "0x9853b992610853aa2f058d95d0a4868ffcd37470b93a5e6634619467e0d4228c",
            "0x52cff9d58c534b47d693871e716b20b1ecfff1fe36db78da3a87954367ef7124",
            "0x000000000000000000000000699bceebd59a5b52bb586c737cd7ba636f3fe602",
            "0x0000000000000000000000000000000000000000000000000028254a45f64000"
          ],
          "data": "0x00000000000000000000000000000000000000000000000000000000662ff2f8000000000000000000000000699bceebd59a5b52bb586c737cd7ba636f3fe60200000000000000000000000000000000000000000000000000000000000138820000000000000000000000000000000000000000000000a2a15d09519be000000000000000000000000000000000000000000000000000000de0b6b3a7640000",
          "blockHash": "0xf963ebd4263a64638a1f9d4911d28deede9b37d80cf3fc40e12634c3807e3194",
          "blockNumber": "0x5890d1",
          "transactionHash": "0xd9e16f0c28194b1a6b2b828dfdec21cecb4444c6f0841beb2909f4d4c2b5bc1e",
          "transactionIndex": "0x57",
          "logIndex": "0x95",
          "removed": false
        },
        {
          "address": "0x23dd1aa37b5c81d64586c021330d61d3ad55aafb",
          "topics": [
            "0x9853b992610853aa2f058d95d0a4868ffcd37470b93a5e6634619467e0d4228c",
            "0xdb742fcbdbf87ad7928c870227b764c0cfbdb618cebce4ab1beb4fb26f4eac16",
            "0x000000000000000000000000699bceebd59a5b52bb586c737cd7ba636f3fe602",
            "0x0000000000000000000000000000000000000000000000000028803d56708000"
          ],
          "data": "0x00000000000000000000000000000000000000000000000000000000662ff2f8000000000000000000000000699bceebd59a5b52bb586c737cd7ba636f3fe60200000000000000000000000000000000000000000000000000000000000138820000000000000000000000000000000000000000000000a2a15d09519be000000000000000000000000000000000000000000000000000000de0b6b3a7640000",
          "blockHash": "0xf963ebd4263a64638a1f9d4911d28deede9b37d80cf3fc40e12634c3807e3194",
          "blockNumber": "0x5890d1",
          "transactionHash": "0xd9e16f0c28194b1a6b2b828dfdec21cecb4444c6f0841beb2909f4d4c2b5bc1e",
          "transactionIndex": "0x57",
          "logIndex": "0x96",
          "removed": false
        },
        {
          "address": "0x23dd1aa37b5c81d64586c021330d61d3ad55aafb",
          "topics": [
            "0x9853b992610853aa2f058d95d0a4868ffcd37470b93a5e6634619467e0d4228c",
            "0x3d2d954bba6b566f615859f7a2ff14043f2444cb8b1622c1dbb110e19a9ec6b3",
            "0x000000000000000000000000699bceebd59a5b52bb586c737cd7ba636f3fe602",
            "0x0000000000000000000000000000000000000000000000000028db3066eac000"
          ],
          "data": "0x00000000000000000000000000000000000000000000000000000000662ff2f8000000000000000000000000699bceebd59a5b52bb586c737cd7ba636f3fe60200000000000000000000000000000000000000000000000000000000000138820000000000000000000000000000000000000000000000a2a15d09519be000000000000000000000000000000000000000000000000000000de0b6b3a7640000",
          "blockHash": "0xf963ebd4263a64638a1f9d4911d28deede9b37d80cf3fc40e12634c3807e3194",
          "blockNumber": "0x5890d1",
          "transactionHash": "0xd9e16f0c28194b1a6b2b828dfdec21cecb4444c6f0841beb2909f4d4c2b5bc1e",
          "transactionIndex": "0x57",
          "logIndex": "0x97",
          "removed": false
        }
      ],
      "logsBloom": "0x00000002000800000000000000000000200000000008000000400000010000000000400000000010000080800000001000008000000000000000000000000000010000000000000000000000000000000000000000000000000080000000000000800000000000000000000400000000000000008000000000040000000000000000000000000100008000000210020000000000000000000000000000000000000000000000000004000001000000402000000000000000010000040000000000000000000000000000004000008100000000000000000000000000000000000000010200000000005001000000000000000100200000000000000000000000",
      "type": "0x2",
      "transactionHash": "0xd9e16f0c28194b1a6b2b828dfdec21cecb4444c6f0841beb2909f4d4c2b5bc1e",
      "transactionIndex": "0x57",
      "blockHash": "0xf963ebd4263a64638a1f9d4911d28deede9b37d80cf3fc40e12634c3807e3194",
      "blockNumber": "0x5890d1",
      "gasUsed": "0x1c72e",
      "effectiveGasPrice": "0x324beb39",
      "from": "0x699bceebd59a5b52bb586c737cd7ba636f3fe602",
      "to": "0x23dd1aa37b5c81d64586c021330d61d3ad55aafb",
      "contractAddress": null
    }
  ],
  "libraries": [],
  "pending": [],
  "returns": {},
  "timestamp": 1714418430,
  "chain": 11155111,
  "commit": "9546700"
}