{
  "transactions": [
    {
      "hash": "0x480c9e564bf4b2a3ec89660f9bdae2b5008905eba6cc17353c4f02f35d68f55f",
      "transactionType": "CALL",
      "contractName": null,
      "contractAddress": "0x23dd1aa37b5c81d64586c021330d61d3ad55aafb",
      "function": "postMessage((address,uint256,uint256)[])",
      "arguments": [
        "[(0x699BceEbD59a5b52bB586C737cD7ba636f3Fe602, 80002, 11100000000000000), (0x699BceEbD59a5b52bB586C737cD7ba636f3Fe602, 80002, 11200000000000000), (0x699BceEbD59a5b52bB586C737cD7ba636f3Fe602, 80002, 11300000000000000), (0x699BceEbD59a5b52bB586C737cD7ba636f3Fe602, 80002, 11400000000000000), (0x699BceEbD59a5b52bB586C737cD7ba636f3Fe602, 80002, 11500000000000000)]"
      ],
      "transaction": {
        "from": "0x699bceebd59a5b52bb586c737cd7ba636f3fe602",
        "to": "0x23dd1aa37b5c81d64586c021330d61d3ad55aafb",
        "gas": "0x274b6",
        "value": "0xd529ae9e860000",
        "input": "0x42cbee8d00000000000000000000000000000000000000000000000000000000000000200000000000000000000000000000000000000000000000000000000000000005000000000000000000000000699bceebd59a5b52bb586c737cd7ba636f3fe602000000000000000000000000000000000000000000000000000000000001388200000000000000000000000000000000000000000000000000276f642501c000000000000000000000000000699bceebd59a5b52bb586c737cd7ba636f3fe60200000000000000000000000000000000000000000000000000000000000138820000000000000000000000000000000000000000000000000027ca57357c0000000000000000000000000000699bceebd59a5b52bb586c737cd7ba636f3fe60200000000000000000000000000000000000000000000000000000000000138820000000000000000000000000000000000000000000000000028254a45f64000000000000000000000000000699bceebd59a5b52bb586c737cd7ba636f3fe60200000000000000000000000000000000000000000000000000000000000138820000000000000000000000000000000000000000000000000028803d56708000000000000000000000000000699bceebd59a5b52bb586c737cd7ba636f3fe60200000000000000000000000000000000000000000000000000000000000138820000000000000000000000000000000000000000000000000028db3066eac000",
        "nonce": "0x152",
        "chainId": "0xaa36a7",
        "accessList": null,
        "type": null
      },
      "additionalContracts": [],
      "isFixedGasLimit": false
    }
  ],
  "receipts": [
    {
      "status": "0x1",
      "cumulativeGasUsed": "0xb65317",
      "logs": [
        {
          "address": "0x23dd1aa37b5c81d64586c021330d61d3ad55aafb",
          "topics": [
            "0x9853b992610853aa2f058d95d0a4868ffcd37470b93a5e6634619467e0d4228c",
            "0x51a7d0f697a7dc3bc22fcd3698bb89573e2d07da750bb171e1f93d0ee1702338",
            "0x000000000000000000000000699bceebd59a5b52bb586c737cd7ba636f3fe602",
            "0x00000000000000000000000000000000000000000000000000276f642501c000"
          ],
          "data": "0x00000000000000000000000000000000000000000000000000000000662e2da4000000000000000000000000699bceebd59a5b52bb586c737cd7ba636f3fe60200000000000000000000000000000000000000000000000000000000000138820000000000000000000000000000000000000000000000a2a15d09519be000000000000000000000000000000000000000000000000000000de0b6b3a7640000",
          "blockHash": "0x712b642a90b037e260b12aeae03a89a6d106d8bff3495dd07e3b8f7ab6ab3ed6",
          "blockNumber": "0x586d5d",
          "transactionHash": "0x480c9e564bf4b2a3ec89660f9bdae2b5008905eba6cc17353c4f02f35d68f55f",
          "transactionIndex": "0x58",
          "logIndex": "0x11e",
          "removed": false
        },
        {
          "address": "0x23dd1aa37b5c81d64586c021330d61d3ad55aafb",
          "topics": [
            "0x9853b992610853aa2f058d95d0a4868ffcd37470b93a5e6634619467e0d4228c",
            "0xde674db9d254a996069ff45a5644a39c0aa92dad6218609f8e615d87a957fc13",
            "0x000000000000000000000000699bceebd59a5b52bb586c737cd7ba636f3fe602",
            "0x0000000000000000000000000000000000000000000000000027ca57357c0000"
          ],
          "data": "0x00000000000000000000000000000000000000000000000000000000662e2da4000000000000000000000000699bceebd59a5b52bb586c737cd7ba636f3fe60200000000000000000000000000000000000000000000000000000000000138820000000000000000000000000000000000000000000000a2a15d09519be000000000000000000000000000000000000000000000000000000de0b6b3a7640000",
          "blockHash": "0x712b642a90b037e260b12aeae03a89a6d106d8bff3495dd07e3b8f7ab6ab3ed6",
          "blockNumber": "0x586d5d",
          "transactionHash": "0x480c9e564bf4b2a3ec89660f9bdae2b5008905eba6cc17353c4f02f35d68f55f",
          "transactionIndex": "0x58",
          "logIndex": "0x11f",
          "removed": false
        },
        {
          "address": "0x23dd1aa37b5c81d64586c021330d61d3ad55aafb",
          "topics": [
            "0x9853b992610853aa2f058d95d0a4868ffcd37470b93a5e6634619467e0d4228c",
            "0x4c5e74cb0fc42cb6d94533b38450b1b218992a4a36656ddd9ff908d9eb1a4738",
            "0x000000000000000000000000699bceebd59a5b52bb586c737cd7ba636f3fe602",
            "0x0000000000000000000000000000000000000000000000000028254a45f64000"
          ],
          "data": "0x00000000000000000000000000000000000000000000000000000000662e2da4000000000000000000000000699bceebd59a5b52bb586c737cd7ba636f3fe60200000000000000000000000000000000000000000000000000000000000138820000000000000000000000000000000000000000000000a2a15d09519be000000000000000000000000000000000000000000000000000000de0b6b3a7640000",
          "blockHash": "0x712b642a90b037e260b12aeae03a89a6d106d8bff3495dd07e3b8f7ab6ab3ed6",
          "blockNumber": "0x586d5d",
          "transactionHash": "0x480c9e564bf4b2a3ec89660f9bdae2b5008905eba6cc17353c4f02f35d68f55f",
          "transactionIndex": "0x58",
          "logIndex": "0x120",
          "removed": false
        },
        {
          "address": "0x23dd1aa37b5c81d64586c021330d61d3ad55aafb",
          "topics": [
            "0x9853b992610853aa2f058d95d0a4868ffcd37470b93a5e6634619467e0d4228c",
            "0x7209200e187779cd52d00ae73bff99510430d39bd0149111bfee2980d23c7b82",
            "0x000000000000000000000000699bceebd59a5b52bb586c737cd7ba636f3fe602",
            "0x0000000000000000000000000000000000000000000000000028803d56708000"
          ],
          "data": "0x00000000000000000000000000000000000000000000000000000000662e2da4000000000000000000000000699bceebd59a5b52bb586c737cd7ba636f3fe60200000000000000000000000000000000000000000000000000000000000138820000000000000000000000000000000000000000000000a2a15d09519be000000000000000000000000000000000000000000000000000000de0b6b3a7640000",
          "blockHash": "0x712b642a90b037e260b12aeae03a89a6d106d8bff3495dd07e3b8f7ab6ab3ed6",
          "blockNumber": "0x586d5d",
          "transactionHash": "0x480c9e564bf4b2a3ec89660f9bdae2b5008905eba6cc17353c4f02f35d68f55f",
          "transactionIndex": "0x58",
          "logIndex": "0x121",
          "removed": false
        },
        {
          "address": "0x23dd1aa37b5c81d64586c021330d61d3ad55aafb",
          "topics": [
            "0x9853b992610853aa2f058d95d0a4868ffcd37470b93a5e6634619467e0d4228c",
            "0x113211e0425abe6e254d60878bb531ac8081fe792beea05a2913503715a649d0",
            "0x000000000000000000000000699bceebd59a5b52bb586c737cd7ba636f3fe602",
            "0x0000000000000000000000000000000000000000000000000028db3066eac000"
          ],
          "data": "0x00000000000000000000000000000000000000000000000000000000662e2da4000000000000000000000000699bceebd59a5b52bb586c737cd7ba636f3fe60200000000000000000000000000000000000000000000000000000000000138820000000000000000000000000000000000000000000000a2a15d09519be000000000000000000000000000000000000000000000000000000de0b6b3a7640000",
          "blockHash": "0x712b642a90b037e260b12aeae03a89a6d106d8bff3495dd07e3b8f7ab6ab3ed6",
          "blockNumber": "0x586d5d",
          "transactionHash": "0x480c9e564bf4b2a3ec89660f9bdae2b5008905eba6cc17353c4f02f35d68f55f",
          "transactionIndex": "0x58",
          "logIndex": "0x122",
          "removed": false
        }
      ],
      "logsBloom": "0x00000000000000000000000000000000200000000000000000400000000004000000400000000010000000800000001000000000000000000000000000000000010040000000000000000000000000000000000000400000000000000000000000800000000000000000000400000000000800008000001000000000000000000400000000000800400000000210020000000000000080000800000000000000000000000000000004000000000000000000001000000024000000040000000000000000000000000000004000008000000000000000000000000000000000000000010200000000005811000000000000000100200000000000000000000000",
      "type": "0x2",
      "transactionHash": "0x480c9e564bf4b2a3ec89660f9bdae2b5008905eba6cc17353c4f02f35d68f55f",
      "transactionIndex": "0x58",
      "blockHash": "0x712b642a90b037e260b12aeae03a89a6d106d8bff3495dd07e3b8f7ab6ab3ed6",
      "blockNumber": "0x586d5d",
      "gasUsed": "0x1c72e",
      "effectiveGasPrice": "0x6aa38031",
      "from": "0x699bceebd59a5b52bb586c737cd7ba636f3fe602",
      "to": "0x23dd1aa37b5c81d64586c021330d61d3ad55aafb",
      "contractAddress": null
    }
  ],
  "libraries": [],
  "pending": [],
  "returns": {},
  "timestamp": 1714302381,
  "chain": 11155111,
  "commit": "9546700"
}