{
  "transactions": [
    {
      "hash": "0x5318bf65448b16573df608b70fbf332954e248aa14e88fe435fa18bf596c0d62",
      "transactionType": "CALL",
      "contractName": null,
      "contractAddress": "0x371862509e523e8fb89eb8911254c14c882fca96",
      "function": "postMessage((address,uint256,uint256)[])",
      "arguments": [
        "[(0x699BceEbD59a5b52bB586C737cD7ba636f3Fe602, 80002, 200000000000000000)]"
      ],
      "transaction": {
        "from": "0x699bceebd59a5b52bb586c737cd7ba636f3fe602",
        "to": "0x371862509e523e8fb89eb8911254c14c882fca96",
        "gas": "0x26869",
        "value": "0x2c68af0bb140000",
        "input": "0x42cbee8d00000000000000000000000000000000000000000000000000000000000000200000000000000000000000000000000000000000000000000000000000000001000000000000000000000000699bceebd59a5b52bb586c737cd7ba636f3fe602000000000000000000000000000000000000000000000000000000000001388200000000000000000000000000000000000000000000000002c68af0bb140000",
        "nonce": "0x12c",
        "chainId": "0xaa36a7",
        "accessList": null,
        "type": null
      },
      "additionalContracts": [],
      "isFixedGasLimit": false
    }
  ],
  "receipts": [
    {
      "status": "0x1",
      "cumulativeGasUsed": "0xba54a1",
      "logs": [
        {
          "address": "0x371862509e523e8fb89eb8911254c14c882fca96",
          "topics": [
            "0x9853b992610853aa2f058d95d0a4868ffcd37470b93a5e6634619467e0d4228c",
            "0x8cab2e67f12c197c860357bfe0f1793fd4f9fcea77e739aa91afdc41ae145a64",
            "0x000000000000000000000000699bceebd59a5b52bb586c737cd7ba636f3fe602",
            "0x00000000000000000000000000000000000000000000000002c68af0bb140000"
          ],
          "data": "0x00000000000000000000000000000000000000000000000000000000662c7b10000000000000000000000000699bceebd59a5b52bb586c737cd7ba636f3fe60200000000000000000000000000000000000000000000000000000000000138820000000000000000000000000000000000000000000000a2a15d09519be000000000000000000000000000000000000000000000000000000de0b6b3a7640000",
          "blockHash": "0xfaaa5940fc07f41c920c9d9f156261d5545b83f78d7c96a27eeb17659383107c",
          "blockNumber": "0x584a2b",
          "transactionHash": "0x5318bf65448b16573df608b70fbf332954e248aa14e88fe435fa18bf596c0d62",
          "transactionIndex": "0x3d",
          "logIndex": "0xbf",
          "removed": false
        }
      ],
      "logsBloom": "0x00000000000000000000000000000000000000000000000000400000000000000000000000000000000000000000000000020000000000000000000000020000000000000000000000004000000000000000000000000000000000000000000000800004000002000000000000000000000000008000000000000000000000000000000000000000000000000000400000000000000000000000000000040000000000000000000000000000000000000000000000000000000000000200000000000008000000000000000000008000000000000000000000000000000000000000000000000000001000000000000000000100000000000000000000000000",
      "type": "0x2",
      "transactionHash": "0x5318bf65448b16573df608b70fbf332954e248aa14e88fe435fa18bf596c0d62",
      "transactionIndex": "0x3d",
      "blockHash": "0xfaaa5940fc07f41c920c9d9f156261d5545b83f78d7c96a27eeb17659383107c",
      "blockNumber": "0x584a2b",
      "gasUsed": "0x1a57b",
      "effectiveGasPrice": "0x402ff5f4",
      "from": "0x699bceebd59a5b52bb586c737cd7ba636f3fe602",
      "to": "0x371862509e523e8fb89eb8911254c14c882fca96",
      "contractAddress": null
    }
  ],
  "libraries": [],
  "pending": [],
  "returns": {},
  "timestamp": 1714191123,
  "chain": 11155111,
  "commit": "d8ddccd"
}