{
  "transactions": [
    {
      "hash": "0xabb3269dfac365fa8290845d43f6f8b0c95fb441ea93c4a529bc76f42b8933e5",
      "transactionType": "CALL",
      "contractName": null,
      "contractAddress": "0x23dd1aa37b5c81d64586c021330d61d3ad55aafb",
      "function": "postMessage((address,uint256,uint256)[])",
      "arguments": [
        "[(0x699BceEbD59a5b52bB586C737cD7ba636f3Fe602, 80002, 11100000000000000), (0x699BceEbD59a5b52bB586C737cD7ba636f3Fe602, 80002, 11200000000000000), (0x699BceEbD59a5b52bB586C737cD7ba636f3Fe602, 80002, 11300000000000000), (0x699BceEbD59a5b52bB586C737cD7ba636f3Fe602, 80002, 11400000000000000), (0x699BceEbD59a5b52bB586C737cD7ba636f3Fe602, 80002, 11500000000000000)]"
      ],
      "transaction": {
        "from": "0x699bceebd59a5b52bb586c737cd7ba636f3fe602",
        "to": "0x23dd1aa37b5c81d64586c021330d61d3ad55aafb",
        "gas": "0x274b6",
        "value": "0xd529ae9e860000",
        "input": "0x42cbee8d00000000000000000000000000000000000000000000000000000000000000200000000000000000000000000000000000000000000000000000000000000005000000000000000000000000699bceebd59a5b52bb586c737cd7ba636f3fe602000000000000000000000000000000000000000000000000000000000001388200000000000000000000000000000000000000000000000000276f642501c000000000000000000000000000699bceebd59a5b52bb586c737cd7ba636f3fe60200000000000000000000000000000000000000000000000000000000000138820000000000000000000000000000000000000000000000000027ca57357c0000000000000000000000000000699bceebd59a5b52bb586c737cd7ba636f3fe60200000000000000000000000000000000000000000000000000000000000138820000000000000000000000000000000000000000000000000028254a45f64000000000000000000000000000699bceebd59a5b52bb586c737cd7ba636f3fe60200000000000000000000000000000000000000000000000000000000000138820000000000000000000000000000000000000000000000000028803d56708000000000000000000000000000699bceebd59a5b52bb586c737cd7ba636f3fe60200000000000000000000000000000000000000000000000000000000000138820000000000000000000000000000000000000000000000000028db3066eac000",
        "nonce": "0x175",
        "chainId": "0xaa36a7",
        "accessList": null,
        "type": null
      },
      "additionalContracts": [],
      "isFixedGasLimit": false
    }
  ],
  "receipts": [
    {
      "status": "0x1",
      "cumulativeGasUsed": "0x678f89",
      "logs": [
        {
          "address": "0x23dd1aa37b5c81d64586c021330d61d3ad55aafb",
          "topics": [
            "0x9853b992610853aa2f058d95d0a4868ffcd37470b93a5e6634619467e0d4228c",
            "0x4579d291431316568bad35f80685ee7375929a9bbcbb9728c07245e5674b89a2",
            "0x000000000000000000000000699bceebd59a5b52bb586c737cd7ba636f3fe602",
            "0x00000000000000000000000000000000000000000000000000276f642501c000"
          ],
          "data": "0x00000000000000000000000000000000000000000000000000000000662ff754000000000000000000000000699bceebd59a5b52bb586c737cd7ba636f3fe60200000000000000000000000000000000000000000000000000000000000138820000000000000000000000000000000000000000000000a2a15d09519be000000000000000000000000000000000000000000000000000000de0b6b3a7640000",
          "blockHash": "0x68d3bc710b0037b83583697d60169eb4438fa4d54ac28299a2a3e3a3be559bcd",
          "blockNumber": "0x58912a",
          "transactionHash": "0xabb3269dfac365fa8290845d43f6f8b0c95fb441ea93c4a529bc76f42b8933e5",
          "transactionIndex": "0x3d",
          "logIndex": "0x64",
          "removed": false
        },
        {
          "address": "0x23dd1aa37b5c81d64586c021330d61d3ad55aafb",
          "topics": [
            "0x9853b992610853aa2f058d95d0a4868ffcd37470b93a5e6634619467e0d4228c",
            "0xb679cd560cd59897007a7ada68467db7a478f1a4dd2ddd79775cd5a1b21675f9",
            "0x000000000000000000000000699bceebd59a5b52bb586c737cd7ba636f3fe602",
            "0x0000000000000000000000000000000000000000000000000027ca57357c0000"
          ],
          "data": "0x00000000000000000000000000000000000000000000000000000000662ff754000000000000000000000000699bceebd59a5b52bb586c737cd7ba636f3fe60200000000000000000000000000000000000000000000000000000000000138820000000000000000000000000000000000000000000000a2a15d09519be000000000000000000000000000000000000000000000000000000de0b6b3a7640000",
          "blockHash": "0x68d3bc710b0037b83583697d60169eb4438fa4d54ac28299a2a3e3a3be559bcd",
          "blockNumber": "0x58912a",
          "transactionHash": "0xabb3269dfac365fa8290845d43f6f8b0c95fb441ea93c4a529bc76f42b8933e5",
          "transactionIndex": "0x3d",
          "logIndex": "0x65",
          "removed": false
        },
        {
          "address": "0x23dd1aa37b5c81d64586c021330d61d3ad55aafb",
          "topics": [
            "0x9853b992610853aa2f058d95d0a4868ffcd37470b93a5e6634619467e0d4228c",
            "0x54aa99cdd3c742b0ebff41b98695cf4be956cf3d18e405060a26b3c5958053a2",
            "0x000000000000000000000000699bceebd59a5b52bb586c737cd7ba636f3fe602",
            "0x0000000000000000000000000000000000000000000000000028254a45f64000"
          ],
          "data": "0x00000000000000000000000000000000000000000000000000000000662ff754000000000000000000000000699bceebd59a5b52bb586c737cd7ba636f3fe60200000000000000000000000000000000000000000000000000000000000138820000000000000000000000000000000000000000000000a2a15d09519be000000000000000000000000000000000000000000000000000000de0b6b3a7640000",
          "blockHash": "0x68d3bc710b0037b83583697d60169eb4438fa4d54ac28299a2a3e3a3be559bcd",
          "blockNumber": "0x58912a",
          "transactionHash": "0xabb3269dfac365fa8290845d43f6f8b0c95fb441ea93c4a529bc76f42b8933e5",
          "transactionIndex": "0x3d",
          "logIndex": "0x66",
          "removed": false
        },
        {
          "address": "0x23dd1aa37b5c81d64586c021330d61d3ad55aafb",
          "topics": [
            "0x9853b992610853aa2f058d95d0a4868ffcd37470b93a5e6634619467e0d4228c",
            "0x646c229e3f27b791428af258e8ff36b81bc382b78e38394acc6dd35615603c81",
            "0x000000000000000000000000699bceebd59a5b52bb586c737cd7ba636f3fe602",
            "0x0000000000000000000000000000000000000000000000000028803d56708000"
          ],
          "data": "0x00000000000000000000000000000000000000000000000000000000662ff754000000000000000000000000699bceebd59a5b52bb586c737cd7ba636f3fe60200000000000000000000000000000000000000000000000000000000000138820000000000000000000000000000000000000000000000a2a15d09519be000000000000000000000000000000000000000000000000000000de0b6b3a7640000",
          "blockHash": "0x68d3bc710b0037b83583697d60169eb4438fa4d54ac28299a2a3e3a3be559bcd",
          "blockNumber": "0x58912a",
          "transactionHash": "0xabb3269dfac365fa8290845d43f6f8b0c95fb441ea93c4a529bc76f42b8933e5",
          "transactionIndex": "0x3d",
          "logIndex": "0x67",
          "removed": false
        },
        {
          "address": "0x23dd1aa37b5c81d64586c021330d61d3ad55aafb",
          "topics": [
            "0x9853b992610853aa2f058d95d0a4868ffcd37470b93a5e6634619467e0d4228c",
            "0x616635d40d013f05ad904404f714acfbcbce1607428219c4c2a210273907ee02",
            "0x000000000000000000000000699bceebd59a5b52bb586c737cd7ba636f3fe602",
            "0x0000000000000000000000000000000000000000000000000028db3066eac000"
          ],
          "data": "0x00000000000000000000000000000000000000000000000000000000662ff754000000000000000000000000699bceebd59a5b52bb586c737cd7ba636f3fe60200000000000000000000000000000000000000000000000000000000000138820000000000000000000000000000000000000000000000a2a15d09519be000000000000000000000000000000000000000000000000000000de0b6b3a7640000",
          "blockHash": "0x68d3bc710b0037b83583697d60169eb4438fa4d54ac28299a2a3e3a3be559bcd",
          "blockNumber": "0x58912a",
          "transactionHash": "0xabb3269dfac365fa8290845d43f6f8b0c95fb441ea93c4a529bc76f42b8933e5",
          "transactionIndex": "0x3d",
          "logIndex": "0x68",
          "removed": false
        }
      ],
      "logsBloom": "0x00000000000000000000000000000000200000000000000000401000000000000000400000000010000040800000001000000000000000000000020000000400010000000000000000000000000000000000000000000000000200000000000000800000000000020000000400000000000000008000080800000000000000000002000000000000000000000210020000000002000000000000000000000000000000000080000004000000000000000000000400000000000000040000000000000000000000000000004000008000000000000000000000008000000000000000010200000000005003000000000000000100200000000000000000000000",
      "type": "0x2",
      "transactionHash": "0xabb3269dfac365fa8290845d43f6f8b0c95fb441ea93c4a529bc76f42b8933e5",
      "transactionIndex": "0x3d",
      "blockHash": "0x68d3bc710b0037b83583697d60169eb4438fa4d54ac28299a2a3e3a3be559bcd",
      "blockNumber": "0x58912a",
      "gasUsed": "0x1c72e",
      "effectiveGasPrice": "0x4c4f9fdb",
      "from": "0x699bceebd59a5b52bb586c737cd7ba636f3fe602",
      "to": "0x23dd1aa37b5c81d64586c021330d61d3ad55aafb",
      "contractAddress": null
    }
  ],
  "libraries": [],
  "pending": [],
  "returns": {},
  "timestamp": 1714419545,
  "chain": 11155111,
  "commit": "9546700"
}