{
  "transactions": [
    {
      "hash": "0x24dbde298175461f61dbdced11cb051c4b7a9f97cc3039b16b7dd62ffa9dba41",
      "transactionType": "CALL",
      "contractName": null,
      "contractAddress": "0x371862509e523e8fb89eb8911254c14c882fca96",
      "function": "postMessage((address,uint256,uint256)[])",
      "arguments": [
        "[(0x699BceEbD59a5b52bB586C737cD7ba636f3Fe602, 80002, 100000000000000000)]"
      ],
      "transaction": {
        "from": "0x699bceebd59a5b52bb586c737cd7ba636f3fe602",
        "to": "0x371862509e523e8fb89eb8911254c14c882fca96",
        "gas": "0x301bc",
        "value": "0x16345785d8a0000",
        "input": "0x42cbee8d00000000000000000000000000000000000000000000000000000000000000200000000000000000000000000000000000000000000000000000000000000001000000000000000000000000699bceebd59a5b52bb586c737cd7ba636f3fe6020000000000000000000000000000000000000000000000000000000000013882000000000000000000000000000000000000000000000000016345785d8a0000",
        "nonce": "0x118",
        "chainId": "0xaa36a7",
        "accessList": null,
        "type": null
      },
      "additionalContracts": [],
      "isFixedGasLimit": false
    }
  ],
  "receipts": [
    {
      "status": "0x1",
      "cumulativeGasUsed": "0x78ddd2",
      "logs": [
        {
          "address": "0x371862509e523e8fb89eb8911254c14c882fca96",
          "topics": [
            "0x9853b992610853aa2f058d95d0a4868ffcd37470b93a5e6634619467e0d4228c",
            "0xfd80093439eb1e2b2b4b58a8fca029a1a8a52bcb5d93b654ffc55e63e97deb24",
            "0x000000000000000000000000699bceebd59a5b52bb586c737cd7ba636f3fe602",
            "0x000000000000000000000000000000000000000000000000016345785d8a0000"
          ],
          "data": "0x00000000000000000000000000000000000000000000000000000000662ba52c000000000000000000000000699bceebd59a5b52bb586c737cd7ba636f3fe60200000000000000000000000000000000000000000000000000000000000138820000000000000000000000000000000000000000000000a2a15d09519be000000000000000000000000000000000000000000000000000000de0b6b3a7640000",
          "blockHash": "0xf4a8ed9a48931116747cd55b7a94d2fedd8e17aff414b49a1d13796e08ce9cdf",
          "blockNumber": "0x5838e1",
          "transactionHash": "0x24dbde298175461f61dbdced11cb051c4b7a9f97cc3039b16b7dd62ffa9dba41",
          "transactionIndex": "0x39",
          "logIndex": "0x66",
          "removed": false
        }
      ],
      "logsBloom": "0x00000040000000000000000000000000000000000000000000400000000000000000000000000000000000000000000000000000000000000000000000020000000000000000000000000000000000000000000002000000000000000000000000800004008002000000000000000000000000008000000000000000000000000000000004000000000000000000000000000000000000000000000000000000000000001000000000000000000000000000000000000000000000000000000000000000000000000000000000008000000000000000000000000000000000000000000000000000001000000000004000000100000000000000000000000000",
      "type": "0x2",
      "transactionHash": "0x24dbde298175461f61dbdced11cb051c4b7a9f97cc3039b16b7dd62ffa9dba41",
      "transactionIndex": "0x39",
      "blockHash": "0xf4a8ed9a48931116747cd55b7a94d2fedd8e17aff414b49a1d13796e08ce9cdf",
      "blockNumber": "0x5838e1",
      "gasUsed": "0x22d47",
      "effectiveGasPrice": "0x59ece41e",
      "from": "0x699bceebd59a5b52bb586c737cd7ba636f3fe602",
      "to": "0x371862509e523e8fb89eb8911254c14c882fca96",
      "contractAddress": null
    }
  ],
  "libraries": [],
  "pending": [],
  "returns": {},
  "timestamp": 1714136366,
  "chain": 11155111,
  "commit": "d8ddccd"
}