{
  "transactions": [
    {
      "hash": "0xc6d16a4b30ff90ccb62a2ce75eb7ce59d87ec241972bf269f48de28e271d687e",
      "transactionType": "CALL",
      "contractName": null,
      "contractAddress": "0x23dd1aa37b5c81d64586c021330d61d3ad55aafb",
      "function": "postMessage((address,uint256,uint256)[])",
      "arguments": [
        "[(0x699BceEbD59a5b52bB586C737cD7ba636f3Fe602, 80002, 11100000000000000), (0x699BceEbD59a5b52bB586C737cD7ba636f3Fe602, 80002, 11200000000000000), (0x699BceEbD59a5b52bB586C737cD7ba636f3Fe602, 80002, 11300000000000000), (0x699BceEbD59a5b52bB586C737cD7ba636f3Fe602, 80002, 11400000000000000), (0x699BceEbD59a5b52bB586C737cD7ba636f3Fe602, 80002, 11500000000000000)]"
      ],
      "transaction": {
        "from": "0x699bceebd59a5b52bb586c737cd7ba636f3fe602",
        "to": "0x23dd1aa37b5c81d64586c021330d61d3ad55aafb",
        "gas": "0x274b6",
        "value": "0xd529ae9e860000",
        "input": "0x42cbee8d00000000000000000000000000000000000000000000000000000000000000200000000000000000000000000000000000000000000000000000000000000005000000000000000000000000699bceebd59a5b52bb586c737cd7ba636f3fe602000000000000000000000000000000000000000000000000000000000001388200000000000000000000000000000000000000000000000000276f642501c000000000000000000000000000699bceebd59a5b52bb586c737cd7ba636f3fe60200000000000000000000000000000000000000000000000000000000000138820000000000000000000000000000000000000000000000000027ca57357c0000000000000000000000000000699bceebd59a5b52bb586c737cd7ba636f3fe60200000000000000000000000000000000000000000000000000000000000138820000000000000000000000000000000000000000000000000028254a45f64000000000000000000000000000699bceebd59a5b52bb586c737cd7ba636f3fe60200000000000000000000000000000000000000000000000000000000000138820000000000000000000000000000000000000000000000000028803d56708000000000000000000000000000699bceebd59a5b52bb586c737cd7ba636f3fe60200000000000000000000000000000000000000000000000000000000000138820000000000000000000000000000000000000000000000000028db3066eac000",
        "nonce": "0x154",
        "chainId": "0xaa36a7",
        "accessList": null,
        "type": null
      },
      "additionalContracts": [],
      "isFixedGasLimit": false
    }
  ],
  "receipts": [
    {
      "status": "0x1",
      "cumulativeGasUsed": "0x4c0f04",
      "logs": [
        {
          "address": "0x23dd1aa37b5c81d64586c021330d61d3ad55aafb",
          "topics": [
            "0x9853b992610853aa2f058d95d0a4868ffcd37470b93a5e6634619467e0d4228c",
            "0xb1db87b03c43349a497b8fa4f859a1ecd9acdf26c6be8222af8965ff0709093f",
            "0x000000000000000000000000699bceebd59a5b52bb586c737cd7ba636f3fe602",
            "0x00000000000000000000000000000000000000000000000000276f642501c000"
          ],
          "data": "0x00000000000000000000000000000000000000000000000000000000662e2fd8000000000000000000000000699bceebd59a5b52bb586c737cd7ba636f3fe60200000000000000000000000000000000000000000000000000000000000138820000000000000000000000000000000000000000000000a2a15d09519be000000000000000000000000000000000000000000000000000000de0b6b3a7640000",
          "blockHash": "0x30f951bf636ce24f0dc2a6c0488f68dbf67845639ae8ceb99d3423b561d7b093",
          "blockNumber": "0x586d89",
          "transactionHash": "0xc6d16a4b30ff90ccb62a2ce75eb7ce59d87ec241972bf269f48de28e271d687e",
          "transactionIndex": "0x21",
          "logIndex": "0x60",
          "removed": false
        },
        {
          "address": "0x23dd1aa37b5c81d64586c021330d61d3ad55aafb",
          "topics": [
            "0x9853b992610853aa2f058d95d0a4868ffcd37470b93a5e6634619467e0d4228c",
            "0x1d57240acbdea05212e34d0453dfc2167e19bda097b57d854ec55025165fa596",
            "0x000000000000000000000000699bceebd59a5b52bb586c737cd7ba636f3fe602",
            "0x0000000000000000000000000000000000000000000000000027ca57357c0000"
          ],
          "data": "0x00000000000000000000000000000000000000000000000000000000662e2fd8000000000000000000000000699bceebd59a5b52bb586c737cd7ba636f3fe60200000000000000000000000000000000000000000000000000000000000138820000000000000000000000000000000000000000000000a2a15d09519be000000000000000000000000000000000000000000000000000000de0b6b3a7640000",
          "blockHash": "0x30f951bf636ce24f0dc2a6c0488f68dbf67845639ae8ceb99d3423b561d7b093",
          "blockNumber": "0x586d89",
          "transactionHash": "0xc6d16a4b30ff90ccb62a2ce75eb7ce59d87ec241972bf269f48de28e271d687e",
          "transactionIndex": "0x21",
          "logIndex": "0x61",
          "removed": false
        },
        {
          "address": "0x23dd1aa37b5c81d64586c021330d61d3ad55aafb",
          "topics": [
            "0x9853b992610853aa2f058d95d0a4868ffcd37470b93a5e6634619467e0d4228c",
            "0x4733bdc69f1189ff33b80bb2a440ab6997d99d62f51e708ee25be61fc64f2ebb",
            "0x000000000000000000000000699bceebd59a5b52bb586c737cd7ba636f3fe602",
            "0x0000000000000000000000000000000000000000000000000028254a45f64000"
          ],
          "data": "0x00000000000000000000000000000000000000000000000000000000662e2fd8000000000000000000000000699bceebd59a5b52bb586c737cd7ba636f3fe60200000000000000000000000000000000000000000000000000000000000138820000000000000000000000000000000000000000000000a2a15d09519be000000000000000000000000000000000000000000000000000000de0b6b3a7640000",
          "blockHash": "0x30f951bf636ce24f0dc2a6c0488f68dbf67845639ae8ceb99d3423b561d7b093",
          "blockNumber": "0x586d89",
          "transactionHash": "0xc6d16a4b30ff90ccb62a2ce75eb7ce59d87ec241972bf269f48de28e271d687e",
          "transactionIndex": "0x21",
          "logIndex": "0x62",
          "removed": false
        },
        {
          "address": "0x23dd1aa37b5c81d64586c021330d61d3ad55aafb",
          "topics": [
            "0x9853b992610853aa2f058d95d0a4868ffcd37470b93a5e6634619467e0d4228c",
            "0x469bf7d6647128bfdf597aa16a214771e218621e0d43d6d2e853207ffa9ecc8a",
            "0x000000000000000000000000699bceebd59a5b52bb586c737cd7ba636f3fe602",
            "0x0000000000000000000000000000000000000000000000000028803d56708000"
          ],
          "data": "0x00000000000000000000000000000000000000000000000000000000662e2fd8000000000000000000000000699bceebd59a5b52bb586c737cd7ba636f3fe60200000000000000000000000000000000000000000000000000000000000138820000000000000000000000000000000000000000000000a2a15d09519be000000000000000000000000000000000000000000000000000000de0b6b3a7640000",
          "blockHash": "0x30f951bf636ce24f0dc2a6c0488f68dbf67845639ae8ceb99d3423b561d7b093",
          "blockNumber": "0x586d89",
          "transactionHash": "0xc6d16a4b30ff90ccb62a2ce75eb7ce59d87ec241972bf269f48de28e271d687e",
          "transactionIndex": "0x21",
          "logIndex": "0x63",
          "removed": false
        },
        {
          "address": "0x23dd1aa37b5c81d64586c021330d61d3ad55aafb",
          "topics": [
            "0x9853b992610853aa2f058d95d0a4868ffcd37470b93a5e6634619467e0d4228c",
            "0xf5c40126b64474dc094ab1e1780aec89f17ae87191395927a97506f3e3e3bb4e",
            "0x000000000000000000000000699bceebd59a5b52bb586c737cd7ba636f3fe602",
            "0x0000000000000000000000000000000000000000000000000028db3066eac000"
          ],
          "data": "0x00000000000000000000000000000000000000000000000000000000662e2fd8000000000000000000000000699bceebd59a5b52bb586c737cd7ba636f3fe60200000000000000000000000000000000000000000000000000000000000138820000000000000000000000000000000000000000000000a2a15d09519be000000000000000000000000000000000000000000000000000000de0b6b3a7640000",
          "blockHash": "0x30f951bf636ce24f0dc2a6c0488f68dbf67845639ae8ceb99d3423b561d7b093",
          "blockNumber": "0x586d89",
          "transactionHash": "0xc6d16a4b30ff90ccb62a2ce75eb7ce59d87ec241972bf269f48de28e271d687e",
          "transactionIndex": "0x21",
          "logIndex": "0x64",
          "removed": false
        }
      ],
      "logsBloom": "0x00000000000000000000000000000000200000000000000000400000000020000010400000000010000000800000403000000000000000000000000000000000010000000000000000000000000000000011000000000000000000000040000000880000000000008000000400000000000000008000000000000000000000000000000000000000200000000210020000000000000000000000000000000000000000000000000004200000000000000000000000000000040100040000000000000000000000000000004000008010000000000000000000000000000000000000010200200000005001000000000000000100200000000000000000000000",
      "type": "0x2",
      "transactionHash": "0xc6d16a4b30ff90ccb62a2ce75eb7ce59d87ec241972bf269f48de28e271d687e",
      "transactionIndex": "0x21",
      "blockHash": "0x30f951bf636ce24f0dc2a6c0488f68dbf67845639ae8ceb99d3423b561d7b093",
      "blockNumber": "0x586d89",
      "gasUsed": "0x1c72e",
      "effectiveGasPrice": "0x7ee974d7",
      "from": "0x699bceebd59a5b52bb586c737cd7ba636f3fe602",
      "to": "0x23dd1aa37b5c81d64586c021330d61d3ad55aafb",
      "contractAddress": null
    }
  ],
  "libraries": [],
  "pending": [],
  "returns": {},
  "timestamp": 1714302943,
  "chain": 11155111,
  "commit": "9546700"
}