{
  "transactions": [
    {
      "hash": "0x78cf94968a38372ee7a1b144a45d8387e85c5b3ecf4152b2effff0b0a1e84edd",
      "transactionType": "CALL",
      "contractName": null,
      "contractAddress": "0x23dd1aa37b5c81d64586c021330d61d3ad55aafb",
      "function": "postMessage((address,uint256,uint256)[])",
      "arguments": [
        "[(0x699BceEbD59a5b52bB586C737cD7ba636f3Fe602, 80002, 11100000000000000), (0x699BceEbD59a5b52bB586C737cD7ba636f3Fe602, 80002, 11200000000000000), (0x699BceEbD59a5b52bB586C737cD7ba636f3Fe602, 80002, 11300000000000000), (0x699BceEbD59a5b52bB586C737cD7ba636f3Fe602, 80002, 11400000000000000), (0x699BceEbD59a5b52bB586C737cD7ba636f3Fe602, 80002, 11500000000000000), (0x699BceEbD59a5b52bB586C737cD7ba636f3Fe602, 80002, 11600000000000000), (0x699BceEbD59a5b52bB586C737cD7ba636f3Fe602, 80002, 11700000000000000), (0x699BceEbD59a5b52bB586C737cD7ba636f3Fe602, 80002, 11800000000000000), (0x699BceEbD59a5b52bB586C737cD7ba636f3Fe602, 80002, 11900000000000000), (0x699BceEbD59a5b52bB586C737cD7ba636f3Fe602, 80002, 12000000000000000)]"
      ],
      "transaction": {
        "from": "0x699bceebd59a5b52bb586c737cd7ba636f3fe602",
        "to": "0x23dd1aa37b5c81d64586c021330d61d3ad55aafb",
        "gas": "0x36c5c",
        "value": "0x2c68af0bb140000",
        "input": "0x42cbee8d0000000000000000000000000000000000000000000000000000000000000020000000000000000000000000000000000000000000000000000000000000000a000000000000000000000000699bceebd59a5b52bb586c737cd7ba636f3fe602000000000000000000000000000000000000000000000000000000000001388200000000000000000000000000000000000000000000000000276f642501c000000000000000000000000000699bceebd59a5b52bb586c737cd7ba636f3fe60200000000000000000000000000000000000000000000000000000000000138820000000000000000000000000000000000000000000000000027ca57357c0000000000000000000000000000699bceebd59a5b52bb586c737cd7ba636f3fe60200000000000000000000000000000000000000000000000000000000000138820000000000000000000000000000000000000000000000000028254a45f64000000000000000000000000000699bceebd59a5b52bb586c737cd7ba636f3fe60200000000000000000000000000000000000000000000000000000000000138820000000000000000000000000000000000000000000000000028803d56708000000000000000000000000000699bceebd59a5b52bb586c737cd7ba636f3fe60200000000000000000000000000000000000000000000000000000000000138820000000000000000000000000000000000000000000000000028db3066eac000000000000000000000000000699bceebd59a5b52bb586c737cd7ba636f3fe60200000000000000000000000000000000000000000000000000000000000138820000000000000000000000000000000000000000000000000029362377650000000000000000000000000000699bceebd59a5b52bb586c737cd7ba636f3fe60200000000000000000000000000000000000000000000000000000000000138820000000000000000000000000000000000000000000000000029911687df4000000000000000000000000000699bceebd59a5b52bb586c737cd7ba636f3fe60200000000000000000000000000000000000000000000000000000000000138820000000000000000000000000000000000000000000000000029ec0998598000000000000000000000000000699bceebd59a5b52bb586c737cd7ba636f3fe6020000000000000000000000000000000000000000000000000000000000013882000000000000000000000000000000000000000000000000002a46fca8d3c000000000000000000000000000699bceebd59a5b52bb586c737cd7ba636f3fe6020000000000000000000000000000000000000000000000000000000000013882000000000000000000000000000000000000000000000000002aa1efb94e0000",
        "nonce": "0x199",
        "chainId": "0xaa36a7",
        "accessList": null,
        "type": null
      },
      "additionalContracts": [],
      "isFixedGasLimit": false
    }
  ],
  "receipts": [
    {
      "status": "0x1",
      "cumulativeGasUsed": "0x140804a",
      "logs": [
        {
          "address": "0x23dd1aa37b5c81d64586c021330d61d3ad55aafb",
          "topics": [
            "0x9853b992610853aa2f058d95d0a4868ffcd37470b93a5e6634619467e0d4228c",
            "0x75ccc5fefaf8eb34fdc0961b8db40e4ae727ce7c7b0d48109f4490c38a3c18a6",
            "0x000000000000000000000000699bceebd59a5b52bb586c737cd7ba636f3fe602",
            "0x00000000000000000000000000000000000000000000000000276f642501c000"
          ],
          "data": "0x0000000000000000000000000000000000000000000000000000000066307818000000000000000000000000699bceebd59a5b52bb586c737cd7ba636f3fe60200000000000000000000000000000000000000000000000000000000000138820000000000000000000000000000000000000000000000a2a15d09519be000000000000000000000000000000000000000000000000000000de0b6b3a7640000",
          "blockHash": "0xa4d2005bb37647efe4a34aeb71a4100618bee184b38b2d4f1a3dfa5e4a31be5d",
          "blockNumber": "0x589a68",
          "transactionHash": "0x78cf94968a38372ee7a1b144a45d8387e85c5b3ecf4152b2effff0b0a1e84edd",
          "transactionIndex": "0x9d",
          "logIndex": "0x132",
          "removed": false
        },
        {
          "address": "0x23dd1aa37b5c81d64586c021330d61d3ad55aafb",
          "topics": [
            "0x9853b992610853aa2f058d95d0a4868ffcd37470b93a5e6634619467e0d4228c",
            "0x848621c05901abd66a3302aec07168e80317c1407594fc6604af077dac8c5e8f",
            "0x000000000000000000000000699bceebd59a5b52bb586c737cd7ba636f3fe602",
            "0x0000000000000000000000000000000000000000000000000027ca57357c0000"
          ],
          "data": "0x0000000000000000000000000000000000000000000000000000000066307818000000000000000000000000699bceebd59a5b52bb586c737cd7ba636f3fe60200000000000000000000000000000000000000000000000000000000000138820000000000000000000000000000000000000000000000a2a15d09519be000000000000000000000000000000000000000000000000000000de0b6b3a7640000",
          "blockHash": "0xa4d2005bb37647efe4a34aeb71a4100618bee184b38b2d4f1a3dfa5e4a31be5d",
          "blockNumber": "0x589a68",
          "transactionHash": "0x78cf94968a38372ee7a1b144a45d8387e85c5b3ecf4152b2effff0b0a1e84edd",
          "transactionIndex": "0x9d",
          "logIndex": "0x133",
          "removed": false
        },
        {
          "address": "0x23dd1aa37b5c81d64586c021330d61d3ad55aafb",
          "topics": [
            "0x9853b992610853aa2f058d95d0a4868ffcd37470b93a5e6634619467e0d4228c",
            "0x5c4d06870aa7818cd732c766604656d7b3608b4b11733f2fd37049029aa47e7f",
            "0x000000000000000000000000699bceebd59a5b52bb586c737cd7ba636f3fe602",
            "0x0000000000000000000000000000000000000000000000000028254a45f64000"
          ],
          "data": "0x0000000000000000000000000000000000000000000000000000000066307818000000000000000000000000699bceebd59a5b52bb586c737cd7ba636f3fe60200000000000000000000000000000000000000000000000000000000000138820000000000000000000000000000000000000000000000a2a15d09519be000000000000000000000000000000000000000000000000000000de0b6b3a7640000",
          "blockHash": "0xa4d2005bb37647efe4a34aeb71a4100618bee184b38b2d4f1a3dfa5e4a31be5d",
          "blockNumber": "0x589a68",
          "transactionHash": "0x78cf94968a38372ee7a1b144a45d8387e85c5b3ecf4152b2effff0b0a1e84edd",
          "transactionIndex": "0x9d",
          "logIndex": "0x134",
          "removed": false
        },
        {
          "address": "0x23dd1aa37b5c81d64586c021330d61d3ad55aafb",
          "topics": [
            "0x9853b992610853aa2f058d95d0a4868ffcd37470b93a5e6634619467e0d4228c",
            "0xf6730f27e34e347e6cb7da31a0275a90ada359961d2f1c28d64348fbe9beb974",
            "0x000000000000000000000000699bceebd59a5b52bb586c737cd7ba636f3fe602",
            "0x0000000000000000000000000000000000000000000000000028803d56708000"
          ],
          "data": "0x0000000000000000000000000000000000000000000000000000000066307818000000000000000000000000699bceebd59a5b52bb586c737cd7ba636f3fe60200000000000000000000000000000000000000000000000000000000000138820000000000000000000000000000000000000000000000a2a15d09519be000000000000000000000000000000000000000000000000000000de0b6b3a7640000",
          "blockHash": "0xa4d2005bb37647efe4a34aeb71a4100618bee184b38b2d4f1a3dfa5e4a31be5d",
          "blockNumber": "0x589a68",
          "transactionHash": "0x78cf94968a38372ee7a1b144a45d8387e85c5b3ecf4152b2effff0b0a1e84edd",
          "transactionIndex": "0x9d",
          "logIndex": "0x135",
          "removed": false
        },
        {
          "address": "0x23dd1aa37b5c81d64586c021330d61d3ad55aafb",
          "topics": [
            "0x9853b992610853aa2f058d95d0a4868ffcd37470b93a5e6634619467e0d4228c",
            "0xb348cb6609628789326c811eee32c21e6005136a516c046730bdc36df6ecb79e",
            "0x000000000000000000000000699bceebd59a5b52bb586c737cd7ba636f3fe602",
            "0x0000000000000000000000000000000000000000000000000028db3066eac000"
          ],
          "data": "0x0000000000000000000000000000000000000000000000000000000066307818000000000000000000000000699bceebd59a5b52bb586c737cd7ba636f3fe60200000000000000000000000000000000000000000000000000000000000138820000000000000000000000000000000000000000000000a2a15d09519be000000000000000000000000000000000000000000000000000000de0b6b3a7640000",
          "blockHash": "0xa4d2005bb37647efe4a34aeb71a4100618bee184b38b2d4f1a3dfa5e4a31be5d",
          "blockNumber": "0x589a68",
          "transactionHash": "0x78cf94968a38372ee7a1b144a45d8387e85c5b3ecf4152b2effff0b0a1e84edd",
          "transactionIndex": "0x9d",
          "logIndex": "0x136",
          "removed": false
        },
        {
          "address": "0x23dd1aa37b5c81d64586c021330d61d3ad55aafb",
          "topics": [
            "0x9853b992610853aa2f058d95d0a4868ffcd37470b93a5e6634619467e0d4228c",
            "0xf9441b61bd0df07a3c897f415db68ac63618fe9eb188f57f47a5a07ca578d20e",
            "0x000000000000000000000000699bceebd59a5b52bb586c737cd7ba636f3fe602",
            "0x0000000000000000000000000000000000000000000000000029362377650000"
          ],
          "data": "0x0000000000000000000000000000000000000000000000000000000066307818000000000000000000000000699bceebd59a5b52bb586c737cd7ba636f3fe60200000000000000000000000000000000000000000000000000000000000138820000000000000000000000000000000000000000000000a2a15d09519be000000000000000000000000000000000000000000000000000000de0b6b3a7640000",
          "blockHash": "0xa4d2005bb37647efe4a34aeb71a4100618bee184b38b2d4f1a3dfa5e4a31be5d",
          "blockNumber": "0x589a68",
          "transactionHash": "0x78cf94968a38372ee7a1b144a45d8387e85c5b3ecf4152b2effff0b0a1e84edd",
          "transactionIndex": "0x9d",
          "logIndex": "0x137",
          "removed": false
        },
        {
          "address": "0x23dd1aa37b5c81d64586c021330d61d3ad55aafb",
          "topics": [
            "0x9853b992610853aa2f058d95d0a4868ffcd37470b93a5e6634619467e0d4228c",
            "0x9e3010a8df3cc070cdce7b46e33edaf044d8ca61bafb297ed08b435b3f2449f2",
            "0x000000000000000000000000699bceebd59a5b52bb586c737cd7ba636f3fe602",
            "0x0000000000000000000000000000000000000000000000000029911687df4000"
          ],
          "data": "0x0000000000000000000000000000000000000000000000000000000066307818000000000000000000000000699bceebd59a5b52bb586c737cd7ba636f3fe60200000000000000000000000000000000000000000000000000000000000138820000000000000000000000000000000000000000000000a2a15d09519be000000000000000000000000000000000000000000000000000000de0b6b3a7640000",
          "blockHash": "0xa4d2005bb37647efe4a34aeb71a4100618bee184b38b2d4f1a3dfa5e4a31be5d",
          "blockNumber": "0x589a68",
          "transactionHash": "0x78cf94968a38372ee7a1b144a45d8387e85c5b3ecf4152b2effff0b0a1e84edd",
          "transactionIndex": "0x9d",
          "logIndex": "0x138",
          "removed": false
        },
        {
          "address": "0x23dd1aa37b5c81d64586c021330d61d3ad55aafb",
          "topics": [
            "0x9853b992610853aa2f058d95d0a4868ffcd37470b93a5e6634619467e0d4228c",
            "0x909eaa06a74d6b7c6b258a91070cc612fa415a8def784eac68f2e47adf580fa7",
            "0x000000000000000000000000699bceebd59a5b52bb586c737cd7ba636f3fe602",
            "0x0000000000000000000000000000000000000000000000000029ec0998598000"
          ],
          "data": "0x0000000000000000000000000000000000000000000000000000000066307818000000000000000000000000699bceebd59a5b52bb586c737cd7ba636f3fe60200000000000000000000000000000000000000000000000000000000000138820000000000000000000000000000000000000000000000a2a15d09519be000000000000000000000000000000000000000000000000000000de0b6b3a7640000",
          "blockHash": "0xa4d2005bb37647efe4a34aeb71a4100618bee184b38b2d4f1a3dfa5e4a31be5d",
          "blockNumber": "0x589a68",
          "transactionHash": "0x78cf94968a38372ee7a1b144a45d8387e85c5b3ecf4152b2effff0b0a1e84edd",
          "transactionIndex": "0x9d",
          "logIndex": "0x139",
          "removed": false
        },
        {
          "address": "0x23dd1aa37b5c81d64586c021330d61d3ad55aafb",
          "topics": [
            "0x9853b992610853aa2f058d95d0a4868ffcd37470b93a5e6634619467e0d4228c",
            "0x4a62b3e8bbb9ed00e2971705df43423428c200c49e6b3d4bdd267db7146d1d2b",
            "0x000000000000000000000000699bceebd59a5b52bb586c737cd7ba636f3fe602",
            "0x000000000000000000000000000000000000000000000000002a46fca8d3c000"
          ],
          "data": "0x0000000000000000000000000000000000000000000000000000000066307818000000000000000000000000699bceebd59a5b52bb586c737cd7ba636f3fe60200000000000000000000000000000000000000000000000000000000000138820000000000000000000000000000000000000000000000a2a15d09519be000000000000000000000000000000000000000000000000000000de0b6b3a7640000",
          "blockHash": "0xa4d2005bb37647efe4a34aeb71a4100618bee184b38b2d4f1a3dfa5e4a31be5d",
          "blockNumber": "0x589a68",
          "transactionHash": "0x78cf94968a38372ee7a1b144a45d8387e85c5b3ecf4152b2effff0b0a1e84edd",
          "transactionIndex": "0x9d",
          "logIndex": "0x13a",
          "removed": false
        },
        {
          "address": "0x23dd1aa37b5c81d64586c021330d61d3ad55aafb",
          "topics": [
            "0x9853b992610853aa2f058d95d0a4868ffcd37470b93a5e6634619467e0d4228c",
            "0xa0d29c048bf5bc0eab689f66f7a668d8a50c3b566239859f5c9c92367abbec1e",
            "0x000000000000000000000000699bceebd59a5b52bb586c737cd7ba636f3fe602",
            "0x000000000000000000000000000000000000000000000000002aa1efb94e0000"
          ],
          "data": "0x0000000000000000000000000000000000000000000000000000000066307818000000000000000000000000699bceebd59a5b52bb586c737cd7ba636f3fe60200000000000000000000000000000000000000000000000000000000000138820000000000000000000000000000000000000000000000a2a15d09519be000000000000000000000000000000000000000000000000000000de0b6b3a7640000",
          "blockHash": "0xa4d2005bb37647efe4a34aeb71a4100618bee184b38b2d4f1a3dfa5e4a31be5d",
          "blockNumber": "0x589a68",
          "transactionHash": "0x78cf94968a38372ee7a1b144a45d8387e85c5b3ecf4152b2effff0b0a1e84edd",
          "transactionIndex": "0x9d",
          "logIndex": "0x13b",
          "removed": false
        }
      ],
      "logsBloom": "0x100000000000c00020000000001000002000000000000002004000000000000000204000100000100000c0800010001000000000000000000000000000000000010000000000000000000000000220000040000000000000000100410000000000800000000200000000000400000000001800008004000000008000400004004001000000200000000000010252020000000004000000000000000000080000000000000000000004818000000000000000000080000000400080040000000000000000000000000000004010008000000000000020080000010000000000000020010200000000005001000000000000000100200000000010000000000000",
      "type": "0x2",
      "transactionHash": "0x78cf94968a38372ee7a1b144a45d8387e85c5b3ecf4152b2effff0b0a1e84edd",
      "transactionIndex": "0x9d",
      "blockHash": "0xa4d2005bb37647efe4a34aeb71a4100618bee184b38b2d4f1a3dfa5e4a31be5d",
      "blockNumber": "0x589a68",
      "gasUsed": "0x25739",
      "effectiveGasPrice": "0x87dbcf6d",
      "from": "0x699bceebd59a5b52bb586c737cd7ba636f3fe602",
      "to": "0x23dd1aa37b5c81d64586c021330d61d3ad55aafb",
      "contractAddress": null
    }
  ],
  "libraries": [],
  "pending": [],
  "returns": {},
  "timestamp": 1714452508,
  "chain": 11155111,
  "commit": "9546700"
}