{
  "transactions": [
    {
      "hash": "0x393c9e19295b19b0f8552b5c8d3bd540884d66be4858c9e42275e5ed9f419574",
      "transactionType": "CALL",
      "contractName": null,
      "contractAddress": "0x23dd1aa37b5c81d64586c021330d61d3ad55aafb",
      "function": "postMessage((address,uint256,uint256)[])",
      "arguments": [
        "[(0x699BceEbD59a5b52bB586C737cD7ba636f3Fe602, 80002, 11100000000000000), (0x699BceEbD59a5b52bB586C737cD7ba636f3Fe602, 80002, 11200000000000000), (0x699BceEbD59a5b52bB586C737cD7ba636f3Fe602, 80002, 11300000000000000), (0x699BceEbD59a5b52bB586C737cD7ba636f3Fe602, 80002, 11400000000000000), (0x699BceEbD59a5b52bB586C737cD7ba636f3Fe602, 80002, 11500000000000000)]"
      ],
      "transaction": {
        "from": "0x699bceebd59a5b52bb586c737cd7ba636f3fe602",
        "to": "0x23dd1aa37b5c81d64586c021330d61d3ad55aafb",
        "gas": "0x274b6",
        "value": "0xd529ae9e860000",
        "input": "0x42cbee8d00000000000000000000000000000000000000000000000000000000000000200000000000000000000000000000000000000000000000000000000000000005000000000000000000000000699bceebd59a5b52bb586c737cd7ba636f3fe602000000000000000000000000000000000000000000000000000000000001388200000000000000000000000000000000000000000000000000276f642501c000000000000000000000000000699bceebd59a5b52bb586c737cd7ba636f3fe60200000000000000000000000000000000000000000000000000000000000138820000000000000000000000000000000000000000000000000027ca57357c0000000000000000000000000000699bceebd59a5b52bb586c737cd7ba636f3fe60200000000000000000000000000000000000000000000000000000000000138820000000000000000000000000000000000000000000000000028254a45f64000000000000000000000000000699bceebd59a5b52bb586c737cd7ba636f3fe60200000000000000000000000000000000000000000000000000000000000138820000000000000000000000000000000000000000000000000028803d56708000000000000000000000000000699bceebd59a5b52bb586c737cd7ba636f3fe60200000000000000000000000000000000000000000000000000000000000138820000000000000000000000000000000000000000000000000028db3066eac000",
        "nonce": "0x15e",
        "chainId": "0xaa36a7",
        "accessList": null,
        "type": null
      },
      "additionalContracts": [],
      "isFixedGasLimit": false
    }
  ],
  "receipts": [
    {
      "status": "0x1",
      "cumulativeGasUsed": "0x1b2f947",
      "logs": [
        {
          "address": "0x23dd1aa37b5c81d64586c021330d61d3ad55aafb",
          "topics": [
            "0x9853b992610853aa2f058d95d0a4868ffcd37470b93a5e6634619467e0d4228c",
            "0x84c9edb271a6e5f52b369409de0b7689b632e1090f63798c6b9bafdce90ef2bc",
            "0x000000000000000000000000699bceebd59a5b52bb586c737cd7ba636f3fe602",
            "0x00000000000000000000000000000000000000000000000000276f642501c000"
          ],
          "data": "0x00000000000000000000000000000000000000000000000000000000662e6434000000000000000000000000699bceebd59a5b52bb586c737cd7ba636f3fe60200000000000000000000000000000000000000000000000000000000000138820000000000000000000000000000000000000000000000a2a15d09519be000000000000000000000000000000000000000000000000000000de0b6b3a7640000",
          "blockHash": "0x747676cd9af4d8492c5a0b1428af1c55065714642a7a29575fff61c1018e8327",
          "blockNumber": "0x5871c8",
          "transactionHash": "0x393c9e19295b19b0f8552b5c8d3bd540884d66be4858c9e42275e5ed9f419574",
          "transactionIndex": "0x8a",
          "logIndex": "0x164",
          "removed": false
        },
        {
          "address": "0x23dd1aa37b5c81d64586c021330d61d3ad55aafb",
          "topics": [
            "0x9853b992610853aa2f058d95d0a4868ffcd37470b93a5e6634619467e0d4228c",
            "0xab3f3ec5d14b7bc1d86c2da7a11d5ac603d1f092af8613807e7b6479ec59d9e8",
            "0x000000000000000000000000699bceebd59a5b52bb586c737cd7ba636f3fe602",
            "0x0000000000000000000000000000000000000000000000000027ca57357c0000"
          ],
          "data": "0x00000000000000000000000000000000000000000000000000000000662e6434000000000000000000000000699bceebd59a5b52bb586c737cd7ba636f3fe60200000000000000000000000000000000000000000000000000000000000138820000000000000000000000000000000000000000000000a2a15d09519be000000000000000000000000000000000000000000000000000000de0b6b3a7640000",
          "blockHash": "0x747676cd9af4d8492c5a0b1428af1c55065714642a7a29575fff61c1018e8327",
          "blockNumber": "0x5871c8",
          "transactionHash": "0x393c9e19295b19b0f8552b5c8d3bd540884d66be4858c9e42275e5ed9f419574",
          "transactionIndex": "0x8a",
          "logIndex": "0x165",
          "removed": false
        },
        {
          "address": "0x23dd1aa37b5c81d64586c021330d61d3ad55aafb",
          "topics": [
            "0x9853b992610853aa2f058d95d0a4868ffcd37470b93a5e6634619467e0d4228c",
            "0xb3dc4f101368e74a4da1e4a0aeded8ade9d48fa0ffc211f1cf5504b01fdaa5ab",
            "0x000000000000000000000000699bceebd59a5b52bb586c737cd7ba636f3fe602",
            "0x0000000000000000000000000000000000000000000000000028254a45f64000"
          ],
          "data": "0x00000000000000000000000000000000000000000000000000000000662e6434000000000000000000000000699bceebd59a5b52bb586c737cd7ba636f3fe60200000000000000000000000000000000000000000000000000000000000138820000000000000000000000000000000000000000000000a2a15d09519be000000000000000000000000000000000000000000000000000000de0b6b3a7640000",
          "blockHash": "0x747676cd9af4d8492c5a0b1428af1c55065714642a7a29575fff61c1018e8327",
          "blockNumber": "0x5871c8",
          "transactionHash": "0x393c9e19295b19b0f8552b5c8d3bd540884d66be4858c9e42275e5ed9f419574",
          "transactionIndex": "0x8a",
          "logIndex": "0x166",
          "removed": false
        },
        {
          "address": "0x23dd1aa37b5c81d64586c021330d61d3ad55aafb",
          "topics": [
            "0x9853b992610853aa2f058d95d0a4868ffcd37470b93a5e6634619467e0d4228c",
            "0xa818785a969a7505e54c952dcbe2b6932f7e30369b5821e5c1c4abf09b4e8506",
            "0x000000000000000000000000699bceebd59a5b52bb586c737cd7ba636f3fe602",
            "0x0000000000000000000000000000000000000000000000000028803d56708000"
          ],
          "data": "0x00000000000000000000000000000000000000000000000000000000662e6434000000000000000000000000699bceebd59a5b52bb586c737cd7ba636f3fe60200000000000000000000000000000000000000000000000000000000000138820000000000000000000000000000000000000000000000a2a15d09519be000000000000000000000000000000000000000000000000000000de0b6b3a7640000",
          "blockHash": "0x747676cd9af4d8492c5a0b1428af1c55065714642a7a29575fff61c1018e8327",
          "blockNumber": "0x5871c8",
          "transactionHash": "0x393c9e19295b19b0f8552b5c8d3bd540884d66be4858c9e42275e5ed9f419574",
          "transactionIndex": "0x8a",
          "logIndex": "0x167",
          "removed": false
        },
        {
          "address": "0x23dd1aa37b5c81d64586c021330d61d3ad55aafb",
          "topics": [
            "0x9853b992610853aa2f058d95d0a4868ffcd37470b93a5e6634619467e0d4228c",
            "0x65b225b2a753d2a85a28bfcee22749a3bb50211465edb3cb85dd5509059e231e",
            "0x000000000000000000000000699bceebd59a5b52bb586c737cd7ba636f3fe602",
            "0x0000000000000000000000000000000000000000000000000028db3066eac000"
          ],
          "data": "0x00000000000000000000000000000000000000000000000000000000662e6434000000000000000000000000699bceebd59a5b52bb586c737cd7ba636f3fe60200000000000000000000000000000000000000000000000000000000000138820000000000000000000000000000000000000000000000a2a15d09519be000000000000000000000000000000000000000000000000000000de0b6b3a7640000",
          "blockHash": "0x747676cd9af4d8492c5a0b1428af1c55065714642a7a29575fff61c1018e8327",
          "blockNumber": "0x5871c8",
          "transactionHash": "0x393c9e19295b19b0f8552b5c8d3bd540884d66be4858c9e42275e5ed9f419574",
          "transactionIndex": "0x8a",
          "logIndex": "0x168",
          "removed": false
        }
      ],
      "logsBloom": "0x00020000000000000200000000000000200000000000000000400000000000000000400000000010000000800000001000000000000000000000000004000000010000000000000000000000000000000000200000000000000000000000000000800000000000000000000400000040000000008000000000000000000000000000000000000000000000000210020000028000010000000000000000000000000000000080000004000000080000000000000000000001080000040000000000000000000000000000004000008000010000000000000000008000000000000000010200000000005001000000000000000100200000000000000000000000",
      "type": "0x2",
      "transactionHash": "0x393c9e19295b19b0f8552b5c8d3bd540884d66be4858c9e42275e5ed9f419574",
      "transactionIndex": "0x8a",
      "blockHash": "0x747676cd9af4d8492c5a0b1428af1c55065714642a7a29575fff61c1018e8327",
      "blockNumber": "0x5871c8",
      "gasUsed": "0x1c72e",
      "effectiveGasPrice": "0x8c866e61",
      "from": "0x699bceebd59a5b52bb586c737cd7ba636f3fe602",
      "to": "0x23dd1aa37b5c81d64586c021330d61d3ad55aafb",
      "contractAddress": null
    }
  ],
  "libraries": [],
  "pending": [],
  "returns": {},
  "timestamp": 1714316346,
  "chain": 11155111,
  "commit": "9546700"
}