{
  "transactions": [
    {
      "hash": "0x16400468aa42824d348dfe2a177a7b2eea6d6cb2fe39f04072015dba6865beae",
      "transactionType": "CALL",
      "contractName": null,
      "contractAddress": "0x23dd1aa37b5c81d64586c021330d61d3ad55aafb",
      "function": "postMessage((address,uint256,uint256)[])",
      "arguments": [
        "[(0x699BceEbD59a5b52bB586C737cD7ba636f3Fe602, 80002, 11100000000000000), (0x699BceEbD59a5b52bB586C737cD7ba636f3Fe602, 80002, 11200000000000000), (0x699BceEbD59a5b52bB586C737cD7ba636f3Fe602, 80002, 11300000000000000), (0x699BceEbD59a5b52bB586C737cD7ba636f3Fe602, 80002, 11400000000000000), (0x699BceEbD59a5b52bB586C737cD7ba636f3Fe602, 80002, 11500000000000000)]"
      ],
      "transaction": {
        "from": "0x699bceebd59a5b52bb586c737cd7ba636f3fe602",
        "to": "0x23dd1aa37b5c81d64586c021330d61d3ad55aafb",
        "gas": "0x274b6",
        "value": "0xd529ae9e860000",
        "input": "0x42cbee8d00000000000000000000000000000000000000000000000000000000000000200000000000000000000000000000000000000000000000000000000000000005000000000000000000000000699bceebd59a5b52bb586c737cd7ba636f3fe602000000000000000000000000000000000000000000000000000000000001388200000000000000000000000000000000000000000000000000276f642501c000000000000000000000000000699bceebd59a5b52bb586c737cd7ba636f3fe60200000000000000000000000000000000000000000000000000000000000138820000000000000000000000000000000000000000000000000027ca57357c0000000000000000000000000000699bceebd59a5b52bb586c737cd7ba636f3fe60200000000000000000000000000000000000000000000000000000000000138820000000000000000000000000000000000000000000000000028254a45f64000000000000000000000000000699bceebd59a5b52bb586c737cd7ba636f3fe60200000000000000000000000000000000000000000000000000000000000138820000000000000000000000000000000000000000000000000028803d56708000000000000000000000000000699bceebd59a5b52bb586c737cd7ba636f3fe60200000000000000000000000000000000000000000000000000000000000138820000000000000000000000000000000000000000000000000028db3066eac000",
        "nonce": "0x16f",
        "chainId": "0xaa36a7",
        "accessList": null,
        "type": null
      },
      "additionalContracts": [],
      "isFixedGasLimit": false
    }
  ],
  "receipts": [
    {
      "status": "0x1",
      "cumulativeGasUsed": "0x8b13e2",
      "logs": [
        {
          "address": "0x23dd1aa37b5c81d64586c021330d61d3ad55aafb",
          "topics": [
            "0x9853b992610853aa2f058d95d0a4868ffcd37470b93a5e6634619467e0d4228c",
            "0x140934cd9c409728121f7e888c2b3fbecdefe423abb64103319675c470ad173d",
            "0x000000000000000000000000699bceebd59a5b52bb586c737cd7ba636f3fe602",
            "0x00000000000000000000000000000000000000000000000000276f642501c000"
          ],
          "data": "0x00000000000000000000000000000000000000000000000000000000662fdd80000000000000000000000000699bceebd59a5b52bb586c737cd7ba636f3fe60200000000000000000000000000000000000000000000000000000000000138820000000000000000000000000000000000000000000000a2a15d09519be000000000000000000000000000000000000000000000000000000de0b6b3a7640000",
          "blockHash": "0xfdd82131d27eed63c6d72dafad60dbd68fed2f901ac61c22c098f8017bee79e8",
          "blockNumber": "0x588f31",
          "transactionHash": "0x16400468aa42824d348dfe2a177a7b2eea6d6cb2fe39f04072015dba6865beae",
          "transactionIndex": "0x36",
          "logIndex": "0xab",
          "removed": false
        },
        {
          "address": "0x23dd1aa37b5c81d64586c021330d61d3ad55aafb",
          "topics": [
            "0x9853b992610853aa2f058d95d0a4868ffcd37470b93a5e6634619467e0d4228c",
            "0x5bcb72a4f11b2b4215529cbae1b4ad26c7fd15ee476560d0d49f6c4443eb0fe2",
            "0x000000000000000000000000699bceebd59a5b52bb586c737cd7ba636f3fe602",
            "0x0000000000000000000000000000000000000000000000000027ca57357c0000"
          ],
          "data": "0x00000000000000000000000000000000000000000000000000000000662fdd80000000000000000000000000699bceebd59a5b52bb586c737cd7ba636f3fe60200000000000000000000000000000000000000000000000000000000000138820000000000000000000000000000000000000000000000a2a15d09519be000000000000000000000000000000000000000000000000000000de0b6b3a7640000",
          "blockHash": "0xfdd82131d27eed63c6d72dafad60dbd68fed2f901ac61c22c098f8017bee79e8",
          "blockNumber": "0x588f31",
          "transactionHash": "0x16400468aa42824d348dfe2a177a7b2eea6d6cb2fe39f04072015dba6865beae",
          "transactionIndex": "0x36",
          "logIndex": "0xac",
          "removed": false
        },
        {
          "address": "0x23dd1aa37b5c81d64586c021330d61d3ad55aafb",
          "topics": [
            "0x9853b992610853aa2f058d95d0a4868ffcd37470b93a5e6634619467e0d4228c",
            "0x5468036f01ab549c30715b242ff7e217514300fd82d171ff4523545f76fdaf35",
            "0x000000000000000000000000699bceebd59a5b52bb586c737cd7ba636f3fe602",
            "0x0000000000000000000000000000000000000000000000000028254a45f64000"
          ],
          "data": "0x00000000000000000000000000000000000000000000000000000000662fdd80000000000000000000000000699bceebd59a5b52bb586c737cd7ba636f3fe60200000000000000000000000000000000000000000000000000000000000138820000000000000000000000000000000000000000000000a2a15d09519be000000000000000000000000000000000000000000000000000000de0b6b3a7640000",
          "blockHash": "0xfdd82131d27eed63c6d72dafad60dbd68fed2f901ac61c22c098f8017bee79e8",
          "blockNumber": "0x588f31",
          "transactionHash": "0x16400468aa42824d348dfe2a177a7b2eea6d6cb2fe39f04072015dba6865beae",
          "transactionIndex": "0x36",
          "logIndex": "0xad",
          "removed": false
        },
        {
          "address": "0x23dd1aa37b5c81d64586c021330d61d3ad55aafb",
          "topics": [
            "0x9853b992610853aa2f058d95d0a4868ffcd37470b93a5e6634619467e0d4228c",
            "0xc403c1b29f77a89698d19a1ea33e4dd6478fe4b05b5b963e9b420070eb531b69",
            "0x000000000000000000000000699bceebd59a5b52bb586c737cd7ba636f3fe602",
            "0x0000000000000000000000000000000000000000000000000028803d56708000"
          ],
          "data": "0x00000000000000000000000000000000000000000000000000000000662fdd80000000000000000000000000699bceebd59a5b52bb586c737cd7ba636f3fe60200000000000000000000000000000000000000000000000000000000000138820000000000000000000000000000000000000000000000a2a15d09519be000000000000000000000000000000000000000000000000000000de0b6b3a7640000",
          "blockHash": "0xfdd82131d27eed63c6d72dafad60dbd68fed2f901ac61c22c098f8017bee79e8",
          "blockNumber": "0x588f31",
          "transactionHash": "0x16400468aa42824d348dfe2a177a7b2eea6d6cb2fe39f04072015dba6865beae",
          "transactionIndex": "0x36",
          "logIndex": "0xae",
          "removed": false
        },
        {
          "address": "0x23dd1aa37b5c81d64586c021330d61d3ad55aafb",
          "topics": [
            "0x9853b992610853aa2f058d95d0a4868ffcd37470b93a5e6634619467e0d4228c",
            "0xa173b4b10dc8429dfaf4c2affba9eb1d899f1f81b7783c9abedda9a285860a45",
            "0x000000000000000000000000699bceebd59a5b52bb586c737cd7ba636f3fe602",
            "0x0000000000000000000000000000000000000000000000000028db3066eac000"
          ],
          "data": "0x00000000000000000000000000000000000000000000000000000000662fdd80000000000000000000000000699bceebd59a5b52bb586c737cd7ba636f3fe60200000000000000000000000000000000000000000000000000000000000138820000000000000000000000000000000000000000000000a2a15d09519be000000000000000000000000000000000000000000000000000000de0b6b3a7640000",
          "blockHash": "0xfdd82131d27eed63c6d72dafad60dbd68fed2f901ac61c22c098f8017bee79e8",
          "blockNumber": "0x588f31",
          "transactionHash": "0x16400468aa42824d348dfe2a177a7b2eea6d6cb2fe39f04072015dba6865beae",
          "transactionIndex": "0x36",
          "logIndex": "0xaf",
          "removed": false
        }
      ],
      "logsBloom": "0x00000000000000000000000000000000200000000000000000400000000000000000400000000210000004800002001000000000000000000000000000000000010000000100402000000200000000000000000000000004000000020000000000800000000000000000008400000008000000008000000000000004000000000000000000000000000000000210020000000080000000000000000000000000000000000000000004000000000000000000000000000002000000040000000000000000000000000000014000008000000000000000000000000000000000000000010200000000005001000000000000000100200000000000000000000000",
      "type": "0x2",
      "transactionHash": "0x16400468aa42824d348dfe2a177a7b2eea6d6cb2fe39f04072015dba6865beae",
      "transactionIndex": "0x36",
      "blockHash": "0xfdd82131d27eed63c6d72dafad60dbd68fed2f901ac61c22c098f8017bee79e8",
      "blockNumber": "0x588f31",
      "gasUsed": "0x1c72e",
      "effectiveGasPrice": "0x803a5c77",
      "from": "0x699bceebd59a5b52bb586c737cd7ba636f3fe602",
      "to": "0x23dd1aa37b5c81d64586c021330d61d3ad55aafb",
      "contractAddress": null
    }
  ],
  "libraries": [],
  "pending": [],
  "returns": {},
  "timestamp": 1714412936,
  "chain": 11155111,
  "commit": "9546700"
}