{
  "transactions": [
    {
      "hash": "0xc5cf6d6b25a5afd457a8f4c4df5e1d43d85f370ffe6e5d247ea27392b012c83d",
      "transactionType": "CALL",
      "contractName": null,
      "contractAddress": "0x23dd1aa37b5c81d64586c021330d61d3ad55aafb",
      "function": "postMessage((address,uint256,uint256)[])",
      "arguments": [
        "[(0x699BceEbD59a5b52bB586C737cD7ba636f3Fe602, 80002, 11100000000000000), (0x699BceEbD59a5b52bB586C737cD7ba636f3Fe602, 80002, 11200000000000000), (0x699BceEbD59a5b52bB586C737cD7ba636f3Fe602, 80002, 11300000000000000), (0x699BceEbD59a5b52bB586C737cD7ba636f3Fe602, 80002, 11400000000000000), (0x699BceEbD59a5b52bB586C737cD7ba636f3Fe602, 80002, 11500000000000000)]"
      ],
      "transaction": {
        "from": "0x699bceebd59a5b52bb586c737cd7ba636f3fe602",
        "to": "0x23dd1aa37b5c81d64586c021330d61d3ad55aafb",
        "gas": "0x274b6",
        "value": "0xd529ae9e860000",
        "input": "0x42cbee8d00000000000000000000000000000000000000000000000000000000000000200000000000000000000000000000000000000000000000000000000000000005000000000000000000000000699bceebd59a5b52bb586c737cd7ba636f3fe602000000000000000000000000000000000000000000000000000000000001388200000000000000000000000000000000000000000000000000276f642501c000000000000000000000000000699bceebd59a5b52bb586c737cd7ba636f3fe60200000000000000000000000000000000000000000000000000000000000138820000000000000000000000000000000000000000000000000027ca57357c0000000000000000000000000000699bceebd59a5b52bb586c737cd7ba636f3fe60200000000000000000000000000000000000000000000000000000000000138820000000000000000000000000000000000000000000000000028254a45f64000000000000000000000000000699bceebd59a5b52bb586c737cd7ba636f3fe60200000000000000000000000000000000000000000000000000000000000138820000000000000000000000000000000000000000000000000028803d56708000000000000000000000000000699bceebd59a5b52bb586c737cd7ba636f3fe60200000000000000000000000000000000000000000000000000000000000138820000000000000000000000000000000000000000000000000028db3066eac000",
        "nonce": "0x157",
        "chainId": "0xaa36a7",
        "accessList": null,
        "type": null
      },
      "additionalContracts": [],
      "isFixedGasLimit": false
    }
  ],
  "receipts": [
    {
      "status": "0x1",
      "cumulativeGasUsed": "0x48a277",
      "logs": [
        {
          "address": "0x23dd1aa37b5c81d64586c021330d61d3ad55aafb",
          "topics": [
            "0x9853b992610853aa2f058d95d0a4868ffcd37470b93a5e6634619467e0d4228c",
            "0x366ba4705def5baaa8763b26a1294de1852f4eb0197c614f7b75570fde945c93",
            "0x000000000000000000000000699bceebd59a5b52bb586c737cd7ba636f3fe602",
            "0x00000000000000000000000000000000000000000000000000276f642501c000"
          ],
          "data": "0x00000000000000000000000000000000000000000000000000000000662e515c000000000000000000000000699bceebd59a5b52bb586c737cd7ba636f3fe60200000000000000000000000000000000000000000000000000000000000138820000000000000000000000000000000000000000000000a2a15d09519be000000000000000000000000000000000000000000000000000000de0b6b3a7640000",
          "blockHash": "0xf529133f69c83112e701055bce0231cb8072f35f5b1b52578aa41985a9f0ce5d",
          "blockNumber": "0x58703e",
          "transactionHash": "0xc5cf6d6b25a5afd457a8f4c4df5e1d43d85f370ffe6e5d247ea27392b012c83d",
          "transactionIndex": "0x1f",
          "logIndex": "0x62",
          "removed": false
        },
        {
          "address": "0x23dd1aa37b5c81d64586c021330d61d3ad55aafb",
          "topics": [
            "0x9853b992610853aa2f058d95d0a4868ffcd37470b93a5e6634619467e0d4228c",
            "0xd75fa8d3dbd4768e79c0bc51a8d180b9ea3e0e0109639c04039b1fc3d470d193",
            "0x000000000000000000000000699bceebd59a5b52bb586c737cd7ba636f3fe602",
            "0x0000000000000000000000000000000000000000000000000027ca57357c0000"
          ],
          "data": "0x00000000000000000000000000000000000000000000000000000000662e515c000000000000000000000000699bceebd59a5b52bb586c737cd7ba636f3fe60200000000000000000000000000000000000000000000000000000000000138820000000000000000000000000000000000000000000000a2a15d09519be000000000000000000000000000000000000000000000000000000de0b6b3a7640000",
          "blockHash": "0xf529133f69c83112e701055bce0231cb8072f35f5b1b52578aa41985a9f0ce5d",
          "blockNumber": "0x58703e",
          "transactionHash": "0xc5cf6d6b25a5afd457a8f4c4df5e1d43d85f370ffe6e5d247ea27392b012c83d",
          "transactionIndex": "0x1f",
          "logIndex": "0x63",
          "removed": false
        },
        {
          "address": "0x23dd1aa37b5c81d64586c021330d61d3ad55aafb",
          "topics": [
            "0x9853b992610853aa2f058d95d0a4868ffcd37470b93a5e6634619467e0d4228c",
            "0x2e42012e60c76b13a443f33de5cc1102be845972b8821a7c290528ddded9f302",
            "0x000000000000000000000000699bceebd59a5b52bb586c737cd7ba636f3fe602",
            "0x0000000000000000000000000000000000000000000000000028254a45f64000"
          ],
          "data": "0x00000000000000000000000000000000000000000000000000000000662e515c000000000000000000000000699bceebd59a5b52bb586c737cd7ba636f3fe60200000000000000000000000000000000000000000000000000000000000138820000000000000000000000000000000000000000000000a2a15d09519be000000000000000000000000000000000000000000000000000000de0b6b3a7640000",
          "blockHash": "0xf529133f69c83112e701055bce0231cb8072f35f5b1b52578aa41985a9f0ce5d",
          "blockNumber": "0x58703e",
          "transactionHash": "0xc5cf6d6b25a5afd457a8f4c4df5e1d43d85f370ffe6e5d247ea27392b012c83d",
          "transactionIndex": "0x1f",
          "logIndex": "0x64",
          "removed": false
        },
        {
          "address": "0x23dd1aa37b5c81d64586c021330d61d3ad55aafb",
          "topics": [
            "0x9853b992610853aa2f058d95d0a4868ffcd37470b93a5e6634619467e0d4228c",
            "0x5d22f8f10741c723e8f6137661bc62419643876ebdbc87e83df1ec0969e6f32d",
            "0x000000000000000000000000699bceebd59a5b52bb586c737cd7ba636f3fe602",
            "0x0000000000000000000000000000000000000000000000000028803d56708000"
          ],
          "data": "0x00000000000000000000000000000000000000000000000000000000662e515c000000000000000000000000699bceebd59a5b52bb586c737cd7ba636f3fe60200000000000000000000000000000000000000000000000000000000000138820000000000000000000000000000000000000000000000a2a15d09519be000000000000000000000000000000000000000000000000000000de0b6b3a7640000",
          "blockHash": "0xf529133f69c83112e701055bce0231cb8072f35f5b1b52578aa41985a9f0ce5d",
          "blockNumber": "0x58703e",
          "transactionHash": "0xc5cf6d6b25a5afd457a8f4c4df5e1d43d85f370ffe6e5d247ea27392b012c83d",
          "transactionIndex": "0x1f",
          "logIndex": "0x65",
          "removed": false
        },
        {
          "address": "0x23dd1aa37b5c81d64586c021330d61d3ad55aafb",
          "topics": [
            "0x9853b992610853aa2f058d95d0a4868ffcd37470b93a5e6634619467e0d4228c",
            "0x69c5422097ec7c5fe6841b433383551b9123e663347941d55ac396747b547365",
            "0x000000000000000000000000699bceebd59a5b52bb586c737cd7ba636f3fe602",
            "0x0000000000000000000000000000000000000000000000000028db3066eac000"
          ],
          "data": "0x00000000000000000000000000000000000000000000000000000000662e515c000000000000000000000000699bceebd59a5b52bb586c737cd7ba636f3fe60200000000000000000000000000000000000000000000000000000000000138820000000000000000000000000000000000000000000000a2a15d09519be000000000000000000000000000000000000000000000000000000de0b6b3a7640000",
          "blockHash": "0xf529133f69c83112e701055bce0231cb8072f35f5b1b52578aa41985a9f0ce5d",
          "blockNumber": "0x58703e",
          "transactionHash": "0xc5cf6d6b25a5afd457a8f4c4df5e1d43d85f370ffe6e5d247ea27392b012c83d",
          "transactionIndex": "0x1f",
          "logIndex": "0x66",
          "removed": false
        }
      ],
      "logsBloom": "0x0000000000000000000000000009000020000000000000000040000000000000000040000000001000000080000000100000000000000000000000000000400001000000080000000000000000000000000000000000000000002000000000000090000000000000000000040000000000000000800000000000000000000000000020000000000000000000021002000000000000000000000000000000000000000800000000000400000000000000000000000000000000000004000000000000000060000000000000400000a000000000000000000000000000000000000000010200000000025001000000000000080900200000000000000000000020",
      "type": "0x2",
      "transactionHash": "0xc5cf6d6b25a5afd457a8f4c4df5e1d43d85f370ffe6e5d247ea27392b012c83d",
      "transactionIndex": "0x1f",
      "blockHash": "0xf529133f69c83112e701055bce0231cb8072f35f5b1b52578aa41985a9f0ce5d",
      "blockNumber": "0x58703e",
      "gasUsed": "0x1c72e",
      "effectiveGasPrice": "0x8ba80d85",
      "from": "0x699bceebd59a5b52bb586c737cd7ba636f3fe602",
      "to": "0x23dd1aa37b5c81d64586c021330d61d3ad55aafb",
      "contractAddress": null
    }
  ],
  "libraries": [],
  "pending": [],
  "returns": {},
  "timestamp": 1714311521,
  "chain": 11155111,
  "commit": "9546700"
}