{
  "transactions": [
    {
      "hash": "0x0150e58a7343f00d8c7ec8147fe8437ccf65c013c5f5786e8a29abb2cb04f94c",
      "transactionType": "CALL",
      "contractName": null,
      "contractAddress": "0x23dd1aa37b5c81d64586c021330d61d3ad55aafb",
      "function": "postMessage((address,uint256,uint256)[])",
      "arguments": [
        "[(0x699BceEbD59a5b52bB586C737cD7ba636f3Fe602, 80002, 11100000000000000), (0x699BceEbD59a5b52bB586C737cD7ba636f3Fe602, 80002, 11200000000000000), (0x699BceEbD59a5b52bB586C737cD7ba636f3Fe602, 80002, 11300000000000000), (0x699BceEbD59a5b52bB586C737cD7ba636f3Fe602, 80002, 11400000000000000), (0x699BceEbD59a5b52bB586C737cD7ba636f3Fe602, 80002, 11500000000000000)]"
      ],
      "transaction": {
        "from": "0x699bceebd59a5b52bb586c737cd7ba636f3fe602",
        "to": "0x23dd1aa37b5c81d64586c021330d61d3ad55aafb",
        "gas": "0x274b6",
        "value": "0xd529ae9e860000",
        "input": "0x42cbee8d00000000000000000000000000000000000000000000000000000000000000200000000000000000000000000000000000000000000000000000000000000005000000000000000000000000699bceebd59a5b52bb586c737cd7ba636f3fe602000000000000000000000000000000000000000000000000000000000001388200000000000000000000000000000000000000000000000000276f642501c000000000000000000000000000699bceebd59a5b52bb586c737cd7ba636f3fe60200000000000000000000000000000000000000000000000000000000000138820000000000000000000000000000000000000000000000000027ca57357c0000000000000000000000000000699bceebd59a5b52bb586c737cd7ba636f3fe60200000000000000000000000000000000000000000000000000000000000138820000000000000000000000000000000000000000000000000028254a45f64000000000000000000000000000699bceebd59a5b52bb586c737cd7ba636f3fe60200000000000000000000000000000000000000000000000000000000000138820000000000000000000000000000000000000000000000000028803d56708000000000000000000000000000699bceebd59a5b52bb586c737cd7ba636f3fe60200000000000000000000000000000000000000000000000000000000000138820000000000000000000000000000000000000000000000000028db3066eac000",
        "nonce": "0x151",
        "chainId": "0xaa36a7",
        "accessList": null,
        "type": null
      },
      "additionalContracts": [],
      "isFixedGasLimit": false
    }
  ],
  "receipts": [
    {
      "status": "0x1",
      "cumulativeGasUsed": "0x8e1b05",
      "logs": [
        {
          "address": "0x23dd1aa37b5c81d64586c021330d61d3ad55aafb",
          "topics": [
            "0x9853b992610853aa2f058d95d0a4868ffcd37470b93a5e6634619467e0d4228c",
            "0xaf212b883492216fbea678fa3779d2dfa573f668d741d7598fff7f456bb52196",
            "0x000000000000000000000000699bceebd59a5b52bb586c737cd7ba636f3fe602",
            "0x00000000000000000000000000000000000000000000000000276f642501c000"
          ],
          "data": "0x00000000000000000000000000000000000000000000000000000000662e2ccc000000000000000000000000699bceebd59a5b52bb586c737cd7ba636f3fe60200000000000000000000000000000000000000000000000000000000000138820000000000000000000000000000000000000000000000a2a15d09519be000000000000000000000000000000000000000000000000000000de0b6b3a7640000",
          "blockHash": "0x8f53fe9fa5dd927ef4cbe2d5b96f578924ca0fa330056a1fc42515847b107f25",
          "blockNumber": "0x586d4c",
          "transactionHash": "0x0150e58a7343f00d8c7ec8147fe8437ccf65c013c5f5786e8a29abb2cb04f94c",
          "transactionIndex": "0x46",
          "logIndex": "0xe2",
          "removed": false
        },
        {
          "address": "0x23dd1aa37b5c81d64586c021330d61d3ad55aafb",
          "topics": [
            "0x9853b992610853aa2f058d95d0a4868ffcd37470b93a5e6634619467e0d4228c",
            "0xf32db431139e234d1cc00f6eef06627ac2f4dcb0213db411c49227cb5d445ed6",
            "0x000000000000000000000000699bceebd59a5b52bb586c737cd7ba636f3fe602",
            "0x0000000000000000000000000000000000000000000000000027ca57357c0000"
          ],
          "data": "0x00000000000000000000000000000000000000000000000000000000662e2ccc000000000000000000000000699bceebd59a5b52bb586c737cd7ba636f3fe60200000000000000000000000000000000000000000000000000000000000138820000000000000000000000000000000000000000000000a2a15d09519be000000000000000000000000000000000000000000000000000000de0b6b3a7640000",
          "blockHash": "0x8f53fe9fa5dd927ef4cbe2d5b96f578924ca0fa330056a1fc42515847b107f25",
          "blockNumber": "0x586d4c",
          "transactionHash": "0x0150e58a7343f00d8c7ec8147fe8437ccf65c013c5f5786e8a29abb2cb04f94c",
          "transactionIndex": "0x46",
          "logIndex": "0xe3",
          "removed": false
        },
        {
          "address": "0x23dd1aa37b5c81d64586c021330d61d3ad55aafb",
          "topics": [
            "0x9853b992610853aa2f058d95d0a4868ffcd37470b93a5e6634619467e0d4228c",
            "0xad96a590b69c6fc43aebf0dec2fbbcc46387772b350c9b740fc44774f9dadd87",
            "0x000000000000000000000000699bceebd59a5b52bb586c737cd7ba636f3fe602",
            "0x0000000000000000000000000000000000000000000000000028254a45f64000"
          ],
          "data": "0x00000000000000000000000000000000000000000000000000000000662e2ccc000000000000000000000000699bceebd59a5b52bb586c737cd7ba636f3fe60200000000000000000000000000000000000000000000000000000000000138820000000000000000000000000000000000000000000000a2a15d09519be000000000000000000000000000000000000000000000000000000de0b6b3a7640000",
          "blockHash": "0x8f53fe9fa5dd927ef4cbe2d5b96f578924ca0fa330056a1fc42515847b107f25",
          "blockNumber": "0x586d4c",
          "transactionHash": "0x0150e58a7343f00d8c7ec8147fe8437ccf65c013c5f5786e8a29abb2cb04f94c",
          "transactionIndex": "0x46",
          "logIndex": "0xe4",
          "removed": false
        },
        {
          "address": "0x23dd1aa37b5c81d64586c021330d61d3ad55aafb",
          "topics": [
            "0x9853b992610853aa2f058d95d0a4868ffcd37470b93a5e6634619467e0d4228c",
            "0x4372a29b5d23a81331a6fa243ff8b5fde0402ecb74904c7afef5e1d4cbc7db1c",
            "0x000000000000000000000000699bceebd59a5b52bb586c737cd7ba636f3fe602",
            "0x0000000000000000000000000000000000000000000000000028803d56708000"
          ],
          "data": "0x00000000000000000000000000000000000000000000000000000000662e2ccc000000000000000000000000699bceebd59a5b52bb586c737cd7ba636f3fe60200000000000000000000000000000000000000000000000000000000000138820000000000000000000000000000000000000000000000a2a15d09519be000000000000000000000000000000000000000000000000000000de0b6b3a7640000",
          "blockHash": "0x8f53fe9fa5dd927ef4cbe2d5b96f578924ca0fa330056a1fc42515847b107f25",
          "blockNumber": "0x586d4c",
          "transactionHash": "0x0150e58a7343f00d8c7ec8147fe8437ccf65c013c5f5786e8a29abb2cb04f94c",
          "transactionIndex": "0x46",
          "logIndex": "0xe5",
          "removed": false
        },
        {
          "address": "0x23dd1aa37b5c81d64586c021330d61d3ad55aafb",
          "topics": [
            "0x9853b992610853aa2f058d95d0a4868ffcd37470b93a5e6634619467e0d4228c",
            "0x27a0fda47663eea47c5df0218582cd40bc7343087952309a8f5e2d085dd2b15f",
            "0x000000000000000000000000699bceebd59a5b52bb586c737cd7ba636f3fe602",
            "0x0000000000000000000000000000000000000000000000000028db3066eac000"
          ],
          "data": "0x00000000000000000000000000000000000000000000000000000000662e2ccc000000000000000000000000699bceebd59a5b52bb586c737cd7ba636f3fe60200000000000000000000000000000000000000000000000000000000000138820000000000000000000000000000000000000000000000a2a15d09519be000000000000000000000000000000000000000000000000000000de0b6b3a7640000",
          "blockHash": "0x8f53fe9fa5dd927ef4cbe2d5b96f578924ca0fa330056a1fc42515847b107f25",
          "blockNumber": "0x586d4c",
          "transactionHash": "0x0150e58a7343f00d8c7ec8147fe8437ccf65c013c5f5786e8a29abb2cb04f94c",
          "transactionIndex": "0x46",
          "logIndex": "0xe6",
          "removed": false
        }
      ],
      "logsBloom": "0x00000000000000000000000000000000200000000000000000400000000000000000400000000010000000800040001000000000000000000000000000000000011000000000000000000000000008000000000000000000000000000000000000800000000000000000000400000000000000108000000000000000200000000000000000000000040000000210020000000000000000000000040000000000000000000000000004000000010000000000100000000000000000040000000000000002000000080000004000008040000000000000000000000000000000000000010600000000005001000000000080000100200000000000400000000000",
      "type": "0x2",
      "transactionHash": "0x0150e58a7343f00d8c7ec8147fe8437ccf65c013c5f5786e8a29abb2cb04f94c",
      "transactionIndex": "0x46",
      "blockHash": "0x8f53fe9fa5dd927ef4cbe2d5b96f578924ca0fa330056a1fc42515847b107f25",
      "blockNumber": "0x586d4c",
      "gasUsed": "0x1c72e",
      "effectiveGasPrice": "0x9609745e",
      "from": "0x699bceebd59a5b52bb586c737cd7ba636f3fe602",
      "to": "0x23dd1aa37b5c81d64586c021330d61d3ad55aafb",
      "contractAddress": null
    }
  ],
  "libraries": [],
  "pending": [],
  "returns": {},
  "timestamp": 1714302159,
  "chain": 11155111,
  "commit": "9546700"
}