{
  "transactions": [
    {
      "hash": "0xb1ce317f4994720d068a6162caa1d9b2319272521e8b6973220035e0f91815a1",
      "transactionType": "CALL",
      "contractName": null,
      "contractAddress": "0x23dd1aa37b5c81d64586c021330d61d3ad55aafb",
      "function": "postMessage((address,uint256,uint256)[])",
      "arguments": [
        "[(0x699BceEbD59a5b52bB586C737cD7ba636f3Fe602, 80002, 11100000000000000), (0x699BceEbD59a5b52bB586C737cD7ba636f3Fe602, 80002, 11200000000000000), (0x699BceEbD59a5b52bB586C737cD7ba636f3Fe602, 80002, 11300000000000000), (0x699BceEbD59a5b52bB586C737cD7ba636f3Fe602, 80002, 11400000000000000), (0x699BceEbD59a5b52bB586C737cD7ba636f3Fe602, 80002, 11500000000000000)]"
      ],
      "transaction": {
        "from": "0x699bceebd59a5b52bb586c737cd7ba636f3fe602",
        "to": "0x23dd1aa37b5c81d64586c021330d61d3ad55aafb",
        "gas": "0x274b6",
        "value": "0xd529ae9e860000",
        "input": "0x42cbee8d00000000000000000000000000000000000000000000000000000000000000200000000000000000000000000000000000000000000000000000000000000005000000000000000000000000699bceebd59a5b52bb586c737cd7ba636f3fe602000000000000000000000000000000000000000000000000000000000001388200000000000000000000000000000000000000000000000000276f642501c000000000000000000000000000699bceebd59a5b52bb586c737cd7ba636f3fe60200000000000000000000000000000000000000000000000000000000000138820000000000000000000000000000000000000000000000000027ca57357c0000000000000000000000000000699bceebd59a5b52bb586c737cd7ba636f3fe60200000000000000000000000000000000000000000000000000000000000138820000000000000000000000000000000000000000000000000028254a45f64000000000000000000000000000699bceebd59a5b52bb586c737cd7ba636f3fe60200000000000000000000000000000000000000000000000000000000000138820000000000000000000000000000000000000000000000000028803d56708000000000000000000000000000699bceebd59a5b52bb586c737cd7ba636f3fe60200000000000000000000000000000000000000000000000000000000000138820000000000000000000000000000000000000000000000000028db3066eac000",
        "nonce": "0x15a",
        "chainId": "0xaa36a7",
        "accessList": null,
        "type": null
      },
      "additionalContracts": [],
      "isFixedGasLimit": false
    }
  ],
  "receipts": [
    {
      "status": "0x1",
      "cumulativeGasUsed": "0x955c2d",
      "logs": [
        {
          "address": "0x23dd1aa37b5c81d64586c021330d61d3ad55aafb",
          "topics": [
            "0x9853b992610853aa2f058d95d0a4868ffcd37470b93a5e6634619467e0d4228c",
            "0x39ea36d9e6f387af7e465bd704b0f06c8f5b8596a89f656f08c502317013a307",
            "0x000000000000000000000000699bceebd59a5b52bb586c737cd7ba636f3fe602",
            "0x00000000000000000000000000000000000000000000000000276f642501c000"
          ],
          "data": "0x00000000000000000000000000000000000000000000000000000000662e5bdc000000000000000000000000699bceebd59a5b52bb586c737cd7ba636f3fe60200000000000000000000000000000000000000000000000000000000000138820000000000000000000000000000000000000000000000a2a15d09519be000000000000000000000000000000000000000000000000000000de0b6b3a7640000",
          "blockHash": "0xe1e78bf228b5138a414af984c0afffbdfd82448425de932fa885affb4504a910",
          "blockNumber": "0x58711a",
          "transactionHash": "0xb1ce317f4994720d068a6162caa1d9b2319272521e8b6973220035e0f91815a1",
          "transactionIndex": "0x43",
          "logIndex": "0xad",
          "removed": false
        },
        {
          "address": "0x23dd1aa37b5c81d64586c021330d61d3ad55aafb",
          "topics": [
            "0x9853b992610853aa2f058d95d0a4868ffcd37470b93a5e6634619467e0d4228c",
            "0x384688ee0ef94eef1633586cbb96bb7bb7015ae030c746b2a5141a4e0e75e5e9",
            "0x000000000000000000000000699bceebd59a5b52bb586c737cd7ba636f3fe602",
            "0x0000000000000000000000000000000000000000000000000027ca57357c0000"
          ],
          "data": "0x00000000000000000000000000000000000000000000000000000000662e5bdc000000000000000000000000699bceebd59a5b52bb586c737cd7ba636f3fe60200000000000000000000000000000000000000000000000000000000000138820000000000000000000000000000000000000000000000a2a15d09519be000000000000000000000000000000000000000000000000000000de0b6b3a7640000",
          "blockHash": "0xe1e78bf228b5138a414af984c0afffbdfd82448425de932fa885affb4504a910",
          "blockNumber": "0x58711a",
          "transactionHash": "0xb1ce317f4994720d068a6162caa1d9b2319272521e8b6973220035e0f91815a1",
          "transactionIndex": "0x43",
          "logIndex": "0xae",
          "removed": false
        },
        {
          "address": "0x23dd1aa37b5c81d64586c021330d61d3ad55aafb",
          "topics": [
            "0x9853b992610853aa2f058d95d0a4868ffcd37470b93a5e6634619467e0d4228c",
            "0xbecd772f70d1d98dbb6905334daafc641cd84bee4848f933b33050eb263c06b0",
            "0x000000000000000000000000699bceebd59a5b52bb586c737cd7ba636f3fe602",
            "0x0000000000000000000000000000000000000000000000000028254a45f64000"
          ],
          "data": "0x00000000000000000000000000000000000000000000000000000000662e5bdc000000000000000000000000699bceebd59a5b52bb586c737cd7ba636f3fe60200000000000000000000000000000000000000000000000000000000000138820000000000000000000000000000000000000000000000a2a15d09519be000000000000000000000000000000000000000000000000000000de0b6b3a7640000",
          "blockHash": "0xe1e78bf228b5138a414af984c0afffbdfd82448425de932fa885affb4504a910",
          "blockNumber": "0x58711a",
          "transactionHash": "0xb1ce317f4994720d068a6162caa1d9b2319272521e8b6973220035e0f91815a1",
          "transactionIndex": "0x43",
          "logIndex": "0xaf",
          "removed": false
        },
        {
          "address": "0x23dd1aa37b5c81d64586c021330d61d3ad55aafb",
          "topics": [
            "0x9853b992610853aa2f058d95d0a4868ffcd37470b93a5e6634619467e0d4228c",
            "0x6665bb42a83fbeefc67e5f4d659b0235a60c9e3ca28580775592e19741606cd9",
            "0x000000000000000000000000699bceebd59a5b52bb586c737cd7ba636f3fe602",
            "0x0000000000000000000000000000000000000000000000000028803d56708000"
          ],
          "data": "0x00000000000000000000000000000000000000000000000000000000662e5bdc000000000000000000000000699bceebd59a5b52bb586c737cd7ba636f3fe60200000000000000000000000000000000000000000000000000000000000138820000000000000000000000000000000000000000000000a2a15d09519be000000000000000000000000000000000000000000000000000000de0b6b3a7640000",
          "blockHash": "0xe1e78bf228b5138a414af984c0afffbdfd82448425de932fa885affb4504a910",
          "blockNumber": "0x58711a",
          "transactionHash": "0xb1ce317f4994720d068a6162caa1d9b2319272521e8b6973220035e0f91815a1",
          "transactionIndex": "0x43",
          "logIndex": "0xb0",
          "removed": false
        },
        {
          "address": "0x23dd1aa37b5c81d64586c021330d61d3ad55aafb",
          "topics": [
            "0x9853b992610853aa2f058d95d0a4868ffcd37470b93a5e6634619467e0d4228c",
            "0x6306eda009860048ec2026c7cd7ddc3d4ab00719cde0a269369a3c62711b41bc",
            "0x000000000000000000000000699bceebd59a5b52bb586c737cd7ba636f3fe602",
            "0x0000000000000000000000000000000000000000000000000028db3066eac000"
          ],
          "data": "0x00000000000000000000000000000000000000000000000000000000662e5bdc000000000000000000000000699bceebd59a5b52bb586c737cd7ba636f3fe60200000000000000000000000000000000000000000000000000000000000138820000000000000000000000000000000000000000000000a2a15d09519be000000000000000000000000000000000000000000000000000000de0b6b3a7640000",
          "blockHash": "0xe1e78bf228b5138a414af984c0afffbdfd82448425de932fa885affb4504a910",
          "blockNumber": "0x58711a",
          "transactionHash": "0xb1ce317f4994720d068a6162caa1d9b2319272521e8b6973220035e0f91815a1",
          "transactionIndex": "0x43",
          "logIndex": "0xb1",
          "removed": false
        }
      ],
      "logsBloom": "0x00000000000000000000000000000000200000000000000000400100000000000000400040000010000000800000001000000000000000000000200000000000011000000000000000001000002000020000000000000000000000000000000000800000000000000000000400000000000000008020000000000000000000000000000000000040000000000210020000000000000000000000000000000000000010000000000804000000000000000000000000000000000008040000000000000000800000000000004000008000000000000000000000000000000000000000010200000000005001000000000000000100200000000004000000000000",
      "type": "0x2",
      "transactionHash": "0xb1ce317f4994720d068a6162caa1d9b2319272521e8b6973220035e0f91815a1",
      "transactionIndex": "0x43",
      "blockHash": "0xe1e78bf228b5138a414af984c0afffbdfd82448425de932fa885affb4504a910",
      "blockNumber": "0x58711a",
      "gasUsed": "0x1c72e",
      "effectiveGasPrice": "0x9171a29e",
      "from": "0x699bceebd59a5b52bb586c737cd7ba636f3fe602",
      "to": "0x23dd1aa37b5c81d64586c021330d61d3ad55aafb",
      "contractAddress": null
    }
  ],
  "libraries": [],
  "pending": [],
  "returns": {},
  "timestamp": 1714314208,
  "chain": 11155111,
  "commit": "9546700"
}