{
  "transactions": [
    {
      "hash": "0x3bbd07a5568da196233881e219893aefedde5c6ecced6236659b1f37b0db03de",
      "transactionType": "CALL",
      "contractName": null,
      "contractAddress": "0x371862509e523e8fb89eb8911254c14c882fca96",
      "function": "postMessage((address,uint256,uint256)[])",
      "arguments": [
        "[(0x699BceEbD59a5b52bB586C737cD7ba636f3Fe602, 80002, 100000000000000000)]"
      ],
      "transaction": {
        "from": "0x699bceebd59a5b52bb586c737cd7ba636f3fe602",
        "to": "0x371862509e523e8fb89eb8911254c14c882fca96",
        "gas": "0x217c8",
        "value": "0x16345785d8a0000",
        "input": "0x42cbee8d00000000000000000000000000000000000000000000000000000000000000200000000000000000000000000000000000000000000000000000000000000001000000000000000000000000699bceebd59a5b52bb586c737cd7ba636f3fe6020000000000000000000000000000000000000000000000000000000000013882000000000000000000000000000000000000000000000000016345785d8a0000",
        "nonce": "0x11c",
        "chainId": "0xaa36a7",
        "accessList": null,
        "type": null
      },
      "additionalContracts": [],
      "isFixedGasLimit": false
    }
  ],
  "receipts": [
    {
      "status": "0x1",
      "cumulativeGasUsed": "0x9f4562",
      "logs": [
        {
          "address": "0x371862509e523e8fb89eb8911254c14c882fca96",
          "topics": [
            "0x9853b992610853aa2f058d95d0a4868ffcd37470b93a5e6634619467e0d4228c",
            "0x89785fa7e0eea3b77a6463d319f9d06f7a2fe0f0ff31b0e93d1914118aa284dd",
            "0x000000000000000000000000699bceebd59a5b52bb586c737cd7ba636f3fe602",
            "0x000000000000000000000000000000000000000000000000016345785d8a0000"
          ],
          "data": "0x00000000000000000000000000000000000000000000000000000000662bad54000000000000000000000000699bceebd59a5b52bb586c737cd7ba636f3fe60200000000000000000000000000000000000000000000000000000000000138820000000000000000000000000000000000000000000000a2a15d09519be000000000000000000000000000000000000000000000000000000de0b6b3a7640000",
          "blockHash": "0x35217ee49bab62f374ca1ab28d33db281bba8c1dde9303d881a5c4ce13450010",
          "blockNumber": "0x583985",
          "transactionHash": "0x3bbd07a5568da196233881e219893aefedde5c6ecced6236659b1f37b0db03de",
          "transactionIndex": "0x38",
          "logIndex": "0x42",
          "removed": false
        }
      ],
      "logsBloom": "0x00000000000000000000000000000000000000000000000000400000000000000000000000000000000000000000000000000000000000000000000000020000000000000000000000000000000008000000000002000000000000000000000000800004008002000000000000000000000000008000000000000000000000000000000000000000000000000000000000000000000000000200000000000000000000001000000000000000000000000000000000000000000000000000000000000000000000000000000000008000000000008000000000000000000000000000000000000000001000000000000000000100000000000000000000000000",
      "type": "0x2",
      "transactionHash": "0x3bbd07a5568da196233881e219893aefedde5c6ecced6236659b1f37b0db03de",
      "transactionIndex": "0x38",
      "blockHash": "0x35217ee49bab62f374ca1ab28d33db281bba8c1dde9303d881a5c4ce13450010",
      "blockNumber": "0x583985",
      "gasUsed": "0x16e59",
      "effectiveGasPrice": "0x5900079e",
      "from": "0x699bceebd59a5b52bb586c737cd7ba636f3fe602",
      "to": "0x371862509e523e8fb89eb8911254c14c882fca96",
      "contractAddress": null
    }
  ],
  "libraries": [],
  "pending": [],
  "returns": {},
  "timestamp": 1714138456,
  "chain": 11155111,
  "commit": "d8ddccd"
}