{
  "transactions": [
    {
      "hash": "0x41ed4451aeb4383963e6c563fbabfddcb08f52c458f2f43a621abbc0a37c8f76",
      "transactionType": "CALL",
      "contractName": null,
      "contractAddress": "0x23dd1aa37b5c81d64586c021330d61d3ad55aafb",
      "function": "postMessage((address,uint256,uint256)[])",
      "arguments": [
        "[(0x699BceEbD59a5b52bB586C737cD7ba636f3Fe602, 80002, 11100000000000000), (0x699BceEbD59a5b52bB586C737cD7ba636f3Fe602, 80002, 11200000000000000), (0x699BceEbD59a5b52bB586C737cD7ba636f3Fe602, 80002, 11300000000000000), (0x699BceEbD59a5b52bB586C737cD7ba636f3Fe602, 80002, 11400000000000000), (0x699BceEbD59a5b52bB586C737cD7ba636f3Fe602, 80002, 11500000000000000)]"
      ],
      "transaction": {
        "from": "0x699bceebd59a5b52bb586c737cd7ba636f3fe602",
        "to": "0x23dd1aa37b5c81d64586c021330d61d3ad55aafb",
        "gas": "0x274b6",
        "value": "0xd529ae9e860000",
        "input": "0x42cbee8d00000000000000000000000000000000000000000000000000000000000000200000000000000000000000000000000000000000000000000000000000000005000000000000000000000000699bceebd59a5b52bb586c737cd7ba636f3fe602000000000000000000000000000000000000000000000000000000000001388200000000000000000000000000000000000000000000000000276f642501c000000000000000000000000000699bceebd59a5b52bb586c737cd7ba636f3fe60200000000000000000000000000000000000000000000000000000000000138820000000000000000000000000000000000000000000000000027ca57357c0000000000000000000000000000699bceebd59a5b52bb586c737cd7ba636f3fe60200000000000000000000000000000000000000000000000000000000000138820000000000000000000000000000000000000000000000000028254a45f64000000000000000000000000000699bceebd59a5b52bb586c737cd7ba636f3fe60200000000000000000000000000000000000000000000000000000000000138820000000000000000000000000000000000000000000000000028803d56708000000000000000000000000000699bceebd59a5b52bb586c737cd7ba636f3fe60200000000000000000000000000000000000000000000000000000000000138820000000000000000000000000000000000000000000000000028db3066eac000",
        "nonce": "0x13c",
        "chainId": "0xaa36a7",
        "accessList": null,
        "type": null
      },
      "additionalContracts": [],
      "isFixedGasLimit": false
    }
  ],
  "receipts": [
    {
      "status": "0x1",
      "cumulativeGasUsed": "0x84f50d",
      "logs": [
        {
          "address": "0x23dd1aa37b5c81d64586c021330d61d3ad55aafb",
          "topics": [
            "0x9853b992610853aa2f058d95d0a4868ffcd37470b93a5e6634619467e0d4228c",
            "0xf504c9485322666d6e56fe94894887d5f341938bea86d915c400a66e9b6243df",
            "0x000000000000000000000000699bceebd59a5b52bb586c737cd7ba636f3fe602",
            "0x00000000000000000000000000000000000000000000000000276f642501c000"
          ],
          "data": "0x00000000000000000000000000000000000000000000000000000000662d3e34000000000000000000000000699bceebd59a5b52bb586c737cd7ba636f3fe60200000000000000000000000000000000000000000000000000000000000138820000000000000000000000000000000000000000000000a2a15d09519be000000000000000000000000000000000000000000000000000000de0b6b3a7640000",
          "blockHash": "0xbfc87613d254edcc99faf3cd87da82021b38c8af21618694b0de77f6e1d17b8a",
          "blockNumber": "0x5859ed",
          "transactionHash": "0x41ed4451aeb4383963e6c563fbabfddcb08f52c458f2f43a621abbc0a37c8f76",
          "transactionIndex": "0x4b",
          "logIndex": "0xa2",
          "removed": false
        },
        {
          "address": "0x23dd1aa37b5c81d64586c021330d61d3ad55aafb",
          "topics": [
            "0x9853b992610853aa2f058d95d0a4868ffcd37470b93a5e6634619467e0d4228c",
            "0xb3117276c9abd8fa761c066fd43c372100149a04de057f7fadb242991d2cdaf9",
            "0x000000000000000000000000699bceebd59a5b52bb586c737cd7ba636f3fe602",
            "0x0000000000000000000000000000000000000000000000000027ca57357c0000"
          ],
          "data": "0x00000000000000000000000000000000000000000000000000000000662d3e34000000000000000000000000699bceebd59a5b52bb586c737cd7ba636f3fe60200000000000000000000000000000000000000000000000000000000000138820000000000000000000000000000000000000000000000a2a15d09519be000000000000000000000000000000000000000000000000000000de0b6b3a7640000",
          "blockHash": "0xbfc87613d254edcc99faf3cd87da82021b38c8af21618694b0de77f6e1d17b8a",
          "blockNumber": "0x5859ed",
          "transactionHash": "0x41ed4451aeb4383963e6c563fbabfddcb08f52c458f2f43a621abbc0a37c8f76",
          "transactionIndex": "0x4b",
          "logIndex": "0xa3",
          "removed": false
        },
        {
          "address": "0x23dd1aa37b5c81d64586c021330d61d3ad55aafb",
          "topics": [
            "0x9853b992610853aa2f058d95d0a4868ffcd37470b93a5e6634619467e0d4228c",
            "0x730e45b3f229aeaf260e9b5524ed282acd396471474377d36664355666538e84",
            "0x000000000000000000000000699bceebd59a5b52bb586c737cd7ba636f3fe602",
            "0x0000000000000000000000000000000000000000000000000028254a45f64000"
          ],
          "data": "0x00000000000000000000000000000000000000000000000000000000662d3e34000000000000000000000000699bceebd59a5b52bb586c737cd7ba636f3fe60200000000000000000000000000000000000000000000000000000000000138820000000000000000000000000000000000000000000000a2a15d09519be000000000000000000000000000000000000000000000000000000de0b6b3a7640000",
          "blockHash": "0xbfc87613d254edcc99faf3cd87da82021b38c8af21618694b0de77f6e1d17b8a",
          "blockNumber": "0x5859ed",
          "transactionHash": "0x41ed4451aeb4383963e6c563fbabfddcb08f52c458f2f43a621abbc0a37c8f76",
          "transactionIndex": "0x4b",
          "logIndex": "0xa4",
          "removed": false
        },
        {
          "address": "0x23dd1aa37b5c81d64586c021330d61d3ad55aafb",
          "topics": [
            "0x9853b992610853aa2f058d95d0a4868ffcd37470b93a5e6634619467e0d4228c",
            "0xf486440e29e8f3e0fca4cf13d6561950cfe566960b15125491245bef42fbb785",
            "0x000000000000000000000000699bceebd59a5b52bb586c737cd7ba636f3fe602",
            "0x0000000000000000000000000000000000000000000000000028803d56708000"
          ],
          "data": "0x00000000000000000000000000000000000000000000000000000000662d3e34000000000000000000000000699bceebd59a5b52bb586c737cd7ba636f3fe60200000000000000000000000000000000000000000000000000000000000138820000000000000000000000000000000000000000000000a2a15d09519be000000000000000000000000000000000000000000000000000000de0b6b3a7640000",
          "blockHash": "0xbfc87613d254edcc99faf3cd87da82021b38c8af21618694b0de77f6e1d17b8a",
          "blockNumber": "0x5859ed",
          "transactionHash": "0x41ed4451aeb4383963e6c563fbabfddcb08f52c458f2f43a621abbc0a37c8f76",
          "transactionIndex": "0x4b",
          "logIndex": "0xa5",
          "removed": false
        },
        {
          "address": "0x23dd1aa37b5c81d64586c021330d61d3ad55aafb",
          "topics": [
            "0x9853b992610853aa2f058d95d0a4868ffcd37470b93a5e6634619467e0d4228c",
            "0xde2f81a82512770c7ab0a64d780286da9b6a07a84d7196a32757b5d80645c7cb",
            "0x000000000000000000000000699bceebd59a5b52bb586c737cd7ba636f3fe602",
            "0x0000000000000000000000000000000000000000000000000028db3066eac000"
          ],
          "data": "0x00000000000000000000000000000000000000000000000000000000662d3e34000000000000000000000000699bceebd59a5b52bb586c737cd7ba636f3fe60200000000000000000000000000000000000000000000000000000000000138820000000000000000000000000000000000000000000000a2a15d09519be000000000000000000000000000000000000000000000000000000de0b6b3a7640000",
          "blockHash": "0xbfc87613d254edcc99faf3cd87da82021b38c8af21618694b0de77f6e1d17b8a",
          "blockNumber": "0x5859ed",
          "transactionHash": "0x41ed4451aeb4383963e6c563fbabfddcb08f52c458f2f43a621abbc0a37c8f76",
          "transactionIndex": "0x4b",
          "logIndex": "0xa6",
          "removed": false
        }
      ],
      "logsBloom": "0x00000000000000008000000000000000200000800000010000400000000000000000400000400010000000800000001000000000000000000000000000000000010000000000000000000000000000000000000000000000000000000000020000800000000000000000000400000000000000008000400000000000000000000000000000000000000000000210020000000000000020000000000800000000000000000000000404000000000000000000000000000000000000040000000000000000000040200400004000008000000000000000001000000000000000000000010200000000007001000000000000000100200000001000000000000000",
      "type": "0x2",
      "transactionHash": "0x41ed4451aeb4383963e6c563fbabfddcb08f52c458f2f43a621abbc0a37c8f76",
      "transactionIndex": "0x4b",
      "blockHash": "0xbfc87613d254edcc99faf3cd87da82021b38c8af21618694b0de77f6e1d17b8a",
      "blockNumber": "0x5859ed",
      "gasUsed": "0x1c72e",
      "effectiveGasPrice": "0x3bc94f71",
      "from": "0x699bceebd59a5b52bb586c737cd7ba636f3fe602",
      "to": "0x23dd1aa37b5c81d64586c021330d61d3ad55aafb",
      "contractAddress": null
    }
  ],
  "libraries": [],
  "pending": [],
  "returns": {},
  "timestamp": 1714241077,
  "chain": 11155111,
  "commit": "9546700"
}