{
  "transactions": [
    {
      "hash": "0x8d6883a9bed500f921a43053dd4088d20a65a09afdfbe5b8442f6ffe93f1349d",
      "transactionType": "CALL",
      "contractName": null,
      "contractAddress": "0x371862509e523e8fb89eb8911254c14c882fca96",
      "function": "postMessage((address,uint256,uint256)[])",
      "arguments": [
        "[(0x699BceEbD59a5b52bB586C737cD7ba636f3Fe602, 80002, 200000000000000000)]"
      ],
      "transaction": {
        "from": "0x699bceebd59a5b52bb586c737cd7ba636f3fe602",
        "to": "0x371862509e523e8fb89eb8911254c14c882fca96",
        "gas": "0x217c8",
        "value": "0x2c68af0bb140000",
        "input": "0x42cbee8d00000000000000000000000000000000000000000000000000000000000000200000000000000000000000000000000000000000000000000000000000000001000000000000000000000000699bceebd59a5b52bb586c737cd7ba636f3fe602000000000000000000000000000000000000000000000000000000000001388200000000000000000000000000000000000000000000000002c68af0bb140000",
        "nonce": "0x127",
        "chainId": "0xaa36a7",
        "accessList": null,
        "type": null
      },
      "additionalContracts": [],
      "isFixedGasLimit": false
    }
  ],
  "receipts": [
    {
      "status": "0x1",
      "cumulativeGasUsed": "0x79534b",
      "logs": [
        {
          "address": "0x371862509e523e8fb89eb8911254c14c882fca96",
          "topics": [
            "0x9853b992610853aa2f058d95d0a4868ffcd37470b93a5e6634619467e0d4228c",
            "0xbd0b27ed84e9f72d0ae694f97b38899ec56812912334bd5aaa84854f2e0255b3",
            "0x000000000000000000000000699bceebd59a5b52bb586c737cd7ba636f3fe602",
            "0x00000000000000000000000000000000000000000000000002c68af0bb140000"
          ],
          "data": "0x00000000000000000000000000000000000000000000000000000000662bcda0000000000000000000000000699bceebd59a5b52bb586c737cd7ba636f3fe60200000000000000000000000000000000000000000000000000000000000138820000000000000000000000000000000000000000000000a2a15d09519be000000000000000000000000000000000000000000000000000000de0b6b3a7640000",
          "blockHash": "0x7e49a63a86ed24228666c52d8ac3b1d0deb29fdaaa9305554f2f364e22261ea8",
          "blockNumber": "0x583c2c",
          "transactionHash": "0x8d6883a9bed500f921a43053dd4088d20a65a09afdfbe5b8442f6ffe93f1349d",
          "transactionIndex": "0x38",
          "logIndex": "0x50",
          "removed": false
        }
      ],
      "logsBloom": "0x00000000000000000000000000000000000008000000000000400000000000000000000000000000000000000000000000020000000000000000000000020000000000000000000000004000000000000000000000000000000001000000000000800004000002000000000000000000000000008000000000000000000000000000000000000000000000000000000000000000000000000000000000040000000000000000000000000000000000008000000000000000000000000000000000000000000000000000000000008000000000000000000000000000000000000000000000000000001000000000000000000100000000000000000000000000",
      "type": "0x2",
      "transactionHash": "0x8d6883a9bed500f921a43053dd4088d20a65a09afdfbe5b8442f6ffe93f1349d",
      "transactionIndex": "0x38",
      "blockHash": "0x7e49a63a86ed24228666c52d8ac3b1d0deb29fdaaa9305554f2f364e22261ea8",
      "blockNumber": "0x583c2c",
      "gasUsed": "0x16e59",
      "effectiveGasPrice": "0xc4dbf823",
      "from": "0x699bceebd59a5b52bb586c737cd7ba636f3fe602",
      "to": "0x371862509e523e8fb89eb8911254c14c882fca96",
      "contractAddress": null
    }
  ],
  "libraries": [],
  "pending": [],
  "returns": {},
  "timestamp": 1714146725,
  "chain": 11155111,
  "commit": "d8ddccd"
}