{
  "transactions": [
    {
      "hash": "0x040304967d3a00af6e8284fd0ba469fb2c46f2e809877dd2d48c20aec5ecc35e",
      "transactionType": "CALL",
      "contractName": null,
      "contractAddress": "0x371862509e523e8fb89eb8911254c14c882fca96",
      "function": "postMessage((address,uint256,uint256)[])",
      "arguments": [
        "[(0x699BceEbD59a5b52bB586C737cD7ba636f3Fe602, 80002, 11000000000000000)]"
      ],
      "transaction": {
        "from": "0x699bceebd59a5b52bb586c737cd7ba636f3fe602",
        "to": "0x371862509e523e8fb89eb8911254c14c882fca96",
        "gas": "0x217c8",
        "value": "0x27147114878000",
        "input": "0x42cbee8d00000000000000000000000000000000000000000000000000000000000000200000000000000000000000000000000000000000000000000000000000000001000000000000000000000000699bceebd59a5b52bb586c737cd7ba636f3fe60200000000000000000000000000000000000000000000000000000000000138820000000000000000000000000000000000000000000000000027147114878000",
        "nonce": "0x135",
        "chainId": "0xaa36a7",
        "accessList": null,
        "type": null
      },
      "additionalContracts": [],
      "isFixedGasLimit": false
    }
  ],
  "receipts": [
    {
      "status": "0x1",
      "cumulativeGasUsed": "0x51ee26",
      "logs": [
        {
          "address": "0x371862509e523e8fb89eb8911254c14c882fca96",
          "topics": [
            "0x9853b992610853aa2f058d95d0a4868ffcd37470b93a5e6634619467e0d4228c",
            "0xa27ac6bcf036c9515829a4385a9b785eb43066902456a684c8f9dd80c107f558",
            "0x000000000000000000000000699bceebd59a5b52bb586c737cd7ba636f3fe602",
            "0x0000000000000000000000000000000000000000000000000027147114878000"
          ],
          "data": "0x00000000000000000000000000000000000000000000000000000000662cb6b0000000000000000000000000699bceebd59a5b52bb586c737cd7ba636f3fe60200000000000000000000000000000000000000000000000000000000000138820000000000000000000000000000000000000000000000a2a15d09519be000000000000000000000000000000000000000000000000000000de0b6b3a7640000",
          "blockHash": "0xbedc22637b93fc09e2fdd00e7ecc6298387f7dc4de0ae72b9a3e53fc3626fca2",
          "blockNumber": "0x584ef5",
          "transactionHash": "0x040304967d3a00af6e8284fd0ba469fb2c46f2e809877dd2d48c20aec5ecc35e",
          "transactionIndex": "0x3b",
          "logIndex": "0x73",
          "removed": false
        }
      ],
      "logsBloom": "0x00000000000000000000000000000000000000000000000000400000000000000000000000000000000000000000000000000000000000000000000000020000000000000000000000000004000000000000000000000000000000000000000000800004000002000000000000000000000000008000000000000000000000000008000000000000050000000000000000000000000000000000000000000000000000000000000400000000000000000000000000000000000000000000000000000000000000000000000000008000000000000000000000000000000000000000000000000000001000000000000000000100000000200000000000000000",
      "type": "0x2",
      "transactionHash": "0x040304967d3a00af6e8284fd0ba469fb2c46f2e809877dd2d48c20aec5ecc35e",
      "transactionIndex": "0x3b",
      "blockHash": "0xbedc22637b93fc09e2fdd00e7ecc6298387f7dc4de0ae72b9a3e53fc3626fca2",
      "blockNumber": "0x584ef5",
      "gasUsed": "0x16e59",
      "effectiveGasPrice": "0x25a894941",
      "from": "0x699bceebd59a5b52bb586c737cd7ba636f3fe602",
      "to": "0x371862509e523e8fb89eb8911254c14c882fca96",
      "contractAddress": null
    }
  ],
  "libraries": [],
  "pending": [],
  "returns": {},
  "timestamp": 1714206391,
  "chain": 11155111,
  "commit": "d8ddccd"
}