{
  "transactions": [
    {
      "hash": "0x73f29469364054bdef6d720fc7b8dbc9b5b23573a5fa05b222643f6cd6d30901",
      "transactionType": "CALL",
      "contractName": null,
      "contractAddress": "0x23dd1aa37b5c81d64586c021330d61d3ad55aafb",
      "function": "postMessage((address,uint256,uint256)[])",
      "arguments": [
        "[(0x699BceEbD59a5b52bB586C737cD7ba636f3Fe602, 80002, 11100000000000000), (0x699BceEbD59a5b52bB586C737cD7ba636f3Fe602, 80002, 11200000000000000), (0x699BceEbD59a5b52bB586C737cD7ba636f3Fe602, 80002, 11300000000000000), (0x699BceEbD59a5b52bB586C737cD7ba636f3Fe602, 80002, 11400000000000000), (0x699BceEbD59a5b52bB586C737cD7ba636f3Fe602, 80002, 11500000000000000)]"
      ],
      "transaction": {
        "from": "0x699bceebd59a5b52bb586c737cd7ba636f3fe602",
        "to": "0x23dd1aa37b5c81d64586c021330d61d3ad55aafb",
        "gas": "0x274b6",
        "value": "0xd529ae9e860000",
        "input": "0x42cbee8d00000000000000000000000000000000000000000000000000000000000000200000000000000000000000000000000000000000000000000000000000000005000000000000000000000000699bceebd59a5b52bb586c737cd7ba636f3fe602000000000000000000000000000000000000000000000000000000000001388200000000000000000000000000000000000000000000000000276f642501c000000000000000000000000000699bceebd59a5b52bb586c737cd7ba636f3fe60200000000000000000000000000000000000000000000000000000000000138820000000000000000000000000000000000000000000000000027ca57357c0000000000000000000000000000699bceebd59a5b52bb586c737cd7ba636f3fe60200000000000000000000000000000000000000000000000000000000000138820000000000000000000000000000000000000000000000000028254a45f64000000000000000000000000000699bceebd59a5b52bb586c737cd7ba636f3fe60200000000000000000000000000000000000000000000000000000000000138820000000000000000000000000000000000000000000000000028803d56708000000000000000000000000000699bceebd59a5b52bb586c737cd7ba636f3fe60200000000000000000000000000000000000000000000000000000000000138820000000000000000000000000000000000000000000000000028db3066eac000",
        "nonce": "0x155",
        "chainId": "0xaa36a7",
        "accessList": null,
        "type": null
      },
      "additionalContracts": [],
      "isFixedGasLimit": false
    }
  ],
  "receipts": [
    {
      "status": "0x1",
      "cumulativeGasUsed": "0xf5263a",
      "logs": [
        {
          "address": "0x23dd1aa37b5c81d64586c021330d61d3ad55aafb",
          "topics": [
            "0x9853b992610853aa2f058d95d0a4868ffcd37470b93a5e6634619467e0d4228c",
            "0xcd7ad70ccb111656f0d0f2e24843212537e2a14499b710e4e4b7d402ba5745b5",
            "0x000000000000000000000000699bceebd59a5b52bb586c737cd7ba636f3fe602",
            "0x00000000000000000000000000000000000000000000000000276f642501c000"
          ],
          "data": "0x00000000000000000000000000000000000000000000000000000000662e4f1c000000000000000000000000699bceebd59a5b52bb586c737cd7ba636f3fe60200000000000000000000000000000000000000000000000000000000000138820000000000000000000000000000000000000000000000a2a15d09519be000000000000000000000000000000000000000000000000000000de0b6b3a7640000",
          "blockHash": "0xb53e362885a3778525a2bc8c262176f3cddfa4a5b9baecceb8ec5e6401abdd0d",
          "blockNumber": "0x587010",
          "transactionHash": "0x73f29469364054bdef6d720fc7b8dbc9b5b23573a5fa05b222643f6cd6d30901",
          "transactionIndex": "0x79",
          "logIndex": "0x10f",
          "removed": false
        },
        {
          "address": "0x23dd1aa37b5c81d64586c021330d61d3ad55aafb",
          "topics": [
            "0x9853b992610853aa2f058d95d0a4868ffcd37470b93a5e6634619467e0d4228c",
            "0xbdd696cd3f19663e51b795b15248d051a11873742e422bcdebb69085283b62c7",
            "0x000000000000000000000000699bceebd59a5b52bb586c737cd7ba636f3fe602",
            "0x0000000000000000000000000000000000000000000000000027ca57357c0000"
          ],
          "data": "0x00000000000000000000000000000000000000000000000000000000662e4f1c000000000000000000000000699bceebd59a5b52bb586c737cd7ba636f3fe60200000000000000000000000000000000000000000000000000000000000138820000000000000000000000000000000000000000000000a2a15d09519be000000000000000000000000000000000000000000000000000000de0b6b3a7640000",
          "blockHash": "0xb53e362885a3778525a2bc8c262176f3cddfa4a5b9baecceb8ec5e6401abdd0d",
          "blockNumber": "0x587010",
          "transactionHash": "0x73f29469364054bdef6d720fc7b8dbc9b5b23573a5fa05b222643f6cd6d30901",
          "transactionIndex": "0x79",
          "logIndex": "0x110",
          "removed": false
        },
        {
          "address": "0x23dd1aa37b5c81d64586c021330d61d3ad55aafb",
          "topics": [
            "0x9853b992610853aa2f058d95d0a4868ffcd37470b93a5e6634619467e0d4228c",
            "0xac15fd838bde4c233597df14177812ce779c983ecf29951f6df6a5edb9e81487",
            "0x000000000000000000000000699bceebd59a5b52bb586c737cd7ba636f3fe602",
            "0x0000000000000000000000000000000000000000000000000028254a45f64000"
          ],
          "data": "0x00000000000000000000000000000000000000000000000000000000662e4f1c000000000000000000000000699bceebd59a5b52bb586c737cd7ba636f3fe60200000000000000000000000000000000000000000000000000000000000138820000000000000000000000000000000000000000000000a2a15d09519be000000000000000000000000000000000000000000000000000000de0b6b3a7640000",
          "blockHash": "0xb53e362885a3778525a2bc8c262176f3cddfa4a5b9baecceb8ec5e6401abdd0d",
          "blockNumber": "0x587010",
          "transactionHash": "0x73f29469364054bdef6d720fc7b8dbc9b5b23573a5fa05b222643f6cd6d30901",
          "transactionIndex": "0x79",
          "logIndex": "0x111",
          "removed": false
        },
        {
          "address": "0x23dd1aa37b5c81d64586c021330d61d3ad55aafb",
          "topics": [
            "0x9853b992610853aa2f058d95d0a4868ffcd37470b93a5e6634619467e0d4228c",
            "0x37eacd44bcf163ac204d2993226234a287264ac1ecce8778560608bb77a3e0e4",
            "0x000000000000000000000000699bceebd59a5b52bb586c737cd7ba636f3fe602",
            "0x0000000000000000000000000000000000000000000000000028803d56708000"
          ],
          "data": "0x00000000000000000000000000000000000000000000000000000000662e4f1c000000000000000000000000699bceebd59a5b52bb586c737cd7ba636f3fe60200000000000000000000000000000000000000000000000000000000000138820000000000000000000000000000000000000000000000a2a15d09519be000000000000000000000000000000000000000000000000000000de0b6b3a7640000",
          "blockHash": "0xb53e362885a3778525a2bc8c262176f3cddfa4a5b9baecceb8ec5e6401abdd0d",
          "blockNumber": "0x587010",
          "transactionHash": "0x73f29469364054bdef6d720fc7b8dbc9b5b23573a5fa05b222643f6cd6d30901",
          "transactionIndex": "0x79",
          "logIndex": "0x112",
          "removed": false
        },
        {
          "address": "0x23dd1aa37b5c81d64586c021330d61d3ad55aafb",
          "topics": [
            "0x9853b992610853aa2f058d95d0a4868ffcd37470b93a5e6634619467e0d4228c",
            "0x9248e81f019c5a38f6973014fd2dc4568a68cab25a669c3611f2351bd7a8baac",
            "0x000000000000000000000000699bceebd59a5b52bb586c737cd7ba636f3fe602",
            "0x0000000000000000000000000000000000000000000000000028db3066eac000"
          ],
          "data": "0x00000000000000000000000000000000000000000000000000000000662e4f1c000000000000000000000000699bceebd59a5b52bb586c737cd7ba636f3fe60200000000000000000000000000000000000000000000000000000000000138820000000000000000000000000000000000000000000000a2a15d09519be000000000000000000000000000000000000000000000000000000de0b6b3a7640000",
          "blockHash": "0xb53e362885a3778525a2bc8c262176f3cddfa4a5b9baecceb8ec5e6401abdd0d",
          "blockNumber": "0x587010",
          "transactionHash": "0x73f29469364054bdef6d720fc7b8dbc9b5b23573a5fa05b222643f6cd6d30901",
          "transactionIndex": "0x79",
          "logIndex": "0x113",
          "removed": false
        }
      ],
      "logsBloom": "0x00000000000000000000000000000000200000000000000000400000000000200000400000000010000000800000201000000008000000000000000000000000010000000000800000000001000000000000000000000000200000000000000000800040000000000000000400000000000000008000000000000000000000000000000000000000000000000210060000000000000000400000000000000000000000000000000004000000000000000000000000000000000000040000000000000000000000000000404000008000000000000000000000020000000000000008010220000000005001000000000000000100200000004000000000100000",
      "type": "0x2",
      "transactionHash": "0x73f29469364054bdef6d720fc7b8dbc9b5b23573a5fa05b222643f6cd6d30901",
      "transactionIndex": "0x79",
      "blockHash": "0xb53e362885a3778525a2bc8c262176f3cddfa4a5b9baecceb8ec5e6401abdd0d",
      "blockNumber": "0x587010",
      "gasUsed": "0x1c72e",
      "effectiveGasPrice": "0x7c18dcf7",
      "from": "0x699bceebd59a5b52bb586c737cd7ba636f3fe602",
      "to": "0x23dd1aa37b5c81d64586c021330d61d3ad55aafb",
      "contractAddress": null
    }
  ],
  "libraries": [],
  "pending": [],
  "returns": {},
  "timestamp": 1714310945,
  "chain": 11155111,
  "commit": "9546700"
}