{
  "transactions": [
    {
      "hash": "0xe3dbb1fb30badbdd87c47a0836f5eeb0f427b4cdc13debb68e1a72c7d71d8b63",
      "transactionType": "CALL",
      "contractName": null,
      "contractAddress": "0x23dd1aa37b5c81d64586c021330d61d3ad55aafb",
      "function": "postMessage((address,uint256,uint256)[])",
      "arguments": [
        "[(0x699BceEbD59a5b52bB586C737cD7ba636f3Fe602, 80002, 11100000000000000), (0x699BceEbD59a5b52bB586C737cD7ba636f3Fe602, 80002, 11200000000000000), (0x699BceEbD59a5b52bB586C737cD7ba636f3Fe602, 80002, 11300000000000000), (0x699BceEbD59a5b52bB586C737cD7ba636f3Fe602, 80002, 11400000000000000), (0x699BceEbD59a5b52bB586C737cD7ba636f3Fe602, 80002, 11500000000000000), (0x699BceEbD59a5b52bB586C737cD7ba636f3Fe602, 80002, 11600000000000000), (0x699BceEbD59a5b52bB586C737cD7ba636f3Fe602, 80002, 11700000000000000), (0x699BceEbD59a5b52bB586C737cD7ba636f3Fe602, 80002, 11800000000000000), (0x699BceEbD59a5b52bB586C737cD7ba636f3Fe602, 80002, 11900000000000000), (0x699BceEbD59a5b52bB586C737cD7ba636f3Fe602, 80002, 12000000000000000), (0x699BceEbD59a5b52bB586C737cD7ba636f3Fe602, 80002, 12100000000000000), (0x699BceEbD59a5b52bB586C737cD7ba636f3Fe602, 80002, 12200000000000000), (0x699BceEbD59a5b52bB586C737cD7ba636f3Fe602, 80002, 12300000000000000), (0x699BceEbD59a5b52bB586C737cD7ba636f3Fe602, 80002, 12400000000000000), (0x699BceEbD59a5b52bB586C737cD7ba636f3Fe602, 80002, 12500000000000000), (0x699BceEbD59a5b52bB586C737cD7ba636f3Fe602, 80002, 12600000000000000), (0x699BceEbD59a5b52bB586C737cD7ba636f3Fe602, 80002, 12700000000000000), (0x699BceEbD59a5b52bB586C737cD7ba636f3Fe602, 80002, 12800000000000000), (0x699BceEbD59a5b52bB586C737cD7ba636f3Fe602, 80002, 12900000000000000), (0x699BceEbD59a5b52bB586C737cD7ba636f3Fe602, 80002, 13000000000000000)]"
      ],
      "transaction": {
        "from": "0x699bceebd59a5b52bb586c737cd7ba636f3fe602",
        "to": "0x23dd1aa37b5c81d64586c021330d61d3ad55aafb",
        "gas": "0x48100",
        "value": "0x39bb49f599a0000",
        "input": "0x42cbee8d00000000000000000000000000000000000000000000000000000000000000200000000000000000000000000000000000000000000000000000000000000014000000000000000000000000699bceebd59a5b52bb586c737cd7ba636f3fe602000000000000000000000000000000000000000000000000000000000001388200000000000000000000000000000000000000000000000000276f642501c000000000000000000000000000699bceebd59a5b52bb586c737cd7ba636f3fe60200000000000000000000000000000000000000000000000000000000000138820000000000000000000000000000000000000000000000000027ca57357c0000000000000000000000000000699bceebd59a5b52bb586c737cd7ba636f3fe60200000000000000000000000000000000000000000000000000000000000138820000000000000000000000000000000000000000000000000028254a45f64000000000000000000000000000699bceebd59a5b52bb586c737cd7ba636f3fe60200000000000000000000000000000000000000000000000000000000000138820000000000000000000000000000000000000000000000000028803d56708000000000000000000000000000699bceebd59a5b52bb586c737cd7ba636f3fe60200000000000000000000000000000000000000000000000000000000000138820000000000000000000000000000000000000000000000000028db3066eac000000000000000000000000000699bceebd59a5b52bb586c737cd7ba636f3fe60200000000000000000000000000000000000000000000000000000000000138820000000000000000000000000000000000000000000000000029362377650000000000000000000000000000699bceebd59a5b52bb586c737cd7ba636f3fe60200000000000000000000000000000000000000000000000000000000000138820000000000000000000000000000000000000000000000000029911687df4000000000000000000000000000699bceebd59a5b52bb586c737cd7ba636f3fe60200000000000000000000000000000000000000000000000000000000000138820000000000000000000000000000000000000000000000000029ec0998598000000000000000000000000000699bceebd59a5b52bb586c737cd7ba636f3fe6020000000000000000000000000000000000000000000000000000000000013882000000000000000000000000000000000000000000000000002a46fca8d3c000000000000000000000000000699bceebd59a5b52bb586c737cd7ba636f3fe6020000000000000000000000000000000000000000000000000000000000013882000000000000000000000000000000000000000000000000002aa1efb94e0000000000000000000000000000699bceebd59a5b52bb586c737cd7ba636f3fe6020000000000000000000000000000000000000000000000000000000000013882000000000000000000000000000000000000000000000000002afce2c9c84000000000000000000000000000699bceebd59a5b52bb586c737cd7ba636f3fe6020000000000000000000000000000000000000000000000000000000000013882000000000000000000000000000000000000000000000000002b57d5da428000000000000000000000000000699bceebd59a5b52bb586c737cd7ba636f3fe6020000000000000000000000000000000000000000000000000000000000013882000000000000000000000000000000000000000000000000002bb2c8eabcc000000000000000000000000000699bceebd59a5b52bb586c737cd7ba636f3fe6020000000000000000000000000000000000000000000000000000000000013882000000000000000000000000000000000000000000000000002c0dbbfb370000000000000000000000000000699bceebd59a5b52bb586c737cd7ba636f3fe6020000000000000000000000000000000000000000000000000000000000013882000000000000000000000000000000000000000000000000002c68af0bb14000000000000000000000000000699bceebd59a5b52bb586c737cd7ba636f3fe6020000000000000000000000000000000000000000000000000000000000013882000000000000000000000000000000000000000000000000002cc3a21c2b8000000000000000000000000000699bceebd59a5b52bb586c737cd7ba636f3fe6020000000000000000000000000000000000000000000000000000000000013882000000000000000000000000000000000000000000000000002d1e952ca5c000000000000000000000000000699bceebd59a5b52bb586c737cd7ba636f3fe6020000000000000000000000000000000000000000000000000000000000013882000000000000000000000000000000000000000000000000002d79883d200000000000000000000000000000699bceebd59a5b52bb586c737cd7ba636f3fe6020000000000000000000000000000000000000000000000000000000000013882000000000000000000000000000000000000000000000000002dd47b4d9a4000000000000000000000000000699bceebd59a5b52bb586c737cd7ba636f3fe6020000000000000000000000000000000000000000000000000000000000013882000000000000000000000000000000000000000000000000002e2f6e5e148000",
        "nonce": "0x193",
        "chainId": "0xaa36a7",
        "accessList": null,
        "type": null
      },
      "additionalContracts": [],
      "isFixedGasLimit": false
    }
  ],
  "receipts": [
    {
      "status": "0x1",
      "cumulativeGasUsed": "0x8c157a",
      "logs": [
        {
          "address": "0x23dd1aa37b5c81d64586c021330d61d3ad55aafb",
          "topics": [
            "0x9853b992610853aa2f058d95d0a4868ffcd37470b93a5e6634619467e0d4228c",
            "0x1b4a33c4fb883de64e1299b46920cee0065665c5ebc1784b8cc3b8e460f69dd3",
            "0x000000000000000000000000699bceebd59a5b52bb586c737cd7ba636f3fe602",
            "0x00000000000000000000000000000000000000000000000000276f642501c000"
          ],
          "data": "0x0000000000000000000000000000000000000000000000000000000066306c84000000000000000000000000699bceebd59a5b52bb586c737cd7ba636f3fe60200000000000000000000000000000000000000000000000000000000000138820000000000000000000000000000000000000000000000a2a15d09519be000000000000000000000000000000000000000000000000000000de0b6b3a7640000",
          "blockHash": "0xd498298c206205993c9d6e693defd8da1b947e0a1de6b3c233e053305429839e",
          "blockNumber": "0x58999b",
          "transactionHash": "0xe3dbb1fb30badbdd87c47a0836f5eeb0f427b4cdc13debb68e1a72c7d71d8b63",
          "transactionIndex": "0x46",
          "logIndex": "0x59",
          "removed": false
        },
        {
          "address": "0x23dd1aa37b5c81d64586c021330d61d3ad55aafb",
          "topics": [
            "0x9853b992610853aa2f058d95d0a4868ffcd37470b93a5e6634619467e0d4228c",
            "0x784ea51763f249cd087ba216bdfd9518821044e5588752804d40d1a01a0fdd9a",
            "0x000000000000000000000000699bceebd59a5b52bb586c737cd7ba636f3fe602",
            "0x0000000000000000000000000000000000000000000000000027ca57357c0000"
          ],
          "data": "0x0000000000000000000000000000000000000000000000000000000066306c84000000000000000000000000699bceebd59a5b52bb586c737cd7ba636f3fe60200000000000000000000000000000000000000000000000000000000000138820000000000000000000000000000000000000000000000a2a15d09519be000000000000000000000000000000000000000000000000000000de0b6b3a7640000",
          "blockHash": "0xd498298c206205993c9d6e693defd8da1b947e0a1de6b3c233e053305429839e",
          "blockNumber": "0x58999b",
          "transactionHash": "0xe3dbb1fb30badbdd87c47a0836f5eeb0f427b4cdc13debb68e1a72c7d71d8b63",
          "transactionIndex": "0x46",
          "logIndex": "0x5a",
          "removed": false
        },
        {
          "address": "0x23dd1aa37b5c81d64586c021330d61d3ad55aafb",
          "topics": [
            "0x9853b992610853aa2f058d95d0a4868ffcd37470b93a5e6634619467e0d4228c",
            "0x77aefe2d625f37a080a6706c2d6055fcda1022c7b576edb6022c694bae0c844a",
            "0x000000000000000000000000699bceebd59a5b52bb586c737cd7ba636f3fe602",
            "0x0000000000000000000000000000000000000000000000000028254a45f64000"
          ],
          "data": "0x0000000000000000000000000000000000000000000000000000000066306c84000000000000000000000000699bceebd59a5b52bb586c737cd7ba636f3fe60200000000000000000000000000000000000000000000000000000000000138820000000000000000000000000000000000000000000000a2a15d09519be000000000000000000000000000000000000000000000000000000de0b6b3a7640000",
          "blockHash": "0xd498298c206205993c9d6e693defd8da1b947e0a1de6b3c233e053305429839e",
          "blockNumber": "0x58999b",
          "transactionHash": "0xe3dbb1fb30badbdd87c47a0836f5eeb0f427b4cdc13debb68e1a72c7d71d8b63",
          "transactionIndex": "0x46",
          "logIndex": "0x5b",
          "removed": false
        },
        {
          "address": "0x23dd1aa37b5c81d64586c021330d61d3ad55aafb",
          "topics": [
            "0x9853b992610853aa2f058d95d0a4868ffcd37470b93a5e6634619467e0d4228c",
            "0x0466e022693f5b975515e3edfeb4d5dc7bcbbcf5f0174f8ba3071886ff025ac4",
            "0x000000000000000000000000699bceebd59a5b52bb586c737cd7ba636f3fe602",
            "0x0000000000000000000000000000000000000000000000000028803d56708000"
          ],
          "data": "0x0000000000000000000000000000000000000000000000000000000066306c84000000000000000000000000699bceebd59a5b52bb586c737cd7ba636f3fe60200000000000000000000000000000000000000000000000000000000000138820000000000000000000000000000000000000000000000a2a15d09519be000000000000000000000000000000000000000000000000000000de0b6b3a7640000",
          "blockHash": "0xd498298c206205993c9d6e693defd8da1b947e0a1de6b3c233e053305429839e",
          "blockNumber": "0x58999b",
          "transactionHash": "0xe3dbb1fb30badbdd87c47a0836f5eeb0f427b4cdc13debb68e1a72c7d71d8b63",
          "transactionIndex": "0x46",
          "logIndex": "0x5c",
          "removed": false
        },
        {
          "address": "0x23dd1aa37b5c81d64586c021330d61d3ad55aafb",
          "topics": [
            "0x9853b992610853aa2f058d95d0a4868ffcd37470b93a5e6634619467e0d4228c",
            "0xb94845e216a7a1516fd4167a0efd990f3695d0c0585a48d2011cd9ce6f5e5b9c",
            "0x000000000000000000000000699bceebd59a5b52bb586c737cd7ba636f3fe602",
            "0x0000000000000000000000000000000000000000000000000028db3066eac000"
          ],
          "data": "0x0000000000000000000000000000000000000000000000000000000066306c84000000000000000000000000699bceebd59a5b52bb586c737cd7ba636f3fe60200000000000000000000000000000000000000000000000000000000000138820000000000000000000000000000000000000000000000a2a15d09519be000000000000000000000000000000000000000000000000000000de0b6b3a7640000",
          "blockHash": "0xd498298c206205993c9d6e693defd8da1b947e0a1de6b3c233e053305429839e",
          "blockNumber": "0x58999b",
          "transactionHash": "0xe3dbb1fb30badbdd87c47a0836f5eeb0f427b4cdc13debb68e1a72c7d71d8b63",
          "transactionIndex": "0x46",
          "logIndex": "0x5d",
          "removed": false
        },
        {
          "address": "0x23dd1aa37b5c81d64586c021330d61d3ad55aafb",
          "topics": [
            "0x9853b992610853aa2f058d95d0a4868ffcd37470b93a5e6634619467e0d4228c",
            "0xd00eeefbd57affb4da2efac0baa9abbca3db0fc2eaa96f5d7367a849d6d74a81",
            "0x000000000000000000000000699bceebd59a5b52bb586c737cd7ba636f3fe602",
            "0x0000000000000000000000000000000000000000000000000029362377650000"
          ],
          "data": "0x0000000000000000000000000000000000000000000000000000000066306c84000000000000000000000000699bceebd59a5b52bb586c737cd7ba636f3fe60200000000000000000000000000000000000000000000000000000000000138820000000000000000000000000000000000000000000000a2a15d09519be000000000000000000000000000000000000000000000000000000de0b6b3a7640000",
          "blockHash": "0xd498298c206205993c9d6e693defd8da1b947e0a1de6b3c233e053305429839e",
          "blockNumber": "0x58999b",
          "transactionHash": "0xe3dbb1fb30badbdd87c47a0836f5eeb0f427b4cdc13debb68e1a72c7d71d8b63",
          "transactionIndex": "0x46",
          "logIndex": "0x5e",
          "removed": false
        },
        {
          "address": "0x23dd1aa37b5c81d64586c021330d61d3ad55aafb",
          "topics": [
            "0x9853b992610853aa2f058d95d0a4868ffcd37470b93a5e6634619467e0d4228c",
            "0x05fd5ae38cb33ab8e4e0cc43d26559af23932cac1a78581922fb3ad5152a2d69",
            "0x000000000000000000000000699bceebd59a5b52bb586c737cd7ba636f3fe602",
            "0x0000000000000000000000000000000000000000000000000029911687df4000"
          ],
          "data": "0x0000000000000000000000000000000000000000000000000000000066306c84000000000000000000000000699bceebd59a5b52bb586c737cd7ba636f3fe60200000000000000000000000000000000000000000000000000000000000138820000000000000000000000000000000000000000000000a2a15d09519be000000000000000000000000000000000000000000000000000000de0b6b3a7640000",
          "blockHash": "0xd498298c206205993c9d6e693defd8da1b947e0a1de6b3c233e053305429839e",
          "blockNumber": "0x58999b",
          "transactionHash": "0xe3dbb1fb30badbdd87c47a0836f5eeb0f427b4cdc13debb68e1a72c7d71d8b63",
          "transactionIndex": "0x46",
          "logIndex": "0x5f",
          "removed": false
        },
        {
          "address": "0x23dd1aa37b5c81d64586c021330d61d3ad55aafb",
          "topics": [
            "0x9853b992610853aa2f058d95d0a4868ffcd37470b93a5e6634619467e0d4228c",
            "0x36b49aef618a24ed123c646bb742ea3717de13d7874b7e9c86d4c2a3b7d09089",
            "0x000000000000000000000000699bceebd59a5b52bb586c737cd7ba636f3fe602",
            "0x0000000000000000000000000000000000000000000000000029ec0998598000"
          ],
          "data": "0x0000000000000000000000000000000000000000000000000000000066306c84000000000000000000000000699bceebd59a5b52bb586c737cd7ba636f3fe60200000000000000000000000000000000000000000000000000000000000138820000000000000000000000000000000000000000000000a2a15d09519be000000000000000000000000000000000000000000000000000000de0b6b3a7640000",
          "blockHash": "0xd498298c206205993c9d6e693defd8da1b947e0a1de6b3c233e053305429839e",
          "blockNumber": "0x58999b",
          "transactionHash": "0xe3dbb1fb30badbdd87c47a0836f5eeb0f427b4cdc13debb68e1a72c7d71d8b63",
          "transactionIndex": "0x46",
          "logIndex": "0x60",
          "removed": false
        },
        {
          "address": "0x23dd1aa37b5c81d64586c021330d61d3ad55aafb",
          "topics": [
            "0x9853b992610853aa2f058d95d0a4868ffcd37470b93a5e6634619467e0d4228c",
            "0xd51c4b51670bf72003a8ecc39b7dfef44a5e3ccc0b462a5573546cb88a665f19",
            "0x000000000000000000000000699bceebd59a5b52bb586c737cd7ba636f3fe602",
            "0x000000000000000000000000000000000000000000000000002a46fca8d3c000"
          ],
          "data": "0x0000000000000000000000000000000000000000000000000000000066306c84000000000000000000000000699bceebd59a5b52bb586c737cd7ba636f3fe60200000000000000000000000000000000000000000000000000000000000138820000000000000000000000000000000000000000000000a2a15d09519be000000000000000000000000000000000000000000000000000000de0b6b3a7640000",
          "blockHash": "0xd498298c206205993c9d6e693defd8da1b947e0a1de6b3c233e053305429839e",
          "blockNumber": "0x58999b",
          "transactionHash": "0xe3dbb1fb30badbdd87c47a0836f5eeb0f427b4cdc13debb68e1a72c7d71d8b63",
          "transactionIndex": "0x46",
          "logIndex": "0x61",
          "removed": false
        },
        {
          "address": "0x23dd1aa37b5c81d64586c021330d61d3ad55aafb",
          "topics": [
            "0x9853b992610853aa2f058d95d0a4868ffcd37470b93a5e6634619467e0d4228c",
            "0xe5fac6d6b9ccc1848c850679c8d781fcca4920efd76cf1f86dc0b7871d019a18",
            "0x000000000000000000000000699bceebd59a5b52bb586c737cd7ba636f3fe602",
            "0x000000000000000000000000000000000000000000000000002aa1efb94e0000"
          ],
          "data": "0x0000000000000000000000000000000000000000000000000000000066306c84000000000000000000000000699bceebd59a5b52bb586c737cd7ba636f3fe60200000000000000000000000000000000000000000000000000000000000138820000000000000000000000000000000000000000000000a2a15d09519be000000000000000000000000000000000000000000000000000000de0b6b3a7640000",
          "blockHash": "0xd498298c206205993c9d6e693defd8da1b947e0a1de6b3c233e053305429839e",
          "blockNumber": "0x58999b",
          "transactionHash": "0xe3dbb1fb30badbdd87c47a0836f5eeb0f427b4cdc13debb68e1a72c7d71d8b63",
          "transactionIndex": "0x46",
          "logIndex": "0x62",
          "removed": false
        },
        {
          "address": "0x23dd1aa37b5c81d64586c021330d61d3ad55aafb",
          "topics": [
            "0x9853b992610853aa2f058d95d0a4868ffcd37470b93a5e6634619467e0d4228c",
            "0xf6372aaab7b3762e7be4d19cba1b084871b2d70dc54c580154aed5048bc779e3",
            "0x000000000000000000000000699bceebd59a5b52bb586c737cd7ba636f3fe602",
            "0x000000000000000000000000000000000000000000000000002afce2c9c84000"
          ],
          "data": "0x0000000000000000000000000000000000000000000000000000000066306c84000000000000000000000000699bceebd59a5b52bb586c737cd7ba636f3fe60200000000000000000000000000000000000000000000000000000000000138820000000000000000000000000000000000000000000000a2a15d09519be000000000000000000000000000000000000000000000000000000de0b6b3a7640000",
          "blockHash": "0xd498298c206205993c9d6e693defd8da1b947e0a1de6b3c233e053305429839e",
          "blockNumber": "0x58999b",
          "transactionHash": "0xe3dbb1fb30badbdd87c47a0836f5eeb0f427b4cdc13debb68e1a72c7d71d8b63",
          "transactionIndex": "0x46",
          "logIndex": "0x63",
          "removed": false
        },
        {
          "address": "0x23dd1aa37b5c81d64586c021330d61d3ad55aafb",
          "topics": [
            "0x9853b992610853aa2f058d95d0a4868ffcd37470b93a5e6634619467e0d4228c",
            "0x8f662235a1bb36aa1721d8d9690d09be1c19055d399bc0e5e9cb9f1ec022b9bb",
            "0x000000000000000000000000699bceebd59a5b52bb586c737cd7ba636f3fe602",
            "0x000000000000000000000000000000000000000000000000002b57d5da428000"
          ],
          "data": "0x0000000000000000000000000000000000000000000000000000000066306c84000000000000000000000000699bceebd59a5b52bb586c737cd7ba636f3fe60200000000000000000000000000000000000000000000000000000000000138820000000000000000000000000000000000000000000000a2a15d09519be000000000000000000000000000000000000000000000000000000de0b6b3a7640000",
          "blockHash": "0xd498298c206205993c9d6e693defd8da1b947e0a1de6b3c233e053305429839e",
          "blockNumber": "0x58999b",
          "transactionHash": "0xe3dbb1fb30badbdd87c47a0836f5eeb0f427b4cdc13debb68e1a72c7d71d8b63",
          "transactionIndex": "0x46",
          "logIndex": "0x64",
          "removed": false
        },
        {
          "address": "0x23dd1aa37b5c81d64586c021330d61d3ad55aafb",
          "topics": [
            "0x9853b992610853aa2f058d95d0a4868ffcd37470b93a5e6634619467e0d4228c",
            "0xbebd6aaaf86de8af36c7cf541b7bd09b29ea0d9d2f44b961f35081bd1285885b",
            "0x000000000000000000000000699bceebd59a5b52bb586c737cd7ba636f3fe602",
            "0x000000000000000000000000000000000000000000000000002bb2c8eabcc000"
          ],
          "data": "0x0000000000000000000000000000000000000000000000000000000066306c84000000000000000000000000699bceebd59a5b52bb586c737cd7ba636f3fe60200000000000000000000000000000000000000000000000000000000000138820000000000000000000000000000000000000000000000a2a15d09519be000000000000000000000000000000000000000000000000000000de0b6b3a7640000",
          "blockHash": "0xd498298c206205993c9d6e693defd8da1b947e0a1de6b3c233e053305429839e",
          "blockNumber": "0x58999b",
          "transactionHash": "0xe3dbb1fb30badbdd87c47a0836f5eeb0f427b4cdc13debb68e1a72c7d71d8b63",
          "transactionIndex": "0x46",
          "logIndex": "0x65",
          "removed": false
        },
        {
          "address": "0x23dd1aa37b5c81d64586c021330d61d3ad55aafb",
          "topics": [
            "0x9853b992610853aa2f058d95d0a4868ffcd37470b93a5e6634619467e0d4228c",
            "0x3f5c7941f6e8264e8704f14679e537db4acda74892825021379e4111c93013b1",
            "0x000000000000000000000000699bceebd59a5b52bb586c737cd7ba636f3fe602",
            "0x000000000000000000000000000000000000000000000000002c0dbbfb370000"
          ],
          "data": "0x0000000000000000000000000000000000000000000000000000000066306c84000000000000000000000000699bceebd59a5b52bb586c737cd7ba636f3fe60200000000000000000000000000000000000000000000000000000000000138820000000000000000000000000000000000000000000000a2a15d09519be000000000000000000000000000000000000000000000000000000de0b6b3a7640000",
          "blockHash": "0xd498298c206205993c9d6e693defd8da1b947e0a1de6b3c233e053305429839e",
          "blockNumber": "0x58999b",
          "transactionHash": "0xe3dbb1fb30badbdd87c47a0836f5eeb0f427b4cdc13debb68e1a72c7d71d8b63",
          "transactionIndex": "0x46",
          "logIndex": "0x66",
          "removed": false
        },
        {
          "address": "0x23dd1aa37b5c81d64586c021330d61d3ad55aafb",
          "topics": [
            "0x9853b992610853aa2f058d95d0a4868ffcd37470b93a5e6634619467e0d4228c",
            "0x9c43bd1b667503fc4947070a1650ec82f336b08b484c6da3d03cea51168b073e",
            "0x000000000000000000000000699bceebd59a5b52bb586c737cd7ba636f3fe602",
            "0x000000000000000000000000000000000000000000000000002c68af0bb14000"
          ],
          "data": "0x0000000000000000000000000000000000000000000000000000000066306c84000000000000000000000000699bceebd59a5b52bb586c737cd7ba636f3fe60200000000000000000000000000000000000000000000000000000000000138820000000000000000000000000000000000000000000000a2a15d09519be000000000000000000000000000000000000000000000000000000de0b6b3a7640000",
          "blockHash": "0xd498298c206205993c9d6e693defd8da1b947e0a1de6b3c233e053305429839e",
          "blockNumber": "0x58999b",
          "transactionHash": "0xe3dbb1fb30badbdd87c47a0836f5eeb0f427b4cdc13debb68e1a72c7d71d8b63",
          "transactionIndex": "0x46",
          "logIndex": "0x67",
          "removed": false
        },
        {
          "address": "0x23dd1aa37b5c81d64586c021330d61d3ad55aafb",
          "topics": [
            "0x9853b992610853aa2f058d95d0a4868ffcd37470b93a5e6634619467e0d4228c",
            "0xa5a8c45e885e5952697af5e93aef9cc45e4fbb9ca13aedfcd1749cf40c62c8e1",
            "0x000000000000000000000000699bceebd59a5b52bb586c737cd7ba636f3fe602",
            "0x000000000000000000000000000000000000000000000000002cc3a21c2b8000"
          ],
          "data": "0x0000000000000000000000000000000000000000000000000000000066306c84000000000000000000000000699bceebd59a5b52bb586c737cd7ba636f3fe60200000000000000000000000000000000000000000000000000000000000138820000000000000000000000000000000000000000000000a2a15d09519be000000000000000000000000000000000000000000000000000000de0b6b3a7640000",
          "blockHash": "0xd498298c206205993c9d6e693defd8da1b947e0a1de6b3c233e053305429839e",
          "blockNumber": "0x58999b",
          "transactionHash": "0xe3dbb1fb30badbdd87c47a0836f5eeb0f427b4cdc13debb68e1a72c7d71d8b63",
          "transactionIndex": "0x46",
          "logIndex": "0x68",
          "removed": false
        },
        {
          "address": "0x23dd1aa37b5c81d64586c021330d61d3ad55aafb",
          "topics": [
            "0x9853b992610853aa2f058d95d0a4868ffcd37470b93a5e6634619467e0d4228c",
            "0x9b01765c57499149b2c55508fb2fc72aab192be31f2f11d0dc07db04c5be3f06",
            "0x000000000000000000000000699bceebd59a5b52bb586c737cd7ba636f3fe602",
            "0x000000000000000000000000000000000000000000000000002d1e952ca5c000"
          ],
          "data": "0x0000000000000000000000000000000000000000000000000000000066306c84000000000000000000000000699bceebd59a5b52bb586c737cd7ba636f3fe60200000000000000000000000000000000000000000000000000000000000138820000000000000000000000000000000000000000000000a2a15d09519be000000000000000000000000000000000000000000000000000000de0b6b3a7640000",
          "blockHash": "0xd498298c206205993c9d6e693defd8da1b947e0a1de6b3c233e053305429839e",
          "blockNumber": "0x58999b",
          "transactionHash": "0xe3dbb1fb30badbdd87c47a0836f5eeb0f427b4cdc13debb68e1a72c7d71d8b63",
          "transactionIndex": "0x46",
          "logIndex": "0x69",
          "removed": false
        },
        {
          "address": "0x23dd1aa37b5c81d64586c021330d61d3ad55aafb",
          "topics": [
            "0x9853b992610853aa2f058d95d0a4868ffcd37470b93a5e6634619467e0d4228c",
            "0xac5e791d04063723c1178efc7cc71cc009152f99eb458c58e86b537a3089e6eb",
            "0x000000000000000000000000699bceebd59a5b52bb586c737cd7ba636f3fe602",
            "0x000000000000000000000000000000000000000000000000002d79883d200000"
          ],
          "data": "0x0000000000000000000000000000000000000000000000000000000066306c84000000000000000000000000699bceebd59a5b52bb586c737cd7ba636f3fe60200000000000000000000000000000000000000000000000000000000000138820000000000000000000000000000000000000000000000a2a15d09519be000000000000000000000000000000000000000000000000000000de0b6b3a7640000",
          "blockHash": "0xd498298c206205993c9d6e693defd8da1b947e0a1de6b3c233e053305429839e",
          "blockNumber": "0x58999b",
          "transactionHash": "0xe3dbb1fb30badbdd87c47a0836f5eeb0f427b4cdc13debb68e1a72c7d71d8b63",
          "transactionIndex": "0x46",
          "logIndex": "0x6a",
          "removed": false
        },
        {
          "address": "0x23dd1aa37b5c81d64586c021330d61d3ad55aafb",
          "topics": [
            "0x9853b992610853aa2f058d95d0a4868ffcd37470b93a5e6634619467e0d4228c",
            "0xe3436651b915ebb510d203fafedddff6f72c1420b72c46f996195a1582d58592",
            "0x000000000000000000000000699bceebd59a5b52bb586c737cd7ba636f3fe602",
            "0x000000000000000000000000000000000000000000000000002dd47b4d9a4000"
          ],
          "data": "0x0000000000000000000000000000000000000000000000000000000066306c84000000000000000000000000699bceebd59a5b52bb586c737cd7ba636f3fe60200000000000000000000000000000000000000000000000000000000000138820000000000000000000000000000000000000000000000a2a15d09519be000000000000000000000000000000000000000000000000000000de0b6b3a7640000",
          "blockHash": "0xd498298c206205993c9d6e693defd8da1b947e0a1de6b3c233e053305429839e",
          "blockNumber": "0x58999b",
          "transactionHash": "0xe3dbb1fb30badbdd87c47a0836f5eeb0f427b4cdc13debb68e1a72c7d71d8b63",
          "transactionIndex": "0x46",
          "logIndex": "0x6b",
          "removed": false
        },
        {
          "address": "0x23dd1aa37b5c81d64586c021330d61d3ad55aafb",
          "topics": [
            "0x9853b992610853aa2f058d95d0a4868ffcd37470b93a5e6634619467e0d4228c",
            "0xdedfb46162b3684a2c456731a46925c30915c117961ec8a4931781f9f1a9428e",
            "0x000000000000000000000000699bceebd59a5b52bb586c737cd7ba636f3fe602",
            "0x000000000000000000000000000000000000000000000000002e2f6e5e148000"
          ],
          "data": "0x0000000000000000000000000000000000000000000000000000000066306c84000000000000000000000000699bceebd59a5b52bb586c737cd7ba636f3fe60200000000000000000000000000000000000000000000000000000000000138820000000000000000000000000000000000000000000000a2a15d09519be000000000000000000000000000000000000000000000000000000de0b6b3a7640000",
          "blockHash": "0xd498298c206205993c9d6e693defd8da1b947e0a1de6b3c233e053305429839e",
          "blockNumber": "0x58999b",
          "transactionHash": "0xe3dbb1fb30badbdd87c47a0836f5eeb0f427b4cdc13debb68e1a72c7d71d8b63",
          "transactionIndex": "0x46",
          "logIndex": "0x6c",
          "removed": false
        }
      ],
      "logsBloom": "0x20000000020000000000000000040000220101040000000010c00010100000000022405010000010000044800000001000000000000000000800000000000000010000000030400200000000000a00808018000000000000002101040040000000800002008081a10800080401e00808000022008000000000800000008004004001002000a02000000000000250020000200001000020080000000410080000000000000000000046018002000000060000000005000000c00000060000200000000000000204004400004100008000000000000120010000010000040000000000210201000008005001010000004000000104200002000010080000000000",
      "type": "0x2",
      "transactionHash": "0xe3dbb1fb30badbdd87c47a0836f5eeb0f427b4cdc13debb68e1a72c7d71d8b63",
      "transactionIndex": "0x46",
      "blockHash": "0xd498298c206205993c9d6e693defd8da1b947e0a1de6b3c233e053305429839e",
      "blockNumber": "0x58999b",
      "gasUsed": "0x31461",
      "effectiveGasPrice": "0xa725f9bd",
      "from": "0x699bceebd59a5b52bb586c737cd7ba636f3fe602",
      "to": "0x23dd1aa37b5c81d64586c021330d61d3ad55aafb",
      "contractAddress": null
    }
  ],
  "libraries": [],
  "pending": [],
  "returns": {},
  "timestamp": 1714449546,
  "chain": 11155111,
  "commit": "9546700"
}