{
  "transactions": [
    {
      "hash": "0x1c1b10cd16b0767fba03e3fc3ce8a3b0bd532ff6571819ba3e645855021eb8a2",
      "transactionType": "CALL",
      "contractName": null,
      "contractAddress": "0x23dd1aa37b5c81d64586c021330d61d3ad55aafb",
      "function": "postMessage((address,uint256,uint256)[])",
      "arguments": [
        "[(0x699BceEbD59a5b52bB586C737cD7ba636f3Fe602, 80002, 11100000000000000), (0x699BceEbD59a5b52bB586C737cD7ba636f3Fe602, 80002, 11200000000000000), (0x699BceEbD59a5b52bB586C737cD7ba636f3Fe602, 80002, 11300000000000000), (0x699BceEbD59a5b52bB586C737cD7ba636f3Fe602, 80002, 11400000000000000), (0x699BceEbD59a5b52bB586C737cD7ba636f3Fe602, 80002, 11500000000000000)]"
      ],
      "transaction": {
        "from": "0x699bceebd59a5b52bb586c737cd7ba636f3fe602",
        "to": "0x23dd1aa37b5c81d64586c021330d61d3ad55aafb",
        "gas": "0x274b6",
        "value": "0xd529ae9e860000",
        "input": "0x42cbee8d00000000000000000000000000000000000000000000000000000000000000200000000000000000000000000000000000000000000000000000000000000005000000000000000000000000699bceebd59a5b52bb586c737cd7ba636f3fe602000000000000000000000000000000000000000000000000000000000001388200000000000000000000000000000000000000000000000000276f642501c000000000000000000000000000699bceebd59a5b52bb586c737cd7ba636f3fe60200000000000000000000000000000000000000000000000000000000000138820000000000000000000000000000000000000000000000000027ca57357c0000000000000000000000000000699bceebd59a5b52bb586c737cd7ba636f3fe60200000000000000000000000000000000000000000000000000000000000138820000000000000000000000000000000000000000000000000028254a45f64000000000000000000000000000699bceebd59a5b52bb586c737cd7ba636f3fe60200000000000000000000000000000000000000000000000000000000000138820000000000000000000000000000000000000000000000000028803d56708000000000000000000000000000699bceebd59a5b52bb586c737cd7ba636f3fe60200000000000000000000000000000000000000000000000000000000000138820000000000000000000000000000000000000000000000000028db3066eac000",
        "nonce": "0x17c",
        "chainId": "0xaa36a7",
        "accessList": null,
        "type": null
      },
      "additionalContracts": [],
      "isFixedGasLimit": false
    }
  ],
  "receipts": [
    {
      "status": "0x1",
      "cumulativeGasUsed": "0xe27041",
      "logs": [
        {
          "address": "0x23dd1aa37b5c81d64586c021330d61d3ad55aafb",
          "topics": [
            "0x9853b992610853aa2f058d95d0a4868ffcd37470b93a5e6634619467e0d4228c",
            "0x90c677ca8d43711099f224aa68dd1b5cbda24fe1e7c5ac5161992863c01eb18e",
            "0x000000000000000000000000699bceebd59a5b52bb586c737cd7ba636f3fe602",
            "0x00000000000000000000000000000000000000000000000000276f642501c000"
          ],
          "data": "0x000000000000000000000000000000000000000000000000000000006630000c000000000000000000000000699bceebd59a5b52bb586c737cd7ba636f3fe60200000000000000000000000000000000000000000000000000000000000138820000000000000000000000000000000000000000000000a2a15d09519be000000000000000000000000000000000000000000000000000000de0b6b3a7640000",
          "blockHash": "0x5f15a417780b9b5458ff63c16d03b2daecfecfca05d2422d86decd3afa4fa0a2",
          "blockNumber": "0x5891cd",
          "transactionHash": "0x1c1b10cd16b0767fba03e3fc3ce8a3b0bd532ff6571819ba3e645855021eb8a2",
          "transactionIndex": "0x4d",
          "logIndex": "0xb7",
          "removed": false
        },
        {
          "address": "0x23dd1aa37b5c81d64586c021330d61d3ad55aafb",
          "topics": [
            "0x9853b992610853aa2f058d95d0a4868ffcd37470b93a5e6634619467e0d4228c",
            "0xebba95e163ad8cc00cfe52a5845ced42183bad6288fdd619226f68fbace3fd52",
            "0x000000000000000000000000699bceebd59a5b52bb586c737cd7ba636f3fe602",
            "0x0000000000000000000000000000000000000000000000000027ca57357c0000"
          ],
          "data": "0x000000000000000000000000000000000000000000000000000000006630000c000000000000000000000000699bceebd59a5b52bb586c737cd7ba636f3fe60200000000000000000000000000000000000000000000000000000000000138820000000000000000000000000000000000000000000000a2a15d09519be000000000000000000000000000000000000000000000000000000de0b6b3a7640000",
          "blockHash": "0x5f15a417780b9b5458ff63c16d03b2daecfecfca05d2422d86decd3afa4fa0a2",
          "blockNumber": "0x5891cd",
          "transactionHash": "0x1c1b10cd16b0767fba03e3fc3ce8a3b0bd532ff6571819ba3e645855021eb8a2",
          "transactionIndex": "0x4d",
          "logIndex": "0xb8",
          "removed": false
        },
        {
          "address": "0x23dd1aa37b5c81d64586c021330d61d3ad55aafb",
          "topics": [
            "0x9853b992610853aa2f058d95d0a4868ffcd37470b93a5e6634619467e0d4228c",
            "0xac2ff6fb4ff4798a4f224e07820a9dab597a2e732bbef65aa7c7c958a008324e",
            "0x000000000000000000000000699bceebd59a5b52bb586c737cd7ba636f3fe602",
            "0x0000000000000000000000000000000000000000000000000028254a45f64000"
          ],
          "data": "0x000000000000000000000000000000000000000000000000000000006630000c000000000000000000000000699bceebd59a5b52bb586c737cd7ba636f3fe60200000000000000000000000000000000000000000000000000000000000138820000000000000000000000000000000000000000000000a2a15d09519be000000000000000000000000000000000000000000000000000000de0b6b3a7640000",
          "blockHash": "0x5f15a417780b9b5458ff63c16d03b2daecfecfca05d2422d86decd3afa4fa0a2",
          "blockNumber": "0x5891cd",
          "transactionHash": "0x1c1b10cd16b0767fba03e3fc3ce8a3b0bd532ff6571819ba3e645855021eb8a2",
          "transactionIndex": "0x4d",
          "logIndex": "0xb9",
          "removed": false
        },
        {
          "address": "0x23dd1aa37b5c81d64586c021330d61d3ad55aafb",
          "topics": [
            "0x9853b992610853aa2f058d95d0a4868ffcd37470b93a5e6634619467e0d4228c",
            "0xeba071c655290f9558c873b53ea86d9d2a6a58b15c849233debba166899253b9",
            "0x000000000000000000000000699bceebd59a5b52bb586c737cd7ba636f3fe602",
            "0x0000000000000000000000000000000000000000000000000028803d56708000"
          ],
          "data": "0x000000000000000000000000000000000000000000000000000000006630000c000000000000000000000000699bceebd59a5b52bb586c737cd7ba636f3fe60200000000000000000000000000000000000000000000000000000000000138820000000000000000000000000000000000000000000000a2a15d09519be000000000000000000000000000000000000000000000000000000de0b6b3a7640000",
          "blockHash": "0x5f15a417780b9b5458ff63c16d03b2daecfecfca05d2422d86decd3afa4fa0a2",
          "blockNumber": "0x5891cd",
          "transactionHash": "0x1c1b10cd16b0767fba03e3fc3ce8a3b0bd532ff6571819ba3e645855021eb8a2",
          "transactionIndex": "0x4d",
          "logIndex": "0xba",
          "removed": false
        },
        {
          "address": "0x23dd1aa37b5c81d64586c021330d61d3ad55aafb",
          "topics": [
            "0x9853b992610853aa2f058d95d0a4868ffcd37470b93a5e6634619467e0d4228c",
            "0x7b24e6923bf0ccc1ebcac259268e074f14b5c2f0eacabfd7debf6be0642b3447",
            "0x000000000000000000000000699bceebd59a5b52bb586c737cd7ba636f3fe602",
            "0x0000000000000000000000000000000000000000000000000028db3066eac000"
          ],
          "data": "0x000000000000000000000000000000000000000000000000000000006630000c000000000000000000000000699bceebd59a5b52bb586c737cd7ba636f3fe60200000000000000000000000000000000000000000000000000000000000138820000000000000000000000000000000000000000000000a2a15d09519be000000000000000000000000000000000000000000000000000000de0b6b3a7640000",
          "blockHash": "0x5f15a417780b9b5458ff63c16d03b2daecfecfca05d2422d86decd3afa4fa0a2",
          "blockNumber": "0x5891cd",
          "transactionHash": "0x1c1b10cd16b0767fba03e3fc3ce8a3b0bd532ff6571819ba3e645855021eb8a2",
          "transactionIndex": "0x4d",
          "logIndex": "0xbb",
          "removed": false
        }
      ],
      "logsBloom": "0x00100000000004000000000008000000200000000000000000400000000000000000400000000010000000800000001000000000000000000004000000000000010000000000800000000000000000000000000000004000000000000000000001800000800000000000000400000000000000808000000008020000080000000000000000000000000000000210020000000000000200000000000000002000000000000000000004000000000000000000000000000000000000040000000000000000000000000000004000008000000000000000000000000000000000000000050200000000005001000000000000000100200000000000000000000000",
      "type": "0x2",
      "transactionHash": "0x1c1b10cd16b0767fba03e3fc3ce8a3b0bd532ff6571819ba3e645855021eb8a2",
      "transactionIndex": "0x4d",
      "blockHash": "0x5f15a417780b9b5458ff63c16d03b2daecfecfca05d2422d86decd3afa4fa0a2",
      "blockNumber": "0x5891cd",
      "gasUsed": "0x1c72e",
      "effectiveGasPrice": "0x445e3b11",
      "from": "0x699bceebd59a5b52bb586c737cd7ba636f3fe602",
      "to": "0x23dd1aa37b5c81d64586c021330d61d3ad55aafb",
      "contractAddress": null
    }
  ],
  "libraries": [],
  "pending": [],
  "returns": {},
  "timestamp": 1714421780,
  "chain": 11155111,
  "commit": "9546700"
}