{
  "transactions": [
    {
      "hash": "0x0443baaf48603629aa07415f4af0c8179e77bf287094f33d5ec5c881a58c8ee3",
      "transactionType": "CALL",
      "contractName": null,
      "contractAddress": "0x23dd1aa37b5c81d64586c021330d61d3ad55aafb",
      "function": "postMessage((address,uint256,uint256)[])",
      "arguments": [
        "[(0x699BceEbD59a5b52bB586C737cD7ba636f3Fe602, 80002, 11100000000000000)]"
      ],
      "transaction": {
        "from": "0x699bceebd59a5b52bb586c737cd7ba636f3fe602",
        "to": "0x23dd1aa37b5c81d64586c021330d61d3ad55aafb",
        "gas": "0x1fa07",
        "value": "0x276f642501c000",
        "input": "0x42cbee8d00000000000000000000000000000000000000000000000000000000000000200000000000000000000000000000000000000000000000000000000000000001000000000000000000000000699bceebd59a5b52bb586c737cd7ba636f3fe602000000000000000000000000000000000000000000000000000000000001388200000000000000000000000000000000000000000000000000276f642501c000",
        "nonce": "0x13e",
        "chainId": "0xaa36a7",
        "accessList": null,
        "type": null
      },
      "additionalContracts": [],
      "isFixedGasLimit": false
    }
  ],
  "receipts": [
    {
      "status": "0x1",
      "cumulativeGasUsed": "0x683389",
      "logs": [
        {
          "address": "0x23dd1aa37b5c81d64586c021330d61d3ad55aafb",
          "topics": [
            "0x9853b992610853aa2f058d95d0a4868ffcd37470b93a5e6634619467e0d4228c",
            "0x4f0c95c70676f537aaebf89313346b038b9c38ce932259517e022652d767b3fb",
            "0x000000000000000000000000699bceebd59a5b52bb586c737cd7ba636f3fe602",
            "0x00000000000000000000000000000000000000000000000000276f642501c000"
          ],
          "data": "0x00000000000000000000000000000000000000000000000000000000662dd26c000000000000000000000000699bceebd59a5b52bb586c737cd7ba636f3fe60200000000000000000000000000000000000000000000000000000000000138820000000000000000000000000000000000000000000000a2a15d09519be000000000000000000000000000000000000000000000000000000de0b6b3a7640000",
          "blockHash": "0xe49d7b700d5d45fe7333907888e338bc86719a2c9af6453473740ada9c9f1ec0",
          "blockNumber": "0x5865ee",
          "transactionHash": "0x0443baaf48603629aa07415f4af0c8179e77bf287094f33d5ec5c881a58c8ee3",
          "transactionIndex": "0x40",
          "logIndex": "0x93",
          "removed": false
        }
      ],
      "logsBloom": "0x00000000000000000000000000000000000000000000000000400000000000000000000000000010000000008000000000000000080000000000000000000000000000000000000000000000000000000000000000000000000000000000000000800000000000000000000400000000000000008000000000000000000000000000000000000000000000000200000000000000000000000000000000000000000000000000000000000000000000000000000000000000000000040000000000000000080000000000000000008000000000000000000000000000000000000000010000000000001000000000000000000100200000000000000000000000",
      "type": "0x2",
      "transactionHash": "0x0443baaf48603629aa07415f4af0c8179e77bf287094f33d5ec5c881a58c8ee3",
      "transactionIndex": "0x40",
      "blockHash": "0xe49d7b700d5d45fe7333907888e338bc86719a2c9af6453473740ada9c9f1ec0",
      "blockNumber": "0x5865ee",
      "gasUsed": "0x16e5c",
      "effectiveGasPrice": "0x4d19beb3",
      "from": "0x699bceebd59a5b52bb586c737cd7ba636f3fe602",
      "to": "0x23dd1aa37b5c81d64586c021330d61d3ad55aafb",
      "contractAddress": null
    }
  ],
  "libraries": [],
  "pending": [],
  "returns": {},
  "timestamp": 1714279024,
  "chain": 11155111,
  "commit": "9546700"
}