{
  "transactions": [
    {
      "hash": "0xf62f68cb3ca8ac5bad65b8e8afacfbd04ff2692806704477e623e5bedff28c78",
      "transactionType": "CALL",
      "contractName": null,
      "contractAddress": "0x23dd1aa37b5c81d64586c021330d61d3ad55aafb",
      "function": "postMessage((address,uint256,uint256)[])",
      "arguments": [
        "[(0x699BceEbD59a5b52bB586C737cD7ba636f3Fe602, 80002, 11100000000000000), (0x699BceEbD59a5b52bB586C737cD7ba636f3Fe602, 80002, 11200000000000000), (0x699BceEbD59a5b52bB586C737cD7ba636f3Fe602, 80002, 11300000000000000), (0x699BceEbD59a5b52bB586C737cD7ba636f3Fe602, 80002, 11400000000000000), (0x699BceEbD59a5b52bB586C737cD7ba636f3Fe602, 80002, 11500000000000000)]"
      ],
      "transaction": {
        "from": "0x699bceebd59a5b52bb586c737cd7ba636f3fe602",
        "to": "0x23dd1aa37b5c81d64586c021330d61d3ad55aafb",
        "gas": "0x274b6",
        "value": "0xd529ae9e860000",
        "input": "0x42cbee8d00000000000000000000000000000000000000000000000000000000000000200000000000000000000000000000000000000000000000000000000000000005000000000000000000000000699bceebd59a5b52bb586c737cd7ba636f3fe602000000000000000000000000000000000000000000000000000000000001388200000000000000000000000000000000000000000000000000276f642501c000000000000000000000000000699bceebd59a5b52bb586c737cd7ba636f3fe60200000000000000000000000000000000000000000000000000000000000138820000000000000000000000000000000000000000000000000027ca57357c0000000000000000000000000000699bceebd59a5b52bb586c737cd7ba636f3fe60200000000000000000000000000000000000000000000000000000000000138820000000000000000000000000000000000000000000000000028254a45f64000000000000000000000000000699bceebd59a5b52bb586c737cd7ba636f3fe60200000000000000000000000000000000000000000000000000000000000138820000000000000000000000000000000000000000000000000028803d56708000000000000000000000000000699bceebd59a5b52bb586c737cd7ba636f3fe60200000000000000000000000000000000000000000000000000000000000138820000000000000000000000000000000000000000000000000028db3066eac000",
        "nonce": "0x188",
        "chainId": "0xaa36a7",
        "accessList": null,
        "type": null
      },
      "additionalContracts": [],
      "isFixedGasLimit": false
    }
  ],
  "receipts": [
    {
      "status": "0x1",
      "cumulativeGasUsed": "0xb35ad2",
      "logs": [
        {
          "address": "0x23dd1aa37b5c81d64586c021330d61d3ad55aafb",
          "topics": [
            "0x9853b992610853aa2f058d95d0a4868ffcd37470b93a5e6634619467e0d4228c",
            "0x60db88aa22e680a3bf975eea386b7a89e4c2b320a224a14dcf3b933bc7212bf8",
            "0x000000000000000000000000699bceebd59a5b52bb586c737cd7ba636f3fe602",
            "0x00000000000000000000000000000000000000000000000000276f642501c000"
          ],
          "data": "0x0000000000000000000000000000000000000000000000000000000066302ea4000000000000000000000000699bceebd59a5b52bb586c737cd7ba636f3fe60200000000000000000000000000000000000000000000000000000000000138820000000000000000000000000000000000000000000000a2a15d09519be000000000000000000000000000000000000000000000000000000de0b6b3a7640000",
          "blockHash": "0xc72271c2006b97819d281d2154997f1cd414fa445b6b407cc72e4d2af9c09fbc",
          "blockNumber": "0x58953d",
          "transactionHash": "0xf62f68cb3ca8ac5bad65b8e8afacfbd04ff2692806704477e623e5bedff28c78",
          "transactionIndex": "0x6e",
          "logIndex": "0xdf",
          "removed": false
        },
        {
          "address": "0x23dd1aa37b5c81d64586c021330d61d3ad55aafb",
          "topics": [
            "0x9853b992610853aa2f058d95d0a4868ffcd37470b93a5e6634619467e0d4228c",
            "0x1ddfb542d0daaf787c173fd717061cde0c937563b2c05bbe3174b379f208ab70",
            "0x000000000000000000000000699bceebd59a5b52bb586c737cd7ba636f3fe602",
            "0x0000000000000000000000000000000000000000000000000027ca57357c0000"
          ],
          "data": "0x0000000000000000000000000000000000000000000000000000000066302ea4000000000000000000000000699bceebd59a5b52bb586c737cd7ba636f3fe60200000000000000000000000000000000000000000000000000000000000138820000000000000000000000000000000000000000000000a2a15d09519be000000000000000000000000000000000000000000000000000000de0b6b3a7640000",
          "blockHash": "0xc72271c2006b97819d281d2154997f1cd414fa445b6b407cc72e4d2af9c09fbc",
          "blockNumber": "0x58953d",
          "transactionHash": "0xf62f68cb3ca8ac5bad65b8e8afacfbd04ff2692806704477e623e5bedff28c78",
          "transactionIndex": "0x6e",
          "logIndex": "0xe0",
          "removed": false
        },
        {
          "address": "0x23dd1aa37b5c81d64586c021330d61d3ad55aafb",
          "topics": [
            "0x9853b992610853aa2f058d95d0a4868ffcd37470b93a5e6634619467e0d4228c",
            "0x2d77a43aff16e08713e10e578de252a0981038f48cf356883062ef3b09ed2010",
            "0x000000000000000000000000699bceebd59a5b52bb586c737cd7ba636f3fe602",
            "0x0000000000000000000000000000000000000000000000000028254a45f64000"
          ],
          "data": "0x0000000000000000000000000000000000000000000000000000000066302ea4000000000000000000000000699bceebd59a5b52bb586c737cd7ba636f3fe60200000000000000000000000000000000000000000000000000000000000138820000000000000000000000000000000000000000000000a2a15d09519be000000000000000000000000000000000000000000000000000000de0b6b3a7640000",
          "blockHash": "0xc72271c2006b97819d281d2154997f1cd414fa445b6b407cc72e4d2af9c09fbc",
          "blockNumber": "0x58953d",
          "transactionHash": "0xf62f68cb3ca8ac5bad65b8e8afacfbd04ff2692806704477e623e5bedff28c78",
          "transactionIndex": "0x6e",
          "logIndex": "0xe1",
          "removed": false
        },
        {
          "address": "0x23dd1aa37b5c81d64586c021330d61d3ad55aafb",
          "topics": [
            "0x9853b992610853aa2f058d95d0a4868ffcd37470b93a5e6634619467e0d4228c",
            "0x0af164f7fd40d439bce89864361cc69105a266fb3e6313fe9b9909219befa53a",
            "0x000000000000000000000000699bceebd59a5b52bb586c737cd7ba636f3fe602",
            "0x0000000000000000000000000000000000000000000000000028803d56708000"
          ],
          "data": "0x0000000000000000000000000000000000000000000000000000000066302ea4000000000000000000000000699bceebd59a5b52bb586c737cd7ba636f3fe60200000000000000000000000000000000000000000000000000000000000138820000000000000000000000000000000000000000000000a2a15d09519be000000000000000000000000000000000000000000000000000000de0b6b3a7640000",
          "blockHash": "0xc72271c2006b97819d281d2154997f1cd414fa445b6b407cc72e4d2af9c09fbc",
          "blockNumber": "0x58953d",
          "transactionHash": "0xf62f68cb3ca8ac5bad65b8e8afacfbd04ff2692806704477e623e5bedff28c78",
          "transactionIndex": "0x6e",
          "logIndex": "0xe2",
          "removed": false
        },
        {
          "address": "0x23dd1aa37b5c81d64586c021330d61d3ad55aafb",
          "topics": [
            "0x9853b992610853aa2f058d95d0a4868ffcd37470b93a5e6634619467e0d4228c",
            "0x6ce9727fef632be3aff5ac53319772d5097627077a21c2187b63d95a5f52795e",
            "0x000000000000000000000000699bceebd59a5b52bb586c737cd7ba636f3fe602",
            "0x0000000000000000000000000000000000000000000000000028db3066eac000"
          ],
          "data": "0x0000000000000000000000000000000000000000000000000000000066302ea4000000000000000000000000699bceebd59a5b52bb586c737cd7ba636f3fe60200000000000000000000000000000000000000000000000000000000000138820000000000000000000000000000000000000000000000a2a15d09519be000000000000000000000000000000000000000000000000000000de0b6b3a7640000",
          "blockHash": "0xc72271c2006b97819d281d2154997f1cd414fa445b6b407cc72e4d2af9c09fbc",
          "blockNumber": "0x58953d",
          "transactionHash": "0xf62f68cb3ca8ac5bad65b8e8afacfbd04ff2692806704477e623e5bedff28c78",
          "transactionIndex": "0x6e",
          "logIndex": "0xe3",
          "removed": false
        }
      ],
      "logsBloom": "0x00000000000000000000000000000000200000000000000000400000000000000000400000000010000000800000001800000000000000000000000004000000010000000000000000000000000000800000000000000000008000000000000008800000000002000000010400000000000000008000000000000000000000000000000000000000040000000210020000000000000000000000000040000000000000000000000104000000000000000000008000000000000400040000000000000000000000000000004000808000000000000000000040000000000000000000010200000000005001000000000000000300200000000000000000000000",
      "type": "0x2",
      "transactionHash": "0xf62f68cb3ca8ac5bad65b8e8afacfbd04ff2692806704477e623e5bedff28c78",
      "transactionIndex": "0x6e",
      "blockHash": "0xc72271c2006b97819d281d2154997f1cd414fa445b6b407cc72e4d2af9c09fbc",
      "blockNumber": "0x58953d",
      "gasUsed": "0x1c72e",
      "effectiveGasPrice": "0x1dd4ea02",
      "from": "0x699bceebd59a5b52bb586c737cd7ba636f3fe602",
      "to": "0x23dd1aa37b5c81d64586c021330d61d3ad55aafb",
      "contractAddress": null
    }
  ],
  "libraries": [],
  "pending": [],
  "returns": {},
  "timestamp": 1714433704,
  "chain": 11155111,
  "commit": "9546700"
}