{
  "transactions": [
    {
      "hash": "0x83be9b88eb155f01187f241631375a24a06091403bedbbde22c46ee7aa741bf9",
      "transactionType": "CALL",
      "contractName": null,
      "contractAddress": "0x23dd1aa37b5c81d64586c021330d61d3ad55aafb",
      "function": "postMessage((address,uint256,uint256)[])",
      "arguments": [
        "[(0x699BceEbD59a5b52bB586C737cD7ba636f3Fe602, 80002, 11100000000000000)]"
      ],
      "transaction": {
        "from": "0x699bceebd59a5b52bb586c737cd7ba636f3fe602",
        "to": "0x23dd1aa37b5c81d64586c021330d61d3ad55aafb",
        "gas": "0x1fa07",
        "value": "0x276f642501c000",
        "input": "0x42cbee8d00000000000000000000000000000000000000000000000000000000000000200000000000000000000000000000000000000000000000000000000000000001000000000000000000000000699bceebd59a5b52bb586c737cd7ba636f3fe602000000000000000000000000000000000000000000000000000000000001388200000000000000000000000000000000000000000000000000276f642501c000",
        "nonce": "0x147",
        "chainId": "0xaa36a7",
        "accessList": null,
        "type": null
      },
      "additionalContracts": [],
      "isFixedGasLimit": false
    }
  ],
  "receipts": [
    {
      "status": "0x1",
      "cumulativeGasUsed": "0x88140a",
      "logs": [
        {
          "address": "0x23dd1aa37b5c81d64586c021330d61d3ad55aafb",
          "topics": [
            "0x9853b992610853aa2f058d95d0a4868ffcd37470b93a5e6634619467e0d4228c",
            "0x4ee9caeb866618ae520905e5ea9859dfd80274faff1ab139576a755eaa435ddc",
            "0x000000000000000000000000699bceebd59a5b52bb586c737cd7ba636f3fe602",
            "0x00000000000000000000000000000000000000000000000000276f642501c000"
          ],
          "data": "0x00000000000000000000000000000000000000000000000000000000662df630000000000000000000000000699bceebd59a5b52bb586c737cd7ba636f3fe60200000000000000000000000000000000000000000000000000000000000138820000000000000000000000000000000000000000000000a2a15d09519be000000000000000000000000000000000000000000000000000000de0b6b3a7640000",
          "blockHash": "0x60e77a683db44dd9129e3d2932cf102a0b0d7773a0e1f0208bc2658eb32ce562",
          "blockNumber": "0x5868da",
          "transactionHash": "0x83be9b88eb155f01187f241631375a24a06091403bedbbde22c46ee7aa741bf9",
          "transactionIndex": "0x4b",
          "logIndex": "0xb2",
          "removed": false
        }
      ],
      "logsBloom": "0x00000000000000000000000000000000000000000000000008400000000000000000000000000010000000000040000000000000000000000000000000080000000000000000000000000000000000000000000000000000000000000000000000800000000000000000000400000000000000008000000000000000000000000000000000000000000000000200000000000000000000000000000000000000000000000000000000000000000000000000000000000000000000040000000000000000000000000000000000008000000000000000000000000000000000000000010000000000001000000000000000000100200000000000000000000000",
      "type": "0x2",
      "transactionHash": "0x83be9b88eb155f01187f241631375a24a06091403bedbbde22c46ee7aa741bf9",
      "transactionIndex": "0x4b",
      "blockHash": "0x60e77a683db44dd9129e3d2932cf102a0b0d7773a0e1f0208bc2658eb32ce562",
      "blockNumber": "0x5868da",
      "gasUsed": "0x16e5c",
      "effectiveGasPrice": "0xa515090c",
      "from": "0x699bceebd59a5b52bb586c737cd7ba636f3fe602",
      "to": "0x23dd1aa37b5c81d64586c021330d61d3ad55aafb",
      "contractAddress": null
    }
  ],
  "libraries": [],
  "pending": [],
  "returns": {},
  "timestamp": 1714288180,
  "chain": 11155111,
  "commit": "9546700"
}