{
  "transactions": [
    {
      "hash": "0x0ca4fc358d87320afc90b3b774d2e1aada9a65ba2e8d605ff27b4d9251e39e60",
      "transactionType": "CALL",
      "contractName": null,
      "contractAddress": "0x23dd1aa37b5c81d64586c021330d61d3ad55aafb",
      "function": "postMessage((address,uint256,uint256)[])",
      "arguments": [
        "[(0x699BceEbD59a5b52bB586C737cD7ba636f3Fe602, 80002, 11100000000000000), (0x699BceEbD59a5b52bB586C737cD7ba636f3Fe602, 80002, 11200000000000000), (0x699BceEbD59a5b52bB586C737cD7ba636f3Fe602, 80002, 11300000000000000), (0x699BceEbD59a5b52bB586C737cD7ba636f3Fe602, 80002, 11400000000000000), (0x699BceEbD59a5b52bB586C737cD7ba636f3Fe602, 80002, 11500000000000000)]"
      ],
      "transaction": {
        "from": "0x699bceebd59a5b52bb586c737cd7ba636f3fe602",
        "to": "0x23dd1aa37b5c81d64586c021330d61d3ad55aafb",
        "gas": "0x274b6",
        "value": "0xd529ae9e860000",
        "input": "0x42cbee8d00000000000000000000000000000000000000000000000000000000000000200000000000000000000000000000000000000000000000000000000000000005000000000000000000000000699bceebd59a5b52bb586c737cd7ba636f3fe602000000000000000000000000000000000000000000000000000000000001388200000000000000000000000000000000000000000000000000276f642501c000000000000000000000000000699bceebd59a5b52bb586c737cd7ba636f3fe60200000000000000000000000000000000000000000000000000000000000138820000000000000000000000000000000000000000000000000027ca57357c0000000000000000000000000000699bceebd59a5b52bb586c737cd7ba636f3fe60200000000000000000000000000000000000000000000000000000000000138820000000000000000000000000000000000000000000000000028254a45f64000000000000000000000000000699bceebd59a5b52bb586c737cd7ba636f3fe60200000000000000000000000000000000000000000000000000000000000138820000000000000000000000000000000000000000000000000028803d56708000000000000000000000000000699bceebd59a5b52bb586c737cd7ba636f3fe60200000000000000000000000000000000000000000000000000000000000138820000000000000000000000000000000000000000000000000028db3066eac000",
        "nonce": "0x16b",
        "chainId": "0xaa36a7",
        "accessList": null,
        "type": null
      },
      "additionalContracts": [],
      "isFixedGasLimit": false
    }
  ],
  "receipts": [
    {
      "status": "0x1",
      "cumulativeGasUsed": "0x59999f",
      "logs": [
        {
          "address": "0x23dd1aa37b5c81d64586c021330d61d3ad55aafb",
          "topics": [
            "0x9853b992610853aa2f058d95d0a4868ffcd37470b93a5e6634619467e0d4228c",
            "0x33c511e08866db2acfa16a4dd8af33df4fac8a126337e672aecce75c4dab4740",
            "0x000000000000000000000000699bceebd59a5b52bb586c737cd7ba636f3fe602",
            "0x00000000000000000000000000000000000000000000000000276f642501c000"
          ],
          "data": "0x00000000000000000000000000000000000000000000000000000000662fd888000000000000000000000000699bceebd59a5b52bb586c737cd7ba636f3fe60200000000000000000000000000000000000000000000000000000000000138820000000000000000000000000000000000000000000000a2a15d09519be000000000000000000000000000000000000000000000000000000de0b6b3a7640000",
          "blockHash": "0x9fe93ff20838b4174931fdcf64a27f1c984542d263f75e3409effbb11d463d4d",
          "blockNumber": "0x588ed0",
          "transactionHash": "0x0ca4fc358d87320afc90b3b774d2e1aada9a65ba2e8d605ff27b4d9251e39e60",
          "transactionIndex": "0x33",
          "logIndex": "0x5f",
          "removed": false
        },
        {
          "address": "0x23dd1aa37b5c81d64586c021330d61d3ad55aafb",
          "topics": [
            "0x9853b992610853aa2f058d95d0a4868ffcd37470b93a5e6634619467e0d4228c",
            "0x399f798e353f63f6fe6cf19753f876230688abfbabd8f59b5e59e92359662be7",
            "0x000000000000000000000000699bceebd59a5b52bb586c737cd7ba636f3fe602",
            "0x0000000000000000000000000000000000000000000000000027ca57357c0000"
          ],
          "data": "0x00000000000000000000000000000000000000000000000000000000662fd888000000000000000000000000699bceebd59a5b52bb586c737cd7ba636f3fe60200000000000000000000000000000000000000000000000000000000000138820000000000000000000000000000000000000000000000a2a15d09519be000000000000000000000000000000000000000000000000000000de0b6b3a7640000",
          "blockHash": "0x9fe93ff20838b4174931fdcf64a27f1c984542d263f75e3409effbb11d463d4d",
          "blockNumber": "0x588ed0",
          "transactionHash": "0x0ca4fc358d87320afc90b3b774d2e1aada9a65ba2e8d605ff27b4d9251e39e60",
          "transactionIndex": "0x33",
          "logIndex": "0x60",
          "removed": false
        },
        {
          "address": "0x23dd1aa37b5c81d64586c021330d61d3ad55aafb",
          "topics": [
            "0x9853b992610853aa2f058d95d0a4868ffcd37470b93a5e6634619467e0d4228c",
            "0x306239a2e870197fcf12cd6dcaa54e6c0f8818b85450d4567ae31908bcad2be1",
            "0x000000000000000000000000699bceebd59a5b52bb586c737cd7ba636f3fe602",
            "0x0000000000000000000000000000000000000000000000000028254a45f64000"
          ],
          "data": "0x00000000000000000000000000000000000000000000000000000000662fd888000000000000000000000000699bceebd59a5b52bb586c737cd7ba636f3fe60200000000000000000000000000000000000000000000000000000000000138820000000000000000000000000000000000000000000000a2a15d09519be000000000000000000000000000000000000000000000000000000de0b6b3a7640000",
          "blockHash": "0x9fe93ff20838b4174931fdcf64a27f1c984542d263f75e3409effbb11d463d4d",
          "blockNumber": "0x588ed0",
          "transactionHash": "0x0ca4fc358d87320afc90b3b774d2e1aada9a65ba2e8d605ff27b4d9251e39e60",
          "transactionIndex": "0x33",
          "logIndex": "0x61",
          "removed": false
        },
        {
          "address": "0x23dd1aa37b5c81d64586c021330d61d3ad55aafb",
          "topics": [
            "0x9853b992610853aa2f058d95d0a4868ffcd37470b93a5e6634619467e0d4228c",
            "0x04715b8f51feede663bb01018de502d153ccc66deeecaeb3699c23532642018f",
            "0x000000000000000000000000699bceebd59a5b52bb586c737cd7ba636f3fe602",
            "0x0000000000000000000000000000000000000000000000000028803d56708000"
          ],
          "data": "0x00000000000000000000000000000000000000000000000000000000662fd888000000000000000000000000699bceebd59a5b52bb586c737cd7ba636f3fe60200000000000000000000000000000000000000000000000000000000000138820000000000000000000000000000000000000000000000a2a15d09519be000000000000000000000000000000000000000000000000000000de0b6b3a7640000",
          "blockHash": "0x9fe93ff20838b4174931fdcf64a27f1c984542d263f75e3409effbb11d463d4d",
          "blockNumber": "0x588ed0",
          "transactionHash": "0x0ca4fc358d87320afc90b3b774d2e1aada9a65ba2e8d605ff27b4d9251e39e60",
          "transactionIndex": "0x33",
          "logIndex": "0x62",
          "removed": false
        },
        {
          "address": "0x23dd1aa37b5c81d64586c021330d61d3ad55aafb",
          "topics": [
            "0x9853b992610853aa2f058d95d0a4868ffcd37470b93a5e6634619467e0d4228c",
            "0x717b129d68b67d3753ffe95eea53b6c9e45074b259dfe7e51d5e04d462c3b4d6",
            "0x000000000000000000000000699bceebd59a5b52bb586c737cd7ba636f3fe602",
            "0x0000000000000000000000000000000000000000000000000028db3066eac000"
          ],
          "data": "0x00000000000000000000000000000000000000000000000000000000662fd888000000000000000000000000699bceebd59a5b52bb586c737cd7ba636f3fe60200000000000000000000000000000000000000000000000000000000000138820000000000000000000000000000000000000000000000a2a15d09519be000000000000000000000000000000000000000000000000000000de0b6b3a7640000",
          "blockHash": "0x9fe93ff20838b4174931fdcf64a27f1c984542d263f75e3409effbb11d463d4d",
          "blockNumber": "0x588ed0",
          "transactionHash": "0x0ca4fc358d87320afc90b3b774d2e1aada9a65ba2e8d605ff27b4d9251e39e60",
          "transactionIndex": "0x33",
          "logIndex": "0x63",
          "removed": false
        }
      ],
      "logsBloom": "0x00020000000000000000000000002000200000002000000000400000000000000000400000000010000001a00000001000000000000000000000000000000000010000000000000000000000000000000100000000000000000000000000000000800000000000000000000400000000000000008000000400040000040000000000000000000000000000000210020000000000000000000000000000000000000000000000000004000000000000000000000000000000000000040000400000000000000000000000004000008000000000000000010000000000000000000000010a00040000005001000004000000008100200000000000000000000000",
      "type": "0x2",
      "transactionHash": "0x0ca4fc358d87320afc90b3b774d2e1aada9a65ba2e8d605ff27b4d9251e39e60",
      "transactionIndex": "0x33",
      "blockHash": "0x9fe93ff20838b4174931fdcf64a27f1c984542d263f75e3409effbb11d463d4d",
      "blockNumber": "0x588ed0",
      "gasUsed": "0x1c72e",
      "effectiveGasPrice": "0xebf0d189",
      "from": "0x699bceebd59a5b52bb586c737cd7ba636f3fe602",
      "to": "0x23dd1aa37b5c81d64586c021330d61d3ad55aafb",
      "contractAddress": null
    }
  ],
  "libraries": [],
  "pending": [],
  "returns": {},
  "timestamp": 1714411658,
  "chain": 11155111,
  "commit": "9546700"
}