{
  "transactions": [
    {
      "hash": "0x8f525880fbb0d0aa214c56e6fffa233c288ea9c9a70957524ef3561425f4e8cf",
      "transactionType": "CALL",
      "contractName": null,
      "contractAddress": "0x23dd1aa37b5c81d64586c021330d61d3ad55aafb",
      "function": "postMessage((address,uint256,uint256)[])",
      "arguments": [
        "[(0x699BceEbD59a5b52bB586C737cD7ba636f3Fe602, 80002, 11100000000000000), (0x699BceEbD59a5b52bB586C737cD7ba636f3Fe602, 80002, 11200000000000000), (0x699BceEbD59a5b52bB586C737cD7ba636f3Fe602, 80002, 11300000000000000), (0x699BceEbD59a5b52bB586C737cD7ba636f3Fe602, 80002, 11400000000000000), (0x699BceEbD59a5b52bB586C737cD7ba636f3Fe602, 80002, 11500000000000000)]"
      ],
      "transaction": {
        "from": "0x699bceebd59a5b52bb586c737cd7ba636f3fe602",
        "to": "0x23dd1aa37b5c81d64586c021330d61d3ad55aafb",
        "gas": "0x274b6",
        "value": "0xd529ae9e860000",
        "input": "0x42cbee8d00000000000000000000000000000000000000000000000000000000000000200000000000000000000000000000000000000000000000000000000000000005000000000000000000000000699bceebd59a5b52bb586c737cd7ba636f3fe602000000000000000000000000000000000000000000000000000000000001388200000000000000000000000000000000000000000000000000276f642501c000000000000000000000000000699bceebd59a5b52bb586c737cd7ba636f3fe60200000000000000000000000000000000000000000000000000000000000138820000000000000000000000000000000000000000000000000027ca57357c0000000000000000000000000000699bceebd59a5b52bb586c737cd7ba636f3fe60200000000000000000000000000000000000000000000000000000000000138820000000000000000000000000000000000000000000000000028254a45f64000000000000000000000000000699bceebd59a5b52bb586c737cd7ba636f3fe60200000000000000000000000000000000000000000000000000000000000138820000000000000000000000000000000000000000000000000028803d56708000000000000000000000000000699bceebd59a5b52bb586c737cd7ba636f3fe60200000000000000000000000000000000000000000000000000000000000138820000000000000000000000000000000000000000000000000028db3066eac000",
        "nonce": "0x18b",
        "chainId": "0xaa36a7",
        "accessList": null,
        "type": null
      },
      "additionalContracts": [],
      "isFixedGasLimit": false
    }
  ],
  "receipts": [
    {
      "status": "0x1",
      "cumulativeGasUsed": "0xd6c7d8",
      "logs": [
        {
          "address": "0x23dd1aa37b5c81d64586c021330d61d3ad55aafb",
          "topics": [
            "0x9853b992610853aa2f058d95d0a4868ffcd37470b93a5e6634619467e0d4228c",
            "0x3b4533cc43807bfbcd51d45e68e43501a6ce96ca65861ddaeeb1e8dd725075d7",
            "0x000000000000000000000000699bceebd59a5b52bb586c737cd7ba636f3fe602",
            "0x00000000000000000000000000000000000000000000000000276f642501c000"
          ],
          "data": "0x00000000000000000000000000000000000000000000000000000000663035f4000000000000000000000000699bceebd59a5b52bb586c737cd7ba636f3fe60200000000000000000000000000000000000000000000000000000000000138820000000000000000000000000000000000000000000000a2a15d09519be000000000000000000000000000000000000000000000000000000de0b6b3a7640000",
          "blockHash": "0x22bd8cff0f09cd2674040b868f01471f1718aed0970b087d9a73aa43869700ce",
          "blockNumber": "0x5895c5",
          "transactionHash": "0x8f525880fbb0d0aa214c56e6fffa233c288ea9c9a70957524ef3561425f4e8cf",
          "transactionIndex": "0x27",
          "logIndex": "0x8b",
          "removed": false
        },
        {
          "address": "0x23dd1aa37b5c81d64586c021330d61d3ad55aafb",
          "topics": [
            "0x9853b992610853aa2f058d95d0a4868ffcd37470b93a5e6634619467e0d4228c",
            "0x1db99967a2e023d8684136f292d8e6f19010eb9c3c18b64adfa95dec067d60e6",
            "0x000000000000000000000000699bceebd59a5b52bb586c737cd7ba636f3fe602",
            "0x0000000000000000000000000000000000000000000000000027ca57357c0000"
          ],
          "data": "0x00000000000000000000000000000000000000000000000000000000663035f4000000000000000000000000699bceebd59a5b52bb586c737cd7ba636f3fe60200000000000000000000000000000000000000000000000000000000000138820000000000000000000000000000000000000000000000a2a15d09519be000000000000000000000000000000000000000000000000000000de0b6b3a7640000",
          "blockHash": "0x22bd8cff0f09cd2674040b868f01471f1718aed0970b087d9a73aa43869700ce",
          "blockNumber": "0x5895c5",
          "transactionHash": "0x8f525880fbb0d0aa214c56e6fffa233c288ea9c9a70957524ef3561425f4e8cf",
          "transactionIndex": "0x27",
          "logIndex": "0x8c",
          "removed": false
        },
        {
          "address": "0x23dd1aa37b5c81d64586c021330d61d3ad55aafb",
          "topics": [
            "0x9853b992610853aa2f058d95d0a4868ffcd37470b93a5e6634619467e0d4228c",
            "0xd1c534b8f6c7f8b96343fb027d1bf65b9f9e3a78dbecdd400c4613c35c7c753c",
            "0x000000000000000000000000699bceebd59a5b52bb586c737cd7ba636f3fe602",
            "0x0000000000000000000000000000000000000000000000000028254a45f64000"
          ],
          "data": "0x00000000000000000000000000000000000000000000000000000000663035f4000000000000000000000000699bceebd59a5b52bb586c737cd7ba636f3fe60200000000000000000000000000000000000000000000000000000000000138820000000000000000000000000000000000000000000000a2a15d09519be000000000000000000000000000000000000000000000000000000de0b6b3a7640000",
          "blockHash": "0x22bd8cff0f09cd2674040b868f01471f1718aed0970b087d9a73aa43869700ce",
          "blockNumber": "0x5895c5",
          "transactionHash": "0x8f525880fbb0d0aa214c56e6fffa233c288ea9c9a70957524ef3561425f4e8cf",
          "transactionIndex": "0x27",
          "logIndex": "0x8d",
          "removed": false
        },
        {
          "address": "0x23dd1aa37b5c81d64586c021330d61d3ad55aafb",
          "topics": [
            "0x9853b992610853aa2f058d95d0a4868ffcd37470b93a5e6634619467e0d4228c",
            "0xc5120288a39a675e59f04aa49866b7e97d3f9816ab77264f4d67681bab59746b",
            "0x000000000000000000000000699bceebd59a5b52bb586c737cd7ba636f3fe602",
            "0x0000000000000000000000000000000000000000000000000028803d56708000"
          ],
          "data": "0x00000000000000000000000000000000000000000000000000000000663035f4000000000000000000000000699bceebd59a5b52bb586c737cd7ba636f3fe60200000000000000000000000000000000000000000000000000000000000138820000000000000000000000000000000000000000000000a2a15d09519be000000000000000000000000000000000000000000000000000000de0b6b3a7640000",
          "blockHash": "0x22bd8cff0f09cd2674040b868f01471f1718aed0970b087d9a73aa43869700ce",
          "blockNumber": "0x5895c5",
          "transactionHash": "0x8f525880fbb0d0aa214c56e6fffa233c288ea9c9a70957524ef3561425f4e8cf",
          "transactionIndex": "0x27",
          "logIndex": "0x8e",
          "removed": false
        },
        {
          "address": "0x23dd1aa37b5c81d64586c021330d61d3ad55aafb",
          "topics": [
            "0x9853b992610853aa2f058d95d0a4868ffcd37470b93a5e6634619467e0d4228c",
            "0x598486956d11a136174d00d09da8332edbb6e155b61984a252819c8b708ec6e7",
            "0x000000000000000000000000699bceebd59a5b52bb586c737cd7ba636f3fe602",
            "0x0000000000000000000000000000000000000000000000000028db3066eac000"
          ],
          "data": "0x00000000000000000000000000000000000000000000000000000000663035f4000000000000000000000000699bceebd59a5b52bb586c737cd7ba636f3fe60200000000000000000000000000000000000000000000000000000000000138820000000000000000000000000000000000000000000000a2a15d09519be000000000000000000000000000000000000000000000000000000de0b6b3a7640000",
          "blockHash": "0x22bd8cff0f09cd2674040b868f01471f1718aed0970b087d9a73aa43869700ce",
          "blockNumber": "0x5895c5",
          "transactionHash": "0x8f525880fbb0d0aa214c56e6fffa233c288ea9c9a70957524ef3561425f4e8cf",
          "transactionIndex": "0x27",
          "logIndex": "0x8f",
          "removed": false
        }
      ],
      "logsBloom": "0x00000000000000000000000000002000200000000000000000400000000000000000400000000010000000800000001080000000000000000000000000000000010000000000000000000000000000000000000000000000000000000000000000800000000018000000000400000000000000408000000000000000000000000000000000000000000000000210020000400000000000000000000000040000000000040000000004000000000000000000000000000000000000040000000000000000002000040020004000008000000000000000000000000000000000800000010200000000005001000000020000000100200000000000000000400000",
      "type": "0x2",
      "transactionHash": "0x8f525880fbb0d0aa214c56e6fffa233c288ea9c9a70957524ef3561425f4e8cf",
      "transactionIndex": "0x27",
      "blockHash": "0x22bd8cff0f09cd2674040b868f01471f1718aed0970b087d9a73aa43869700ce",
      "blockNumber": "0x5895c5",
      "gasUsed": "0x1c72e",
      "effectiveGasPrice": "0x3ba3f7c5",
      "from": "0x699bceebd59a5b52bb586c737cd7ba636f3fe602",
      "to": "0x23dd1aa37b5c81d64586c021330d61d3ad55aafb",
      "contractAddress": null
    }
  ],
  "libraries": [],
  "pending": [],
  "returns": {},
  "timestamp": 1714435576,
  "chain": 11155111,
  "commit": "9546700"
}