{
  "transactions": [
    {
      "hash": "0x5a065287171d050a5979b134086b3be3efc0bdc51a56366f6fe9ad443b6892d2",
      "transactionType": "CALL",
      "contractName": null,
      "contractAddress": "0x23dd1aa37b5c81d64586c021330d61d3ad55aafb",
      "function": "postMessage((address,uint256,uint256)[])",
      "arguments": [
        "[(0x699BceEbD59a5b52bB586C737cD7ba636f3Fe602, 80002, 11100000000000000), (0x699BceEbD59a5b52bB586C737cD7ba636f3Fe602, 80002, 11200000000000000), (0x699BceEbD59a5b52bB586C737cD7ba636f3Fe602, 80002, 11300000000000000), (0x699BceEbD59a5b52bB586C737cD7ba636f3Fe602, 80002, 11400000000000000), (0x699BceEbD59a5b52bB586C737cD7ba636f3Fe602, 80002, 11500000000000000)]"
      ],
      "transaction": {
        "from": "0x699bceebd59a5b52bb586c737cd7ba636f3fe602",
        "to": "0x23dd1aa37b5c81d64586c021330d61d3ad55aafb",
        "gas": "0x274b6",
        "value": "0xd529ae9e860000",
        "input": "0x42cbee8d00000000000000000000000000000000000000000000000000000000000000200000000000000000000000000000000000000000000000000000000000000005000000000000000000000000699bceebd59a5b52bb586c737cd7ba636f3fe602000000000000000000000000000000000000000000000000000000000001388200000000000000000000000000000000000000000000000000276f642501c000000000000000000000000000699bceebd59a5b52bb586c737cd7ba636f3fe60200000000000000000000000000000000000000000000000000000000000138820000000000000000000000000000000000000000000000000027ca57357c0000000000000000000000000000699bceebd59a5b52bb586c737cd7ba636f3fe60200000000000000000000000000000000000000000000000000000000000138820000000000000000000000000000000000000000000000000028254a45f64000000000000000000000000000699bceebd59a5b52bb586c737cd7ba636f3fe60200000000000000000000000000000000000000000000000000000000000138820000000000000000000000000000000000000000000000000028803d56708000000000000000000000000000699bceebd59a5b52bb586c737cd7ba636f3fe60200000000000000000000000000000000000000000000000000000000000138820000000000000000000000000000000000000000000000000028db3066eac000",
        "nonce": "0x165",
        "chainId": "0xaa36a7",
        "accessList": null,
        "type": null
      },
      "additionalContracts": [],
      "isFixedGasLimit": false
    }
  ],
  "receipts": [
    {
      "status": "0x1",
      "cumulativeGasUsed": "0x649d10",
      "logs": [
        {
          "address": "0x23dd1aa37b5c81d64586c021330d61d3ad55aafb",
          "topics": [
            "0x9853b992610853aa2f058d95d0a4868ffcd37470b93a5e6634619467e0d4228c",
            "0x5b78499fafa081e48a45cc3a566cd3cbf58d4f3520006f59781f57a728b32789",
            "0x000000000000000000000000699bceebd59a5b52bb586c737cd7ba636f3fe602",
            "0x00000000000000000000000000000000000000000000000000276f642501c000"
          ],
          "data": "0x00000000000000000000000000000000000000000000000000000000662f2380000000000000000000000000699bceebd59a5b52bb586c737cd7ba636f3fe60200000000000000000000000000000000000000000000000000000000000138820000000000000000000000000000000000000000000000a2a15d09519be000000000000000000000000000000000000000000000000000000de0b6b3a7640000",
          "blockHash": "0x1575f34b1ec5d567fb73f63e8ec08f134a2bfc24c171bcb5a7cfe1a5cf4862a0",
          "blockNumber": "0x5880ef",
          "transactionHash": "0x5a065287171d050a5979b134086b3be3efc0bdc51a56366f6fe9ad443b6892d2",
          "transactionIndex": "0x3f",
          "logIndex": "0x99",
          "removed": false
        },
        {
          "address": "0x23dd1aa37b5c81d64586c021330d61d3ad55aafb",
          "topics": [
            "0x9853b992610853aa2f058d95d0a4868ffcd37470b93a5e6634619467e0d4228c",
            "0xe9aa707ed8c590186cd10cff882888132b843dc5494d50091ed164acf190c4a6",
            "0x000000000000000000000000699bceebd59a5b52bb586c737cd7ba636f3fe602",
            "0x0000000000000000000000000000000000000000000000000027ca57357c0000"
          ],
          "data": "0x00000000000000000000000000000000000000000000000000000000662f2380000000000000000000000000699bceebd59a5b52bb586c737cd7ba636f3fe60200000000000000000000000000000000000000000000000000000000000138820000000000000000000000000000000000000000000000a2a15d09519be000000000000000000000000000000000000000000000000000000de0b6b3a7640000",
          "blockHash": "0x1575f34b1ec5d567fb73f63e8ec08f134a2bfc24c171bcb5a7cfe1a5cf4862a0",
          "blockNumber": "0x5880ef",
          "transactionHash": "0x5a065287171d050a5979b134086b3be3efc0bdc51a56366f6fe9ad443b6892d2",
          "transactionIndex": "0x3f",
          "logIndex": "0x9a",
          "removed": false
        },
        {
          "address": "0x23dd1aa37b5c81d64586c021330d61d3ad55aafb",
          "topics": [
            "0x9853b992610853aa2f058d95d0a4868ffcd37470b93a5e6634619467e0d4228c",
            "0x44e41dce6a9ead5d7e0209b4d98c8151f87ecc9a0985e21890bee4fbbfd82f9c",
            "0x000000000000000000000000699bceebd59a5b52bb586c737cd7ba636f3fe602",
            "0x0000000000000000000000000000000000000000000000000028254a45f64000"
          ],
          "data": "0x00000000000000000000000000000000000000000000000000000000662f2380000000000000000000000000699bceebd59a5b52bb586c737cd7ba636f3fe60200000000000000000000000000000000000000000000000000000000000138820000000000000000000000000000000000000000000000a2a15d09519be000000000000000000000000000000000000000000000000000000de0b6b3a7640000",
          "blockHash": "0x1575f34b1ec5d567fb73f63e8ec08f134a2bfc24c171bcb5a7cfe1a5cf4862a0",
          "blockNumber": "0x5880ef",
          "transactionHash": "0x5a065287171d050a5979b134086b3be3efc0bdc51a56366f6fe9ad443b6892d2",
          "transactionIndex": "0x3f",
          "logIndex": "0x9b",
          "removed": false
        },
        {
          "address": "0x23dd1aa37b5c81d64586c021330d61d3ad55aafb",
          "topics": [
            "0x9853b992610853aa2f058d95d0a4868ffcd37470b93a5e6634619467e0d4228c",
            "0x9276c7b2bd082f079959fd70d92dcbc23d17a22ef63763a44bc2bc66801a3b2d",
            "0x000000000000000000000000699bceebd59a5b52bb586c737cd7ba636f3fe602",
            "0x0000000000000000000000000000000000000000000000000028803d56708000"
          ],
          "data": "0x00000000000000000000000000000000000000000000000000000000662f2380000000000000000000000000699bceebd59a5b52bb586c737cd7ba636f3fe60200000000000000000000000000000000000000000000000000000000000138820000000000000000000000000000000000000000000000a2a15d09519be000000000000000000000000000000000000000000000000000000de0b6b3a7640000",
          "blockHash": "0x1575f34b1ec5d567fb73f63e8ec08f134a2bfc24c171bcb5a7cfe1a5cf4862a0",
          "blockNumber": "0x5880ef",
          "transactionHash": "0x5a065287171d050a5979b134086b3be3efc0bdc51a56366f6fe9ad443b6892d2",
          "transactionIndex": "0x3f",
          "logIndex": "0x9c",
          "removed": false
        },
        {
          "address": "0x23dd1aa37b5c81d64586c021330d61d3ad55aafb",
          "topics": [
            "0x9853b992610853aa2f058d95d0a4868ffcd37470b93a5e6634619467e0d4228c",
            "0x4bc44b2aaabd4a807f8cbeff5fbc39b006099ddcc2141dbb78b9882d343f5586",
            "0x000000000000000000000000699bceebd59a5b52bb586c737cd7ba636f3fe602",
            "0x0000000000000000000000000000000000000000000000000028db3066eac000"
          ],
          "data": "0x00000000000000000000000000000000000000000000000000000000662f2380000000000000000000000000699bceebd59a5b52bb586c737cd7ba636f3fe60200000000000000000000000000000000000000000000000000000000000138820000000000000000000000000000000000000000000000a2a15d09519be000000000000000000000000000000000000000000000000000000de0b6b3a7640000",
          "blockHash": "0x1575f34b1ec5d567fb73f63e8ec08f134a2bfc24c171bcb5a7cfe1a5cf4862a0",
          "blockNumber": "0x5880ef",
          "transactionHash": "0x5a065287171d050a5979b134086b3be3efc0bdc51a56366f6fe9ad443b6892d2",
          "transactionIndex": "0x3f",
          "logIndex": "0x9d",
          "removed": false
        }
      ],
      "logsBloom": "0x00004000000000000000000000000000200000000000000000400000000000000080400000000010000000800000005008000000000000000000000000000010010000000000000000000000000000000000000000000000000000000000000000800000000000001000000400000000000000008000000000001000000000000000002000000000000000000210020000000000020000000000000000000000008000000000000004000000000000000000000000000000000000040000000001000000000000000000004000008000000000000000000000000000000000000000010202000000007001000000000020800100200000000000000000000000",
      "type": "0x2",
      "transactionHash": "0x5a065287171d050a5979b134086b3be3efc0bdc51a56366f6fe9ad443b6892d2",
      "transactionIndex": "0x3f",
      "blockHash": "0x1575f34b1ec5d567fb73f63e8ec08f134a2bfc24c171bcb5a7cfe1a5cf4862a0",
      "blockNumber": "0x5880ef",
      "gasUsed": "0x1c72e",
      "effectiveGasPrice": "0x43e9b90a",
      "from": "0x699bceebd59a5b52bb586c737cd7ba636f3fe602",
      "to": "0x23dd1aa37b5c81d64586c021330d61d3ad55aafb",
      "contractAddress": null
    }
  ],
  "libraries": [],
  "pending": [],
  "returns": {},
  "timestamp": 1714365313,
  "chain": 11155111,
  "commit": "9546700"
}