{
  "transactions": [
    {
      "hash": "0xa1b5d2a54832d168acee9cfa3754277e36ecca45d071f69c062f1a031c057ebe",
      "transactionType": "CALL",
      "contractName": null,
      "contractAddress": "0x23dd1aa37b5c81d64586c021330d61d3ad55aafb",
      "function": "postMessage((address,uint256,uint256)[])",
      "arguments": [
        "[(0x699BceEbD59a5b52bB586C737cD7ba636f3Fe602, 80002, 11100000000000000), (0x699BceEbD59a5b52bB586C737cD7ba636f3Fe602, 80002, 11200000000000000), (0x699BceEbD59a5b52bB586C737cD7ba636f3Fe602, 80002, 11300000000000000), (0x699BceEbD59a5b52bB586C737cD7ba636f3Fe602, 80002, 11400000000000000), (0x699BceEbD59a5b52bB586C737cD7ba636f3Fe602, 80002, 11500000000000000)]"
      ],
      "transaction": {
        "from": "0x699bceebd59a5b52bb586c737cd7ba636f3fe602",
        "to": "0x23dd1aa37b5c81d64586c021330d61d3ad55aafb",
        "gas": "0x274b6",
        "value": "0xd529ae9e860000",
        "input": "0x42cbee8d00000000000000000000000000000000000000000000000000000000000000200000000000000000000000000000000000000000000000000000000000000005000000000000000000000000699bceebd59a5b52bb586c737cd7ba636f3fe602000000000000000000000000000000000000000000000000000000000001388200000000000000000000000000000000000000000000000000276f642501c000000000000000000000000000699bceebd59a5b52bb586c737cd7ba636f3fe60200000000000000000000000000000000000000000000000000000000000138820000000000000000000000000000000000000000000000000027ca57357c0000000000000000000000000000699bceebd59a5b52bb586c737cd7ba636f3fe60200000000000000000000000000000000000000000000000000000000000138820000000000000000000000000000000000000000000000000028254a45f64000000000000000000000000000699bceebd59a5b52bb586c737cd7ba636f3fe60200000000000000000000000000000000000000000000000000000000000138820000000000000000000000000000000000000000000000000028803d56708000000000000000000000000000699bceebd59a5b52bb586c737cd7ba636f3fe60200000000000000000000000000000000000000000000000000000000000138820000000000000000000000000000000000000000000000000028db3066eac000",
        "nonce": "0x186",
        "chainId": "0xaa36a7",
        "accessList": null,
        "type": null
      },
      "additionalContracts": [],
      "isFixedGasLimit": false
    }
  ],
  "receipts": [
    {
      "status": "0x1",
      "cumulativeGasUsed": "0x915b3d",
      "logs": [
        {
          "address": "0x23dd1aa37b5c81d64586c021330d61d3ad55aafb",
          "topics": [
            "0x9853b992610853aa2f058d95d0a4868ffcd37470b93a5e6634619467e0d4228c",
            "0xf94ce96397d45a9e81c5f857da0e10f87db2df9ca67a95af30638871b071e7ab",
            "0x000000000000000000000000699bceebd59a5b52bb586c737cd7ba636f3fe602",
            "0x00000000000000000000000000000000000000000000000000276f642501c000"
          ],
          "data": "0x0000000000000000000000000000000000000000000000000000000066302d24000000000000000000000000699bceebd59a5b52bb586c737cd7ba636f3fe60200000000000000000000000000000000000000000000000000000000000138820000000000000000000000000000000000000000000000a2a15d09519be000000000000000000000000000000000000000000000000000000de0b6b3a7640000",
          "blockHash": "0x46565a04250735b92d2aa39b6b251af9fb9234505b2c7b2d7cce8934a5fcfd97",
          "blockNumber": "0x58951f",
          "transactionHash": "0xa1b5d2a54832d168acee9cfa3754277e36ecca45d071f69c062f1a031c057ebe",
          "transactionIndex": "0x2f",
          "logIndex": "0x55",
          "removed": false
        },
        {
          "address": "0x23dd1aa37b5c81d64586c021330d61d3ad55aafb",
          "topics": [
            "0x9853b992610853aa2f058d95d0a4868ffcd37470b93a5e6634619467e0d4228c",
            "0xd9377e8bd5e4b80481bd0e58253f7e393056ab465869f314957f8cc56815d44d",
            "0x000000000000000000000000699bceebd59a5b52bb586c737cd7ba636f3fe602",
            "0x0000000000000000000000000000000000000000000000000027ca57357c0000"
          ],
          "data": "0x0000000000000000000000000000000000000000000000000000000066302d24000000000000000000000000699bceebd59a5b52bb586c737cd7ba636f3fe60200000000000000000000000000000000000000000000000000000000000138820000000000000000000000000000000000000000000000a2a15d09519be000000000000000000000000000000000000000000000000000000de0b6b3a7640000",
          "blockHash": "0x46565a04250735b92d2aa39b6b251af9fb9234505b2c7b2d7cce8934a5fcfd97",
          "blockNumber": "0x58951f",
          "transactionHash": "0xa1b5d2a54832d168acee9cfa3754277e36ecca45d071f69c062f1a031c057ebe",
          "transactionIndex": "0x2f",
          "logIndex": "0x56",
          "removed": false
        },
        {
          "address": "0x23dd1aa37b5c81d64586c021330d61d3ad55aafb",
          "topics": [
            "0x9853b992610853aa2f058d95d0a4868ffcd37470b93a5e6634619467e0d4228c",
            "0xc359834292f04dd3dae718971ffae2a91090c8a5a6b8fdc7ce070e14b0f64ac1",
            "0x000000000000000000000000699bceebd59a5b52bb586c737cd7ba636f3fe602",
            "0x0000000000000000000000000000000000000000000000000028254a45f64000"
          ],
          "data": "0x0000000000000000000000000000000000000000000000000000000066302d24000000000000000000000000699bceebd59a5b52bb586c737cd7ba636f3fe60200000000000000000000000000000000000000000000000000000000000138820000000000000000000000000000000000000000000000a2a15d09519be000000000000000000000000000000000000000000000000000000de0b6b3a7640000",
          "blockHash": "0x46565a04250735b92d2aa39b6b251af9fb9234505b2c7b2d7cce8934a5fcfd97",
          "blockNumber": "0x58951f",
          "transactionHash": "0xa1b5d2a54832d168acee9cfa3754277e36ecca45d071f69c062f1a031c057ebe",
          "transactionIndex": "0x2f",
          "logIndex": "0x57",
          "removed": false
        },
        {
          "address": "0x23dd1aa37b5c81d64586c021330d61d3ad55aafb",
          "topics": [
            "0x9853b992610853aa2f058d95d0a4868ffcd37470b93a5e6634619467e0d4228c",
            "0x9d87a14b1e831d437ae57279537d65ca967bc21a991f21b0dc04b51f80af4c4a",
            "0x000000000000000000000000699bceebd59a5b52bb586c737cd7ba636f3fe602",
            "0x0000000000000000000000000000000000000000000000000028803d56708000"
          ],
          "data": "0x0000000000000000000000000000000000000000000000000000000066302d24000000000000000000000000699bceebd59a5b52bb586c737cd7ba636f3fe60200000000000000000000000000000000000000000000000000000000000138820000000000000000000000000000000000000000000000a2a15d09519be000000000000000000000000000000000000000000000000000000de0b6b3a7640000",
          "blockHash": "0x46565a04250735b92d2aa39b6b251af9fb9234505b2c7b2d7cce8934a5fcfd97",
          "blockNumber": "0x58951f",
          "transactionHash": "0xa1b5d2a54832d168acee9cfa3754277e36ecca45d071f69c062f1a031c057ebe",
          "transactionIndex": "0x2f",
          "logIndex": "0x58",
          "removed": false
        },
        {
          "address": "0x23dd1aa37b5c81d64586c021330d61d3ad55aafb",
          "topics": [
            "0x9853b992610853aa2f058d95d0a4868ffcd37470b93a5e6634619467e0d4228c",
            "0x51b539964983ab836c8f73c16c07e670b1000f80cbdde4738efb8aab3fb3ed49",
            "0x000000000000000000000000699bceebd59a5b52bb586c737cd7ba636f3fe602",
            "0x0000000000000000000000000000000000000000000000000028db3066eac000"
          ],
          "data": "0x0000000000000000000000000000000000000000000000000000000066302d24000000000000000000000000699bceebd59a5b52bb586c737cd7ba636f3fe60200000000000000000000000000000000000000000000000000000000000138820000000000000000000000000000000000000000000000a2a15d09519be000000000000000000000000000000000000000000000000000000de0b6b3a7640000",
          "blockHash": "0x46565a04250735b92d2aa39b6b251af9fb9234505b2c7b2d7cce8934a5fcfd97",
          "blockNumber": "0x58951f",
          "transactionHash": "0xa1b5d2a54832d168acee9cfa3754277e36ecca45d071f69c062f1a031c057ebe",
          "transactionIndex": "0x2f",
          "logIndex": "0x59",
          "removed": false
        }
      ],
      "logsBloom": "0x00040001000000000000000000000000200000000000000000400000000000000000400000000010000000800000001000000000000000000000000000200000010000000000000000000000800000000000000000000000000000000000000000800000000000000000000400000000000000009000000000000000000000000000000000000010000000000210020000000100000002000000000000000000000000000000000004000000000000000000000000000002000000040010000000000000000000000000004000008000002000000000008000000000000000000000010240000000005001000000000002000100200000040000000000000000",
      "type": "0x2",
      "transactionHash": "0xa1b5d2a54832d168acee9cfa3754277e36ecca45d071f69c062f1a031c057ebe",
      "transactionIndex": "0x2f",
      "blockHash": "0x46565a04250735b92d2aa39b6b251af9fb9234505b2c7b2d7cce8934a5fcfd97",
      "blockNumber": "0x58951f",
      "gasUsed": "0x1c72e",
      "effectiveGasPrice": "0x2e39c46b",
      "from": "0x699bceebd59a5b52bb586c737cd7ba636f3fe602",
      "to": "0x23dd1aa37b5c81d64586c021330d61d3ad55aafb",
      "contractAddress": null
    }
  ],
  "libraries": [],
  "pending": [],
  "returns": {},
  "timestamp": 1714433324,
  "chain": 11155111,
  "commit": "9546700"
}