{
  "transactions": [
    {
      "hash": "0x73c3c755179eccaf0752cd954adec042f58df568ca9dea1a0b305f031ad187f7",
      "transactionType": "CALL",
      "contractName": null,
      "contractAddress": "0x23dd1aa37b5c81d64586c021330d61d3ad55aafb",
      "function": "postMessage((address,uint256,uint256)[])",
      "arguments": [
        "[(0x699BceEbD59a5b52bB586C737cD7ba636f3Fe602, 80002, 11100000000000000), (0x699BceEbD59a5b52bB586C737cD7ba636f3Fe602, 80002, 11200000000000000), (0x699BceEbD59a5b52bB586C737cD7ba636f3Fe602, 80002, 11300000000000000), (0x699BceEbD59a5b52bB586C737cD7ba636f3Fe602, 80002, 11400000000000000), (0x699BceEbD59a5b52bB586C737cD7ba636f3Fe602, 80002, 11500000000000000)]"
      ],
      "transaction": {
        "from": "0x699bceebd59a5b52bb586c737cd7ba636f3fe602",
        "to": "0x23dd1aa37b5c81d64586c021330d61d3ad55aafb",
        "gas": "0x274b6",
        "value": "0xd529ae9e860000",
        "input": "0x42cbee8d00000000000000000000000000000000000000000000000000000000000000200000000000000000000000000000000000000000000000000000000000000005000000000000000000000000699bceebd59a5b52bb586c737cd7ba636f3fe602000000000000000000000000000000000000000000000000000000000001388200000000000000000000000000000000000000000000000000276f642501c000000000000000000000000000699bceebd59a5b52bb586c737cd7ba636f3fe60200000000000000000000000000000000000000000000000000000000000138820000000000000000000000000000000000000000000000000027ca57357c0000000000000000000000000000699bceebd59a5b52bb586c737cd7ba636f3fe60200000000000000000000000000000000000000000000000000000000000138820000000000000000000000000000000000000000000000000028254a45f64000000000000000000000000000699bceebd59a5b52bb586c737cd7ba636f3fe60200000000000000000000000000000000000000000000000000000000000138820000000000000000000000000000000000000000000000000028803d56708000000000000000000000000000699bceebd59a5b52bb586c737cd7ba636f3fe60200000000000000000000000000000000000000000000000000000000000138820000000000000000000000000000000000000000000000000028db3066eac000",
        "nonce": "0x15c",
        "chainId": "0xaa36a7",
        "accessList": null,
        "type": null
      },
      "additionalContracts": [],
      "isFixedGasLimit": false
    }
  ],
  "receipts": [
    {
      "status": "0x1",
      "cumulativeGasUsed": "0x4709b1",
      "logs": [
        {
          "address": "0x23dd1aa37b5c81d64586c021330d61d3ad55aafb",
          "topics": [
            "0x9853b992610853aa2f058d95d0a4868ffcd37470b93a5e6634619467e0d4228c",
            "0x4b5497f01ae3cf3b673d81a4060084fecfd725d57102921e4200047e0258a9f0",
            "0x000000000000000000000000699bceebd59a5b52bb586c737cd7ba636f3fe602",
            "0x00000000000000000000000000000000000000000000000000276f642501c000"
          ],
          "data": "0x00000000000000000000000000000000000000000000000000000000662e6254000000000000000000000000699bceebd59a5b52bb586c737cd7ba636f3fe60200000000000000000000000000000000000000000000000000000000000138820000000000000000000000000000000000000000000000a2a15d09519be000000000000000000000000000000000000000000000000000000de0b6b3a7640000",
          "blockHash": "0x8ebdcc65143918cc9c91792023191f81dd9d0dbf3497b6f6cac8a4446ac880fb",
          "blockNumber": "0x5871a2",
          "transactionHash": "0x73c3c755179eccaf0752cd954adec042f58df568ca9dea1a0b305f031ad187f7",
          "transactionIndex": "0x2c",
          "logIndex": "0x63",
          "removed": false
        },
        {
          "address": "0x23dd1aa37b5c81d64586c021330d61d3ad55aafb",
          "topics": [
            "0x9853b992610853aa2f058d95d0a4868ffcd37470b93a5e6634619467e0d4228c",
            "0x84753b4e51f3b6c455bbd3ace4aa27f37d2edbcf503546a4407fcb3d95bef97c",
            "0x000000000000000000000000699bceebd59a5b52bb586c737cd7ba636f3fe602",
            "0x0000000000000000000000000000000000000000000000000027ca57357c0000"
          ],
          "data": "0x00000000000000000000000000000000000000000000000000000000662e6254000000000000000000000000699bceebd59a5b52bb586c737cd7ba636f3fe60200000000000000000000000000000000000000000000000000000000000138820000000000000000000000000000000000000000000000a2a15d09519be000000000000000000000000000000000000000000000000000000de0b6b3a7640000",
          "blockHash": "0x8ebdcc65143918cc9c91792023191f81dd9d0dbf3497b6f6cac8a4446ac880fb",
          "blockNumber": "0x5871a2",
          "transactionHash": "0x73c3c755179eccaf0752cd954adec042f58df568ca9dea1a0b305f031ad187f7",
          "transactionIndex": "0x2c",
          "logIndex": "0x64",
          "removed": false
        },
        {
          "address": "0x23dd1aa37b5c81d64586c021330d61d3ad55aafb",
          "topics": [
            "0x9853b992610853aa2f058d95d0a4868ffcd37470b93a5e6634619467e0d4228c",
            "0x92b1ac34ddd694e45cea63349a6636f8b6539ac86d32aa4f0f0c74aa20beb756",
            "0x000000000000000000000000699bceebd59a5b52bb586c737cd7ba636f3fe602",
            "0x0000000000000000000000000000000000000000000000000028254a45f64000"
          ],
          "data": "0x00000000000000000000000000000000000000000000000000000000662e6254000000000000000000000000699bceebd59a5b52bb586c737cd7ba636f3fe60200000000000000000000000000000000000000000000000000000000000138820000000000000000000000000000000000000000000000a2a15d09519be000000000000000000000000000000000000000000000000000000de0b6b3a7640000",
          "blockHash": "0x8ebdcc65143918cc9c91792023191f81dd9d0dbf3497b6f6cac8a4446ac880fb",
          "blockNumber": "0x5871a2",
          "transactionHash": "0x73c3c755179eccaf0752cd954adec042f58df568ca9dea1a0b305f031ad187f7",
          "transactionIndex": "0x2c",
          "logIndex": "0x65",
          "removed": false
        },
        {
          "address": "0x23dd1aa37b5c81d64586c021330d61d3ad55aafb",
          "topics": [
            "0x9853b992610853aa2f058d95d0a4868ffcd37470b93a5e6634619467e0d4228c",
            "0x094f454a657da4e427bf5efad9b090612cd9c595f1bcfe8a76b1a4f55b34575d",
            "0x000000000000000000000000699bceebd59a5b52bb586c737cd7ba636f3fe602",
            "0x0000000000000000000000000000000000000000000000000028803d56708000"
          ],
          "data": "0x00000000000000000000000000000000000000000000000000000000662e6254000000000000000000000000699bceebd59a5b52bb586c737cd7ba636f3fe60200000000000000000000000000000000000000000000000000000000000138820000000000000000000000000000000000000000000000a2a15d09519be000000000000000000000000000000000000000000000000000000de0b6b3a7640000",
          "blockHash": "0x8ebdcc65143918cc9c91792023191f81dd9d0dbf3497b6f6cac8a4446ac880fb",
          "blockNumber": "0x5871a2",
          "transactionHash": "0x73c3c755179eccaf0752cd954adec042f58df568ca9dea1a0b305f031ad187f7",
          "transactionIndex": "0x2c",
          "logIndex": "0x66",
          "removed": false
        },
        {
          "address": "0x23dd1aa37b5c81d64586c021330d61d3ad55aafb",
          "topics": [
            "0x9853b992610853aa2f058d95d0a4868ffcd37470b93a5e6634619467e0d4228c",
            "0x01117ecef9874dbbcb91feb11ab2c46a6b5a9dec009b9367b3f76698fc196b5b",
            "0x000000000000000000000000699bceebd59a5b52bb586c737cd7ba636f3fe602",
            "0x0000000000000000000000000000000000000000000000000028db3066eac000"
          ],
          "data": "0x00000000000000000000000000000000000000000000000000000000662e6254000000000000000000000000699bceebd59a5b52bb586c737cd7ba636f3fe60200000000000000000000000000000000000000000000000000000000000138820000000000000000000000000000000000000000000000a2a15d09519be000000000000000000000000000000000000000000000000000000de0b6b3a7640000",
          "blockHash": "0x8ebdcc65143918cc9c91792023191f81dd9d0dbf3497b6f6cac8a4446ac880fb",
          "blockNumber": "0x5871a2",
          "transactionHash": "0x73c3c755179eccaf0752cd954adec042f58df568ca9dea1a0b305f031ad187f7",
          "transactionIndex": "0x2c",
          "logIndex": "0x67",
          "removed": false
        }
      ],
      "logsBloom": "0x00000000000000000000000000000000200000000000000400400000000000000000400000000010000000800000001000000000000000000000000010000000010000000000000000000000000001000000000000000000000000400000000000800000000000000200000400000000020010008000000000000000000000000000000000000000000000000210020000000000000000000000000000000000000000000400000804000000000000000000000000000000000000040000100000000000000020000000004000008000000004000000000000000000000000000000010200000204005001000000000000000100200000000000200000000000",
      "type": "0x2",
      "transactionHash": "0x73c3c755179eccaf0752cd954adec042f58df568ca9dea1a0b305f031ad187f7",
      "transactionIndex": "0x2c",
      "blockHash": "0x8ebdcc65143918cc9c91792023191f81dd9d0dbf3497b6f6cac8a4446ac880fb",
      "blockNumber": "0x5871a2",
      "gasUsed": "0x1c72e",
      "effectiveGasPrice": "0x8d1acca8",
      "from": "0x699bceebd59a5b52bb586c737cd7ba636f3fe602",
      "to": "0x23dd1aa37b5c81d64586c021330d61d3ad55aafb",
      "contractAddress": null
    }
  ],
  "libraries": [],
  "pending": [],
  "returns": {},
  "timestamp": 1714315866,
  "chain": 11155111,
  "commit": "9546700"
}