{
  "transactions": [
    {
      "hash": "0xfde00471e54204c45c1112bb9515acfd7604396171c99effb5db7e3676b020c7",
      "transactionType": "CALL",
      "contractName": null,
      "contractAddress": "0xaa92a60b75f5c060d0beb6ee24fe8debc8f8e7d9",
      "function": "updateCommittee(bytes32,bool)",
      "arguments": [
        "0xed1ecf0256ac7bd80a1d390641fc811218a32a99e0afc40a534261168c78918e",
        "true"
      ],
      "transaction": {
        "from": "0x699bceebd59a5b52bb586c737cd7ba636f3fe602",
        "to": "0xaa92a60b75f5c060d0beb6ee24fe8debc8f8e7d9",
        "gas": "0x167ce",
        "value": "0x0",
        "input": "0x256f225aed1ecf0256ac7bd80a1d390641fc811218a32a99e0afc40a534261168c78918e0000000000000000000000000000000000000000000000000000000000000001",
        "nonce": "0xe9",
        "chainId": "0x13882",
        "accessList": null,
        "type": null
      },
      "additionalContracts": [],
      "isFixedGasLimit": false
    },
    {
      "hash": "0x13cc9c9766134ed407d18dcfcb3c58fc6aa2a35cc0a7b8883c8c96180dc6457b",
      "transactionType": "CALL",
      "contractName": null,
      "contractAddress": "0xaa92a60b75f5c060d0beb6ee24fe8debc8f8e7d9",
      "function": "updateCommittee(bytes32,bool)",
      "arguments": [
        "0x15fd1bf7a7f223445355c4840b5f9abd07bfcde68548bfa03f4f603627076195",
        "true"
      ],
      "transaction": {
        "from": "0x699bceebd59a5b52bb586c737cd7ba636f3fe602",
        "to": "0xaa92a60b75f5c060d0beb6ee24fe8debc8f8e7d9",
        "gas": "0x11b48",
        "value": "0x0",
        "input": "0x256f225a15fd1bf7a7f223445355c4840b5f9abd07bfcde68548bfa03f4f6036270761950000000000000000000000000000000000000000000000000000000000000001",
        "nonce": "0xea",
        "chainId": "0x13882",
        "accessList": null,
        "type": null
      },
      "additionalContracts": [],
      "isFixedGasLimit": false
    },
    {
      "hash": "0xeab80d13b4506814d4d9bd81583c2e7b0b9d925eec58c6eecdc3420eca3e423d",
      "transactionType": "CALL",
      "contractName": null,
      "contractAddress": "0xaa92a60b75f5c060d0beb6ee24fe8debc8f8e7d9",
      "function": "updateCommittee(bytes32,bool)",
      "arguments": [
        "0xeebe54dc3bb81e77d35a037fd4da29d90d4631eafbca7ed7ca410ef2d037f15d",
        "true"
      ],
      "transaction": {
        "from": "0x699bceebd59a5b52bb586c737cd7ba636f3fe602",
        "to": "0xaa92a60b75f5c060d0beb6ee24fe8debc8f8e7d9",
        "gas": "0x11b48",
        "value": "0x0",
        "input": "0x256f225aeebe54dc3bb81e77d35a037fd4da29d90d4631eafbca7ed7ca410ef2d037f15d0000000000000000000000000000000000000000000000000000000000000001",
        "nonce": "0xeb",
        "chainId": "0x13882",
        "accessList": null,
        "type": null
      },
      "additionalContracts": [],
      "isFixedGasLimit": false
    }
  ],
  "receipts": [
    {
      "status": "0x1",
      "cumulativeGasUsed": "0x298d5",
      "logs": [
        {
          "address": "0x0000000000000000000000000000000000001010",
          "topics": [
            "0x4dfe1bbbcf077ddc3e01291eea2d5c70c2b422b415d95645b9adcfd678cb1d63",
            "0x0000000000000000000000000000000000000000000000000000000000001010",
            "0x000000000000000000000000699bceebd59a5b52bb586c737cd7ba636f3fe602",
            "0x0000000000000000000000006ab3d36c46ecfb9b9c0bd51cb1c3da5a2c81cea6"
          ],
          "data": "0x0000000000000000000000000000000000000000000000000001e17ee382cd1f000000000000000000000000000000000000000000000000ccfd5a0b56205a9c000000000000000000000000000000000000000000000143d2c3b957611578ef000000000000000000000000000000000000000000000000ccfb788c729d8d7d000000000000000000000000000000000000000000000143d2c59ad64498460e",
          "blockHash": "0xc454d691fbe0ac01a96bbba5e9adb7a254ba6f799af0737519e5c6f6001548be",
          "blockNumber": "0x626469",
          "transactionHash": "0xfde00471e54204c45c1112bb9515acfd7604396171c99effb5db7e3676b020c7",
          "transactionIndex": "0x1",
          "logIndex": "0x3",
          "removed": false
        }
      ],
      "logsBloom": "0x00000000080000000000000000000000000000000000000000000000000000000000000000000000000000000000000000008000000000000000000000000000000000080000000000000000000000800000000000000000000100000000000000800000000000000000000000000000000000000000000080000000000000000000000000000000000000000000000000000000000000000000000000000000200000000000000000000000000000000000000000000000000000000000004000000000000000000001000000008000000000010000000000100000000000000000000000000000001000000000000000000000000000000000000000100000",
      "type": "0x2",
      "transactionHash": "0xfde00471e54204c45c1112bb9515acfd7604396171c99effb5db7e3676b020c7",
      "transactionIndex": "0x1",
      "blockHash": "0xc454d691fbe0ac01a96bbba5e9adb7a254ba6f799af0737519e5c6f6001548be",
      "blockNumber": "0x626469",
      "gasUsed": "0x1047f",
      "effectiveGasPrice": "0x1d92f6770",
      "from": "0x699bceebd59a5b52bb586c737cd7ba636f3fe602",
      "to": "0xaa92a60b75f5c060d0beb6ee24fe8debc8f8e7d9",
      "contractAddress": null
    },
    {
      "status": "0x1",
      "cumulativeGasUsed": "0x35a88",
      "logs": [
        {
          "address": "0x0000000000000000000000000000000000001010",
          "topics": [
            "0x4dfe1bbbcf077ddc3e01291eea2d5c70c2b422b415d95645b9adcfd678cb1d63",
            "0x0000000000000000000000000000000000000000000000000000000000001010",
            "0x000000000000000000000000699bceebd59a5b52bb586c737cd7ba636f3fe602",
            "0x0000000000000000000000006ab3d36c46ecfb9b9c0bd51cb1c3da5a2c81cea6"
          ],
          "data": "0x00000000000000000000000000000000000000000000000000016607991569d3000000000000000000000000000000000000000000000000ccfb788c728e4a0c000000000000000000000000000000000000000000000143d2c59ad64498460e000000000000000000000000000000000000000000000000ccfa1284d978e039000000000000000000000000000000000000000000000143d2c700ddddadafe1",
          "blockHash": "0xc454d691fbe0ac01a96bbba5e9adb7a254ba6f799af0737519e5c6f6001548be",
          "blockNumber": "0x626469",
          "transactionHash": "0x13cc9c9766134ed407d18dcfcb3c58fc6aa2a35cc0a7b8883c8c96180dc6457b",
          "transactionIndex": "0x2",
          "logIndex": "0x4",
          "removed": false
        }
      ],
      "logsBloom": "0x00000000080000000000000000000000000000000000000000000000000000000000000000000000000000000000000000008000000000000000000000000000000000080000000000000000000000800000000000000000000100000000000000800000000000000000000000000000000000000000000080000000000000000000000000000000000000000000000000000000000000000000000000000000200000000000000000000000000000000000000000000000000000000000004000000000000000000001000000008000000000010000000000100000000000000000000000000000001000000000000000000000000000000000000000100000",
      "type": "0x2",
      "transactionHash": "0x13cc9c9766134ed407d18dcfcb3c58fc6aa2a35cc0a7b8883c8c96180dc6457b",
      "transactionIndex": "0x2",
      "blockHash": "0xc454d691fbe0ac01a96bbba5e9adb7a254ba6f799af0737519e5c6f6001548be",
      "blockNumber": "0x626469",
      "gasUsed": "0xc1b3",
      "effectiveGasPrice": "0x1d92f6770",
      "from": "0x699bceebd59a5b52bb586c737cd7ba636f3fe602",
      "to": "0xaa92a60b75f5c060d0beb6ee24fe8debc8f8e7d9",
      "contractAddress": null
    },
    {
      "status": "0x1",
      "cumulativeGasUsed": "0x41c3b",
      "logs": [
        {
          "address": "0x0000000000000000000000000000000000001010",
          "topics": [
            "0x4dfe1bbbcf077ddc3e01291eea2d5c70c2b422b415d95645b9adcfd678cb1d63",
            "0x0000000000000000000000000000000000000000000000000000000000001010",
            "0x000000000000000000000000699bceebd59a5b52bb586c737cd7ba636f3fe602",
            "0x0000000000000000000000006ab3d36c46ecfb9b9c0bd51cb1c3da5a2c81cea6"
          ],
          "data": "0x00000000000000000000000000000000000000000000000000016607991569d3000000000000000000000000000000000000000000000000ccfa1284d96d86bc000000000000000000000000000000000000000000000143d2c700ddddadafe1000000000000000000000000000000000000000000000000ccf8ac7d40581ce9000000000000000000000000000000000000000000000143d2c866e576c319b4",
          "blockHash": "0xc454d691fbe0ac01a96bbba5e9adb7a254ba6f799af0737519e5c6f6001548be",
          "blockNumber": "0x626469",
          "transactionHash": "0xeab80d13b4506814d4d9bd81583c2e7b0b9d925eec58c6eecdc3420eca3e423d",
          "transactionIndex": "0x3",
          "logIndex": "0x5",
          "removed": false
        }
      ],
      "logsBloom": "0x00000000080000000000000000000000000000000000000000000000000000000000000000000000000000000000000000008000000000000000000000000000000000080000000000000000000000800000000000000000000100000000000000800000000000000000000000000000000000000000000080000000000000000000000000000000000000000000000000000000000000000000000000000000200000000000000000000000000000000000000000000000000000000000004000000000000000000001000000008000000000010000000000100000000000000000000000000000001000000000000000000000000000000000000000100000",
      "type": "0x2",
      "transactionHash": "0xeab80d13b4506814d4d9bd81583c2e7b0b9d925eec58c6eecdc3420eca3e423d",
      "transactionIndex": "0x3",
      "blockHash": "0xc454d691fbe0ac01a96bbba5e9adb7a254ba6f799af0737519e5c6f6001548be",
      "blockNumber": "0x626469",
      "gasUsed": "0xc1b3",
      "effectiveGasPrice": "0x1d92f6770",
      "from": "0x699bceebd59a5b52bb586c737cd7ba636f3fe602",
      "to": "0xaa92a60b75f5c060d0beb6ee24fe8debc8f8e7d9",
      "contractAddress": null
    }
  ],
  "libraries": [],
  "pending": [],
  "returns": {},
  "timestamp": 1714411473,
  "chain": 80002,
  "commit": "9546700"
}