{
  "transactions": [
    {
      "hash": "0xebf301525976328921ab05dccbc50e062a88e036d682c210e21e4f2441cde2f1",
      "transactionType": "CALL",
      "contractName": null,
      "contractAddress": "0x6cf9a63bfa77b0bc6d23ef603f3aa7206998b64c",
      "function": "updateCommittee(bytes32,bool)",
      "arguments": [
        "0x15fd1bf7a7f223445355c4840b5f9abd07bfcde68548bfa03f4f603627076195",
        "true"
      ],
      "transaction": {
        "from": "0x699bceebd59a5b52bb586c737cd7ba636f3fe602",
        "to": "0x6cf9a63bfa77b0bc6d23ef603f3aa7206998b64c",
        "gas": "0x10b6b",
        "value": "0x0",
        "input": "0x256f225a15fd1bf7a7f223445355c4840b5f9abd07bfcde68548bfa03f4f6036270761950000000000000000000000000000000000000000000000000000000000000001",
        "nonce": "0xe",
        "chainId": "0x13882",
        "accessList": null,
        "type": null
      },
      "additionalContracts": [],
      "isFixedGasLimit": false
    }
  ],
  "receipts": [
    {
      "status": "0x1",
      "cumulativeGasUsed": "0x279c8",
      "logs": [
        {
          "address": "0x0000000000000000000000000000000000001010",
          "topics": [
            "0x4dfe1bbbcf077ddc3e01291eea2d5c70c2b422b415d95645b9adcfd678cb1d63",
            "0x0000000000000000000000000000000000000000000000000000000000001010",
            "0x000000000000000000000000699bceebd59a5b52bb586c737cd7ba636f3fe602",
            "0x00000000000000000000000004ba3ef4c023c1006019a0f9baf6e70455e41fcf"
          ],
          "data": "0x00000000000000000000000000000000000000000000000000070b20b88067dc00000000000000000000000000000000000000000000000034fce6ee7e6b201a000000000000000000000000000000000000000000000079604ec29c4be13ae800000000000000000000000000000000000000000000000034f5dbcdc5eab83e0000000000000000000000000000000000000000000000796055cdbd0461a2c4",
          "blockHash": "0x8e8ac39b5751ddf7b930b3432316d3c42254d41472a5370d25b9e5449ae7184f",
          "blockNumber": "0x6096dc",
          "transactionHash": "0xebf301525976328921ab05dccbc50e062a88e036d682c210e21e4f2441cde2f1",
          "transactionIndex": "0x3",
          "logIndex": "0x6",
          "removed": false
        }
      ],
      "logsBloom": "0x00000000000000000000000000000000000000000000000000000000000004000000000000000000000000000000000000008000000000000000000000000000000000000000000000000000000000800000000000000000000100000000000000800000000000000000000000000000000000000000000080000000000000000000000000004000000000000000000000000000000000000000000000000000200000000000000000000000000000000000000000000000000000000000004000000000000000000001000000008000000000000000000000100000000000000000000000000000001000000000000000000000000000000000000000100000",
      "type": "0x2",
      "transactionHash": "0xebf301525976328921ab05dccbc50e062a88e036d682c210e21e4f2441cde2f1",
      "transactionIndex": "0x3",
      "blockHash": "0x8e8ac39b5751ddf7b930b3432316d3c42254d41472a5370d25b9e5449ae7184f",
      "blockNumber": "0x6096dc",
      "gasUsed": "0xc19c",
      "effectiveGasPrice": "0x9502f9000",
      "from": "0x699bceebd59a5b52bb586c737cd7ba636f3fe602",
      "to": "0x6cf9a63bfa77b0bc6d23ef603f3aa7206998b64c",
      "contractAddress": null
    }
  ],
  "libraries": [],
  "pending": [],
  "returns": {},
  "timestamp": 1714145734,
  "chain": 80002,
  "commit": "d8ddccd"
}