{
  "transactions": [
    {
      "hash": "0x7f5a83109ada6fbbf53c2753983ef746ba2b4aa6f09329b59f641f597984896a",
      "transactionType": "CALL",
      "contractName": null,
      "contractAddress": "0x88b94eb0e4319ead868162f98f9f54cabc14cfad",
      "function": "withdrawFunds(uint256)",
      "arguments": [
        "399000000000000000"
      ],
      "transaction": {
        "from": "0x699bceebd59a5b52bb586c737cd7ba636f3fe602",
        "to": "0x88b94eb0e4319ead868162f98f9f54cabc14cfad",
        "gas": "0xa5c9",
        "value": "0x0",
        "input": "0x155dd5ee00000000000000000000000000000000000000000000000005898862d1618000",
        "nonce": "0x30",
        "chainId": "0x13882",
        "accessList": null,
        "type": null
      },
      "additionalContracts": [],
      "isFixedGasLimit": false
    }
  ],
  "receipts": [
    {
      "status": "0x1",
      "cumulativeGasUsed": "0x7807",
      "logs": [
        {
          "address": "0x0000000000000000000000000000000000001010",
          "topics": [
            "0xe6497e3ee548a3372136af2fcb0696db31fc6cf20260707645068bd3fe97f3c4",
            "0x0000000000000000000000000000000000000000000000000000000000001010",
            "0x00000000000000000000000088b94eb0e4319ead868162f98f9f54cabc14cfad",
            "0x000000000000000000000000699bceebd59a5b52bb586c737cd7ba636f3fe602"
          ],
          "data": "0x00000000000000000000000000000000000000000000000005898862d1618000000000000000000000000000000000000000000000000000058d15e176280000000000000000000000000000000000000000000000000000312d38ce02ba647600000000000000000000000000000000000000000000000000038d7ea4c6800000000000000000000000000000000000000000000000000036b6c130d41be476",
          "blockHash": "0x6ce1d8340ab206278bfb39766a3dc0e101c6928f980cf1eef0e07e417db54204",
          "blockNumber": "0x611351",
          "transactionHash": "0x7f5a83109ada6fbbf53c2753983ef746ba2b4aa6f09329b59f641f597984896a",
          "transactionIndex": "0x0",
          "logIndex": "0x0",
          "removed": false
        },
        {
          "address": "0x0000000000000000000000000000000000001010",
          "topics": [
            "0x4dfe1bbbcf077ddc3e01291eea2d5c70c2b422b415d95645b9adcfd678cb1d63",
            "0x0000000000000000000000000000000000000000000000000000000000001010",
            "0x000000000000000000000000699bceebd59a5b52bb586c737cd7ba636f3fe602",
            "0x000000000000000000000000ac75d6efec891724b88b916b36e2ef38bcbec73f"
          ],
          "data": "0x000000000000000000000000000000000000000000000000000346619d99b4000000000000000000000000000000000000000000000000003131beccf8a2273d00000000000000000000000000000000000000000000012f57d841343b6d51b5000000000000000000000000000000000000000000000000312e786b5b08733d00000000000000000000000000000000000000000000012f57db8795d90705b5",
          "blockHash": "0x6ce1d8340ab206278bfb39766a3dc0e101c6928f980cf1eef0e07e417db54204",
          "blockNumber": "0x611351",
          "transactionHash": "0x7f5a83109ada6fbbf53c2753983ef746ba2b4aa6f09329b59f641f597984896a",
          "transactionIndex": "0x0",
          "logIndex": "0x1",
          "removed": false
        }
      ],
      "logsBloom": "0x00000000000000000000000000000000000000000000000000000000000000000000000000000000000000100000000000008000000000000000000000000000000000000000000000000000000000800000000000000000000100000000000000800000000000000000000000000000000000000000000080000000000000000000000000000000000000000000000000000000000000000000000000000000200008000000000000000000000000000020000000000000000100000000004000000000000000000001000000008000000008000000800000108000000000000000000000000000001000020800000000000000000000000000000000100000",
      "type": "0x2",
      "transactionHash": "0x7f5a83109ada6fbbf53c2753983ef746ba2b4aa6f09329b59f641f597984896a",
      "transactionIndex": "0x0",
      "blockHash": "0x6ce1d8340ab206278bfb39766a3dc0e101c6928f980cf1eef0e07e417db54204",
      "blockNumber": "0x611351",
      "gasUsed": "0x7807",
      "effectiveGasPrice": "0x6fc23ac0f",
      "from": "0x699bceebd59a5b52bb586c737cd7ba636f3fe602",
      "to": "0x88b94eb0e4319ead868162f98f9f54cabc14cfad",
      "contractAddress": null
    }
  ],
  "libraries": [],
  "pending": [],
  "returns": {},
  "timestamp": 1714213443,
  "chain": 80002,
  "commit": "6edbb26"
}