{
  "transactions": [
    {
      "hash": "0x4106df1c1c69a588eaa8264a165907e86cec744fbd841e7fff2e35f7c73a95c1",
      "transactionType": "CALL",
      "contractName": null,
      "contractAddress": "0x6cf9a63bfa77b0bc6d23ef603f3aa7206998b64c",
      "function": "updateCommittee(bytes32,bool)",
      "arguments": [
        "0x15fd1bf7a7f223445355c4840b5f9abd07bfcde68548bfa03f4f603627076195",
        "false"
      ],
      "transaction": {
        "from": "0x699bceebd59a5b52bb586c737cd7ba636f3fe602",
        "to": "0x6cf9a63bfa77b0bc6d23ef603f3aa7206998b64c",
        "gas": "0x8c01",
        "value": "0x0",
        "input": "0x256f225a15fd1bf7a7f223445355c4840b5f9abd07bfcde68548bfa03f4f6036270761950000000000000000000000000000000000000000000000000000000000000000",
        "nonce": "0x24",
        "chainId": "0x13882",
        "accessList": null,
        "type": null
      },
      "additionalContracts": [],
      "isFixedGasLimit": false
    }
  ],
  "receipts": [
    {
      "status": "0x1",
      "cumulativeGasUsed": "0xb765",
      "logs": [
        {
          "address": "0x0000000000000000000000000000000000001010",
          "topics": [
            "0x4dfe1bbbcf077ddc3e01291eea2d5c70c2b422b415d95645b9adcfd678cb1d63",
            "0x0000000000000000000000000000000000000000000000000000000000001010",
            "0x000000000000000000000000699bceebd59a5b52bb586c737cd7ba636f3fe602",
            "0x000000000000000000000000915a2284d28bd93de7d6f31173b981204bb666e6"
          ],
          "data": "0x000000000000000000000000000000000000000000000000000173b5209ac780000000000000000000000000000000000000000000000000338be7d29333faeb00000000000000000000000000000000000000000000008d9c2b011e8752e701000000000000000000000000000000000000000000000000338a741d7299336b00000000000000000000000000000000000000000000008d9c2c74d3a7edae81",
          "blockHash": "0xe6d45aa91b36456744857e130463fb376d7df6dedb34ed5fc34c7d199f241ead",
          "blockNumber": "0x60ff90",
          "transactionHash": "0x4106df1c1c69a588eaa8264a165907e86cec744fbd841e7fff2e35f7c73a95c1",
          "transactionIndex": "0x1",
          "logIndex": "0x2",
          "removed": false
        }
      ],
      "logsBloom": "0x00000000000000000010000000000000000000000000000000000000000000000000000000000000000000000000000000008000000000000000000000000000000000000000000000000000000000800000000000000000000100000000000000800000000000000000000000000000000000000000000080000000000000000000000000000000000000000000000000000000000000000000000000000000200000000000000000000000000000000000000000000000000000000000004000000000000000000001000000008000000002000000000000100000000000000000000000000000001000000000000000000000400000000000000000100000",
      "type": "0x2",
      "transactionHash": "0x4106df1c1c69a588eaa8264a165907e86cec744fbd841e7fff2e35f7c73a95c1",
      "transactionIndex": "0x1",
      "blockHash": "0xe6d45aa91b36456744857e130463fb376d7df6dedb34ed5fc34c7d199f241ead",
      "blockNumber": "0x60ff90",
      "gasUsed": "0x655d",
      "effectiveGasPrice": "0x3aac5ed8f",
      "from": "0x699bceebd59a5b52bb586c737cd7ba636f3fe602",
      "to": "0x6cf9a63bfa77b0bc6d23ef603f3aa7206998b64c",
      "contractAddress": null
    }
  ],
  "libraries": [],
  "pending": [],
  "returns": {},
  "timestamp": 1714202692,
  "chain": 80002,
  "commit": "d8ddccd"
}