{
  "transactions": [
    {
      "hash": "0xd63e87d6672ac1a3a6f00c3531f2dee24f9024ce5e50897794c47f7762dd4759",
      "transactionType": "CALL",
      "contractName": null,
      "contractAddress": "0xaa92a60b75f5c060d0beb6ee24fe8debc8f8e7d9",
      "function": "updateCommittee(bytes32,bool)",
      "arguments": [
        "0xe02c837304042569bc3a6fb2eaccd3249366b24288666e9a7a6367eddc50e494",
        "true"
      ],
      "transaction": {
        "from": "0x699bceebd59a5b52bb586c737cd7ba636f3fe602",
        "to": "0xaa92a60b75f5c060d0beb6ee24fe8debc8f8e7d9",
        "gas": "0x11b48",
        "value": "0x0",
        "input": "0x256f225ae02c837304042569bc3a6fb2eaccd3249366b24288666e9a7a6367eddc50e4940000000000000000000000000000000000000000000000000000000000000001",
        "nonce": "0x11b",
        "chainId": "0x13882",
        "accessList": null,
        "type": null
      },
      "additionalContracts": [],
      "isFixedGasLimit": false
    },
    {
      "hash": "0x2709eb1b02509cec56cf925645962551fb8e29417c0e2e37f74f24b5d62a467c",
      "transactionType": "CALL",
      "contractName": null,
      "contractAddress": "0xaa92a60b75f5c060d0beb6ee24fe8debc8f8e7d9",
      "function": "updateCommittee(bytes32,bool)",
      "arguments": [
        "0xcc5ad98f73b16c23fa3c3103839207819a3a8c9949f28cd32ed5dd58db0a3a90",
        "true"
      ],
      "transaction": {
        "from": "0x699bceebd59a5b52bb586c737cd7ba636f3fe602",
        "to": "0xaa92a60b75f5c060d0beb6ee24fe8debc8f8e7d9",
        "gas": "0x11b48",
        "value": "0x0",
        "input": "0x256f225acc5ad98f73b16c23fa3c3103839207819a3a8c9949f28cd32ed5dd58db0a3a900000000000000000000000000000000000000000000000000000000000000001",
        "nonce": "0x11c",
        "chainId": "0x13882",
        "accessList": null,
        "type": null
      },
      "additionalContracts": [],
      "isFixedGasLimit": false
    }
  ],
  "receipts": [
    {
      "status": "0x1",
      "cumulativeGasUsed": "0x43ac1",
      "logs": [
        {
          "address": "0x0000000000000000000000000000000000001010",
          "topics": [
            "0x4dfe1bbbcf077ddc3e01291eea2d5c70c2b422b415d95645b9adcfd678cb1d63",
            "0x0000000000000000000000000000000000000000000000000000000000001010",
            "0x000000000000000000000000699bceebd59a5b52bb586c737cd7ba636f3fe602",
            "0x0000000000000000000000006ab3d36c46ecfb9b9c0bd51cb1c3da5a2c81cea6"
          ],
          "data": "0x0000000000000000000000000000000000000000000000000037b0813c612840000000000000000000000000000000000000000000000000d15101470007a97b00000000000000000000000000000000000000000000016851078a24c07103fc000000000000000000000000000000000000000000000000d11950c5c3a6813b000000000000000000000000000000000000000000000168513f3aa5fcd22c3c",
          "blockHash": "0x7a96a63949b0f6e874ed337c30802f19337ab9fde2a242474b57b1bae9994773",
          "blockNumber": "0x62a52d",
          "transactionHash": "0xd63e87d6672ac1a3a6f00c3531f2dee24f9024ce5e50897794c47f7762dd4759",
          "transactionIndex": "0x3",
          "logIndex": "0x6",
          "removed": false
        }
      ],
      "logsBloom": "0x00000000080000000000000000000000000000000000000000000000000000000000000000000000000000000000000000008000000000000000000000000000000000080000000000000000000000800000000000000000000100000000000000800000000000000000000000000000000000000000000080000000000000000000000000000000000000000000000000000000000000000000000000000000200000000000000000000000000000000000000000000000000000000000004000000000000000000001000000008000000000010000000000100000000000000000000000000000001000000000000000000000000000000000000000100000",
      "type": "0x2",
      "transactionHash": "0xd63e87d6672ac1a3a6f00c3531f2dee24f9024ce5e50897794c47f7762dd4759",
      "transactionIndex": "0x3",
      "blockHash": "0x7a96a63949b0f6e874ed337c30802f19337ab9fde2a242474b57b1bae9994773",
      "blockNumber": "0x62a52d",
      "gasUsed": "0xc1b3",
      "effectiveGasPrice": "0x4999eb96cf",
      "from": "0x699bceebd59a5b52bb586c737cd7ba636f3fe602",
      "to": "0xaa92a60b75f5c060d0beb6ee24fe8debc8f8e7d9",
      "contractAddress": null
    },
    {
      "status": "0x1",
      "cumulativeGasUsed": "0x4fc74",
      "logs": [
        {
          "address": "0x0000000000000000000000000000000000001010",
          "topics": [
            "0x4dfe1bbbcf077ddc3e01291eea2d5c70c2b422b415d95645b9adcfd678cb1d63",
            "0x0000000000000000000000000000000000000000000000000000000000001010",
            "0x000000000000000000000000699bceebd59a5b52bb586c737cd7ba636f3fe602",
            "0x0000000000000000000000006ab3d36c46ecfb9b9c0bd51cb1c3da5a2c81cea6"
          ],
          "data": "0x0000000000000000000000000000000000000000000000000037b0813c612840000000000000000000000000000000000000000000000000d11950c5c39b27be000000000000000000000000000000000000000000000168513f3aa5fcd22c3c000000000000000000000000000000000000000000000000d0e1a0448739ff7e0000000000000000000000000000000000000000000001685176eb273933547c",
          "blockHash": "0x7a96a63949b0f6e874ed337c30802f19337ab9fde2a242474b57b1bae9994773",
          "blockNumber": "0x62a52d",
          "transactionHash": "0x2709eb1b02509cec56cf925645962551fb8e29417c0e2e37f74f24b5d62a467c",
          "transactionIndex": "0x4",
          "logIndex": "0x7",
          "removed": false
        }
      ],
      "logsBloom": "0x00000000080000000000000000000000000000000000000000000000000000000000000000000000000000000000000000008000000000000000000000000000000000080000000000000000000000800000000000000000000100000000000000800000000000000000000000000000000000000000000080000000000000000000000000000000000000000000000000000000000000000000000000000000200000000000000000000000000000000000000000000000000000000000004000000000000000000001000000008000000000010000000000100000000000000000000000000000001000000000000000000000000000000000000000100000",
      "type": "0x2",
      "transactionHash": "0x2709eb1b02509cec56cf925645962551fb8e29417c0e2e37f74f24b5d62a467c",
      "transactionIndex": "0x4",
      "blockHash": "0x7a96a63949b0f6e874ed337c30802f19337ab9fde2a242474b57b1bae9994773",
      "blockNumber": "0x62a52d",
      "gasUsed": "0xc1b3",
      "effectiveGasPrice": "0x4999eb96cf",
      "from": "0x699bceebd59a5b52bb586c737cd7ba636f3fe602",
      "to": "0xaa92a60b75f5c060d0beb6ee24fe8debc8f8e7d9",
      "contractAddress": null
    }
  ],
  "libraries": [],
  "pending": [],
  "returns": {},
  "timestamp": 1714450237,
  "chain": 80002,
  "commit": "9546700"
}