{
  "transactions": [
    {
      "hash": "0x428d130f929174eb77c803c06ec5f5c3314e413eecb588cbb03b339916a37a49",
      "transactionType": "CALL",
      "contractName": null,
      "contractAddress": "0x6cf9a63bfa77b0bc6d23ef603f3aa7206998b64c",
      "function": "updateCommittee(bytes32,bool)",
      "arguments": [
        "0xed1ecf0256ac7bd80a1d390641fc811218a32a99e0afc40a534261168c78918e",
        "true"
      ],
      "transaction": {
        "from": "0x699bceebd59a5b52bb586c737cd7ba636f3fe602",
        "to": "0x6cf9a63bfa77b0bc6d23ef603f3aa7206998b64c",
        "gas": "0x167af",
        "value": "0x0",
        "input": "0x256f225aed1ecf0256ac7bd80a1d390641fc811218a32a99e0afc40a534261168c78918e0000000000000000000000000000000000000000000000000000000000000001",
        "nonce": "0x25",
        "chainId": "0x13882",
        "accessList": null,
        "type": null
      },
      "additionalContracts": [],
      "isFixedGasLimit": false
    },
    {
      "hash": "0xbf99a4d122b3afe3cb2e555d7ae091f05c644861d6864165a002c11f916aff97",
      "transactionType": "CALL",
      "contractName": null,
      "contractAddress": "0x6cf9a63bfa77b0bc6d23ef603f3aa7206998b64c",
      "function": "updateCommittee(bytes32,bool)",
      "arguments": [
        "0x15fd1bf7a7f223445355c4840b5f9abd07bfcde68548bfa03f4f603627076195",
        "true"
      ],
      "transaction": {
        "from": "0x699bceebd59a5b52bb586c737cd7ba636f3fe602",
        "to": "0x6cf9a63bfa77b0bc6d23ef603f3aa7206998b64c",
        "gas": "0x10b6b",
        "value": "0x0",
        "input": "0x256f225a15fd1bf7a7f223445355c4840b5f9abd07bfcde68548bfa03f4f6036270761950000000000000000000000000000000000000000000000000000000000000001",
        "nonce": "0x26",
        "chainId": "0x13882",
        "accessList": null,
        "type": null
      },
      "additionalContracts": [],
      "isFixedGasLimit": false
    },
    {
      "hash": "0x81a08fa5c7cb8da440ac3d60ab0abfd9f4371f0b23de77e7e8fd20da66190b1b",
      "transactionType": "CALL",
      "contractName": null,
      "contractAddress": "0x6cf9a63bfa77b0bc6d23ef603f3aa7206998b64c",
      "function": "updateCommittee(bytes32,bool)",
      "arguments": [
        "0xeebe54dc3bb81e77d35a037fd4da29d90d4631eafbca7ed7ca410ef2d037f15d",
        "true"
      ],
      "transaction": {
        "from": "0x699bceebd59a5b52bb586c737cd7ba636f3fe602",
        "to": "0x6cf9a63bfa77b0bc6d23ef603f3aa7206998b64c",
        "gas": "0x10b6b",
        "value": "0x0",
        "input": "0x256f225aeebe54dc3bb81e77d35a037fd4da29d90d4631eafbca7ed7ca410ef2d037f15d0000000000000000000000000000000000000000000000000000000000000001",
        "nonce": "0x27",
        "chainId": "0x13882",
        "accessList": null,
        "type": null
      },
      "additionalContracts": [],
      "isFixedGasLimit": false
    },
    {
      "hash": "0x10a85058cad0b6c611462802eb5fc2717400a5475edab0454434b012bd71909f",
      "transactionType": "CALL",
      "contractName": null,
      "contractAddress": "0x6cf9a63bfa77b0bc6d23ef603f3aa7206998b64c",
      "function": "updateCommittee(bytes32,bool)",
      "arguments": [
        "0xa434dcf3bbb2d50f29519b663ea55bf56b70681f4c00bc77b43c712c94be898a",
        "true"
      ],
      "transaction": {
        "from": "0x699bceebd59a5b52bb586c737cd7ba636f3fe602",
        "to": "0x6cf9a63bfa77b0bc6d23ef603f3aa7206998b64c",
        "gas": "0x10b5b",
        "value": "0x0",
        "input": "0x256f225aa434dcf3bbb2d50f29519b663ea55bf56b70681f4c00bc77b43c712c94be898a0000000000000000000000000000000000000000000000000000000000000001",
        "nonce": "0x28",
        "chainId": "0x13882",
        "accessList": null,
        "type": null
      },
      "additionalContracts": [],
      "isFixedGasLimit": false
    },
    {
      "hash": "0xe7c1d4250c850d02a1da0e12be0bd2982f63ee1814d61aacca09f314bbb78c54",
      "transactionType": "CALL",
      "contractName": null,
      "contractAddress": "0x6cf9a63bfa77b0bc6d23ef603f3aa7206998b64c",
      "function": "updateCommittee(bytes32,bool)",
      "arguments": [
        "0xb6ea657fc6aec423b145c9320d6b5aa2434d6f2e6d09e9f44c5b4d05134d4389",
        "true"
      ],
      "transaction": {
        "from": "0x699bceebd59a5b52bb586c737cd7ba636f3fe602",
        "to": "0x6cf9a63bfa77b0bc6d23ef603f3aa7206998b64c",
        "gas": "0x10b6b",
        "value": "0x0",
        "input": "0x256f225ab6ea657fc6aec423b145c9320d6b5aa2434d6f2e6d09e9f44c5b4d05134d43890000000000000000000000000000000000000000000000000000000000000001",
        "nonce": "0x29",
        "chainId": "0x13882",
        "accessList": null,
        "type": null
      },
      "additionalContracts": [],
      "isFixedGasLimit": false
    }
  ],
  "receipts": [
    {
      "status": "0x1",
      "cumulativeGasUsed": "0x10468",
      "logs": [
        {
          "address": "0x0000000000000000000000000000000000001010",
          "topics": [
            "0x4dfe1bbbcf077ddc3e01291eea2d5c70c2b422b415d95645b9adcfd678cb1d63",
            "0x0000000000000000000000000000000000000000000000000000000000001010",
            "0x000000000000000000000000699bceebd59a5b52bb586c737cd7ba636f3fe602",
            "0x0000000000000000000000006ab3d36c46ecfb9b9c0bd51cb1c3da5a2c81cea6"
          ],
          "data": "0x00000000000000000000000000000000000000000000000000071aeaa92de000000000000000000000000000000000000000000000000000338a741d729342f800000000000000000000000000000000000000000000013c179b294d139284e200000000000000000000000000000000000000000000000033835932c96562f800000000000000000000000000000000000000000000013c17a24437bcc064e2",
          "blockHash": "0x3bae7ce780c062e95fdcc645f59f59783be08053b8e1f18b6e38e464fc7f0b22",
          "blockNumber": "0x60fffc",
          "transactionHash": "0x428d130f929174eb77c803c06ec5f5c3314e413eecb588cbb03b339916a37a49",
          "transactionIndex": "0x0",
          "logIndex": "0x0",
          "removed": false
        }
      ],
      "logsBloom": "0x00000000080000000000000000000000000000000000000000000000000000000000000000000000000000000000000000008000000000000000000000000000000000080000000000000000000000800000000000000000000100000000000000800000000000000000000000000000000000000000000080000000000000000000000000000000000000000000000000000000000000000000000000000000200000000000000000000000000000000000000000000000000000000000004000000000000000000001000000008000000000010000000000100000000000000000000000000000001000000000000000000000000000000000000000100000",
      "type": "0x2",
      "transactionHash": "0x428d130f929174eb77c803c06ec5f5c3314e413eecb588cbb03b339916a37a49",
      "transactionIndex": "0x0",
      "blockHash": "0x3bae7ce780c062e95fdcc645f59f59783be08053b8e1f18b6e38e464fc7f0b22",
      "blockNumber": "0x60fffc",
      "gasUsed": "0x10468",
      "effectiveGasPrice": "0x6fc23ac0f",
      "from": "0x699bceebd59a5b52bb586c737cd7ba636f3fe602",
      "to": "0x6cf9a63bfa77b0bc6d23ef603f3aa7206998b64c",
      "contractAddress": null
    },
    {
      "status": "0x1",
      "cumulativeGasUsed": "0x1c604",
      "logs": [
        {
          "address": "0x0000000000000000000000000000000000001010",
          "topics": [
            "0x4dfe1bbbcf077ddc3e01291eea2d5c70c2b422b415d95645b9adcfd678cb1d63",
            "0x0000000000000000000000000000000000000000000000000000000000001010",
            "0x000000000000000000000000699bceebd59a5b52bb586c737cd7ba636f3fe602",
            "0x0000000000000000000000006ab3d36c46ecfb9b9c0bd51cb1c3da5a2c81cea6"
          ],
          "data": "0x000000000000000000000000000000000000000000000000000548588a68d00000000000000000000000000000000000000000000000000033835932c95620e000000000000000000000000000000000000000000000013c17a24437bcc064e2000000000000000000000000000000000000000000000000337e10da3eed50e000000000000000000000000000000000000000000000013c17a78c90472934e2",
          "blockHash": "0x3bae7ce780c062e95fdcc645f59f59783be08053b8e1f18b6e38e464fc7f0b22",
          "blockNumber": "0x60fffc",
          "transactionHash": "0xbf99a4d122b3afe3cb2e555d7ae091f05c644861d6864165a002c11f916aff97",
          "transactionIndex": "0x1",
          "logIndex": "0x1",
          "removed": false
        }
      ],
      "logsBloom": "0x00000000080000000000000000000000000000000000000000000000000000000000000000000000000000000000000000008000000000000000000000000000000000080000000000000000000000800000000000000000000100000000000000800000000000000000000000000000000000000000000080000000000000000000000000000000000000000000000000000000000000000000000000000000200000000000000000000000000000000000000000000000000000000000004000000000000000000001000000008000000000010000000000100000000000000000000000000000001000000000000000000000000000000000000000100000",
      "type": "0x2",
      "transactionHash": "0xbf99a4d122b3afe3cb2e555d7ae091f05c644861d6864165a002c11f916aff97",
      "transactionIndex": "0x1",
      "blockHash": "0x3bae7ce780c062e95fdcc645f59f59783be08053b8e1f18b6e38e464fc7f0b22",
      "blockNumber": "0x60fffc",
      "gasUsed": "0xc19c",
      "effectiveGasPrice": "0x6fc23ac0f",
      "from": "0x699bceebd59a5b52bb586c737cd7ba636f3fe602",
      "to": "0x6cf9a63bfa77b0bc6d23ef603f3aa7206998b64c",
      "contractAddress": null
    },
    {
      "status": "0x1",
      "cumulativeGasUsed": "0x287a0",
      "logs": [
        {
          "address": "0x0000000000000000000000000000000000001010",
          "topics": [
            "0x4dfe1bbbcf077ddc3e01291eea2d5c70c2b422b415d95645b9adcfd678cb1d63",
            "0x0000000000000000000000000000000000000000000000000000000000001010",
            "0x000000000000000000000000699bceebd59a5b52bb586c737cd7ba636f3fe602",
            "0x0000000000000000000000006ab3d36c46ecfb9b9c0bd51cb1c3da5a2c81cea6"
          ],
          "data": "0x000000000000000000000000000000000000000000000000000548588a68d000000000000000000000000000000000000000000000000000337e10da3ee1f8bc00000000000000000000000000000000000000000000013c17a78c90472934e20000000000000000000000000000000000000000000000003378c881b47928bc00000000000000000000000000000000000000000000013c17acd4e8d19204e2",
          "blockHash": "0x3bae7ce780c062e95fdcc645f59f59783be08053b8e1f18b6e38e464fc7f0b22",
          "blockNumber": "0x60fffc",
          "transactionHash": "0x81a08fa5c7cb8da440ac3d60ab0abfd9f4371f0b23de77e7e8fd20da66190b1b",
          "transactionIndex": "0x2",
          "logIndex": "0x2",
          "removed": false
        }
      ],
      "logsBloom": "0x00000000080000000000000000000000000000000000000000000000000000000000000000000000000000000000000000008000000000000000000000000000000000080000000000000000000000800000000000000000000100000000000000800000000000000000000000000000000000000000000080000000000000000000000000000000000000000000000000000000000000000000000000000000200000000000000000000000000000000000000000000000000000000000004000000000000000000001000000008000000000010000000000100000000000000000000000000000001000000000000000000000000000000000000000100000",
      "type": "0x2",
      "transactionHash": "0x81a08fa5c7cb8da440ac3d60ab0abfd9f4371f0b23de77e7e8fd20da66190b1b",
      "transactionIndex": "0x2",
      "blockHash": "0x3bae7ce780c062e95fdcc645f59f59783be08053b8e1f18b6e38e464fc7f0b22",
      "blockNumber": "0x60fffc",
      "gasUsed": "0xc19c",
      "effectiveGasPrice": "0x6fc23ac0f",
      "from": "0x699bceebd59a5b52bb586c737cd7ba636f3fe602",
      "to": "0x6cf9a63bfa77b0bc6d23ef603f3aa7206998b64c",
      "contractAddress": null
    },
    {
      "status": "0x1",
      "cumulativeGasUsed": "0x34930",
      "logs": [
        {
          "address": "0x0000000000000000000000000000000000001010",
          "topics": [
            "0x4dfe1bbbcf077ddc3e01291eea2d5c70c2b422b415d95645b9adcfd678cb1d63",
            "0x0000000000000000000000000000000000000000000000000000000000001010",
            "0x000000000000000000000000699bceebd59a5b52bb586c737cd7ba636f3fe602",
            "0x0000000000000000000000006ab3d36c46ecfb9b9c0bd51cb1c3da5a2c81cea6"
          ],
          "data": "0x00000000000000000000000000000000000000000000000000054804b8bcc0000000000000000000000000000000000000000000000000003378c881b46dd09800000000000000000000000000000000000000000000013c17acd4e8d19204e20000000000000000000000000000000000000000000000003373807cfbb1109800000000000000000000000000000000000000000000013c17b21ced8a4ec4e2",
          "blockHash": "0x3bae7ce780c062e95fdcc645f59f59783be08053b8e1f18b6e38e464fc7f0b22",
          "blockNumber": "0x60fffc",
          "transactionHash": "0x10a85058cad0b6c611462802eb5fc2717400a5475edab0454434b012bd71909f",
          "transactionIndex": "0x3",
          "logIndex": "0x3",
          "removed": false
        }
      ],
      "logsBloom": "0x00000000080000000000000000000000000000000000000000000000000000000000000000000000000000000000000000008000000000000000000000000000000000080000000000000000000000800000000000000000000100000000000000800000000000000000000000000000000000000000000080000000000000000000000000000000000000000000000000000000000000000000000000000000200000000000000000000000000000000000000000000000000000000000004000000000000000000001000000008000000000010000000000100000000000000000000000000000001000000000000000000000000000000000000000100000",
      "type": "0x2",
      "transactionHash": "0x10a85058cad0b6c611462802eb5fc2717400a5475edab0454434b012bd71909f",
      "transactionIndex": "0x3",
      "blockHash": "0x3bae7ce780c062e95fdcc645f59f59783be08053b8e1f18b6e38e464fc7f0b22",
      "blockNumber": "0x60fffc",
      "gasUsed": "0xc190",
      "effectiveGasPrice": "0x6fc23ac0f",
      "from": "0x699bceebd59a5b52bb586c737cd7ba636f3fe602",
      "to": "0x6cf9a63bfa77b0bc6d23ef603f3aa7206998b64c",
      "contractAddress": null
    },
    {
      "status": "0x1",
      "cumulativeGasUsed": "0xc19c",
      "logs": [
        {
          "address": "0x0000000000000000000000000000000000001010",
          "topics": [
            "0x4dfe1bbbcf077ddc3e01291eea2d5c70c2b422b415d95645b9adcfd678cb1d63",
            "0x0000000000000000000000000000000000000000000000000000000000001010",
            "0x000000000000000000000000699bceebd59a5b52bb586c737cd7ba636f3fe602",
            "0x0000000000000000000000006ab3d36c46ecfb9b9c0bd51cb1c3da5a2c81cea6"
          ],
          "data": "0x000000000000000000000000000000000000000000000000000548588a68d0000000000000000000000000000000000000000000000000003373807cfba5b92800000000000000000000000000000000000000000000013c17b94331ed7424e2000000000000000000000000000000000000000000000000336e3824713ce92800000000000000000000000000000000000000000000013c17be8b8a77dcf4e2",
          "blockHash": "0x2746b6368601625ccb28fa76836b4aaeb887f1ebc38c4a1f0ccd5c077ce4d050",
          "blockNumber": "0x60fffd",
          "transactionHash": "0xe7c1d4250c850d02a1da0e12be0bd2982f63ee1814d61aacca09f314bbb78c54",
          "transactionIndex": "0x0",
          "logIndex": "0x0",
          "removed": false
        }
      ],
      "logsBloom": "0x00000000080000000000000000000000000000000000000000000000000000000000000000000000000000000000000000008000000000000000000000000000000000080000000000000000000000800000000000000000000100000000000000800000000000000000000000000000000000000000000080000000000000000000000000000000000000000000000000000000000000000000000000000000200000000000000000000000000000000000000000000000000000000000004000000000000000000001000000008000000000010000000000100000000000000000000000000000001000000000000000000000000000000000000000100000",
      "type": "0x2",
      "transactionHash": "0xe7c1d4250c850d02a1da0e12be0bd2982f63ee1814d61aacca09f314bbb78c54",
      "transactionIndex": "0x0",
      "blockHash": "0x2746b6368601625ccb28fa76836b4aaeb887f1ebc38c4a1f0ccd5c077ce4d050",
      "blockNumber": "0x60fffd",
      "gasUsed": "0xc19c",
      "effectiveGasPrice": "0x6fc23ac0f",
      "from": "0x699bceebd59a5b52bb586c737cd7ba636f3fe602",
      "to": "0x6cf9a63bfa77b0bc6d23ef603f3aa7206998b64c",
      "contractAddress": null
    }
  ],
  "libraries": [],
  "pending": [],
  "returns": {},
  "timestamp": 1714202925,
  "chain": 80002,
  "commit": "d8ddccd"
}