{
  "transactions": [
    {
      "hash": "0x07de674dc0839336795777cbe2da87b10776af20f7c3b11d129c5518a6d1b6b0",
      "transactionType": "CALL",
      "contractName": null,
      "contractAddress": "0x6cf9a63bfa77b0bc6d23ef603f3aa7206998b64c",
      "function": "updateCommittee(bytes32,bool)",
      "arguments": [
        "0xed1ecf0256ac7bd80a1d390641fc811218a32a99e0afc40a534261168c78918e",
        "false"
      ],
      "transaction": {
        "from": "0x699bceebd59a5b52bb586c737cd7ba636f3fe602",
        "to": "0x6cf9a63bfa77b0bc6d23ef603f3aa7206998b64c",
        "gas": "0x951b",
        "value": "0x0",
        "input": "0x256f225aed1ecf0256ac7bd80a1d390641fc811218a32a99e0afc40a534261168c78918e0000000000000000000000000000000000000000000000000000000000000000",
        "nonce": "0x11",
        "chainId": "0x13882",
        "accessList": null,
        "type": null
      },
      "additionalContracts": [],
      "isFixedGasLimit": false
    }
  ],
  "receipts": [
    {
      "status": "0x1",
      "cumulativeGasUsed": "0x295a5",
      "logs": [
        {
          "address": "0x0000000000000000000000000000000000001010",
          "topics": [
            "0x4dfe1bbbcf077ddc3e01291eea2d5c70c2b422b415d95645b9adcfd678cb1d63",
            "0x0000000000000000000000000000000000000000000000000000000000001010",
            "0x000000000000000000000000699bceebd59a5b52bb586c737cd7ba636f3fe602",
            "0x0000000000000000000000006c095a53250dd250797ff915a716cca690ad8842"
          ],
          "data": "0x0000000000000000000000000000000000000000000000000003ed644e7eecb400000000000000000000000000000000000000000000000034d4c05b73ebbf4600000000000000000000000000000000000000000000002e6ddebde84be4df4a00000000000000000000000000000000000000000000000034d0d2f7256cd29200000000000000000000000000000000000000000000002e6de2ab4c9a63cbfe",
          "blockHash": "0x9e3af78b16191b5d92b0f039c2389da697ecbee3a98e604d905f5c52fb8a33cf",
          "blockNumber": "0x6097bc",
          "transactionHash": "0x07de674dc0839336795777cbe2da87b10776af20f7c3b11d129c5518a6d1b6b0",
          "transactionIndex": "0x1",
          "logIndex": "0x5",
          "removed": false
        }
      ],
      "logsBloom": "0x00000000000000000000000000000000000000000000000000000000000000000000000000000000000000000000000000008000000000000000000000000000000000000000000000000000000000800000000000000000000100000000000000800000000000000000000000000000000000000000040080000000000000000000000000000000400000000000000000000000000000000000000000000000200000000000000000008000000000000000000000000000000000000000004000000000000000000001000000008000000000000000000000100000000000000000000000000000001000000000000000000000000000000000000000100000",
      "type": "0x2",
      "transactionHash": "0x07de674dc0839336795777cbe2da87b10776af20f7c3b11d129c5518a6d1b6b0",
      "transactionIndex": "0x1",
      "blockHash": "0x9e3af78b16191b5d92b0f039c2389da697ecbee3a98e604d905f5c52fb8a33cf",
      "blockNumber": "0x6097bc",
      "gasUsed": "0x6bf4",
      "effectiveGasPrice": "0x9502f9000",
      "from": "0x699bceebd59a5b52bb586c737cd7ba636f3fe602",
      "to": "0x6cf9a63bfa77b0bc6d23ef603f3aa7206998b64c",
      "contractAddress": null
    }
  ],
  "libraries": [],
  "pending": [],
  "returns": {},
  "timestamp": 1714146209,
  "chain": 80002,
  "commit": "d8ddccd"
}