{
  "transactions": [
    {
      "hash": "0x4d4e1c0130b85b0351f2b6d8dc21e01e6c163922db600e6e843d0a13c008c537",
      "transactionType": "CALL",
      "contractName": null,
      "contractAddress": "0x88b94eb0e4319ead868162f98f9f54cabc14cfad",
      "function": "updateCommittee(bytes32,bool)",
      "arguments": [
        "0xed1ecf0256ac7bd80a1d390641fc811218a32a99e0afc40a534261168c78918e",
        "true"
      ],
      "transaction": {
        "from": "0x699bceebd59a5b52bb586c737cd7ba636f3fe602",
        "to": "0x88b94eb0e4319ead868162f98f9f54cabc14cfad",
        "gas": "0x167ce",
        "value": "0x0",
        "input": "0x256f225aed1ecf0256ac7bd80a1d390641fc811218a32a99e0afc40a534261168c78918e0000000000000000000000000000000000000000000000000000000000000001",
        "nonce": "0x6b",
        "chainId": "0x13882",
        "accessList": null,
        "type": null
      },
      "additionalContracts": [],
      "isFixedGasLimit": false
    },
    {
      "hash": "0x3026b102bacbba6765123b5582c02ff5e3e4c36d42ae07f4ccf43c5062c6b6f1",
      "transactionType": "CALL",
      "contractName": null,
      "contractAddress": "0x88b94eb0e4319ead868162f98f9f54cabc14cfad",
      "function": "updateCommittee(bytes32,bool)",
      "arguments": [
        "0x15fd1bf7a7f223445355c4840b5f9abd07bfcde68548bfa03f4f603627076195",
        "true"
      ],
      "transaction": {
        "from": "0x699bceebd59a5b52bb586c737cd7ba636f3fe602",
        "to": "0x88b94eb0e4319ead868162f98f9f54cabc14cfad",
        "gas": "0x11b48",
        "value": "0x0",
        "input": "0x256f225a15fd1bf7a7f223445355c4840b5f9abd07bfcde68548bfa03f4f6036270761950000000000000000000000000000000000000000000000000000000000000001",
        "nonce": "0x6c",
        "chainId": "0x13882",
        "accessList": null,
        "type": null
      },
      "additionalContracts": [],
      "isFixedGasLimit": false
    },
    {
      "hash": "0x5c617afd5a1024d4d539a63ed8c14aa579086f7e8c9f6d331dc556bbb55ed094",
      "transactionType": "CALL",
      "contractName": null,
      "contractAddress": "0x88b94eb0e4319ead868162f98f9f54cabc14cfad",
      "function": "updateCommittee(bytes32,bool)",
      "arguments": [
        "0xeebe54dc3bb81e77d35a037fd4da29d90d4631eafbca7ed7ca410ef2d037f15d",
        "true"
      ],
      "transaction": {
        "from": "0x699bceebd59a5b52bb586c737cd7ba636f3fe602",
        "to": "0x88b94eb0e4319ead868162f98f9f54cabc14cfad",
        "gas": "0x11b48",
        "value": "0x0",
        "input": "0x256f225aeebe54dc3bb81e77d35a037fd4da29d90d4631eafbca7ed7ca410ef2d037f15d0000000000000000000000000000000000000000000000000000000000000001",
        "nonce": "0x6d",
        "chainId": "0x13882",
        "accessList": null,
        "type": null
      },
      "additionalContracts": [],
      "isFixedGasLimit": false
    },
    {
      "hash": "0xcf5af14a837219196faa9d8d76860c1ec2d50dcc77cadd680b6b3fcff68bccd1",
      "transactionType": "CALL",
      "contractName": null,
      "contractAddress": "0x88b94eb0e4319ead868162f98f9f54cabc14cfad",
      "function": "updateCommittee(bytes32,bool)",
      "arguments": [
        "0xa434dcf3bbb2d50f29519b663ea55bf56b70681f4c00bc77b43c712c94be898a",
        "true"
      ],
      "transaction": {
        "from": "0x699bceebd59a5b52bb586c737cd7ba636f3fe602",
        "to": "0x88b94eb0e4319ead868162f98f9f54cabc14cfad",
        "gas": "0x10b7a",
        "value": "0x0",
        "input": "0x256f225aa434dcf3bbb2d50f29519b663ea55bf56b70681f4c00bc77b43c712c94be898a0000000000000000000000000000000000000000000000000000000000000001",
        "nonce": "0x6e",
        "chainId": "0x13882",
        "accessList": null,
        "type": null
      },
      "additionalContracts": [],
      "isFixedGasLimit": false
    },
    {
      "hash": "0x2adad3e8c425bdf69085367cda9c8a3f743e2158dd26df2be2e931bde3ed90e6",
      "transactionType": "CALL",
      "contractName": null,
      "contractAddress": "0x88b94eb0e4319ead868162f98f9f54cabc14cfad",
      "function": "updateCommittee(bytes32,bool)",
      "arguments": [
        "0xb6ea657fc6aec423b145c9320d6b5aa2434d6f2e6d09e9f44c5b4d05134d4389",
        "true"
      ],
      "transaction": {
        "from": "0x699bceebd59a5b52bb586c737cd7ba636f3fe602",
        "to": "0x88b94eb0e4319ead868162f98f9f54cabc14cfad",
        "gas": "0x11b48",
        "value": "0x0",
        "input": "0x256f225ab6ea657fc6aec423b145c9320d6b5aa2434d6f2e6d09e9f44c5b4d05134d43890000000000000000000000000000000000000000000000000000000000000001",
        "nonce": "0x6f",
        "chainId": "0x13882",
        "accessList": null,
        "type": null
      },
      "additionalContracts": [],
      "isFixedGasLimit": false
    }
  ],
  "receipts": [
    {
      "status": "0x1",
      "cumulativeGasUsed": "0x1047f",
      "logs": [
        {
          "address": "0x0000000000000000000000000000000000001010",
          "topics": [
            "0x4dfe1bbbcf077ddc3e01291eea2d5c70c2b422b415d95645b9adcfd678cb1d63",
            "0x0000000000000000000000000000000000000000000000000000000000001010",
            "0x000000000000000000000000699bceebd59a5b52bb586c737cd7ba636f3fe602",
            "0x0000000000000000000000006c095a53250dd250797ff915a716cca690ad8842"
          ],
          "data": "0x00000000000000000000000000000000000000000000000000071b8b5062540000000000000000000000000000000000000000000000000053b6d953ce9731130000000000000000000000000000000000000000000000304eb77df8c918395b00000000000000000000000000000000000000000000000053afbdc87e34dd130000000000000000000000000000000000000000000000304ebe9984197a8d5b",
          "blockHash": "0xaf74485e7d271fb607d75c54cb1a00845cf7e80992cd66e094176369b1055302",
          "blockNumber": "0x61c7af",
          "transactionHash": "0x4d4e1c0130b85b0351f2b6d8dc21e01e6c163922db600e6e843d0a13c008c537",
          "transactionIndex": "0x0",
          "logIndex": "0x0",
          "removed": false
        }
      ],
      "logsBloom": "0x00000000000000000000000000000000000000000000000000000000000000000000000000000000000000000000000000008000000000000000000000000000000000000000000000000000000000800000000000000000000100000000000000800000000000000000000000000000000000000000040080000000000000000000000000000000400000000000000000000000000000000000000000000000200000000000000000008000000000000000000000000000000000000000004000000000000000000001000000008000000000000000000000100000000000000000000000000000001000000000000000000000000000000000000000100000",
      "type": "0x2",
      "transactionHash": "0x4d4e1c0130b85b0351f2b6d8dc21e01e6c163922db600e6e843d0a13c008c537",
      "transactionIndex": "0x0",
      "blockHash": "0xaf74485e7d271fb607d75c54cb1a00845cf7e80992cd66e094176369b1055302",
      "blockNumber": "0x61c7af",
      "gasUsed": "0x1047f",
      "effectiveGasPrice": "0x6fc23ac0f",
      "from": "0x699bceebd59a5b52bb586c737cd7ba636f3fe602",
      "to": "0x88b94eb0e4319ead868162f98f9f54cabc14cfad",
      "contractAddress": null
    },
    {
      "status": "0x1",
      "cumulativeGasUsed": "0x1c632",
      "logs": [
        {
          "address": "0x0000000000000000000000000000000000001010",
          "topics": [
            "0x4dfe1bbbcf077ddc3e01291eea2d5c70c2b422b415d95645b9adcfd678cb1d63",
            "0x0000000000000000000000000000000000000000000000000000000000001010",
            "0x000000000000000000000000699bceebd59a5b52bb586c737cd7ba636f3fe602",
            "0x0000000000000000000000006c095a53250dd250797ff915a716cca690ad8842"
          ],
          "data": "0x000000000000000000000000000000000000000000000000000548f9319d440000000000000000000000000000000000000000000000000053afbdc87e2599a20000000000000000000000000000000000000000000000304ebe9984197a8d5b00000000000000000000000000000000000000000000000053aa74cf4c8855a20000000000000000000000000000000000000000000000304ec3e27d4b17d15b",
          "blockHash": "0xaf74485e7d271fb607d75c54cb1a00845cf7e80992cd66e094176369b1055302",
          "blockNumber": "0x61c7af",
          "transactionHash": "0x3026b102bacbba6765123b5582c02ff5e3e4c36d42ae07f4ccf43c5062c6b6f1",
          "transactionIndex": "0x1",
          "logIndex": "0x1",
          "removed": false
        }
      ],
      "logsBloom": "0x00000000000000000000000000000000000000000000000000000000000000000000000000000000000000000000000000008000000000000000000000000000000000000000000000000000000000800000000000000000000100000000000000800000000000000000000000000000000000000000040080000000000000000000000000000000400000000000000000000000000000000000000000000000200000000000000000008000000000000000000000000000000000000000004000000000000000000001000000008000000000000000000000100000000000000000000000000000001000000000000000000000000000000000000000100000",
      "type": "0x2",
      "transactionHash": "0x3026b102bacbba6765123b5582c02ff5e3e4c36d42ae07f4ccf43c5062c6b6f1",
      "transactionIndex": "0x1",
      "blockHash": "0xaf74485e7d271fb607d75c54cb1a00845cf7e80992cd66e094176369b1055302",
      "blockNumber": "0x61c7af",
      "gasUsed": "0xc1b3",
      "effectiveGasPrice": "0x6fc23ac0f",
      "from": "0x699bceebd59a5b52bb586c737cd7ba636f3fe602",
      "to": "0x88b94eb0e4319ead868162f98f9f54cabc14cfad",
      "contractAddress": null
    },
    {
      "status": "0x1",
      "cumulativeGasUsed": "0xc1b3",
      "logs": [
        {
          "address": "0x0000000000000000000000000000000000001010",
          "topics": [
            "0x4dfe1bbbcf077ddc3e01291eea2d5c70c2b422b415d95645b9adcfd678cb1d63",
            "0x0000000000000000000000000000000000000000000000000000000000001010",
            "0x000000000000000000000000699bceebd59a5b52bb586c737cd7ba636f3fe602",
            "0x00000000000000000000000009207a6efee346cb3e4a54ac18523e3715d38b3f"
          ],
          "data": "0x000000000000000000000000000000000000000000000000000548f9319d440000000000000000000000000000000000000000000000000053aa74cf4c7cfc250000000000000000000000000000000000000000000000db7ffde7e77c7aef7100000000000000000000000000000000000000000000000053a52bd61adfb8250000000000000000000000000000000000000000000000db800330e0ae183371",
          "blockHash": "0xfa1e760e8e9df852d34b1a2c0cd9da8cf16a593d168ca15cc457082acec49510",
          "blockNumber": "0x61c7b0",
          "transactionHash": "0x5c617afd5a1024d4d539a63ed8c14aa579086f7e8c9f6d331dc556bbb55ed094",
          "transactionIndex": "0x0",
          "logIndex": "0x0",
          "removed": false
        }
      ],
      "logsBloom": "0x00000000000000000000000000000000000000000000000000000000000000000000000000000000000000000000000000008000000000000000010000000000000000000000000000000000000000800000000000000000000100000000000000800000000000000000000000000000000000000000000080000000000000000000000000000000000000000000000000004000000000000000000000000000200000000000000000000000000000000000000000000000000000000000004000000000000000000001000000008000000000000000000000100000000000000000000000000000001000010000000000000000000000000000000000100000",
      "type": "0x2",
      "transactionHash": "0x5c617afd5a1024d4d539a63ed8c14aa579086f7e8c9f6d331dc556bbb55ed094",
      "transactionIndex": "0x0",
      "blockHash": "0xfa1e760e8e9df852d34b1a2c0cd9da8cf16a593d168ca15cc457082acec49510",
      "blockNumber": "0x61c7b0",
      "gasUsed": "0xc1b3",
      "effectiveGasPrice": "0x6fc23ac0f",
      "from": "0x699bceebd59a5b52bb586c737cd7ba636f3fe602",
      "to": "0x88b94eb0e4319ead868162f98f9f54cabc14cfad",
      "contractAddress": null
    },
    {
      "status": "0x1",
      "cumulativeGasUsed": "0x1835a",
      "logs": [
        {
          "address": "0x0000000000000000000000000000000000001010",
          "topics": [
            "0x4dfe1bbbcf077ddc3e01291eea2d5c70c2b422b415d95645b9adcfd678cb1d63",
            "0x0000000000000000000000000000000000000000000000000000000000001010",
            "0x000000000000000000000000699bceebd59a5b52bb586c737cd7ba636f3fe602",
            "0x00000000000000000000000009207a6efee346cb3e4a54ac18523e3715d38b3f"
          ],
          "data": "0x000000000000000000000000000000000000000000000000000548a55ff1340000000000000000000000000000000000000000000000000053a52bd61ad45ea80000000000000000000000000000000000000000000000db800330e0ae183371000000000000000000000000000000000000000000000000539fe330bae32aa80000000000000000000000000000000000000000000000db800879860e096771",
          "blockHash": "0xfa1e760e8e9df852d34b1a2c0cd9da8cf16a593d168ca15cc457082acec49510",
          "blockNumber": "0x61c7b0",
          "transactionHash": "0xcf5af14a837219196faa9d8d76860c1ec2d50dcc77cadd680b6b3fcff68bccd1",
          "transactionIndex": "0x1",
          "logIndex": "0x1",
          "removed": false
        }
      ],
      "logsBloom": "0x00000000000000000000000000000000000000000000000000000000000000000000000000000000000000000000000000008000000000000000010000000000000000000000000000000000000000800000000000000000000100000000000000800000000000000000000000000000000000000000000080000000000000000000000000000000000000000000000000004000000000000000000000000000200000000000000000000000000000000000000000000000000000000000004000000000000000000001000000008000000000000000000000100000000000000000000000000000001000010000000000000000000000000000000000100000",
      "type": "0x2",
      "transactionHash": "0xcf5af14a837219196faa9d8d76860c1ec2d50dcc77cadd680b6b3fcff68bccd1",
      "transactionIndex": "0x1",
      "blockHash": "0xfa1e760e8e9df852d34b1a2c0cd9da8cf16a593d168ca15cc457082acec49510",
      "blockNumber": "0x61c7b0",
      "gasUsed": "0xc1a7",
      "effectiveGasPrice": "0x6fc23ac0f",
      "from": "0x699bceebd59a5b52bb586c737cd7ba636f3fe602",
      "to": "0x88b94eb0e4319ead868162f98f9f54cabc14cfad",
      "contractAddress": null
    },
    {
      "status": "0x1",
      "cumulativeGasUsed": "0x2450d",
      "logs": [
        {
          "address": "0x0000000000000000000000000000000000001010",
          "topics": [
            "0x4dfe1bbbcf077ddc3e01291eea2d5c70c2b422b415d95645b9adcfd678cb1d63",
            "0x0000000000000000000000000000000000000000000000000000000000001010",
            "0x000000000000000000000000699bceebd59a5b52bb586c737cd7ba636f3fe602",
            "0x00000000000000000000000009207a6efee346cb3e4a54ac18523e3715d38b3f"
          ],
          "data": "0x000000000000000000000000000000000000000000000000000548f9319d4400000000000000000000000000000000000000000000000000539fe330bad7d1df0000000000000000000000000000000000000000000000db800879860e096771000000000000000000000000000000000000000000000000539a9a37893a8ddf0000000000000000000000000000000000000000000000db800dc27f3fa6ab71",
          "blockHash": "0xfa1e760e8e9df852d34b1a2c0cd9da8cf16a593d168ca15cc457082acec49510",
          "blockNumber": "0x61c7b0",
          "transactionHash": "0x2adad3e8c425bdf69085367cda9c8a3f743e2158dd26df2be2e931bde3ed90e6",
          "transactionIndex": "0x2",
          "logIndex": "0x2",
          "removed": false
        }
      ],
      "logsBloom": "0x00000000000000000000000000000000000000000000000000000000000000000000000000000000000000000000000000008000000000000000010000000000000000000000000000000000000000800000000000000000000100000000000000800000000000000000000000000000000000000000000080000000000000000000000000000000000000000000000000004000000000000000000000000000200000000000000000000000000000000000000000000000000000000000004000000000000000000001000000008000000000000000000000100000000000000000000000000000001000010000000000000000000000000000000000100000",
      "type": "0x2",
      "transactionHash": "0x2adad3e8c425bdf69085367cda9c8a3f743e2158dd26df2be2e931bde3ed90e6",
      "transactionIndex": "0x2",
      "blockHash": "0xfa1e760e8e9df852d34b1a2c0cd9da8cf16a593d168ca15cc457082acec49510",
      "blockNumber": "0x61c7b0",
      "gasUsed": "0xc1b3",
      "effectiveGasPrice": "0x6fc23ac0f",
      "from": "0x699bceebd59a5b52bb586c737cd7ba636f3fe602",
      "to": "0x88b94eb0e4319ead868162f98f9f54cabc14cfad",
      "contractAddress": null
    }
  ],
  "libraries": [],
  "pending": [],
  "returns": {},
  "timestamp": 1714312636,
  "chain": 80002,
  "commit": "9546700"
}