{
  "transactions": [
    {
      "hash": "0x4b4292855a3aab7fdf48127b92a7d2d8677090750393f6c55fb3d935903ba319",
      "transactionType": "CALL",
      "contractName": null,
      "contractAddress": "0xaa92a60b75f5c060d0beb6ee24fe8debc8f8e7d9",
      "function": "updateCommittee(bytes32,bool)",
      "arguments": [
        "0xed1ecf0256ac7bd80a1d390641fc811218a32a99e0afc40a534261168c78918e",
        "true"
      ],
      "transaction": {
        "from": "0x699bceebd59a5b52bb586c737cd7ba636f3fe602",
        "to": "0xaa92a60b75f5c060d0beb6ee24fe8debc8f8e7d9",
        "gas": "0x167ce",
        "value": "0x0",
        "input": "0x256f225aed1ecf0256ac7bd80a1d390641fc811218a32a99e0afc40a534261168c78918e0000000000000000000000000000000000000000000000000000000000000001",
        "nonce": "0x94",
        "chainId": "0x13882",
        "accessList": null,
        "type": null
      },
      "additionalContracts": [],
      "isFixedGasLimit": false
    },
    {
      "hash": "0x220cc68f94d205237ac62dc6365ba0f1b092112173def42847740ad22930c207",
      "transactionType": "CALL",
      "contractName": null,
      "contractAddress": "0xaa92a60b75f5c060d0beb6ee24fe8debc8f8e7d9",
      "function": "updateCommittee(bytes32,bool)",
      "arguments": [
        "0x15fd1bf7a7f223445355c4840b5f9abd07bfcde68548bfa03f4f603627076195",
        "true"
      ],
      "transaction": {
        "from": "0x699bceebd59a5b52bb586c737cd7ba636f3fe602",
        "to": "0xaa92a60b75f5c060d0beb6ee24fe8debc8f8e7d9",
        "gas": "0x11b48",
        "value": "0x0",
        "input": "0x256f225a15fd1bf7a7f223445355c4840b5f9abd07bfcde68548bfa03f4f6036270761950000000000000000000000000000000000000000000000000000000000000001",
        "nonce": "0x95",
        "chainId": "0x13882",
        "accessList": null,
        "type": null
      },
      "additionalContracts": [],
      "isFixedGasLimit": false
    },
    {
      "hash": "0xc3bf4504c00644875b8b6cfdfd202d5de2e7dde9645a0c01b3bac38412355d75",
      "transactionType": "CALL",
      "contractName": null,
      "contractAddress": "0xaa92a60b75f5c060d0beb6ee24fe8debc8f8e7d9",
      "function": "updateCommittee(bytes32,bool)",
      "arguments": [
        "0xeebe54dc3bb81e77d35a037fd4da29d90d4631eafbca7ed7ca410ef2d037f15d",
        "true"
      ],
      "transaction": {
        "from": "0x699bceebd59a5b52bb586c737cd7ba636f3fe602",
        "to": "0xaa92a60b75f5c060d0beb6ee24fe8debc8f8e7d9",
        "gas": "0x11b48",
        "value": "0x0",
        "input": "0x256f225aeebe54dc3bb81e77d35a037fd4da29d90d4631eafbca7ed7ca410ef2d037f15d0000000000000000000000000000000000000000000000000000000000000001",
        "nonce": "0x96",
        "chainId": "0x13882",
        "accessList": null,
        "type": null
      },
      "additionalContracts": [],
      "isFixedGasLimit": false
    },
    {
      "hash": "0x7b46a3b4b848663b9867ecdfdf7a6ea241455030b5e561e227a5a6aff5494439",
      "transactionType": "CALL",
      "contractName": null,
      "contractAddress": "0xaa92a60b75f5c060d0beb6ee24fe8debc8f8e7d9",
      "function": "updateCommittee(bytes32,bool)",
      "arguments": [
        "0xa434dcf3bbb2d50f29519b663ea55bf56b70681f4c00bc77b43c712c94be898a",
        "true"
      ],
      "transaction": {
        "from": "0x699bceebd59a5b52bb586c737cd7ba636f3fe602",
        "to": "0xaa92a60b75f5c060d0beb6ee24fe8debc8f8e7d9",
        "gas": "0x10b7a",
        "value": "0x0",
        "input": "0x256f225aa434dcf3bbb2d50f29519b663ea55bf56b70681f4c00bc77b43c712c94be898a0000000000000000000000000000000000000000000000000000000000000001",
        "nonce": "0x97",
        "chainId": "0x13882",
        "accessList": null,
        "type": null
      },
      "additionalContracts": [],
      "isFixedGasLimit": false
    },
    {
      "hash": "0x934fbce8db6acccb10c0772f77ae0bb104e2a67fb423bae416375096c9bf40c8",
      "transactionType": "CALL",
      "contractName": null,
      "contractAddress": "0xaa92a60b75f5c060d0beb6ee24fe8debc8f8e7d9",
      "function": "updateCommittee(bytes32,bool)",
      "arguments": [
        "0xb6ea657fc6aec423b145c9320d6b5aa2434d6f2e6d09e9f44c5b4d05134d4389",
        "true"
      ],
      "transaction": {
        "from": "0x699bceebd59a5b52bb586c737cd7ba636f3fe602",
        "to": "0xaa92a60b75f5c060d0beb6ee24fe8debc8f8e7d9",
        "gas": "0x11b48",
        "value": "0x0",
        "input": "0x256f225ab6ea657fc6aec423b145c9320d6b5aa2434d6f2e6d09e9f44c5b4d05134d43890000000000000000000000000000000000000000000000000000000000000001",
        "nonce": "0x98",
        "chainId": "0x13882",
        "accessList": null,
        "type": null
      },
      "additionalContracts": [],
      "isFixedGasLimit": false
    }
  ],
  "receipts": [
    {
      "status": "0x1",
      "cumulativeGasUsed": "0x1047f",
      "logs": [
        {
          "address": "0x0000000000000000000000000000000000001010",
          "topics": [
            "0x4dfe1bbbcf077ddc3e01291eea2d5c70c2b422b415d95645b9adcfd678cb1d63",
            "0x0000000000000000000000000000000000000000000000000000000000001010",
            "0x000000000000000000000000699bceebd59a5b52bb586c737cd7ba636f3fe602",
            "0x000000000000000000000000915a2284d28bd93de7d6f31173b981204bb666e6"
          ],
          "data": "0x0000000000000000000000000000000000000000000000000000794d8de46c000000000000000000000000000000000000000000000000004756f645f78ff04e000000000000000000000000000000000000000000000094633ba5d360330b3900000000000000000000000000000000000000000000000047567cf869ab844e000000000000000000000000000000000000000000000094633c1f20ee177739",
          "blockHash": "0xe4f4bb033eb68d5a571d7f65a82725da7094f9f65a66dda50f3d590a33ee019b",
          "blockNumber": "0x61d187",
          "transactionHash": "0x4b4292855a3aab7fdf48127b92a7d2d8677090750393f6c55fb3d935903ba319",
          "transactionIndex": "0x0",
          "logIndex": "0x0",
          "removed": false
        }
      ],
      "logsBloom": "0x00000000000000000010000000000000000000000000000000000000000000000000000000000000000000000000000000008000000000000000000000000000000000000000000000000000000000800000000000000000000100000000000000800000000000000000000000000000000000000000000080000000000000000000000000000000000000000000000000000000000000000000000000000000200000000000000000000000000000000000000000000000000000000000004000000000000000000001000000008000000002000000000000100000000000000000000000000000001000000000000000000000400000000000000000100000",
      "type": "0x2",
      "transactionHash": "0x4b4292855a3aab7fdf48127b92a7d2d8677090750393f6c55fb3d935903ba319",
      "transactionIndex": "0x0",
      "blockHash": "0xe4f4bb033eb68d5a571d7f65a82725da7094f9f65a66dda50f3d590a33ee019b",
      "blockNumber": "0x61d187",
      "gasUsed": "0x1047f",
      "effectiveGasPrice": "0x7735940f",
      "from": "0x699bceebd59a5b52bb586c737cd7ba636f3fe602",
      "to": "0xaa92a60b75f5c060d0beb6ee24fe8debc8f8e7d9",
      "contractAddress": null
    },
    {
      "status": "0x1",
      "cumulativeGasUsed": "0x1c632",
      "logs": [
        {
          "address": "0x0000000000000000000000000000000000001010",
          "topics": [
            "0x4dfe1bbbcf077ddc3e01291eea2d5c70c2b422b415d95645b9adcfd678cb1d63",
            "0x0000000000000000000000000000000000000000000000000000000000001010",
            "0x000000000000000000000000699bceebd59a5b52bb586c737cd7ba636f3fe602",
            "0x000000000000000000000000915a2284d28bd93de7d6f31173b981204bb666e6"
          ],
          "data": "0x00000000000000000000000000000000000000000000000000005a32bf0a7c0000000000000000000000000000000000000000000000000047567cf8699c40dd000000000000000000000000000000000000000000000094633c1f20ee177739000000000000000000000000000000000000000000000000475622c5aa91c4dd000000000000000000000000000000000000000000000094633c7953ad21f339",
          "blockHash": "0xe4f4bb033eb68d5a571d7f65a82725da7094f9f65a66dda50f3d590a33ee019b",
          "blockNumber": "0x61d187",
          "transactionHash": "0x220cc68f94d205237ac62dc6365ba0f1b092112173def42847740ad22930c207",
          "transactionIndex": "0x1",
          "logIndex": "0x1",
          "removed": false
        }
      ],
      "logsBloom": "0x00000000000000000010000000000000000000000000000000000000000000000000000000000000000000000000000000008000000000000000000000000000000000000000000000000000000000800000000000000000000100000000000000800000000000000000000000000000000000000000000080000000000000000000000000000000000000000000000000000000000000000000000000000000200000000000000000000000000000000000000000000000000000000000004000000000000000000001000000008000000002000000000000100000000000000000000000000000001000000000000000000000400000000000000000100000",
      "type": "0x2",
      "transactionHash": "0x220cc68f94d205237ac62dc6365ba0f1b092112173def42847740ad22930c207",
      "transactionIndex": "0x1",
      "blockHash": "0xe4f4bb033eb68d5a571d7f65a82725da7094f9f65a66dda50f3d590a33ee019b",
      "blockNumber": "0x61d187",
      "gasUsed": "0xc1b3",
      "effectiveGasPrice": "0x7735940f",
      "from": "0x699bceebd59a5b52bb586c737cd7ba636f3fe602",
      "to": "0xaa92a60b75f5c060d0beb6ee24fe8debc8f8e7d9",
      "contractAddress": null
    },
    {
      "status": "0x1",
      "cumulativeGasUsed": "0x287e5",
      "logs": [
        {
          "address": "0x0000000000000000000000000000000000001010",
          "topics": [
            "0x4dfe1bbbcf077ddc3e01291eea2d5c70c2b422b415d95645b9adcfd678cb1d63",
            "0x0000000000000000000000000000000000000000000000000000000000001010",
            "0x000000000000000000000000699bceebd59a5b52bb586c737cd7ba636f3fe602",
            "0x000000000000000000000000915a2284d28bd93de7d6f31173b981204bb666e6"
          ],
          "data": "0x00000000000000000000000000000000000000000000000000005a32bf0a7c00000000000000000000000000000000000000000000000000475622c5aa866b60000000000000000000000000000000000000000000000094633c7953ad21f3390000000000000000000000000000000000000000000000004755c892eb7bef60000000000000000000000000000000000000000000000094633cd3866c2c6f39",
          "blockHash": "0xe4f4bb033eb68d5a571d7f65a82725da7094f9f65a66dda50f3d590a33ee019b",
          "blockNumber": "0x61d187",
          "transactionHash": "0xc3bf4504c00644875b8b6cfdfd202d5de2e7dde9645a0c01b3bac38412355d75",
          "transactionIndex": "0x2",
          "logIndex": "0x2",
          "removed": false
        }
      ],
      "logsBloom": "0x00000000000000000010000000000000000000000000000000000000000000000000000000000000000000000000000000008000000000000000000000000000000000000000000000000000000000800000000000000000000100000000000000800000000000000000000000000000000000000000000080000000000000000000000000000000000000000000000000000000000000000000000000000000200000000000000000000000000000000000000000000000000000000000004000000000000000000001000000008000000002000000000000100000000000000000000000000000001000000000000000000000400000000000000000100000",
      "type": "0x2",
      "transactionHash": "0xc3bf4504c00644875b8b6cfdfd202d5de2e7dde9645a0c01b3bac38412355d75",
      "transactionIndex": "0x2",
      "blockHash": "0xe4f4bb033eb68d5a571d7f65a82725da7094f9f65a66dda50f3d590a33ee019b",
      "blockNumber": "0x61d187",
      "gasUsed": "0xc1b3",
      "effectiveGasPrice": "0x7735940f",
      "from": "0x699bceebd59a5b52bb586c737cd7ba636f3fe602",
      "to": "0xaa92a60b75f5c060d0beb6ee24fe8debc8f8e7d9",
      "contractAddress": null
    },
    {
      "status": "0x1",
      "cumulativeGasUsed": "0x3498c",
      "logs": [
        {
          "address": "0x0000000000000000000000000000000000001010",
          "topics": [
            "0x4dfe1bbbcf077ddc3e01291eea2d5c70c2b422b415d95645b9adcfd678cb1d63",
            "0x0000000000000000000000000000000000000000000000000000000000001010",
            "0x000000000000000000000000699bceebd59a5b52bb586c737cd7ba636f3fe602",
            "0x000000000000000000000000915a2284d28bd93de7d6f31173b981204bb666e6"
          ],
          "data": "0x00000000000000000000000000000000000000000000000000005a2d28878c000000000000000000000000000000000000000000000000004755c892eb7095e3000000000000000000000000000000000000000000000094633cd3866c2c6f3900000000000000000000000000000000000000000000000047556e65c2e909e3000000000000000000000000000000000000000000000094633d2db394b3fb39",
          "blockHash": "0xe4f4bb033eb68d5a571d7f65a82725da7094f9f65a66dda50f3d590a33ee019b",
          "blockNumber": "0x61d187",
          "transactionHash": "0x7b46a3b4b848663b9867ecdfdf7a6ea241455030b5e561e227a5a6aff5494439",
          "transactionIndex": "0x3",
          "logIndex": "0x3",
          "removed": false
        }
      ],
      "logsBloom": "0x00000000000000000010000000000000000000000000000000000000000000000000000000000000000000000000000000008000000000000000000000000000000000000000000000000000000000800000000000000000000100000000000000800000000000000000000000000000000000000000000080000000000000000000000000000000000000000000000000000000000000000000000000000000200000000000000000000000000000000000000000000000000000000000004000000000000000000001000000008000000002000000000000100000000000000000000000000000001000000000000000000000400000000000000000100000",
      "type": "0x2",
      "transactionHash": "0x7b46a3b4b848663b9867ecdfdf7a6ea241455030b5e561e227a5a6aff5494439",
      "transactionIndex": "0x3",
      "blockHash": "0xe4f4bb033eb68d5a571d7f65a82725da7094f9f65a66dda50f3d590a33ee019b",
      "blockNumber": "0x61d187",
      "gasUsed": "0xc1a7",
      "effectiveGasPrice": "0x7735940f",
      "from": "0x699bceebd59a5b52bb586c737cd7ba636f3fe602",
      "to": "0xaa92a60b75f5c060d0beb6ee24fe8debc8f8e7d9",
      "contractAddress": null
    },
    {
      "status": "0x1",
      "cumulativeGasUsed": "0x40b3f",
      "logs": [
        {
          "address": "0x0000000000000000000000000000000000001010",
          "topics": [
            "0x4dfe1bbbcf077ddc3e01291eea2d5c70c2b422b415d95645b9adcfd678cb1d63",
            "0x0000000000000000000000000000000000000000000000000000000000001010",
            "0x000000000000000000000000699bceebd59a5b52bb586c737cd7ba636f3fe602",
            "0x000000000000000000000000915a2284d28bd93de7d6f31173b981204bb666e6"
          ],
          "data": "0x00000000000000000000000000000000000000000000000000005a32bf0a7c0000000000000000000000000000000000000000000000000047556e65c2ddb11a000000000000000000000000000000000000000000000094633d2db394b3fb390000000000000000000000000000000000000000000000004755143303d3351a000000000000000000000000000000000000000000000094633d87e653be7739",
          "blockHash": "0xe4f4bb033eb68d5a571d7f65a82725da7094f9f65a66dda50f3d590a33ee019b",
          "blockNumber": "0x61d187",
          "transactionHash": "0x934fbce8db6acccb10c0772f77ae0bb104e2a67fb423bae416375096c9bf40c8",
          "transactionIndex": "0x4",
          "logIndex": "0x4",
          "removed": false
        }
      ],
      "logsBloom": "0x00000000000000000010000000000000000000000000000000000000000000000000000000000000000000000000000000008000000000000000000000000000000000000000000000000000000000800000000000000000000100000000000000800000000000000000000000000000000000000000000080000000000000000000000000000000000000000000000000000000000000000000000000000000200000000000000000000000000000000000000000000000000000000000004000000000000000000001000000008000000002000000000000100000000000000000000000000000001000000000000000000000400000000000000000100000",
      "type": "0x2",
      "transactionHash": "0x934fbce8db6acccb10c0772f77ae0bb104e2a67fb423bae416375096c9bf40c8",
      "transactionIndex": "0x4",
      "blockHash": "0xe4f4bb033eb68d5a571d7f65a82725da7094f9f65a66dda50f3d590a33ee019b",
      "blockNumber": "0x61d187",
      "gasUsed": "0xc1b3",
      "effectiveGasPrice": "0x7735940f",
      "from": "0x699bceebd59a5b52bb586c737cd7ba636f3fe602",
      "to": "0xaa92a60b75f5c060d0beb6ee24fe8debc8f8e7d9",
      "contractAddress": null
    }
  ],
  "libraries": [],
  "pending": [],
  "returns": {},
  "timestamp": 1714317992,
  "chain": 80002,
  "commit": "9546700"
}