{
  "transactions": [
    {
      "hash": "0xe99e925b9041633605bd0a8c0a5ed428f7fa2d5700929b5ee0a25dc3f9041fcd",
      "transactionType": "CALL",
      "contractName": null,
      "contractAddress": "0xaa92a60b75f5c060d0beb6ee24fe8debc8f8e7d9",
      "function": "updateCommittee(bytes32,bool)",
      "arguments": [
        "0xed1ecf0256ac7bd80a1d390641fc811218a32a99e0afc40a534261168c78918e",
        "false"
      ],
      "transaction": {
        "from": "0x699bceebd59a5b52bb586c737cd7ba636f3fe602",
        "to": "0xaa92a60b75f5c060d0beb6ee24fe8debc8f8e7d9",
        "gas": "0x9e02",
        "value": "0x0",
        "input": "0x256f225aed1ecf0256ac7bd80a1d390641fc811218a32a99e0afc40a534261168c78918e0000000000000000000000000000000000000000000000000000000000000000",
        "nonce": "0xd5",
        "chainId": "0x13882",
        "accessList": null,
        "type": null
      },
      "additionalContracts": [],
      "isFixedGasLimit": false
    },
    {
      "hash": "0xc9e41afa130b5cfabae65b8832c2a66f94b0a5e4c5362939f9637f25b1d39a15",
      "transactionType": "CALL",
      "contractName": null,
      "contractAddress": "0xaa92a60b75f5c060d0beb6ee24fe8debc8f8e7d9",
      "function": "updateCommittee(bytes32,bool)",
      "arguments": [
        "0x15fd1bf7a7f223445355c4840b5f9abd07bfcde68548bfa03f4f603627076195",
        "false"
      ],
      "transaction": {
        "from": "0x699bceebd59a5b52bb586c737cd7ba636f3fe602",
        "to": "0xaa92a60b75f5c060d0beb6ee24fe8debc8f8e7d9",
        "gas": "0x9e02",
        "value": "0x0",
        "input": "0x256f225a15fd1bf7a7f223445355c4840b5f9abd07bfcde68548bfa03f4f6036270761950000000000000000000000000000000000000000000000000000000000000000",
        "nonce": "0xd6",
        "chainId": "0x13882",
        "accessList": null,
        "type": null
      },
      "additionalContracts": [],
      "isFixedGasLimit": false
    },
    {
      "hash": "0xaee83464acb7fee53022428dccf37b4b6d21d4749da1beae8bd13fcef68e5d34",
      "transactionType": "CALL",
      "contractName": null,
      "contractAddress": "0xaa92a60b75f5c060d0beb6ee24fe8debc8f8e7d9",
      "function": "updateCommittee(bytes32,bool)",
      "arguments": [
        "0xeebe54dc3bb81e77d35a037fd4da29d90d4631eafbca7ed7ca410ef2d037f15d",
        "false"
      ],
      "transaction": {
        "from": "0x699bceebd59a5b52bb586c737cd7ba636f3fe602",
        "to": "0xaa92a60b75f5c060d0beb6ee24fe8debc8f8e7d9",
        "gas": "0x9e02",
        "value": "0x0",
        "input": "0x256f225aeebe54dc3bb81e77d35a037fd4da29d90d4631eafbca7ed7ca410ef2d037f15d0000000000000000000000000000000000000000000000000000000000000000",
        "nonce": "0xd7",
        "chainId": "0x13882",
        "accessList": null,
        "type": null
      },
      "additionalContracts": [],
      "isFixedGasLimit": false
    },
    {
      "hash": "0x7b299cca7ae8262610495fdeb965aacc00319af54216242c300655435273719e",
      "transactionType": "CALL",
      "contractName": null,
      "contractAddress": "0xaa92a60b75f5c060d0beb6ee24fe8debc8f8e7d9",
      "function": "updateCommittee(bytes32,bool)",
      "arguments": [
        "0xa434dcf3bbb2d50f29519b663ea55bf56b70681f4c00bc77b43c712c94be898a",
        "false"
      ],
      "transaction": {
        "from": "0x699bceebd59a5b52bb586c737cd7ba636f3fe602",
        "to": "0xaa92a60b75f5c060d0beb6ee24fe8debc8f8e7d9",
        "gas": "0x952a",
        "value": "0x0",
        "input": "0x256f225aa434dcf3bbb2d50f29519b663ea55bf56b70681f4c00bc77b43c712c94be898a0000000000000000000000000000000000000000000000000000000000000000",
        "nonce": "0xd8",
        "chainId": "0x13882",
        "accessList": null,
        "type": null
      },
      "additionalContracts": [],
      "isFixedGasLimit": false
    },
    {
      "hash": "0xe0bd4d54cd47c11b3b2a0dea9837dcaf946e9ee0f4a33d6881aca63a1fe49cdc",
      "transactionType": "CALL",
      "contractName": null,
      "contractAddress": "0xaa92a60b75f5c060d0beb6ee24fe8debc8f8e7d9",
      "function": "updateCommittee(bytes32,bool)",
      "arguments": [
        "0xb6ea657fc6aec423b145c9320d6b5aa2434d6f2e6d09e9f44c5b4d05134d4389",
        "false"
      ],
      "transaction": {
        "from": "0x699bceebd59a5b52bb586c737cd7ba636f3fe602",
        "to": "0xaa92a60b75f5c060d0beb6ee24fe8debc8f8e7d9",
        "gas": "0x9e02",
        "value": "0x0",
        "input": "0x256f225ab6ea657fc6aec423b145c9320d6b5aa2434d6f2e6d09e9f44c5b4d05134d43890000000000000000000000000000000000000000000000000000000000000000",
        "nonce": "0xd9",
        "chainId": "0x13882",
        "accessList": null,
        "type": null
      },
      "additionalContracts": [],
      "isFixedGasLimit": false
    },
    {
      "hash": "0x88c494562357b0034683fc7a18d75f01bca8d79eeeaf323b34c899343f5340ab",
      "transactionType": "CALL",
      "contractName": null,
      "contractAddress": "0xaa92a60b75f5c060d0beb6ee24fe8debc8f8e7d9",
      "function": "updateCommittee(bytes32,bool)",
      "arguments": [
        "0xe02c837304042569bc3a6fb2eaccd3249366b24288666e9a7a6367eddc50e494",
        "false"
      ],
      "transaction": {
        "from": "0x699bceebd59a5b52bb586c737cd7ba636f3fe602",
        "to": "0xaa92a60b75f5c060d0beb6ee24fe8debc8f8e7d9",
        "gas": "0x9e02",
        "value": "0x0",
        "input": "0x256f225ae02c837304042569bc3a6fb2eaccd3249366b24288666e9a7a6367eddc50e4940000000000000000000000000000000000000000000000000000000000000000",
        "nonce": "0xda",
        "chainId": "0x13882",
        "accessList": null,
        "type": null
      },
      "additionalContracts": [],
      "isFixedGasLimit": false
    },
    {
      "hash": "0xa31e8b63ec8d72d771428e714fac09120745b5b410bc9565bcbd774762a8c46b",
      "transactionType": "CALL",
      "contractName": null,
      "contractAddress": "0xaa92a60b75f5c060d0beb6ee24fe8debc8f8e7d9",
      "function": "updateCommittee(bytes32,bool)",
      "arguments": [
        "0xcc5ad98f73b16c23fa3c3103839207819a3a8c9949f28cd32ed5dd58db0a3a90",
        "false"
      ],
      "transaction": {
        "from": "0x699bceebd59a5b52bb586c737cd7ba636f3fe602",
        "to": "0xaa92a60b75f5c060d0beb6ee24fe8debc8f8e7d9",
        "gas": "0x9e02",
        "value": "0x0",
        "input": "0x256f225acc5ad98f73b16c23fa3c3103839207819a3a8c9949f28cd32ed5dd58db0a3a900000000000000000000000000000000000000000000000000000000000000000",
        "nonce": "0xdb",
        "chainId": "0x13882",
        "accessList": null,
        "type": null
      },
      "additionalContracts": [],
      "isFixedGasLimit": false
    },
    {
      "hash": "0xb926fc8ce7d0ced6d4e434b614f86c3e0c70622af81fd9361a66907ccf9c81c6",
      "transactionType": "CALL",
      "contractName": null,
      "contractAddress": "0xaa92a60b75f5c060d0beb6ee24fe8debc8f8e7d9",
      "function": "updateCommittee(bytes32,bool)",
      "arguments": [
        "0xfb0f57f4e5c2d1b234771ed825b05cc4e56762970118b2ca928fdcb46a172f8a",
        "false"
      ],
      "transaction": {
        "from": "0x699bceebd59a5b52bb586c737cd7ba636f3fe602",
        "to": "0xaa92a60b75f5c060d0beb6ee24fe8debc8f8e7d9",
        "gas": "0x9e02",
        "value": "0x0",
        "input": "0x256f225afb0f57f4e5c2d1b234771ed825b05cc4e56762970118b2ca928fdcb46a172f8a0000000000000000000000000000000000000000000000000000000000000000",
        "nonce": "0xdc",
        "chainId": "0x13882",
        "accessList": null,
        "type": null
      },
      "additionalContracts": [],
      "isFixedGasLimit": false
    },
    {
      "hash": "0x6d0f3435f3a81378848d9e222c69789c7983b6736d393417be607f59992e528b",
      "transactionType": "CALL",
      "contractName": null,
      "contractAddress": "0xaa92a60b75f5c060d0beb6ee24fe8debc8f8e7d9",
      "function": "updateCommittee(bytes32,bool)",
      "arguments": [
        "0xa54437f2be81a9772ac5dcf84e260055005ec7d4ba4f2caa635925fe3ce0b423",
        "false"
      ],
      "transaction": {
        "from": "0x699bceebd59a5b52bb586c737cd7ba636f3fe602",
        "to": "0xaa92a60b75f5c060d0beb6ee24fe8debc8f8e7d9",
        "gas": "0x9ddf",
        "value": "0x0",
        "input": "0x256f225aa54437f2be81a9772ac5dcf84e260055005ec7d4ba4f2caa635925fe3ce0b4230000000000000000000000000000000000000000000000000000000000000000",
        "nonce": "0xdd",
        "chainId": "0x13882",
        "accessList": null,
        "type": null
      },
      "additionalContracts": [],
      "isFixedGasLimit": false
    },
    {
      "hash": "0x2ee440cfddbeb5977c768d8019d0f816f85cd27a2b3175a8f317289c0268c763",
      "transactionType": "CALL",
      "contractName": null,
      "contractAddress": "0xaa92a60b75f5c060d0beb6ee24fe8debc8f8e7d9",
      "function": "updateCommittee(bytes32,bool)",
      "arguments": [
        "0x4d3d881bcb787b7b6f65c6d1a2032415ab9d24ef6b86760d612ce53e99235192",
        "false"
      ],
      "transaction": {
        "from": "0x699bceebd59a5b52bb586c737cd7ba636f3fe602",
        "to": "0xaa92a60b75f5c060d0beb6ee24fe8debc8f8e7d9",
        "gas": "0x9e02",
        "value": "0x0",
        "input": "0x256f225a4d3d881bcb787b7b6f65c6d1a2032415ab9d24ef6b86760d612ce53e992351920000000000000000000000000000000000000000000000000000000000000000",
        "nonce": "0xde",
        "chainId": "0x13882",
        "accessList": null,
        "type": null
      },
      "additionalContracts": [],
      "isFixedGasLimit": false
    },
    {
      "hash": "0xcb5e5ba7cc6a397add7eb859deea771a7a362093e8bc309092a4da6a6ac46a94",
      "transactionType": "CALL",
      "contractName": null,
      "contractAddress": "0xaa92a60b75f5c060d0beb6ee24fe8debc8f8e7d9",
      "function": "updateCommittee(bytes32,bool)",
      "arguments": [
        "0xdfc980fc0d0b9aafd47e6f23c0bed0048eb22025cc61e77a32f5604f1c6c04c2",
        "false"
      ],
      "transaction": {
        "from": "0x699bceebd59a5b52bb586c737cd7ba636f3fe602",
        "to": "0xaa92a60b75f5c060d0beb6ee24fe8debc8f8e7d9",
        "gas": "0x9e02",
        "value": "0x0",
        "input": "0x256f225adfc980fc0d0b9aafd47e6f23c0bed0048eb22025cc61e77a32f5604f1c6c04c20000000000000000000000000000000000000000000000000000000000000000",
        "nonce": "0xdf",
        "chainId": "0x13882",
        "accessList": null,
        "type": null
      },
      "additionalContracts": [],
      "isFixedGasLimit": false
    },
    {
      "hash": "0xa7979f0e6ad3df7768ed62bbc4579fda55c80d74fa2b2b5114d3c44786d0a21d",
      "transactionType": "CALL",
      "contractName": null,
      "contractAddress": "0xaa92a60b75f5c060d0beb6ee24fe8debc8f8e7d9",
      "function": "updateCommittee(bytes32,bool)",
      "arguments": [
        "0x261974f94d4cc33749d7fe8a6fe19e2f154a820fa2ff729626295e4780e25a8c",
        "false"
      ],
      "transaction": {
        "from": "0x699bceebd59a5b52bb586c737cd7ba636f3fe602",
        "to": "0xaa92a60b75f5c060d0beb6ee24fe8debc8f8e7d9",
        "gas": "0x9e02",
        "value": "0x0",
        "input": "0x256f225a261974f94d4cc33749d7fe8a6fe19e2f154a820fa2ff729626295e4780e25a8c0000000000000000000000000000000000000000000000000000000000000000",
        "nonce": "0xe0",
        "chainId": "0x13882",
        "accessList": null,
        "type": null
      },
      "additionalContracts": [],
      "isFixedGasLimit": false
    },
    {
      "hash": "0x555d493c2d3bc24b422438930127ccc33ec2721120a95bed3ad49357d618930c",
      "transactionType": "CALL",
      "contractName": null,
      "contractAddress": "0xaa92a60b75f5c060d0beb6ee24fe8debc8f8e7d9",
      "function": "updateCommittee(bytes32,bool)",
      "arguments": [
        "0x1f9498c58ff25dce4616b2968242de8130aa8ab180e566ec0be153d94c44ba5b",
        "false"
      ],
      "transaction": {
        "from": "0x699bceebd59a5b52bb586c737cd7ba636f3fe602",
        "to": "0xaa92a60b75f5c060d0beb6ee24fe8debc8f8e7d9",
        "gas": "0x9e02",
        "value": "0x0",
        "input": "0x256f225a1f9498c58ff25dce4616b2968242de8130aa8ab180e566ec0be153d94c44ba5b0000000000000000000000000000000000000000000000000000000000000000",
        "nonce": "0xe1",
        "chainId": "0x13882",
        "accessList": null,
        "type": null
      },
      "additionalContracts": [],
      "isFixedGasLimit": false
    },
    {
      "hash": "0xe7d39ec8434fc5b63f8ff2bc668f81818a62a0ab2ce76f43c6319495d50f813a",
      "transactionType": "CALL",
      "contractName": null,
      "contractAddress": "0xaa92a60b75f5c060d0beb6ee24fe8debc8f8e7d9",
      "function": "updateCommittee(bytes32,bool)",
      "arguments": [
        "0x5d6d7c1e00f5a047c0472f077e0ccf6aee82d0bae4173560ed0b296c8137442a",
        "false"
      ],
      "transaction": {
        "from": "0x699bceebd59a5b52bb586c737cd7ba636f3fe602",
        "to": "0xaa92a60b75f5c060d0beb6ee24fe8debc8f8e7d9",
        "gas": "0x952a",
        "value": "0x0",
        "input": "0x256f225a5d6d7c1e00f5a047c0472f077e0ccf6aee82d0bae4173560ed0b296c8137442a0000000000000000000000000000000000000000000000000000000000000000",
        "nonce": "0xe2",
        "chainId": "0x13882",
        "accessList": null,
        "type": null
      },
      "additionalContracts": [],
      "isFixedGasLimit": false
    },
    {
      "hash": "0xbd9f29f382c7872d3135890dbf908c9426aff1fbba9609fb5d0de870a7051970",
      "transactionType": "CALL",
      "contractName": null,
      "contractAddress": "0xaa92a60b75f5c060d0beb6ee24fe8debc8f8e7d9",
      "function": "updateCommittee(bytes32,bool)",
      "arguments": [
        "0x15b3fb17d96dfd9ebb4c3d174c44f8d980ff79042cda40da3f6e44dc15a9617d",
        "false"
      ],
      "transaction": {
        "from": "0x699bceebd59a5b52bb586c737cd7ba636f3fe602",
        "to": "0xaa92a60b75f5c060d0beb6ee24fe8debc8f8e7d9",
        "gas": "0x9e02",
        "value": "0x0",
        "input": "0x256f225a15b3fb17d96dfd9ebb4c3d174c44f8d980ff79042cda40da3f6e44dc15a9617d0000000000000000000000000000000000000000000000000000000000000000",
        "nonce": "0xe3",
        "chainId": "0x13882",
        "accessList": null,
        "type": null
      },
      "additionalContracts": [],
      "isFixedGasLimit": false
    },
    {
      "hash": "0xc967cffef79a4c8619b98513c2ba22ec70c9dc125ee17604842937780f2ca67e",
      "transactionType": "CALL",
      "contractName": null,
      "contractAddress": "0xaa92a60b75f5c060d0beb6ee24fe8debc8f8e7d9",
      "function": "updateCommittee(bytes32,bool)",
      "arguments": [
        "0x84e86cd36248a035526dad90a3c4d63816381ac1cb6bbc95a11d5d70cb07b149",
        "false"
      ],
      "transaction": {
        "from": "0x699bceebd59a5b52bb586c737cd7ba636f3fe602",
        "to": "0xaa92a60b75f5c060d0beb6ee24fe8debc8f8e7d9",
        "gas": "0x9e02",
        "value": "0x0",
        "input": "0x256f225a84e86cd36248a035526dad90a3c4d63816381ac1cb6bbc95a11d5d70cb07b1490000000000000000000000000000000000000000000000000000000000000000",
        "nonce": "0xe4",
        "chainId": "0x13882",
        "accessList": null,
        "type": null
      },
      "additionalContracts": [],
      "isFixedGasLimit": false
    },
    {
      "hash": "0x55af8fcde43ac28837fecf5be480ddfc92c84a1f6d12c683ce89daf0813465c3",
      "transactionType": "CALL",
      "contractName": null,
      "contractAddress": "0xaa92a60b75f5c060d0beb6ee24fe8debc8f8e7d9",
      "function": "updateCommittee(bytes32,bool)",
      "arguments": [
        "0x3dc83da57ddcdd4857b7c1fff7ca2d736fd45e71cdad4d909c66b4ec2e66f728",
        "false"
      ],
      "transaction": {
        "from": "0x699bceebd59a5b52bb586c737cd7ba636f3fe602",
        "to": "0xaa92a60b75f5c060d0beb6ee24fe8debc8f8e7d9",
        "gas": "0x9e02",
        "value": "0x0",
        "input": "0x256f225a3dc83da57ddcdd4857b7c1fff7ca2d736fd45e71cdad4d909c66b4ec2e66f7280000000000000000000000000000000000000000000000000000000000000000",
        "nonce": "0xe5",
        "chainId": "0x13882",
        "accessList": null,
        "type": null
      },
      "additionalContracts": [],
      "isFixedGasLimit": false
    },
    {
      "hash": "0x89db6faee907add74c7b24a5a66d7528e2cb31ed4ca3924dbeeb3ff7feee2c8f",
      "transactionType": "CALL",
      "contractName": null,
      "contractAddress": "0xaa92a60b75f5c060d0beb6ee24fe8debc8f8e7d9",
      "function": "updateCommittee(bytes32,bool)",
      "arguments": [
        "0x6bebac3de134650499188b570117f797c6f8cb5138ee6a77cca72cb08385f6cb",
        "false"
      ],
      "transaction": {
        "from": "0x699bceebd59a5b52bb586c737cd7ba636f3fe602",
        "to": "0xaa92a60b75f5c060d0beb6ee24fe8debc8f8e7d9",
        "gas": "0x9e02",
        "value": "0x0",
        "input": "0x256f225a6bebac3de134650499188b570117f797c6f8cb5138ee6a77cca72cb08385f6cb0000000000000000000000000000000000000000000000000000000000000000",
        "nonce": "0xe6",
        "chainId": "0x13882",
        "accessList": null,
        "type": null
      },
      "additionalContracts": [],
      "isFixedGasLimit": false
    },
    {
      "hash": "0x6201a27e54d5ee79310f2ba8c3c08a465d4da2bf406f93d4f404f71451dcaf0b",
      "transactionType": "CALL",
      "contractName": null,
      "contractAddress": "0xaa92a60b75f5c060d0beb6ee24fe8debc8f8e7d9",
      "function": "updateCommittee(bytes32,bool)",
      "arguments": [
        "0x5ba4271fa5aacb063f46ea0dbfe821640173659bc3cf1c67781bbb3b3598ffcd",
        "false"
      ],
      "transaction": {
        "from": "0x699bceebd59a5b52bb586c737cd7ba636f3fe602",
        "to": "0xaa92a60b75f5c060d0beb6ee24fe8debc8f8e7d9",
        "gas": "0x9e02",
        "value": "0x0",
        "input": "0x256f225a5ba4271fa5aacb063f46ea0dbfe821640173659bc3cf1c67781bbb3b3598ffcd0000000000000000000000000000000000000000000000000000000000000000",
        "nonce": "0xe7",
        "chainId": "0x13882",
        "accessList": null,
        "type": null
      },
      "additionalContracts": [],
      "isFixedGasLimit": false
    },
    {
      "hash": "0x84ef2a5c0ff402435cc365c0fdd81fd58f772c396c6bea42b6bc62ece839bc9b",
      "transactionType": "CALL",
      "contractName": null,
      "contractAddress": "0xaa92a60b75f5c060d0beb6ee24fe8debc8f8e7d9",
      "function": "updateCommittee(bytes32,bool)",
      "arguments": [
        "0x83aecc3070ad6ab5f18f4a0a67bf5eac70053f19f0f3d4e9b8f23bc11df5d03b",
        "false"
      ],
      "transaction": {
        "from": "0x699bceebd59a5b52bb586c737cd7ba636f3fe602",
        "to": "0xaa92a60b75f5c060d0beb6ee24fe8debc8f8e7d9",
        "gas": "0x8c1c",
        "value": "0x0",
        "input": "0x256f225a83aecc3070ad6ab5f18f4a0a67bf5eac70053f19f0f3d4e9b8f23bc11df5d03b0000000000000000000000000000000000000000000000000000000000000000",
        "nonce": "0xe8",
        "chainId": "0x13882",
        "accessList": null,
        "type": null
      },
      "additionalContracts": [],
      "isFixedGasLimit": false
    }
  ],
  "receipts": [
    {
      "status": "0x1",
      "cumulativeGasUsed": "0x6c0b",
      "logs": [
        {
          "address": "0x0000000000000000000000000000000000001010",
          "topics": [
            "0x4dfe1bbbcf077ddc3e01291eea2d5c70c2b422b415d95645b9adcfd678cb1d63",
            "0x0000000000000000000000000000000000000000000000000000000000001010",
            "0x000000000000000000000000699bceebd59a5b52bb586c737cd7ba636f3fe602",
            "0x00000000000000000000000002f615e95563ef16f10354dba9e584e58d2d4314"
          ],
          "data": "0x0000000000000000000000000000000000000000000000000000e266c3d41e00000000000000000000000000000000000000000000000000cd0efbd69ae54b9b0000000000000000000000000000000000000000000000080175f6f39f3de9a7000000000000000000000000000000000000000000000000cd0e196fd7112d9b0000000000000000000000000000000000000000000000080176d95a631207a7",
          "blockHash": "0x175eb9bdda3a04a238b251dc042aa400dad4da1d9a2624b1266e66f3b5ed9c42",
          "blockNumber": "0x626455",
          "transactionHash": "0xe99e925b9041633605bd0a8c0a5ed428f7fa2d5700929b5ee0a25dc3f9041fcd",
          "transactionIndex": "0x0",
          "logIndex": "0x0",
          "removed": false
        }
      ],
      "logsBloom": "0x00000000000000000000000000000000000000000000000000000008000000000000000000000000020000004000000000008000000000000000000000000000000000000000000000000000000000800000000000000000000100000000000000800000000000000000000000000000000000000000000080000000000000000000000000000000000000000000000000000000000000000000000000000000200000000000000000000000000000000000000000000000000000000000004000000000000000000001000000008000000000000000000000100000000000000000000000000000001000000000000000000000000000000000000000100000",
      "type": "0x2",
      "transactionHash": "0xe99e925b9041633605bd0a8c0a5ed428f7fa2d5700929b5ee0a25dc3f9041fcd",
      "transactionIndex": "0x0",
      "blockHash": "0x175eb9bdda3a04a238b251dc042aa400dad4da1d9a2624b1266e66f3b5ed9c42",
      "blockNumber": "0x626455",
      "gasUsed": "0x6c0b",
      "effectiveGasPrice": "0x218711a0f",
      "from": "0x699bceebd59a5b52bb586c737cd7ba636f3fe602",
      "to": "0xaa92a60b75f5c060d0beb6ee24fe8debc8f8e7d9",
      "contractAddress": null
    },
    {
      "status": "0x1",
      "cumulativeGasUsed": "0xd816",
      "logs": [
        {
          "address": "0x0000000000000000000000000000000000001010",
          "topics": [
            "0x4dfe1bbbcf077ddc3e01291eea2d5c70c2b422b415d95645b9adcfd678cb1d63",
            "0x0000000000000000000000000000000000000000000000000000000000001010",
            "0x000000000000000000000000699bceebd59a5b52bb586c737cd7ba636f3fe602",
            "0x00000000000000000000000002f615e95563ef16f10354dba9e584e58d2d4314"
          ],
          "data": "0x0000000000000000000000000000000000000000000000000000e266c3d41e00000000000000000000000000000000000000000000000000cd0e196fd70ad8f60000000000000000000000000000000000000000000000080176d95a631207a7000000000000000000000000000000000000000000000000cd0d37091336baf60000000000000000000000000000000000000000000000080177bbc126e625a7",
          "blockHash": "0x175eb9bdda3a04a238b251dc042aa400dad4da1d9a2624b1266e66f3b5ed9c42",
          "blockNumber": "0x626455",
          "transactionHash": "0xc9e41afa130b5cfabae65b8832c2a66f94b0a5e4c5362939f9637f25b1d39a15",
          "transactionIndex": "0x1",
          "logIndex": "0x1",
          "removed": false
        }
      ],
      "logsBloom": "0x00000000000000000000000000000000000000000000000000000008000000000000000000000000020000004000000000008000000000000000000000000000000000000000000000000000000000800000000000000000000100000000000000800000000000000000000000000000000000000000000080000000000000000000000000000000000000000000000000000000000000000000000000000000200000000000000000000000000000000000000000000000000000000000004000000000000000000001000000008000000000000000000000100000000000000000000000000000001000000000000000000000000000000000000000100000",
      "type": "0x2",
      "transactionHash": "0xc9e41afa130b5cfabae65b8832c2a66f94b0a5e4c5362939f9637f25b1d39a15",
      "transactionIndex": "0x1",
      "blockHash": "0x175eb9bdda3a04a238b251dc042aa400dad4da1d9a2624b1266e66f3b5ed9c42",
      "blockNumber": "0x626455",
      "gasUsed": "0x6c0b",
      "effectiveGasPrice": "0x218711a0f",
      "from": "0x699bceebd59a5b52bb586c737cd7ba636f3fe602",
      "to": "0xaa92a60b75f5c060d0beb6ee24fe8debc8f8e7d9",
      "contractAddress": null
    },
    {
      "status": "0x1",
      "cumulativeGasUsed": "0x6c0b",
      "logs": [
        {
          "address": "0x0000000000000000000000000000000000001010",
          "topics": [
            "0x4dfe1bbbcf077ddc3e01291eea2d5c70c2b422b415d95645b9adcfd678cb1d63",
            "0x0000000000000000000000000000000000000000000000000000000000001010",
            "0x000000000000000000000000699bceebd59a5b52bb586c737cd7ba636f3fe602",
            "0x00000000000000000000000002f615e95563ef16f10354dba9e584e58d2d4314"
          ],
          "data": "0x0000000000000000000000000000000000000000000000000000e266c3d41e00000000000000000000000000000000000000000000000000cd0d3709133066510000000000000000000000000000000000000000000000080177bbc126e625a7000000000000000000000000000000000000000000000000cd0c54a24f5c485100000000000000000000000000000000000000000000000801789e27eaba43a7",
          "blockHash": "0x5a9eba3a379ef38b939694ffa8d7bc227de55986afd4f048e9c7cf15c80174f1",
          "blockNumber": "0x626456",
          "transactionHash": "0xaee83464acb7fee53022428dccf37b4b6d21d4749da1beae8bd13fcef68e5d34",
          "transactionIndex": "0x0",
          "logIndex": "0x0",
          "removed": false
        }
      ],
      "logsBloom": "0x00000000000000000000000000000000000000000000000000000008000000000000000000000000020000004000000000008000000000000000000000000000000000000000000000000000000000800000000000000000000100000000000000800000000000000000000000000000000000000000000080000000000000000000000000000000000000000000000000000000000000000000000000000000200000000000000000000000000000000000000000000000000000000000004000000000000000000001000000008000000000000000000000100000000000000000000000000000001000000000000000000000000000000000000000100000",
      "type": "0x2",
      "transactionHash": "0xaee83464acb7fee53022428dccf37b4b6d21d4749da1beae8bd13fcef68e5d34",
      "transactionIndex": "0x0",
      "blockHash": "0x5a9eba3a379ef38b939694ffa8d7bc227de55986afd4f048e9c7cf15c80174f1",
      "blockNumber": "0x626456",
      "gasUsed": "0x6c0b",
      "effectiveGasPrice": "0x218711a0f",
      "from": "0x699bceebd59a5b52bb586c737cd7ba636f3fe602",
      "to": "0xaa92a60b75f5c060d0beb6ee24fe8debc8f8e7d9",
      "contractAddress": null
    },
    {
      "status": "0x1",
      "cumulativeGasUsed": "0x6bff",
      "logs": [
        {
          "address": "0x0000000000000000000000000000000000001010",
          "topics": [
            "0x4dfe1bbbcf077ddc3e01291eea2d5c70c2b422b415d95645b9adcfd678cb1d63",
            "0x0000000000000000000000000000000000000000000000000000000000001010",
            "0x000000000000000000000000699bceebd59a5b52bb586c737cd7ba636f3fe602",
            "0x00000000000000000000000002f615e95563ef16f10354dba9e584e58d2d4314"
          ],
          "data": "0x0000000000000000000000000000000000000000000000000000e24d9e86e600000000000000000000000000000000000000000000000000cd0c54a24f55f3ac00000000000000000000000000000000000000000000000801789e27eaba43a7000000000000000000000000000000000000000000000000cd0b7254b0cf0dac00000000000000000000000000000000000000000000000801798075894129a7",
          "blockHash": "0xe501a9e34575994dd838df9081abf1bb8f65dbfe8cae52dd2c703569c36aab3d",
          "blockNumber": "0x626457",
          "transactionHash": "0x7b299cca7ae8262610495fdeb965aacc00319af54216242c300655435273719e",
          "transactionIndex": "0x0",
          "logIndex": "0x0",
          "removed": false
        }
      ],
      "logsBloom": "0x00000000000000000000000000000000000000000000000000000008000000000000000000000000020000004000000000008000000000000000000000000000000000000000000000000000000000800000000000000000000100000000000000800000000000000000000000000000000000000000000080000000000000000000000000000000000000000000000000000000000000000000000000000000200000000000000000000000000000000000000000000000000000000000004000000000000000000001000000008000000000000000000000100000000000000000000000000000001000000000000000000000000000000000000000100000",
      "type": "0x2",
      "transactionHash": "0x7b299cca7ae8262610495fdeb965aacc00319af54216242c300655435273719e",
      "transactionIndex": "0x0",
      "blockHash": "0xe501a9e34575994dd838df9081abf1bb8f65dbfe8cae52dd2c703569c36aab3d",
      "blockNumber": "0x626457",
      "gasUsed": "0x6bff",
      "effectiveGasPrice": "0x218711a0f",
      "from": "0x699bceebd59a5b52bb586c737cd7ba636f3fe602",
      "to": "0xaa92a60b75f5c060d0beb6ee24fe8debc8f8e7d9",
      "contractAddress": null
    },
    {
      "status": "0x1",
      "cumulativeGasUsed": "0xd80a",
      "logs": [
        {
          "address": "0x0000000000000000000000000000000000001010",
          "topics": [
            "0x4dfe1bbbcf077ddc3e01291eea2d5c70c2b422b415d95645b9adcfd678cb1d63",
            "0x0000000000000000000000000000000000000000000000000000000000001010",
            "0x000000000000000000000000699bceebd59a5b52bb586c737cd7ba636f3fe602",
            "0x00000000000000000000000002f615e95563ef16f10354dba9e584e58d2d4314"
          ],
          "data": "0x0000000000000000000000000000000000000000000000000000e266c3d41e00000000000000000000000000000000000000000000000000cd0b7254b0c8b9bb00000000000000000000000000000000000000000000000801798075894129a7000000000000000000000000000000000000000000000000cd0a8fedecf49bbb000000000000000000000000000000000000000000000008017a62dc4d1547a7",
          "blockHash": "0xe501a9e34575994dd838df9081abf1bb8f65dbfe8cae52dd2c703569c36aab3d",
          "blockNumber": "0x626457",
          "transactionHash": "0xe0bd4d54cd47c11b3b2a0dea9837dcaf946e9ee0f4a33d6881aca63a1fe49cdc",
          "transactionIndex": "0x1",
          "logIndex": "0x1",
          "removed": false
        }
      ],
      "logsBloom": "0x00000000000000000000000000000000000000000000000000000008000000000000000000000000020000004000000000008000000000000000000000000000000000000000000000000000000000800000000000000000000100000000000000800000000000000000000000000000000000000000000080000000000000000000000000000000000000000000000000000000000000000000000000000000200000000000000000000000000000000000000000000000000000000000004000000000000000000001000000008000000000000000000000100000000000000000000000000000001000000000000000000000000000000000000000100000",
      "type": "0x2",
      "transactionHash": "0xe0bd4d54cd47c11b3b2a0dea9837dcaf946e9ee0f4a33d6881aca63a1fe49cdc",
      "transactionIndex": "0x1",
      "blockHash": "0xe501a9e34575994dd838df9081abf1bb8f65dbfe8cae52dd2c703569c36aab3d",
      "blockNumber": "0x626457",
      "gasUsed": "0x6c0b",
      "effectiveGasPrice": "0x218711a0f",
      "from": "0x699bceebd59a5b52bb586c737cd7ba636f3fe602",
      "to": "0xaa92a60b75f5c060d0beb6ee24fe8debc8f8e7d9",
      "contractAddress": null
    },
    {
      "status": "0x1",
      "cumulativeGasUsed": "0x14415",
      "logs": [
        {
          "address": "0x0000000000000000000000000000000000001010",
          "topics": [
            "0x4dfe1bbbcf077ddc3e01291eea2d5c70c2b422b415d95645b9adcfd678cb1d63",
            "0x0000000000000000000000000000000000000000000000000000000000001010",
            "0x000000000000000000000000699bceebd59a5b52bb586c737cd7ba636f3fe602",
            "0x00000000000000000000000002f615e95563ef16f10354dba9e584e58d2d4314"
          ],
          "data": "0x0000000000000000000000000000000000000000000000000000e266c3d41e00000000000000000000000000000000000000000000000000cd0a8fedecee4716000000000000000000000000000000000000000000000008017a62dc4d1547a7000000000000000000000000000000000000000000000000cd09ad87291a2916000000000000000000000000000000000000000000000008017b454310e965a7",
          "blockHash": "0xe501a9e34575994dd838df9081abf1bb8f65dbfe8cae52dd2c703569c36aab3d",
          "blockNumber": "0x626457",
          "transactionHash": "0x88c494562357b0034683fc7a18d75f01bca8d79eeeaf323b34c899343f5340ab",
          "transactionIndex": "0x2",
          "logIndex": "0x2",
          "removed": false
        }
      ],
      "logsBloom": "0x00000000000000000000000000000000000000000000000000000008000000000000000000000000020000004000000000008000000000000000000000000000000000000000000000000000000000800000000000000000000100000000000000800000000000000000000000000000000000000000000080000000000000000000000000000000000000000000000000000000000000000000000000000000200000000000000000000000000000000000000000000000000000000000004000000000000000000001000000008000000000000000000000100000000000000000000000000000001000000000000000000000000000000000000000100000",
      "type": "0x2",
      "transactionHash": "0x88c494562357b0034683fc7a18d75f01bca8d79eeeaf323b34c899343f5340ab",
      "transactionIndex": "0x2",
      "blockHash": "0xe501a9e34575994dd838df9081abf1bb8f65dbfe8cae52dd2c703569c36aab3d",
      "blockNumber": "0x626457",
      "gasUsed": "0x6c0b",
      "effectiveGasPrice": "0x218711a0f",
      "from": "0x699bceebd59a5b52bb586c737cd7ba636f3fe602",
      "to": "0xaa92a60b75f5c060d0beb6ee24fe8debc8f8e7d9",
      "contractAddress": null
    },
    {
      "status": "0x1",
      "cumulativeGasUsed": "0x1b020",
      "logs": [
        {
          "address": "0x0000000000000000000000000000000000001010",
          "topics": [
            "0x4dfe1bbbcf077ddc3e01291eea2d5c70c2b422b415d95645b9adcfd678cb1d63",
            "0x0000000000000000000000000000000000000000000000000000000000001010",
            "0x000000000000000000000000699bceebd59a5b52bb586c737cd7ba636f3fe602",
            "0x00000000000000000000000002f615e95563ef16f10354dba9e584e58d2d4314"
          ],
          "data": "0x0000000000000000000000000000000000000000000000000000e266c3d41e00000000000000000000000000000000000000000000000000cd09ad872913d471000000000000000000000000000000000000000000000008017b454310e965a7000000000000000000000000000000000000000000000000cd08cb20653fb671000000000000000000000000000000000000000000000008017c27a9d4bd83a7",
          "blockHash": "0xe501a9e34575994dd838df9081abf1bb8f65dbfe8cae52dd2c703569c36aab3d",
          "blockNumber": "0x626457",
          "transactionHash": "0xa31e8b63ec8d72d771428e714fac09120745b5b410bc9565bcbd774762a8c46b",
          "transactionIndex": "0x3",
          "logIndex": "0x3",
          "removed": false
        }
      ],
      "logsBloom": "0x00000000000000000000000000000000000000000000000000000008000000000000000000000000020000004000000000008000000000000000000000000000000000000000000000000000000000800000000000000000000100000000000000800000000000000000000000000000000000000000000080000000000000000000000000000000000000000000000000000000000000000000000000000000200000000000000000000000000000000000000000000000000000000000004000000000000000000001000000008000000000000000000000100000000000000000000000000000001000000000000000000000000000000000000000100000",
      "type": "0x2",
      "transactionHash": "0xa31e8b63ec8d72d771428e714fac09120745b5b410bc9565bcbd774762a8c46b",
      "transactionIndex": "0x3",
      "blockHash": "0xe501a9e34575994dd838df9081abf1bb8f65dbfe8cae52dd2c703569c36aab3d",
      "blockNumber": "0x626457",
      "gasUsed": "0x6c0b",
      "effectiveGasPrice": "0x218711a0f",
      "from": "0x699bceebd59a5b52bb586c737cd7ba636f3fe602",
      "to": "0xaa92a60b75f5c060d0beb6ee24fe8debc8f8e7d9",
      "contractAddress": null
    },
    {
      "status": "0x1",
      "cumulativeGasUsed": "0x21c2b",
      "logs": [
        {
          "address": "0x0000000000000000000000000000000000001010",
          "topics": [
            "0x4dfe1bbbcf077ddc3e01291eea2d5c70c2b422b415d95645b9adcfd678cb1d63",
            "0x0000000000000000000000000000000000000000000000000000000000001010",
            "0x000000000000000000000000699bceebd59a5b52bb586c737cd7ba636f3fe602",
            "0x00000000000000000000000002f615e95563ef16f10354dba9e584e58d2d4314"
          ],
          "data": "0x0000000000000000000000000000000000000000000000000000e266c3d41e00000000000000000000000000000000000000000000000000cd08cb20653961cc000000000000000000000000000000000000000000000008017c27a9d4bd83a7000000000000000000000000000000000000000000000000cd07e8b9a16543cc000000000000000000000000000000000000000000000008017d0a109891a1a7",
          "blockHash": "0xe501a9e34575994dd838df9081abf1bb8f65dbfe8cae52dd2c703569c36aab3d",
          "blockNumber": "0x626457",
          "transactionHash": "0xb926fc8ce7d0ced6d4e434b614f86c3e0c70622af81fd9361a66907ccf9c81c6",
          "transactionIndex": "0x4",
          "logIndex": "0x4",
          "removed": false
        }
      ],
      "logsBloom": "0x00000000000000000000000000000000000000000000000000000008000000000000000000000000020000004000000000008000000000000000000000000000000000000000000000000000000000800000000000000000000100000000000000800000000000000000000000000000000000000000000080000000000000000000000000000000000000000000000000000000000000000000000000000000200000000000000000000000000000000000000000000000000000000000004000000000000000000001000000008000000000000000000000100000000000000000000000000000001000000000000000000000000000000000000000100000",
      "type": "0x2",
      "transactionHash": "0xb926fc8ce7d0ced6d4e434b614f86c3e0c70622af81fd9361a66907ccf9c81c6",
      "transactionIndex": "0x4",
      "blockHash": "0xe501a9e34575994dd838df9081abf1bb8f65dbfe8cae52dd2c703569c36aab3d",
      "blockNumber": "0x626457",
      "gasUsed": "0x6c0b",
      "effectiveGasPrice": "0x218711a0f",
      "from": "0x699bceebd59a5b52bb586c737cd7ba636f3fe602",
      "to": "0xaa92a60b75f5c060d0beb6ee24fe8debc8f8e7d9",
      "contractAddress": null
    },
    {
      "status": "0x1",
      "cumulativeGasUsed": "0x2881e",
      "logs": [
        {
          "address": "0x0000000000000000000000000000000000001010",
          "topics": [
            "0x4dfe1bbbcf077ddc3e01291eea2d5c70c2b422b415d95645b9adcfd678cb1d63",
            "0x0000000000000000000000000000000000000000000000000000000000001010",
            "0x000000000000000000000000699bceebd59a5b52bb586c737cd7ba636f3fe602",
            "0x00000000000000000000000002f615e95563ef16f10354dba9e584e58d2d4314"
          ],
          "data": "0x0000000000000000000000000000000000000000000000000000e2347939ae00000000000000000000000000000000000000000000000000cd07e8b9a15eef27000000000000000000000000000000000000000000000008017d0a109891a1a7000000000000000000000000000000000000000000000000cd07068528254127000000000000000000000000000000000000000000000008017dec4511cb4fa7",
          "blockHash": "0xe501a9e34575994dd838df9081abf1bb8f65dbfe8cae52dd2c703569c36aab3d",
          "blockNumber": "0x626457",
          "transactionHash": "0x6d0f3435f3a81378848d9e222c69789c7983b6736d393417be607f59992e528b",
          "transactionIndex": "0x5",
          "logIndex": "0x5",
          "removed": false
        }
      ],
      "logsBloom": "0x00000000000000000000000000000000000000000000000000000008000000000000000000000000020000004000000000008000000000000000000000000000000000000000000000000000000000800000000000000000000100000000000000800000000000000000000000000000000000000000000080000000000000000000000000000000000000000000000000000000000000000000000000000000200000000000000000000000000000000000000000000000000000000000004000000000000000000001000000008000000000000000000000100000000000000000000000000000001000000000000000000000000000000000000000100000",
      "type": "0x2",
      "transactionHash": "0x6d0f3435f3a81378848d9e222c69789c7983b6736d393417be607f59992e528b",
      "transactionIndex": "0x5",
      "blockHash": "0xe501a9e34575994dd838df9081abf1bb8f65dbfe8cae52dd2c703569c36aab3d",
      "blockNumber": "0x626457",
      "gasUsed": "0x6bf3",
      "effectiveGasPrice": "0x218711a0f",
      "from": "0x699bceebd59a5b52bb586c737cd7ba636f3fe602",
      "to": "0xaa92a60b75f5c060d0beb6ee24fe8debc8f8e7d9",
      "contractAddress": null
    },
    {
      "status": "0x1",
      "cumulativeGasUsed": "0x2f429",
      "logs": [
        {
          "address": "0x0000000000000000000000000000000000001010",
          "topics": [
            "0x4dfe1bbbcf077ddc3e01291eea2d5c70c2b422b415d95645b9adcfd678cb1d63",
            "0x0000000000000000000000000000000000000000000000000000000000001010",
            "0x000000000000000000000000699bceebd59a5b52bb586c737cd7ba636f3fe602",
            "0x00000000000000000000000002f615e95563ef16f10354dba9e584e58d2d4314"
          ],
          "data": "0x0000000000000000000000000000000000000000000000000000e266c3d41e00000000000000000000000000000000000000000000000000cd070685281eedea000000000000000000000000000000000000000000000008017dec4511cb4fa7000000000000000000000000000000000000000000000000cd06241e644acfea000000000000000000000000000000000000000000000008017eceabd59f6da7",
          "blockHash": "0xe501a9e34575994dd838df9081abf1bb8f65dbfe8cae52dd2c703569c36aab3d",
          "blockNumber": "0x626457",
          "transactionHash": "0x2ee440cfddbeb5977c768d8019d0f816f85cd27a2b3175a8f317289c0268c763",
          "transactionIndex": "0x6",
          "logIndex": "0x6",
          "removed": false
        }
      ],
      "logsBloom": "0x00000000000000000000000000000000000000000000000000000008000000000000000000000000020000004000000000008000000000000000000000000000000000000000000000000000000000800000000000000000000100000000000000800000000000000000000000000000000000000000000080000000000000000000000000000000000000000000000000000000000000000000000000000000200000000000000000000000000000000000000000000000000000000000004000000000000000000001000000008000000000000000000000100000000000000000000000000000001000000000000000000000000000000000000000100000",
      "type": "0x2",
      "transactionHash": "0x2ee440cfddbeb5977c768d8019d0f816f85cd27a2b3175a8f317289c0268c763",
      "transactionIndex": "0x6",
      "blockHash": "0xe501a9e34575994dd838df9081abf1bb8f65dbfe8cae52dd2c703569c36aab3d",
      "blockNumber": "0x626457",
      "gasUsed": "0x6c0b",
      "effectiveGasPrice": "0x218711a0f",
      "from": "0x699bceebd59a5b52bb586c737cd7ba636f3fe602",
      "to": "0xaa92a60b75f5c060d0beb6ee24fe8debc8f8e7d9",
      "contractAddress": null
    },
    {
      "status": "0x1",
      "cumulativeGasUsed": "0x6c0b",
      "logs": [
        {
          "address": "0x0000000000000000000000000000000000001010",
          "topics": [
            "0x4dfe1bbbcf077ddc3e01291eea2d5c70c2b422b415d95645b9adcfd678cb1d63",
            "0x0000000000000000000000000000000000000000000000000000000000001010",
            "0x000000000000000000000000699bceebd59a5b52bb586c737cd7ba636f3fe602",
            "0x00000000000000000000000002f615e95563ef16f10354dba9e584e58d2d4314"
          ],
          "data": "0x0000000000000000000000000000000000000000000000000000e266c3d41e00000000000000000000000000000000000000000000000000cd06241e64447b45000000000000000000000000000000000000000000000008017eceabd59f6da7000000000000000000000000000000000000000000000000cd0541b7a0705d45000000000000000000000000000000000000000000000008017fb11299738ba7",
          "blockHash": "0x1f7485d40bee63751aa9562188f5ad0e60a02a289252cbe2f4b780064bbdab67",
          "blockNumber": "0x626458",
          "transactionHash": "0xcb5e5ba7cc6a397add7eb859deea771a7a362093e8bc309092a4da6a6ac46a94",
          "transactionIndex": "0x0",
          "logIndex": "0x0",
          "removed": false
        }
      ],
      "logsBloom": "0x00000000000000000000000000000000000000000000000000000008000000000000000000000000020000004000000000008000000000000000000000000000000000000000000000000000000000800000000000000000000100000000000000800000000000000000000000000000000000000000000080000000000000000000000000000000000000000000000000000000000000000000000000000000200000000000000000000000000000000000000000000000000000000000004000000000000000000001000000008000000000000000000000100000000000000000000000000000001000000000000000000000000000000000000000100000",
      "type": "0x2",
      "transactionHash": "0xcb5e5ba7cc6a397add7eb859deea771a7a362093e8bc309092a4da6a6ac46a94",
      "transactionIndex": "0x0",
      "blockHash": "0x1f7485d40bee63751aa9562188f5ad0e60a02a289252cbe2f4b780064bbdab67",
      "blockNumber": "0x626458",
      "gasUsed": "0x6c0b",
      "effectiveGasPrice": "0x218711a0f",
      "from": "0x699bceebd59a5b52bb586c737cd7ba636f3fe602",
      "to": "0xaa92a60b75f5c060d0beb6ee24fe8debc8f8e7d9",
      "contractAddress": null
    },
    {
      "status": "0x1",
      "cumulativeGasUsed": "0xd816",
      "logs": [
        {
          "address": "0x0000000000000000000000000000000000001010",
          "topics": [
            "0x4dfe1bbbcf077ddc3e01291eea2d5c70c2b422b415d95645b9adcfd678cb1d63",
            "0x0000000000000000000000000000000000000000000000000000000000001010",
            "0x000000000000000000000000699bceebd59a5b52bb586c737cd7ba636f3fe602",
            "0x00000000000000000000000002f615e95563ef16f10354dba9e584e58d2d4314"
          ],
          "data": "0x0000000000000000000000000000000000000000000000000000e266c3d41e00000000000000000000000000000000000000000000000000cd0541b7a06a08a0000000000000000000000000000000000000000000000008017fb11299738ba7000000000000000000000000000000000000000000000000cd045f50dc95eaa0000000000000000000000000000000000000000000000008018093795d47a9a7",
          "blockHash": "0x1f7485d40bee63751aa9562188f5ad0e60a02a289252cbe2f4b780064bbdab67",
          "blockNumber": "0x626458",
          "transactionHash": "0xa7979f0e6ad3df7768ed62bbc4579fda55c80d74fa2b2b5114d3c44786d0a21d",
          "transactionIndex": "0x1",
          "logIndex": "0x1",
          "removed": false
        }
      ],
      "logsBloom": "0x00000000000000000000000000000000000000000000000000000008000000000000000000000000020000004000000000008000000000000000000000000000000000000000000000000000000000800000000000000000000100000000000000800000000000000000000000000000000000000000000080000000000000000000000000000000000000000000000000000000000000000000000000000000200000000000000000000000000000000000000000000000000000000000004000000000000000000001000000008000000000000000000000100000000000000000000000000000001000000000000000000000000000000000000000100000",
      "type": "0x2",
      "transactionHash": "0xa7979f0e6ad3df7768ed62bbc4579fda55c80d74fa2b2b5114d3c44786d0a21d",
      "transactionIndex": "0x1",
      "blockHash": "0x1f7485d40bee63751aa9562188f5ad0e60a02a289252cbe2f4b780064bbdab67",
      "blockNumber": "0x626458",
      "gasUsed": "0x6c0b",
      "effectiveGasPrice": "0x218711a0f",
      "from": "0x699bceebd59a5b52bb586c737cd7ba636f3fe602",
      "to": "0xaa92a60b75f5c060d0beb6ee24fe8debc8f8e7d9",
      "contractAddress": null
    },
    {
      "status": "0x1",
      "cumulativeGasUsed": "0x14421",
      "logs": [
        {
          "address": "0x0000000000000000000000000000000000001010",
          "topics": [
            "0x4dfe1bbbcf077ddc3e01291eea2d5c70c2b422b415d95645b9adcfd678cb1d63",
            "0x0000000000000000000000000000000000000000000000000000000000001010",
            "0x000000000000000000000000699bceebd59a5b52bb586c737cd7ba636f3fe602",
            "0x00000000000000000000000002f615e95563ef16f10354dba9e584e58d2d4314"
          ],
          "data": "0x0000000000000000000000000000000000000000000000000000e266c3d41e00000000000000000000000000000000000000000000000000cd045f50dc8f95fb000000000000000000000000000000000000000000000008018093795d47a9a7000000000000000000000000000000000000000000000000cd037cea18bb77fb000000000000000000000000000000000000000000000008018175e0211bc7a7",
          "blockHash": "0x1f7485d40bee63751aa9562188f5ad0e60a02a289252cbe2f4b780064bbdab67",
          "blockNumber": "0x626458",
          "transactionHash": "0x555d493c2d3bc24b422438930127ccc33ec2721120a95bed3ad49357d618930c",
          "transactionIndex": "0x2",
          "logIndex": "0x2",
          "removed": false
        }
      ],
      "logsBloom": "0x00000000000000000000000000000000000000000000000000000008000000000000000000000000020000004000000000008000000000000000000000000000000000000000000000000000000000800000000000000000000100000000000000800000000000000000000000000000000000000000000080000000000000000000000000000000000000000000000000000000000000000000000000000000200000000000000000000000000000000000000000000000000000000000004000000000000000000001000000008000000000000000000000100000000000000000000000000000001000000000000000000000000000000000000000100000",
      "type": "0x2",
      "transactionHash": "0x555d493c2d3bc24b422438930127ccc33ec2721120a95bed3ad49357d618930c",
      "transactionIndex": "0x2",
      "blockHash": "0x1f7485d40bee63751aa9562188f5ad0e60a02a289252cbe2f4b780064bbdab67",
      "blockNumber": "0x626458",
      "gasUsed": "0x6c0b",
      "effectiveGasPrice": "0x218711a0f",
      "from": "0x699bceebd59a5b52bb586c737cd7ba636f3fe602",
      "to": "0xaa92a60b75f5c060d0beb6ee24fe8debc8f8e7d9",
      "contractAddress": null
    },
    {
      "status": "0x1",
      "cumulativeGasUsed": "0x1b020",
      "logs": [
        {
          "address": "0x0000000000000000000000000000000000001010",
          "topics": [
            "0x4dfe1bbbcf077ddc3e01291eea2d5c70c2b422b415d95645b9adcfd678cb1d63",
            "0x0000000000000000000000000000000000000000000000000000000000001010",
            "0x000000000000000000000000699bceebd59a5b52bb586c737cd7ba636f3fe602",
            "0x00000000000000000000000002f615e95563ef16f10354dba9e584e58d2d4314"
          ],
          "data": "0x0000000000000000000000000000000000000000000000000000e24d9e86e600000000000000000000000000000000000000000000000000cd037cea18b52356000000000000000000000000000000000000000000000008018175e0211bc7a7000000000000000000000000000000000000000000000000cd029a9c7a2e3d560000000000000000000000000000000000000000000000080182582dbfa2ada7",
          "blockHash": "0x1f7485d40bee63751aa9562188f5ad0e60a02a289252cbe2f4b780064bbdab67",
          "blockNumber": "0x626458",
          "transactionHash": "0xe7d39ec8434fc5b63f8ff2bc668f81818a62a0ab2ce76f43c6319495d50f813a",
          "transactionIndex": "0x3",
          "logIndex": "0x3",
          "removed": false
        }
      ],
      "logsBloom": "0x00000000000000000000000000000000000000000000000000000008000000000000000000000000020000004000000000008000000000000000000000000000000000000000000000000000000000800000000000000000000100000000000000800000000000000000000000000000000000000000000080000000000000000000000000000000000000000000000000000000000000000000000000000000200000000000000000000000000000000000000000000000000000000000004000000000000000000001000000008000000000000000000000100000000000000000000000000000001000000000000000000000000000000000000000100000",
      "type": "0x2",
      "transactionHash": "0xe7d39ec8434fc5b63f8ff2bc668f81818a62a0ab2ce76f43c6319495d50f813a",
      "transactionIndex": "0x3",
      "blockHash": "0x1f7485d40bee63751aa9562188f5ad0e60a02a289252cbe2f4b780064bbdab67",
      "blockNumber": "0x626458",
      "gasUsed": "0x6bff",
      "effectiveGasPrice": "0x218711a0f",
      "from": "0x699bceebd59a5b52bb586c737cd7ba636f3fe602",
      "to": "0xaa92a60b75f5c060d0beb6ee24fe8debc8f8e7d9",
      "contractAddress": null
    },
    {
      "status": "0x1",
      "cumulativeGasUsed": "0x21c2b",
      "logs": [
        {
          "address": "0x0000000000000000000000000000000000001010",
          "topics": [
            "0x4dfe1bbbcf077ddc3e01291eea2d5c70c2b422b415d95645b9adcfd678cb1d63",
            "0x0000000000000000000000000000000000000000000000000000000000001010",
            "0x000000000000000000000000699bceebd59a5b52bb586c737cd7ba636f3fe602",
            "0x00000000000000000000000002f615e95563ef16f10354dba9e584e58d2d4314"
          ],
          "data": "0x0000000000000000000000000000000000000000000000000000e266c3d41e00000000000000000000000000000000000000000000000000cd029a9c7a27e9650000000000000000000000000000000000000000000000080182582dbfa2ada7000000000000000000000000000000000000000000000000cd01b835b653cb6500000000000000000000000000000000000000000000000801833a948376cba7",
          "blockHash": "0x1f7485d40bee63751aa9562188f5ad0e60a02a289252cbe2f4b780064bbdab67",
          "blockNumber": "0x626458",
          "transactionHash": "0xbd9f29f382c7872d3135890dbf908c9426aff1fbba9609fb5d0de870a7051970",
          "transactionIndex": "0x4",
          "logIndex": "0x4",
          "removed": false
        }
      ],
      "logsBloom": "0x00000000000000000000000000000000000000000000000000000008000000000000000000000000020000004000000000008000000000000000000000000000000000000000000000000000000000800000000000000000000100000000000000800000000000000000000000000000000000000000000080000000000000000000000000000000000000000000000000000000000000000000000000000000200000000000000000000000000000000000000000000000000000000000004000000000000000000001000000008000000000000000000000100000000000000000000000000000001000000000000000000000000000000000000000100000",
      "type": "0x2",
      "transactionHash": "0xbd9f29f382c7872d3135890dbf908c9426aff1fbba9609fb5d0de870a7051970",
      "transactionIndex": "0x4",
      "blockHash": "0x1f7485d40bee63751aa9562188f5ad0e60a02a289252cbe2f4b780064bbdab67",
      "blockNumber": "0x626458",
      "gasUsed": "0x6c0b",
      "effectiveGasPrice": "0x218711a0f",
      "from": "0x699bceebd59a5b52bb586c737cd7ba636f3fe602",
      "to": "0xaa92a60b75f5c060d0beb6ee24fe8debc8f8e7d9",
      "contractAddress": null
    },
    {
      "status": "0x1",
      "cumulativeGasUsed": "0x28836",
      "logs": [
        {
          "address": "0x0000000000000000000000000000000000001010",
          "topics": [
            "0x4dfe1bbbcf077ddc3e01291eea2d5c70c2b422b415d95645b9adcfd678cb1d63",
            "0x0000000000000000000000000000000000000000000000000000000000001010",
            "0x000000000000000000000000699bceebd59a5b52bb586c737cd7ba636f3fe602",
            "0x00000000000000000000000002f615e95563ef16f10354dba9e584e58d2d4314"
          ],
          "data": "0x0000000000000000000000000000000000000000000000000000e266c3d41e00000000000000000000000000000000000000000000000000cd01b835b64d76c000000000000000000000000000000000000000000000000801833a948376cba7000000000000000000000000000000000000000000000000cd00d5cef27958c000000000000000000000000000000000000000000000000801841cfb474ae9a7",
          "blockHash": "0x1f7485d40bee63751aa9562188f5ad0e60a02a289252cbe2f4b780064bbdab67",
          "blockNumber": "0x626458",
          "transactionHash": "0xc967cffef79a4c8619b98513c2ba22ec70c9dc125ee17604842937780f2ca67e",
          "transactionIndex": "0x5",
          "logIndex": "0x5",
          "removed": false
        }
      ],
      "logsBloom": "0x00000000000000000000000000000000000000000000000000000008000000000000000000000000020000004000000000008000000000000000000000000000000000000000000000000000000000800000000000000000000100000000000000800000000000000000000000000000000000000000000080000000000000000000000000000000000000000000000000000000000000000000000000000000200000000000000000000000000000000000000000000000000000000000004000000000000000000001000000008000000000000000000000100000000000000000000000000000001000000000000000000000000000000000000000100000",
      "type": "0x2",
      "transactionHash": "0xc967cffef79a4c8619b98513c2ba22ec70c9dc125ee17604842937780f2ca67e",
      "transactionIndex": "0x5",
      "blockHash": "0x1f7485d40bee63751aa9562188f5ad0e60a02a289252cbe2f4b780064bbdab67",
      "blockNumber": "0x626458",
      "gasUsed": "0x6c0b",
      "effectiveGasPrice": "0x218711a0f",
      "from": "0x699bceebd59a5b52bb586c737cd7ba636f3fe602",
      "to": "0xaa92a60b75f5c060d0beb6ee24fe8debc8f8e7d9",
      "contractAddress": null
    },
    {
      "status": "0x1",
      "cumulativeGasUsed": "0x2f441",
      "logs": [
        {
          "address": "0x0000000000000000000000000000000000001010",
          "topics": [
            "0x4dfe1bbbcf077ddc3e01291eea2d5c70c2b422b415d95645b9adcfd678cb1d63",
            "0x0000000000000000000000000000000000000000000000000000000000001010",
            "0x000000000000000000000000699bceebd59a5b52bb586c737cd7ba636f3fe602",
            "0x00000000000000000000000002f615e95563ef16f10354dba9e584e58d2d4314"
          ],
          "data": "0x0000000000000000000000000000000000000000000000000000e266c3d41e00000000000000000000000000000000000000000000000000cd00d5cef273041b00000000000000000000000000000000000000000000000801841cfb474ae9a7000000000000000000000000000000000000000000000000ccfff3682e9ee61b0000000000000000000000000000000000000000000000080184ff620b1f07a7",
          "blockHash": "0x1f7485d40bee63751aa9562188f5ad0e60a02a289252cbe2f4b780064bbdab67",
          "blockNumber": "0x626458",
          "transactionHash": "0x55af8fcde43ac28837fecf5be480ddfc92c84a1f6d12c683ce89daf0813465c3",
          "transactionIndex": "0x6",
          "logIndex": "0x6",
          "removed": false
        }
      ],
      "logsBloom": "0x00000000000000000000000000000000000000000000000000000008000000000000000000000000020000004000000000008000000000000000000000000000000000000000000000000000000000800000000000000000000100000000000000800000000000000000000000000000000000000000000080000000000000000000000000000000000000000000000000000000000000000000000000000000200000000000000000000000000000000000000000000000000000000000004000000000000000000001000000008000000000000000000000100000000000000000000000000000001000000000000000000000000000000000000000100000",
      "type": "0x2",
      "transactionHash": "0x55af8fcde43ac28837fecf5be480ddfc92c84a1f6d12c683ce89daf0813465c3",
      "transactionIndex": "0x6",
      "blockHash": "0x1f7485d40bee63751aa9562188f5ad0e60a02a289252cbe2f4b780064bbdab67",
      "blockNumber": "0x626458",
      "gasUsed": "0x6c0b",
      "effectiveGasPrice": "0x218711a0f",
      "from": "0x699bceebd59a5b52bb586c737cd7ba636f3fe602",
      "to": "0xaa92a60b75f5c060d0beb6ee24fe8debc8f8e7d9",
      "contractAddress": null
    },
    {
      "status": "0x1",
      "cumulativeGasUsed": "0x1587f",
      "logs": [
        {
          "address": "0x0000000000000000000000000000000000001010",
          "topics": [
            "0x4dfe1bbbcf077ddc3e01291eea2d5c70c2b422b415d95645b9adcfd678cb1d63",
            "0x0000000000000000000000000000000000000000000000000000000000001010",
            "0x000000000000000000000000699bceebd59a5b52bb586c737cd7ba636f3fe602",
            "0x00000000000000000000000002f615e95563ef16f10354dba9e584e58d2d4314"
          ],
          "data": "0x0000000000000000000000000000000000000000000000000000e266c3d41e00000000000000000000000000000000000000000000000000ccfff3682e989176000000000000000000000000000000000000000000000008018f5854ff1895b7000000000000000000000000000000000000000000000000ccff11016ac4737600000000000000000000000000000000000000000000000801903abbc2ecb3b7",
          "blockHash": "0x796cd1e5cf3d49da89313c118bfc6764e5b837d1404a3e31c84590af818d5c8d",
          "blockNumber": "0x626459",
          "transactionHash": "0x89db6faee907add74c7b24a5a66d7528e2cb31ed4ca3924dbeeb3ff7feee2c8f",
          "transactionIndex": "0x1",
          "logIndex": "0x1",
          "removed": false
        }
      ],
      "logsBloom": "0x00000000000000000000000000000000000000000000000000000008000000000000000000000000020000004000000000008000000000000000000000000000000000000000000000000000000000800000000000000000000100000000000000800000000000000000000000000000000000000000000080000000000000000000000000000000000000000000000000000000000000000000000000000000200000000000000000000000000000000000000000000000000000000000004000000000000000000001000000008000000000000000000000100000000000000000000000000000001000000000000000000000000000000000000000100000",
      "type": "0x2",
      "transactionHash": "0x89db6faee907add74c7b24a5a66d7528e2cb31ed4ca3924dbeeb3ff7feee2c8f",
      "transactionIndex": "0x1",
      "blockHash": "0x796cd1e5cf3d49da89313c118bfc6764e5b837d1404a3e31c84590af818d5c8d",
      "blockNumber": "0x626459",
      "gasUsed": "0x6c0b",
      "effectiveGasPrice": "0x218711a0f",
      "from": "0x699bceebd59a5b52bb586c737cd7ba636f3fe602",
      "to": "0xaa92a60b75f5c060d0beb6ee24fe8debc8f8e7d9",
      "contractAddress": null
    },
    {
      "status": "0x1",
      "cumulativeGasUsed": "0x1c48a",
      "logs": [
        {
          "address": "0x0000000000000000000000000000000000001010",
          "topics": [
            "0x4dfe1bbbcf077ddc3e01291eea2d5c70c2b422b415d95645b9adcfd678cb1d63",
            "0x0000000000000000000000000000000000000000000000000000000000001010",
            "0x000000000000000000000000699bceebd59a5b52bb586c737cd7ba636f3fe602",
            "0x00000000000000000000000002f615e95563ef16f10354dba9e584e58d2d4314"
          ],
          "data": "0x0000000000000000000000000000000000000000000000000000e266c3d41e00000000000000000000000000000000000000000000000000ccff11016abe1ed100000000000000000000000000000000000000000000000801903abbc2ecb3b7000000000000000000000000000000000000000000000000ccfe2e9aa6ea00d100000000000000000000000000000000000000000000000801911d2286c0d1b7",
          "blockHash": "0x796cd1e5cf3d49da89313c118bfc6764e5b837d1404a3e31c84590af818d5c8d",
          "blockNumber": "0x626459",
          "transactionHash": "0x6201a27e54d5ee79310f2ba8c3c08a465d4da2bf406f93d4f404f71451dcaf0b",
          "transactionIndex": "0x2",
          "logIndex": "0x2",
          "removed": false
        }
      ],
      "logsBloom": "0x00000000000000000000000000000000000000000000000000000008000000000000000000000000020000004000000000008000000000000000000000000000000000000000000000000000000000800000000000000000000100000000000000800000000000000000000000000000000000000000000080000000000000000000000000000000000000000000000000000000000000000000000000000000200000000000000000000000000000000000000000000000000000000000004000000000000000000001000000008000000000000000000000100000000000000000000000000000001000000000000000000000000000000000000000100000",
      "type": "0x2",
      "transactionHash": "0x6201a27e54d5ee79310f2ba8c3c08a465d4da2bf406f93d4f404f71451dcaf0b",
      "transactionIndex": "0x2",
      "blockHash": "0x796cd1e5cf3d49da89313c118bfc6764e5b837d1404a3e31c84590af818d5c8d",
      "blockNumber": "0x626459",
      "gasUsed": "0x6c0b",
      "effectiveGasPrice": "0x218711a0f",
      "from": "0x699bceebd59a5b52bb586c737cd7ba636f3fe602",
      "to": "0xaa92a60b75f5c060d0beb6ee24fe8debc8f8e7d9",
      "contractAddress": null
    },
    {
      "status": "0x1",
      "cumulativeGasUsed": "0x229fa",
      "logs": [
        {
          "address": "0x0000000000000000000000000000000000001010",
          "topics": [
            "0x4dfe1bbbcf077ddc3e01291eea2d5c70c2b422b415d95645b9adcfd678cb1d63",
            "0x0000000000000000000000000000000000000000000000000000000000001010",
            "0x000000000000000000000000699bceebd59a5b52bb586c737cd7ba636f3fe602",
            "0x00000000000000000000000002f615e95563ef16f10354dba9e584e58d2d4314"
          ],
          "data": "0x0000000000000000000000000000000000000000000000000000d48f50bd6000000000000000000000000000000000000000000000000000ccfe2e9aa6e3ac2c00000000000000000000000000000000000000000000000801911d2286c0d1b7000000000000000000000000000000000000000000000000ccfd5a0b56264c2c0000000000000000000000000000000000000000000000080191f1b1d77e31b7",
          "blockHash": "0x796cd1e5cf3d49da89313c118bfc6764e5b837d1404a3e31c84590af818d5c8d",
          "blockNumber": "0x626459",
          "transactionHash": "0x84ef2a5c0ff402435cc365c0fdd81fd58f772c396c6bea42b6bc62ece839bc9b",
          "transactionIndex": "0x3",
          "logIndex": "0x3",
          "removed": false
        }
      ],
      "logsBloom": "0x00000000000000000000000000000000000000000000000000000008000000000000000000000000020000004000000000008000000000000000000000000000000000000000000000000000000000800000000000000000000100000000000000800000000000000000000000000000000000000000000080000000000000000000000000000000000000000000000000000000000000000000000000000000200000000000000000000000000000000000000000000000000000000000004000000000000000000001000000008000000000000000000000100000000000000000000000000000001000000000000000000000000000000000000000100000",
      "type": "0x2",
      "transactionHash": "0x84ef2a5c0ff402435cc365c0fdd81fd58f772c396c6bea42b6bc62ece839bc9b",
      "transactionIndex": "0x3",
      "blockHash": "0x796cd1e5cf3d49da89313c118bfc6764e5b837d1404a3e31c84590af818d5c8d",
      "blockNumber": "0x626459",
      "gasUsed": "0x6570",
      "effectiveGasPrice": "0x218711a0f",
      "from": "0x699bceebd59a5b52bb586c737cd7ba636f3fe602",
      "to": "0xaa92a60b75f5c060d0beb6ee24fe8debc8f8e7d9",
      "contractAddress": null
    }
  ],
  "libraries": [],
  "pending": [],
  "returns": {},
  "timestamp": 1714411404,
  "chain": 80002,
  "commit": "9546700"
}