{
  "transactions": [
    {
      "hash": "0xb2c8dd49a07aa5908cf0edf57d6bff95914bfa5f4e24a519510e780119f35ddb",
      "transactionType": "CALL",
      "contractName": null,
      "contractAddress": "0xaa92a60b75f5c060d0beb6ee24fe8debc8f8e7d9",
      "function": "updateCommittee(bytes32,bool)",
      "arguments": [
        "0xe02c837304042569bc3a6fb2eaccd3249366b24288666e9a7a6367eddc50e494",
        "true"
      ],
      "transaction": {
        "from": "0x699bceebd59a5b52bb586c737cd7ba636f3fe602",
        "to": "0xaa92a60b75f5c060d0beb6ee24fe8debc8f8e7d9",
        "gas": "0x11b48",
        "value": "0x0",
        "input": "0x256f225ae02c837304042569bc3a6fb2eaccd3249366b24288666e9a7a6367eddc50e4940000000000000000000000000000000000000000000000000000000000000001",
        "nonce": "0xb0",
        "chainId": "0x13882",
        "accessList": null,
        "type": null
      },
      "additionalContracts": [],
      "isFixedGasLimit": false
    },
    {
      "hash": "0xa9b5ac82d233d5c198b8fe1b267d0763457964b82fe56f2a62f581eb5c444b54",
      "transactionType": "CALL",
      "contractName": null,
      "contractAddress": "0xaa92a60b75f5c060d0beb6ee24fe8debc8f8e7d9",
      "function": "updateCommittee(bytes32,bool)",
      "arguments": [
        "0xcc5ad98f73b16c23fa3c3103839207819a3a8c9949f28cd32ed5dd58db0a3a90",
        "true"
      ],
      "transaction": {
        "from": "0x699bceebd59a5b52bb586c737cd7ba636f3fe602",
        "to": "0xaa92a60b75f5c060d0beb6ee24fe8debc8f8e7d9",
        "gas": "0x11b48",
        "value": "0x0",
        "input": "0x256f225acc5ad98f73b16c23fa3c3103839207819a3a8c9949f28cd32ed5dd58db0a3a900000000000000000000000000000000000000000000000000000000000000001",
        "nonce": "0xb1",
        "chainId": "0x13882",
        "accessList": null,
        "type": null
      },
      "additionalContracts": [],
      "isFixedGasLimit": false
    },
    {
      "hash": "0x03d9c22053e2986da8b4305ea87b0ada32ad2d7f183db11e9b24aec408470f0b",
      "transactionType": "CALL",
      "contractName": null,
      "contractAddress": "0xaa92a60b75f5c060d0beb6ee24fe8debc8f8e7d9",
      "function": "updateCommittee(bytes32,bool)",
      "arguments": [
        "0xfb0f57f4e5c2d1b234771ed825b05cc4e56762970118b2ca928fdcb46a172f8a",
        "true"
      ],
      "transaction": {
        "from": "0x699bceebd59a5b52bb586c737cd7ba636f3fe602",
        "to": "0xaa92a60b75f5c060d0beb6ee24fe8debc8f8e7d9",
        "gas": "0x11b48",
        "value": "0x0",
        "input": "0x256f225afb0f57f4e5c2d1b234771ed825b05cc4e56762970118b2ca928fdcb46a172f8a0000000000000000000000000000000000000000000000000000000000000001",
        "nonce": "0xb2",
        "chainId": "0x13882",
        "accessList": null,
        "type": null
      },
      "additionalContracts": [],
      "isFixedGasLimit": false
    },
    {
      "hash": "0xcbb02a1d4d8d3bbf74cf769cfdf2ac535fe98911cc6f34d1a96c6108fab2bb00",
      "transactionType": "CALL",
      "contractName": null,
      "contractAddress": "0xaa92a60b75f5c060d0beb6ee24fe8debc8f8e7d9",
      "function": "updateCommittee(bytes32,bool)",
      "arguments": [
        "0xa54437f2be81a9772ac5dcf84e260055005ec7d4ba4f2caa635925fe3ce0b423",
        "true"
      ],
      "transaction": {
        "from": "0x699bceebd59a5b52bb586c737cd7ba636f3fe602",
        "to": "0xaa92a60b75f5c060d0beb6ee24fe8debc8f8e7d9",
        "gas": "0x11b25",
        "value": "0x0",
        "input": "0x256f225aa54437f2be81a9772ac5dcf84e260055005ec7d4ba4f2caa635925fe3ce0b4230000000000000000000000000000000000000000000000000000000000000001",
        "nonce": "0xb3",
        "chainId": "0x13882",
        "accessList": null,
        "type": null
      },
      "additionalContracts": [],
      "isFixedGasLimit": false
    },
    {
      "hash": "0xcabf876e2df86a44ae1f8b6f09e474ff901c4a9a8bdd2b5167ac538283bc40ce",
      "transactionType": "CALL",
      "contractName": null,
      "contractAddress": "0xaa92a60b75f5c060d0beb6ee24fe8debc8f8e7d9",
      "function": "updateCommittee(bytes32,bool)",
      "arguments": [
        "0x4d3d881bcb787b7b6f65c6d1a2032415ab9d24ef6b86760d612ce53e99235192",
        "true"
      ],
      "transaction": {
        "from": "0x699bceebd59a5b52bb586c737cd7ba636f3fe602",
        "to": "0xaa92a60b75f5c060d0beb6ee24fe8debc8f8e7d9",
        "gas": "0x11b48",
        "value": "0x0",
        "input": "0x256f225a4d3d881bcb787b7b6f65c6d1a2032415ab9d24ef6b86760d612ce53e992351920000000000000000000000000000000000000000000000000000000000000001",
        "nonce": "0xb4",
        "chainId": "0x13882",
        "accessList": null,
        "type": null
      },
      "additionalContracts": [],
      "isFixedGasLimit": false
    },
    {
      "hash": "0xdd2f6669fa15d41df6a4ccad3064ab416b450041a01cd79e695bbf4b326ff8a3",
      "transactionType": "CALL",
      "contractName": null,
      "contractAddress": "0xaa92a60b75f5c060d0beb6ee24fe8debc8f8e7d9",
      "function": "updateCommittee(bytes32,bool)",
      "arguments": [
        "0xdfc980fc0d0b9aafd47e6f23c0bed0048eb22025cc61e77a32f5604f1c6c04c2",
        "true"
      ],
      "transaction": {
        "from": "0x699bceebd59a5b52bb586c737cd7ba636f3fe602",
        "to": "0xaa92a60b75f5c060d0beb6ee24fe8debc8f8e7d9",
        "gas": "0x11b48",
        "value": "0x0",
        "input": "0x256f225adfc980fc0d0b9aafd47e6f23c0bed0048eb22025cc61e77a32f5604f1c6c04c20000000000000000000000000000000000000000000000000000000000000001",
        "nonce": "0xb5",
        "chainId": "0x13882",
        "accessList": null,
        "type": null
      },
      "additionalContracts": [],
      "isFixedGasLimit": false
    },
    {
      "hash": "0xaaf2881524f27ecdaade0237be9332dbccafedcf7b10f9bbe0cbd7c138828b02",
      "transactionType": "CALL",
      "contractName": null,
      "contractAddress": "0xaa92a60b75f5c060d0beb6ee24fe8debc8f8e7d9",
      "function": "updateCommittee(bytes32,bool)",
      "arguments": [
        "0x261974f94d4cc33749d7fe8a6fe19e2f154a820fa2ff729626295e4780e25a8c",
        "true"
      ],
      "transaction": {
        "from": "0x699bceebd59a5b52bb586c737cd7ba636f3fe602",
        "to": "0xaa92a60b75f5c060d0beb6ee24fe8debc8f8e7d9",
        "gas": "0x11b48",
        "value": "0x0",
        "input": "0x256f225a261974f94d4cc33749d7fe8a6fe19e2f154a820fa2ff729626295e4780e25a8c0000000000000000000000000000000000000000000000000000000000000001",
        "nonce": "0xb6",
        "chainId": "0x13882",
        "accessList": null,
        "type": null
      },
      "additionalContracts": [],
      "isFixedGasLimit": false
    },
    {
      "hash": "0x8e201d6a80f0288abd69d5eca05324576e1a160cf6ebd6e3a2e074080e6312c7",
      "transactionType": "CALL",
      "contractName": null,
      "contractAddress": "0xaa92a60b75f5c060d0beb6ee24fe8debc8f8e7d9",
      "function": "updateCommittee(bytes32,bool)",
      "arguments": [
        "0x1f9498c58ff25dce4616b2968242de8130aa8ab180e566ec0be153d94c44ba5b",
        "true"
      ],
      "transaction": {
        "from": "0x699bceebd59a5b52bb586c737cd7ba636f3fe602",
        "to": "0xaa92a60b75f5c060d0beb6ee24fe8debc8f8e7d9",
        "gas": "0x11b48",
        "value": "0x0",
        "input": "0x256f225a1f9498c58ff25dce4616b2968242de8130aa8ab180e566ec0be153d94c44ba5b0000000000000000000000000000000000000000000000000000000000000001",
        "nonce": "0xb7",
        "chainId": "0x13882",
        "accessList": null,
        "type": null
      },
      "additionalContracts": [],
      "isFixedGasLimit": false
    },
    {
      "hash": "0xa714b47fa75dde7eb2a36f0b11496f4124e5dab8ba3001ca1ed0fe55967c6641",
      "transactionType": "CALL",
      "contractName": null,
      "contractAddress": "0xaa92a60b75f5c060d0beb6ee24fe8debc8f8e7d9",
      "function": "updateCommittee(bytes32,bool)",
      "arguments": [
        "0x5d6d7c1e00f5a047c0472f077e0ccf6aee82d0bae4173560ed0b296c8137442a",
        "true"
      ],
      "transaction": {
        "from": "0x699bceebd59a5b52bb586c737cd7ba636f3fe602",
        "to": "0xaa92a60b75f5c060d0beb6ee24fe8debc8f8e7d9",
        "gas": "0x10b7a",
        "value": "0x0",
        "input": "0x256f225a5d6d7c1e00f5a047c0472f077e0ccf6aee82d0bae4173560ed0b296c8137442a0000000000000000000000000000000000000000000000000000000000000001",
        "nonce": "0xb8",
        "chainId": "0x13882",
        "accessList": null,
        "type": null
      },
      "additionalContracts": [],
      "isFixedGasLimit": false
    },
    {
      "hash": "0x0570ae778e7736b50358eb46cf8df53de44706bb1d8a2359a9cfa700e93e3bce",
      "transactionType": "CALL",
      "contractName": null,
      "contractAddress": "0xaa92a60b75f5c060d0beb6ee24fe8debc8f8e7d9",
      "function": "updateCommittee(bytes32,bool)",
      "arguments": [
        "0x15b3fb17d96dfd9ebb4c3d174c44f8d980ff79042cda40da3f6e44dc15a9617d",
        "true"
      ],
      "transaction": {
        "from": "0x699bceebd59a5b52bb586c737cd7ba636f3fe602",
        "to": "0xaa92a60b75f5c060d0beb6ee24fe8debc8f8e7d9",
        "gas": "0x11b48",
        "value": "0x0",
        "input": "0x256f225a15b3fb17d96dfd9ebb4c3d174c44f8d980ff79042cda40da3f6e44dc15a9617d0000000000000000000000000000000000000000000000000000000000000001",
        "nonce": "0xb9",
        "chainId": "0x13882",
        "accessList": null,
        "type": null
      },
      "additionalContracts": [],
      "isFixedGasLimit": false
    },
    {
      "hash": "0x76a98e8a1b4776890ea02db6d979bb5b62cb60c6c71ef709cc7c90139e6d1f9e",
      "transactionType": "CALL",
      "contractName": null,
      "contractAddress": "0xaa92a60b75f5c060d0beb6ee24fe8debc8f8e7d9",
      "function": "updateCommittee(bytes32,bool)",
      "arguments": [
        "0x84e86cd36248a035526dad90a3c4d63816381ac1cb6bbc95a11d5d70cb07b149",
        "true"
      ],
      "transaction": {
        "from": "0x699bceebd59a5b52bb586c737cd7ba636f3fe602",
        "to": "0xaa92a60b75f5c060d0beb6ee24fe8debc8f8e7d9",
        "gas": "0x11b48",
        "value": "0x0",
        "input": "0x256f225a84e86cd36248a035526dad90a3c4d63816381ac1cb6bbc95a11d5d70cb07b1490000000000000000000000000000000000000000000000000000000000000001",
        "nonce": "0xba",
        "chainId": "0x13882",
        "accessList": null,
        "type": null
      },
      "additionalContracts": [],
      "isFixedGasLimit": false
    },
    {
      "hash": "0xac3c744dc7a65cffe5d0c91f23aafdf7784157ddb30276052abbf81dca7bb260",
      "transactionType": "CALL",
      "contractName": null,
      "contractAddress": "0xaa92a60b75f5c060d0beb6ee24fe8debc8f8e7d9",
      "function": "updateCommittee(bytes32,bool)",
      "arguments": [
        "0x3dc83da57ddcdd4857b7c1fff7ca2d736fd45e71cdad4d909c66b4ec2e66f728",
        "true"
      ],
      "transaction": {
        "from": "0x699bceebd59a5b52bb586c737cd7ba636f3fe602",
        "to": "0xaa92a60b75f5c060d0beb6ee24fe8debc8f8e7d9",
        "gas": "0x11b48",
        "value": "0x0",
        "input": "0x256f225a3dc83da57ddcdd4857b7c1fff7ca2d736fd45e71cdad4d909c66b4ec2e66f7280000000000000000000000000000000000000000000000000000000000000001",
        "nonce": "0xbb",
        "chainId": "0x13882",
        "accessList": null,
        "type": null
      },
      "additionalContracts": [],
      "isFixedGasLimit": false
    },
    {
      "hash": "0x314a142d5e7495f7bf5f0e0f1905ac78b949a4ceea4ac3063171e823e9a096ac",
      "transactionType": "CALL",
      "contractName": null,
      "contractAddress": "0xaa92a60b75f5c060d0beb6ee24fe8debc8f8e7d9",
      "function": "updateCommittee(bytes32,bool)",
      "arguments": [
        "0x6bebac3de134650499188b570117f797c6f8cb5138ee6a77cca72cb08385f6cb",
        "true"
      ],
      "transaction": {
        "from": "0x699bceebd59a5b52bb586c737cd7ba636f3fe602",
        "to": "0xaa92a60b75f5c060d0beb6ee24fe8debc8f8e7d9",
        "gas": "0x11b48",
        "value": "0x0",
        "input": "0x256f225a6bebac3de134650499188b570117f797c6f8cb5138ee6a77cca72cb08385f6cb0000000000000000000000000000000000000000000000000000000000000001",
        "nonce": "0xbc",
        "chainId": "0x13882",
        "accessList": null,
        "type": null
      },
      "additionalContracts": [],
      "isFixedGasLimit": false
    },
    {
      "hash": "0xdb50afa55a061292bb7b434836c51eb713fa2b5b1c2e1c20b737d6b9d3e7030f",
      "transactionType": "CALL",
      "contractName": null,
      "contractAddress": "0xaa92a60b75f5c060d0beb6ee24fe8debc8f8e7d9",
      "function": "updateCommittee(bytes32,bool)",
      "arguments": [
        "0x5ba4271fa5aacb063f46ea0dbfe821640173659bc3cf1c67781bbb3b3598ffcd",
        "true"
      ],
      "transaction": {
        "from": "0x699bceebd59a5b52bb586c737cd7ba636f3fe602",
        "to": "0xaa92a60b75f5c060d0beb6ee24fe8debc8f8e7d9",
        "gas": "0x11b48",
        "value": "0x0",
        "input": "0x256f225a5ba4271fa5aacb063f46ea0dbfe821640173659bc3cf1c67781bbb3b3598ffcd0000000000000000000000000000000000000000000000000000000000000001",
        "nonce": "0xbd",
        "chainId": "0x13882",
        "accessList": null,
        "type": null
      },
      "additionalContracts": [],
      "isFixedGasLimit": false
    },
    {
      "hash": "0x604558b10d0738183fe19b2b8061a244957108df4ae14fc46956e858107fe266",
      "transactionType": "CALL",
      "contractName": null,
      "contractAddress": "0xaa92a60b75f5c060d0beb6ee24fe8debc8f8e7d9",
      "function": "updateCommittee(bytes32,bool)",
      "arguments": [
        "0x83aecc3070ad6ab5f18f4a0a67bf5eac70053f19f0f3d4e9b8f23bc11df5d03b",
        "true"
      ],
      "transaction": {
        "from": "0x699bceebd59a5b52bb586c737cd7ba636f3fe602",
        "to": "0xaa92a60b75f5c060d0beb6ee24fe8debc8f8e7d9",
        "gas": "0x11b48",
        "value": "0x0",
        "input": "0x256f225a83aecc3070ad6ab5f18f4a0a67bf5eac70053f19f0f3d4e9b8f23bc11df5d03b0000000000000000000000000000000000000000000000000000000000000001",
        "nonce": "0xbe",
        "chainId": "0x13882",
        "accessList": null,
        "type": null
      },
      "additionalContracts": [],
      "isFixedGasLimit": false
    }
  ],
  "receipts": [
    {
      "status": "0x1",
      "cumulativeGasUsed": "0xc1b3",
      "logs": [
        {
          "address": "0x0000000000000000000000000000000000001010",
          "topics": [
            "0x4dfe1bbbcf077ddc3e01291eea2d5c70c2b422b415d95645b9adcfd678cb1d63",
            "0x0000000000000000000000000000000000000000000000000000000000001010",
            "0x000000000000000000000000699bceebd59a5b52bb586c737cd7ba636f3fe602",
            "0x00000000000000000000000004ba3ef4c023c1006019a0f9baf6e70455e41fcf"
          ],
          "data": "0x000000000000000000000000000000000000000000000000005842a7efc7a1e5000000000000000000000000000000000000000000000000d0832a4d04a7d90900000000000000000000000000000000000000000000007d2b720ee9f8035b6c000000000000000000000000000000000000000000000000d02ae7a514e0372400000000000000000000000000000000000000000000007d2bca5191e7cafd51",
          "blockHash": "0x73b2248661c3483d94e34c806cf47e7c3fda91b71312bf46adaad3b977b9e697",
          "blockNumber": "0x61dc5a",
          "transactionHash": "0xb2c8dd49a07aa5908cf0edf57d6bff95914bfa5f4e24a519510e780119f35ddb",
          "transactionIndex": "0x0",
          "logIndex": "0x0",
          "removed": false
        }
      ],
      "logsBloom": "0x00000000000000000000000000000000000000000000000000000000000004000000000000000000000000000000000000008000000000000000000000000000000000000000000000000000000000800000000000000000000100000000000000800000000000000000000000000000000000000000000080000000000000000000000000004000000000000000000000000000000000000000000000000000200000000000000000000000000000000000000000000000000000000000004000000000000000000001000000008000000000000000000000100000000000000000000000000000001000000000000000000000000000000000000000100000",
      "type": "0x2",
      "transactionHash": "0xb2c8dd49a07aa5908cf0edf57d6bff95914bfa5f4e24a519510e780119f35ddb",
      "transactionIndex": "0x0",
      "blockHash": "0x73b2248661c3483d94e34c806cf47e7c3fda91b71312bf46adaad3b977b9e697",
      "blockNumber": "0x61dc5a",
      "gasUsed": "0xc1b3",
      "effectiveGasPrice": "0x74a5ed5216",
      "from": "0x699bceebd59a5b52bb586c737cd7ba636f3fe602",
      "to": "0xaa92a60b75f5c060d0beb6ee24fe8debc8f8e7d9",
      "contractAddress": null
    },
    {
      "status": "0x1",
      "cumulativeGasUsed": "0x18366",
      "logs": [
        {
          "address": "0x0000000000000000000000000000000000001010",
          "topics": [
            "0x4dfe1bbbcf077ddc3e01291eea2d5c70c2b422b415d95645b9adcfd678cb1d63",
            "0x0000000000000000000000000000000000000000000000000000000000001010",
            "0x000000000000000000000000699bceebd59a5b52bb586c737cd7ba636f3fe602",
            "0x00000000000000000000000004ba3ef4c023c1006019a0f9baf6e70455e41fcf"
          ],
          "data": "0x000000000000000000000000000000000000000000000000005842a7efc7a1e5000000000000000000000000000000000000000000000000d02ae7a514d4dda700000000000000000000000000000000000000000000007d2bca5191e7cafd51000000000000000000000000000000000000000000000000cfd2a4fd250d3bc200000000000000000000000000000000000000000000007d2c229439d7929f36",
          "blockHash": "0x73b2248661c3483d94e34c806cf47e7c3fda91b71312bf46adaad3b977b9e697",
          "blockNumber": "0x61dc5a",
          "transactionHash": "0xa9b5ac82d233d5c198b8fe1b267d0763457964b82fe56f2a62f581eb5c444b54",
          "transactionIndex": "0x1",
          "logIndex": "0x1",
          "removed": false
        }
      ],
      "logsBloom": "0x00000000000000000000000000000000000000000000000000000000000004000000000000000000000000000000000000008000000000000000000000000000000000000000000000000000000000800000000000000000000100000000000000800000000000000000000000000000000000000000000080000000000000000000000000004000000000000000000000000000000000000000000000000000200000000000000000000000000000000000000000000000000000000000004000000000000000000001000000008000000000000000000000100000000000000000000000000000001000000000000000000000000000000000000000100000",
      "type": "0x2",
      "transactionHash": "0xa9b5ac82d233d5c198b8fe1b267d0763457964b82fe56f2a62f581eb5c444b54",
      "transactionIndex": "0x1",
      "blockHash": "0x73b2248661c3483d94e34c806cf47e7c3fda91b71312bf46adaad3b977b9e697",
      "blockNumber": "0x61dc5a",
      "gasUsed": "0xc1b3",
      "effectiveGasPrice": "0x74a5ed5216",
      "from": "0x699bceebd59a5b52bb586c737cd7ba636f3fe602",
      "to": "0xaa92a60b75f5c060d0beb6ee24fe8debc8f8e7d9",
      "contractAddress": null
    },
    {
      "status": "0x1",
      "cumulativeGasUsed": "0xc1b3",
      "logs": [
        {
          "address": "0x0000000000000000000000000000000000001010",
          "topics": [
            "0x4dfe1bbbcf077ddc3e01291eea2d5c70c2b422b415d95645b9adcfd678cb1d63",
            "0x0000000000000000000000000000000000000000000000000000000000001010",
            "0x000000000000000000000000699bceebd59a5b52bb586c737cd7ba636f3fe602",
            "0x00000000000000000000000004ba3ef4c023c1006019a0f9baf6e70455e41fcf"
          ],
          "data": "0x000000000000000000000000000000000000000000000000005842a7efc7a1e5000000000000000000000000000000000000000000000000cfd2a4fd2501e24500000000000000000000000000000000000000000000007d2c229439d7929f36000000000000000000000000000000000000000000000000cf7a6255353a406000000000000000000000000000000000000000000000007d2c7ad6e1c75a411b",
          "blockHash": "0xc7408a6b1f8d389f00d658b9531e0896bda93eb4742b76239d42d6c80f188b5b",
          "blockNumber": "0x61dc5b",
          "transactionHash": "0x03d9c22053e2986da8b4305ea87b0ada32ad2d7f183db11e9b24aec408470f0b",
          "transactionIndex": "0x0",
          "logIndex": "0x0",
          "removed": false
        }
      ],
      "logsBloom": "0x00000000000000000000000000000000000000000000000000000000000004000000000000000000000000000000000000008000000000000000000000000000000000000000000000000000000000800000000000000000000100000000000000800000000000000000000000000000000000000000000080000000000000000000000000004000000000000000000000000000000000000000000000000000200000000000000000000000000000000000000000000000000000000000004000000000000000000001000000008000000000000000000000100000000000000000000000000000001000000000000000000000000000000000000000100000",
      "type": "0x2",
      "transactionHash": "0x03d9c22053e2986da8b4305ea87b0ada32ad2d7f183db11e9b24aec408470f0b",
      "transactionIndex": "0x0",
      "blockHash": "0xc7408a6b1f8d389f00d658b9531e0896bda93eb4742b76239d42d6c80f188b5b",
      "blockNumber": "0x61dc5b",
      "gasUsed": "0xc1b3",
      "effectiveGasPrice": "0x74a5ed5216",
      "from": "0x699bceebd59a5b52bb586c737cd7ba636f3fe602",
      "to": "0xaa92a60b75f5c060d0beb6ee24fe8debc8f8e7d9",
      "contractAddress": null
    },
    {
      "status": "0x1",
      "cumulativeGasUsed": "0x1834e",
      "logs": [
        {
          "address": "0x0000000000000000000000000000000000001010",
          "topics": [
            "0x4dfe1bbbcf077ddc3e01291eea2d5c70c2b422b415d95645b9adcfd678cb1d63",
            "0x0000000000000000000000000000000000000000000000000000000000001010",
            "0x000000000000000000000000699bceebd59a5b52bb586c737cd7ba636f3fe602",
            "0x00000000000000000000000004ba3ef4c023c1006019a0f9baf6e70455e41fcf"
          ],
          "data": "0x000000000000000000000000000000000000000000000000005837b86187f13d000000000000000000000000000000000000000000000000cf7a6255352ee6e300000000000000000000000000000000000000000000007d2c7ad6e1c75a411b000000000000000000000000000000000000000000000000cf222a9cd3a6f5a600000000000000000000000000000000000000000000007d2cd30e9a28e23258",
          "blockHash": "0xc7408a6b1f8d389f00d658b9531e0896bda93eb4742b76239d42d6c80f188b5b",
          "blockNumber": "0x61dc5b",
          "transactionHash": "0xcbb02a1d4d8d3bbf74cf769cfdf2ac535fe98911cc6f34d1a96c6108fab2bb00",
          "transactionIndex": "0x1",
          "logIndex": "0x1",
          "removed": false
        }
      ],
      "logsBloom": "0x00000000000000000000000000000000000000000000000000000000000004000000000000000000000000000000000000008000000000000000000000000000000000000000000000000000000000800000000000000000000100000000000000800000000000000000000000000000000000000000000080000000000000000000000000004000000000000000000000000000000000000000000000000000200000000000000000000000000000000000000000000000000000000000004000000000000000000001000000008000000000000000000000100000000000000000000000000000001000000000000000000000000000000000000000100000",
      "type": "0x2",
      "transactionHash": "0xcbb02a1d4d8d3bbf74cf769cfdf2ac535fe98911cc6f34d1a96c6108fab2bb00",
      "transactionIndex": "0x1",
      "blockHash": "0xc7408a6b1f8d389f00d658b9531e0896bda93eb4742b76239d42d6c80f188b5b",
      "blockNumber": "0x61dc5b",
      "gasUsed": "0xc19b",
      "effectiveGasPrice": "0x74a5ed5216",
      "from": "0x699bceebd59a5b52bb586c737cd7ba636f3fe602",
      "to": "0xaa92a60b75f5c060d0beb6ee24fe8debc8f8e7d9",
      "contractAddress": null
    },
    {
      "status": "0x1",
      "cumulativeGasUsed": "0x24501",
      "logs": [
        {
          "address": "0x0000000000000000000000000000000000001010",
          "topics": [
            "0x4dfe1bbbcf077ddc3e01291eea2d5c70c2b422b415d95645b9adcfd678cb1d63",
            "0x0000000000000000000000000000000000000000000000000000000000001010",
            "0x000000000000000000000000699bceebd59a5b52bb586c737cd7ba636f3fe602",
            "0x00000000000000000000000004ba3ef4c023c1006019a0f9baf6e70455e41fcf"
          ],
          "data": "0x000000000000000000000000000000000000000000000000005842a7efc7a1e5000000000000000000000000000000000000000000000000cf222a9cd39b9d9100000000000000000000000000000000000000000000007d2cd30e9a28e23258000000000000000000000000000000000000000000000000cec9e7f4e3d3fbac00000000000000000000000000000000000000000000007d2d2b514218a9d43d",
          "blockHash": "0xc7408a6b1f8d389f00d658b9531e0896bda93eb4742b76239d42d6c80f188b5b",
          "blockNumber": "0x61dc5b",
          "transactionHash": "0xcabf876e2df86a44ae1f8b6f09e474ff901c4a9a8bdd2b5167ac538283bc40ce",
          "transactionIndex": "0x2",
          "logIndex": "0x2",
          "removed": false
        }
      ],
      "logsBloom": "0x00000000000000000000000000000000000000000000000000000000000004000000000000000000000000000000000000008000000000000000000000000000000000000000000000000000000000800000000000000000000100000000000000800000000000000000000000000000000000000000000080000000000000000000000000004000000000000000000000000000000000000000000000000000200000000000000000000000000000000000000000000000000000000000004000000000000000000001000000008000000000000000000000100000000000000000000000000000001000000000000000000000000000000000000000100000",
      "type": "0x2",
      "transactionHash": "0xcabf876e2df86a44ae1f8b6f09e474ff901c4a9a8bdd2b5167ac538283bc40ce",
      "transactionIndex": "0x2",
      "blockHash": "0xc7408a6b1f8d389f00d658b9531e0896bda93eb4742b76239d42d6c80f188b5b",
      "blockNumber": "0x61dc5b",
      "gasUsed": "0xc1b3",
      "effectiveGasPrice": "0x74a5ed5216",
      "from": "0x699bceebd59a5b52bb586c737cd7ba636f3fe602",
      "to": "0xaa92a60b75f5c060d0beb6ee24fe8debc8f8e7d9",
      "contractAddress": null
    },
    {
      "status": "0x1",
      "cumulativeGasUsed": "0x306b4",
      "logs": [
        {
          "address": "0x0000000000000000000000000000000000001010",
          "topics": [
            "0x4dfe1bbbcf077ddc3e01291eea2d5c70c2b422b415d95645b9adcfd678cb1d63",
            "0x0000000000000000000000000000000000000000000000000000000000001010",
            "0x000000000000000000000000699bceebd59a5b52bb586c737cd7ba636f3fe602",
            "0x00000000000000000000000004ba3ef4c023c1006019a0f9baf6e70455e41fcf"
          ],
          "data": "0x000000000000000000000000000000000000000000000000005842a7efc7a1e5000000000000000000000000000000000000000000000000cec9e7f4e3c8a22f00000000000000000000000000000000000000000000007d2d2b514218a9d43d000000000000000000000000000000000000000000000000ce71a54cf401004a00000000000000000000000000000000000000000000007d2d8393ea08717622",
          "blockHash": "0xc7408a6b1f8d389f00d658b9531e0896bda93eb4742b76239d42d6c80f188b5b",
          "blockNumber": "0x61dc5b",
          "transactionHash": "0xdd2f6669fa15d41df6a4ccad3064ab416b450041a01cd79e695bbf4b326ff8a3",
          "transactionIndex": "0x3",
          "logIndex": "0x3",
          "removed": false
        }
      ],
      "logsBloom": "0x00000000000000000000000000000000000000000000000000000000000004000000000000000000000000000000000000008000000000000000000000000000000000000000000000000000000000800000000000000000000100000000000000800000000000000000000000000000000000000000000080000000000000000000000000004000000000000000000000000000000000000000000000000000200000000000000000000000000000000000000000000000000000000000004000000000000000000001000000008000000000000000000000100000000000000000000000000000001000000000000000000000000000000000000000100000",
      "type": "0x2",
      "transactionHash": "0xdd2f6669fa15d41df6a4ccad3064ab416b450041a01cd79e695bbf4b326ff8a3",
      "transactionIndex": "0x3",
      "blockHash": "0xc7408a6b1f8d389f00d658b9531e0896bda93eb4742b76239d42d6c80f188b5b",
      "blockNumber": "0x61dc5b",
      "gasUsed": "0xc1b3",
      "effectiveGasPrice": "0x74a5ed5216",
      "from": "0x699bceebd59a5b52bb586c737cd7ba636f3fe602",
      "to": "0xaa92a60b75f5c060d0beb6ee24fe8debc8f8e7d9",
      "contractAddress": null
    },
    {
      "status": "0x1",
      "cumulativeGasUsed": "0x3c867",
      "logs": [
        {
          "address": "0x0000000000000000000000000000000000001010",
          "topics": [
            "0x4dfe1bbbcf077ddc3e01291eea2d5c70c2b422b415d95645b9adcfd678cb1d63",
            "0x0000000000000000000000000000000000000000000000000000000000001010",
            "0x000000000000000000000000699bceebd59a5b52bb586c737cd7ba636f3fe602",
            "0x00000000000000000000000004ba3ef4c023c1006019a0f9baf6e70455e41fcf"
          ],
          "data": "0x000000000000000000000000000000000000000000000000005842a7efc7a1e5000000000000000000000000000000000000000000000000ce71a54cf3f5a6cd00000000000000000000000000000000000000000000007d2d8393ea08717622000000000000000000000000000000000000000000000000ce1962a5042e04e800000000000000000000000000000000000000000000007d2ddbd691f8391807",
          "blockHash": "0xc7408a6b1f8d389f00d658b9531e0896bda93eb4742b76239d42d6c80f188b5b",
          "blockNumber": "0x61dc5b",
          "transactionHash": "0xaaf2881524f27ecdaade0237be9332dbccafedcf7b10f9bbe0cbd7c138828b02",
          "transactionIndex": "0x4",
          "logIndex": "0x4",
          "removed": false
        }
      ],
      "logsBloom": "0x00000000000000000000000000000000000000000000000000000000000004000000000000000000000000000000000000008000000000000000000000000000000000000000000000000000000000800000000000000000000100000000000000800000000000000000000000000000000000000000000080000000000000000000000000004000000000000000000000000000000000000000000000000000200000000000000000000000000000000000000000000000000000000000004000000000000000000001000000008000000000000000000000100000000000000000000000000000001000000000000000000000000000000000000000100000",
      "type": "0x2",
      "transactionHash": "0xaaf2881524f27ecdaade0237be9332dbccafedcf7b10f9bbe0cbd7c138828b02",
      "transactionIndex": "0x4",
      "blockHash": "0xc7408a6b1f8d389f00d658b9531e0896bda93eb4742b76239d42d6c80f188b5b",
      "blockNumber": "0x61dc5b",
      "gasUsed": "0xc1b3",
      "effectiveGasPrice": "0x74a5ed5216",
      "from": "0x699bceebd59a5b52bb586c737cd7ba636f3fe602",
      "to": "0xaa92a60b75f5c060d0beb6ee24fe8debc8f8e7d9",
      "contractAddress": null
    },
    {
      "status": "0x1",
      "cumulativeGasUsed": "0x48a1a",
      "logs": [
        {
          "address": "0x0000000000000000000000000000000000001010",
          "topics": [
            "0x4dfe1bbbcf077ddc3e01291eea2d5c70c2b422b415d95645b9adcfd678cb1d63",
            "0x0000000000000000000000000000000000000000000000000000000000001010",
            "0x000000000000000000000000699bceebd59a5b52bb586c737cd7ba636f3fe602",
            "0x00000000000000000000000004ba3ef4c023c1006019a0f9baf6e70455e41fcf"
          ],
          "data": "0x000000000000000000000000000000000000000000000000005842a7efc7a1e5000000000000000000000000000000000000000000000000ce1962a50422ab6b00000000000000000000000000000000000000000000007d2ddbd691f8391807000000000000000000000000000000000000000000000000cdc11ffd145b098600000000000000000000000000000000000000000000007d2e341939e800b9ec",
          "blockHash": "0xc7408a6b1f8d389f00d658b9531e0896bda93eb4742b76239d42d6c80f188b5b",
          "blockNumber": "0x61dc5b",
          "transactionHash": "0x8e201d6a80f0288abd69d5eca05324576e1a160cf6ebd6e3a2e074080e6312c7",
          "transactionIndex": "0x5",
          "logIndex": "0x5",
          "removed": false
        }
      ],
      "logsBloom": "0x00000000000000000000000000000000000000000000000000000000000004000000000000000000000000000000000000008000000000000000000000000000000000000000000000000000000000800000000000000000000100000000000000800000000000000000000000000000000000000000000080000000000000000000000000004000000000000000000000000000000000000000000000000000200000000000000000000000000000000000000000000000000000000000004000000000000000000001000000008000000000000000000000100000000000000000000000000000001000000000000000000000000000000000000000100000",
      "type": "0x2",
      "transactionHash": "0x8e201d6a80f0288abd69d5eca05324576e1a160cf6ebd6e3a2e074080e6312c7",
      "transactionIndex": "0x5",
      "blockHash": "0xc7408a6b1f8d389f00d658b9531e0896bda93eb4742b76239d42d6c80f188b5b",
      "blockNumber": "0x61dc5b",
      "gasUsed": "0xc1b3",
      "effectiveGasPrice": "0x74a5ed5216",
      "from": "0x699bceebd59a5b52bb586c737cd7ba636f3fe602",
      "to": "0xaa92a60b75f5c060d0beb6ee24fe8debc8f8e7d9",
      "contractAddress": null
    },
    {
      "status": "0x1",
      "cumulativeGasUsed": "0x54bc1",
      "logs": [
        {
          "address": "0x0000000000000000000000000000000000001010",
          "topics": [
            "0x4dfe1bbbcf077ddc3e01291eea2d5c70c2b422b415d95645b9adcfd678cb1d63",
            "0x0000000000000000000000000000000000000000000000000000000000001010",
            "0x000000000000000000000000699bceebd59a5b52bb586c737cd7ba636f3fe602",
            "0x00000000000000000000000004ba3ef4c023c1006019a0f9baf6e70455e41fcf"
          ],
          "data": "0x00000000000000000000000000000000000000000000000000583d3028a7c991000000000000000000000000000000000000000000000000cdc11ffd144fb00900000000000000000000000000000000000000000000007d2e341939e800b9ec000000000000000000000000000000000000000000000000cd68e2cceba7e67800000000000000000000000000000000000000000000007d2e8c566a10a8837d",
          "blockHash": "0xc7408a6b1f8d389f00d658b9531e0896bda93eb4742b76239d42d6c80f188b5b",
          "blockNumber": "0x61dc5b",
          "transactionHash": "0xa714b47fa75dde7eb2a36f0b11496f4124e5dab8ba3001ca1ed0fe55967c6641",
          "transactionIndex": "0x6",
          "logIndex": "0x6",
          "removed": false
        }
      ],
      "logsBloom": "0x00000000000000000000000000000000000000000000000000000000000004000000000000000000000000000000000000008000000000000000000000000000000000000000000000000000000000800000000000000000000100000000000000800000000000000000000000000000000000000000000080000000000000000000000000004000000000000000000000000000000000000000000000000000200000000000000000000000000000000000000000000000000000000000004000000000000000000001000000008000000000000000000000100000000000000000000000000000001000000000000000000000000000000000000000100000",
      "type": "0x2",
      "transactionHash": "0xa714b47fa75dde7eb2a36f0b11496f4124e5dab8ba3001ca1ed0fe55967c6641",
      "transactionIndex": "0x6",
      "blockHash": "0xc7408a6b1f8d389f00d658b9531e0896bda93eb4742b76239d42d6c80f188b5b",
      "blockNumber": "0x61dc5b",
      "gasUsed": "0xc1a7",
      "effectiveGasPrice": "0x74a5ed5216",
      "from": "0x699bceebd59a5b52bb586c737cd7ba636f3fe602",
      "to": "0xaa92a60b75f5c060d0beb6ee24fe8debc8f8e7d9",
      "contractAddress": null
    },
    {
      "status": "0x1",
      "cumulativeGasUsed": "0x60d74",
      "logs": [
        {
          "address": "0x0000000000000000000000000000000000001010",
          "topics": [
            "0x4dfe1bbbcf077ddc3e01291eea2d5c70c2b422b415d95645b9adcfd678cb1d63",
            "0x0000000000000000000000000000000000000000000000000000000000001010",
            "0x000000000000000000000000699bceebd59a5b52bb586c737cd7ba636f3fe602",
            "0x00000000000000000000000004ba3ef4c023c1006019a0f9baf6e70455e41fcf"
          ],
          "data": "0x000000000000000000000000000000000000000000000000005842a7efc7a1e5000000000000000000000000000000000000000000000000cd68e2cceb9c8daf00000000000000000000000000000000000000000000007d2e8c566a10a8837d000000000000000000000000000000000000000000000000cd10a024fbd4ebca00000000000000000000000000000000000000000000007d2ee4991200702562",
          "blockHash": "0xc7408a6b1f8d389f00d658b9531e0896bda93eb4742b76239d42d6c80f188b5b",
          "blockNumber": "0x61dc5b",
          "transactionHash": "0x0570ae778e7736b50358eb46cf8df53de44706bb1d8a2359a9cfa700e93e3bce",
          "transactionIndex": "0x7",
          "logIndex": "0x7",
          "removed": false
        }
      ],
      "logsBloom": "0x00000000000000000000000000000000000000000000000000000000000004000000000000000000000000000000000000008000000000000000000000000000000000000000000000000000000000800000000000000000000100000000000000800000000000000000000000000000000000000000000080000000000000000000000000004000000000000000000000000000000000000000000000000000200000000000000000000000000000000000000000000000000000000000004000000000000000000001000000008000000000000000000000100000000000000000000000000000001000000000000000000000000000000000000000100000",
      "type": "0x2",
      "transactionHash": "0x0570ae778e7736b50358eb46cf8df53de44706bb1d8a2359a9cfa700e93e3bce",
      "transactionIndex": "0x7",
      "blockHash": "0xc7408a6b1f8d389f00d658b9531e0896bda93eb4742b76239d42d6c80f188b5b",
      "blockNumber": "0x61dc5b",
      "gasUsed": "0xc1b3",
      "effectiveGasPrice": "0x74a5ed5216",
      "from": "0x699bceebd59a5b52bb586c737cd7ba636f3fe602",
      "to": "0xaa92a60b75f5c060d0beb6ee24fe8debc8f8e7d9",
      "contractAddress": null
    },
    {
      "status": "0x1",
      "cumulativeGasUsed": "0x6cf27",
      "logs": [
        {
          "address": "0x0000000000000000000000000000000000001010",
          "topics": [
            "0x4dfe1bbbcf077ddc3e01291eea2d5c70c2b422b415d95645b9adcfd678cb1d63",
            "0x0000000000000000000000000000000000000000000000000000000000001010",
            "0x000000000000000000000000699bceebd59a5b52bb586c737cd7ba636f3fe602",
            "0x00000000000000000000000004ba3ef4c023c1006019a0f9baf6e70455e41fcf"
          ],
          "data": "0x000000000000000000000000000000000000000000000000005842a7efc7a1e5000000000000000000000000000000000000000000000000cd10a024fbc9924d00000000000000000000000000000000000000000000007d2ee4991200702562000000000000000000000000000000000000000000000000ccb85d7d0c01f06800000000000000000000000000000000000000000000007d2f3cdbb9f037c747",
          "blockHash": "0xc7408a6b1f8d389f00d658b9531e0896bda93eb4742b76239d42d6c80f188b5b",
          "blockNumber": "0x61dc5b",
          "transactionHash": "0x76a98e8a1b4776890ea02db6d979bb5b62cb60c6c71ef709cc7c90139e6d1f9e",
          "transactionIndex": "0x8",
          "logIndex": "0x8",
          "removed": false
        }
      ],
      "logsBloom": "0x00000000000000000000000000000000000000000000000000000000000004000000000000000000000000000000000000008000000000000000000000000000000000000000000000000000000000800000000000000000000100000000000000800000000000000000000000000000000000000000000080000000000000000000000000004000000000000000000000000000000000000000000000000000200000000000000000000000000000000000000000000000000000000000004000000000000000000001000000008000000000000000000000100000000000000000000000000000001000000000000000000000000000000000000000100000",
      "type": "0x2",
      "transactionHash": "0x76a98e8a1b4776890ea02db6d979bb5b62cb60c6c71ef709cc7c90139e6d1f9e",
      "transactionIndex": "0x8",
      "blockHash": "0xc7408a6b1f8d389f00d658b9531e0896bda93eb4742b76239d42d6c80f188b5b",
      "blockNumber": "0x61dc5b",
      "gasUsed": "0xc1b3",
      "effectiveGasPrice": "0x74a5ed5216",
      "from": "0x699bceebd59a5b52bb586c737cd7ba636f3fe602",
      "to": "0xaa92a60b75f5c060d0beb6ee24fe8debc8f8e7d9",
      "contractAddress": null
    },
    {
      "status": "0x1",
      "cumulativeGasUsed": "0x790da",
      "logs": [
        {
          "address": "0x0000000000000000000000000000000000001010",
          "topics": [
            "0x4dfe1bbbcf077ddc3e01291eea2d5c70c2b422b415d95645b9adcfd678cb1d63",
            "0x0000000000000000000000000000000000000000000000000000000000001010",
            "0x000000000000000000000000699bceebd59a5b52bb586c737cd7ba636f3fe602",
            "0x00000000000000000000000004ba3ef4c023c1006019a0f9baf6e70455e41fcf"
          ],
          "data": "0x000000000000000000000000000000000000000000000000005842a7efc7a1e5000000000000000000000000000000000000000000000000ccb85d7d0bf696eb00000000000000000000000000000000000000000000007d2f3cdbb9f037c747000000000000000000000000000000000000000000000000cc601ad51c2ef50600000000000000000000000000000000000000000000007d2f951e61dfff692c",
          "blockHash": "0xc7408a6b1f8d389f00d658b9531e0896bda93eb4742b76239d42d6c80f188b5b",
          "blockNumber": "0x61dc5b",
          "transactionHash": "0xac3c744dc7a65cffe5d0c91f23aafdf7784157ddb30276052abbf81dca7bb260",
          "transactionIndex": "0x9",
          "logIndex": "0x9",
          "removed": false
        }
      ],
      "logsBloom": "0x00000000000000000000000000000000000000000000000000000000000004000000000000000000000000000000000000008000000000000000000000000000000000000000000000000000000000800000000000000000000100000000000000800000000000000000000000000000000000000000000080000000000000000000000000004000000000000000000000000000000000000000000000000000200000000000000000000000000000000000000000000000000000000000004000000000000000000001000000008000000000000000000000100000000000000000000000000000001000000000000000000000000000000000000000100000",
      "type": "0x2",
      "transactionHash": "0xac3c744dc7a65cffe5d0c91f23aafdf7784157ddb30276052abbf81dca7bb260",
      "transactionIndex": "0x9",
      "blockHash": "0xc7408a6b1f8d389f00d658b9531e0896bda93eb4742b76239d42d6c80f188b5b",
      "blockNumber": "0x61dc5b",
      "gasUsed": "0xc1b3",
      "effectiveGasPrice": "0x74a5ed5216",
      "from": "0x699bceebd59a5b52bb586c737cd7ba636f3fe602",
      "to": "0xaa92a60b75f5c060d0beb6ee24fe8debc8f8e7d9",
      "contractAddress": null
    },
    {
      "status": "0x1",
      "cumulativeGasUsed": "0x8528d",
      "logs": [
        {
          "address": "0x0000000000000000000000000000000000001010",
          "topics": [
            "0x4dfe1bbbcf077ddc3e01291eea2d5c70c2b422b415d95645b9adcfd678cb1d63",
            "0x0000000000000000000000000000000000000000000000000000000000001010",
            "0x000000000000000000000000699bceebd59a5b52bb586c737cd7ba636f3fe602",
            "0x00000000000000000000000004ba3ef4c023c1006019a0f9baf6e70455e41fcf"
          ],
          "data": "0x000000000000000000000000000000000000000000000000005842a7efc7a1e5000000000000000000000000000000000000000000000000cc601ad51c239b8900000000000000000000000000000000000000000000007d2f951e61dfff692c000000000000000000000000000000000000000000000000cc07d82d2c5bf9a400000000000000000000000000000000000000000000007d2fed6109cfc70b11",
          "blockHash": "0xc7408a6b1f8d389f00d658b9531e0896bda93eb4742b76239d42d6c80f188b5b",
          "blockNumber": "0x61dc5b",
          "transactionHash": "0x314a142d5e7495f7bf5f0e0f1905ac78b949a4ceea4ac3063171e823e9a096ac",
          "transactionIndex": "0xa",
          "logIndex": "0xa",
          "removed": false
        }
      ],
      "logsBloom": "0x00000000000000000000000000000000000000000000000000000000000004000000000000000000000000000000000000008000000000000000000000000000000000000000000000000000000000800000000000000000000100000000000000800000000000000000000000000000000000000000000080000000000000000000000000004000000000000000000000000000000000000000000000000000200000000000000000000000000000000000000000000000000000000000004000000000000000000001000000008000000000000000000000100000000000000000000000000000001000000000000000000000000000000000000000100000",
      "type": "0x2",
      "transactionHash": "0x314a142d5e7495f7bf5f0e0f1905ac78b949a4ceea4ac3063171e823e9a096ac",
      "transactionIndex": "0xa",
      "blockHash": "0xc7408a6b1f8d389f00d658b9531e0896bda93eb4742b76239d42d6c80f188b5b",
      "blockNumber": "0x61dc5b",
      "gasUsed": "0xc1b3",
      "effectiveGasPrice": "0x74a5ed5216",
      "from": "0x699bceebd59a5b52bb586c737cd7ba636f3fe602",
      "to": "0xaa92a60b75f5c060d0beb6ee24fe8debc8f8e7d9",
      "contractAddress": null
    },
    {
      "status": "0x1",
      "cumulativeGasUsed": "0x91440",
      "logs": [
        {
          "address": "0x0000000000000000000000000000000000001010",
          "topics": [
            "0x4dfe1bbbcf077ddc3e01291eea2d5c70c2b422b415d95645b9adcfd678cb1d63",
            "0x0000000000000000000000000000000000000000000000000000000000001010",
            "0x000000000000000000000000699bceebd59a5b52bb586c737cd7ba636f3fe602",
            "0x00000000000000000000000004ba3ef4c023c1006019a0f9baf6e70455e41fcf"
          ],
          "data": "0x000000000000000000000000000000000000000000000000005842a7efc7a1e5000000000000000000000000000000000000000000000000cc07d82d2c50a02700000000000000000000000000000000000000000000007d2fed6109cfc70b11000000000000000000000000000000000000000000000000cbaf95853c88fe4200000000000000000000000000000000000000000000007d3045a3b1bf8eacf6",
          "blockHash": "0xc7408a6b1f8d389f00d658b9531e0896bda93eb4742b76239d42d6c80f188b5b",
          "blockNumber": "0x61dc5b",
          "transactionHash": "0xdb50afa55a061292bb7b434836c51eb713fa2b5b1c2e1c20b737d6b9d3e7030f",
          "transactionIndex": "0xb",
          "logIndex": "0xb",
          "removed": false
        }
      ],
      "logsBloom": "0x00000000000000000000000000000000000000000000000000000000000004000000000000000000000000000000000000008000000000000000000000000000000000000000000000000000000000800000000000000000000100000000000000800000000000000000000000000000000000000000000080000000000000000000000000004000000000000000000000000000000000000000000000000000200000000000000000000000000000000000000000000000000000000000004000000000000000000001000000008000000000000000000000100000000000000000000000000000001000000000000000000000000000000000000000100000",
      "type": "0x2",
      "transactionHash": "0xdb50afa55a061292bb7b434836c51eb713fa2b5b1c2e1c20b737d6b9d3e7030f",
      "transactionIndex": "0xb",
      "blockHash": "0xc7408a6b1f8d389f00d658b9531e0896bda93eb4742b76239d42d6c80f188b5b",
      "blockNumber": "0x61dc5b",
      "gasUsed": "0xc1b3",
      "effectiveGasPrice": "0x74a5ed5216",
      "from": "0x699bceebd59a5b52bb586c737cd7ba636f3fe602",
      "to": "0xaa92a60b75f5c060d0beb6ee24fe8debc8f8e7d9",
      "contractAddress": null
    },
    {
      "status": "0x1",
      "cumulativeGasUsed": "0x9d5f3",
      "logs": [
        {
          "address": "0x0000000000000000000000000000000000001010",
          "topics": [
            "0x4dfe1bbbcf077ddc3e01291eea2d5c70c2b422b415d95645b9adcfd678cb1d63",
            "0x0000000000000000000000000000000000000000000000000000000000001010",
            "0x000000000000000000000000699bceebd59a5b52bb586c737cd7ba636f3fe602",
            "0x00000000000000000000000004ba3ef4c023c1006019a0f9baf6e70455e41fcf"
          ],
          "data": "0x000000000000000000000000000000000000000000000000005842a7efc7a1e5000000000000000000000000000000000000000000000000cbaf95853c7da4c500000000000000000000000000000000000000000000007d3045a3b1bf8eacf6000000000000000000000000000000000000000000000000cb5752dd4cb602e000000000000000000000000000000000000000000000007d309de659af564edb",
          "blockHash": "0xc7408a6b1f8d389f00d658b9531e0896bda93eb4742b76239d42d6c80f188b5b",
          "blockNumber": "0x61dc5b",
          "transactionHash": "0x604558b10d0738183fe19b2b8061a244957108df4ae14fc46956e858107fe266",
          "transactionIndex": "0xc",
          "logIndex": "0xc",
          "removed": false
        }
      ],
      "logsBloom": "0x00000000000000000000000000000000000000000000000000000000000004000000000000000000000000000000000000008000000000000000000000000000000000000000000000000000000000800000000000000000000100000000000000800000000000000000000000000000000000000000000080000000000000000000000000004000000000000000000000000000000000000000000000000000200000000000000000000000000000000000000000000000000000000000004000000000000000000001000000008000000000000000000000100000000000000000000000000000001000000000000000000000000000000000000000100000",
      "type": "0x2",
      "transactionHash": "0x604558b10d0738183fe19b2b8061a244957108df4ae14fc46956e858107fe266",
      "transactionIndex": "0xc",
      "blockHash": "0xc7408a6b1f8d389f00d658b9531e0896bda93eb4742b76239d42d6c80f188b5b",
      "blockNumber": "0x61dc5b",
      "gasUsed": "0xc1b3",
      "effectiveGasPrice": "0x74a5ed5216",
      "from": "0x699bceebd59a5b52bb586c737cd7ba636f3fe602",
      "to": "0xaa92a60b75f5c060d0beb6ee24fe8debc8f8e7d9",
      "contractAddress": null
    }
  ],
  "libraries": [],
  "pending": [],
  "returns": {},
  "timestamp": 1714323883,
  "chain": 80002,
  "commit": "9546700"
}