{
  "transactions": [
    {
      "hash": "0xd5f09a95f82e7ccdd42109a8a0b377f2ee93f5bdd1b5270670e141e926476548",
      "transactionType": "CALL",
      "contractName": null,
      "contractAddress": "0x6cf9a63bfa77b0bc6d23ef603f3aa7206998b64c",
      "function": "updateCommittee(bytes32,bool)",
      "arguments": [
        "0xed1ecf0256ac7bd80a1d390641fc811218a32a99e0afc40a534261168c78918e",
        "true"
      ],
      "transaction": {
        "from": "0x699bceebd59a5b52bb586c737cd7ba636f3fe602",
        "to": "0x6cf9a63bfa77b0bc6d23ef603f3aa7206998b64c",
        "gas": "0x167af",
        "value": "0x0",
        "input": "0x256f225aed1ecf0256ac7bd80a1d390641fc811218a32a99e0afc40a534261168c78918e0000000000000000000000000000000000000000000000000000000000000001",
        "nonce": "0x3",
        "chainId": "0x13882",
        "accessList": null,
        "type": null
      },
      "additionalContracts": [],
      "isFixedGasLimit": false
    },
    {
      "hash": "0x05973f6cbb5666ad7d680204d08893c3e48e81fa0d53d48669e677d91cd4174b",
      "transactionType": "CALL",
      "contractName": null,
      "contractAddress": "0x6cf9a63bfa77b0bc6d23ef603f3aa7206998b64c",
      "function": "updateCommittee(bytes32,bool)",
      "arguments": [
        "0x15fd1bf7a7f223445355c4840b5f9abd07bfcde68548bfa03f4f603627076195",
        "true"
      ],
      "transaction": {
        "from": "0x699bceebd59a5b52bb586c737cd7ba636f3fe602",
        "to": "0x6cf9a63bfa77b0bc6d23ef603f3aa7206998b64c",
        "gas": "0x10b6b",
        "value": "0x0",
        "input": "0x256f225a15fd1bf7a7f223445355c4840b5f9abd07bfcde68548bfa03f4f6036270761950000000000000000000000000000000000000000000000000000000000000001",
        "nonce": "0x4",
        "chainId": "0x13882",
        "accessList": null,
        "type": null
      },
      "additionalContracts": [],
      "isFixedGasLimit": false
    }
  ],
  "receipts": [
    {
      "status": "0x1",
      "cumulativeGasUsed": "0x6f617",
      "logs": [
        {
          "address": "0x0000000000000000000000000000000000001010",
          "topics": [
            "0x4dfe1bbbcf077ddc3e01291eea2d5c70c2b422b415d95645b9adcfd678cb1d63",
            "0x0000000000000000000000000000000000000000000000000000000000001010",
            "0x000000000000000000000000699bceebd59a5b52bb586c737cd7ba636f3fe602",
            "0x0000000000000000000000004ad84f7014b7b44f723f284a85b1662337971439"
          ],
          "data": "0x00000000000000000000000000000000000000000000000000071aeaa925bcc0000000000000000000000000000000000000000000000000514ca471d31a929400000000000000000000000000000000000000000000008ff8f27067041726350000000000000000000000000000000000000000000000005145898729f4d5d400000000000000000000000000000000000000000000008ff8f98b51ad3ce2f5",
          "blockHash": "0xc2b2e21058cdfd5a08a19b6d7d2e00468731c02cd7255a8d2974e74858d678de",
          "blockNumber": "0x608de1",
          "transactionHash": "0xd5f09a95f82e7ccdd42109a8a0b377f2ee93f5bdd1b5270670e141e926476548",
          "transactionIndex": "0x3",
          "logIndex": "0x11",
          "removed": false
        }
      ],
      "logsBloom": "0x00000000000000000000000000000000000000000000000000000000000000000000000000000000000000000000000000008000000000000000000000400000000000000000000000000000000000800000000000000000000100001000000000800000000000000000000000000000000000000000000080000000000000000000000000000000000000000000000000000000000000000000000000000000200000000000000000000000000000000000000000000000000000000000004000000000000000000001000000008000000000000000000000100000000000000000000000000000001000000000008000000000000000000000000000100000",
      "type": "0x2",
      "transactionHash": "0xd5f09a95f82e7ccdd42109a8a0b377f2ee93f5bdd1b5270670e141e926476548",
      "transactionIndex": "0x3",
      "blockHash": "0xc2b2e21058cdfd5a08a19b6d7d2e00468731c02cd7255a8d2974e74858d678de",
      "blockNumber": "0x608de1",
      "gasUsed": "0x10468",
      "effectiveGasPrice": "0x6fc23ac07",
      "from": "0x699bceebd59a5b52bb586c737cd7ba636f3fe602",
      "to": "0x6cf9a63bfa77b0bc6d23ef603f3aa7206998b64c",
      "contractAddress": null
    },
    {
      "status": "0x1",
      "cumulativeGasUsed": "0x7b7b3",
      "logs": [
        {
          "address": "0x0000000000000000000000000000000000001010",
          "topics": [
            "0x4dfe1bbbcf077ddc3e01291eea2d5c70c2b422b415d95645b9adcfd678cb1d63",
            "0x0000000000000000000000000000000000000000000000000000000000001010",
            "0x000000000000000000000000699bceebd59a5b52bb586c737cd7ba636f3fe602",
            "0x0000000000000000000000004ad84f7014b7b44f723f284a85b1662337971439"
          ],
          "data": "0x000000000000000000000000000000000000000000000000000548588a62c3200000000000000000000000000000000000000000000000005145898729e593bc00000000000000000000000000000000000000000000008ff8f98b51ad3ce2f50000000000000000000000000000000000000000000000005140412e9f82d09c00000000000000000000000000000000000000000000008ff8fed3aa379fa615",
          "blockHash": "0xc2b2e21058cdfd5a08a19b6d7d2e00468731c02cd7255a8d2974e74858d678de",
          "blockNumber": "0x608de1",
          "transactionHash": "0x05973f6cbb5666ad7d680204d08893c3e48e81fa0d53d48669e677d91cd4174b",
          "transactionIndex": "0x4",
          "logIndex": "0x12",
          "removed": false
        }
      ],
      "logsBloom": "0x00000000000000000000000000000000000000000000000000000000000000000000000000000000000000000000000000008000000000000000000000400000000000000000000000000000000000800000000000000000000100001000000000800000000000000000000000000000000000000000000080000000000000000000000000000000000000000000000000000000000000000000000000000000200000000000000000000000000000000000000000000000000000000000004000000000000000000001000000008000000000000000000000100000000000000000000000000000001000000000008000000000000000000000000000100000",
      "type": "0x2",
      "transactionHash": "0x05973f6cbb5666ad7d680204d08893c3e48e81fa0d53d48669e677d91cd4174b",
      "transactionIndex": "0x4",
      "blockHash": "0xc2b2e21058cdfd5a08a19b6d7d2e00468731c02cd7255a8d2974e74858d678de",
      "blockNumber": "0x608de1",
      "gasUsed": "0xc19c",
      "effectiveGasPrice": "0x6fc23ac07",
      "from": "0x699bceebd59a5b52bb586c737cd7ba636f3fe602",
      "to": "0x6cf9a63bfa77b0bc6d23ef603f3aa7206998b64c",
      "contractAddress": null
    }
  ],
  "libraries": [],
  "pending": [],
  "returns": {},
  "timestamp": 1714140845,
  "chain": 80002,
  "commit": "d8ddccd"
}