{
  "transactions": [
    {
      "hash": "0x1989e55363585e97044232f462eeb4f4f4fae7efd3e4afe66a8c25b6b3d56962",
      "transactionType": "CALL",
      "contractName": null,
      "contractAddress": "0x6cf9a63bfa77b0bc6d23ef603f3aa7206998b64c",
      "function": "updateCommittee(bytes32,bool)",
      "arguments": [
        "0xed1ecf0256ac7bd80a1d390641fc811218a32a99e0afc40a534261168c78918e",
        "true"
      ],
      "transaction": {
        "from": "0x699bceebd59a5b52bb586c737cd7ba636f3fe602",
        "to": "0x6cf9a63bfa77b0bc6d23ef603f3aa7206998b64c",
        "gas": "0x167af",
        "value": "0x0",
        "input": "0x256f225aed1ecf0256ac7bd80a1d390641fc811218a32a99e0afc40a534261168c78918e0000000000000000000000000000000000000000000000000000000000000001",
        "nonce": "0xd",
        "chainId": "0x13882",
        "accessList": null,
        "type": null
      },
      "additionalContracts": [],
      "isFixedGasLimit": false
    }
  ],
  "receipts": [
    {
      "status": "0x1",
      "cumulativeGasUsed": "0x10468",
      "logs": [
        {
          "address": "0x0000000000000000000000000000000000001010",
          "topics": [
            "0x4dfe1bbbcf077ddc3e01291eea2d5c70c2b422b415d95645b9adcfd678cb1d63",
            "0x0000000000000000000000000000000000000000000000000000000000001010",
            "0x000000000000000000000000699bceebd59a5b52bb586c737cd7ba636f3fe602",
            "0x0000000000000000000000004ad84f7014b7b44f723f284a85b1662337971439"
          ],
          "data": "0x000000000000000000000000000000000000000000000000000930772caa5de8000000000000000000000000000000000000000000000000323f8c74f010c01a000000000000000000000000000000000000000000000090429705de692e1ecd00000000000000000000000000000000000000000000000032365bfdc366623200000000000000000000000000000000000000000000009042a0365595d87cb5",
          "blockHash": "0xf84b45b9fcd244e4b070ab9875f48abd12706afc8a6be7e234e8b83a4bafd340",
          "blockNumber": "0x6094c7",
          "transactionHash": "0x1989e55363585e97044232f462eeb4f4f4fae7efd3e4afe66a8c25b6b3d56962",
          "transactionIndex": "0x0",
          "logIndex": "0x0",
          "removed": false
        }
      ],
      "logsBloom": "0x00000000000000000000000000000000000000000000000000000000000000000000000000000000000000000000000000008000000000000000000000400000000000000000000000000000000000800000000000000000000100001000000000800000000000000000000000000000000000000000000080000000000000000000000000000000000000000000000000000000000000000000000000000000200000000000000000000000000000000000000000000000000000000000004000000000000000000001000000008000000000000000000000100000000000000000000000000000001000000000008000000000000000000000000000100000",
      "type": "0x2",
      "transactionHash": "0x1989e55363585e97044232f462eeb4f4f4fae7efd3e4afe66a8c25b6b3d56962",
      "transactionIndex": "0x0",
      "blockHash": "0xf84b45b9fcd244e4b070ab9875f48abd12706afc8a6be7e234e8b83a4bafd340",
      "blockNumber": "0x6094c7",
      "gasUsed": "0x10468",
      "effectiveGasPrice": "0x908a90400",
      "from": "0x699bceebd59a5b52bb586c737cd7ba636f3fe602",
      "to": "0x6cf9a63bfa77b0bc6d23ef603f3aa7206998b64c",
      "contractAddress": null
    }
  ],
  "libraries": [],
  "pending": [],
  "returns": {},
  "timestamp": 1714144600,
  "chain": 80002,
  "commit": "d8ddccd"
}