{
  "transactions": [
    {
      "hash": "0x974476b3211693463938bafa42910f33189dc8a908ff7db5d9ae3e4b15e2475e",
      "transactionType": "CALL",
      "contractName": null,
      "contractAddress": "0xaa92a60b75f5c060d0beb6ee24fe8debc8f8e7d9",
      "function": "updateCommittee(bytes32,bool)",
      "arguments": [
        "0xfb0f57f4e5c2d1b234771ed825b05cc4e56762970118b2ca928fdcb46a172f8a",
        "true"
      ],
      "transaction": {
        "from": "0x699bceebd59a5b52bb586c737cd7ba636f3fe602",
        "to": "0xaa92a60b75f5c060d0beb6ee24fe8debc8f8e7d9",
        "gas": "0x11b48",
        "value": "0x0",
        "input": "0x256f225afb0f57f4e5c2d1b234771ed825b05cc4e56762970118b2ca928fdcb46a172f8a0000000000000000000000000000000000000000000000000000000000000001",
        "nonce": "0x121",
        "chainId": "0x13882",
        "accessList": null,
        "type": null
      },
      "additionalContracts": [],
      "isFixedGasLimit": false
    },
    {
      "hash": "0x92d8490d9904d66cc59d3fc30c1728a1efb21ba8c04ccfcf02c979f1569aecba",
      "transactionType": "CALL",
      "contractName": null,
      "contractAddress": "0xaa92a60b75f5c060d0beb6ee24fe8debc8f8e7d9",
      "function": "updateCommittee(bytes32,bool)",
      "arguments": [
        "0xa54437f2be81a9772ac5dcf84e260055005ec7d4ba4f2caa635925fe3ce0b423",
        "true"
      ],
      "transaction": {
        "from": "0x699bceebd59a5b52bb586c737cd7ba636f3fe602",
        "to": "0xaa92a60b75f5c060d0beb6ee24fe8debc8f8e7d9",
        "gas": "0x11b25",
        "value": "0x0",
        "input": "0x256f225aa54437f2be81a9772ac5dcf84e260055005ec7d4ba4f2caa635925fe3ce0b4230000000000000000000000000000000000000000000000000000000000000001",
        "nonce": "0x122",
        "chainId": "0x13882",
        "accessList": null,
        "type": null
      },
      "additionalContracts": [],
      "isFixedGasLimit": false
    }
  ],
  "receipts": [
    {
      "status": "0x1",
      "cumulativeGasUsed": "0xc1b3",
      "logs": [
        {
          "address": "0x0000000000000000000000000000000000001010",
          "topics": [
            "0x4dfe1bbbcf077ddc3e01291eea2d5c70c2b422b415d95645b9adcfd678cb1d63",
            "0x0000000000000000000000000000000000000000000000000000000000001010",
            "0x000000000000000000000000699bceebd59a5b52bb586c737cd7ba636f3fe602",
            "0x000000000000000000000000915a2284d28bd93de7d6f31173b981204bb666e6"
          ],
          "data": "0x0000000000000000000000000000000000000000000000000037b0813c612840000000000000000000000000000000000000000000000000d7db5dedaa3426b90000000000000000000000000000000000000000000000dec77217b7e6e10c22000000000000000000000000000000000000000000000000d7a3ad6c6dd2fe790000000000000000000000000000000000000000000000dec7a9c83923423462",
          "blockHash": "0x94db9c27f147bd3a5baf695c3524d9703a827c67d9b3f230b941132edafbef31",
          "blockNumber": "0x62a7f9",
          "transactionHash": "0x974476b3211693463938bafa42910f33189dc8a908ff7db5d9ae3e4b15e2475e",
          "transactionIndex": "0x0",
          "logIndex": "0x0",
          "removed": false
        }
      ],
      "logsBloom": "0x00000000000000000010000000000000000000000000000000000000000000000000000000000000000000000000000000008000000000000000000000000000000000000000000000000000000000800000000000000000000100000000000000800000000000000000000000000000000000000000000080000000000000000000000000000000000000000000000000000000000000000000000000000000200000000000000000000000000000000000000000000000000000000000004000000000000000000001000000008000000002000000000000100000000000000000000000000000001000000000000000000000400000000000000000100000",
      "type": "0x2",
      "transactionHash": "0x974476b3211693463938bafa42910f33189dc8a908ff7db5d9ae3e4b15e2475e",
      "transactionIndex": "0x0",
      "blockHash": "0x94db9c27f147bd3a5baf695c3524d9703a827c67d9b3f230b941132edafbef31",
      "blockNumber": "0x62a7f9",
      "gasUsed": "0xc1b3",
      "effectiveGasPrice": "0x4999eb96cf",
      "from": "0x699bceebd59a5b52bb586c737cd7ba636f3fe602",
      "to": "0xaa92a60b75f5c060d0beb6ee24fe8debc8f8e7d9",
      "contractAddress": null
    },
    {
      "status": "0x1",
      "cumulativeGasUsed": "0x1834e",
      "logs": [
        {
          "address": "0x0000000000000000000000000000000000001010",
          "topics": [
            "0x4dfe1bbbcf077ddc3e01291eea2d5c70c2b422b415d95645b9adcfd678cb1d63",
            "0x0000000000000000000000000000000000000000000000000000000000001010",
            "0x000000000000000000000000699bceebd59a5b52bb586c737cd7ba636f3fe602",
            "0x000000000000000000000000915a2284d28bd93de7d6f31173b981204bb666e6"
          ],
          "data": "0x0000000000000000000000000000000000000000000000000037a99ace4b0640000000000000000000000000000000000000000000000000d7a3ad6c6dc7a4fc0000000000000000000000000000000000000000000000dec7a9c83923423462000000000000000000000000000000000000000000000000d76c03d19f7c9ebc0000000000000000000000000000000000000000000000dec7e171d3f18d3aa2",
          "blockHash": "0x94db9c27f147bd3a5baf695c3524d9703a827c67d9b3f230b941132edafbef31",
          "blockNumber": "0x62a7f9",
          "transactionHash": "0x92d8490d9904d66cc59d3fc30c1728a1efb21ba8c04ccfcf02c979f1569aecba",
          "transactionIndex": "0x1",
          "logIndex": "0x1",
          "removed": false
        }
      ],
      "logsBloom": "0x00000000000000000010000000000000000000000000000000000000000000000000000000000000000000000000000000008000000000000000000000000000000000000000000000000000000000800000000000000000000100000000000000800000000000000000000000000000000000000000000080000000000000000000000000000000000000000000000000000000000000000000000000000000200000000000000000000000000000000000000000000000000000000000004000000000000000000001000000008000000002000000000000100000000000000000000000000000001000000000000000000000400000000000000000100000",
      "type": "0x2",
      "transactionHash": "0x92d8490d9904d66cc59d3fc30c1728a1efb21ba8c04ccfcf02c979f1569aecba",
      "transactionIndex": "0x1",
      "blockHash": "0x94db9c27f147bd3a5baf695c3524d9703a827c67d9b3f230b941132edafbef31",
      "blockNumber": "0x62a7f9",
      "gasUsed": "0xc19b",
      "effectiveGasPrice": "0x4999eb96cf",
      "from": "0x699bceebd59a5b52bb586c737cd7ba636f3fe602",
      "to": "0xaa92a60b75f5c060d0beb6ee24fe8debc8f8e7d9",
      "contractAddress": null
    }
  ],
  "libraries": [],
  "pending": [],
  "returns": {},
  "timestamp": 1714451768,
  "chain": 80002,
  "commit": "9546700"
}