{
  "transactions": [
    {
      "hash": "0x690391e4b434ffbcc8e3b25665f9fd4d1851638cf777dacbe159d6711923eede",
      "transactionType": "CALL",
      "contractName": null,
      "contractAddress": "0xaa92a60b75f5c060d0beb6ee24fe8debc8f8e7d9",
      "function": "updateCommittee(bytes32,bool)",
      "arguments": [
        "0xa434dcf3bbb2d50f29519b663ea55bf56b70681f4c00bc77b43c712c94be898a",
        "true"
      ],
      "transaction": {
        "from": "0x699bceebd59a5b52bb586c737cd7ba636f3fe602",
        "to": "0xaa92a60b75f5c060d0beb6ee24fe8debc8f8e7d9",
        "gas": "0x10b7a",
        "value": "0x0",
        "input": "0x256f225aa434dcf3bbb2d50f29519b663ea55bf56b70681f4c00bc77b43c712c94be898a0000000000000000000000000000000000000000000000000000000000000001",
        "nonce": "0x115",
        "chainId": "0x13882",
        "accessList": null,
        "type": null
      },
      "additionalContracts": [],
      "isFixedGasLimit": false
    },
    {
      "hash": "0x1f9f9670e3f485be0abf9bc34dbb1b361215b54a56ab4cdba29db601d0793d98",
      "transactionType": "CALL",
      "contractName": null,
      "contractAddress": "0xaa92a60b75f5c060d0beb6ee24fe8debc8f8e7d9",
      "function": "updateCommittee(bytes32,bool)",
      "arguments": [
        "0xb6ea657fc6aec423b145c9320d6b5aa2434d6f2e6d09e9f44c5b4d05134d4389",
        "true"
      ],
      "transaction": {
        "from": "0x699bceebd59a5b52bb586c737cd7ba636f3fe602",
        "to": "0xaa92a60b75f5c060d0beb6ee24fe8debc8f8e7d9",
        "gas": "0x11b48",
        "value": "0x0",
        "input": "0x256f225ab6ea657fc6aec423b145c9320d6b5aa2434d6f2e6d09e9f44c5b4d05134d43890000000000000000000000000000000000000000000000000000000000000001",
        "nonce": "0x116",
        "chainId": "0x13882",
        "accessList": null,
        "type": null
      },
      "additionalContracts": [],
      "isFixedGasLimit": false
    }
  ],
  "receipts": [
    {
      "status": "0x1",
      "cumulativeGasUsed": "0xc1a7",
      "logs": [
        {
          "address": "0x0000000000000000000000000000000000001010",
          "topics": [
            "0x4dfe1bbbcf077ddc3e01291eea2d5c70c2b422b415d95645b9adcfd678cb1d63",
            "0x0000000000000000000000000000000000000000000000000000000000001010",
            "0x000000000000000000000000699bceebd59a5b52bb586c737cd7ba636f3fe602",
            "0x000000000000000000000000915a2284d28bd93de7d6f31173b981204bb666e6"
          ],
          "data": "0x0000000000000000000000000000000000000000000000000072ea4e17587344000000000000000000000000000000000000000000000000cb3d36524dcdcc3d0000000000000000000000000000000000000000000000db320468b56bc10197000000000000000000000000000000000000000000000000caca4c04367558f90000000000000000000000000000000000000000000000db32775303831974db",
          "blockHash": "0x1b42c28ea28ae26e96f5fa97b4ebf035d5493be77c0f742ced1b47b28f7fa0e2",
          "blockNumber": "0x62a17c",
          "transactionHash": "0x690391e4b434ffbcc8e3b25665f9fd4d1851638cf777dacbe159d6711923eede",
          "transactionIndex": "0x0",
          "logIndex": "0x0",
          "removed": false
        }
      ],
      "logsBloom": "0x00000000000000000010000000000000000000000000000000000000000000000000000000000000000000000000000000008000000000000000000000000000000000000000000000000000000000800000000000000000000100000000000000800000000000000000000000000000000000000000000080000000000000000000000000000000000000000000000000000000000000000000000000000000200000000000000000000000000000000000000000000000000000000000004000000000000000000001000000008000000002000000000000100000000000000000000000000000001000000000000000000000400000000000000000100000",
      "type": "0x2",
      "transactionHash": "0x690391e4b434ffbcc8e3b25665f9fd4d1851638cf777dacbe159d6711923eede",
      "transactionIndex": "0x0",
      "blockHash": "0x1b42c28ea28ae26e96f5fa97b4ebf035d5493be77c0f742ced1b47b28f7fa0e2",
      "blockNumber": "0x62a17c",
      "gasUsed": "0xc1a7",
      "effectiveGasPrice": "0x97e9b9332b",
      "from": "0x699bceebd59a5b52bb586c737cd7ba636f3fe602",
      "to": "0xaa92a60b75f5c060d0beb6ee24fe8debc8f8e7d9",
      "contractAddress": null
    },
    {
      "status": "0x1",
      "cumulativeGasUsed": "0x113bb",
      "logs": [
        {
          "address": "0x0000000000000000000000000000000000001010",
          "topics": [
            "0x4dfe1bbbcf077ddc3e01291eea2d5c70c2b422b415d95645b9adcfd678cb1d63",
            "0x0000000000000000000000000000000000000000000000000000000000001010",
            "0x000000000000000000000000699bceebd59a5b52bb586c737cd7ba636f3fe602",
            "0x000000000000000000000000915a2284d28bd93de7d6f31173b981204bb666e6"
          ],
          "data": "0x0000000000000000000000000000000000000000000000000072f16d0c06d894000000000000000000000000000000000000000000000000caca4c04366a00300000000000000000000000000000000000000000000000db32bb3f4f2d007663000000000000000000000000000000000000000000000000ca575a972a63279c0000000000000000000000000000000000000000000000db332e30bc39074ef7",
          "blockHash": "0x6e6ee5cb6308fd81b495ee4f4b2eef229cb0b8ce5be26263f2f32afc6c19d209",
          "blockNumber": "0x62a17d",
          "transactionHash": "0x1f9f9670e3f485be0abf9bc34dbb1b361215b54a56ab4cdba29db601d0793d98",
          "transactionIndex": "0x1",
          "logIndex": "0x2",
          "removed": false
        }
      ],
      "logsBloom": "0x00000000000000000010000000000000000000000000000000000000000000000000000000000000000000000000000000008000000000000000000000000000000000000000000000000000000000800000000000000000000100000000000000800000000000000000000000000000000000000000000080000000000000000000000000000000000000000000000000000000000000000000000000000000200000000000000000000000000000000000000000000000000000000000004000000000000000000001000000008000000002000000000000100000000000000000000000000000001000000000000000000000400000000000000000100000",
      "type": "0x2",
      "transactionHash": "0x1f9f9670e3f485be0abf9bc34dbb1b361215b54a56ab4cdba29db601d0793d98",
      "transactionIndex": "0x1",
      "blockHash": "0x6e6ee5cb6308fd81b495ee4f4b2eef229cb0b8ce5be26263f2f32afc6c19d209",
      "blockNumber": "0x62a17d",
      "gasUsed": "0xc1b3",
      "effectiveGasPrice": "0x97e9b9332b",
      "from": "0x699bceebd59a5b52bb586c737cd7ba636f3fe602",
      "to": "0xaa92a60b75f5c060d0beb6ee24fe8debc8f8e7d9",
      "contractAddress": null
    }
  ],
  "libraries": [],
  "pending": [],
  "returns": {},
  "timestamp": 1714448232,
  "chain": 80002,
  "commit": "9546700"
}