{
  "transactions": [
    {
      "hash": "0x5406b3dba05d9883016326fbaf05bc503f06d22718e9757d02884afea80c9fd9",
      "transactionType": "CALL",
      "contractName": null,
      "contractAddress": "0x6cf9a63bfa77b0bc6d23ef603f3aa7206998b64c",
      "function": "updateCommittee(bytes32,bool)",
      "arguments": [
        "0xeebe54dc3bb81e77d35a037fd4da29d90d4631eafbca7ed7ca410ef2d037f15d",
        "true"
      ],
      "transaction": {
        "from": "0x699bceebd59a5b52bb586c737cd7ba636f3fe602",
        "to": "0x6cf9a63bfa77b0bc6d23ef603f3aa7206998b64c",
        "gas": "0x10b6b",
        "value": "0x0",
        "input": "0x256f225aeebe54dc3bb81e77d35a037fd4da29d90d4631eafbca7ed7ca410ef2d037f15d0000000000000000000000000000000000000000000000000000000000000001",
        "nonce": "0x16",
        "chainId": "0x13882",
        "accessList": null,
        "type": null
      },
      "additionalContracts": [],
      "isFixedGasLimit": false
    }
  ],
  "receipts": [
    {
      "status": "0x1",
      "cumulativeGasUsed": "0x165b0",
      "logs": [
        {
          "address": "0x0000000000000000000000000000000000001010",
          "topics": [
            "0x4dfe1bbbcf077ddc3e01291eea2d5c70c2b422b415d95645b9adcfd678cb1d63",
            "0x0000000000000000000000000000000000000000000000000000000000001010",
            "0x000000000000000000000000699bceebd59a5b52bb586c737cd7ba636f3fe602",
            "0x00000000000000000000000002f615e95563ef16f10354dba9e584e58d2d4314"
          ],
          "data": "0x000000000000000000000000000000000000000000000000000548588a68d00000000000000000000000000000000000000000000000000035fa97ea960aec68000000000000000000000000000000000000000000000005cb8e96ff91c937d900000000000000000000000000000000000000000000000035f54f920ba21c68000000000000000000000000000000000000000000000005cb93df581c3207d9",
          "blockHash": "0xa3d0b79d17aaff53cfb850234c4e46e73f59e481a494b92fe6d71d2fb47c1da1",
          "blockNumber": "0x6099f0",
          "transactionHash": "0x5406b3dba05d9883016326fbaf05bc503f06d22718e9757d02884afea80c9fd9",
          "transactionIndex": "0x2",
          "logIndex": "0x4",
          "removed": false
        }
      ],
      "logsBloom": "0x00000000000000000000000000000000000000000000000000000008000000000000000000000000020000004000000000008000000000000000000000000000000000000000000000000000000000800000000000000000000100000000000000800000000000000000000000000000000000000000000080000000000000000000000000000000000000000000000000000000000000000000000000000000200000000000000000000000000000000000000000000000000000000000004000000000000000000001000000008000000000000000000000100000000000000000000000000000001000000000000000000000000000000000000000100000",
      "type": "0x2",
      "transactionHash": "0x5406b3dba05d9883016326fbaf05bc503f06d22718e9757d02884afea80c9fd9",
      "transactionIndex": "0x2",
      "blockHash": "0xa3d0b79d17aaff53cfb850234c4e46e73f59e481a494b92fe6d71d2fb47c1da1",
      "blockNumber": "0x6099f0",
      "gasUsed": "0xc19c",
      "effectiveGasPrice": "0x6fc23ac0f",
      "from": "0x699bceebd59a5b52bb586c737cd7ba636f3fe602",
      "to": "0x6cf9a63bfa77b0bc6d23ef603f3aa7206998b64c",
      "contractAddress": null
    }
  ],
  "libraries": [],
  "pending": [],
  "returns": {},
  "timestamp": 1714147407,
  "chain": 80002,
  "commit": "d8ddccd"
}