{
  "transactions": [
    {
      "hash": "0x350783df08b6eeccb4d42e93f06cbaba0f1d36aada942a7eca92de602a70d56c",
      "transactionType": "CALL",
      "contractName": null,
      "contractAddress": "0xe240cca0469ee7ba9f49c460bcb3ae2b3dd7d70b",
      "function": "updateCommittee(bytes32,bool)",
      "arguments": [
        "0xed1ecf0256ac7bd80a1d390641fc811218a32a99e0afc40a534261168c78918e",
        "true"
      ],
      "transaction": {
        "from": "0x699bceebd59a5b52bb586c737cd7ba636f3fe602",
        "to": "0xe240cca0469ee7ba9f49c460bcb3ae2b3dd7d70b",
        "gas": "0x167ce",
        "value": "0x0",
        "input": "0x256f225aed1ecf0256ac7bd80a1d390641fc811218a32a99e0afc40a534261168c78918e0000000000000000000000000000000000000000000000000000000000000001",
        "nonce": "0x33",
        "chainId": "0x13882",
        "accessList": null,
        "type": null
      },
      "additionalContracts": [],
      "isFixedGasLimit": false
    },
    {
      "hash": "0x540ebbc671f1a337ae313df702a264fd9f3cb81c0805a03c06d3a43b68e6b34e",
      "transactionType": "CALL",
      "contractName": null,
      "contractAddress": "0xe240cca0469ee7ba9f49c460bcb3ae2b3dd7d70b",
      "function": "updateCommittee(bytes32,bool)",
      "arguments": [
        "0x15fd1bf7a7f223445355c4840b5f9abd07bfcde68548bfa03f4f603627076195",
        "true"
      ],
      "transaction": {
        "from": "0x699bceebd59a5b52bb586c737cd7ba636f3fe602",
        "to": "0xe240cca0469ee7ba9f49c460bcb3ae2b3dd7d70b",
        "gas": "0x11b48",
        "value": "0x0",
        "input": "0x256f225a15fd1bf7a7f223445355c4840b5f9abd07bfcde68548bfa03f4f6036270761950000000000000000000000000000000000000000000000000000000000000001",
        "nonce": "0x34",
        "chainId": "0x13882",
        "accessList": null,
        "type": null
      },
      "additionalContracts": [],
      "isFixedGasLimit": false
    },
    {
      "hash": "0x5fa43e480a6c4b38dcf248eed5e26ad22b2f697c0e6d815466729b45d7ea4f7c",
      "transactionType": "CALL",
      "contractName": null,
      "contractAddress": "0xe240cca0469ee7ba9f49c460bcb3ae2b3dd7d70b",
      "function": "updateCommittee(bytes32,bool)",
      "arguments": [
        "0xeebe54dc3bb81e77d35a037fd4da29d90d4631eafbca7ed7ca410ef2d037f15d",
        "true"
      ],
      "transaction": {
        "from": "0x699bceebd59a5b52bb586c737cd7ba636f3fe602",
        "to": "0xe240cca0469ee7ba9f49c460bcb3ae2b3dd7d70b",
        "gas": "0x11b48",
        "value": "0x0",
        "input": "0x256f225aeebe54dc3bb81e77d35a037fd4da29d90d4631eafbca7ed7ca410ef2d037f15d0000000000000000000000000000000000000000000000000000000000000001",
        "nonce": "0x35",
        "chainId": "0x13882",
        "accessList": null,
        "type": null
      },
      "additionalContracts": [],
      "isFixedGasLimit": false
    },
    {
      "hash": "0x40bcd4e66b3a479cf481462bb2f5e64aa3c1cd3ae77ec8c7e01e40dd2c496061",
      "transactionType": "CALL",
      "contractName": null,
      "contractAddress": "0xe240cca0469ee7ba9f49c460bcb3ae2b3dd7d70b",
      "function": "updateCommittee(bytes32,bool)",
      "arguments": [
        "0xa434dcf3bbb2d50f29519b663ea55bf56b70681f4c00bc77b43c712c94be898a",
        "true"
      ],
      "transaction": {
        "from": "0x699bceebd59a5b52bb586c737cd7ba636f3fe602",
        "to": "0xe240cca0469ee7ba9f49c460bcb3ae2b3dd7d70b",
        "gas": "0x10b7a",
        "value": "0x0",
        "input": "0x256f225aa434dcf3bbb2d50f29519b663ea55bf56b70681f4c00bc77b43c712c94be898a0000000000000000000000000000000000000000000000000000000000000001",
        "nonce": "0x36",
        "chainId": "0x13882",
        "accessList": null,
        "type": null
      },
      "additionalContracts": [],
      "isFixedGasLimit": false
    },
    {
      "hash": "0x78eb733373cdf72d4056d046643674198973fd722de85fdee2e1efb87e01eb0a",
      "transactionType": "CALL",
      "contractName": null,
      "contractAddress": "0xe240cca0469ee7ba9f49c460bcb3ae2b3dd7d70b",
      "function": "updateCommittee(bytes32,bool)",
      "arguments": [
        "0xb6ea657fc6aec423b145c9320d6b5aa2434d6f2e6d09e9f44c5b4d05134d4389",
        "true"
      ],
      "transaction": {
        "from": "0x699bceebd59a5b52bb586c737cd7ba636f3fe602",
        "to": "0xe240cca0469ee7ba9f49c460bcb3ae2b3dd7d70b",
        "gas": "0x11b48",
        "value": "0x0",
        "input": "0x256f225ab6ea657fc6aec423b145c9320d6b5aa2434d6f2e6d09e9f44c5b4d05134d43890000000000000000000000000000000000000000000000000000000000000001",
        "nonce": "0x37",
        "chainId": "0x13882",
        "accessList": null,
        "type": null
      },
      "additionalContracts": [],
      "isFixedGasLimit": false
    }
  ],
  "receipts": [
    {
      "status": "0x1",
      "cumulativeGasUsed": "0x1047f",
      "logs": [
        {
          "address": "0x0000000000000000000000000000000000001010",
          "topics": [
            "0x4dfe1bbbcf077ddc3e01291eea2d5c70c2b422b415d95645b9adcfd678cb1d63",
            "0x0000000000000000000000000000000000000000000000000000000000001010",
            "0x000000000000000000000000699bceebd59a5b52bb586c737cd7ba636f3fe602",
            "0x000000000000000000000000ac75d6efec891724b88b916b36e2ef38bcbec73f"
          ],
          "data": "0x000000000000000000000000000000000000000000000000000c527bb3d4808600000000000000000000000000000000000000000000000026f83f5afdac7d1600000000000000000000000000000000000000000000012f68bf89891971b31b00000000000000000000000000000000000000000000000026ebecdf49d7fc9000000000000000000000000000000000000000000000012f68cbdc04cd4633a1",
          "blockHash": "0x4789888a9e91790f710ed1f4704858db83a5c8def7b2e5c5aa76e816b7034c41",
          "blockNumber": "0x611742",
          "transactionHash": "0x350783df08b6eeccb4d42e93f06cbaba0f1d36aada942a7eca92de602a70d56c",
          "transactionIndex": "0x0",
          "logIndex": "0x0",
          "removed": false
        }
      ],
      "logsBloom": "0x00000000000000000000000000000000000000000000000000000000000000000000000000000000000000000000000000008000000000000000000000000000000000000000000000000000000000800000000000000000000100000000000000800000000000000000000000000000000000000000000080000000000000000000000000000000000000000000000000000000000000000000000000000000200008000000000000000000000000000020000000000000000000000000004000000000000000000001000000008000000000000000000000100000000000000000000000000000001000000800000000000000000000000000000000100000",
      "type": "0x2",
      "transactionHash": "0x350783df08b6eeccb4d42e93f06cbaba0f1d36aada942a7eca92de602a70d56c",
      "transactionIndex": "0x0",
      "blockHash": "0x4789888a9e91790f710ed1f4704858db83a5c8def7b2e5c5aa76e816b7034c41",
      "blockNumber": "0x611742",
      "gasUsed": "0x1047f",
      "effectiveGasPrice": "0xc1c09a489",
      "from": "0x699bceebd59a5b52bb586c737cd7ba636f3fe602",
      "to": "0xe240cca0469ee7ba9f49c460bcb3ae2b3dd7d70b",
      "contractAddress": null
    },
    {
      "status": "0x1",
      "cumulativeGasUsed": "0x113bb",
      "logs": [
        {
          "address": "0x0000000000000000000000000000000000001010",
          "topics": [
            "0x4dfe1bbbcf077ddc3e01291eea2d5c70c2b422b415d95645b9adcfd678cb1d63",
            "0x0000000000000000000000000000000000000000000000000000000000001010",
            "0x000000000000000000000000699bceebd59a5b52bb586c737cd7ba636f3fe602",
            "0x000000000000000000000000ac75d6efec891724b88b916b36e2ef38bcbec73f"
          ],
          "data": "0x0000000000000000000000000000000000000000000000000009299adfbdfb4e00000000000000000000000000000000000000000000000026ebecdf49c8b91f00000000000000000000000000000000000000000000012f68fd0be45bc6e2cf00000000000000000000000000000000000000000000000026e2c3446a0abdd100000000000000000000000000000000000000000000012f6906357f3b84de1d",
          "blockHash": "0xf3eb19f10844ba70be170a16c1d1d685865e89023ee9f317e95520e4ae9347ff",
          "blockNumber": "0x611744",
          "transactionHash": "0x540ebbc671f1a337ae313df702a264fd9f3cb81c0805a03c06d3a43b68e6b34e",
          "transactionIndex": "0x1",
          "logIndex": "0x2",
          "removed": false
        }
      ],
      "logsBloom": "0x00000000000000000000000000000000000000000000000000000000000000000000000000000000000000000000000000008000000000000000000000000000000000000000000000000000000000800000000000000000000100000000000000800000000000000000000000000000000000000000000080000000000000000000000000000000000000000000000000000000000000000000000000000000200008000000000000000000000000000020000000000000000000000000004000000000000000000001000000008000000000000000000000100000000000000000000000000000001000000800000000000000000000000000000000100000",
      "type": "0x2",
      "transactionHash": "0x540ebbc671f1a337ae313df702a264fd9f3cb81c0805a03c06d3a43b68e6b34e",
      "transactionIndex": "0x1",
      "blockHash": "0xf3eb19f10844ba70be170a16c1d1d685865e89023ee9f317e95520e4ae9347ff",
      "blockNumber": "0x611744",
      "gasUsed": "0xc1b3",
      "effectiveGasPrice": "0xc1c09a489",
      "from": "0x699bceebd59a5b52bb586c737cd7ba636f3fe602",
      "to": "0xe240cca0469ee7ba9f49c460bcb3ae2b3dd7d70b",
      "contractAddress": null
    },
    {
      "status": "0x1",
      "cumulativeGasUsed": "0x1d56e",
      "logs": [
        {
          "address": "0x0000000000000000000000000000000000001010",
          "topics": [
            "0x4dfe1bbbcf077ddc3e01291eea2d5c70c2b422b415d95645b9adcfd678cb1d63",
            "0x0000000000000000000000000000000000000000000000000000000000001010",
            "0x000000000000000000000000699bceebd59a5b52bb586c737cd7ba636f3fe602",
            "0x000000000000000000000000ac75d6efec891724b88b916b36e2ef38bcbec73f"
          ],
          "data": "0x0000000000000000000000000000000000000000000000000009299adfbdfb4e00000000000000000000000000000000000000000000000026e2c34469ff645400000000000000000000000000000000000000000000012f6906357f3b84de1d00000000000000000000000000000000000000000000000026d999a98a41690600000000000000000000000000000000000000000000012f690f5f1a1b42d96b",
          "blockHash": "0xf3eb19f10844ba70be170a16c1d1d685865e89023ee9f317e95520e4ae9347ff",
          "blockNumber": "0x611744",
          "transactionHash": "0x5fa43e480a6c4b38dcf248eed5e26ad22b2f697c0e6d815466729b45d7ea4f7c",
          "transactionIndex": "0x2",
          "logIndex": "0x3",
          "removed": false
        }
      ],
      "logsBloom": "0x00000000000000000000000000000000000000000000000000000000000000000000000000000000000000000000000000008000000000000000000000000000000000000000000000000000000000800000000000000000000100000000000000800000000000000000000000000000000000000000000080000000000000000000000000000000000000000000000000000000000000000000000000000000200008000000000000000000000000000020000000000000000000000000004000000000000000000001000000008000000000000000000000100000000000000000000000000000001000000800000000000000000000000000000000100000",
      "type": "0x2",
      "transactionHash": "0x5fa43e480a6c4b38dcf248eed5e26ad22b2f697c0e6d815466729b45d7ea4f7c",
      "transactionIndex": "0x2",
      "blockHash": "0xf3eb19f10844ba70be170a16c1d1d685865e89023ee9f317e95520e4ae9347ff",
      "blockNumber": "0x611744",
      "gasUsed": "0xc1b3",
      "effectiveGasPrice": "0xc1c09a489",
      "from": "0x699bceebd59a5b52bb586c737cd7ba636f3fe602",
      "to": "0xe240cca0469ee7ba9f49c460bcb3ae2b3dd7d70b",
      "contractAddress": null
    },
    {
      "status": "0x1",
      "cumulativeGasUsed": "0x29715",
      "logs": [
        {
          "address": "0x0000000000000000000000000000000000001010",
          "topics": [
            "0x4dfe1bbbcf077ddc3e01291eea2d5c70c2b422b415d95645b9adcfd678cb1d63",
            "0x0000000000000000000000000000000000000000000000000000000000001010",
            "0x000000000000000000000000699bceebd59a5b52bb586c737cd7ba636f3fe602",
            "0x000000000000000000000000ac75d6efec891724b88b916b36e2ef38bcbec73f"
          ],
          "data": "0x000000000000000000000000000000000000000000000000000929098f4a459600000000000000000000000000000000000000000000000026d999a98a360f8900000000000000000000000000000000000000000000012f690f5f1a1b42d96b00000000000000000000000000000000000000000000000026d0709ffaebc9f300000000000000000000000000000000000000000000012f69188823aa8d1f01",
          "blockHash": "0xf3eb19f10844ba70be170a16c1d1d685865e89023ee9f317e95520e4ae9347ff",
          "blockNumber": "0x611744",
          "transactionHash": "0x40bcd4e66b3a479cf481462bb2f5e64aa3c1cd3ae77ec8c7e01e40dd2c496061",
          "transactionIndex": "0x3",
          "logIndex": "0x4",
          "removed": false
        }
      ],
      "logsBloom": "0x00000000000000000000000000000000000000000000000000000000000000000000000000000000000000000000000000008000000000000000000000000000000000000000000000000000000000800000000000000000000100000000000000800000000000000000000000000000000000000000000080000000000000000000000000000000000000000000000000000000000000000000000000000000200008000000000000000000000000000020000000000000000000000000004000000000000000000001000000008000000000000000000000100000000000000000000000000000001000000800000000000000000000000000000000100000",
      "type": "0x2",
      "transactionHash": "0x40bcd4e66b3a479cf481462bb2f5e64aa3c1cd3ae77ec8c7e01e40dd2c496061",
      "transactionIndex": "0x3",
      "blockHash": "0xf3eb19f10844ba70be170a16c1d1d685865e89023ee9f317e95520e4ae9347ff",
      "blockNumber": "0x611744",
      "gasUsed": "0xc1a7",
      "effectiveGasPrice": "0xc1c09a489",
      "from": "0x699bceebd59a5b52bb586c737cd7ba636f3fe602",
      "to": "0xe240cca0469ee7ba9f49c460bcb3ae2b3dd7d70b",
      "contractAddress": null
    },
    {
      "status": "0x1",
      "cumulativeGasUsed": "0x358c8",
      "logs": [
        {
          "address": "0x0000000000000000000000000000000000001010",
          "topics": [
            "0x4dfe1bbbcf077ddc3e01291eea2d5c70c2b422b415d95645b9adcfd678cb1d63",
            "0x0000000000000000000000000000000000000000000000000000000000001010",
            "0x000000000000000000000000699bceebd59a5b52bb586c737cd7ba636f3fe602",
            "0x000000000000000000000000ac75d6efec891724b88b916b36e2ef38bcbec73f"
          ],
          "data": "0x0000000000000000000000000000000000000000000000000009299adfbdfb4e00000000000000000000000000000000000000000000000026d0709ffae0712a00000000000000000000000000000000000000000000012f69188823aa8d1f0100000000000000000000000000000000000000000000000026c747051b2275dc00000000000000000000000000000000000000000000012f6921b1be8a4b1a4f",
          "blockHash": "0xf3eb19f10844ba70be170a16c1d1d685865e89023ee9f317e95520e4ae9347ff",
          "blockNumber": "0x611744",
          "transactionHash": "0x78eb733373cdf72d4056d046643674198973fd722de85fdee2e1efb87e01eb0a",
          "transactionIndex": "0x4",
          "logIndex": "0x5",
          "removed": false
        }
      ],
      "logsBloom": "0x00000000000000000000000000000000000000000000000000000000000000000000000000000000000000000000000000008000000000000000000000000000000000000000000000000000000000800000000000000000000100000000000000800000000000000000000000000000000000000000000080000000000000000000000000000000000000000000000000000000000000000000000000000000200008000000000000000000000000000020000000000000000000000000004000000000000000000001000000008000000000000000000000100000000000000000000000000000001000000800000000000000000000000000000000100000",
      "type": "0x2",
      "transactionHash": "0x78eb733373cdf72d4056d046643674198973fd722de85fdee2e1efb87e01eb0a",
      "transactionIndex": "0x4",
      "blockHash": "0xf3eb19f10844ba70be170a16c1d1d685865e89023ee9f317e95520e4ae9347ff",
      "blockNumber": "0x611744",
      "gasUsed": "0xc1b3",
      "effectiveGasPrice": "0xc1c09a489",
      "from": "0x699bceebd59a5b52bb586c737cd7ba636f3fe602",
      "to": "0xe240cca0469ee7ba9f49c460bcb3ae2b3dd7d70b",
      "contractAddress": null
    }
  ],
  "libraries": [],
  "pending": [],
  "returns": {},
  "timestamp": 1714215593,
  "chain": 80002,
  "commit": "9546700"
}