{
  "transactions": [
    {
      "hash": "0x5b4051dedfc502f1136e168058b1996ad797c7b436d3da376fd5e504d4d22bf4",
      "transactionType": "CALL",
      "contractName": null,
      "contractAddress": "0x6cf9a63bfa77b0bc6d23ef603f3aa7206998b64c",
      "function": "updateCommittee(bytes32,bool)",
      "arguments": [
        "0xed1ecf0256ac7bd80a1d390641fc811218a32a99e0afc40a534261168c78918e",
        "false"
      ],
      "transaction": {
        "from": "0x699bceebd59a5b52bb586c737cd7ba636f3fe602",
        "to": "0x6cf9a63bfa77b0bc6d23ef603f3aa7206998b64c",
        "gas": "0x951b",
        "value": "0x0",
        "input": "0x256f225aed1ecf0256ac7bd80a1d390641fc811218a32a99e0afc40a534261168c78918e0000000000000000000000000000000000000000000000000000000000000000",
        "nonce": "0xb",
        "chainId": "0x13882",
        "accessList": null,
        "type": null
      },
      "additionalContracts": [],
      "isFixedGasLimit": false
    },
    {
      "hash": "0x1b391f8c0ac607ca0c6d0a6e9c2954a4a7611d0abff45a12b3b5817882239f91",
      "transactionType": "CALL",
      "contractName": null,
      "contractAddress": "0x6cf9a63bfa77b0bc6d23ef603f3aa7206998b64c",
      "function": "updateCommittee(bytes32,bool)",
      "arguments": [
        "0x15fd1bf7a7f223445355c4840b5f9abd07bfcde68548bfa03f4f603627076195",
        "false"
      ],
      "transaction": {
        "from": "0x699bceebd59a5b52bb586c737cd7ba636f3fe602",
        "to": "0x6cf9a63bfa77b0bc6d23ef603f3aa7206998b64c",
        "gas": "0x8c01",
        "value": "0x0",
        "input": "0x256f225a15fd1bf7a7f223445355c4840b5f9abd07bfcde68548bfa03f4f6036270761950000000000000000000000000000000000000000000000000000000000000000",
        "nonce": "0xc",
        "chainId": "0x13882",
        "accessList": null,
        "type": null
      },
      "additionalContracts": [],
      "isFixedGasLimit": false
    }
  ],
  "receipts": [
    {
      "status": "0x1",
      "cumulativeGasUsed": "0x6bf4",
      "logs": [
        {
          "address": "0x0000000000000000000000000000000000001010",
          "topics": [
            "0x4dfe1bbbcf077ddc3e01291eea2d5c70c2b422b415d95645b9adcfd678cb1d63",
            "0x0000000000000000000000000000000000000000000000000000000000001010",
            "0x000000000000000000000000699bceebd59a5b52bb586c737cd7ba636f3fe602",
            "0x000000000000000000000000915a2284d28bd93de7d6f31173b981204bb666e6"
          ],
          "data": "0x0000000000000000000000000000000000000000000000000003ed644e7eecb4000000000000000000000000000000000000000000000000324729de23ad501a000000000000000000000000000000000000000000000087bf61bdc79d73e31000000000000000000000000000000000000000000000000032433c79d52e6366000000000000000000000000000000000000000000000087bf65ab2bebf2cfc4",
          "blockHash": "0xce2addc264d55c09408ef677e06df19aefd220602267132181b602321489b434",
          "blockNumber": "0x609477",
          "transactionHash": "0x5b4051dedfc502f1136e168058b1996ad797c7b436d3da376fd5e504d4d22bf4",
          "transactionIndex": "0x0",
          "logIndex": "0x0",
          "removed": false
        }
      ],
      "logsBloom": "0x00000000000000000010000000000000000000000000000000000000000000000000000000000000000000000000000000008000000000000000000000000000000000000000000000000000000000800000000000000000000100000000000000800000000000000000000000000000000000000000000080000000000000000000000000000000000000000000000000000000000000000000000000000000200000000000000000000000000000000000000000000000000000000000004000000000000000000001000000008000000002000000000000100000000000000000000000000000001000000000000000000000400000000000000000100000",
      "type": "0x2",
      "transactionHash": "0x5b4051dedfc502f1136e168058b1996ad797c7b436d3da376fd5e504d4d22bf4",
      "transactionIndex": "0x0",
      "blockHash": "0xce2addc264d55c09408ef677e06df19aefd220602267132181b602321489b434",
      "blockNumber": "0x609477",
      "gasUsed": "0x6bf4",
      "effectiveGasPrice": "0x9502f9000",
      "from": "0x699bceebd59a5b52bb586c737cd7ba636f3fe602",
      "to": "0x6cf9a63bfa77b0bc6d23ef603f3aa7206998b64c",
      "contractAddress": null
    },
    {
      "status": "0x1",
      "cumulativeGasUsed": "0xd151",
      "logs": [
        {
          "address": "0x0000000000000000000000000000000000001010",
          "topics": [
            "0x4dfe1bbbcf077ddc3e01291eea2d5c70c2b422b415d95645b9adcfd678cb1d63",
            "0x0000000000000000000000000000000000000000000000000000000000001010",
            "0x000000000000000000000000699bceebd59a5b52bb586c737cd7ba636f3fe602",
            "0x000000000000000000000000915a2284d28bd93de7d6f31173b981204bb666e6"
          ],
          "data": "0x0000000000000000000000000000000000000000000000000003b004e5115f8d00000000000000000000000000000000000000000000000032433c79d528101a000000000000000000000000000000000000000000000087bf65ab2bebf2cfc4000000000000000000000000000000000000000000000000323f8c74f016b08d000000000000000000000000000000000000000000000087bf695b30d1042f51",
          "blockHash": "0xce2addc264d55c09408ef677e06df19aefd220602267132181b602321489b434",
          "blockNumber": "0x609477",
          "transactionHash": "0x1b391f8c0ac607ca0c6d0a6e9c2954a4a7611d0abff45a12b3b5817882239f91",
          "transactionIndex": "0x1",
          "logIndex": "0x1",
          "removed": false
        }
      ],
      "logsBloom": "0x00000000000000000010000000000000000000000000000000000000000000000000000000000000000000000000000000008000000000000000000000000000000000000000000000000000000000800000000000000000000100000000000000800000000000000000000000000000000000000000000080000000000000000000000000000000000000000000000000000000000000000000000000000000200000000000000000000000000000000000000000000000000000000000004000000000000000000001000000008000000002000000000000100000000000000000000000000000001000000000000000000000400000000000000000100000",
      "type": "0x2",
      "transactionHash": "0x1b391f8c0ac607ca0c6d0a6e9c2954a4a7611d0abff45a12b3b5817882239f91",
      "transactionIndex": "0x1",
      "blockHash": "0xce2addc264d55c09408ef677e06df19aefd220602267132181b602321489b434",
      "blockNumber": "0x609477",
      "gasUsed": "0x655d",
      "effectiveGasPrice": "0x9502f9000",
      "from": "0x699bceebd59a5b52bb586c737cd7ba636f3fe602",
      "to": "0x6cf9a63bfa77b0bc6d23ef603f3aa7206998b64c",
      "contractAddress": null
    }
  ],
  "libraries": [],
  "pending": [],
  "returns": {},
  "timestamp": 1714144431,
  "chain": 80002,
  "commit": "d8ddccd"
}