{
  "transactions": [
    {
      "hash": "0xbe01eef539e331d55a55a8a8e467eb41ef79fdb0256d596599f042756ea48ac2",
      "transactionType": "CALL",
      "contractName": null,
      "contractAddress": "0x6cf9a63bfa77b0bc6d23ef603f3aa7206998b64c",
      "function": "updateCommittee(bytes32,bool)",
      "arguments": [
        "0xed1ecf0256ac7bd80a1d390641fc811218a32a99e0afc40a534261168c78918e",
        "true"
      ],
      "transaction": {
        "from": "0x699bceebd59a5b52bb586c737cd7ba636f3fe602",
        "to": "0x6cf9a63bfa77b0bc6d23ef603f3aa7206998b64c",
        "gas": "0x10b6b",
        "value": "0x0",
        "input": "0x256f225aed1ecf0256ac7bd80a1d390641fc811218a32a99e0afc40a534261168c78918e0000000000000000000000000000000000000000000000000000000000000001",
        "nonce": "0x13",
        "chainId": "0x13882",
        "accessList": null,
        "type": null
      },
      "additionalContracts": [],
      "isFixedGasLimit": false
    }
  ],
  "receipts": [
    {
      "status": "0x1",
      "cumulativeGasUsed": "0x567aa",
      "logs": [
        {
          "address": "0x0000000000000000000000000000000000001010",
          "topics": [
            "0x4dfe1bbbcf077ddc3e01291eea2d5c70c2b422b415d95645b9adcfd678cb1d63",
            "0x0000000000000000000000000000000000000000000000000000000000001010",
            "0x000000000000000000000000699bceebd59a5b52bb586c737cd7ba636f3fe602",
            "0x00000000000000000000000002f615e95563ef16f10354dba9e584e58d2d4314"
          ],
          "data": "0x00000000000000000000000000000000000000000000000000070b20b88067dc0000000000000000000000000000000000000000000000003622cbb0ee5bdcb6000000000000000000000000000000000000000000000005c858a029ea8d78b3000000000000000000000000000000000000000000000000361bc09035db74da000000000000000000000000000000000000000000000005c85fab4aa30de08f",
          "blockHash": "0xa7172cf4a5ebb83e219f0d67d185bef19e953a735363e27f6c685757c088f61f",
          "blockNumber": "0x609892",
          "transactionHash": "0xbe01eef539e331d55a55a8a8e467eb41ef79fdb0256d596599f042756ea48ac2",
          "transactionIndex": "0x1",
          "logIndex": "0x2",
          "removed": false
        }
      ],
      "logsBloom": "0x00000000000000000000000000000000000000000000000000000008000000000000000000000000020000004000000000008000000000000000000000000000000000000000000000000000000000800000000000000000000100000000000000800000000000000000000000000000000000000000000080000000000000000000000000000000000000000000000000000000000000000000000000000000200000000000000000000000000000000000000000000000000000000000004000000000000000000001000000008000000000000000000000100000000000000000000000000000001000000000000000000000000000000000000000100000",
      "type": "0x2",
      "transactionHash": "0xbe01eef539e331d55a55a8a8e467eb41ef79fdb0256d596599f042756ea48ac2",
      "transactionIndex": "0x1",
      "blockHash": "0xa7172cf4a5ebb83e219f0d67d185bef19e953a735363e27f6c685757c088f61f",
      "blockNumber": "0x609892",
      "gasUsed": "0xc19c",
      "effectiveGasPrice": "0x9502f9000",
      "from": "0x699bceebd59a5b52bb586c737cd7ba636f3fe602",
      "to": "0x6cf9a63bfa77b0bc6d23ef603f3aa7206998b64c",
      "contractAddress": null
    }
  ],
  "libraries": [],
  "pending": [],
  "returns": {},
  "timestamp": 1714146666,
  "chain": 80002,
  "commit": "d8ddccd"
}