{
  "transactions": [
    {
      "hash": "0x23b8cd11009faf2c1816006e6d00ac4078660541e71ec81f9206f1acd5eb38de",
      "transactionType": "CALL",
      "contractName": null,
      "contractAddress": "0x6cf9a63bfa77b0bc6d23ef603f3aa7206998b64c",
      "function": "executeMessage(bytes32,bytes,bytes)",
      "arguments": [
        "0x15fd1bf7a7f223445355c4840b5f9abd07bfcde68548bfa03f4f603627076195",
        "0xecc607b759b04caa82b6d585534c9d3cb6c939443b6bef498a7e8313333786086d251ca048bc96274d3b1430067cf52834c98856493920adf6d8e23dbd94c40e",
        "0x00000000000000000000000000000000000000000000000000000000000000200000000000000000000000000000000000000000000000000000000000000001000000000000000000000000000000000000000000000000000000000000002000000000000000000000000000000000000000000000000000000000000000601ca1ecb509521825e5420c69091debb2205537cfc00542447ff7a4e341cfdc82000000000000000000000000699bceebd59a5b52bb586c737cd7ba636f3fe602000000000000000000000000000000000000000000000000002386f26fc10000"
      ],
      "transaction": {
        "from": "0x699bceebd59a5b52bb586c737cd7ba636f3fe602",
        "to": "0x6cf9a63bfa77b0bc6d23ef603f3aa7206998b64c",
        "gas": "0x23c365",
        "value": "0x0",
        "input": "0xa5603e8615fd1bf7a7f223445355c4840b5f9abd07bfcde68548bfa03f4f603627076195000000000000000000000000000000000000000000000000000000000000006000000000000000000000000000000000000000000000000000000000000000c00000000000000000000000000000000000000000000000000000000000000040ecc607b759b04caa82b6d585534c9d3cb6c939443b6bef498a7e8313333786086d251ca048bc96274d3b1430067cf52834c98856493920adf6d8e23dbd94c40e00000000000000000000000000000000000000000000000000000000000000e000000000000000000000000000000000000000000000000000000000000000200000000000000000000000000000000000000000000000000000000000000001000000000000000000000000000000000000000000000000000000000000002000000000000000000000000000000000000000000000000000000000000000601ca1ecb509521825e5420c69091debb2205537cfc00542447ff7a4e341cfdc82000000000000000000000000699bceebd59a5b52bb586c737cd7ba636f3fe602000000000000000000000000000000000000000000000000002386f26fc10000",
        "nonce": "0x21",
        "chainId": "0x13882",
        "accessList": null,
        "type": null
      },
      "additionalContracts": [],
      "isFixedGasLimit": false
    }
  ],
  "receipts": [
    {
      "status": "0x1",
      "cumulativeGasUsed": "0x18741a",
      "logs": [
        {
          "address": "0x0000000000000000000000000000000000001010",
          "topics": [
            "0xe6497e3ee548a3372136af2fcb0696db31fc6cf20260707645068bd3fe97f3c4",
            "0x0000000000000000000000000000000000000000000000000000000000001010",
            "0x0000000000000000000000006cf9a63bfa77b0bc6d23ef603f3aa7206998b64c",
            "0x000000000000000000000000699bceebd59a5b52bb586c737cd7ba636f3fe602"
          ],
          "data": "0x000000000000000000000000000000000000000000000000002386f26fc100000000000000000000000000000000000000000000000000001610d09368df000100000000000000000000000000000000000000000000000025bd6bd77ff1071600000000000000000000000000000000000000000000000015ed49a0f91e000100000000000000000000000000000000000000000000000025e0f2c9efb20716",
          "blockHash": "0xfd22d5c7e7499ebeac32373b6964fcba388a3aa46459434942b78b9e981243c0",
          "blockNumber": "0x60eff8",
          "transactionHash": "0x23b8cd11009faf2c1816006e6d00ac4078660541e71ec81f9206f1acd5eb38de",
          "transactionIndex": "0x0",
          "logIndex": "0x0",
          "removed": false
        },
        {
          "address": "0x6cf9a63bfa77b0bc6d23ef603f3aa7206998b64c",
          "topics": [
            "0x771ada4b08df50f6f34077e42bddd7e7484aa362e7adb0916d0fc031a25f8765"
          ],
          "data": "0x000000000000000000000000699bceebd59a5b52bb586c737cd7ba636f3fe602000000000000000000000000000000000000000000000000002386f26fc1000000000000000000000000000000000000000000000000000000000000662c871d",
          "blockHash": "0xfd22d5c7e7499ebeac32373b6964fcba388a3aa46459434942b78b9e981243c0",
          "blockNumber": "0x60eff8",
          "transactionHash": "0x23b8cd11009faf2c1816006e6d00ac4078660541e71ec81f9206f1acd5eb38de",
          "transactionIndex": "0x0",
          "logIndex": "0x1",
          "removed": false
        },
        {
          "address": "0x0000000000000000000000000000000000001010",
          "topics": [
            "0x4dfe1bbbcf077ddc3e01291eea2d5c70c2b422b415d95645b9adcfd678cb1d63",
            "0x0000000000000000000000000000000000000000000000000000000000001010",
            "0x000000000000000000000000699bceebd59a5b52bb586c737cd7ba636f3fe602",
            "0x000000000000000000000000915a2284d28bd93de7d6f31173b981204bb666e6"
          ],
          "data": "0x0000000000000000000000000000000000000000000000000b1ec3bcf201d0000000000000000000000000000000000000000000000000003600d00aea31220100000000000000000000000000000000000000000000008cd5a258414f36d17c0000000000000000000000000000000000000000000000002ae20c4df82f520100000000000000000000000000000000000000000000008ce0c11bfe4138a17c",
          "blockHash": "0xfd22d5c7e7499ebeac32373b6964fcba388a3aa46459434942b78b9e981243c0",
          "blockNumber": "0x60eff8",
          "transactionHash": "0x23b8cd11009faf2c1816006e6d00ac4078660541e71ec81f9206f1acd5eb38de",
          "transactionIndex": "0x0",
          "logIndex": "0x2",
          "removed": false
        }
      ],
      "logsBloom": "0x00000000000000000011000000000000000000000000000000000000000000000000400000000000000000100000000000008000000000000000000000000000000000000000000000040000000000800000000000000000000100000000000000800000000000000000000000000000000000004000000080000000000000000000000000000000000000000000000000000400000000000000000001000000200000000000000000200000000000000000000000000000000000000000004000000000000000000001000000008000000002000000804000108000000000000000000000000000021000000000000000000000400000000000000000100000",
      "type": "0x2",
      "transactionHash": "0x23b8cd11009faf2c1816006e6d00ac4078660541e71ec81f9206f1acd5eb38de",
      "transactionIndex": "0x0",
      "blockHash": "0xfd22d5c7e7499ebeac32373b6964fcba388a3aa46459434942b78b9e981243c0",
      "blockNumber": "0x60eff8",
      "gasUsed": "0x18741a",
      "effectiveGasPrice": "0x746a52880f",
      "from": "0x699bceebd59a5b52bb586c737cd7ba636f3fe602",
      "to": "0x6cf9a63bfa77b0bc6d23ef603f3aa7206998b64c",
      "contractAddress": null
    }
  ],
  "libraries": [],
  "pending": [],
  "returns": {},
  "timestamp": 1714194210,
  "chain": 80002,
  "commit": "d8ddccd"
}