{
  "transactions": [
    {
      "hash": "0xf62d05d805a5a882f94a3d92e563fbc5d87830157c93a99928e94ef6bec0dbec",
      "transactionType": "CALL",
      "contractName": null,
      "contractAddress": "0x6cf9a63bfa77b0bc6d23ef603f3aa7206998b64c",
      "function": "updateCommittee(bytes32,bool)",
      "arguments": [
        "0xed1ecf0256ac7bd80a1d390641fc811218a32a99e0afc40a534261168c78918e",
        "false"
      ],
      "transaction": {
        "from": "0x699bceebd59a5b52bb586c737cd7ba636f3fe602",
        "to": "0x6cf9a63bfa77b0bc6d23ef603f3aa7206998b64c",
        "gas": "0x951b",
        "value": "0x0",
        "input": "0x256f225aed1ecf0256ac7bd80a1d390641fc811218a32a99e0afc40a534261168c78918e0000000000000000000000000000000000000000000000000000000000000000",
        "nonce": "0x23",
        "chainId": "0x13882",
        "accessList": null,
        "type": null
      },
      "additionalContracts": [],
      "isFixedGasLimit": false
    }
  ],
  "receipts": [
    {
      "status": "0x1",
      "cumulativeGasUsed": "0x6bf4",
      "logs": [
        {
          "address": "0x0000000000000000000000000000000000001010",
          "topics": [
            "0x4dfe1bbbcf077ddc3e01291eea2d5c70c2b422b415d95645b9adcfd678cb1d63",
            "0x0000000000000000000000000000000000000000000000000000000000001010",
            "0x000000000000000000000000699bceebd59a5b52bb586c737cd7ba636f3fe602",
            "0x0000000000000000000000006ab3d36c46ecfb9b9c0bd51cb1c3da5a2c81cea6"
          ],
          "data": "0x0000000000000000000000000000000000000000000000000002f76e0d997d10000000000000000000000000000000000000000000000000338edf40a0d3cb4700000000000000000000000000000000000000000000013c1741780b89a04b9a000000000000000000000000000000000000000000000000338be7d2933a4e3700000000000000000000000000000000000000000000013c17446f799739c8aa",
          "blockHash": "0x4dc878a1815318070b472883424a3eadbdc4a8c4afdcd3728ee0aefe083053a9",
          "blockNumber": "0x60ff4e",
          "transactionHash": "0xf62d05d805a5a882f94a3d92e563fbc5d87830157c93a99928e94ef6bec0dbec",
          "transactionIndex": "0x0",
          "logIndex": "0x0",
          "removed": false
        }
      ],
      "logsBloom": "0x00000000080000000000000000000000000000000000000000000000000000000000000000000000000000000000000000008000000000000000000000000000000000080000000000000000000000800000000000000000000100000000000000800000000000000000000000000000000000000000000080000000000000000000000000000000000000000000000000000000000000000000000000000000200000000000000000000000000000000000000000000000000000000000004000000000000000000001000000008000000000010000000000100000000000000000000000000000001000000000000000000000000000000000000000100000",
      "type": "0x2",
      "transactionHash": "0xf62d05d805a5a882f94a3d92e563fbc5d87830157c93a99928e94ef6bec0dbec",
      "transactionIndex": "0x0",
      "blockHash": "0x4dc878a1815318070b472883424a3eadbdc4a8c4afdcd3728ee0aefe083053a9",
      "blockNumber": "0x60ff4e",
      "gasUsed": "0x6bf4",
      "effectiveGasPrice": "0x708e969a3",
      "from": "0x699bceebd59a5b52bb586c737cd7ba636f3fe602",
      "to": "0x6cf9a63bfa77b0bc6d23ef603f3aa7206998b64c",
      "contractAddress": null
    }
  ],
  "libraries": [],
  "pending": [],
  "returns": {},
  "timestamp": 1714202552,
  "chain": 80002,
  "commit": "d8ddccd"
}