{
  "transactions": [
    {
      "hash": "0x7d8e91e07afe379620eddc43608e6d7d2034227c3999bfe2c6991efbfc2d9eb9",
      "transactionType": "CALL",
      "contractName": null,
      "contractAddress": "0x6cf9a63bfa77b0bc6d23ef603f3aa7206998b64c",
      "function": "updateCommittee(bytes32,bool)",
      "arguments": [
        "0xed1ecf0256ac7bd80a1d390641fc811218a32a99e0afc40a534261168c78918e",
        "true"
      ],
      "transaction": {
        "from": "0x699bceebd59a5b52bb586c737cd7ba636f3fe602",
        "to": "0x6cf9a63bfa77b0bc6d23ef603f3aa7206998b64c",
        "gas": "0x10b6b",
        "value": "0x0",
        "input": "0x256f225aed1ecf0256ac7bd80a1d390641fc811218a32a99e0afc40a534261168c78918e0000000000000000000000000000000000000000000000000000000000000001",
        "nonce": "0x1e",
        "chainId": "0x13882",
        "accessList": null,
        "type": null
      },
      "additionalContracts": [],
      "isFixedGasLimit": false
    }
  ],
  "receipts": [
    {
      "status": "0x1",
      "cumulativeGasUsed": "0x3d315",
      "logs": [
        {
          "address": "0x0000000000000000000000000000000000001010",
          "topics": [
            "0x4dfe1bbbcf077ddc3e01291eea2d5c70c2b422b415d95645b9adcfd678cb1d63",
            "0x0000000000000000000000000000000000000000000000000000000000001010",
            "0x000000000000000000000000699bceebd59a5b52bb586c737cd7ba636f3fe602",
            "0x0000000000000000000000004ad84f7014b7b44f723f284a85b1662337971439"
          ],
          "data": "0x00000000000000000000000000000000000000000000000000566b48d06d6174000000000000000000000000000000000000000000000000367856d139a35d5d000000000000000000000000000000000000000000000091ed445ef4f9bc921e0000000000000000000000000000000000000000000000003621eb886935fbe9000000000000000000000000000000000000000000000091ed9aca3dca29f392",
          "blockHash": "0xd16d2aa81741ca5f94929a49c0e54ff45e6314fd9eda6b0f05812dde4bd3cbef",
          "blockNumber": "0x60ec15",
          "transactionHash": "0x7d8e91e07afe379620eddc43608e6d7d2034227c3999bfe2c6991efbfc2d9eb9",
          "transactionIndex": "0x1",
          "logIndex": "0x4",
          "removed": false
        }
      ],
      "logsBloom": "0x00000000000000000000000000000000000000000000000000000000000000000000000000000000000000000000000000008000000000000000000000400000000000000000000000000000000000800000000000000000000100001000000000800000000000000000000000000000000000000000000080000000000000000000000000000000000000000000000000000000000000000000000000000000200000000000000000000000000000000000000000000000000000000000004000000000000000000001000000008000000000000000000000100000000000000000000000000000001000000000008000000000000000000000000000100000",
      "type": "0x2",
      "transactionHash": "0x7d8e91e07afe379620eddc43608e6d7d2034227c3999bfe2c6991efbfc2d9eb9",
      "transactionIndex": "0x1",
      "blockHash": "0xd16d2aa81741ca5f94929a49c0e54ff45e6314fd9eda6b0f05812dde4bd3cbef",
      "blockNumber": "0x60ec15",
      "gasUsed": "0xc19c",
      "effectiveGasPrice": "0x72448366aa",
      "from": "0x699bceebd59a5b52bb586c737cd7ba636f3fe602",
      "to": "0x6cf9a63bfa77b0bc6d23ef603f3aa7206998b64c",
      "contractAddress": null
    }
  ],
  "libraries": [],
  "pending": [],
  "returns": {},
  "timestamp": 1714192097,
  "chain": 80002,
  "commit": "d8ddccd"
}