{
  "transactions": [
    {
      "hash": "0xf2bc994d1f4a8b6b85ed9c8e78c52015a61933a5a61470caa7c5a431301df615",
      "transactionType": "CALL",
      "contractName": null,
      "contractAddress": "0x6cf9a63bfa77b0bc6d23ef603f3aa7206998b64c",
      "function": "updateCommittee(bytes32,bool)",
      "arguments": [
        "0xeebe54dc3bb81e77d35a037fd4da29d90d4631eafbca7ed7ca410ef2d037f15d",
        "false"
      ],
      "transaction": {
        "from": "0x699bceebd59a5b52bb586c737cd7ba636f3fe602",
        "to": "0x6cf9a63bfa77b0bc6d23ef603f3aa7206998b64c",
        "gas": "0x951b",
        "value": "0x0",
        "input": "0x256f225aeebe54dc3bb81e77d35a037fd4da29d90d4631eafbca7ed7ca410ef2d037f15d0000000000000000000000000000000000000000000000000000000000000000",
        "nonce": "0x1c",
        "chainId": "0x13882",
        "accessList": null,
        "type": null
      },
      "additionalContracts": [],
      "isFixedGasLimit": false
    }
  ],
  "receipts": [
    {
      "status": "0x1",
      "cumulativeGasUsed": "0x6bf4",
      "logs": [
        {
          "address": "0x0000000000000000000000000000000000001010",
          "topics": [
            "0x4dfe1bbbcf077ddc3e01291eea2d5c70c2b422b415d95645b9adcfd678cb1d63",
            "0x0000000000000000000000000000000000000000000000000000000000001010",
            "0x000000000000000000000000699bceebd59a5b52bb586c737cd7ba636f3fe602",
            "0x0000000000000000000000004d12d6d1ee71f730d3e5e931cc1dca810dc0d90f"
          ],
          "data": "0x00000000000000000000000000000000000000000000000000622ecbab09934c00000000000000000000000000000000000000000000000035656b84d3fb71e8000000000000000000000000000000000000000000000030640cb8613407729d00000000000000000000000000000000000000000000000035033cb928f1de9c000000000000000000000000000000000000000000000030646ee72cdf1105e9",
          "blockHash": "0xb6c00f96e020cada4aac9736d6c5da2edc714c032e6449e6ad7d49095e777fc8",
          "blockNumber": "0x60ead7",
          "transactionHash": "0xf2bc994d1f4a8b6b85ed9c8e78c52015a61933a5a61470caa7c5a431301df615",
          "transactionIndex": "0x0",
          "logIndex": "0x0",
          "removed": false
        }
      ],
      "logsBloom": "0x00000000000000000000000000000000000000000000000000000000000000000000000000000000000000000000000000008000000000000000000000000000000000000000000000000000000000800000000000000000000100000000000000800000000000000000040000000000000000000000000080000000000000000000000000000000000000000000000000000000001000000000000040000000200000000000000000000000000000000000000000000000000000000000004000000000000000000001000000008000000000000000000000100000000000000000000000000000001000000000000000000000000000000000000000100000",
      "type": "0x2",
      "transactionHash": "0xf2bc994d1f4a8b6b85ed9c8e78c52015a61933a5a61470caa7c5a431301df615",
      "transactionIndex": "0x0",
      "blockHash": "0xb6c00f96e020cada4aac9736d6c5da2edc714c032e6449e6ad7d49095e777fc8",
      "blockNumber": "0x60ead7",
      "gasUsed": "0x6bf4",
      "effectiveGasPrice": "0xe8d4a5101e",
      "from": "0x699bceebd59a5b52bb586c737cd7ba636f3fe602",
      "to": "0x6cf9a63bfa77b0bc6d23ef603f3aa7206998b64c",
      "contractAddress": null
    }
  ],
  "libraries": [],
  "pending": [],
  "returns": {},
  "timestamp": 1714191421,
  "chain": 80002,
  "commit": "d8ddccd"
}