{
  "transactions": [
    {
      "hash": "0xc00b1a765b7c537fa4dedffc79b1593aba55e5d534465529e7324b555f5ba2b7",
      "transactionType": "CALL",
      "contractName": null,
      "contractAddress": "0x6cf9a63bfa77b0bc6d23ef603f3aa7206998b64c",
      "function": "updateCommittee(bytes32,bool)",
      "arguments": [
        "0xed1ecf0256ac7bd80a1d390641fc811218a32a99e0afc40a534261168c78918e",
        "false"
      ],
      "transaction": {
        "from": "0x699bceebd59a5b52bb586c737cd7ba636f3fe602",
        "to": "0x6cf9a63bfa77b0bc6d23ef603f3aa7206998b64c",
        "gas": "0x951b",
        "value": "0x0",
        "input": "0x256f225aed1ecf0256ac7bd80a1d390641fc811218a32a99e0afc40a534261168c78918e0000000000000000000000000000000000000000000000000000000000000000",
        "nonce": "0x1a",
        "chainId": "0x13882",
        "accessList": null,
        "type": null
      },
      "additionalContracts": [],
      "isFixedGasLimit": false
    }
  ],
  "receipts": [
    {
      "status": "0x1",
      "cumulativeGasUsed": "0xbdfc",
      "logs": [
        {
          "address": "0x0000000000000000000000000000000000001010",
          "topics": [
            "0x4dfe1bbbcf077ddc3e01291eea2d5c70c2b422b415d95645b9adcfd678cb1d63",
            "0x0000000000000000000000000000000000000000000000000000000000001010",
            "0x000000000000000000000000699bceebd59a5b52bb586c737cd7ba636f3fe602",
            "0x0000000000000000000000004ad84f7014b7b44f723f284a85b1662337971439"
          ],
          "data": "0x000000000000000000000000000000000000000000000000004d966f8939e57000000000000000000000000000000000000000000000000035c39b0e3c519b64000000000000000000000000000000000000000000000091d162b728d9f8d1420000000000000000000000000000000000000000000000003576049eb317b5f4000000000000000000000000000000000000000000000091d1b04d986332b6b2",
          "blockHash": "0x724df9a5491c6882d656d02df31dd848104331d3434df1f6a935a14d9ebeafc5",
          "blockNumber": "0x60ea0a",
          "transactionHash": "0xc00b1a765b7c537fa4dedffc79b1593aba55e5d534465529e7324b555f5ba2b7",
          "transactionIndex": "0x1",
          "logIndex": "0x2",
          "removed": false
        }
      ],
      "logsBloom": "0x00000000000000000000000000000000000000000000000000000000000000000000000000000000000000000000000000008000000000000000000000400000000000000000000000000000000000800000000000000000000100001000000000800000000000000000000000000000000000000000000080000000000000000000000000000000000000000000000000000000000000000000000000000000200000000000000000000000000000000000000000000000000000000000004000000000000000000001000000008000000000000000000000100000000000000000000000000000001000000000008000000000000000000000000000100000",
      "type": "0x2",
      "transactionHash": "0xc00b1a765b7c537fa4dedffc79b1593aba55e5d534465529e7324b555f5ba2b7",
      "transactionIndex": "0x1",
      "blockHash": "0x724df9a5491c6882d656d02df31dd848104331d3434df1f6a935a14d9ebeafc5",
      "blockNumber": "0x60ea0a",
      "gasUsed": "0x6bf4",
      "effectiveGasPrice": "0xb7fdc5c39b",
      "from": "0x699bceebd59a5b52bb586c737cd7ba636f3fe602",
      "to": "0x6cf9a63bfa77b0bc6d23ef603f3aa7206998b64c",
      "contractAddress": null
    }
  ],
  "libraries": [],
  "pending": [],
  "returns": {},
  "timestamp": 1714190986,
  "chain": 80002,
  "commit": "d8ddccd"
}